:100000000C94DB030C94002E0C9422040C94220418
:100010000C9422040C9422040C9422040C942204C8
:100020000C9422040C9422040C9432290C946E2813
:100030000C94581B0C9422040C9422040C9422045B
:100040000C9422040C9422040C9422040C94220498
:100050000C9422040C94CA1A0C9422040C942204CA
:100060000C9422040C9422040C9422040C94220478
:100070000C9422040C9422040C9422040C94220468
:100080000C9422040C9422040C9422040C94220458
:100090000C9422040C9422040C9422040C94220448
:1000A0000C9422040C9422040C94220448114B1149
:1000B00065117211791199119C11D011F2118B12E5
:1000C0008B12FD11FF1103122612461249124C1217
:1000D0006D12A416A416DE16DE1637175317E9188C
:1000E000E9185E173C184D184D18ED1CED1C001D4D
:1000F000001DF61C001D001D001DED1CED1CFB1C51
:10010000001D001DFB1C8226A9265028A926502868
:10011000F526182750280D281D280001010101018E
:1001200001010101020202020202020202030303B0
:100130000303030303040404040404040505050580
:100140000506060606060707070707080808080940
:100150000909090A0A0A0B0B0B0C0C0C0D0D0D0EEC
:100160000E0E0F0F0F101011111112121313141481
:10017000151516161717181819191A1A1B1B1C1DF6
:100180001D1E1E1F2020212222232424252626274F
:100190002829292A2B2C2D2D2E2F30313232333481
:1001A00035363738393A3B3C3D3E3F404142434487
:1001B00045464748494A4C4D4E4F50515354555669
:1001C00058595A5B5D5E5F616264656668696B6C15
:1001D0006D6F7072737577787A7B7D7E8082838590
:1001E00087888A8C8E8F91939596989A9C9EA0A2D0
:1001F000A3A5A7A9ABADAFB1B3B5B7BABCBEC0C2DA
:10020000C4C6C9CBCDCFD1D4D6D8DBDDDFE2E4E79D
:10021000E9EBEEF0F3F5F8FAFDFFFFAA7F55401E7B
:100220000F0500047F3F1F643214643214783C1EB3
:100230001E140A050000000000000000000000007D
:1002400000000000000000000000000000000000AE
:1002500000000000000000007E0F00D4FFFFFFC779
:100260000000007800000000000000002A2B280099
:100270000000000000000000000000000000002955
:10028000000000002C1E3420212224342627252E95
:10029000362D3738271E1F202122232425263333CD
:1002A000362E37381F0405060708090A0B0C0D0EF9
:1002B0000F101112131415161718191A1B1C1D2FC5
:1002C0003130232D350405060708090A0B0C0D0EE5
:1002D0000F101112131415161718191A1B1C1D2FA5
:1002E0003130354C2223252628292A2C2D2F303237
:1002F000333536383A3B3D3E4042434547494A4C08
:100300004E5051535557595A5C5E60626466686935
:100310006B6D6F71737577797B7D7F81838587893D
:100320008A8C8E90929496989A9C9E9FA1A3A5A742
:10033000A8AAACAEAFB1B3B4B6B8B9BBBCBEBFC16E
:10034000C2C3C5C6C7C9CACBCCCDCED0D1D2D2D3F9
:10035000D4D5D6D7D7D8D9D9DADADBDBDBDCDCDC0D
:10036000DCDCDDDDDDDDDCDCDCDCDCDBDBDBDADAD0
:10037000D9D9D8D7D7D6D5D4D3D2D2D1D0CECDCC47
:10038000CBCAC9C7C6C5C3C2C1BFBEBCBBB9B8B65C
:10039000B4B3B1AFAEACAAA8A7A5A3A19F9E9C9AE7
:1003A00098969492908E8C8A89878583817F7D7BB5
:1003B00079777573716F6D6B6968666462605E5C96
:1003C0005A5957555351504E4C4A4947454342405C
:1003D0003E3D3B3A3836353332302F2D2C2A2928F2
:1003E000262523222E001E001F00200021002200AF
:1003F0002B0014001A0008001500170039430400F0
:100400001600070009000A00E1001D001B0006009D
:10041000190005000000000050004F002A004C4267
:1004200000000000E2004D00E0004A00230024002C
:100430002500260027002D001C0018000C001200CB
:10044000130031000B000D000E000F003300344389
:1004500011001000360037003800E50028422C005B
:1004600052005100000000000007E4000503E30013
:100470000000000001000100010001000100010076
:100480000100010001000100010001000100010064
:100490000100010001000100010001000100010054
:1004A0000100010000000000010001000100010046
:1004B0000000000001000100010001000100010036
:1004C0000100010001000100010001000100010024
:1004D0000100010001000100010001000100010014
:1004E0000100010001000100010001000100010004
:1004F00001000100000000000100010001000100F6
:100500000000000035023A003B003C003D003E0088
:10051000010001000100010001002F0001000100A5
:100520000100010001002F02010001000100010093
:1005300001000100000000000100010001000100B5
:100540000000000001000100010001003F00400028
:10055000410042004300440030005F006000610041
:100560000100450030025C005D005E002D00460485
:10057000010059005A005B002E002D02010001000D
:1005800062006300000000004B0001004E0001000B
:10059000000000002900010001000100010001002D
:1005A0000100CA5CC75CC95C01002F000100C65C89
:1005B000C85CC55C01002F02C45CC35CCC5CCB5C36
:1005C0000100010000000000490435000100C25C88
:1005D000000000000100005C0100010001000100BA
:1005E000010001000100010030000100CA5CC75C8D
:1005F000C95C010030020100C65CC85CC55C01003A
:100600000100C45CC35CCC5CCB5C0100C25C01003B
:10061000005201520000000001000100005C0100D6
:100620000000000005010902A10185020901A100E5
:100630000509190129081500250195087501810290
:100640000501093009311581257F9502750881065C
:1006500009381581257F950175088106050C0A3832
:10066000021581257F950175088106C0C005010925
:1006700080A101850319012AB700150126B700954D
:100680000175108100C0050C0901A1018504190143
:100690002AA002150126A002950175108100C0064E
:1006A00060FF0961A1010962150026FF0095207510
:1006B0000881020963150026FF0095207508910244
:1006C000C005010906A101050719E029E715002564
:1006D00001950875018102950175088101050719C9
:1006E0000029FF150026FF00950675088100050802
:1006F000190129059505750191029501750391016F
:10070000C009025B00030100A0FA09040000010314
:1007100001010009211101000122400007058103A8
:1007200008000A0904010002030000000921110168
:1007300000012222000705820320000107050303B0
:100740002000010904020001030000000921110139
:100750000001227B000705840320000A120110011A
:10076000000000084D4436350100010200012C0351
:10077000440061006300740079006C002D004D009E
:1007800061006E00750066006F0072006D00200051
:1007900028003500780036002900000014034F00BF
:1007A00068004B0065007900630061007000730011
:1007B00000000403090411241FBECFEFDAE0DEBFFE
:1007C000CDBF04B603FE27C08091910390919203A0
:1007D000A0919303B09194038730904BA740B04B06
:1007E000D1F41092910310929203109293031092FD
:1007F000940314BE84B7877F84BF0FB6F894A8957E
:1008000080916000886180936000109260000FBE4C
:10081000E0E0F8E3099511E0A0E0B1E0EEE0F1E6F8
:1008200002C005900D92A03CB107D9F723E0A0ECDF
:10083000B1E001C01D92A139B207E1F70E943A0D63
:100840000C9485300C9400009091CB0192FF0DC068
:10085000282F2871283019F4877F846006C0282F3C
:100860002471243011F48B7F886093FF0DC0282FF2
:100870002871283119F4877E846106C0282F2471DD
:10088000243111F48B7E88612091CC0120FF0DC0B2
:10089000382F3871383019F4877F816006C0382FBF
:1008A0003171313011F48E7F886021FF0DC0282F07
:1008B0002871283119F4877E816106C0282F2171A3
:1008C000213111F48E7E886194FD877E08950F9307
:1008D0001F9341E050E060E070E08A019B0104C09A
:1008E000000F111F221F331F8A95D2F7C901B801CB
:1008F0000E94CA1D1F910F910C940D2025E0E6E087
:10090000F2E0DC0101900D922A95E1F72091E801D7
:100910003091E9014091EA01FC0125833683478348
:1009200008951092EA0108958091EA0108953091A6
:1009300005018091060280FF16C0E091040163E08A
:10094000E69FF0011124E956FD4F539A8BB1877F42
:100950009BB198602FB7F894AF0163E0369F400DCC
:10096000511D112414C0809106019091070189172F
:1009700020F7E82FF0E0AF01440F551FE40FF51FFB
:10098000E956FD4F1182108212828F5FF0CFE4177B
:10099000F50789F0319168E09BB9000000C037FF8E
:1009A0008BB9330F000000C000C000C08BB900C07D
:1009B0006A9591F7ECCF2FBF8FE594E00197F1F79F
:1009C00000C0000008959091060290FF16C090911B
:1009D000060120910701921770F4E92FF0E0DF0182
:1009E000AA0FBB1FEA0FFB1FE956FD4F81836083EF
:1009F00042839F5FF0CF0C94970408958091060284
:100A0000282F269530E02115310519F48170826078
:100A100005C02B32310524F0817084658093060275
:100A20000895CF92DF92EF92FF926B017C010E94BA
:100A3000FE04B701A60188E090E0FF90EF90DF9000
:100A4000CF900C94952F80910A02882319F0815041
:100A500080930A0260910602709107028091080259
:100A6000909109020C94110580910A02833018F4C8
:100A70008F5F80930A026091060270910702809155
:100A80000802909109020C941105E6E0F2E083E07F
:100A9000808311828FEF828383831482A8EEB1E07A
:100AA00012968C911297836012968C93608171815B
:100AB000828193810C941105AF92BF92CF92DF9205
:100AC000EF92FF920F931F93CF93DF93E82EF62EB2
:100AD000E901E42FF0E0611106C0E65EFE4FE4910B
:100AE0004E2F2E2F71C0062F10E0E65EFE4F449170
:100AF000F42FC42ED12C26E0829FC00111242FEFA9
:100B000030E0B9010E9434305BEA5603C001579FC0
:100B1000900D11248E0D911D8E0D911D582F550F86
:100B2000580FD901A01BB10BAC9DC001AD9D900D1C
:100B3000BC9D900D1124E92FF59ED0011124AB2FFF
:100B4000BB277901EA1AFB0AEC9CD001ED9CB00DA1
:100B5000FC9CB00D11245901A51AB108A09E70018A
:100B6000A19EF00CB09EF00C1124EF2CFF242E1946
:100B70003F092C9D80012D9D100D3C9D100D1124D1
:100B8000212F6230710591F048F461157105E1F093
:100B900061307105B9F4242F4B2F16C064307105F4
:100BA00069F040F06630710579F00CC0242F492FB0
:100BB000E12F0AC0492FEF2F2B2F06C0292FE42F3A
:100BC000412F02C0292FEB2F49832883EA83DF912D
:100BD000CF911F910F91FF90EF90DF90CF90BF903A
:100BE000AF900895CF93DF9300D01F92CDB7DEB7BB
:100BF0009091060290FF0AC09E012F5F3F4F0E9416
:100C00005C054B8169818A810E94E3040F900F90FB
:100C10000F90DF91CF910895AF92BF92CF92DF9264
:100C2000EF92FF920F931F93CF93DF9300D01F9209
:100C3000CDB7DEB7182FF62E042FE22E90910602C4
:100C400090FF7EC0E92FE695AE2FB0E0A85CBE4FC6
:100C50008C918093E8019E7F923061F49E012F5F1A
:100C60003F4F812F0E945C054B8169818A810E94E0
:100C7000E30443C0823019F4009109023EC086307B
:100C800019F41091070239C08930D9F38931A9F5D7
:100C9000E9518E2F8170D82EE695F0E0E65EFD4F8B
:100CA000A590B490C12CBB2460910801C61618F51C
:100CB0002C2D30E0A29EC001A39E900DB29E900DFF
:100CC000112470E00E943430812FD11002C0860FB1
:100CD00001C0861B90910601290F311DA901440F07
:100CE000551F240F351F29563D4F402F6F2D0E9451
:100CF0005C05C394D9CF0E94970480910702181312
:100D000008C080910802F81204C0809109020817F7
:100D100029F08091EA0182608093EA011093070232
:100D2000F092080200930902EE2051F06091060251
:100D30007091070280910802909109020E941105AA
:100D40000F900F900F90DF91CF911F910F91FF9017
:100D5000EF90DF90CF90BF90AF900895E6E0F2E083
:100D6000438121E1421B08F440E021E0628181815E
:100D70000C940C06E6E0F2E0438121E1420F08F416
:100D80004FEF21E0628181810C940C06E6E0F2E0F5
:100D9000628121E1621B08F460E021E043818181EE
:100DA0000C940C06E6E0F2E0628121E1620F08F4A7
:100DB0006FEF21E0438181810C940C06E6E0F2E0C4
:100DC000818121E04381628188500C940C06E6E029
:100DD000F2E0818121E043816281885F0C940C06FE
:100DE0000E94431B2091F401211104C02091F501C0
:100DF000222321F09093F1018093F0012091F601DC
:100E0000211104C02091F701222321F09093ED01DC
:100E10008093EC01E091DC01F091DD01309749F025
:100E200082E08093F2010480F581E02D82EF91E071
:100E300009940895803F39F49091F50197FF35C0EA
:100E40001092F50159C0813F29F49091F5011916CE
:100E5000BCF32BC09091F401823F29F497FF25C089
:100E60001092F40149C0833F19F41916CCF31DC048
:100E70009091F601893F29F41916BCF41092F601FD
:100E80003BC08A3F19F497FF10C0F8CF8B3F39F46D
:100E90009091F70197FF09C01092F7012DC08C3F88
:100EA00021F49091F7011916BCF39CE0980F95304E
:100EB00080F421E030E0A90102C0440F551F9A954B
:100EC000E2F7CA0180959091F30189238093F301A1
:100ED00013C08D3F21F4809121028E7F0BC08E3F85
:100EE00021F4809121028D7F05C08F3F29F48091EC
:100EF00021028B7F809321028091F401811106C031
:100F00008091F501811102C01092EF018091F601EC
:100F1000811106C08091F701811102C01092EB018E
:100F200008958091210280FF08C06091250170E042
:100F3000759567957595679521C081FF06C060918D
:100F4000250170E07595679519C082FF04C0609116
:100F5000250170E010C09091EB01992399F0609108
:100F600024019617A0F780912501899FC0011124C3
:100F700070E00E9448306038710540F461157105D9
:100F800019F406C061E070E0862F08958FE7089598
:100F900081E008958091210280FF0BC060912701BC
:100FA00085E0689FB00111247595679575956795E3
:100FB0002BC081FF09C06091270185E0689FB001C7
:100FC00011247595679520C082FF07C060912701A5
:100FD00085E0689FB001112417C09091EF0199231B
:100FE000D1F060912601961788F72091270185E0BE
:100FF000289F90011124929FA001939F500D1124CE
:1010000070E0CA010E9448306038710540F46115F3
:10101000710519F406C065E070E0862F08958FE72A
:10102000089581E00895803F21F40E94CA078195C8
:1010300004C0813F29F40E94CA078093F5010895F6
:10104000823F21F40E94CA07819504C0833F29F49E
:101050000E94CA078093F4010895893F19F40E9401
:10106000910705C08A3F31F40E94910781958093D2
:10107000F60108958B3F21F40E949107819504C0E9
:101080008C3F29F40E9491078093F70108959CE01A
:10109000980F953078F421E030E0A90102C0440FA8
:1010A000551F9A95E2F7CA019091F301892B80931D
:1010B000F30108958D3F21F48091210281600BC0DE
:1010C0008E3F21F480912102826005C08F3F29F478
:1010D000809121028460809321020895833011F170
:1010E00028F4813049F0823091F00895853081F103
:1010F00020F18630C1F108958091EE01681720F447
:10110000861B8093EE0108951092EE010895809160
:101110000A01681720F4861B80930A010895109233
:101120000A01089580912701681720F4861B809397
:1011300027010895109227010895809126016817CC
:1011400020F4861B809326010895109226010895AD
:1011500080912501681720F4861B8093250108954E
:1011600010922501089580912401681720F4861BB0
:10117000809324010895109224010895833081F111
:1011800028F4813059F08230D1F00895853009F487
:1011900049C0B8F1863009F456C008958091EE0137
:1011A000262F30E0280F311D2F3F310524F4680F22
:1011B0006093EE0108958FEF8093EE010895809182
:1011C0000A01262F30E0280F311D2F3F310524F46E
:1011D000680F60930A0108958FEF80930A010895C4
:1011E00080912701262F30E0280F311D2F3F310538
:1011F00024F4680F6093270108958FEF80932701EF
:10120000089580912601262F30E0280F311D2F3FB1
:10121000310524F4680F6093260108958FEF8093C1
:101220002601089580912501262F30E0280F311DD9
:101230002F3F310524F4680F6093250108958FEF47
:1012400080932501089580912401262F30E0280FF6
:10125000311D2F3F310524F4680F60932401089558
:101260008FEF8093240108958B3109F474C058F5F1
:101270008B3009F492C078F4863009F446C020F42B
:10128000853009F44CC08BC0873009F456C08830D3
:1012900009F483C084C0803109F470C068F48E30D2
:1012A00009F07DC08091F90182FB222720F991E0AD
:1012B000922790FB82F958C0863109F46EC08931BB
:1012C00009F46BC06CC08A32E9F060F4873209F42B
:1012D00061C028F48E3108F462C08D515CC089323F
:1012E000F1F05DC0833450F48A3308F051C0853387
:1012F00009F450C0883309F450C051C0833409F454
:1013000049C04DC00E94B91B48C08091F901817F3E
:101310008E7F8093F90181E08093790308950E9484
:101320000D202FEF84E39CE0215080409040E1F7B6
:1013300000C000000E94B91A30C08091F901982FB6
:101340009095917090FB80F98093F901911125C0DF
:10135000897F877F10C08091F90181FB222720F9C6
:1013600091E0922790FB81F98093F9019923A9F0EC
:101370008091F90181608093F9010FC08091F9019A
:1013800083FB222720F991E0922790FB83F9ECCF91
:10139000895301C080E00E94670481E0089580E0E5
:1013A00008958091C601811118C08091D800806194
:1013B0008093D8008AE18A95F1F700C08091D90026
:1013C00080FD02C082E001C081E08093C6018230CE
:1013D00021F40E94B22810926A0381E09091C60124
:1013E000913009F080E00895F894E82FE295EF70CD
:1013F000F0E031A1282F2F7081E090E001C0880F2C
:101400002A95EAF7982F9095932391A392A1892B7F
:1014100082A3789408958F929F92AF92BF92CF92B9
:10142000DF92EF92FF920F931F93CF93DF9300D041
:1014300000D000D0CDB7DEB703E611E08DECC82EAA
:1014400081E0D82E4601F12CAA24A394B12CB80136
:10145000D8018C91F894E82FE295EF70F0E021A18B
:101460008F70A50102C0440F551F8A95E2F7CA018B
:10147000922F982B91A392A18095892382A378948F
:1014800000C0EFE6F1E020E030E0E12C4191842F54
:1014900082958F7090E0DC0190968C9190E04F7077
:1014A00002C0959587954A95E2F780FD07C08A2D81
:1014B000022E01C0880F0A94EAF701C080E0E82AF2
:1014C0002F5F3F4F2630310509F70F5F1F4FFB019C
:1014D00080810E94F409F0EAFA95F1F7D4018C9129
:1014E000E81619F0EC9281E001C080E0F82ABFEF25
:1014F0008B1A9B0AE1E009361E0709F0A8CF10916C
:10150000DA01FF2049F081E08093C4010E94431B6F
:101510009093C3018093C2018091C4018823B9F0E4
:101520008091C2019091C3010E94F01A069778F051
:10153000E12FF0E0E55FFD4FD6018D916D018193C4
:10154000B3EDCB16B1E0DB06B9F71092C4010E94EF
:10155000D1096091DA018823E9F18E010F5F1F4FF5
:1015600086E0F80111928A95E9F7862F90E0B8019C
:10157000855F9D4F0E94022D811115C08091C5018C
:101580008F5F8093C501863078F1E091D901F0E05A
:10159000E55FFD4F80E090E0119201968630910565
:1015A000D9F781E022C01092C501E091D901F0E0A5
:1015B000E55FFD4FD8019E01295F3F4F80E09D917F
:1015C0004081491711F0908381E03196A217B3074B
:1015D000B1F70BC070E0655F7D4F8091D90190E05D
:1015E000855F9D4F0E94302D80E0FF2011F081E04B
:1015F00090E026960FB6F894DEBF0FBECDBFDF9108
:10160000CF911F910F91FF90EF90DF90CF90BF90FF
:10161000AF909F908F900895CF93DF930E943725CE
:10162000EC018238910559F1A0F48133910509F458
:1016300073C040F48932910509F467C08A9709F4B0
:1016400072C084C08533910509F458C0C997B9F0B8
:101650007DC0833E910571F138F4803E9105B1F073
:10166000823E910511F172C0863E9105B9F1873E27
:101670009105C9F1843E910509F068C024C08091AC
:10168000CB0180FD5DC081FD5BC060C08091CB015E
:1016900080FD50C08091CC0180FF49C18091CB0179
:1016A00084FD43C1C3EED0E042C18091CB0182FFF3
:1016B0003EC1F4CF8091CB0182FD3FC08091CC012F
:1016C00080FD3EC0EBCF8091CC0181FF30C1809185
:1016D000CB0184FD2AC1C7EED0E029C18091CB01A6
:1016E00083FF25C1F4CF8091CB0183FD2CC0809175
:1016F000CC0181FFECCFC4EED0E019C18091CB01C9
:1017000085FF15C1C9E2D0E012C18091CB0185FFF0
:101710000EC1C5E3D0E00BC18091CB0186FF07C1AC
:10172000CAE2D0E004C18091CB0186FF00C1C1E3D1
:10173000D0E0FDC0C9E3D0E0FAC0C2EED0E0F7C00F
:10174000C0EED0E0F4C0C6EED0E0F1C0C11581E536
:10175000D80708F066C0C11520E5D207E0F0CE0139
:1017600074E0969587957A95E1F783709C2F937036
:1017700021E030E002C0220F331F9A95E2F73C6867
:10178000382BCF70C695C69540E2C49FE001112466
:10179000C22BD32BCCC0C83ED10560F5C03ED105CD
:1017A00008F0C5C0C83AD105B0F4C53AD10540F03B
:1017B000C55AD0E0C257DE4FC881D0E0D064B7C070
:1017C000C130D10509F4B3C008F4AFC0C430D105AD
:1017D00008F4ABC0ACC0CF3BD10508F0A6C0C85AD6
:1017E000D0E0CC0FDD1FCF56DE4F0990D881C02D41
:1017F000D4649DC0C11540E2D40758F4C11581E0FE
:10180000D80708F094C0C03FD10508F48EC0D06559
:101810008EC0C11520E4D20708F487C0DF70D06AFB
:1018200086C0C11545E5D40708F042C0C11584E55E
:10183000D80728F0DC2FCC27C46FD06A78C0C11538
:1018400023E5D207B0F0CE018370992721E030E084
:1018500002C0220F331F8A95E2F78C2F869586955A
:1018600040E2849FC0011124E901C82BD92BDA681A
:101870005EC0C11542E5D40728F4DC2FCC27C16F28
:10188000D06A55C0CE018370992721E030E002C0B4
:10189000220F331F8A95E2F78C2F8695869540E2BA
:1018A000849FC0011124E901C82BD92BDC683FC0FB
:1018B000C11589E5D807B8F4C11528E5D20728F085
:1018C000DC2FCC27C06FD06A32C0C11546E5D407E3
:1018D00060F58C2F0E9424048F71C82FD0E0DC2F7C
:1018E000CC27D06224C0C1158AE5D80780F48C2F9C
:1018F0008F700E94240494E0D695C7959A95E1F7DD
:10190000CF70D0E0DC2FCC27D069C82B10C0CE011F
:1019100090568115904248F48D2F8F710E942404B7
:10192000DD27D0628F71D82B02C0C0E0D0E0CE019D
:10193000DF91CF910895E6E0F2E080818E7F808391
:101940000E945C25E8EEF1E08281816082832FEFC6
:1019500080E792E0215080409040E1F700C0000015
:101960000C9497049091060290FF3BC091708111F6
:1019700002C0926006C08B3210F0946502C0880FDE
:10198000982B909306028091EA0181608093EA018E
:10199000662351F06091060270910702809108025F
:1019A000909109020E94110560910602669570E00F
:1019B0004BE050E085E191E00E947830892B19F0EE
:1019C0000E945C2502C00E94632581E08093E501AE
:1019D00020E04091090260910802809107020C9476
:1019E0000C0608951F93CF93DF93EC01162F8F8180
:1019F00080FF0FC0888180FF0AC08091060281604D
:101A000080930602888186950E94B20C02C00E94D3
:101A10009B0C8F8181FF06C0212F4B816A818981B8
:101A20000E940C068F8182FF08C08E81882319F0E6
:101A30000E94632502C00E945C258F8183FF03C042
:101A400081E08093E501DF91CF911F91089580910E
:101A500006028695815009F48AE261E00C94B20C8A
:101A60008091060286958F5F8B3208F081E061E0FD
:101A70000C94B20CCF93DF93CDB7DEB7AA970FB615
:101A8000F894DEBF0FBECDBF84B7877F84BF0FB68B
:101A9000F894A8958091600088618093600010920E
:101AA00060000FBE90E080E80FB6F894809361006C
:101AB000909361000FBE85B7806885BF85B7806849
:101AC00085BF82E19AE19093C1018093C0010E9499
:101AD000B2280E94D1288091E20084608093E200C5
:101AE000789480916A038823A1F01091E9001F7017
:101AF0009091EC00892F817090FD80E8182B109256
:101B0000E9008091E80083FD0E949C251F701093DE
:101B1000E90082E084BD93E095BD9AEF97BD809384
:101B20006E001092C7011092C8011092C901109264
:101B3000CA018EE090E00E946F2F91E0811101C0F8
:101B400090E09093090180910901882321F010927F
:101B500004018CE003C08CE08093040180930501B4
:101B60000E94D10981110E94D92C80910901809194
:101B70000901882311F090E001C096E09093DA010A
:101B800086E0891B8093D90103E611E029E6E22E65
:101B900021E0F22EF80181918F010E94F409E016F4
:101BA000F106C1F70FE611E095E7E92E91E0F92E75
:101BB000F80181918F010E94F409E016F106C1F746
:101BC000EDECF1E089ED91E0ABE0B2E011921D9215
:101BD0008E179F07D9F780E090E00E947D2F8A3E04
:101BE0009E4F11F00E94B91B82E090E00E946F2F7F
:101BF0008093F9010E94A81B9093CC018093CB01A4
:101C00000E940B0A8FE39CE90197F1F700C00000E6
:101C10000E940B0A80910B0280FF17C06FEF83E2D6
:101C200090E00E94832F6FEF84E290E00E94832F68
:101C30006FEF85E290E00E94832F6FEF7FEF80E0EF
:101C400090E00E94A12F0E94B91A83E090E00E94C8
:101C50006F2F682F70E080E090E00E94CA1D0E9404
:101C6000D109811102C00E94DF2C83E290E00E9422
:101C70006F2F813281F484E290E00E946F2F8730D1
:101C800051F485E290E00E946F2F91E0843109F0D9
:101C900090E0892F01C080E080FF84C48091DB0147
:101CA00081113BC080E090E00E947D2F8A3E9E4FD4
:101CB00021F00E94B91B0E94450588E090E00E9437
:101CC000772F609306027093070280930802909327
:101CD00009028091EA0183608093EA016E7F71F4CA
:101CE0000E94450588E090E00E94772F60930602ED
:101CF0007093070280930802909309020E94FE04E9
:101D00000E945C258091060280FF04C060E08695F9
:101D10000E94B20C81E08093DB018BE091E0909314
:101D2000DD018093DC01B8E16B2E712C10E4312EC3
:101D300000E1402E80E1582E9E012F5F3F4F790138
:101D40005E013FE0A30EB11C80916A03853009F06B
:101D50003FC012E180916A03853009F035C080915F
:101D60006A03843009F11092DE010FB6F894A89549
:101D7000609260000FBE3092600083B7817F846004
:101D800083BF83B7816083BF7894889583B78E7F44
:101D900083BF0FB6F894A895809160008861809306
:101DA0006000109260000FBE80916903882391F259
:101DB0000E940B0AEBE0F2E081918111D4C342E072
:101DC000E731F407C9F7C6CF0E940D200E944E24C8
:101DD0000E940B0A81110E94FF1AAAEFB1E0EBE00A
:101DE000F2E000E010E0802E91908D91892549F17C
:101DF000C12CDD24D394982F9D21F1F00E94D109AC
:101E0000882399F0C9A28AA29D2081E009F480E08C
:101E10008BA30E94431B8160782F9DA38CA349A1B3
:101E20005AA16BA18DA10E948423F801E650FE4FB8
:101E30008081D826D0821AC0C394DD0C96E0C912E6
:101E4000DACF0F5F1F4F0C30110569F68FEF8EA3AD
:101E50008FA318A60E94431B8160782F9AA789A799
:101E60004EA15FA168A58AA50E9484238091E90103
:101E7000882309F4CFC08091E801E0910602E6953D
:101E8000E81BE093E401823059F4F0E0E05DFD4F9F
:101E9000E4910E2F10E0A0E7CA2EA3E2DA2E6BC069
:101EA000863059F4F0E0E35DFD4FE4910E2F10E031
:101EB000F0E6CF2EF3E2DF2E5EC0893061F4E695C6
:101EC000F0E0E65DFD4FE4910E2F10E0E5EECE2E42
:101ED000E2E2DE2E50C08F3061F4E695F0E0E95D7D
:101EE000FD4FE4910E2F10E078E4C72E72E2D72E5A
:101EF00042C0853159F4F0E0EC5DFD4FE4910E2FC6
:101F000010E062ECC62E61E2D62E35C08831F9F0C1
:101F1000833249F4E2E2F2E00591149150E2C52ED9
:101F200053E2D52E28C08432C9F08532F1F48E2FC9
:101F300063E00E941A30E92FF0E0E15EFD4FE4918A
:101F40000E2F10E049E1C42E40E2D42E14C008E266
:101F500010E03FE2C32E31E2D32E0DC004EF11E0BA
:101F600020EFC22E20E2D22E06C000ED17E098E14D
:101F7000C92E90E2D92E8091E501882361F010925C
:101F8000E5010E944F1B9093E3018093E2011092C0
:101F9000E7011092E6010E944F1BE091E201F091EF
:101FA000E3019C012E1B3F0B2F3F3F4798F52091EB
:101FB000E1012223B1F01092E1012091DF01309183
:101FC000E001821B930B8F3F9F4758F4205D3A48F6
:101FD0003093E0012093DF018091EA0188608093D3
:101FE000EA018090E6019090E7010E0F1F1F109309
:101FF000E3010093E20182EE91E0F6010995809100
:10200000E6019091E701892B29F4892819F081E0F4
:102010008093E10186E0E2EFF1E0D70101900D92BB
:102020008A95E1F7C090F401D090F5010091F60196
:102030001091F7011092F4011092F5011092F6013F
:102040001092F701C11003C0DD2009F45DC080913A
:10205000F0019091F1010E94F01AAC019091EF0112
:10206000992339F020910A0130E02417350758F000
:102070004BC02091EE01FAE02F9F9001112424170C
:10208000350718F041C09F3F19F09F5F9093EF0113
:10209000CC2061F00E94CA071C1414F491E001C026
:1020A0009FEF899F802D11248093F401DD2061F042
:1020B0000E94CA071D1414F491E001C09FEF899F8C
:1020C000802D11248093F5013091F4013323E1F048
:1020D0002091F5012223C1F045EB3403C001112406
:1020E000992319F09093F40103C081E08093F401E7
:1020F00035EB2303C0011124992319F09093F501C6
:1021000003C081E08093F501011103C0112309F49C
:1021100051C08091EC019091ED010E94F01A9C0158
:102120009091EB01992309F456C22536310508F444
:1021300041C09F3F19F09F5F9093EB01002361F036
:102140000E949107101614F491E001C09FEF899F3F
:10215000802D11248093F601112361F00E949107D4
:10216000111614F491E001C09FEF899F802D112476
:102170008093F7013091F6013323E1F02091F701CC
:102180002223C1F045EB3403C0011124992319F037
:102190009093F60103C081E08093F60135EB2303B1
:1021A000C0011124992319F09093F70103C081E035
:1021B0008093F7018091F40181110BC08091F501AA
:1021C000811107C08091F601811103C08091F70150
:1021D00081110E94F006CB82DC820D831E8386E093
:1021E000F701A2EFB1E001900D928A95E1F70E940C
:1021F0004E249091F801891721F00E944E2480937B
:10220000F80180916A03843009F09ECD83E08093C9
:10221000E9008091E80082FF97CD8091E80085FF7A
:1022200021C00E94072A81111BC080E2C82ED12C38
:10223000870109C08091F100F80181938F01F1E0DD
:10224000CF1AD10869F08091E80085FDF3CF809125
:10225000E8008B778093E8000E94072A882399F38F
:1022600091E001C090E08091E8008B778093E800D6
:10227000992309F469CDE9818E2F90E0FC01319713
:10228000E331F10508F047C1EA5AFF4F0C945C3086
:102290001A8289E0A5C08A81823009F47AC183302C
:1022A00051F0813009F037C10E94FF1A9B838C8363
:1022B0007D836E8332C1FE013396ABE0B2E08D9137
:1022C0008193AE16BF06D9F728C18A81823009F002
:1022D00022C16B817C818D819E810E94623086E269
:1022E00090E024C04C816B818A810E9411259D83DE
:1022F00057C10D811E811027012710278C81CB80AB
:102300009A812CE0C29E6001112430E9939FC00C99
:10231000D11C1124C80ED11CC80ED11C612FC601BE
:1023200087960E94832F602FC60188960E94832F74
:10233000F4C00E94DD24F1C08A818138B1F050F4EC
:10234000803809F0EAC020E04B816091080280915A
:10235000070223C08238E9F0833809F0DEC020E0AC
:10236000409109026C818B8118C060E08B810E94D2
:10237000B20C8B81811103C00E949B0CCEC0809156
:10238000060281608093060260E086950E94B20C8E
:10239000C4C08B8180930A02C0C00E940C06BDC0DD
:1023A0008A81813899F030F4803809F0B6C0809184
:1023B000090216C0823891F0833809F0AEC08091CE
:1023C00007028B83809108028C83A7C0809106024C
:1023D00080FF02C0869504C080E002C080910A029E
:1023E0008B839BC060910602709107028091080266
:1023F000909109020E94110590C05A828EC081E01E
:102400008A8389E9EDCF0A811B81102701271027D4
:102410008C80912C6701C80189599D4F96012E1916
:102420003F092815390508F078C0093941E014073B
:1024300028F40E946F2FF601848302C0F6011482F3
:102440000F5F1F4FFFEFCF1ADF0AE5CF0A811B8115
:102450001027012710278C80912C6701C80189590A
:102460009D4F96012E193F092815390508F055C0D2
:10247000093921E0120720F4F60164810E94832FBC
:102480000F5F1F4FFFEFCF1ADF0AE8CF0E94CD2466
:1024900044C084E08A8341C00A811B811027012740
:1024A00010278C80912C6701C801879696012E1900
:1024B0003F092815390588F5003422E0120728F471
:1024C0000E946F2FF601848302C0F60114820F5F11
:1024D0001F4FFFEFCF1ADF0AE7CF0A811B811027BA
:1024E000012710278C80912C6701C80187969601DF
:1024F0002E193F092815390580F4003422E012070F
:1025000020F4F60164810E94832F0F5F1F4FFFEFBD
:10251000CF1ADF0AEACF8FEF898380916A03843074
:1025200009F012CC1091E9001F709091EC00892FF6
:10253000817090FD80E8182B82E08093E900809103
:10254000E80080FF0CC040E050E060E270E0C701AE
:102550000E943A2A8091E8008E778093E8001F70ED
:102560001093E900F1CB49BC19BD09B400FEFDCFC1
:102570008091D8008F7D8093D8008091E0008260A8
:102580008093E0008091E00081FDFCCF0E940D204F
:10259000E1CB86E290E00E946F2F1B821C821D829D
:1025A0008E83BBCF60E086E290E00E94832F0E9482
:1025B000DD240E94CD2461E283E290E00E94832F1B
:1025C00067E084E290E00E94832F64E185E290E07E
:1025D0000E94832F63CB232B09F0ADCDEBCD3F922F
:1025E0004F925F926F927F928F929F92AF92BF9223
:1025F000CF92DF92EF92FF920F931F93CF93DF93CF
:10260000CDB7DEB729970FB6F894DEBF0FBECDBFAA
:10261000FC018081918123813481232B31F09F3F04
:1026200031F491E08F3F19F403C091E001C090E0D4
:1026300090FDDDC67F0185E0DE01119601900D92CF
:102640008A95E1F7F701228189819A81222349F055
:102650000E948E1C182F682F89819A810E94311D3B
:1026600003C00E94041D182F69817A81812F0E9466
:1026700037258C01F7018281882309F4F2C0980183
:1026800022513F452031310508F019C18FEF93E009
:102690000E946F2F8111EFC0025137E6832E32E086
:1026A000932E002379F08114F4E09F0609F4E3C02F
:1026B000C4010E946F2F811101C001501FEF811AC8
:1026C000910AEFCF1E821F821886198644244394F4
:1026D0002AE0322E84010F5F1F4FC4010E946F2F2A
:1026E0008E831F82882309F4C6C09FEF980F933012
:1026F00060F48F834E8222E0820E911CC8010E94FA
:102700006F2F8887811102C0B6C048018E010A5F11
:102710001F4FF80120812223E9F2213009F04CC03B
:102720008181813049F46801F2E0CF0ED11CF801BB
:1027300082810E94092C0AC0823051F46801F2E0C3
:10274000CF0ED11CF80182810E94E22A860186C048
:10275000833049F46801F2E0CF0ED11CF801828188
:102760000E947B2AF3CF843019F00F5F1F4F76C091
:10277000F80122810E5F1F4F80E090E030E020538F
:1027800031092A30310568F4389EA001399E500D78
:102790001124C901840F951F0F5F1F4FF80120817D
:1027A000EDCF009709F45AC0EFE9FFE03197F1F758
:1027B00000C000000197F5CFE22FF0E0EC59FD4F8B
:1027C0005490822F86958695869590E0FC01EC5A70
:1027D000FD4F64902770712C022E02C0759467948F
:1027E0000A94E2F7F1E06F227724FC01EC5BFD4FE5
:1027F000A490B12C022E02C0B594A7940A94E2F7DB
:1028000031E0A322BB24FC01EC5CFD4FC490D12C31
:1028100002C0D594C7942A95E2F781E0C822DD244E
:102820006114710419F081EE0E94E22AA114B1042E
:1028300019F086EE0E94E22A852D0E94092CAB2811
:1028400019F086EE0E947B2A672819F081EE0E941B
:102850007B2ACD2819F08CE20E94092C0F5F1F4FB4
:1028600058CF00313FE5130709F0E8C481E00E942A
:10287000671D0E947E2580918702877009F4B7C585
:10288000F7018281882309F4B2C582E029960FB648
:10289000F894DEBF0FBECDBFDF91CF911F910F9196
:1028A000FF90EF90DF90CF90BF90AF909F908F9070
:1028B0007F906F905F904F903F900C948C1D0031F3
:1028C000FFE51F0711F481E005C001312FE5120774
:1028D00021F482E00E94A91DCCCF033FFCE51F0735
:1028E00049F406E221EE40EE63EF7CE5C7010E9469
:1028F0005A24C1CF043F2CE5120708F049C1083D16
:102900003CE5130731F407E225EE45EE68ED7CE582
:10291000EDCF093D9CE5190731F408E221E045EED1
:1029200069ED7CE5E3CF073DECE51E0731F406E2F7
:1029300021EE41EE67ED7CE5D9CF882309F45DC136
:102940001092170202309CE5190708F440C10631C5
:10295000ECE51E0730F0C8018A5F9C45099708F036
:1029600036C10E94A81B9093CC018093CB0100310B
:10297000FCE51F0709F4C3C008F041C008303CE57E
:10298000130709F49AC0F0F404309CE5190709F420
:1029900087C068F40230FCE51F0709F477C00330F4
:1029A0001C4509F0E5C08091CB01826076C00630FD
:1029B0003CE5130709F46EC008F07BC08091CB01A1
:1029C00088606BC00C309CE5190709F485C068F479
:1029D0000A30FCE51F0709F474C008F079C00E94B2
:1029E0000D208091CB01806858C00E303CE5130764
:1029F00009F476C008F07FC08091CB018BC00B3FFB
:102A00009CE5190709F44FC018F50331FCE51F07D1
:102A100009F47DC078F401313CE5130709F473C073
:102A200002311C4509F0A4C00E940D208091CB0109
:102A30008F7733C005319CE5190709F472C008F49B
:102A400086C00A3F1C4509F093C08091CC013EC06E
:102A50000F3F2CE5120709F45FC058F40D3F8CE5D9
:102A6000180709F444C008F43FC08091CC0182608B
:102A70002DC00130EDE51E0709F475C008F45DC0F6
:102A800002301D4509F074C060E06EC08091CB013A
:102A9000816003C08091CB0180618093CB0168C0CD
:102AA0008091CB0111C08091CC0182608093CC01D8
:102AB0005FC08091CB018062F0CF8091CB018064B8
:102AC000ECCF8091CB0188608460E7CF8160EECF4E
:102AD0008091CB018E7FE1CF8091CB018D7FDDCFC7
:102AE0008091CB01877FD9CF8091CC0118C0809194
:102AF000CC018D7FDBCF8091CB018F7ECECF8091BB
:102B0000CB018F7DCACF8091CB018F7BC6CF8091C7
:102B1000CB01877F8B7FC1CF8091CC018D7F8E7F52
:102B2000C5CF8091CB0182FB222720F991E092272B
:102B300090FB82F990FB83F9B0CF8091CC01982F64
:102B4000909591708E7F892B90FB81F9AFCF0E9479
:102B50000D208091CB0187FB222720F991E092275D
:102B600090FB87F99ACF61E08EE090E00E94832F7E
:102B70006091CB011091CC0184E090E00E94832F02
:102B8000612F82E290E00E94832F0E940D2073CE7D
:102B9000053FFCE51F0731F406E221EE42EE65EF4A
:102BA0007CE5A4CE053F2CE5120730F407E225EEC4
:102BB00044EE64EF7CE59ACE063F3CE5130709F04E
:102BC000BCCE07E225EE46EE66EF7CE58FCE063101
:102BD0008CE5180721F580918A028A7A91E009F440
:102BE00090E090931802882311F065E301C069E238
:102BF00089E192E00E948E1B0FC00631ECE51E07B2
:102C000009F040C080911802882309F41EC365E3CF
:102C100089E192E00E94811B0E942A1C2CCE0A3579
:102C20003DE5130749F158F401159CE51907B1F08A
:102C30000E3D1C4509F042C00E94B91B1CCE0B354D
:102C4000FDE51F07D9F00C351D45C1F58091CC017C
:102C500082FB882780F991E0892711C00E940D200E
:102C60003FEF84E39CE0315080409040E1F700C0AA
:102C700000000E94B91AFFCD81E001C080E00E94EF
:102C8000741C1CC080918A0282720C3C3CE51307C4
:102C900009F48CC308F00BC3063CECE51E0709F4ED
:102CA00071C308F0E2C2033C2CE5120709F460C3CB
:102CB00008F0CDC2023C1C4509F430C3F701828103
:102CC00000811181882349F0C8010E948E1CD82EF2
:102CD000682FC8010E94311D04C0C8010E94041D54
:102CE000D82EB8018D2D0E940C0B8C01982EF70167
:102CF000D280A580A2949FE0A9228091870287704C
:102D000099F0DD2089F0812F807F803421F080E2EE
:102D1000800F883048F082E00E948C1D80918702ED
:102D20008770CC24C3948111C12CB12EB2948FE052
:102D3000B8228B2D90E08C30910508F04AC2FC013E
:102D4000E759FF4F0C945C30812F807F1F708823E0
:102D500011F01295107FDD20B9F0112309F424C27F
:102D600080E2800F883010F0911006C080918A02B6
:102D7000182B10938A0205C080918902182B10939A
:102D800089020E942A1C10C2802F0E947B2A1123D4
:102D900009F41FC2005E1095083010F0911006C0B3
:102DA00080918A02182310938A0205C080918902BB
:102DB0001823109389020E942A1C0BC2812F807F46
:102DC0001F70803211F01295107F992021F0F1E0F0
:102DD0009F1611F130C0DD20B1F0AA2081F001E092
:102DE000A0120DC08091CC0182FDF3C180918B02B5
:102DF000182B181709F4EDC110938B02EAC18091CA
:102E00008B02812B10C0AA2021F021E0A21609F428
:102E1000E0C10E94241C27C0DD2041F035E03A15B6
:102E200008F4D7C1812F0E94712AD3C184E08A158A
:102E300008F4CFC118C0DD2049F0AA2099F3F701AA
:102E4000858180FFB1C18F708583ECCFAA2059F0B6
:102E5000093309F0BBC1FFEF17EE23E0F15010403A
:102E60002040E1F7B1C1812F0E94662AB2C1812FB3
:102E700086958695837019F0813059F0AAC1DD20BE
:102E800019F0C801937002C080E090E00E943824DD
:102E9000A6C1DD2019F0C801937002C080E090E067
:102EA0000E9422249CC1802FDD2019F00E9413086B
:102EB00002C00E941A070E94F00691C1812F837000
:102EC00009F069C0D11089C1902F9295969597709D
:102ED000990F990F802F8F70882E912CA12CB12CD7
:102EE000092E04C0880C991CAA1CBB1C0A94D2F79A
:102EF00004FF12C04FE050E060E070E004C0440FF7
:102F0000551F661F771F9A95D2F7DB01CA0180957E
:102F10009095A095B09503C080E090E0DC011695F7
:102F20001695412F4370423019F1C8F400918C027C
:102F300010918D0220918E0230918F02413059F014
:102F400088299929AA29BB29BC01CD0160237123B5
:102F5000822393230AC0802A912AA22AB32ABC0181
:102F6000CD01682979298A299B290E94CA1D35C16A
:102F700088299929AA29BB2900918C0210918D02D8
:102F800020918E0230918F02BC01CD016027712704
:102F900082279327EACFDD2019F0812F817001C0AD
:102FA0008695882309F419C1902F9295969597706C
:102FB000990F990F802F8F70882E912CA12CB12CF6
:102FC000092E04C0880C991CAA1CBB1C0A94D2F7B9
:102FD00004FF12C04FE050E060E070E004C0440F16
:102FE000551F661F771F9A95D2F7DB01CA0180959E
:102FF0009095A095B09503C080E090E0DC01169517
:103000001695412F43704230D9F068F50091740352
:10301000109175032091760330917703413059F078
:1030200088299929AA29BB29BC01CD0160237123D4
:10303000822393231EC0802A912AA22AB32A13C076
:1030400088299929AA29BB29009174031091750335
:103050002091760330917703BC01CD016027712761
:103060008227932706C0BC01CD01682979298A29C6
:103070009B290E945D1DB1C01F70DD2039F0812F9A
:103080000E94A91D802F0E94712AA7C0802F0E9434
:10309000662A812F0E94671DA0C0802F32EF9316F1
:1030A00009F440C0391538F090EF991661F0E1EF5E
:1030B0009E1699F174C0F3EF9F16D9F124EF921682
:1030C00009F44EC06CC0DD2019F134E03A1508F463
:1030D00080C01F7181E090E0A0E0B0E0AC01BD01D4
:1030E00004C0440F551F661F771F1A95D2F78091B1
:1030F000740390917503A0917603B09177038A01D0
:103100009B01082719272A273B27C901B80125C099
:1031100025E02A1508F45DC0DCCFDD2029F0812FE1
:103120008F7130C0DD20D9F3812F8F710E94671D10
:1031300050C0DD2079F01F7181E090E0A0E0B0E0A8
:10314000BC01CD0104C0660F771F881F991F1A9517
:10315000D2F703C060E070E0CB010E945D1D39C072
:10316000DD2099F01F71812F0E94A91D8091CC0153
:1031700082FD07C038E0139FC00111248360809353
:103180008702812F0E94A91D24C081E00E948C1D0E
:1031900081E08A15F0F482E00E948C1D1AC0DD20C7
:1031A00039F0AA2009F4BBCF802F0E94E22A11C077
:1031B000AA2009F4B9CF893349F49FEFE7EEF3E091
:1031C0009150E040F040E1F700C00000802F0E94E5
:1031D0007B2A88EF8B0D843010F40E944E24CC2083
:1031E00009F405C18091870280FD01C1F7011282B7
:1031F0008595859585950E94A91DC7010E94EF12AE
:103200008091870285958595859529960FB6F894C6
:10321000DEBF0FBECDBFDF91CF911F910F91FF9009
:10322000EF90DF90CF90BF90AF909F908F907F9066
:103230006F905F904F903F900C94671D01319FE518
:10324000190709F04ACB82E012CB69E2E1CC043CD9
:103250009CE5190709F491C0053C1C4509F02ECDE9
:103260004EED56E067EE76E0A5C0093CFCE51F0791
:1032700009F492C070F4073C3CE5130709F487C0D9
:10328000083C1C4509F01ACD42ED56E066EC76E0AC
:1032900091C00A3CECE51E0709F483C00B3C1C45B9
:1032A00009F00CCD43E255E064E375E083C0013DD5
:1032B0002CE5120709F48AC098F40E3C8CE5180737
:1032C00009F47EC008F479C00F3CECE51E0709F450
:1032D0007AC0003D1C4509F0F1CC6EE089E084C065
:1032E000043D2CE5120709F477C060F4023D8CE53B
:1032F000180709F46EC0033D1C4509F0DFCC61E0FE
:1033000088E16FC0053DECE51E0709F468C00D3586
:103310001D4509F0D3CC6AE285E266C080910602C1
:1033200080FF20C08E7F809306026091060270911C
:10333000070280910802909109020E9411050E94E3
:103340005C258091EA0181608093EA010FEF10E72C
:1033500022E0015010402040E1F700C000000E9430
:10336000970489CA81608093060261E0869539C01E
:1033700047E25DE060E37DE01DC040E35DE067E2C1
:103380007DE018C047EE56E06EED76E013C046ECE7
:1033900056E062ED76E00EC04EEA56E06AEB76E06B
:1033A00009C04AEB56E06EEA76E004C044E355E01B
:1033B00063E275E00E9456255ECA61E081E011C0BB
:1033C00065E082E011C068E086E00EC064E18FE055
:1033D0000BC067E185E108C062E289E105C061E0F8
:1033E00083E20E94B20C47CA0E94442544CA29962F
:1033F0000FB6F894DEBF0FBECDBFDF91CF911F9106
:103400000F91FF90EF90DF90CF90BF90AF909F9083
:103410008F907F906F905F904F903F900895809134
:103420005F03089580E00895209159029091280249
:1034300056E02917A9F030E0529FF001539FF00D9C
:103440001124E75DFD4F7181761306C070817813FA
:1034500003C07281741306C02F5F3F4F2770E9CFFE
:1034600080E0089581E00895CF93DF9300D01F920C
:10347000CDB7DEB790916A03943011F589837B83D1
:103480006A839093E9008FEF9091E800815095FD59
:1034900006C095ED9A95F1F700008111F5CF809166
:1034A000E80085FF0DC040E050E063E070E0CE0131
:1034B00001960E943A2A8091E8008E778093E80076
:1034C0000F900F900F90DF91CF910895BC0184E091
:1034D0000C94341ABC0183E00C94341A24E0209339
:1034E000E9002FEF3091E800215035FD06C035EDA1
:1034F0003A95F1F700002111F5CF2091E80025FF62
:103500000BC040E050E066E070E00E943A2A8091F3
:10351000E8008E778093E8000895CF93DF9321E051
:103520002093E9002FEF3091E800215035FD06C0CF
:1035300035ED3A95F1F700002111F5CF2091E80023
:1035400025FF14C0EC0140E050E068E070E00E940C
:103550003A2A8091E8008E778093E80088E0FE01A7
:10356000A0E6B3E001900D928A95E1F7DF91CF914B
:10357000089587E797E790930108809300089AE001
:1035800088E10FB6F894A895809360000FBE9093E1
:103590006000FFCF78941F920F920FB60F92112404
:1035A0008F939F93AF93BF938091900290919102DC
:1035B000A0919202B09193020196A11DB11D80933A
:1035C000900290939102A0939202B0939302BF91C4
:1035D000AF919F918F910F900FBE0F901F901895F4
:1035E0009C014FB7F8948091900290919102A09124
:1035F0009202B09193024FBF821B930B08952FB795
:10360000F894609190027091910280919202909151
:1036100093022FBF08950F931F930E94D10988230F
:1036200021F01F910F910C94FF1A0E94FF1A009134
:10363000C7011091C8012091C9013091CA01600FE2
:10364000711F821F931F1F910F910895CF92DF92D8
:10365000EF92FF926B017C010E94D10981110EC093
:103660000E94FF1AC61AD70AE80AF90AC092C701CF
:10367000D092C801E092C901F092CA01FF90EF9088
:10368000DF90CF9008952FB7F89480919002909199
:103690009102A0919202B09193022FBF08950E94CF
:1036A000D10981110C94431B0E940B1BCB0108957F
:1036B0001F920F920FB60F9211248F939F93AF9387
:1036C000BF938091DE01811113C08091900290918F
:1036D0009102A0919202B09193024196A11DB11D59
:1036E0008093900290939102A0939202B0939302E0
:1036F000BF91AF919F918F910F900FBE0F901F9030
:1037000018959C012A5F3F4FFC014281461301C07E
:103710001282019682179307B9F708959C01FC0164
:1037200032969FEF80E04191461789F09F3F19F450
:10373000411101C0982F8F5F8630A9F79F3F39F064
:10374000F901E90FF11D97FDFA9562830895089537
:10375000CF9384E090E00E946F2FC82F82E290E028
:103760000E946F2F2C2F30E0A901582BCA01CF9156
:1037700008956AEE7EEF80E090E00E94A12F60E065
:1037800082E090E00E94832F60E083E090E00E945E
:10379000832F10928C0210928D0210928E02109242
:1037A0008F0260E084E090E00E94832F60E082E27C
:1037B00090E00E94832F60E085E090E00E94832FDC
:1037C00060E086E090E00E94832F6FEF87E090E05A
:1037D0000E94832F40E050E0BA0188E090E00E9410
:1037E000952F60E08DE090E00E94832F40E050E054
:1037F000BA0188E190E00E94952F60E087E190E0B7
:103800000E94832F40E050E0BA018CE190E00E94DA
:10381000952F60E070E080E290E00E94A12F40E0F0
:1038200050E0BA0188E190E00E94952F40E050E01E
:10383000BA018FE090E00E94952F40E050E0BA017D
:1038400083E190E00C94952F80918B02811110926E
:103850008B02089590918A0280918902892B209190
:103860008802982F922B9093190280918B028823C3
:1038700089F0892B80931902EBE1F2E097E080E078
:10388000915029F021912223D9F38F5FF9CF811133
:103890000E94241CE091DC01F091DD01309731F0B1
:1038A0000280F381E02D89E192E00994089580E09F
:1038B00090E00E94382480E090E00E942224109240
:1038C0008902109288020E942A1CE2EFF1E086E051
:1038D000DF011D928A95E9F71092EF011092EB013A
:1038E000109221020C94F006CF93C091CC01C2FB40
:1038F000992790F9981781F080FBC2F9C093CC0109
:103900006091CB0184E090E00E94832F6C2F82E2D3
:1039100090E0CF910C94832FCF910895BF92CF92D6
:10392000DF92EF92FF920F931F93CF93DF938C015F
:10393000C0907403D0907503E0907603F090770305
:1039400080918C0290918D02A0918E02B0918F0295
:10395000C82AD92AEA2AFB2ACFE1D0E0D701C6013A
:103960000C2E04C0B695A795979587950A94D2F723
:1039700080FD04C0219790F7B12C07C0BC2EB80180
:103980008C2F0E940C0B0197A9F38B2DDF91CF9107
:103990001F910F91FF90EF90DF90CF90BF9008950F
:1039A000CF93DF93EC010E948E1CBE010E940C0B92
:1039B000DF91CF9108950E94D01C292F2F70E92FFD
:1039C000E295EF704E2F50E0FA013297EE30F1059C
:1039D000B8F4EB58FF4F0C945C30803F99F018F42A
:1039E000883E70F40FC0843F59F40CC0883E50F0FC
:1039F000813F31F407C0822F86958695869508957C
:103A000080E0089581E00895292F220F920F990FE9
:103A1000890F682F669566956695982F977085E053
:103A2000689FB001112440E050E080E0FB01E40F0A
:103A3000F51FE65AFD4F208130E0092E02C0369571
:103A400027950A94E2F721703327042E01C0220F34
:103A50000A94EAF7822B4F5F5F4F4530510531F7EB
:103A60000895292F220F920F990F890FE82FE695BD
:103A7000E695E695877051E001C0550F8A95EAF703
:103A800085E0E89FF0011124E65AFD4F20E030E088
:103A900070E04081CB01022E02C0969587950A9472
:103AA000E2F78170819584278523842781932F5F96
:103AB0003F4F2530310569F7089560937403709383
:103AC000750380937603909377030C94571C0F93A0
:103AD0001F9341E050E060E070E004C0440F551FC8
:103AE000661F771F8A95D2F740955095609570951F
:103AF0008091740390917503A0917603B091770340
:103B00008A019B01082319232A233B23C901B801F9
:103B10001F910F910C945D1D209187028095822347
:103B200080938702982F977041F430E0482F082E39
:103B3000000C550B2417350721F49091CC0192FF0E
:103B400007C08595859585950E94671D109287020F
:103B500008950F931F9341E050E060E070E004C0CF
:103B6000440F551F661F771F8A95D2F78091740303
:103B700090917503A0917603B09177038A019B0120
:103B8000082B192B2A2B3B2BC901B8011F910F9130
:103B90000C945D1D60938C0270938D0280938E0255
:103BA00090938F020C94571C809159029091280297
:103BB000891719F08F5F8770FBCF08950F931F93BC
:103BC000CF93DF938091270282958F7009F05DC0BB
:103BD00080912402882309F458C0809159021091E1
:103BE00028026091220270912302C0912502D09197
:103BF000260291E06F3F09F090E0292F06E081173F
:103C000009F443C0209721F07F3F21F030E003C04A
:103C100031E001C0322F90E030FD34C0089FF00148
:103C2000099FF00D1124DF01A75DBD4F11963C9156
:103C30001197371327C03C91361324C012963C913C
:103C4000129731111FC013964D915C9114974C1B24
:103C50005D0B483C5105B0F4809127028F70806164
:103C600080932702E25DFD4F80818F7080618083A9
:103C700082E292E00E94EF12DF91CF911F910F91AB
:103C80000C94D41D01968770BACFDF91CF911F910C
:103C90000F9108958F929F92AF92BF92CF92DF9231
:103CA000EF92FF920F931F93CF93DF93CDB7DEB7C1
:103CB00061970FB6F894DEBF0FBECDBF8C0185E0D3
:103CC000F801DE011D9601900D928A95E1F7D80169
:103CD000DC901196EC9011971296CC909091220264
:103CE0002091230240912502509126024115510551
:103CF00031F02F3F31F481E09F3F19F403C081E0A0
:103D000001C080E080FD58C1F801A380B48082E248
:103D1000882E82E0982EF0902402B501641B750B6A
:103D2000FF2009F403C180912702382F307F683CBF
:103D3000710508F0CDC0311188C02E1112C09D113F
:103D400010C0FC2CC1100DC08F70806180932702C1
:103D5000C4010E94EF1280912702D80115968C931E
:103D600048C1A114B10439F0BFEFEB1206C081E0E5
:103D7000DB1203C003C081E001C080E080FD03C00E
:103D800081E08C2502C080E090E080FF10C04C2DC7
:103D90006E2D8D2D0E94141A882349F082E292E044
:103DA0000E94EF12E2E2F2E086E0DF0199C0AB2868
:103DB00039F0BFEFEB1206C081E0DB1203C003C095
:103DC00081E001C080E080FD03C081E08C2502C05D
:103DD00080E090E0E82FE170BE2E80FF2CC04C2DDB
:103DE0006E2D8D2D0E94141AF82E811124C0DD86AF
:103DF000EE868D859E850E94D01C292F22952F70DE
:103E0000223018F0243090F405C09F7059F08111D1
:103E100009C0EFC09F7031F0D80115969C91907F3A
:103E200009F4E7C0805E883008F4E3C0C8010E944E
:103E3000EF12FB2CDEC0FC2CCC2009F4DAC0809100
:103E400027028160809327024EC02E1106C09D116B
:103E500004C0C11002C0F8018BC0DD86EE868D85DE
:103E60009E850E94DB1C882369F1CC2059F12091AA
:103E70002702822F82958F7090E0029774F08091D4
:103E800022029091230298878F831986BB86AA8687
:103E90002C87CE0107960E94EF1286E0F801A2E27D
:103EA000B2E001900D928A95E1F70E94DE1D0DC0EF
:103EB0002E15D9F0DD86EE868D859E850E94DB1C51
:103EC00081111DC0C8010E94EF12FF24F39491C01C
:103ED0003111EECF82E292E00E94EF1286E0D4012F
:103EE0001D928A95E9F7F12C84C09D11E3CFC11092
:103EF000E1CFF8018583C8010E94EF1257C0CC20A2
:103F000009F320912702822F82958F7090E002970B
:103F100024F280912202909123029A8389831B824A
:103F2000BD82AC822E83CE010196B5CF683C71056F
:103F3000E8F5FC2CCC2031F22E1127C09D1125C0B4
:103F40002091270220FD18C0822F82958F70482F64
:103F500050E04115510581F0F80125834F3051059E
:103F600041F08F5F982F9295907F822F8F70892BD1
:103F70008583C8010E94EF1286E0F801A2E2B2E058
:103F800001900D928A95E1F734C0DD86EE868D852D
:103F90009E850E94DB1C811180CF80912702816069
:103FA00080932702C8010E94EF1223C086E0D4014B
:103FB0001D928A95E9F71DC0CC2009F483CFDD86D8
:103FC000EE868D859E850E94DB1CF82E882309F4E1
:103FD00079CF86E0F801A2E2B2E001900D928A95D5
:103FE000E1F780912202909123020E94D01C0E944E
:103FF000DE1D8F2D61960FB6F894DEBF0FBECDBFCC
:10400000DF91CF911F910F91FF90EF90DF90CF90B4
:10401000BF90AF909F908F90089510928A0286E093
:10402000EBE1F2E0DF011D928A95E9F70C94571C51
:1040300008957F928F929F92AF92BF92CF92DF921C
:10404000EF92FF920F931F93CF93DF93FC01828037
:10405000748081E08483E4EEF2E09490E3E6F3E0A0
:10406000E491A12CF5E0BF2ECC24CA94D12CE919FF
:104070000E2F10E080910801A81608F0A2C0EA2CCB
:10408000F12C22E0281568F0BE9CF001BF9CF00DD9
:104090001124E152FD4F8091070280838091080234
:1040A000818371100AC0BE9CF001BF9CF00D1124E9
:1040B000E152FD4F138212826AC0BE9CE001BF9C98
:1040C000D00D1124C152DD4F8B818823F9F081502E
:1040D0008B832FEF829FC00111246C8170E00E94BE
:1040E0003430FB01FF27EC51FD4F8491E82FE91993
:1040F0002FEFE29FC0011124B8010E94343080915B
:104100000902689FB00111247A8341C00E945F2F89
:10411000209109022695215830E0A901440F551F2E
:10412000322F2227240F351F232F3327821793077F
:1041300074F582E0881588F40E945F2FB6010E9412
:10414000483088830E945F2F209108022695622FB5
:1041500070E00E944830280F2983BE9CF001BF9C6C
:10416000F00D1124E152FD4F128280910902843139
:1041700020F0893C18F088EC01C084E1BE9CF0017D
:10418000BF9CF00D1124E152FD4F84838383809105
:1041900006019701280F311DC901880F991F280FAB
:1041A000391F29563D4FBE9CF001BF9CF00D1124D4
:1041B000E152FD4F4281618180810E945C05A394A0
:1041C00059CFDF91CF911F910F91FF90EF90DF902A
:1041D000CF90BF90AF909F908F907F900C9497045A
:1041E0000F931F93CF93DF93EC0100E010E08091D9
:1041F0000801282F30E00217130724F590910601DB
:104200009801290F311DA901440F551F240F351F97
:1042100029563D4F869590E04C81081719071CF4EC
:10422000442331F002C0411103C04091090201C092
:1042300040E060910802809107020E945C050F5FD8
:104240001F4FD5CF0E9497048C8190E0019681701A
:1042500099278C83DF91CF911F910F9108958F92B1
:104260009F92AF92BF92CF92DF92EF92FF920F9305
:104270001F93CF93DF938C01FC014481C42FD0E0C6
:104280009E01DE010E940B309B01AC010E94D62FE3
:104290006B017C01E0E2F0E0EC1BFD0BA5E5B0E07A
:1042A0009B01AC010E94D62F4B015C019F01DF01F5
:1042B0000E9469309B01AC010E94E12F9B01AC017F
:1042C0002C0D3D1D4E1D5F1DC501B4010E94E92F3F
:1042D000C22FD22F2A3228F4F3E02F9F900111240D
:1042E0000DC025E530E02C1B3109C901880F991F4D
:1042F000280F391F37FF02C02F5F3F4F3595279595
:10430000C22FC095F12C85E5E82EED1A80910801A9
:10431000F816C8F4F1FC02C08E2D01C08D2F9091CB
:1043200006012F2D30E0290F311DA901440F551F23
:10433000240F351F29563D4F4C2F609108020E94D3
:104340005C05F394E3CF0E949704F8018481811106
:1043500002C091E003C0803219F49FEF90932201D4
:1043600090912201890FF8018483DF91CF911F91F1
:104370000F91FF90EF90DF90CF90BF90AF909F9004
:104380008F9008951F93CF93DF93EC018C8181115F
:1043900009C081E08C831092950292E090932101F4
:1043A000809320018091060190910701891770F494
:1043B000E82FF0E09F01220F331FE20FF31FE956B1
:1043C000FD4F1182108212828F5FF0CF10E060915A
:1043D00008011617C0F5E12FF0E070E0CF010E9450
:1043E000483020910601820F20919502022E000C88
:1043F000330B90E0E217F307CCF020912101022E5D
:10440000000C330B2E173F078CF09C01220F331F3B
:10441000820F931F9C0129563D4F409109026091E4
:104420000802809107020E945C050BC0FC01EE0FA0
:10443000FF1F8E0F9F1FFC01E956FD4F1182108256
:1044400012821F5FC4CF0E949704809120012091A7
:104450009502280F2093950290912101980F909337
:10446000210119165CF4022E000C330B4091080157
:1044700050E0415051092417350734F0819580935D
:104480002001813009F41C82DF91CF911F910895A2
:104490008F929F92AF92BF92CF92DF92EF92FF9254
:1044A0000F931F93CF93DF93EC018A8180FF03C0AA
:1044B000BB24BA9402C0BB24B3948C8181110DC07B
:1044C00081E0B81206C08091080181508093940267
:1044D00002C01092940281E08C83A12C48E1942EBA
:1044E00080910801A81608F044C080910601CA2CEA
:1044F000D12C8601080F111DC801880F991F080FC4
:10450000191F09561D4FF80111821082128234E0E2
:10451000E32EF12C812C80919402880D89312CF0AE
:10452000692D0E942630892F05C087FF03C0909116
:104530000801890F082E000C990BC816D90691F4B2
:10454000809109028E9DA0018F9D500D11245595DB
:10455000479555954795980160910802809107020B
:104560000E945C058B0CF1E0EF1AF108A1F6A39410
:10457000B7CF0E9497048091940291E0B9120EC0C7
:10458000811107C0809108018150809394021C82A0
:104590000FC0815080939402BC820AC090E00196C3
:1045A0006091080170E00E944830809394028C83EF
:1045B000DF91CF911F910F91FF90EF90DF90CF90FF
:1045C000BF90AF909F908F900895FF920F931F938D
:1045D000CF93DF93EC01F12C0FEF10E06091080115
:1045E000F616F0F4809106012F2D30E0280F311DD2
:1045F000C901880F991F280F391F29563D4F70E0B8
:10460000C8010E944830962F8C8140910902609128
:104610000802F99E800D11240E945C05F394DECF00
:104620000E9497049A818C8190FF02C08F5F01C025
:1046300081508C83DF91CF911F910F91FF9008954E
:104640000F931F93CF93DF9300D01F92CDB7DEB7A8
:104650008C018091960281110AC09E012F5F3F4F0D
:104660004FEF6FEF0E945C058A8180939602F801FC
:104670008481813051F028F0823061F440919602BB
:104680000AC08091960240E007C06091960240E027
:1046900080E003C040E080E060E00E94E304F801B5
:1046A000848190E0019663E070E00E94483084834A
:1046B0000F900F900F90DF91CF911F910F91089560
:1046C000CF93DF93EC01E6E0F2E0438162818C81DD
:1046D0000E94F2058C818F5F8C83DF91CF910895CA
:1046E000CF93DF93EC01EC81F0E0EC51FD4F44916E
:1046F000E6E0F2E0628181810E94F2058C818F5FA9
:104700008C83DF91CF9108951F93CF93DF93CDB723
:10471000DEB767970FB6F894DEBF0FBECDBF342F5C
:104720004B8B252F5C8B6D8B7E8B8F8B4E895F899E
:1047300061111092890286E0FE013D96DF01982FFB
:104740001D929A95E9F73D872E876F87598B488B85
:10475000DE01179601900D928A95E1F7CE0107963A
:104760000E944A1E81113EC086E0FE013796DE019E
:10477000119601900D928A95E1F7FF81E8856A858F
:104780007B856115710531F0EF3F31F481E0FF3F2A
:1047900019F403C081E001C080E080FD23C02091B6
:1047A000280230E0C901019687709927409159028B
:1047B00050E08417950779F1F983EA837D836C8350
:1047C00096E0929FD001939FB00D1124A75DBD4F3D
:1047D000FE01319601900D929A95E1F7809328029F
:1047E0000E94D41D16E080915902909128028917E9
:1047F000F9F0189FC0011124875D9D4F0E944A1E49
:104800008823B1F08091590290E001968770992732
:1048100080935902E8CF0E940D2010922802109236
:104820005902E2E2F2E086E0DF011D928A95E9F7A3
:1048300067960FB6F894DEBF0FBECDBFDF91CF9164
:104840001F91089520915B0330915C03281739076D
:1048500071F090935C0380935B03E091DC01F09135
:10486000DD01309721F00084F185E02D0994089551
:104870002091590330915A032817390771F090930A
:104880005A0380935903E091DC01F091DD013097E8
:1048900021F00680F781E02D09940895E091DC0174
:1048A000F091DD01309721F00190F081E02D099425
:1048B00080E008950F931F93CF93DF93C42FD22FDF
:1048C000FC0182818823C9F0409317020E94431B98
:1048D000909358038093570380E28C0F883008F040
:1048E00057C0C77081E001C0880FCA95EAF7DF9111
:1048F000CF911F910F910C94712A80911702481348
:1049000030C080915703909158030E94F01A883C60
:10491000910538F510E21D0FCD17B9F080E28C0F2C
:10492000883040F4C77081E001C0880FCA95EAF76B
:104930000E94662A183028F581E09D2F977001C0EB
:10494000880F9A95EAF70E94712A802F0E94092CFD
:104950001830F0F4D77081E001C0880FDA95EAF7DB
:104960000AC080E28C0F883098F4C77081E001C0E3
:10497000880FCA95EAF7DF91CF911F910F910C94A0
:10498000662A802FDF91CF911F910F910C94092CF3
:10499000DF91CF911F910F910895CF93DF93C7E6D9
:1049A000D2E060E0CE010E94832F2196C11584E001
:1049B000D807B9F7DF91CF910895CF92DF92EF92A8
:1049C000FF920F931F93CF93DF93C0E0D0E08E014F
:1049D00000571F4F6E018CE0C80ED11CFE01EC5138
:1049E000FC4FE590F4906F2DCE0187960E94832FA7
:1049F0006E2DCE0188960E94832F2296CC15DD0560
:104A000069F70C171D0731F7E80100341240F9F679
:104A1000DF91CF911F910F91FF90EF90DF90CF909A
:104A200008950F931F93CF93DF93C42FD0E0CC0F43
:104A3000DD1F2CE0629FC00DD11D112430E9839F42
:104A4000C00DD11D1124CE0187960E946F2F082F13
:104A500010E0102F0027CE0188960E946F2F98013A
:104A6000282BC901DF91CF911F910F910895462FF7
:104A7000843038F47C3028F4663018F4672F0C94B6
:104A8000112580E090E008959091060290FF04C007
:104A90009695981740F003C0811105C090E09617D5
:104AA00010F40C94300D61E00C94B20C882311F0DA
:104AB000FA0101C0FB010994E8EEF1E01182828164
:104AC00084608283089560910602669570E04BE0F1
:104AD00050E085E191E00E947830892B19F481E063
:104AE0008093E9010E944F1B9093E3018093E201C0
:104AF0008091EA0184608093EA0108950F931F93E7
:104B00008091740390917503A0917603B09177031F
:104B10008C019D010670112722273327BC01CD018E
:104B2000063011052105310511F4686001C0677F69
:104B30001F910F910C945D1D1F93CF93DF93CDB701
:104B4000DEB7AA970FB6F894DEBF0FBECDBFECE676
:104B5000F3E08091F100819343E0E437F407C9F773
:104B600080916D03833009F462C030F4813071F0BC
:104B7000823009F49CC0B3C08A3009F488C08B30FD
:104B800009F46DC0893009F0AAC020C080916C037F
:104B9000813A09F0A4C08091E800877F8093E80003
:104BA0008091700390917103892B21F468E080E675
:104BB00093E003C060E080E090E070E00E947B2C16
:104BC0008091E8008B778093E80089C080916C0326
:104BD000813209F084C08091700390917103009735
:104BE00019F0029709F07BC08091E800877F8093DD
:104BF000E8008091E80082FD05C080916A03811180
:104C0000F8CF6DC02091F3008091F20090E0922BDC
:104C1000029729F48091F1008B7F813021F48091FB
:104C2000F10080935F038091E8008B7754C08091FE
:104C30006C03813A09F053C0809170039091710325
:104C4000892B09F04CC08091E800877F8093E800B1
:104C50008091E80080FFFCCF8091230137C08091D4
:104C60006C038132E1F58091700390917103892B7F
:104C7000B1F58091E800877F8093E8000E94272C9F
:104C800080916E03809323010E940D2028C08091A3
:104C90006C03813221F58091E800877F8093E800E2
:104CA0000E94272C80916F0380935E0318C080912F
:104CB0006C03813AA1F48091E800877F8093E8003B
:104CC0008091E80080FFFCCF80915E038093F1002B
:104CD0008091E8008E778093E8000E94272C8091D5
:104CE000E80083FFDDC180916C0390916D03492F33
:104CF00050E04A30510508F0D3C1FA01ED57FF4F9B
:104D00000C945C30803821F0823809F0C9C108C0A9
:104D10008091680390916903992389F082600FC0A4
:104D2000809170038F70873008F0BAC18093E900DA
:104D30008091EB0085FB882780F91092E900909123
:104D4000E800977F9093E8008093F1001092F100C3
:104D500070C1282F2D7F09F0A3C1882319F082305C
:104D600061F09EC180916E03813009F099C193304A
:104D700009F080E0809369032EC080916E03811159
:104D80002AC0809170038F702FEF280F263008F013
:104D900087C18093E9002091EB0020FF1CC0933075
:104DA00021F48091EB00806214C09091EB0090613F
:104DB0009093EB0021E030E0A90102C0440F551FA1
:104DC0008A95E2F74093EA001092EA008091EB00A6
:104DD00088608093EB001092E9008091E800877F63
:104DE0008093E8000E94272C5BC1811159C110916A
:104DF0006E031F778091E3008078812B8093E3001E
:104E00008091E800877F8093E8000E94272C8091A2
:104E1000E80080FFFCCF8091E30080688093E3008E
:104E2000111102C082E001C083E080936A0338C19F
:104E30008058823008F034C120916E0330916F03A6
:104E40002C3D53E0350779F583E08A838AE2898334
:104E50004FB7F894DE01139620E03EE051E2E32FD5
:104E6000F0E050935700E49120FF03C0E295EF700B
:104E70003F5FEF708E2F90E0EA3010F0C79601C0D0
:104E8000C0968D939D932F5F243149F74FBF80913A
:104E9000E800877F8093E8006AE270E0CE01019627
:104EA0000E947B2CB4C08091700390917103432FBA
:104EB000552743305105A9F068F44130510509F4F4
:104EC000FEC04230510509F0EBC08BE590E0E1E017
:104ED000F7E04BC04132510529F14232510589F1C9
:104EE000DFC0C901992781309105A1F058F00297E0
:104EF00009F0D6C0EEE6F7E0E4918E2F90E0EEE602
:104F0000F7E030C0E2EBF7E0E4918E2F90E0E2EBC7
:104F1000F7E028C0ECE9F7E0E4918E2F90E0ECE9AF
:104F2000F7E020C08330910508F0BAC0880F991FC0
:104F3000FC01E258FE4F0190F081E02D89E090E005
:104F400014C08330910508F0ABC0FC01EE0FFF1FC9
:104F5000E858FE4F0190F081E02DDC01AB58BE4FC8
:104F60008C9190E0009709F49BC02091E800277F86
:104F70002093E800209172033091730328173907BA
:104F800008F4C90140E0009789F120916A032223C7
:104F900009F43DC02530D9F12091E80023FD37C048
:104FA0002091E80022FD2FC02091E80020FFEBCFE8
:104FB0004091F3002091F20030E0342B009759F03B
:104FC0002830310540F444914093F1003196019727
:104FD0002F5F3F4FF3CF41E02830310509F040E02B
:104FE0002091E8002E772093E800CDCF4111CDCF5E
:104FF0000AC080916A03882351F0853041F0809186
:10500000E80083FD04C08091E80082FFF2CF809128
:10501000E8008B778093E80043C0803809F040C0F7
:105020008091E800877F8093E80080916B038093F4
:10503000F1008091E8008E77D3CE811131C080914C
:105040006E0390916F039927029754F58091E800C1
:10505000877F8093E80010916E0310936B030E948A
:10506000272C111106C08091E30087FD02C081E06A
:1050700001C084E080936A0342E061EC81E00E9419
:10508000462C42E261EC84E00E94462C42E261EC54
:1050900082E00E94462C42E260EC83E00E94462CB3
:1050A0008091E80083FF10C08091E800877F8093A3
:1050B000E8008091EB0080628093EB0005C082E104
:1050C00090E0ECE5F7E051CFAA960FB6F894DEBF7A
:1050D0000FBECDBFDF91CF911F9108951F920F9208
:1050E0000FB60F9211242F933F934F935F936F93BB
:1050F0007F938F939F93AF93BF93CF93DF93EF9360
:10510000FF93C091E900CF708091EC00D82FD1704F
:1051100080FDD0E81092E9008091F000877F8093B5
:10512000F00078940E949C251092E9008091F00094
:1051300088608093F000CD2BCF70C093E900FF9181
:10514000EF91DF91CF91BF91AF919F918F917F911F
:105150006F915F914F913F912F910F900FBE0F90E4
:105160001F901895E8EDF0E080818E7F808310928B
:10517000E2001092DA001092E100A0EEB0E08C9113
:1051800081608C9380818F77808319BCA7EDB0E01C
:105190008C918E7F8C9380818F7E808310925D03B3
:1051A0000895CF92DF92EF92FF920F931F93CF93C8
:1051B000DF93C8EDD0E088818F7E8883E7EDF0E053
:1051C00080818160808384E082BF81E080935D0381
:1051D00088818E7F888302EE10E0F80110821092A1
:1051E000DA0081EEC82ED12CF601108288818F77EB
:1051F000888388818068888388818F7D888319BCB3
:1052000010926A0310926B03109269031092680364
:1052100090EEE92EF12CF70180818B7F80838881CD
:105220008160888342E060E080E00E94462CF601C5
:1052300080818E7F8083F80180818160808380817E
:1052400088608083F70180818E7F80838881806180
:105250008883DF91CF911F910F91FF90EF90DF90A6
:10526000CF9008951F920F920FB60F9211242F9393
:105270003F934F935F936F937F938F939F93AF93DE
:10528000BF93EF93FF938091E10082FF09C080916B
:10529000E20082FF05C08091E1008B7F8093E100F6
:1052A0008091DA0080FF2AC08091D80080FF26C05C
:1052B0008091DA008E7F8093DA008091D90080FFA0
:1052C00018C080E189BD82E189BD09B400FEFDCF2F
:1052D00081E080936A0380915D0381110FC00E9479
:1052E000B2280E94D1288091E20084608093E2007D
:1052F00005C019BC10926A0310925D038091E10011
:1053000080FF17C08091E20080FF13C08091E2000F
:105310008E7F8093E2008091E20080618093E200C2
:105320008091D80080628093D80019BC85E080937A
:105330006A038091E10084FF2EC08091E20084FF27
:105340002AC080E189BD82E189BD09B400FEFDCF9C
:105350008091D8008F7D8093D8008091E1008F7E6E
:105360008093E1008091E2008F7E8093E200809143
:10537000E20081608093E20080916B03882311F04A
:1053800084E007C08091E30087FD02C081E001C096
:1053900083E080936A038091E10083FF27C08091BE
:1053A000E20083FF23C08091E100877F8093E100CA
:1053B00082E080936A0310926B038091E1008E7FFC
:1053C0008093E1008091E2008E7F8093E2008091E3
:1053D000E20080618093E20042E060E080E00E94B1
:1053E000462C8091F00088608093F000FF91EF914F
:1053F000BF91AF919F918F917F916F915F914F91ED
:105400003F912F910F900FBE0F901F9018952091F4
:10541000E4003091E50095E64091EC00842F817026
:1054200040FF23C08091E80080FD1DC080916A0389
:10543000882399F0853099F08091EB0085FD11C0AB
:105440004091E4005091E5002417350729F391506D
:1054500011F09A01E1CF84E0089582E0089583E09D
:10546000089581E0089580E008954091E80042FFAA
:10547000DDCF0895EF92FF920F931F93CF93DF93A9
:105480007C018B010E94072A811119C0E7010115D7
:105490001105A1F08091E80085FD0AC08091E80027
:1054A0008E778093E8000E94072A882381F307C043
:1054B00089918093F10001501109E9CF80E0DF91DB
:1054C000CF911F910F91FF90EF900895882341F0A5
:1054D000809590918A02892380938A020C942A1CD9
:1054E0000895882339F090918A02892B80938A024B
:1054F0000C942A1C0895882309F463C0823869F447
:105500000E944E2481FF5DC069E389E192E00E9420
:105510008E1B0E942A1C69E30EC0833891F40E94FE
:105520004E2480FF4EC063E589E192E00E948E1B0D
:105530000E942A1C63E589E192E00E94811B0C9481
:105540002A1C843869F40E944E2482FF3AC067E422
:1055500089E192E00E948E1B0E942A1C67E4EBCF37
:105560009CEF980F913A10F4682FE5CF90E2980FD6
:10557000983088F4877021E030E0A90102C0440F20
:10558000551F8A95E2F7CA01809590918A02892376
:1055900080938A02D4CF9BE5980F933020F480E06B
:1055A00090E00C94382498E5980F973120F480E02F
:1055B00090E00C942224803F20F00E941A070C9463
:1055C000F0060895CF93882309F421C1C82F8238AB
:1055D000B1F40E944E2481FD1AC169E389E192E091
:1055E0000E948E1B0E942A1C2FEF81EE94E0215016
:1055F00080409040E1F700C0000069E317C08338A5
:10560000E1F40E944E2480FD02C163E589E192E04D
:105610000E948E1B0E942A1C2FEF81EE94E02150E5
:1056200080409040E1F700C0000063E589E192E02E
:105630000E94811BCF910C942A1C8438B1F40E94E3
:105640004E2482FDE4C067E489E192E00E948E1B53
:105650000E942A1C2FEF81EE94E021508040904060
:10566000E1F700C0000067E4E1CF8CEF8C0F813AD6
:1056700008F080C080917903813069F018F08230A1
:1056800021F170C080918A02823209F0A8C08C2F6B
:105690000E9434096CC080918A028232C1F3C43105
:1056A00089F050F4CB3009F498C0C03109F05DC0E6
:1056B00082E08093790391C0C93221F0C83309F4A4
:1056C0008CC053C01092790350C0C93299F118F5BB
:1056D000C43181F1A0F4C73009F099C01092EE01F5
:1056E00084E180930A01C09327018CE38093260113
:1056F00088E08093250188E28093240188C0CE5100
:10570000C63008F084C0EC2FF0E0EC57FE4F8081EB
:10571000809378037CC0CE34F9F028F4CB3409F0C0
:1057200076C06AE014C0C13581F0C23509F06FC09F
:1057300061E00DC080917803882319F010927803FE
:1057400066C081E08093790362C061E006C0809109
:105750007803CF910C94BE086AE080917803CF91D2
:105760000C946E08109279033AC080E08170811128
:105770004EC035C080E28C0F883068F4C77081E07D
:1057800090E001C0880FCA95EAF790918A02892BB0
:1057900080938A024FCFEBE5EC0FE33040F4F0E06A
:1057A000E257FE4F808190E0CF910C943824E8E5D9
:1057B000EC0FE73150F4F0E0EE0FFF1FEF56FE4F15
:1057C00080819181CF910C942224C03F00F18C2FD5
:1057D0000E941308CF910C94F00681E0C7CFEBE153
:1057E000F2E081E292E02191C21749F08E179F0703
:1057F000D1F76C2F89E192E00E948E1B1BCF6C2F9A
:1058000089E192E00E94811B0E942A1CF2CFCF9175
:1058100008951F93CF93DF93182F893319F0C0E0B9
:10582000D0E002C0C0E5D0E0812F0E94E22A20979C
:1058300041F08FE99FE00197F1F700C00000219748
:10584000F6CF812FDF91CF911F910C947B2A80910D
:105850006C0387FF11C08091E80082FD05C0809134
:105860006A038111F8CF11C08091E8008B770BC0DB
:1058700080916A03882349F08091E80080FFF8CF87
:105880008091E8008E778093E8000895982F9730F4
:1058900068F59093E900981739F07091EC00209129
:1058A000ED005091F00003C0242F762F50E021FD31
:1058B00002C09F5FECCF3091EB003E7F3093EB0056
:1058C0003091ED003D7F3093ED003091EB00316081
:1058D0003093EB007093EC002093ED005093F000B8
:1058E0002091EE0027FDE5CF80E008958F70809332
:1058F000E90081E008952091720330917303261727
:10590000370748F06115710539F42091E8002E77CA
:105910002093E80001C0B901FC0120E06115710588
:1059200079F180916A038823F1F18530F1F180915A
:10593000E80083FD3CC08091E80082FD2EC080918C
:10594000E80080FFEBCF2091F3008091F20090E01F
:10595000922B6115710551F08830910538F4219131
:105960002093F100615071090196F3CF21E008976F
:1059700009F020E08091E8008E778093E800CECF98
:105980002111CFCF0AC080916A03882361F085304E
:1059900061F08091E80083FD0AC08091E80082FFF9
:1059A000F2CF80E0089582E0089583E0089581E0D9
:1059B000089562E070E088E291E00C94AE2D62E020
:1059C00070E088E291E00C94B72D0E949404882343
:1059D00061F086E893E00E947E0481E090E00E94FE
:1059E000902E892B11F40C949104089580918503D5
:1059F000883039F460E086E893E00E94F20C10925F
:105A000085030895CF93DF93D62FC72F0E94E52CEF
:105A100080E090E00E94902E892BF1F4ED2FFC2F76
:105A200080E090E0DC01A158BC4F2C9121930196BD
:105A300086309105B9F70E940B1BDC01CB01029661
:105A4000A11DB11D80937B0390937C03A0937D03E4
:105A5000B0937E0381E001C080E0DF91CF91089593
:105A6000CF93DF93D62FC72F0E94F62C60917B0334
:105A700070917C0380917D0390917E030E94261B90
:105A8000ED2FFC2F80E090E02191DC01A158BC4F6C
:105A90002C93019686309105B9F7DF91CF91089547
:105AA0008EE1489B02C08150E1F7489BFECF0895EC
:105AB000589880E28A95F1F7589A0895FC012AE0F7
:105AC0002A95F1F790E020E080E031E0261779F0A8
:105AD00040E14A95F1F7880F489B02C08160932707
