:100000000C9491040C9400310C94D8040C94D804F2
:100010000C94D8040C94D8040C94D8040C94D804F0
:100020000C94D8040C94D8040C940C2C0C94482BED
:100030000C94C51D0C94D8040C94D8040C94D804CA
:100040000C94D8040C94D8040C94D8040C94D804C0
:100050000C94D8040C94371D0C94D8040C94D80438
:100060000C94D8040C94D8040C94D8040C94D804A0
:100070000C94D8040C94D8040C94D8040C94D80490
:100080000C94D8040C94D8040C94D8040C94D80480
:100090000C94D8040C94D8040C94D8040C94D80470
:1000A0000C94D8040C94D8040C94D804FC141415A3
:1000B0001B15BF15BF15531564157715B8152C19E9
:1000C0002C1966196619BF19DB196E1B6E1BE8190E
:1000D000C51AD21AD21A5A1F5A1F6D1F6D1F631FDD
:1000E0006D1F6D1F6D1F5A1F5A1F681F6D1F6D1FDB
:1000F000681F502977292A2B77292A2BC329E6291B
:100100002A2BE72AF72A0000000000000000000068
:1001100000000000000000000000000000000000DF
:10012000000000000000000000007E0F00D4FFFF70
:10013000FFC70000007800000000000000002A2B2C
:100140002800000000000000000000000000000087
:100150000029000000002C1E3420212224342627F0
:10016000252E362D3738271E1F2021222324252611
:100170003333362E37381F0405060708090A0B0CDF
:100180000D0E0F101112131415161718191A1B1C27
:100190001D2F3130232D350405060708090A0B0CE5
:1001A0000D0E0F101112131415161718191A1B1C07
:1001B0001D2F3130354C0001010101010101010108
:1001C0000202020202020202020303030303030308
:1001D00003040404040404040505050505060606D5
:1001E0000606070707070708080808090909090A92
:1001F0000A0A0B0B0B0C0C0C0D0D0D0E0E0E0F0F37
:100200000F101011111112121313141415151616C4
:100210001717181819191A1A1B1B1C1D1D1E1E1F33
:100220002020212222232424252626272829292A82
:100230002B2C2D2D2E2F30313232333435363738AA
:10024000393A3B3C3D3E3F404142434445464748A6
:10025000494A4C4D4E4F50515354555658595A5B7C
:100260005D5E5F616264656668696B6C6D6F70721C
:10027000737577787A7B7D7E8082838587888A8C88
:100280008E8F91939596989A9C9EA0A2A3A5A7A9BC
:10029000ABADAFB1B3B5B7BABCBEC0C2C4C6C9CBB3
:1002A000CDCFD1D4D6D8DBDDDFE2E4E7E9EBEEF069
:1002B000F3F5F8FAFDFFFFAA7F55401E0F05000475
:1002C0007F3F1F643214643214783C1E1E140A05EA
:1002D000FD377A585A000004E6D6B44602002101E0
:1002E00016000000742FE5A3E002B1011A5D003D85
:1002F0008889C65436C3174FE4DD5C7431C9895F01
:10030000E41655C0286371F477888567D766777ED1
:100310007BBF1B6F96EF4B6D0EF4838545901BCB17
:10032000D44ED5B3C7535C91DCA136EC1C999C9B91
:10033000ACB0C2FAAA3B12963563A494386816A8EA
:10034000C02B59BE85F4A0934D9FFA741D36308D95
:10035000BFD2B96C8635EE97F924BF576534FB4799
:10036000B43C8BE5E697A9535DEE9EEECA4205CFFD
:10037000FA6E0B3A21B2566A4CC9D75BFD439F8097
:10038000F2B7E4747EEFF7E7127B244E7020F06A38
:100390002C0A9251B97828AD179484CE3FC538C540
:1003A000FC64D4694B8ED0CB8C4B69B414D91AAE93
:1003B00084C46E12734FFD76779AF8EB67E00624DB
:1003C000725A7E21958F8ECE620B892034A467CE1F
:1003D0003B8EB6B123C85EFC2B7C23AB4BA259539A
:1003E000BE1459E1827A727EA3BF9C198CB2C9DE19
:1003F0005E6F07941FB0314B9520BF577EBCA40F92
:100400003F017906695263E3710000008D49B985A7
:1004100062B47CCF0001B602B20500002F33B6C42F
:10042000B1C467FB020000000004595A22232526AC
:1004300028292A2C2D2F3032333536383A3B3D3E91
:100440004042434547494A4C4E5051535557595ADB
:100450005C5E6062646668696B6D6F7173757779F5
:100460007B7D7F81838587898A8C8E9092949698F4
:100470009A9C9E9FA1A3A5A7A8AAACAEAFB1B3B406
:10048000B6B8B9BBBCBEBFC1C2C3C5C6C7C9CACB5B
:10049000CCCDCED0D1D2D2D3D4D5D6D7D7D8D9D926
:1004A000DADADBDBDBDCDCDCDCDCDDDDDDDDDCDC8F
:1004B000DCDCDCDBDBDBDADAD9D9D8D7D7D6D5D4AC
:1004C000D3D2D2D1D0CECDCCCBCAC9C7C6C5C3C278
:1004D000C1BFBEBCBBB9B8B6B4B3B1AFAEACAAA8CD
:1004E000A7A5A3A19F9E9C9A98969492908E8C8A81
:1004F00089878583817F7D7B79777573716F6D6B5C
:100500006968666462605E5C5A5957555351504E33
:100510004C4A4947454342403E3D3B3A38363533E5
:1005200032302F2D2C2A2928262523222E001E008A
:100530001F002000210022002B0014001A000800D8
:1005400015001700394304001600070009000A00CF
:10055000E1001D001B00060019000500000000005E
:1005600050004F002A004C4200000000E2004D0005
:10057000E0004A00230024002500260027002D006B
:100580001C0018000C001200130031000B000D00BD
:100590000E000F0033003443110010003600370006
:1005A0003800E50028422C005200510000000000F5
:1005B0000007E4000503E300000000000100010063
:1005C0000100010001000100010001000100010023
:1005D0000100010001000100010001000100010013
:1005E0000100010001000100010001000000000005
:1005F00001000100010001000000000001000100F5
:1006000001000100010001000100010001000100E2
:1006100001000100010001000100010001000100D2
:1006200001000100010001000100010001000100C2
:1006300001000100010001000100010000000000B4
:1006400001000100010001000000000035023A0035
:100650003B003C003D003E000100010001000100A4
:1006600001002F00010001000100010001002F0224
:100670000100010001000100010001000000000074
:100680000100010001000100000000000100010064
:10069000010001003F0040004100420043004400CF
:1006A00030005F00600061000100450030025C0026
:1006B0005D005E002D004604010059005A005B00F9
:1006C0002E002D0201000100620063000000000006
:1006D0004B0001004E000100000000002900010055
:1006E00001000100010001000100CA5CC75CC95C97
:1006F00001002F000100C65CC85CC55C01002F0230
:10070000C45CC35CCC5CCB5C010001000000000059
:10071000490435000100C25C000000000100005CDB
:1007200001000100010001000100010001000100C1
:1007300030000100CA5CC75CC95C010030020100E6
:10074000C65CC85CC55C01000100C45CC35CCC5CD9
:10075000CB5C0100C25C01000052015200000000AD
:1007600001000100005C0100000000000501090219
:10077000A10185020901A10005091901290515003A
:10078000250195057501810295017503810105011A
:10079000093009311581257F9502750881060938D0
:1007A0001581257F950175088106050C0A3802150B
:1007B00081257F950175088106C0C005010980A1CA
:1007C00001850319012AB700150126B700950175A7
:1007D000108100C0050C0901A101850419012AA09E
:1007E00002150126A002950175108100C00660FF68
:1007F0000961A1010962150026FF00952075088195
:10080000020963150026FF00952075089102C005B6
:10081000010906A101050719E029E7150025019541
:1008200008750181029501750881010507190029E4
:10083000FF150026FF0095067508810005081901BF
:100840002905950575019102950175039101C0096E
:10085000025B00030100A0FA09040000010301018A
:100860000009211101000122400007058103080051
:100870000A0904010002030000000921110100011E
:100880002222000705820320000107050303200040
:100890000109040200010300000009211101000107
:1008A0002281000705840320000A120110010000C4
:1008B00000084D4436350100010203011C03760097
:1008C000690061006C003A00660036003400630085
:1008D000320062003300630000002C03440061001A
:1008E0006300740079006C002D004D0061006E0003
:1008F000750066006F0072006D0020002800350052
:10090000780036002900000014034F0068004B00F7
:10091000650079006300610070007300000004034B
:10092000090411241FBECFEFDAE0DEBFCDBF04B64D
:1009300003FE27C08091410390914203A09143039D
:10094000B09144038730904BA740B04BD1F4109244
:10095000410310924203109243031092440314BEC9
:1009600084B7877F84BF0FB6F894A8958091600004
:10097000886180936000109260000FBEE0E0F8E3B1
:10098000099511E0A0E0B1E0EEE2F7E602C00590C3
:100990000D92A83CB107D9F723E0A8ECB1E001C063
:1009A0001D92A134B207E1F70E94C40E0C94953356
:1009B0000C9400009091D30192FF0DC0282F287154
:1009C000283019F4877F846006C0282F24712430D2
:1009D00011F48B7F886093FF0DC0282F2871283178
:1009E00019F4877E846106C0282F2471243111F404
:1009F0008B7E88612091D40120FF0DC0382F387183
:100A0000383019F4877F816006C0382F317131305A
:100A100011F48E7F886021FF0DC0282F28712831A6
:100A200019F4877E816106C0282F2171213111F4CC
:100A30008E7E886194FD877E08950F931F9341E019
:100A400050E060E070E08A019B0104C0000F111FBC
:100A5000221F331F8A95D2F7C901B8010E9437209F
:100A60001F910F910C947A2225E0E2E1F2E0DC0183
:100A700001900D922A95E1F72091F0013091F1015A
:100A80004091F201FC01258336834783089510923B
:100A9000F20108958091F20108953091050180914D
:100AA000120280FF16C0E091040163E0E69FF001AE
:100AB0001124E955FD4F539A8BB1877F9BB1986004
:100AC0002FB7F894AF0163E0369F400D511D1124FC
:100AD00014C08091060190910701891720F7E82F33
:100AE000F0E0AF01440F551FE40FF51FE955FD4F2E
:100AF0001182108212828F5FF0CFE417F50789F020
:100B0000319168E09BB9000000C037FF8BB9330F0B
:100B1000000000C000C000C08BB900C06A9591F70A
:100B2000ECCF2FBF8FE594E00197F1F700C00000F4
:100B300008959091120290FF16C0909106012091A5
:100B40000701921770F4E92FF0E0DF01AA0FBB1F35
:100B5000EA0FFB1FE955FD4F8183608342839F5F4E
:100B6000F0CF0C944D05089580911202282F269500
:100B700030E02115310519F48170826005C02B32F7
:100B8000310524F081708465809312020895CF921C
:100B9000DF92EF92FF926B017C010E94B405B701D6
:100BA000A60188E090E0FF90EF90DF90CF900C944A
:100BB0009E3280911602882319F08150809316028C
:100BC00060911202709113028091140290911502AB
:100BD0000C94C70580911602833018F48F5F8093C0
:100BE000160260911202709113028091140290918A
:100BF00015020C94C705E2E1F2E083E080831182E4
:100C00008FEF828383831482A0EFB1E012968C91E0
:100C10001297836012968C93608171818281938197
:100C20000C94C705AF92BF92CF92DF92EF92FF92E2
:100C30000F931F93CF93DF93E82EF62EE901E42F55
:100C4000F0E0611106C0EA54FE4FE4914E2F2E2FC2
:100C500071C0062F10E0EA54FE4F4491F42FC42EC9
:100C6000D12C26E0829FC00111242FEF30E0B90182
:100C70000E943D335BEA5603C001579F900D11243B
:100C80008E0D911D8E0D911D582F550F580FD901A6
:100C9000A01BB10BAC9DC001AD9D900DBC9D900DF6
:100CA0001124E92FF59ED0011124AB2FBB27790128
:100CB000EA1AFB0AEC9CD001ED9CB00DFC9CB00D37
:100CC00011245901A51AB108A09E7001A19EF00C33
:100CD000B09EF00C1124EF2CFF242E193F092C9DFF
:100CE00080012D9D100D3C9D100D1124212F62308F
:100CF000710591F048F461157105E1F061307105FD
:100D0000B9F4242F4B2F16C06430710569F040F000
:100D10006630710579F00CC0242F492FE12F0AC0ED
:100D2000492FEF2F2B2F06C0292FE42F412F02C070
:100D3000292FEB2F49832883EA83DF91CF911F91DD
:100D40000F91FF90EF90DF90CF90BF90AF900895FC
:100D5000CF93DF9300D01F92CDB7DEB790911202F0
:100D600090FF0AC09E012F5F3F4F0E9412064B81E9
:100D700069818A810E9499050F900F900F90DF91F1
:100D8000CF910895AF92BF92CF92DF92EF92FF92F0
:100D90000F931F93CF93DF9300D01F92CDB7DEB791
:100DA000182FF62E042FE22E9091120290FF7EC093
:100DB000E92FE695AE2FB0E0A05CBE4F8C918093FA
:100DC000F0019E7F923061F49E012F5F3F4F812F93
:100DD0000E9412064B8169818A810E94990543C055
:100DE000823019F4009115023EC0863019F410913A
:100DF000130239C08930D9F38931A9F5E9518E2F11
:100E00008170D82EE695F0E0EA54FD4FA590B4909D
:100E1000C12CBB2460910801C61618F52C2D30E0BA
:100E2000A29EC001A39E900DB29E900D112470E071
:100E30000E943D33812FD11002C0860F01C0861B56
:100E400090910601290F311DA901440F551F240F50
:100E5000351F29553D4F402F6F2D0E941206C39418
:100E6000D9CF0E944D0580911302181308C08091BC
:100E70001402F81204C080911502081729F080911D
:100E8000F20182608093F20110931302F092140237
:100E900000931502EE2051F060911202709113023E
:100EA00080911402909115020E94C7050F900F9037
:100EB0000F90DF91CF911F910F91FF90EF90DF90F6
:100EC000CF90BF90AF900895E2E1F2E0438121E13D
:100ED000421B08F440E021E0628181810C94C2064B
:100EE000E2E1F2E0438121E1420F08F44FEF21E01B
:100EF000628181810C94C206E2E1F2E0628121E12B
:100F0000621B08F460E021E0438181810C94C206F9
:100F1000E2E1F2E0628121E1620F08F46FEF21E08B
:100F2000438181810C94C206E2E1F2E0818121E0FB
:100F30004381628188500C94C206E2E1F2E0818133
:100F400021E043816281885F0C94C2060E94B01D3B
:100F50002091FC01211104C02091FD01222321F0E8
:100F60009093F9018093F8012091FE01211104C0B2
:100F70002091FF01222321F09093F5018093F40149
:100F8000E091E401F091E501309749F082E080932F
:100F9000FA010480F581E02D8AEF91E0099408952B
:100FA000803F39F48091FD0187FF6AC01092FD01F6
:100FB00067C0813F29F48091FD011816BCF360C021
:100FC0009091FC01823F29F497FF5AC01092FC01D6
:100FD00057C0833F19F41916CCF352C09091FE010B
:100FE000893F31F419160CF04BC01092FE0148C035
:100FF0008A3F19F497FF44C0F8CF8B3F39F48091B2
:10100000FF0187FF3DC01092FF013AC08C3F29F4D9
:101010008091FF011816BCF333C0843F21F4809106
:10102000FB018E7F17C0853F21F48091FB018D7FEE
:1010300011C0863F21F48091FB018B7F0BC0873F5D
:1010400021F48091FB01877F05C0883F31F48091B6
:10105000FB018F7E8093FB0113C08D3F21F48091B3
:1010600031028E7F0BC08E3F21F4809131028D7F43
:1010700005C08F3F29F4809131028B7F809331022C
:101080008091FC01811106C08091FD01811102C097
:101090001092F7018091FE01811106C08091FF013D
:1010A000811102C01092F30108958091310280FFF6
:1010B00008C06091250170E07595679575956795F5
:1010C00021C081FF06C06091250170E0759567958C
:1010D00019C082FF04C06091250170E010C090919A
:1010E000F301992399F0609124019617A0F780915C
:1010F0002501899FC001112470E00E94513360389E
:10110000710540F46115710519F406C061E070E0E5
:10111000862F08958FE7089581E008958091310228
:1011200080FF0BC06091270185E0689FB00111240A
:1011300075956795759567952BC081FF09C060917E
:10114000270185E0689FB00111247595679520C03F
:1011500082FF07C06091270185E0689FB0011124DC
:1011600017C09091F7019923D1F06091260196174D
:1011700088F72091270185E0289F90011124929FF4
:10118000A001939F500D112470E0CA010E945133B9
:101190006038710540F46115710519F406C065E009
:1011A00070E0862F08958FE7089581E00895803FCD
:1011B00021F40E948E08819504C0813F29F40E9489
:1011C0008E088093FD010895823F21F40E948E08CD
:1011D000819504C0833F29F40E948E088093FC010E
:1011E0000895893F19F40E94550805C08A3F31F4DB
:1011F0000E94550881958093FE0108958B3F21F44C
:101200000E945508819504C08C3F29F40E9455081E
:101210008093FF010895843F21F48091FB01816058
:1012200017C0853F21F48091FB01826011C0863F89
:1012300021F48091FB0184600BC0873F21F48091F1
:10124000FB01886005C0883F31F48091FB0180611B
:101250008093FB0108958D3F21F4809131028160DC
:101260000BC08E3F21F480913102826005C08F3F18
:1012700029F4809131028460809331020895833093
:1012800011F128F4813049F0823091F008958530D1
:1012900081F120F18630C1F108958091F60168173F
:1012A00020F4861B8093F60108951092F6010895AC
:1012B00080910A01681720F4861B80930A01089523
:1012C00010920A01089580912701681720F4861B67
:1012D0008093270108951092270108958091260197
:1012E000681720F4861B809326010895109226012A
:1012F000089580912501681720F4861B80932501AD
:10130000089510922501089580912401681720F412
:10131000861B809324010895109224010895833040
:1013200081F128F4813059F08230D1F00895853070
:1013300009F449C0B8F1863009F456C00895809187
:10134000F601262F30E0280F311D2F3F310524F400
:10135000680F6093F60108958FEF8093F60108956A
:1013600080910A01262F30E0280F311D2F3F3105D3
:1013700024F4680F60930A0108958FEF80930A01A7
:10138000089580912701262F30E0280F311D2F3F2F
:10139000310524F4680F6093270108958FEF80933F
:1013A0002701089580912601262F30E0280F311D56
:1013B0002F3F310524F4680F6093260108958FEFC5
:1013C00080932601089580912501262F30E0280F73
:1013D000311D2F3F310524F4680F609325010895D6
:1013E0008FEF80932501089580912401262F30E00E
:1013F000280F311D2F3F310524F4680F609324011D
:1014000008958FEF8093240108958B3109F47AC0F9
:1014100058F58B3009F498C078F4863009F446C04A
:1014200020F4853009F44CC091C0873009F45CC0C9
:10143000883009F489C08AC0803109F476C068F424
:101440008E3009F083C08091010282FB222720F9AF
:1014500091E0922790FB82F95EC0863109F474C056
:10146000893109F471C072C08A32E9F060F48732C0
:1014700009F467C028F48E3108F468C08D5162C049
:101480008932F1F063C0833450F48A3308F057C0D6
:10149000853309F456C0883309F456C057C08334E5
:1014A00009F44FC053C00E94261E4EC08091010215
:1014B000817F8E7F8093010281E0809329030895CC
:1014C0008091230290912402892BF1F10E947A22CB
:1014D0002FEF84E39CE0215080409040E1F700C072
:1014E00000000E94261D30C080910102982F909527
:1014F000917090FB80F980930102911125C0897F42
:10150000877F10C08091010281FB222720F991E0A2
:10151000922790FB81F9809301029923A9F0809191
:1015200001028160809301020FC08091010283FB60
:10153000222720F991E0922790FB83F9ECCF895381
:1015400001C080E00E941D0581E0089580E00895BB
:101550008091CE01811118C08091D8008061809364
:10156000D8008AE18A95F1F700C08091D90080FD0A
:1015700002C082E001C081E08093CE01823021F47C
:101580000E948C2B1092230381E09091CE01913028
:1015900009F080E00895F894E82FE295EF70F0E00C
:1015A00031A1282F2F7081E090E001C0880F2A958B
:1015B000EAF7982F9095932391A392A1892B82A368
:1015C000789408958F929F92AF92BF92CF92DF92BC
:1015D000EF92FF920F931F93CF93DF9300D000D031
:1015E00000D0CDB7DEB70BE611E085EDC82E81E067
:1015F000D82E4601F12CAA24A394B12CB801D8010D
:101600008C91F894E82FE295EF70F0E021A18F70B3
:10161000A50102C0440F551F8A95E2F7CA01922F17
:10162000982B91A392A18095892382A3789400C0DE
:10163000E7E7F1E020E030E0E12C4191842F829552
:101640008F7090E0DC0190968C9190E04F7002C01A
:10165000959587954A95E2F780FD07C08A2D022E61
:1016600001C0880F0A94EAF701C080E0E82A2F5FE2
:101670003F4F2630310509F70F5F1F4FFB01808177
:101680000E94CB0AF0EAFA95F1F7D4018C91E816A2
:1016900019F0EC9281E001C080E0F82ABFEF8B1ACC
:1016A0009B0AE1E001371E0709F0A8CF1091E20183
:1016B000FF2049F081E08093CC010E94B01D9093FF
:1016C000CB018093CA018091CC018823B9F080912D
:1016D000CA019091CB010E945D1D069778F0E12F21
:1016E000F0E0E95EFD4FD6018D916D018193BBED78
:1016F000CB16B1E0DB06B9F71092CC010E94A80A24
:101700006091E2018823E9F18E010F5F1F4F86E0AF
:10171000F80111928A95E9F7862F90E0B801895E69
:101720009D4F0E940230811115C08091CD018F5FC5
:101730008093CD01863078F1E091E101F0E0E95E3F
:10174000FD4F80E090E01192019686309105D9F727
:1017500081E022C01092CD01E091E101F0E0E95E6C
:10176000FD4FD8019E01295F3F4F80E09D91408150
:10177000491711F0908381E03196A217B307B1F7B2
:101780000BC070E0695E7D4F8091E10190E0895E61
:101790009D4F0E94303080E0FF2011F081E090E00A
:1017A00026960FB6F894DEBF0FBECDBFDF91CF9166
:1017B0001F910F91FF90EF90DF90CF90BF90AF906F
:1017C0009F908F900895CF93DF930E94FF27EC01A5
:1017D0008238910559F1A0F48133910509F473C061
:1017E00040F48932910509F467C08A9709F472C000
:1017F00084C08533910509F458C0C997B9F07DC0FC
:10180000833E910571F138F4803E9105B1F0823E3E
:10181000910511F172C0863E9105B9F1873E91059F
:10182000C9F1843E910509F068C024C08091D301BC
:1018300080FD5DC081FD5BC060C08091D30180FDF3
:1018400050C08091D40180FF49C18091D30184FDB3
:1018500043C1C3EED0E042C18091D30182FF3EC1BB
:10186000F4CF8091D30182FD3FC08091D40180FDEF
:101870003EC0EBCF8091D40181FF30C18091D30174
:1018800084FD2AC1C7EED0E029C18091D30183FF36
:1018900025C1F4CF8091D30183FD2CC08091D40168
:1018A00081FFECCFC4EED0E019C18091D30185FF58
:1018B00015C1C9E2D0E012C18091D30185FF0EC1EC
:1018C000C5E3D0E00BC18091D30186FF07C1CAE216
:1018D000D0E004C18091D30186FF00C1C1E3D0E014
:1018E000FDC0C9E3D0E0FAC0C2EED0E0F7C0C0EE60
:1018F000D0E0F4C0C6EED0E0F1C0C11581E5D80754
:1019000008F066C0C11520E5D207E0F0CE0174E012
:10191000969587957A95E1F783709C2F937021E0D7
:1019200030E002C0220F331F9A95E2F73C68382B53
:10193000CF70C695C69540E2C49FE0011124C22B2A
:10194000D32BCCC0C83ED10560F5C03ED10508F010
:10195000C5C0C83AD105B0F4C53AD10540F0C55A62
:10196000D0E0CA56DE4FC881D0E0D064B7C0C130E5
:10197000D10509F4B3C008F4AFC0C430D10508F4F0
:10198000ABC0ACC0CF3BD10508F0A6C0C85AD0E070
:10199000CC0FDD1FC756DE4F0990D881C02DD4640F
:1019A0009DC0C11540E2D40758F4C11581E0D807A5
:1019B00008F094C0C03FD10508F48EC0D0658EC039
:1019C000C11520E4D20708F487C0DF70D06A86C052
:1019D000C11545E5D40708F042C0C11584E5D80714
:1019E00028F0DC2FCC27C46FD06A78C0C11523E55E
:1019F000D207B0F0CE018370992721E030E002C019
:101A0000220F331F8A95E2F78C2F8695869540E248
:101A1000849FC0011124E901C82BD92BDA685EC06C
:101A2000C11542E5D40728F4DC2FCC27C16FD06A5A
:101A300055C0CE018370992721E030E002C0220F0B
:101A4000331F8A95E2F78C2F8695869540E2849F16
:101A5000C0011124E901C82BD92BDC683FC0C11596
:101A600089E5D807B8F4C11528E5D20728F0DC2F9E
:101A7000CC27C06FD06A32C0C11546E5D40760F5E7
:101A80008C2F0E94DA048F71C82FD0E0DC2FCC2776
:101A9000D06224C0C1158AE5D80780F48C2F8F70DE
:101AA0000E94DA0494E0D695C7959A95E1F7CF7035
:101AB000D0E0DC2FCC27D069C82B10C0CE019056C7
:101AC0008115904248F48D2F8F710E94DA04DD2732
:101AD000D0628F71D82B02C0C0E0D0E0CE01DF9180
:101AE000CF910895AF92BF92CF92DF92EF92FF9283
:101AF0000F931F93CF93DF93EC018AE0A82E2881E8
:101B0000222309F497C0213009F041C08981813036
:101B100039F48E010E5F1F4F8A810E94092F08C081
:101B2000823041F48E010E5F1F4F8A810E94E22DA8
:101B3000E8017EC0833039F48E010E5F1F4F8A8129
:101B40000E947B2DF5CF843011F0219671C02A813F
:101B5000229680E090E030E0205331092A303105B0
:101B600058F4A89EA001A99E500D1124C901840F0C
:101B7000951F21962881EFCF009709F459C0EFE90E
:101B8000FFE03197F1F700C000000197F5CFE22F99
:101B9000F0E0EA5CFE4FB490822F8695869586959C
:101BA00090E0FC01EA5DFE4FE4902770F12C022EDC
:101BB00002C0F594E7940A94E2F7F1E0EF22FF24E3
:101BC000FC01EA5EFE4FC490D12C022E02C0D594D7
:101BD000C7940A94E2F731E0C322DD24FC01EA5FF6
:101BE000FE4F049110E002C0159507952A95E2F783
:101BF00001701127E114F10419F081EE0E94E22D29
:101C0000C114D10419F086EE0E94E22D8B2D0E94A2
:101C1000092FCD2819F086EE0E947B2DEF2819F0B0
:101C200081EE0E947B2D012B19F08CE20E94092F7E
:101C3000219665CFDF91CF911F910F91FF90EF908B
:101C4000DF90CF90BF90AF900895E2E1F2E0808105
:101C50008E7F80830E942A28E0EFF1E082818160FC
:101C600082832FEF80E792E0215080409040E1F79F
:101C700000C000000C944D059091120290FF3BC0F3
:101C80009170811102C0926006C08B3210F0946591
:101C900002C0880F982B909312028091F20181600C
:101CA0008093F201662351F0609112027091130249
:101CB00080911402909115020E94C7056091120252
:101CC000669570E04BE050E085E191E00E94813341
:101CD000892B19F00E942A2802C00E94312881E035
:101CE0008093ED0120E040911502609114028091F3
:101CF00013020C94C20608951F93CF93DF93EC0157
:101D0000162F8F8180FF0FC0888180FF0AC08091CD
:101D10001202816080931202888186950E943C0E97
:101D200002C00E94250E8F8181FF06C0212F4B81AA
:101D30006A8189810E94C2068F8182FF08C08E81DC
:101D4000882319F00E94312802C00E942A288F811E
:101D500083FF03C081E08093ED01DF91CF911F915C
:101D60000895809112028695815009F48AE261E01B
:101D70000C943C0E8091120286958F5F8B3208F096
:101D800081E061E00C943C0ECF93DF93CDB7DEB7DA
:101D9000E2970FB6F894DEBF0FBECDBF84B7877F42
:101DA00084BF0FB6F894A8958091600088618093F5
:101DB0006000109260000FBE90E080E80FB6F894CB
:101DC00080936100909361000FBE85B7806885BFE6
:101DD00085B7806885BF8FE79CE19093C9018093A8
:101DE000C8010E948C2B0E94AB2B8091E200846082
:101DF0008093E2007894809123038823A1F01091CE
:101E0000E9001F709091EC00892F817090FD80E8AF
:101E1000182B1092E9008091E80083FD0E946A2847
:101E20001F701093E90082E084BD93E095BD9AEFA6
:101E300097BD80936E001092CF011092D001109246
:101E4000D1011092D2018EE090E00E94783291E0B0
:101E5000811101C090E090930901809109018823CC
:101E600021F01092040186E003C086E08093040113
:101E7000809305010E94A80A81110E94D92F8091A8
:101E8000090180910901882311F090E001C096E0DA
:101E90009093E20186E0891B8093E1010BE611E05B
:101EA000F80181918F010E94CB0AF1E001371F07F1
:101EB000B9F707E711E02DE7E22E21E0F22EF80155
:101EC00081918F010E94CB0AE016F106C1F7E5ED82
:101ED000F1E081EE91E0A7E1B2E011921D928E1740
:101EE0009F07D9F780E090E00E9486328A3E9E4F9D
:101EF00011F00E94261E82E090E00E9478328093CA
:101F000001020E94151E9093D4018093D3010E9478
:101F1000E20A8FE39CE90197F1F700C000000E94FC
:101F2000E20A8091170280FF17C06FEF83E290E012
:101F30000E948C326FEF84E290E00E948C326FEF4F
:101F400085E290E00E948C326FEF7FEF80E090E0BE
:101F50000E94AA320E94261D83E090E00E947832FF
:101F6000682F70E080E090E00E9437200E94A80A6D
:101F7000811102C00E94DF2F83E290E00E9478323C
:101F8000823D81F484E290E00E9478328B3951F4F2
:101F900085E290E00E94783291E08B3909F090E080
:101FA000892F01C080E080FF0DC68091E30181117F
:101FB0003BC080E090E00E9486328A3E9E4F21F036
:101FC0000E94261E0E94FB0588E090E00E9480325D
:101FD000609312027093130280931402909315027F
:101FE0008091F20183608093F2016E7F71F40E9410
:101FF000FB0588E090E00E948032609312027093AB
:10200000130280931402909315020E94B4050E945B
:102010002A288091120280FF04C060E086950E9409
:102020003C0E81E08093E3018BE091E09093E50129
:102030008093E40193E2292E92E0392E8E010F5F06
:102040001F4F80912303853009F045C0B0E1EB2E8E
:1020500082E1F82E80912303853009F038C0809109
:102060002303843021F11092E60128E130E040E4BE
:102070000FB6F894A895209360000FBE40936000BF
:1020800083B7817F846083BF83B7816083BF789487
:10209000889583B78E7F83BF0FB6F894A8958091FB
:1020A0006000886180936000109260000FBE809194
:1020B0001903882309F4CECF0E94E20AE7E1F2E097
:1020C0008191811160C52E163F06D1F7C3CF0E94C2
:1020D0007A220E94BB260E94E20A81110E946C1D96
:1020E000A2E0B2E0E7E1F2E0E12CF12CAE2CB190FD
:1020F0008D918B2549F1C12CDD24D394982F9D21FE
:10210000F1F00E94A80A882399F0C9A6AAA6BD20CA
:1021100081E009F480E08BA70E94B01D8160782FD8
:102120009DA78CA749A55AA56BA58DA50E94F12551
:10213000F701EE5FFD4F8081D826D0821CC0C3948A
:10214000DD0C96E0C912DACF2FEFE21AF20A3CE07A
:10215000E316F10459F68FEF8EA78FA718AA0E94F5
:10216000B01D8160782F9AAB89AB4EA55FA568A999
:102170008AA90E94F1258091F101882309F4D4C035
:102180008091F001E0911202E695E81BE093EC01EA
:10219000823059F4F0E0E453FD4FE491EE2EF12C3F
:1021A000ADEDCA2EA5E2DA2E70C0863059F4F0E00B
:1021B000E753FD4FE491EE2EF12CFDECCF2EF5E22E
:1021C000DF2E63C0893061F4E695F0E0EA53FD4FFD
:1021D000E491EE2EF12CE2E5CE2EE5E2DE2E55C0A6
:1021E0008F3061F4E695F0E0ED53FD4FE491EE2E73
:1021F000F12C75EBC72E74E2D72E47C0853159F408
:10220000F0E0E054FD4FE491EE2EF12C6FE2C62E8B
:1022100064E2D62E3AC08831F9F0833249F4EEEB0D
:10222000F2E0E590F4905DE8C52E55E2D52E2DC084
:102230008432D1F0853209F58E2F63E00E9423337A
:10224000E92FF0E0E554FD4FE491EE2EF12C46E845
:10225000C42E42E2D42E19C028E2E22EF12C3CE931
:10226000C32E33E2D32E11C084EFE82EFF24F39463
:102270009DE5C92E93E2D92E08C0A0EDEA2EA7E075
:10228000FA2EB5E8CB2EB2E2DB2E8091ED01882349
:1022900061F01092ED010E94BC1D9093EB018093C0
:1022A000EA011092EF011092EE010E94BC1DE09134
:1022B000EA01F091EB019C012E1B3F0B2F3F3F47A2
:1022C00098F52091E9012223B1F01092E9012091C3
:1022D000E7013091E801821B930B8F3F9F4758F431
:1022E000205D3A483093E8012093E7018091F201A4
:1022F00088608093F201A090EE01B090EF01EE0EA5
:10230000FF1EF092EB01E092EA018AEE91E0F60105
:1023100009958091EE019091EF01892B29F4AB286A
:1023200019F081E08093E90186E0EAEFF1E0D8015D
:1023300001900D928A95E1F7C090FC01D090FD01CB
:10234000E090FE01F090FF011092FC011092FD015F
:102350001092FE011092FF01C11003C0DD2009F4AC
:102360005DC08091F8019091F9010E945D1DAC0162
:102370009091F701992339F020910A0130E0241758
:10238000350758F04BC02091F601FAE02F9F9001DD
:1023900011242417350718F041C09F3F19F09F5FA3
:1023A0009093F701CC2061F00E948E081C1414F465
:1023B00091E001C09FEF899F802D11248093FC0143
:1023C000DD2061F00E948E081D1414F491E001C01C
:1023D0009FEF899F802D11248093FD013091FC0196
:1023E0003323E1F02091FD012223C1F045EB3403BA
:1023F000C0011124992319F09093FC0103C081E0DE
:102400008093FC0135EB2303C0011124992319F0BB
:102410009093FD0103C081E08093FD01E11003C0B2
:10242000FF2009F451C08091F4019091F5010E94C0
:102430005D1D9C019091F301992309F4DCC32536BD
:10244000310508F441C09F3F19F09F5F9093F3015D
:10245000EE2061F00E9455081E1414F491E001C0B2
:102460009FEF899F802D11248093FE01FF2061F052
:102470000E9455081F1414F491E001C09FEF899F3A
:10248000802D11248093FF013091FE013323E1F070
:102490002091FF012223C1F045EB3403C001112438
:1024A000992319F09093FE0103C081E08093FE010F
:1024B00035EB2303C0011124992319F09093FF01F8
:1024C00003C081E08093FF018091FC0181110BC06A
:1024D0008091FD01811107C08091FE01811103C02F
:1024E0008091FF0181110E94A607CB82DC82ED82E0
:1024F000FE8286E0F801AAEFB1E001900D928A9584
:10250000E1F70E94BB2690910002891721F00E94FA
:10251000BB268093000280912303843009F091CD83
:1025200083E08093E9008091E80082FF8ACD80916A
:10253000E80085FF21C00E94E12C81111BC0F0E260
:10254000CF2ED12C780109C08091F100F701819341
:102550007F01F1E0CF1AD10869F08091E80085FD94
:10256000F3CF8091E8008B778093E8000E94E12C04
:10257000882399F391E001C090E08091E8008B7787
:102580008093E800992309F45CCDE0902502F09057
:1025900026028981E114F10461F08E3F09F0EFC257
:1025A0008A81833008F41CC28550833008F0E7C26A
:1025B00017C28B3009F4FEC188F5853009F47CC060
:1025C000B8F4823009F446C030F4813009F0D5C245
:1025D0001A8289E0CBC2833009F45FC0843009F0ED
:1025E000CCC24C816B818A810E94D1279D83E8C235
:1025F000873009F46FC008F46AC0883009F49EC0BF
:10260000893009F0BAC26091120270911302809170
:102610001402909115020E94C705B1C2803109F4DD
:102620000CC160F48D3009F4ACC008F4A8C08E3041
:1026300009F4ABC08F3009F4D2C09FC2823109F4D3
:1026400002C108F4FDC0833109F426C18E3F09F4AC
:10265000C7C193C28A81823009F4ABC2833051F082
:10266000813009F08AC20E946C1D9B838C837D831C
:102670006E8385C28091230290912402892B09F4F4
:102680007EC2FE013396CE010F96A7E1B2E02D91F6
:102690002193E817F907D9F772C28A81823009F0CD
:1026A0006CC26B817C818D819E810E946B3386E23E
:1026B00090E00E948C3263C22D813E813227232715
:1026C00032274C816B818A810E944A2758C20E941E
:1026D000802755C28A818138B1F050F4803809F0E2
:1026E0004EC220E04B81609114028091130223C0FE
:1026F0008238E9F0833809F042C220E040911502A7
:102700006C818B8118C060E08B810E943C0E8B81B4
:10271000811103C00E94250E32C280911202816095
:102720008093120260E086950E943C0E28C28B8145
:102730008093160224C20E94C20621C28A81813877
:1027400099F030F4803809F01AC2809115020EC257
:10275000823891F0833809F012C2809113028B8382
:10276000809114028C830BC28091120280FF02C000
:102770008695FCC180E0FAC180911602F7C180E124
:1027800060C081E08A8389E9F1C1EA80FB80FE2490
:10279000EF24FE24AC80B12C2DE1A216B10408F088
:1027A000EEC16801C70189599D4F9601201B310B6D
:1027B0002A153B0508F0E3C139E9E31631E0F306D9
:1027C00028F40E947832F601848302C0F601148254
:1027D000FFEFEF1AFF0A2FEFC21AD20AE3CF809160
:1027E000230290912402892B09F4C9C1EA80FB805D
:1027F000FE24EF24FE24CC80D12C3DE1C316D1046D
:1028000008F0BDC15801C70189599D4F9501201B92
:10281000310B2C153D0508F0B2C149E9E41641E041
:10282000F40620F4F50164810E948C32FFEFEF1A68
:10283000FF0A2FEFA21AB20AE6CF0E943A279FC1E1
:1028400084E08A839CC1EA80FB80FE24EF24FE247E
:10285000AC80B12C3DE1A316B10408F090C1680131
:10286000C70187969601201B310B2A153B0508F0FE
:1028700086C140E4E41642E0F40628F40E9478326F
:10288000F601848302C0F6011482FFEFEF1AFF0AFB
:102890002FEFC21AD20AE4CFEA80FB80FE24EF2495
:1028A000FE24AC80B12C3DE1A316B10408F067C151
:1028B000370147E2640E711C80E4E81682E0F806F6
:1028C00008F05DC180E492E08E199F098A159B058E
:1028D00008F455C18091230290912402892B11F0B4
:1028E00068015FC0E0FE0FC0C70186960E94783283
:1028F00090E0982F88272D81822B81159C4531F4FB
:102900008FEF8D8303C0C12CD12C03C0CC24C39482
:10291000D12CC5018E0D9F1D450180FF1BC0F1E02C
:102920008F1A910855E0452E512C4C0E5D1E480C17
:10293000591CC3018A0D9B1D0E947832F20120812F
:1029400030E0322F2227282B21153C4519F48FEF38
:10295000F2018083F801EC0DFD1D2FEFCF01801BEC
:10296000910B8815990508F0BBCF848190E0982FD2
:1029700088273581832B81159C4511F42483258379
:102980003296ECCF40E4E41642E0F40620F4F6017F
:1029900064810E948C32FFEFEF1AFF0A2FEFC21AF8
:1029A000D20AC70187969601201B310B2A153B05D9
:1029B00048F3E5C08091230290912402892B09F409
:1029C000DEC0C8010E94402D3FEF41EE84E031504F
:1029D00040408040E1F700C000000E94261DCFC0AB
:1029E000EA818E2F90E08930910508F0C8C0FC0183
:1029F000EA5AFF4F0C94653388E0E8E3F1E0DE012A
:102A0000919601900D928A95E1F783E089831A826D
:102A10001B821C8288E0FE01B196DE0115960190B2
:102A20000D928A95E1F7ABC08CE5898381E08A83BA
:102A30001B821C82A4C08C8190E0982F88272B8158
:102A4000820F911D092E000CAA0BBB0B35E0880FDD
:102A5000991FAA1FBB1F3A95D1F7AC01BD01405E7B
:102A60005F4F6F4F7F4F481759076A077B0708F47E
:102A700086C08C35E1E09E07A105B10508F07FC056
:102A80004D35F1E05F076105710520F04CE551E03F
:102A900060E070E0481B590BBC0160537D4FC801DA
:102AA0000E946F326CC040E250E06FEF70E0C801EE
:102AB0000E948E33809123028983EA821B821C82CA
:102AC00085E08D831E825BC081E090E090932602BA
:102AD0008093250282E390E090931102809310028C
:102AE0000E94B01D90930F0280930E0248C0EF2801
:102AF000A9F1F090170280911C02F8222F2D21706D
:102B0000F22E80910E0290910F020E945D1D85367B
:102B10009105F0F0FF20E1F00E94B01D90930F02AC
:102B200080930E0280911002909111020197909370
:102B3000110280931002892B89F4109226021092C0
:102B4000250281E090E0909324028093230206C046
:102B500082E390E09093110280931002809123020F
:102B60008983809125028A83809110028B8307C01C
:102B7000109224021092230202C08FEF8983C801B1
:102B80000E94402D5ECAE9BCF9BC09B400FEFDCF2D
:102B90008091D8008F7D8093D8008091E000826082
:102BA0008093E0008091E00081FDFCCF0E947A22BA
:102BB00051CA86E290E00E9478321B821C821D82FC
:102BC0008E83DDCF60E086E290E00E948C320E942E
:102BD00080270E943A2762ED83E290E00E948C32C7
:102BE0006BE984E290E00E948C326BE985E290E030
:102BF0000E948C32DAC9232B09F027CC65CC4F9286
:102C00005F926F927F929F92AF92BF92CF92DF922C
:102C1000EF92FF920F931F93CF93DF93CDB7DEB761
:102C200029970FB6F894DEBF0FBECDBFFC0180819F
:102C3000918123813481232B31F09F3F31F491E046
:102C40008F3F19F403C091E001C090E090FD3EC6B3
:102C50007F0185E0DE01119601900D928A95E1F7E2
:102C6000F701228189819A81222349F00E94FB1E6B
:102C7000182F682F89819A810E949E1F03C00E948D
:102C8000711F182F69817A81812F0E94FF278C0183
:102C9000F7018281882309F482C0980122513F45BF
:102CA0002031310508F093C08FEF93E00E94783215
:102CB00081117FC02EEED22ED00E07E612E0DD206D
:102CC00071F00115F4E01F0709F473C0C8010E94F8
:102CD0007832811101C0DA940F5F1F4FF0CF1E824E
:102CE0001F8218861986AA24AA9468012FEFC21A97
:102CF000D20AC8010E9478328E831F82882309F489
:102D000058C0813009F046C0380132E0630E711CB2
:102D1000C6010E9478328F83882309F44AC09FEF4E
:102D2000980F933060F4680183E0C80ED11CC30192
:102D30000E947832888781112DC08601D6CF8430D9
:102D400011F06301FACFC3010E947832B82E6801F6
:102D500094E0C90ED11CC80103960E947832BB20B2
:102D600041F1882331F1282F30E021503109A29E12
:102D7000A001A39E500D11248B2D90E00197840F8C
:102D8000951F0197D0F2EFE9FFE03197F1F700C00E
:102D90000000F7CFCE0106960E94720DCECF003113
:102DA0003FE5130709F0B9C481E00E94D41F0E94D7
:102DB0004C2880919702877009F488C5F7018281B9
:102DC000882309F483C582E00E94F91F7FC5003182
:102DD000FFE51F0711F481E005C001312FE512075F
:102DE00021F482E00E941620E2CF033FFCE51F079A
:102DF00049F406E221EE40EE63EF7CE5C7010E9454
:102E0000C726D7CF043F2CE5120708F049C1083D7B
:102E10003CE5130731F407E225EE45EE68ED7CE56D
:102E2000EDCF093D9CE5190731F408E221E045EEBC
:102E300069ED7CE5E3CF073DECE51E0731F406E2E2
:102E400021EE41EE67ED7CE5D9CF882309F45DC121
:102E50001092270202302CE5120708F440C1063117
:102E60003CE5130730F0C8018A5F9C45099708F0DC
:102E700036C10E94151E9093D4018093D301003176
:102E80008CE5180709F4C3C008F041C00830ECE530
:102E90001E0709F49AC0F0F404302CE5120709F477
:102EA00087C068F402308CE5180709F477C0033056
:102EB0001C4509F0E5C08091D301826076C00630E0
:102EC000ECE51E0709F46EC008F07BC08091D301C9
:102ED00088606BC00C302CE5120709F485C068F4DB
:102EE0000A308CE5180709F474C008F079C00E9414
:102EF0007A228091D301806858C00E30ECE51E071D
:102F000009F476C008F07FC08091D3018BC00B3FDD
:102F10002CE5120709F44FC018F503318CE51807AA
:102F200009F47DC078F40131ECE51E0709F473C0A3
:102F300002311C4509F0A4C00E947A228091D3017D
:102F40008F7733C005312CE5120709F472C008F4FD
:102F500086C00A3F1C4509F093C08091D4013EC051
:102F60000F3F9CE5190709F45FC058F40D3FFCE5DD
:102F70001F0709F444C008F43FC08091D401826067
:102F80002DC001303DE5130709F475C008F45DC09C
:102F900002301D4509F074C060E06EC08091D3011D
:102FA000816003C08091D30180618093D30168C0A8
:102FB0008091D30111C08091D40182608093D401AB
:102FC0005FC08091D3018062F0CF8091D301806493
:102FD000ECCF8091D30188608460E7CF8160EECF31
:102FE0008091D3018E7FE1CF8091D3018D7FDDCFA2
:102FF0008091D301877FD9CF8091D40118C080916F
:10300000D4018D7FDBCF8091D3018F7ECECF809195
:10301000D3018F7DCACF8091D3018F7BC6CF8091A2
:10302000D301877F8B7FC1CF8091D4018D7F8E7F2D
:10303000C5CF8091D30182FB222720F991E092270E
:1030400090FB82F990FB83F9B0CF8091D401982F47
:10305000909591708E7F892B90FB81F9AFCF0E9464
:103060007A228091D30187FB222720F991E09227D1
:1030700090FB87F99ACF61E08EE090E00E948C325D
:103080006091D3011091D40184E090E00E948C32D1
:10309000612F82E290E00E948C320E947A2289CED7
:1030A000053FFCE51F0731F406E221EE42EE65EF35
:1030B0007CE5A4CE053F2CE5120730F407E225EEAF
:1030C00044EE64EF7CE59ACE063F3CE5130709F039
:1030D000BCCE07E225EE46EE66EF7CE58FCE0631EC
:1030E0008CE5180721F580919A028A7A91E009F41B
:1030F00090E090932802882311F065E301C069E213
:1031000089E292E00E94FB1D0FC00631ECE51E072C
:1031100009F040C080912802882309F405C365E3C3
:1031200089E292E00E94EE1D0E94971E42CE0A356F
:103130002DE5120749F158F401158CE51807B1F097
:103140000E3D1C4509F042C00E94261E32CE0B35B2
:10315000EDE51E07D9F00C351D45C1F58091D40170
:1031600082FB882780F991E0892711C00E947A228A
:103170000FEF14E32CE0015010402040E1F700C0B5
:1031800000000E94261D15CE81E001C080E00E9453
:10319000E11E1CC080919A0282720C3CECE51E0775
:1031A00009F473C308F0F2C2063C2CE5120709F4D7
:1031B00058C308F0C9C2033C9CE5190709F447C38A
:1031C00008F0B4C2023C1C4509F417C3F701828120
:1031D00000811181882349F0C8010E94FB1ED82E6E
:1031E000682FC8010E949E1F04C0C8010E94711F61
:1031F000D82EB8018D2D0E94E30B8C01982EF7017B
:10320000D280A580A2949FE0A92280919702877026
:1032100099F0DD2089F0812F807F803421F080E2D9
:10322000800F883048F082E00E94F91F8091970259
:103230008770CC24C3948111C12CB12EB2948FE03D
:10324000B8228B2D90E08C30910508F047C2FC012C
:10325000E15AFF4F0C946533812F807F1F708823C4
:1032600011F01295107FDD20B9F0112309F421C26D
:1032700080E2800F883010F0911006C080919A0291
:10328000182B10939A0205C080919902182B109365
:1032900099020E94971E0DC2802F0E947B2D112340
:1032A00009F41CC2005E1095083010F0911006C0A1
:1032B00080919A02182310939A0205C08091990276
:1032C0001823109399020E94971E08C2812F807FB5
:1032D0001F70803211F01295107F992021F0F1E0DB
:1032E0009F1611F130C0DD20B1F0AA2081F001E07D
:1032F000A0120DC08091D40182FDF0C180919B028B
:10330000182B181709F4EAC110939B02E7C18091AA
:103310009B02812B10C0AA2021F021E0A21609F403
:10332000DDC10E94911E27C0DD2041F035E03A1535
:1033300008F4D4C1812F0E94712DD0C184E08A1578
:1033400008F4CCC118C0DD2049F0AA2099F3F70198
:10335000858180FFAEC18F708583ECCFAA2059F0A4
:10336000093309F0B8C1FFEF17EE23E0F150104028
:103370002040E1F7AEC1812F0E94662DAFC1812FA1
:1033800086958695837019F0813059F0A7C1DD20AC
:1033900019F0C801937002C080E090E00E94A52659
:1033A0009DC1DD2019F0C801937002C080E090E05B
:1033B0000E948F2693C1802FDD2029F00E94D7081C
:1033C0000E94A60702C00E94D0070E94A60786C1DD
:1033D000812F837009F06AC0D11084C1902F92951B
:1033E00096959770990F990F802F8F70482E512CBA
:1033F000612C712C092E04C0440C551C661C771CD2
:103400000A94D2F704FF12C04FE050E060E070E091
:1034100004C0440F551F661F771F9A95D2F7DB0132
:10342000CA0180959095A095B09503C080E090E08A
:10343000DC0116951695412F43704230D9F068F59E
:1034400000919C0210919D0220919E0230919F025A
:10345000413059F084299529A629B729BC01CD010D
:1034600060237123822393231EC0402A512A622A9B
:10347000732A13C084299529A629B72900919C0293
:1034800010919D0220919E0230919F02BC01CD01BE
:10349000602771278227932706C0BC01CD016429CC
:1034A0007529862997290E94372018C1DD2019F037
:1034B000812F817001C08695882309F413C1902F54
:1034C000929596959770990F990F802F8F70482E2F
:1034D000512C612C712C092E04C0440C551C661C07
:1034E000771C0A94D2F704FF12C04FE050E060E06E
:1034F00070E004C0440F551F661F771F9A95D2F7DE
:10350000DB01CA0180959095A095B09503C080E03D
:1035100090E0DC0116951695412F43704230D9F0AA
:1035200068F5009124031091250320912603309122
:103530002703413059F084299529A629B729BC01D0
:10354000CD01602371238223932388C0402A512A0E
:10355000622A732A13C084299529A629B7290091C4
:103560002403109125032091260330912703BC01E9
:10357000CD01602771278227932770C0BC01CD0140
:10358000642975298629972969C01F70DD2029F0D3
:10359000812F0E941620802FCECE802F0E94662D74
:1035A000812F49C0802F32EF931609F440C039159E
:1035B00038F090EF991661F0E1EF9E1699F174C022
:1035C000F3EF9F16D9F124EF921609F44EC06CC0A8
:1035D000DD2019F134E03A1508F480C01F7181E054
:1035E00090E0A0E0B0E0AC01BD0104C0440F551F65
:1035F000661F771F1A95D2F78091240390912503B7
:10360000A0912603B09127038A019B01082719275F
:103610002A273B27C901B80121C025E02A1508F453
:103620005DC0DCCFDD2029F0812F8F7130C0DD201F
:10363000D9F3812F8F710E94D41F50C0DD2089F0F3
:103640001F7181E090E0A0E0B0E0BC01CD0104C0BA
:10365000660F771F881F991F1A95D2F70E94CA1FFD
:103660003DC060E070E0CB01F9CFDD2099F01F7123
:10367000812F0E9416208091D40182FD07C038E07E
:10368000139FC0011124836080939702812F0E94B1
:10369000162024C081E00E94F91F81E08A15F0F411
:1036A00082E00E94F91F1AC0DD2039F0AA2009F437
:1036B000BBCF802F0E94E22D11C0AA2009F4B9CF00
:1036C000893349F49FEFE7EEF3E09150E040F0409A
:1036D000E1F700C00000802F0E947B2D88EF8B0D4A
:1036E000843010F40E94BB26CC2009F4EFC08091F6
:1036F000970280FDEBC0F70112828595859585952F
:103700000E941620C7010E94FF158091970285959F
:10371000859585950E94D41FD9C001319FE5190771
:1037200009F063CB82E041CB69E2FACC043C2CE5A2
:10373000120709F491C0053C1C4509F047CD44E946
:1037400057E06DE977E0A5C0093C9CE5190709F44D
:1037500092C070F4073CFCE51F0709F487C0083CE1
:103760001C4509F033CD48E857E06CE777E091C09D
:103770000A3C3CE5130709F483C00B3C1C4509F0E7
:1037800025CD49ED55E06AEE75E083C0013DECE5DD
:103790001E0709F48AC098F40E3C2CE5120709F4C0
:1037A0007EC008F479C00F3C8CE5180709F47AC094
:1037B000003D1C4509F00ACD6EE089E084C0043D5F
:1037C000ECE51E0709F477C060F4023D2CE5120712
:1037D00009F46EC0033D1C4509F0F8CC61E088E1B6
:1037E0006FC0053D8CE5180709F468C00D351D450F
:1037F00009F0ECCC6AE285E266C08091120280FF9B
:1038000020C08E7F80931202609112027091130289
:1038100080911402909115020E94C7050E942A28E7
:103820008091F20181608093F201EFEFF0E702E016
:10383000E150F0400040E1F700C000000E944D055B
:10384000B8CA81608093120261E0869539C041EB6D
:103850005EE06AEB7EE01DC04AEB5EE061EB7EE07D
:1038600018C04DE957E064E977E013C04CE757E032
:1038700068E877E00EC044E657E060E777E009C00B
:1038800040E757E064E677E004C04AEE55E069EDB2
:1038900075E00E9424288DCA61E081E011C065E0D6
:1038A00082E011C068E086E00EC064E18FE00BC0EA
:1038B00067E185E108C062E289E105C061E083E279
:1038C0000E943C0E76CA0E94122873CA29960FB62F
:1038D000F894DEBF0FBECDBFDF91CF911F910F9146
:1038E000FF90EF90DF90CF90BF90AF909F907F9030
:1038F0006F905F904F90089580910F03089580E03E
:103900000895209169029091380256E02917A9F094
:1039100030E0529FF001539FF00D1124E75CFD4F02
:103920007181761306C07081781303C0728174139D
:1039300006C02F5F3F4F2770E9CF80E0089581E0F8
:103940000895CF93DF9300D01F92CDB7DEB790914B
:103950002303943011F589837B836A839093E90074
:103960008FEF9091E800815095FD06C095ED9A95F6
:10397000F1F700008111F5CF8091E80085FF0DC0BF
:1039800040E050E063E070E0CE0101960E94142D0B
:103990008091E8008E778093E8000F900F900F9051
:1039A000DF91CF910895BC0184E00C94A11CBC016F
:1039B00083E00C94A11C24E02093E9002FEF3091C8
:1039C000E800215035FD06C035ED3A95F1F70000CD
:1039D0002111F5CF2091E80025FF0BC040E050E019
:1039E00066E070E00E94142D8091E8008E7780934D
:1039F000E8000895CF93DF9321E02093E9002FEFB3
:103A00003091E800215035FD06C035ED3A95F1F7CB
:103A100000002111F5CF2091E80025FF14C0EC0132
:103A200040E050E068E070E00E94142D8091E800D2
:103A30008E778093E80088E0FE01A0E1B3E001907A
:103A40000D928A95E1F7DF91CF91089587E797E787
:103A500090930108809300089AE088E10FB6F894EB
:103A6000A895809360000FBE90936000FFCF78947C
:103A70001F920F920FB60F9211248F939F93AF93C3
:103A8000BF938091A0029091A102A091A202B09157
:103A9000A3020196A11DB11D8093A0029093A102E3
:103AA000A093A202B093A302BF91AF919F918F9177
:103AB0000F900FBE0F901F9018959C014FB7F89470
:103AC0008091A0029091A102A091A202B091A302C4
:103AD0004FBF821B930B08952FB7F8946091A002FB
:103AE0007091A1028091A2029091A3022FBF08952C
:103AF0000F931F930E94A80A882321F01F910F9112
:103B00000C946C1D0E946C1D0091CF011091D0018E
:103B10002091D1013091D201600F711F821F931F3C
:103B20001F910F910895CF92DF92EF92FF926B0158
:103B30007C010E94A80A81110EC00E946C1DC61A49
:103B4000D70AE80AF90AC092CF01D092D001E092D8
:103B5000D101F092D201FF90EF90DF90CF900895C5
:103B60002FB7F8948091A0029091A102A091A20297
:103B7000B091A3022FBF08950E94A80A81110C944E
:103B8000B01D0E94781DCB0108951F920F920FB6B1
:103B90000F9211248F939F93AF93BF938091E6016F
:103BA000811113C08091A0029091A102A091A20264
:103BB000B091A3024196A11DB11D8093A0029093E4
:103BC000A102A093A202B093A302BF91AF919F91D3
:103BD0008F910F900FBE0F901F9018959C012A5F38
:103BE0003F4FFC014281461301C0128201968217A9
:103BF0009307B9F708959C01FC0132969FEF80E08E
:103C00004191461789F09F3F19F4411101C0982F47
:103C10008F5F8630A9F79F3F39F0F901E90FF11D59
:103C200097FDFA95628308950895CF9384E090E01C
:103C30000E947832C82F82E290E00E9478322C2FC6
:103C400030E0A901582BCA01CF9108956AEE7EEFAA
:103C500080E090E00E94AA3260E082E090E00E9462
:103C60008C3260E083E090E00E948C3210929C02E3
:103C700010929D0210929E0210929F0260E084E0DA
:103C800090E00E948C3260E082E290E00E948C32F0
:103C900060E085E090E00E948C3260E086E090E099
:103CA0000E948C326FEF87E090E00E948C3240E0FF
:103CB00050E0BA0188E090E00E949E3260E08DE022
:103CC00090E00E948C3240E050E0BA0188E190E040
:103CD0000E949E3260E087E190E00E948C3240E0DA
:103CE00050E0BA018CE190E00E949E3260E070E00A
:103CF00080E290E00E94AA3240E050E0BA0188E100
:103D000090E00E949E3240E050E0BA018FE090E0E7
:103D10000E949E3240E050E0BA0183E190E00C94B2
:103D20009E3280919B02811110929B020895909186
:103D30009A0280919902892B20919802982F922BB8
:103D40009093290280919B02882389F0892B80938C
:103D50002902EBE2F2E097E080E0915029F0219116
:103D60002223D9F38F5FF9CF81110E94911EE09138
:103D7000E401F091E501309731F00280F381E02D0C
:103D800089E292E00994089580E090E00E94A526DF
:103D900080E090E00E948F26109299021092980283
:103DA0000E94971EEAEFF1E086E0DF011D928A95FE
:103DB000E9F71092F7011092F301109231020C947E
:103DC000A607CF93C091D401C2FB992790F9981709
:103DD00081F080FBC2F9C093D4016091D30184E0EB
:103DE00090E00E948C326C2F82E290E0CF910C9494
:103DF0008C32CF910895BF92CF92DF92EF92FF92D3
:103E00000F931F93CF93DF938C01C0902403D09026
:103E10002503E0902603F090270380919C02909167
:103E20009D02A0919E02B0919F02C82AD92AEA2A37
:103E3000FB2ACFE1D0E0D701C6010C2E04C0B69515
:103E4000A795979587950A94D2F780FD04C021978E
:103E500090F7B12C07C0BC2EB8018C2F0E94E30B49
:103E60000197A9F38B2DDF91CF911F910F91FF90B7
:103E7000EF90DF90CF90BF900895CF93DF93EC0148
:103E80000E94FB1EBE010E94E30BDF91CF910895BB
:103E90000E943D1F292F2F70E92FE295EF704E2FC2
:103EA00050E0FA013297EE30F105B8F4E559FF4FD2
:103EB0000C946533803F99F018F4883E70F40FC07D
:103EC000843F59F40CC0883E50F0813F31F407C064
:103ED000822F869586958695089580E0089581E0E5
:103EE0000895292F220F920F990F890F682F669539
:103EF00066956695982F977085E0689FB0011124AC
:103F000040E050E080E0FB01E40FF51FE659FD4F73
:103F1000208130E0092E02C0369527950A94E2F7F9
:103F200021703327042E01C0220F0A94EAF7822B56
:103F30004F5F5F4F4530510531F70895292F220F0C
:103F4000920F990F890FE82FE695E695E695877011
:103F500051E001C0550F8A95EAF785E0E89FF0012E
:103F60001124E659FD4F20E030E070E04081CB01A4
:103F7000022E02C0969587950A94E2F7817081958A
:103F800084278523842781932F5F3F4F2530310578
:103F900069F70895609324037093250380932603A3
:103FA000909327030C94C41E0F931F9341E050E09D
:103FB00060E070E004C0440F551F661F771F8A95AC
:103FC000D2F740955095609570958091240390911B
:103FD0002503A0912603B09127038A019B010823A2
:103FE00019232A233B23C901B8011F910F910C9477
:103FF000CA1F209197028095822380939702982F61
:10400000977041F430E0482F082E000C550B241710
:10401000350721F49091D40192FF07C085958595CD
:1040200085950E94D41F1092970208950F931F93B5
:1040300041E050E060E070E004C0440F551F661F8F
:10404000771F8A95D2F78091240390912503A09140
:104050002603B09127038A019B01082B192B2A2BD9
:104060003B2BC901B8011F910F910C94CA1F60939B
:104070009C0270939D0280939E0290939F020C94E9
:10408000C41E8091690290913802891719F08F5FE0
:104090008770FBCF08950F931F93CF93DF93809189
:1040A000370282958F7009F05DC0809134028823B9
:1040B00009F458C08091690210913802609132026F
:1040C00070913302C0913502D091360291E06F3F7A
:1040D00009F090E0292F06E0811709F443C02097EA
:1040E00021F07F3F21F030E003C031E001C0322FEA
:1040F00090E030FD34C0089FF001099FF00D1124BD
:10410000DF01A75CBD4F11963C911197371327C073
:104110003C91361324C012963C91129731111FC066
:1041200013964D915C9114974C1B5D0B483C5105C7
:10413000B0F4809137028F70806180933702E25C27
:10414000FD4F80818F708061808382E392E00E94C6
:10415000FF15DF91CF911F910F910C944120019693
:104160008770BACFDF91CF911F910F9108958F92F1
:104170009F92AF92BF92CF92DF92EF92FF920F93F6
:104180001F93CF93DF93CDB7DEB761970FB6F89447
:10419000DEBF0FBECDBF8C0185E0F801DE011D96AC
:1041A00001900D928A95E1F7D801DC901196EC9080
:1041B00011971296CC909091320220913302409147
:1041C0003502509136024115510531F02F3F31F43F
:1041D00081E09F3F19F403C081E001C080E080FDD1
:1041E00058C1F801A380B48082E3882E82E0982E23
:1041F000F0903402B501641B750BFF2009F403C174
:1042000080913702382F307F683C710508F0CDC0AF
:10421000311188C02E1112C09D1110C0FC2CC1108C
:104220000DC08F70806180933702C4010E94FF151A
:1042300080913702D80115968C9348C1A114B1041E
:1042400039F0BFEFEB1206C081E0DB1203C003C000
:1042500081E001C080E080FD03C081E08C2502C0C8
:1042600080E090E080FF10C04C2D6E2D8D2D0E94BF
:10427000811C882349F082E392E00E94FF15E2E36B
:10428000F2E086E0DF0199C0AB2839F0BFEFEB1216
:1042900006C081E0DB1203C003C081E001C080E002
:1042A00080FD03C081E08C2502C080E090E0E82F13
:1042B000E170BE2E80FF2CC04C2D6E2D8D2D0E94E6
:1042C000811CF82E811124C0DD86EE868D859E85A9
:1042D0000E943D1F292F22952F70223018F0243084
:1042E00090F405C09F7059F0811109C0EFC09F7014
:1042F00031F0D80115969C91907F09F4E7C0805E5B
:10430000883008F4E3C0C8010E94FF15FB2CDEC012
:10431000FC2CCC2009F4DAC08091370281608093B4
:1043200037024EC02E1106C09D1104C0C11002C03C
:10433000F8018BC0DD86EE868D859E850E94481F24
:10434000882369F1CC2059F120913702822F829580
:104350008F7090E0029774F0809132029091330256
:1043600098878F831986BB86AA862C87CE010796ED
:104370000E94FF1586E0F801A2E3B2E001900D92E1
:104380008A95E1F70E944B200DC02E15D9F0DD86ED
:10439000EE868D859E850E94481F81111DC0C80133
:1043A0000E94FF15FF24F39491C03111EECF82E3F8
:1043B00092E00E94FF1586E0D4011D928A95E9F7EC
:1043C000F12C84C09D11E3CFC110E1CFF8018583AA
:1043D000C8010E94FF1557C0CC2009F32091370275
:1043E000822F82958F7090E0029724F280913202A2
:1043F000909133029A8389831B82BD82AC822E8383
:10440000CE010196B5CF683C7105E8F5FC2CCC20B7
:1044100031F22E1127C09D1125C02091370220FDB9
:1044200018C0822F82958F70482F50E0411551059A
:1044300081F0F80125834F30510541F08F5F982FAF
:104440009295907F822F8F70892B8583C8010E945F
:10445000FF1586E0F801A2E3B2E001900D928A9583
:10446000E1F734C0DD86EE868D859E850E94481F6B
:10447000811180CF80913702816080933702C8011B
:104480000E94FF1523C086E0D4011D928A95E9F7AA
:104490001DC0CC2009F483CFDD86EE868D859E85F8
:1044A0000E94481FF82E882309F479CF86E0F8018E
:1044B000A2E3B2E001900D928A95E1F78091320279
:1044C000909133020E943D1F0E944B208F2D6196D8
:1044D0000FB6F894DEBF0FBECDBFDF91CF911F9115
:1044E0000F91FF90EF90DF90CF90BF90AF909F9093
:1044F0008F90089510929A0286E0EBE2F2E0DF01DD
:104500001D928A95E9F70C94C41E08957F928F92AC
:104510009F92AF92BF92CF92DF92EF92FF920F9352
:104520001F93CF93DF93FC018280748081E08483AA
:10453000ECE2F4E09490EBEAF4E0E491A12CF5E0F5
:10454000BF2ECC24CA94D12CE9190E2F10E08091F3
:104550000801A81608F0A2C0EA2CF12C22E02815C8
:1045600068F0BE9CF001BF9CF00D1124E553FD4F97
:1045700080911302808380911402818371100AC09C
:10458000BE9CF001BF9CF00D1124E553FD4F13823A
:1045900012826AC0BE9CE001BF9CD00D1124C5539D
:1045A000DD4F8B818823F9F081508B832FEF829F21
:1045B000C00111246C8170E00E943D33FB01FF2794
:1045C000E45DFB4F8491E82FE9192FEFE29FC001D2
:1045D0001124B8010E943D3380911502689FB001FB
:1045E00011247A8341C00E945F32209115022695E2
:1045F000215830E0A901440F551F322F2227240FE4
:10460000351F232F33278217930774F582E088150F
:1046100088F40E945F32B6010E94513388830E9461
:104620005F32209114022695622F70E00E94513370
:10463000280F2983BE9CF001BF9CF00D1124E55387
:10464000FD4F128280911502843120F0893C18F0D0
:1046500088EC01C084E1BE9CF001BF9CF00D1124E8
:10466000E553FD4F84838383809106019701280FD2
:10467000311DC901880F991F280F391F29553D4F3A
:10468000BE9CF001BF9CF00D1124E553FD4F42810B
:10469000618180810E941206A39459CFDF91CF914E
:1046A0001F910F91FF90EF90DF90CF90BF90AF9050
:1046B0009F908F907F900C944D050F931F93CF93F5
:1046C000DF93EC0100E010E080910801282F30E03A
:1046D0000217130724F5909106019801290F311D47
:1046E000A901440F551F240F351F29553D4F8695AD
:1046F00090E04C81081719071CF4442331F002C0E4
:10470000411103C04091150201C040E060911402C4
:10471000809113020E9412060F5F1F4FD5CF0E9497
:104720004D058C8190E00196817099278C83DF91F3
:10473000CF911F910F9108958F929F92AF92BF9248
:10474000CF92DF92EF92FF920F931F93CF93DF935D
:104750008C01FC014481C42FD0E09E01DE010E9447
:1047600014339B01AC010E94DF326B017C01E0E25B
:10477000F0E0EC1BFD0BA5E5B0E09B01AC010E9455
:10478000DF324B015C019F01DF010E9472339B010C
:10479000AC010E94EA329B01AC012C0D3D1D4E1D67
:1047A0005F1DC501B4010E94F232C22FD22F2A32FE
:1047B00028F4F3E02F9F900111240DC025E530E08F
:1047C0002C1B3109C901880F991F280F391F37FF8A
:1047D00002C02F5F3F4F35952795C22FC095F12C12
:1047E00085E5E82EED1A80910801F816C8F4F1FC71
:1047F00002C08E2D01C08D2F909106012F2D30E02B
:10480000290F311DA901440F551F240F351F2955AC
:104810003D4F4C2F609114020E941206F394E3CF97
:104820000E944D05F8018481811102C091E003C00E
:10483000803219F49FEF9093220190912201890F09
:10484000F8018483DF91CF911F910F91FF90EF903A
:10485000DF90CF90BF90AF909F908F9008951F935F
:10486000CF93DF93EC018C81811109C081E08C83AF
:104870001092A50292E090932101809320018091F3
:10488000060190910701891770F4E82FF0E09F016D
:10489000220F331FE20FF31FE955FD4F11821082E3
:1048A00012828F5FF0CF10E0609108011617C0F5FB
:1048B000E12FF0E070E0CF010E945133209106011A
:1048C000820F2091A502022E000C330B90E0E2171C
:1048D000F307CCF020912101022E000C330B2E1790
:1048E0003F078CF09C01220F331F820F931F9C0106
:1048F00029553D4F40911502609114028091130299
:104900000E9412060BC0FC01EE0FFF1F8E0F9F1FAF
:10491000FC01E955FD4F1182108212821F5FC4CF46
:104920000E944D05809120012091A502280F20931F
:10493000A50290912101980F9093210119165CF422
:10494000022E000C330B4091080150E041505109F8
:104950002417350734F0819580932001813009F4C4
:104960001C82DF91CF911F9108958F929F92AF92F9
:10497000BF92CF92DF92EF92FF920F931F93CF934C
:10498000DF93EC018A8180FF03C0BB24BA9402C08C
:10499000BB24B3948C8181110DC081E0B81206C094
:1049A0008091080181508093A40202C01092A40259
:1049B00081E08C83A12C4CE0942E80910801A816F4
:1049C00008F044C080910601CA2CD12C8601080F42
:1049D000111DC801880F991F080F191F09551D4F78
:1049E000F80111821082128234E0E32EF12C812C26
:1049F0008091A402880D8D302CF0692D0E942F33F8
:104A0000892F05C087FF03C090910801890F082EE8
:104A1000000C990BC816D90691F4809115028E9D51
:104A2000A0018F9D500D112455954795559547959B
:104A3000980160911402809113020E9412068B0C5F
:104A4000F1E0EF1AF108A1F6A394B7CF0E944D054B
:104A50008091A40291E0B9120EC0811107C080912B
:104A6000080181508093A4021C820FC08150809362
:104A7000A402BC820AC090E001966091080170E037
:104A80000E9451338093A4028C83DF91CF911F91B8
:104A90000F91FF90EF90DF90CF90BF90AF909F90DD
:104AA0008F900895FF920F931F93CF93DF93EC01A4
:104AB000F12C0FEF10E060910801F616F0F48091F0
:104AC00006012F2D30E0280F311DC901880F991FD5
:104AD000280F391F29553D4F70E0C8010E945133FE
:104AE000962F8C814091150260911402F99E800DE1
:104AF00011240E941206F394DECF0E944D059A8184
:104B00008C8190FF02C08F5F01C081508C83DF9148
:104B1000CF911F910F91FF9008950F931F93CF9303
:104B2000DF9300D01F92CDB7DEB78C018091A60233
:104B300081110AC09E012F5F3F4F4FEF6FEF0E9420
:104B400012068A818093A602F8018481813051F097
:104B500028F0823061F44091A6020AC08091A6023A
:104B600040E007C06091A60240E080E003C040E062
:104B700080E060E00E949905F801848190E0019650
:104B800063E070E00E94513384830F900F900F9088
:104B9000DF91CF911F910F910895CF93DF93EC0197
:104BA000E2E1F2E0438162818C810E94A8068C815F
:104BB0008F5F8C83DF91CF910895CF93DF93EC01CA
:104BC000EC81F0E0E45DFB4F4491E2E1F2E06281D0
:104BD00081810E94A8068C818F5F8C83DF91CF91A9
:104BE00008951F93CF93DF93CDB7DEB767970FB6C6
:104BF000F894DEBF0FBECDBF342F4B8B252F5C8BBF
:104C00006D8B7E8B8F8B4E895F896111109299021B
:104C100086E0FE013D96DF01982F1D929A95E9F7F7
:104C20003D872E876F87598B488BDE011796019041
:104C30000D928A95E1F7CE0107960E94B720811167
:104C40003EC086E0FE013796DE01119601900D927E
:104C50008A95E1F7FF81E8856A857B856115710595
:104C600031F0EF3F31F481E0FF3F19F403C081E000
:104C700001C080E080FD23C02091380230E0C901EE
:104C80000196877099274091690250E08417950733
:104C900079F1F983EA837D836C8396E0929FD0015A
:104CA000939FB00D1124A75CBD4FFE01319601907A
:104CB0000D929A95E1F7809338020E94412016E008
:104CC00080916902909138028917F9F0189FC0010C
:104CD0001124875C9D4F0E94B7208823B1F08091FA
:104CE000690290E001968770992780936902E8CF66
:104CF0000E947A221092380210926902E2E3F2E0F6
:104D000086E0DF011D928A95E9F767960FB6F89461
:104D1000DEBF0FBECDBFDF91CF911F9108952091CF
:104D20000B0330910C032817390771F090930C0393
:104D300080930B03E091E401F091E501309721F0BD
:104D40000084F185E02D09940895209109033091A4
:104D50000A032817390771F090930A038093090317
:104D6000E091E401F091E501309721F00680F781B0
:104D7000E02D09940895E091E401F091E501309768
:104D800021F00190F081E02D099480E008950F93C7
:104D90001F93CF93DF93C42FD22FFC0182818823EE
:104DA000C9F0409327020E94B01D9093080380939E
:104DB000070380E28C0F883008F057C0C77081E08D
:104DC00001C0880FCA95EAF7DF91CF911F910F912B
:104DD0000C94712D80912702481330C080910703F5
:104DE000909108030E945D1D883C910538F510E202
:104DF0001D0FCD17B9F080E28C0F883040F4C770DA
:104E000081E001C0880FCA95EAF70E94662D18302C
:104E100028F581E09D2F977001C0880F9A95EAF7D9
:104E20000E94712D802F0E94092F1830F0F4D77046
:104E300081E001C0880FDA95EAF70AC080E28C0FA2
:104E4000883098F4C77081E001C0880FCA95EAF7EE
:104E5000DF91CF911F910F910C94662D802FDF91E0
:104E6000CF911F910F910C94092FDF91CF911F913A
:104E70000F910895CF93DF93C7E6D2E060E0CE01B3
:104E80000E948C322196C11584E0D807B9F7DF91D2
:104E9000CF9108950F931F93CF93DF93843058F5EC
:104EA0006C3048F5463038F521159CE5390731F46A
:104EB000E0912302F0912402EF2BE9F08901C42F45
:104EC000D0E0CC0FDD1F9CE0699FC00DD11D1124E7
:104ED00090E9899FC00DD11D1124612FCE018796C5
:104EE0000E948C32602FCE018896DF91CF911F9166
:104EF0000F910C948C32DF91CF911F910F910895F7
:104F00008F929F92AF92BF92CF92DF92EF92FF92D9
:104F10000F931F93CF93DF93C0902302D09024026E
:104F200081E090E09093240280932302812CE12C75
:104F3000F12C912C00E010E0C0E0D0E05701A00E71
:104F4000B11EFE01EE0FFF1FEA0DFB1DE45DFA4FDF
:104F5000259134914C2F692D882D0E944A27219646
:104F6000C630D10571F7045F1F4F93948CE09812FF
:104F7000E3CF80E9E80EF11C839484E08812D9CF56
:104F8000D0922402C0922302DF91CF911F910F9102
:104F9000FF90EF90DF90CF90BF90AF909F908F9059
:104FA00008950F931F93CF93DF93843008F56C30EF
:104FB000F8F44630E8F4C42FD0E0CC0FDD1F2CE02D
:104FC000629FC00DD11D112430E9839FC00DD11DFA
:104FD0001124CE0187960E94783290E0182F002786
:104FE000CE0188960E9478329801282BC90102C010
:104FF00080E090E0DF91CF911F910F910895462FAF
:105000002091250230912602232B49F4843038F474
:105010007C3028F4663018F4672F0C94D12780E098
:1050200090E008959091120290FF04C09695981711
:1050300040F003C0811105C090E0961710F40C9465
:10504000BA0E61E00C943C0E882311F0FA0101C005
:10505000FB010994E0EFF1E0118282818460828398
:10506000089560911202669570E04BE050E085E192
:1050700091E00E948133892B19F481E08093F10142
:105080000E94BC1D9093EB018093EA018091F20194
:1050900084608093F20108950F931F9380912403FD
:1050A00090912503A0912603B09127038C019D01C7
:1050B0000670112722273327BC01CD0106301105C8
:1050C0002105310511F4686001C0677F1F910F91C0
:1050D0000C94CA1F1F93CF93DF93CDB7DEB7AA9767
:1050E0000FB6F894DEBF0FBECDBFEBE1F3E08091C9
:1050F000F100819343E0E332F407C9F780911C0388
:10510000833009F462C030F4813071F0823009F4E8
:105110009CC0B3C08A3009F488C08B3009F46DC0DC
:10512000893009F0AAC020C080911B03813A09F0A0
:10513000A4C08091E800877F8093E80080911F03DE
:1051400090912003892B21F468E080E193E003C073
:1051500060E080E090E070E00E947B2F8091E800AA
:105160008B778093E80089C080911B03813209F01E
:1051700084C080911F0390912003009719F002973B
:1051800009F07BC08091E800877F8093E8008091E0
:10519000E80082FD05C0809123038111F8CF6DC026
:1051A0002091F3008091F20090E0922B029729F475
:1051B0008091F1008B7F813021F48091F100809308
:1051C0000F038091E8008B7754C080911B03813AD4
:1051D00009F053C080911F0390912003892B09F09F
:1051E0004CC08091E800877F8093E8008091E800C0
:1051F00080FFFCCF8091230137C080911B03813257
:10520000E1F580911F0390912003892BB1F58091E6
:10521000E800877F8093E8000E94272F80911D037C
:10522000809323010E947A2228C080911B0381323F
:1052300021F58091E800877F8093E8000E94272F66
:1052400080911E0380930E0318C080911B03813A46
:10525000A1F48091E800877F8093E8008091E800C6
:1052600080FFFCCF80910E038093F1008091E800D5
:105270008E778093E8000E94272F8091E80083FFBB
:10528000E9C180911B0390911C03492F50E04A30E3
:10529000510508F0DFC1FA01E758FF4F0C94653360
:1052A000803821F0823809F0D5C108C080911803F8
:1052B00090911903992389F082600FC080911F0398
:1052C0008F70873008F0C6C18093E9008091EB00B1
:1052D00085FB882780F91092E9009091E800977F7C
:1052E0009093E8008093F1001092F1007CC1282F88
:1052F0002D7F09F0AFC1882319F0823061F0AAC177
:1053000080911D03813009F0A5C1933009F080E040
:10531000809319032EC080911D0381112AC08091B2
:105320001F038F702FEF280F263008F093C1809352
:10533000E9002091EB0020FF1CC0933021F4809104
:10534000EB00806214C09091EB0090619093EB00B1
:1053500021E030E0A90102C0440F551F8A95E2F711
:105360004093EA001092EA008091EB0088608093FD
:10537000EB001092E9008091E800877F8093E800BD
:105380000E94272F67C1811165C110911D031F77EE
:105390008091E3008078812B8093E3008091E80086
:1053A000877F8093E8000E94272F8091E80080FF8C
:1053B000FCCF8091E30080688093E300111102C06C
:1053C00082E001C083E08093230344C1805882308F
:1053D00008F040C120911D0330911E032C3D53E085
:1053E000350779F583E08A838AE289834FB7F89499
:1053F000DE01139620E03EE051E2E32FF0E050930F
:105400005700E49120FF03C0E295EF703F5FEF701B
:105410008E2F90E0EA3010F0C79601C0C0968D93B1
:105420009D932F5F243149F74FBF8091E800877F1C
:105430008093E8006AE270E0CE0101960E947B2F23
:10544000C0C080911F0390912003432F5527433004
:105450005105B1F068F44130510509F40AC14230F8
:10546000510509F0F7C08BE590E0EFE4F8E057C094
:105470004132510589F14232510509F43CC0EAC07C
:10548000C901992781309105B9F070F082309105FA
:10549000D9F0039709F0DEC0ECEBF8E0E4918E2F31
:1054A00090E0ECEBF8E038C0EEE1F9E0E4918E2F0B
:1054B00090E0EEE1F9E030C0E8E0F9E0E4918E2F11
:1054C00090E0E8E0F9E028C0EAEDF8E0E4918E2F02
:1054D00090E0EAEDF8E020C08330910508F0BAC012
:1054E000880F991FFC01EA57FE4F0190F081E02DD3
:1054F00089E090E014C08330910508F0ABC0FC0156
:10550000EE0FFF1FE058FE4F0190F081E02DDC010F
:10551000A358BE4F8C9190E0009709F49BC0209156
:10552000E800277F2093E800209121033091220397
:105530002817390708F4C90140E0009789F1209144
:105540002303222309F43DC02530D9F12091E8003E
:1055500023FD37C02091E80022FD2FC02091E800F4
:1055600020FFEBCF4091F3002091F20030E0342B8C
:10557000009759F02830310540F444914093F100F0
:10558000319601972F5F3F4FF3CF41E0283031052F
:1055900009F040E02091E8002E772093E800CDCF7D
:1055A0004111CDCF0AC080912303882351F085306B
:1055B00041F08091E80083FD04C08091E80082FF03
:1055C000F2CF8091E8008B778093E80043C0803869
:1055D00009F040C08091E800877F8093E8008091C7
:1055E0001A038093F1008091E8008E77C7CE811175
:1055F00031C080911D0390911E039927029754F5A5
:105600008091E800877F8093E80010911D0310933C
:105610001A030E94272F111106C08091E30087FD15
:1056200002C081E001C084E08093230342E061EC8A
:1056300081E00E94462F42E261EC84E00E94462F06
:1056400042E261EC82E00E94462F42E260EC83E09D
:105650000E94462F8091E80083FF10C08091E800EF
:10566000877F8093E8008091EB0080628093EB005D
:1056700005C082E190E0EAEAF8E051CFAA960FB6C1
:10568000F894DEBF0FBECDBFDF91CF911F9108957B
:105690001F920F920FB60F9211242F933F934F93A7
:1056A0005F936F937F938F939F93AF93BF93CF93AA
:1056B000DF93EF93FF93C091E900CF708091EC00EE
:1056C000D82FD17080FDD0E81092E9008091F000D1
:1056D000877F8093F00078940E946A281092E900F6
:1056E0008091F00088608093F000CD2BCF70C09344
:1056F000E900FF91EF91DF91CF91BF91AF919F9121
:105700008F917F916F915F914F913F912F910F906A
:105710000FBE0F901F901895E8EDF0E080818E7F0E
:1057200080831092E2001092DA001092E100A0EE65
:10573000B0E08C9181608C9380818F77808319BCDD
:10574000A7EDB0E08C918E7F8C9380818F7E8083DB
:1057500010920D030895CF92DF92EF92FF920F9374
:105760001F93CF93DF93C8EDD0E088818F7E88832D
:10577000E7EDF0E080818160808384E082BF81E09A
:1057800080930D0388818E7F888302EE10E0F801FC
:1057900010821092DA0081EEC82ED12CF601108210
:1057A00088818F77888388818068888388818F7DCE
:1057B000888319BC1092230310921A0310921903C4
:1057C0001092180390EEE92EF12CF70180818B7F67
:1057D000808388818160888342E060E080E00E946D
:1057E000462FF60180818E7F8083F8018081816061
:1057F0008083808188608083F70180818E7F8083B1
:10580000888180618883DF91CF911F910F91FF90F4
:10581000EF90DF90CF9008951F920F920FB60F92E6
:1058200011242F933F934F935F936F937F938F93A5
:105830009F93AF93BF93EF93FF938091E10082FF1B
:1058400009C08091E20082FF05C08091E1008B7F5A
:105850008093E1008091DA0080FF2AC08091D80017
:1058600080FF26C08091DA008E7F8093DA008091DD
:10587000D90080FF18C080E189BD82E189BD09B4EB
:1058800000FEFDCF81E08093230380910D03811101
:105890000FC00E948C2B0E94AB2B8091E200846091
:1058A0008093E20005C019BC1092230310920D03EF
:1058B0008091E10080FF17C08091E20080FF13C05B
:1058C0008091E2008E7F8093E2008091E20080610F
:1058D0008093E2008091D80080628093D80019BC48
:1058E00085E0809323038091E10084FF2EC08091A6
:1058F000E20084FF2AC080E189BD82E189BD09B44C
:1059000000FEFDCF8091D8008F7D8093D8008091DC
:10591000E1008F7E8093E1008091E2008F7E809392
:10592000E2008091E20081608093E20080911A039E
:10593000882311F084E007C08091E30087FD02C056
:1059400081E001C083E0809323038091E10083FF25
:1059500027C08091E20083FF23C08091E100877F10
:105960008093E10082E08093230310921A038091D8
:10597000E1008E7F8093E1008091E2008E7F809332
:10598000E2008091E20080618093E20042E060E00A
:1059900080E00E94462F8091F00088608093F000A4
:1059A000FF91EF91BF91AF919F918F917F916F91F7
:1059B0005F914F913F912F910F900FBE0F901F90CD
:1059C00018952091E4003091E50095E64091EC00B7
:1059D000842F817040FF23C08091E80080FD1DC0AE
:1059E00080912303882399F0853099F08091EB0012
:1059F00085FD11C04091E4005091E5002417350762
:105A000029F3915011F09A01E1CF84E0089582E0EA
:105A1000089583E0089581E0089580E0089540911D
:105A2000E80042FFDDCF0895EF92FF920F931F939E
:105A3000CF93DF937C018B010E94E12C811119C06F
:105A4000E70101151105A1F08091E80085FD0AC06C
:105A50008091E8008E778093E8000E94E12C8823F3
:105A600081F307C089918093F10001501109E9CFBA
:105A700080E0DF91CF911F910F91FF90EF900895FB
:105A8000CF93209123032430F9F4C091E900CF7023
:105A90003091EC00232F217030FD20E8C22B22E052
:105AA0002093E9002091E80020FF0BC040E050E087
:105AB00060E270E00E94142D8091E8008E77809360
:105AC000E800CF70C093E900CF910895882341F09A
:105AD000809590919A02892380939A020C94971E44
