:100000000C9477040C941D300C94BE040C94BE0424
:100010000C94BE040C94BE040C94BE040C94BE0458
:100020000C94BE040C94BE040C944F2B0C948B2A9D
:100030000C94081D0C94BE040C94BE040C94BE04D5
:100040000C94BE040C94BE040C94BE040C94BE0428
:100050000C94BE040C947A1C0C94BE040C94BE0444
:100060000C94BE040C94BE040C94BE040C94BE0408
:100070000C94BE040C94BE040C94BE040C94BE04F8
:100080000C94BE040C94BE040C94BE040C94BE04E8
:100090000C94BE040C94BE040C94BE040C94BE04D8
:1000A0000C94BE040C94BE040C94BE046F186F181C
:1000B000A918A91802191E19B11AB11A2B19081A70
:1000C000151A151A9D1E9D1EB01EB01EA61EB01E2E
:1000D000B01EB01E9D1E9D1EAB1EB01EB01EAB1EE0
:1000E0009328BA286D2ABA286D2A062929296D2A4B
:1000F0002A2A3A2A00000000000000000000000048
:1001000000000000000000000000000000000000EF
:1001100000000000000000007E0F00D4FFFFFFC7BA
:100120000000007800000000000000002A2B2800DA
:100130000000000000000000000000000000002996
:10014000000000002C1E3420212224342627252ED6
:10015000362D3738271E1F2021222324252633330E
:10016000362E37381F0405060708090A0B0C0D0E3A
:100170000F101112131415161718191A1B1C1D2F06
:100180003130232D350405060708090A0B0C0D0E26
:100190000F101112131415161718191A1B1C1D2FE6
:1001A0003130354C00010101010101010101020260
:1001B0000202020202020203030303030303030415
:1001C00004040404040405050505050606060606E0
:1001D000070707070708080808090909090A0A0A9A
:1001E0000B0B0B0C0C0C0D0D0D0E0E0E0F0F0F103C
:1001F00010111111121213131414151516161717C6
:10020000181819191A1A1B1B1C1D1D1E1E1F202031
:10021000212222232424252626272829292A2B2C7B
:100220002D2D2E2F30313232333435363738393A9E
:100230003B3C3D3E3F404142434445464748494A96
:100240004C4D4E4F50515354555658595A5B5D5E64
:100250005F616264656668696B6C6D6F70727375FF
:1002600077787A7B7D7E8082838587888A8C8E8F63
:1002700091939596989A9C9EA0A2A3A5A7A9ABAD91
:10028000AFB1B3B5B7BABCBEC0C2C4C6C9CBCDCF7F
:10029000D1D4D6D8DBDDDFE2E4E7E9EBEEF0F3F52D
:1002A000F8FAFDFFFFAA7F55401E0F0500047F3FAF
:1002B0001F643214643214783C1E1E140A05FD3784
:1002C0007A585A000004E6D6B4460200210116000E
:1002D0000000742FE5A3E002C601165D003D888989
:1002E000C65436C3174FE4DD5C7431C9895FE43707
:1002F000D76A12C8719E622074951E40FC632398D1
:10030000D3E329C0FEAFF340E5BB5EB336194F48D7
:1003100097F46DA3394BA146FFEA5E1FCA98A91056
:10032000671AEDCF5AA8539276BBA51FFF990EDF2F
:100330000A72EA3E20FFB723704CD8B173B740650C
:10034000F4FFD94CD265FF986BA9D96327A66A5DE3
:100350009FD89E81005757B78E3B17875AB7F11425
:10036000F62EA23040E8999A3C93D24E569682F2ED
:10037000B45341460F342D08860906A8E520A1276D
:100380008B201251A98CEA43E0A90C83A8AF530734
:100390001D2CDCB6AF4B869E161EF4AD316630B90F
:1003A0009D42B8D82EAEDFE76EA827B13A4553A5D7
:1003B000F89F6B72E7C092E8868163EB7513129E1B
:1003C0009EACDD8D7330CE07F22E968397866A97AA
:1003D000B3C71A3559707014F520AF7504EF941E29
:1003E00074A3F62311C7AAA50E26BC590C70C652D9
:1003F000E379700000006300E89329610AFB0001C3
:10040000B202C70500009721C603B1C467FB020012
:1004100000000004595A2223252628292A2C2D2F92
:100420003032333536383A3B3D3E4042434547490A
:100430004A4C4E5051535557595A5C5E606264663F
:1004400068696B6D6F71737577797B7D7F8183854B
:1004500087898A8C8E90929496989A9C9E9FA1A34D
:10046000A5A7A8AAACAEAFB1B3B4B6B8B9BBBCBE71
:10047000BFC1C2C3C5C6C7C9CACBCCCDCED0D1D2ED
:10048000D2D3D4D5D6D7D7D8D9D9DADADBDBDBDCEF
:10049000DCDCDCDCDDDDDDDDDCDCDCDCDCDBDBDB9B
:1004A000DADAD9D9D8D7D7D6D5D4D3D2D2D1D0CEFB
:1004B000CDCCCBCAC9C7C6C5C3C2C1BFBEBCBBB900
:1004C000B8B6B4B3B1AFAEACAAA8A7A5A3A19F9E7E
:1004D0009C9A98969492908E8C8A89878583817F46
:1004E0007D7B79777573716F6D6B69686664626027
:1004F0005E5C5A5957555351504E4C4A49474543F3
:1005000042403E3D3B3A3836353332302F2D2C2A8F
:100510002928262523222E001E001F00200021004E
:1005200022002B0014001A000800150017003900E3
:1005300004001600070009000A00E1001D001B006E
:1005400006001900050029003542490450004F00FB
:100550002A000000E000E2004A004D004C002300A9
:1005600024002500260027002D001C0018000C0088
:100570001200130031000B000D000E000F0033437A
:10058000340011001000360037003861E5002C00FF
:10059000520051002F0030000258280005030007C8
:1005A000E300E4000000010001000100010001007F
:1005B0000100010034003600370013001C00010068
:1005C00004001200080018000C00010034001400A0
:1005D0000D000E001B0001000100010001000100E0
:1005E0000100000001000100010001000100010004
:1005F0000100010001000100010009000A000600DD
:1006000015000F00386107000B00170011001600DD
:100610002D00050010001A0019001D000100010046
:1006200001000100010001000100010001000100C2
:1006300001000100000001003A003B003C003D00C9
:100640003E0001001E021F022F0030003102010097
:100650002002210226022702350001002202230285
:100660002F0030003502005C010001000100010094
:1006700001000000010001000100010001003F0035
:100680004000410042004300440052005F0060000F
:1006900061005500450051005C005D005E005700A0
:1006A0004604240259005A005B0054000100010076
:1006B0000100630062006700010001004E004B0072
:1006C000010001000000A60001000100010001007E
:1006D0000100010001000100F00001000100010023
:1006E0000100F200F100F30001000100010001002F
:1006F000010001000100005C01000100F400F500B0
:1007000001000000010001000100010001000100E2
:1007100001000100010001000100010001000100D1
:1007200001000100010001000100010001000100C1
:10073000AE0001000100AC00AB0001000100B600FA
:10074000A900AA00A80001000100010001000100A9
:1007500001000100000005010902A1018502090153
:10076000A100050919012905150025019505750147
:100770008102950175038101050109300931158157
:10078000257F95027508810609381581257F950119
:1007900075088106050C0A38021581257F950175BB
:1007A000088106C0C005010980A101850319012A3D
:1007B000B700150126B700950175108100C0050C22
:1007C0000901A101850419012AA002150126A00230
:1007D000950175108100C00660FF0961A1010962E1
:1007E000150026FF00952075088102096315002673
:1007F000FF00952075089102C005010906A10105B9
:100800000719E029E7150025019508750181029572
:1008100001750881010507190029FF150026FF0051
:1008200095067508810005081901290595057501CA
:100830009102950175039101C009025B000301005B
:10084000A0FA0904000001030101000921110100BF
:10085000012240000705810308000A090401000283
:100860000300000009211101000122220007058276
:100870000320000107050303200001090402000111
:1008800003000000092111010001228100070584F5
:100890000320000A120110010000000850446030DB
:1008A0000100010203011C037600690061006C0075
:1008B0003A00660036003400630032006200330004
:1008C000630000000E0344006100630074007900BF
:1008D0006C00000014034F0068004B0065007900B5
:1008E0006300610070007300000004030904112418
:1008F0001FBECFEFDAE0DEBFCDBF04B603FE27C0D8
:1009000080913F0390914003A0914103B091420335
:100910008730904BA740B04BD1F410923F03109218
:100920004003109241031092420314BE84B7877FA4
:1009300084BF0FB6F894A895809160008861809379
:100940006000109260000FBEE0E0F8E3099511E04E
:10095000A0E0B1E0E8E6F5E602C005900D92AA3C01
:10096000B107D9F723E0AAECB1E001C01D92AF3383
:10097000B207E1F70E94AA0E0C94B2320C94000068
:100980009091D50192FF0DC0282F2871283019F4BD
:10099000877F846006C0282F2471243011F48B7F58
:1009A000886093FF0DC0282F2871283119F4877EA5
:1009B000846106C0282F2471243111F48B7E886154
:1009C0002091D60120FF0DC0382F3871383019F42E
:1009D000877F816006C0382F3171313011F48E7FEE
:1009E000886021FF0DC0282F2871283119F4877ED7
:1009F000816106C0282F2171213111F48E7E88611A
:100A000094FD877E08950F931F9341E050E060E0CE
:100A100070E08A019B0104C0000F111F221F331FC9
:100A20008A95D2F7C901B8010E947A1F1F910F91D0
:100A30000C94BD2125E0E2E1F2E0DC0101900D9291
:100A40002A95E1F72091F2013091F3014091F401F0
:100A5000FC0125833683478308951092F40108959D
:100A60008091F4010895309105018091120280FF78
:100A700016C0E091040163E0E69FF0011124EB55FC
:100A8000FD4F539A8BB1877F9BB198602FB7F89435
:100A9000AF0163E0369F400D511D112414C08091B9
:100AA000060190910701891720F7E82FF0E0AF01C8
:100AB000440F551FE40FF51FEB55FD4F11821082B7
:100AC00012828F5FF0CFE417F50789F0319168E06B
:100AD0009BB9000000C037FF8BB9330F000000C086
:100AE00000C000C08BB900C06A9591F7ECCF2FBF52
:100AF0008FE594E00197F1F700C000000895909110
:100B0000120290FF16C090910601209107019217E2
:100B100070F4E92FF0E0DF01AA0FBB1FEA0FFB1F03
:100B2000EB55FD4F8183608342839F5FF0CF0C9430
:100B30003305089580911202282F269530E0211563
:100B4000310519F48170826005C02B32310524F023
:100B500081708465809312020895CF92DF92EF92A4
:100B6000FF926B017C010E949A05B701A60188E003
:100B700090E0FF90EF90DF90CF900C94BB3180918C
:100B80001602882319F08150809316026091120298
:100B90007091130280911402909115020C94AD058E
:100BA00080911602833018F48F5F80931602609153
:100BB00012027091130280911402909115020C940C
:100BC000AD05E2E1F2E083E0808311828FEF828362
:100BD00083831482A2EFB1E012968C911297836006
:100BE00012968C9360817181828193810C94AD0502
:100BF000AF92BF92CF92DF92EF92FF920F931F932B
:100C0000CF93DF93E82EF62EE901E42FF0E0611197
:100C100006C0EC55FE4FE4914E2F2E2F71C0062FCB
:100C200010E0EC55FE4F4491F42FC42ED12C26E059
:100C3000829FC00111242FEF30E0B9010E945A3287
:100C40005BEA5603C001579F900D11248E0D911D34
:100C50008E0D911D582F550F580FD901A01BB10BA8
:100C6000AC9DC001AD9D900DBC9D900D1124E92F50
:100C7000F59ED0011124AB2FBB277901EA1AFB0A9C
:100C8000EC9CD001ED9CB00DFC9CB00D11245901E1
:100C9000A51AB108A09E7001A19EF00CB09EF00CA8
:100CA0001124EF2CFF242E193F092C9D80012D9D2E
:100CB000100D3C9D100D1124212F6230710591F013
:100CC00048F461157105E1F061307105B9F4242F24
:100CD0004B2F16C06430710569F040F06630710525
:100CE00079F00CC0242F492FE12F0AC0492FEF2F94
:100CF0002B2F06C0292FE42F412F02C0292FEB2FC5
:100D000049832883EA83DF91CF911F910F91FF9050
:100D1000EF90DF90CF90BF90AF900895CF93DF9387
:100D200000D01F92CDB7DEB79091120290FF0AC09B
:100D30009E012F5F3F4F0E94F8054B8169818A8198
:100D40000E947F050F900F900F90DF91CF91089533
:100D5000AF92BF92CF92DF92EF92FF920F931F93C9
:100D6000CF93DF9300D01F92CDB7DEB7182FF62EAA
:100D7000042FE22E9091120290FF7EC0E92FE6959B
:100D8000AE2FB0E0AE5BBE4F8C918093F2019E7FA0
:100D9000923061F49E012F5F3F4F812F0E94F80532
:100DA0004B8169818A810E947F0543C0823019F49A
:100DB000009115023EC0863019F41091130239C01B
:100DC0008930D9F38931A9F5E9518E2F8170D82E58
:100DD000E695F0E0EC55FD4FA590B490C12CBB24F6
:100DE00060910801C61618F52C2D30E0A29EC001B6
:100DF000A39E900DB29E900D112470E00E945A3275
:100E0000812FD11002C0860F01C0861B9091060170
:100E1000290F311DA901440F551F240F351F2B55D4
:100E20003D4F402F6F2D0E94F805C394D9CF0E94EB
:100E3000330580911302181308C080911402F81230
:100E400004C080911502081729F08091F401826096
:100E50008093F40110931302F09214020093150290
:100E6000EE2051F0609112027091130280911402F1
:100E7000909115020E94AD050F900F900F90DF9199
:100E8000CF911F910F91FF90EF90DF90CF90BF9087
:100E9000AF900895E2E1F2E0438121E1421B08F4C2
:100EA00040E021E0628181810C94A806E2E1F2E059
:100EB000438121E1420F08F44FEF21E062818181FB
:100EC0000C94A806E2E1F2E0628121E1621B08F4E1
:100ED00060E021E0438181810C94A806E2E1F2E028
:100EE000628121E1620F08F46FEF21E0438181818B
:100EF0000C94A806E2E1F2E0818121E04381628165
:100F000088500C94A806E2E1F2E0818121E043815F
:100F10006281885F0C94A8060E94F31C2091FE0158
:100F2000211104C02091FF01222321F09093FB01A5
:100F30008093FA0120910002211104C02091010246
:100F4000222321F09093F7018093F601E091E601CE
:100F5000F091E701309749F082E08093FC01048032
:100F6000F581E02D8CEF91E009940895803F39F4EC
:100F70008091FF0187FF6AC01092FF0167C0813F27
:100F800029F48091FF011816BCF360C09091FE0116
:100F9000823F29F497FF5AC01092FE0157C0833F49
:100FA00019F41916CCF352C090910002893F31F424
:100FB00019160CF04BC01092000248C08A3F19F479
:100FC00097FF44C0F8CF8B3F39F48091010287FF2F
:100FD0003DC0109201023AC08C3F29F48091010279
:100FE0001816BCF333C0843F21F48091FD018E7F3D
:100FF00017C0853F21F48091FD018D7F11C0863F90
:1010000021F48091FD018B7F0BC0873F21F48091FB
:10101000FD01877F05C0883F31F48091FD018F7EFF
:101020008093FD0113C08D3F21F480912F028E7FAC
:101030000BC08E3F21F480912F028D7F05C08F3F22
:1010400029F480912F028B7F80932F028091FE01E3
:10105000811106C08091FF01811102C01092F90137
:1010600080910002811106C080910102811102C0AD
:101070001092F501089580912F0280FF08C06091C1
:10108000270170E0759567957595679521C081FF7B
:1010900006C06091270170E07595679519C082FFC1
:1010A00004C06091270170E010C09091F501992370
:1010B00099F0609126019617A0F780912701899FEA
:1010C000C001112470E00E946E326038710540F456
:1010D0006115710519F406C061E070E0862F08956E
:1010E0008FE7089581E0089580912F0280FF0BC063
:1010F0006091290185E0689FB0011124759567957D
:10110000759567952BC081FF09C06091290185E025
:10111000689FB00111247595679520C082FF07C0B4
:101120006091290185E0689FB001112417C090915A
:10113000F9019923D1F060912801961788F7209141
:10114000290185E0289F90011124929FA001939F7F
:10115000500D112470E0CA010E946E326038710592
:1011600040F46115710519F406C065E070E0862F42
:1011700008958FE7089581E00895803F21F40E944B
:101180007408819504C0813F29F40E9474088093FB
:10119000FF010895823F21F40E947408819504C0E4
:1011A000833F29F40E9474088093FE010895893FCB
:1011B00019F40E943B0805C08A3F31F40E943B08A5
:1011C00081958093000208958B3F21F40E943B0893
:1011D000819504C08C3F29F40E943B088093010252
:1011E0000895843F21F48091FD01816017C0853FFF
:1011F00021F48091FD01826011C0863F21F480912D
:10120000FD0184600BC0873F21F48091FD0188605F
:1012100005C0883F31F48091FD0180618093FD011C
:1012200008958D3F21F480912F0281600BC08E3F85
:1012300021F480912F02826005C08F3F29F48091B4
:101240002F02846080932F020895833011F128F4D7
:10125000813049F0823091F00895853081F120F19C
:101260008630C1F108958091F801681720F4861B3B
:101270008093F80108951092F801089580910A0171
:10128000681720F4861B80930A01089510920A01C2
:10129000089580912901681720F4861B8093290105
:1012A000089510922901089580912801681720F46B
:1012B000861B80932801089510922801089580913B
:1012C0002701681720F4861B809327010895109248
:1012D0002701089580912601681720F4861B8093CA
:1012E00026010895109226010895833081F128F493
:1012F000813059F08230D1F00895853009F449C029
:10130000B8F1863009F456C008958091F801262F6F
:1013100030E0280F311D2F3F310524F4680F609312
:10132000F80108958FEF8093F801089580910A01E4
:10133000262F30E0280F311D2F3F310524F4680F90
:1013400060930A0108958FEF80930A0108958091B8
:101350002901262F30E0280F311D2F3F310524F4BD
:10136000680F6093290108958FEF809329010895F4
:1013700080912801262F30E0280F311D2F3F3105A5
:1013800024F4680F6093280108958FEF809328015B
:10139000089580912701262F30E0280F311D2F3F1F
:1013A000310524F4680F6093270108958FEF80932F
:1013B0002701089580912601262F30E0280F311D46
:1013C0002F3F310524F4680F6093260108958FEFB5
:1013D0008093260108958B3109F47AC058F58B303B
:1013E00009F498C078F4863009F446C020F48530BA
:1013F00009F44CC091C0873009F45CC0883009F40E
:1014000089C08AC0803109F476C068F48E3009F052
:1014100083C08091030282FB222720F991E092276A
:1014200090FB82F95EC0863109F474C0893109F4F9
:1014300071C072C08A32E9F060F4873209F467C083
:1014400028F48E3108F468C08D5162C08932F1F001
:1014500063C0833450F48A3308F057C0853309F4ED
:1014600056C0883309F456C057C0833409F44FC0BE
:1014700053C00E94691D4EC080910302817F8E7F00
:101480008093030281E080932703089580910B01EC
:1014900090910C01892BF1F10E94BD212FEF84E383
:1014A0009CE0215080409040E1F700C000000E9485
:1014B000691C30C080910302982F9095917090FB29
:1014C00080F980930302911125C0897F877F10C026
:1014D0008091030281FB222720F991E0922790FB63
:1014E00081F9809303029923A9F08091030281601E
:1014F000809303020FC08091030283FB222720F90F
:1015000091E0922790FB83F9ECCF895301C080E0F2
:101510000E94030581E0089580E008958091D00144
:10152000811118C08091D80080618093D8008AE131
:101530008A95F1F700C08091D90080FD02C082E059
:1015400001C081E08093D001823021F40E94CF2A33
:101550001092180381E09091D001913009F080E061
:101560000895F894E82FE295EF70F0E031A1282F6C
:101570002F7081E090E001C0880F2A95EAF7982F3C
:101580009095932391A392A1892B82A37894089597
:101590008F929F92AF92BF92CF92DF92EF92FF9283
:1015A0000F931F93CF93DF9300D000D000D0CDB71F
:1015B000DEB70DE611E087EDC82E81E0D82E46019A
:1015C000F12CAA24A394B12CB801D8018C91F894E1
:1015D000E82FE295EF70F0E021A18F70A50102C025
:1015E000440F551F8A95E2F7CA01922F982B91A3B9
:1015F00092A18095892382A3789400C0E9E7F1E065
:1016000020E030E0E12C4191842F82958F7090E0B2
:10161000DC0190968C9190E04F7002C09595879573
:101620004A95E2F780FD07C08A2D022E01C0880F7F
:101630000A94EAF701C080E0E82A2F5F3F4F263086
:10164000310509F70F5F1F4FFB0180810E94B10A2E
:10165000F0EAFA95F1F7D4018C91E81619F0EC92C2
:1016600081E001C080E0F82ABFEF8B1A9B0AE1E01D
:1016700003371E0709F0A8CF1091E401FF2049F0BD
:1016800081E08093CE010E94F31C9093CD01809362
:10169000CC018091CE018823B9F08091CC0190914A
:1016A000CD010E94A01C069778F0E12FF0E0E95EE2
:1016B000FD4FD6018D916D018193BDEDCB16B1E04B
:1016C000DB06B9F71092CE010E948E0A6091E40108
:1016D0008823E9F18E010F5F1F4F86E0F801119218
:1016E0008A95E9F7862F90E0B801895E9D4F0E94A8
:1016F0001F2F811115C08091CF018F5F8093CF0183
:10170000863078F1E091E301F0E0E95EFD4F80E0A2
:1017100090E01192019686309105D9F781E022C0C0
:101720001092CF01E091E301F0E0E95EFD4FD801B6
:101730009E01295F3F4F80E09D914081491711F044
:10174000908381E03196A217B307B1F70BC070E028
:10175000695E7D4F8091E30190E0895E9D4F0E941C
:101760004D2F80E0FF2011F081E090E026960FB62B
:10177000F894DEBF0FBECDBFDF91CF911F910F91C7
:10178000FF90EF90DF90CF90BF90AF909F908F90A1
:101790000895CF93DF930E944227EC018238910590
:1017A00059F1A0F48133910509F473C040F48932F2
:1017B000910509F467C08A9709F472C084C0853323
:1017C000910509F458C0C997B9F07DC0833E9105D1
:1017D00071F138F4803E9105B1F0823E910511F12E
:1017E00072C0863E9105B9F1873E9105C9F1843EEC
:1017F000910509F068C024C08091D50180FD5DC0CD
:1018000081FD5BC060C08091D50180FD50C080919A
:10181000D60180FF49C18091D50184FD43C1C3EE4B
:10182000D0E042C18091D50182FF3EC1F4CF8091CA
:10183000D50182FD3FC08091D60180FD3EC0EBCF37
:101840008091D60181FF30C18091D50184FD2AC1EC
:10185000C7EED0E029C18091D50183FF25C1F4CF27
:101860008091D50183FD2CC08091D60181FFECCF02
:10187000C4EED0E019C18091D50185FF15C1C9E240
:10188000D0E012C18091D50185FF0EC1C5E3D0E043
:101890000BC18091D50186FF07C1CAE2D0E004C127
:1018A0008091D50186FF00C1C1E3D0E0FDC0C9E34E
:1018B000D0E0FAC0C2EED0E0F7C0C0EED0E0F4C095
:1018C000C6EED0E0F1C0C11581E5D80708F066C0CA
:1018D000C11520E5D207E0F0CE0174E0969587951A
:1018E0007A95E1F783709C2F937021E030E002C07D
:1018F000220F331F9A95E2F73C68382BCF70C695BC
:10190000C69540E2C49FE0011124C22BD32BCCC06A
:10191000C83ED10560F5C03ED10508F0C5C0C83A43
:10192000D105B0F4C53AD10540F0C55AD0E0C8564B
:10193000DE4FC881D0E0D064B7C0C130D10509F412
:10194000B3C008F4AFC0C430D10508F4ABC0ACC01C
:10195000CF3BD10508F0A6C0C85AD0E0CC0FDD1FA0
:10196000C556DE4F0990D881C02DD4649DC0C115E5
:1019700040E2D40758F4C11581E0D80708F094C0BC
:10198000C03FD10508F48EC0D0658EC0C11520E4DB
:10199000D20708F487C0DF70D06A86C0C11545E55C
:1019A000D40708F042C0C11584E5D80728F0DC2F21
:1019B000CC27C46FD06A78C0C11523E5D207B0F038
:1019C000CE018370992721E030E002C0220F331F3F
:1019D0008A95E2F78C2F8695869540E2849FC00118
:1019E0001124E901C82BD92BDA685EC0C11542E584
:1019F000D40728F4DC2FCC27C16FD06A55C0CE01A4
:101A00008370992721E030E002C0220F331F8A95AE
:101A1000E2F78C2F8695869540E2849FC0011124C1
:101A2000E901C82BD92BDC683FC0C11589E5D8076F
:101A3000B8F4C11528E5D20728F0DC2FCC27C06FF9
:101A4000D06A32C0C11546E5D40760F58C2F0E94DC
:101A5000C0048F71C82FD0E0DC2FCC27D06224C007
:101A6000C1158AE5D80780F48C2F8F700E94C004BE
:101A700094E0D695C7959A95E1F7CF70D0E0DC2F2A
:101A8000CC27D069C82B10C0CE019056811590424A
:101A900048F48D2F8F710E94C004DD27D0628F71B2
:101AA000D82B02C0C0E0D0E0CE01DF91CF910895E5
:101AB000AF92BF92CF92DF92EF92FF920F931F935C
:101AC000CF93DF93EC018AE0A82E2881222309F42A
:101AD00097C0213009F041C08981813039F48E01ED
:101AE0000E5F1F4F8A810E94262E08C0823041F46B
:101AF0008E010E5F1F4F8A810E94FF2CE8017EC07D
:101B0000833039F48E010E5F1F4F8A810E94982C1A
:101B1000F5CF843011F0219671C02A81229680E0A1
:101B200090E030E0205331092A30310558F4A89E66
:101B3000A001A99E500D1124C901840F951F219663
:101B40002881EFCF009709F459C0EFE9FFE0319702
:101B5000F1F700C000000197F5CFE22FF0E0EC5D57
:101B6000FE4FB490822F86958695869590E0FC0175
:101B7000EC5EFE4FE4902770F12C022E02C0F5942B
:101B8000E7940A94E2F7F1E0EF22FF24FC01EC5F16
:101B9000FE4FC490D12C022E02C0D594C7940A9453
:101BA000E2F731E0C322DD24FC01EC50FF4F049149
:101BB00010E002C0159507952A95E2F701701127EC
:101BC000E114F10419F081EE0E94FF2CC114D1043C
:101BD00019F086EE0E94FF2C8B2D0E94262ECD2818
:101BE00019F086EE0E94982CEF2819F081EE0E94E1
:101BF000982C012B19F08CE20E94262E219665CF9D
:101C0000DF91CF911F910F91FF90EF90DF90CF90D8
:101C1000BF90AF900895E2E1F2E080818E7F8083F3
:101C20000E946D27E2EFF1E08281816082832FEFD5
:101C300080E792E0215080409040E1F700C0000032
:101C40000C9433059091120290FF3BC0917081116A
:101C500002C0926006C08B3210F0946502C0880FFB
:101C6000982B909312028091F40181608093F4018B
:101C7000662351F060911202709113028091140258
:101C8000909115020E94AD0560911202669570E078
:101C90004BE050E087E191E00E949E32892B19F0E1
:101CA0000E946D2702C00E94742781E08093EF019B
:101CB00020E04091150260911402809113020C946F
:101CC000A80608951F93CF93DF93EC01162F8F8101
:101CD00080FF0FC0888180FF0AC08091120281605E
:101CE00080931202888186950E94220E02C00E9473
:101CF0000B0E8F8181FF06C0212F4B816A81898164
:101D00000E94A8068F8182FF08C08E81882319F067
:101D10000E94742702C00E946D278F8183FF03C039
:101D200081E08093EF01DF91CF911F910895809121
:101D300012028695815009F48AE261E00C94220E29
:101D40008091120286958F5F8B3208F081E061E00E
:101D50000C94220ECF93DF93CDB7DEB7E2970FB688
:101D6000F894DEBF0FBECDBF84B7877F84BF0FB6A8
:101D7000F894A8958091600088618093600010922B
:101D800060000FBE90E080E80FB6F8948093610089
:101D9000909361000FBE85B7806885BF85B7806866
:101DA00085BF82EC9BE19093CB018093CA010E9496
:101DB000CF2A0E94EE2A8091E20084608093E200A4
:101DC0007894809118038823A1F01091E9001F7086
:101DD0009091EC00892F817090FD80E8182B109273
:101DE000E9008091E80083FD0E94AD271F701093E9
:101DF000E90082E084BD93E095BD9AEF97BD8093A2
:101E00006E001092D1011092D2011092D301109263
:101E1000D4018EE090E00E94953191E0811101C0E3
:101E200090E09093090180910901882321F010929C
:101E3000040186E003C086E08093040180930501DD
:101E40000E948E0A81110E94F62E809109018091D4
:101E50000901882311F090E001C096E09093E4011D
:101E600086E0891B8093E3010DE611E073E7E72E1E
:101E700071E0F72EF80181918F010E94B10AE016FE
:101E8000F106C1F709E711E06FE7E62E61E0F62EF3
:101E9000F80181918F010E94B10AE016F106C1F7A5
:101EA000E7EDF1E0A7E1B2E011921D9221E0E33EFF
:101EB000F207D1F780E090E00E94A3318A3E9E4F66
:101EC00011F00E94691D82E090E00E94953180939C
:101ED00003020E94581D9093D6018093D5010E9461
:101EE000C80A8FE39CE90197F1F700C000000E9447
:101EF000C80A8091170280FF17C06FEF83E290E05D
:101F00000E94A9316FEF84E290E00E94A9316FEF47
:101F100085E290E00E94A9316FEF7FEF80E090E0D2
:101F20000E94C7310E94691C83E090E00E949531B5
:101F3000682F70E080E090E00E947A1F0E948E0A75
:101F4000811102C00E94FC2E83E290E00E94953134
:101F5000873681F484E290E00E949531823851F412
:101F600085E290E00E94953191E08A3609F090E098
:101F7000892F01C080E080FF68C58091E501811153
:101F80003BC080E090E00E94A3318A3E9E4F21F04A
:101F90000E94691D0E94E10588E090E00E949D3149
:101FA00060931202709313028093140290931502AF
:101FB0008091F40183608093F4016E7F71F40E943C
:101FC000E10588E090E00E949D31609312027093D9
:101FD000130280931402909315020E949A050E94A6
:101FE0006D278091120280FF04C060E086950E94F8
:101FF000220E81E08093E5018DE091E09093E7016E
:102000008093E60138E1632E712C40E4542E53E2B4
:10201000A52E52E0B52E9E012F5F3F4F7901809192
:102020001803853009F03FC000E112E180911803E8
:10203000853009F034C080911803843009F1109282
:10204000E8010FB6F894A895609260000FBE509218
:10205000600083B7817F846083BF83B7816083BF63
:102060007894889583B78E7F83BF0FB6F894A89530
:1020700080916000886180936000109260000FBEC4
:1020800080911703882391F20E94C80AE7E1F2E0E9
:1020900081918111BBC4AE16BF06D1F7C7CF0E9494
:1020A000BD210E94FE250E94C80A81110E94AF1C1A
:1020B000A4E0B2E0E7E1F2E000E010E0802E9190D1
:1020C0008D91892549F1C12CDD24D394982F9D2130
:1020D000F1F00E948E0A882399F0C9A68AA69D2055
:1020E00081E009F480E08BA70E94F31C8160782FC7
:1020F0009DA78CA749A55AA56BA58DA50E9434253F
:10210000F801EC5FFD4F8081D826D0821AC0C394BD
:10211000DD0C36E0C312DACF0F5F1F4F0C30110514
:1021200069F68FEF8EA78FA718AA0E94F31C816013
:10213000782F9AAB89AB4EA55FA568A98AA90E94A2
:1021400034258091F301882309F4CFC08091F201F6
:10215000E0911202E695E81BE093EE01823059F41B
:10216000F0E0E654FD4FE4910E2F10E020E2C22E85
:1021700025E2D22E6BC0863059F4F0E0E954FD4FD1
:10218000E4910E2F10E090E1C92E95E2D92E5EC0A9
:10219000893061F4E695F0E0EC54FD4FE4910E2FA8
:1021A00010E085E9C82E84E2D82E50C08F3061F44B
:1021B000E695F0E0EF54FD4FE4910E2F10E0B8EFFC
:1021C000CB2EB3E2DB2E42C0853159F4F0E0E2556C
:1021D000FD4FE4910E2F10E0A2E7CA2EA3E2DA2E03
:1021E00035C08831F9F0833249F4ECEAF2E0059128
:1021F0001491F0EDCF2EF4E2DF2E28C08432C9F026
:102200008532F1F48E2F63E00E944032E92FF0E036
:10221000E755FD4FE4910E2F10E0E9ECCE2EE1E200
:10222000DE2E14C008E210E07FEDC72E72E2D72E3A
:102230000DC004EF11E060EAC62E62E2D62E06C0A1
:1022400000ED17E058ECC52E51E2D52E8091EF013C
:10225000882361F01092EF010E94FF1C9093ED0122
:102260008093EC011092F1011092F0010E94FF1C8A
:10227000E091EC01F091ED019C012E1B3F0B2F3FF3
:102280003F4798F52091EB012223B1F01092EB012A
:102290002091E9013091EA01821B930B8F3F9F4708
:1022A00058F4205D3A483093EA012093E901809187
:1022B000F40188608093F4018090F0019090F10126
:1022C0000E0F1F1F1093ED010093EC018CEE91E0B7
:1022D000F60109958091F0019091F101892B29F483
:1022E000892819F081E08093EB0186E0ECEFF1E0C2
:1022F000D70101900D928A95E1F7C090FE01D09030
:10230000FF0100910002109101021092FE01109253
:10231000FF011092000210920102C11003C0DD20E3
:1023200009F45DC08091FA019091FB010E94A01C0C
:10233000AC019091F901992339F020910A0130E024
:102340002417350758F04BC02091F801FAE02F9F71
:10235000900111242417350718F041C09F3F19F050
:102360009F5F9093F901CC2061F00E9474081C14C7
:1023700014F491E001C09FEF899F802D1124809378
:10238000FE01DD2061F00E9474081D1414F491E038
:1023900001C09FEF899F802D11248093FF01309110
:1023A000FE013323E1F02091FF012223C1F045EB30
:1023B0003403C0011124992319F09093FE0103C046
:1023C00081E08093FE0135EB2303C00111249923A2
:1023D00019F09093FF0103C081E08093FF01011188
:1023E00003C0112309F451C08091F6019091F701C7
:1023F0000E94A01C9C019091F501992309F43EC311
:102400002536310508F441C09F3F19F09F5F909336
:10241000F501002361F00E943B08101614F491E0CE
:1024200001C09FEF899F802D11248093000211230A
:1024300061F00E943B08111614F491E001C09FEF77
:10244000899F802D11248093010230910002332353
:10245000E1F0209101022223C1F045EB3403C001D9
:102460001124992319F09093000203C081E0809316
:10247000000235EB2303C0011124992319F0909336
:10248000010203C081E0809301028091FE0181116D
:102490000BC08091FF01811107C080910002811162
:1024A00003C08091010281110E948C07CB82DC82E3
:1024B0000D831E8386E0F701ACEFB1E001900D9231
:1024C0008A95E1F70E94FE2590910202891721F07A
:1024D0000E94FE258093020280911803843009F047
:1024E0009ECD83E08093E9008091E80082FF97CD44
:1024F0008091E80085FF21C00E94242C81111BC01F
:1025000040E2C42ED12C870109C08091F100F8016E
:1025100081938F01F1E0CF1AD10869F08091E80032
:1025200085FDF3CF8091E8008B778093E8000E94CF
:10253000242C882399F391E001C090E08091E80079
:102540008B778093E800992309F469CD00912302E9
:102550001091240289810115110561F08E3F09F067
:102560002FC28A81833008F4A0C18550833008F0DF
:1025700027C29BC1893009F4D7C0D0F4843009F454
:1025800069C050F48230A1F108F055C0813009F0E3
:1025900015C21A8289E010C2863009F46DC008F4B1
:1025A00060C0873009F46BC0883009F49CC006C253
:1025B000803109F41CC180F48D3009F4C0C028F4C6
:1025C0008C3009F0FBC180E116C18E3009F4BBC02C
:1025D0008F3009F4E0C0F2C1823109F40EC108F471
:1025E00009C1833109F430C18E3F09F45EC1E6C1EF
:1025F0008A81823009F420C2833051F0813009F0A1
:10260000DDC10E94AF1C9B838C837D836E83D8C108
:1026100080910B0190910C01892B09F4D1C1FE012D
:102620003396CE010F96A7E1B2E02D9121938E173C
:102630009F07D9F7C5C18A81823009F0BFC16B817C
:102640007C818D819E810E94883286E290E00E948A
:10265000A931B6C14C816B818A810E9414279D8368
:10266000F2C12D813E813227232732274C816B8195
:102670008A810E948D26A4C10E94C326A1C18A819D
:102680008138B1F050F4803809F09AC120E04B81D4
:10269000609114028091130223C08238E9F08338DC
:1026A00009F08EC120E0409115026C818B8118C029
:1026B00060E08B810E94220E8B81811103C00E94F9
:1026C0000B0E7EC18091120281608093120260E045
:1026D00086950E94220E74C18B818093160270C170
:1026E0000E94A8066DC18A81813899F030F4803843
:1026F00009F066C1809115025FC1823891F083387C
:1027000009F05EC1809113028B83809114028C8347
:1027100057C18091120280FF02C086954DC180E0B2
:102720004BC18091160248C1609112027091130250
:1027300080911402909115020E94AD0541C181E083
:102740008A8389E939C10A811B8110270127102753
:102750008C80912C2DE18216910408F031C1670123
:10276000C80189599D4F96012E193F092815390531
:1027700008F026C1093931E0130728F40E94953189
:10278000F601848302C0F60114820F5F1F4FFFEF32
:10279000CF1ADF0AE5CF80910B0190910C01892BB4
:1027A00009F40EC10A811B81102701271027CC8054
:1027B000D12C2DE1C216D10408F002C14701C80195
:1027C00089599D4F94012E193F092C153D0508F09C
:1027D000F7C0093931E0130720F4F40164810E9445
:1027E000A9310F5F1F4FFFEF8F1A9F0AE8CF0E949A
:1027F0007D26E6C084E08A83E3C00A811B8110271E
:10280000012710278C80912C2DE18216910408F06D
:10281000D7C06701C801879696012E193F09281570
:10282000390508F0CDC0003432E0130728F40E94C7
:102830009531F601848302C0F60114820F5F1F4FA9
:10284000FFEFCF1ADF0AE6CF0A811B81102701278D
:102850001027CC80D12C2DE1C216D10408F0B0C0D5
:10286000003432E0130708F0ABC080E492E0801B34
:10287000910B8C159D0508F4A3C04701C8018796EC
:1028800094012E193F092C153D0508F099C000341C
:1028900042E0140720F4F40164810E94A9310F5F23
:1028A0001F4FFFEF8F1A9F0AE9CF8A818230C9F14B
:1028B00058F48823F1F0813009F082C098E59983BB
:1028C0008A831B821C827CC0863009F460C08730FA
:1028D00009F46CC0853009F073C040E250E06FEF3E
:1028E00070E0C7010E94AB3280910B0189830A839B
:1028F00067C088E0EAE3F1E0DE01919601900D9275
:102900008A95E1F783E089831A821B821C8288E022
:10291000FE01B196DE01159601900D928A95E1F7C0
:102920004FC08C8190E0982F88272B81820F911DBA
:10293000092E000CAA0BBB0B35E0880F991FAA1FAC
:10294000BB1F3A95D1F7AC01BD01405E5F4F6F4FA1
:102950007F4F481759076A077B0790F1883521E0B8
:102960009207A105B10560F5493531E053076105CE
:10297000710520F048E551E060E070E0481B590B1C
:10298000BC0162547D4FC7010E948C3119C081E0A7
:1029900090E0909324028093230282E390E090934E
:1029A0001102809310020E94F31C0AC080910B0157
:1029B00089830A83809110028B8302C08FEF898301
:1029C00080911803843009F02ACB1091E9001F7020
:1029D0009091EC00892F817090FD80E8182B82E0A7
:1029E0008093E9008091E80080FF0CC040E050E057
:1029F00060E270E0C7010E94572C8091E8008E775A
:102A00008093E8001F701093E90009CB09BD19BD40
:102A100009B400FEFDCF8091D8008F7D8093D8004F
:102A20008091E00082608093E0008091E00081FD71
:102A3000FCCF0E94BD21FACA86E290E00E94953147
:102A40001B821C821D828E83BBCF60E086E290E0F9
:102A50000E94A9310E94C3260E947D2667E683E278
:102A600090E00E94A93162E884E290E00E94A931DE
:102A70006AE685E290E00E94A9317FCA232B09F023
:102A8000C5CC03CD4F925F926F927F929F92AF928F
:102A9000BF92CF92DF92EF92FF920F931F93CF934B
:102AA000DF93CDB7DEB729970FB6F894DEBF0FBE20
:102AB000CDBFFC018081918123813481232B31F0B2
:102AC0009F3F31F491E08F3F19F403C091E001C0C2
:102AD00090E090FD3EC67F0185E0DE0111960190F9
:102AE0000D928A95E1F7F701228189819A8122234B
:102AF00049F00E943E1E182F682F89819A810E94FA
:102B0000E11E03C00E94B41E182F69817A81812FB3
:102B10000E9442278C01F7018281882309F482C038
:102B2000980122513F452031310508F093C08FEFC5
:102B300093E00E94953181117FC02EEED22ED00EEF
:102B400007E612E0DD2071F00115F4E01F0709F43B
:102B500073C0C8010E949531811101C0DA940F5FE2
:102B60001F4FF0CF1E821F8218861986AA24AA94AE
:102B700068012FEFC21AD20AC8010E9495318E83D4
:102B80001F82882309F458C0813009F046C03801FB
:102B900032E0630E711CC6010E9495318F83882339
:102BA00009F44AC09FEF980F933060F4680183E006
:102BB000C80ED11CC3010E949531888781112DC098
:102BC0008601D6CF843011F06301FACFC3010E9491
:102BD0009531B82E680194E0C90ED11CC801039646
:102BE0000E949531BB2041F1882331F1282F30E03C
:102BF00021503109A29EA001A39E500D11248B2DBE
:102C000090E00197840F951F0197D0F2EFE9FFE064
:102C10003197F1F700C00000F7CFCE0106960E9471
:102C2000580DCECF00313FE5130709F0B9C481E05C
:102C30000E94171F0E948F2780919502877009F4C8
:102C400088C5F7018281882309F483C582E00E9448
:102C50003C1F7FC50031FFE51F0711F481E005C06F
:102C600001312FE5120721F482E00E94591FE2CFC3
:102C7000033FFCE51F0749F406E221EE40EE63EF57
:102C80007CE5C7010E940A26D7CF043F2CE5120736
:102C900008F049C1083D3CE5130731F407E225EE91
:102CA00045EE68ED7CE5EDCF093D9CE5190731F473
:102CB00008E221E045EE69ED7CE5E3CF073DECE578
:102CC0001E0731F406E221EE41EE67ED7CE5D9CF37
:102CD000882309F45DC11092250202302CE5120709
:102CE00008F440C106313CE5130730F0C8018A5FA3
:102CF0009C45099708F036C10E94581D9093D60153
:102D00008093D50100318CE5180709F4C3C008F0A1
:102D100041C00830ECE51E0709F49AC0F0F4043015
:102D20002CE5120709F487C068F402308CE5180717
:102D300009F477C003301C4509F0E5C08091D50146
:102D4000826076C00630ECE51E0709F46EC008F01C
:102D50007BC08091D50188606BC00C302CE51207D8
:102D600009F485C068F40A308CE5180709F474C0CA
:102D700008F079C00E94BD218091D501806858C0BB
:102D80000E30ECE51E0709F476C008F07FC0809194
:102D9000D5018BC00B3F2CE5120709F44FC018F585
:102DA00003318CE5180709F47DC078F40131ECE5B6
:102DB0001E0709F473C002311C4509F0A4C00E942B
:102DC000BD218091D5018F7733C005312CE51207E5
:102DD00009F472C008F486C00A3F1C4509F093C08C
:102DE0008091D6013EC00F3F9CE5190709F45FC0F2
:102DF00058F40D3FFCE51F0709F444C008F43FC038
:102E00008091D60182602DC001303DE5130709F4A1
:102E100075C008F45DC002301D4509F074C060E063
:102E20006EC08091D501816003C08091D501806121
:102E30008093D50168C08091D50111C08091D601E1
:102E400082608093D6015FC08091D5018062F0CF0F
:102E50008091D5018064ECCF8091D5018860846039
:102E6000E7CF8160EECF8091D5018E7FE1CF809159
:102E7000D5018D7FDDCF8091D501877FD9CF80911E
:102E8000D60118C08091D6018D7FDBCF8091D5010E
:102E90008F7ECECF8091D5018F7DCACF8091D50115
:102EA0008F7BC6CF8091D501877F8B7FC1CF8091EB
:102EB000D6018D7F8E7FC5CF8091D50182FB2227E1
:102EC00020F991E0922790FB82F990FB83F9B0CF33
:102ED0008091D601982F909591708E7F892B90FBD1
:102EE00081F9AFCF0E94BD218091D50187FB2227B8
:102EF00020F991E0922790FB87F99ACF61E08EE06C
:102F000090E00E94A9316091D5011091D60184E032
:102F100090E00E94A931612F82E290E00E94A931E5
:102F20000E94BD2189CE053FFCE51F0731F406E272
:102F300021EE42EE65EF7CE5A4CE053F2CE51207BD
:102F400030F407E225EE44EE64EF7CE59ACE063FCE
:102F50003CE5130709F0BCCE07E225EE46EE66EF2E
:102F60007CE58FCE06318CE5180721F5809198021B
:102F70008A7A91E009F490E090932602882311F078
:102F800065E301C069E287E292E00E943E1D0FC046
:102F90000631ECE51E0709F040C080912602882327
:102FA00009F405C365E387E292E00E94311D0E94A7
:102FB000DA1D42CE0A352DE5120749F158F4011504
:102FC0008CE51807B1F00E3D1C4509F042C00E9487
:102FD000691D32CE0B35EDE51E07D9F00C351D45C8
:102FE000C1F58091D60182FB882780F991E089277D
:102FF00011C00E94BD210FEF14E32CE001501040DE
:103000002040E1F700C000000E94691C15CE81E05D
:1030100001C080E00E94241E1CC080919802827230
:103020000C3CECE51E0709F473C308F0F2C2063C41
:103030002CE5120709F458C308F0C9C2033C9CE50B
:10304000190709F447C308F0B4C2023C1C4509F44F
:1030500017C3F701828100811181882349F0C801DB
:103060000E943E1ED82E682FC8010E94E11E04C097
:10307000C8010E94B41ED82EB8018D2D0E94C90B24
:103080008C01982EF701D280A580A2949FE0A922FE
:1030900080919502877099F0DD2089F0812F807FE3
:1030A000803421F080E2800F883048F082E00E9476
:1030B0003C1F809195028770CC24C3948111C12C50
:1030C000B12EB2948FE0B8228B2D90E08C30910518
:1030D00008F047C2FC01EA5AFF4F0C948232812F5C
:1030E000807F1F70882311F01295107FDD20B9F0CA
:1030F000112309F421C280E2800F883010F0911072
:1031000006C080919802182B1093980205C08091F8
:103110009702182B109397020E94DA1D0DC2802F80
:103120000E94982C112309F41CC2005E10950830EF
:1031300010F0911006C08091980218231093980205
:1031400005C0809197021823109397020E94DA1D00
:1031500008C2812F807F1F70803211F01295107F7E
:10316000992021F0F1E09F1611F130C0DD20B1F07F
:10317000AA2081F001E0A0120DC08091D60182FD4D
:10318000F0C180919902182B181709F4EAC1109325
:103190009902E7C180919902812B10C0AA2021F0E9
:1031A00021E0A21609F4DDC10E94D41D27C0DD2054
:1031B00041F035E03A1508F4D4C1812F0E948E2CDD
:1031C000D0C184E08A1508F4CCC118C0DD2049F0D4
:1031D000AA2099F3F701858180FFAEC18F708583A6
:1031E000ECCFAA2059F0093309F0B8C1FFEF17EE70
:1031F00023E0F15010402040E1F7AEC1812F0E9442
:10320000832CAFC1812F86958695837019F081300C
:1032100059F0A7C1DD2019F0C801937002C080E009
:1032200090E00E94E8259DC1DD2019F0C80193704F
:1032300002C080E090E00E94D22593C1802FDD2063
:1032400029F00E94BD080E948C0702C00E94B607A8
:103250000E948C0786C1812F837009F06AC0D1104B
:1032600084C1902F929596959770990F990F802F02
:103270008F70482E512C612C712C092E04C0440CE7
:10328000551C661C771C0A94D2F704FF12C04FE04D
:1032900050E060E070E004C0440F551F661F771FC8
:1032A0009A95D2F7DB01CA0180959095A095B095CB
:1032B00003C080E090E0DC0116951695412F437025
:1032C0004230D9F068F500919A0210919B0220914A
:1032D0009C0230919D02413059F084299529A629FC
:1032E000B729BC01CD0160237123822393231EC023
:1032F000402A512A622A732A13C084299529A629B3
:10330000B72900919A0210919B0220919C02309162
:103310009D02BC01CD01602771278227932706C03B
:10332000BC01CD0164297529862997290E947A1F3D
:1033300018C1DD2019F0812F817001C08695882386
:1033400009F413C1902F929596959770990F990F44
:10335000802F8F70482E512C612C712C092E04C0A7
:10336000440C551C661C771C0A94D2F704FF12C04B
:103370004FE050E060E070E004C0440F551F661F4E
:10338000771F9A95D2F7DB01CA0180959095A09599
:10339000B09503C080E090E0DC0116951695412FB2
:1033A00043704230D9F068F5009122031091230355
:1033B0002091240330912503413059F08429952927
:1033C000A629B729BC01CD01602371238223932351
:1033D00088C0402A512A622A732A13C08429952959
:1033E000A629B729009122031091230320912403D9
:1033F00030912503BC01CD016027712782279327D7
:1034000070C0BC01CD01642975298629972969C03E
:103410001F70DD2029F0812F0E94591F802FCECEF2
:10342000802F0E94832C812F49C0802F32EF93166A
:1034300009F440C0391538F090EF991661F0E1EFCA
:103440009E1699F174C0F3EF9F16D9F124EF9216EE
:1034500009F44EC06CC0DD2019F134E03A1508F4CF
:1034600080C01F7181E090E0A0E0B0E0AC01BD0140
:1034700004C0440F551F661F771F1A95D2F780911D
:10348000220390912303A0912403B09125038A0184
:103490009B01082719272A273B27C901B80121C00A
:1034A00025E02A1508F45DC0DCCFDD2029F0812F4E
:1034B0008F7130C0DD20D9F3812F8F710E94171FCB
:1034C00050C0DD2089F01F7181E090E0A0E0B0E005
:1034D000BC01CD0104C0660F771F881F991F1A9584
:1034E000D2F70E940D1F3DC060E070E0CB01F9CF24
:1034F000DD2099F01F71812F0E94591F8091D60104
:1035000082FD07C038E0139FC001112483608093BF
:103510009502812F0E94591F24C081E00E943C1F08
:1035200081E08A15F0F482E00E943C1F1AC0DD2081
:1035300039F0AA2009F4BBCF802F0E94FF2C11C0C4
:10354000AA2009F4B9CF893349F49FEFE7EEF3E0FD
:103550009150E040F040E1F700C00000802F0E9451
:10356000982C88EF8B0D843010F40E94FE25CC201F
:1035700009F4EFC08091950280FDEBC0F701128243
:103580008595859585950E94591FC7010E94421512
:10359000809195028595859585950E94171FD9C0C4
:1035A00001319FE5190709F063CB82E041CB69E265
:1035B000FACC043C2CE5120709F491C0053C1C45EB
:1035C00009F047CD4AE757E063E877E0A5C0093C3A
:1035D0009CE5190709F492C070F4073CFCE51F074D
:1035E00009F487C0083C1C4509F033CD4EE657E08E
:1035F00062E677E091C00A3C3CE5130709F483C01A
:103600000B3C1C4509F025CD4FEB55E060ED75E016
:1036100083C0013DECE51E0709F48AC098F40E3C16
:103620002CE5120709F47EC008F479C00F3C8CE544
:10363000180709F47AC0003D1C4509F00ACD6EE078
:1036400089E084C0043DECE51E0709F477C060F40E
:10365000023D2CE5120709F46EC0033D1C4509F03C
:10366000F8CC61E088E16FC0053D8CE5180709F4EE
:1036700068C00D351D4509F0ECCC6AE285E266C0F4
:103680008091120280FF20C08E7F80931202609191
:1036900012027091130280911402909115020E94FF
:1036A000AD050E946D278091F40181608093F40143
:1036B000EFEFF0E702E0E150F0400040E1F700C03A
:1036C00000000E943305B8CA81608093120261E055
:1036D000869539C047E95EE060EA7EE01DC040EAB9
:1036E0005EE067E97EE018C043E857E06AE777E00C
:1036F00013C042E657E06EE677E00EC04AE457E0BA
:1037000066E577E009C046E557E06AE477E004C083
:1037100040ED55E06FEB75E00E9467278DCA61E0D0
:1037200081E011C065E082E011C068E086E00EC073
:1037300064E18FE00BC067E185E108C062E289E1E6
:1037400005C061E083E20E94220E76CA0E945527DE
:1037500073CA29960FB6F894DEBF0FBECDBFDF91B6
:10376000CF911F910F91FF90EF90DF90CF90BF907E
:10377000AF909F907F906F905F904F900895809151
:103780000D03089580E0089520916702909136021C
:1037900056E02917A9F030E0529FF001539FF00D39
:1037A0001124E95CFD4F7181761306C07081781396
:1037B00003C07281741306C02F5F3F4F2770E9CF9B
:1037C00080E0089581E00895CF93DF9300D01F92A9
:1037D000CDB7DEB790911803943011F589837B83C0
:1037E0006A839093E9008FEF9091E800815095FDF6
:1037F00006C095ED9A95F1F700008111F5CF809103
:10380000E80085FF0DC040E050E063E070E0CE01CD
:1038100001960E94572C8091E8008E778093E800F3
:103820000F900F900F90DF91CF910895BC0184E02D
:103830000C94E41BBC0183E00C94E41B24E0209373
:10384000E9002FEF3091E800215035FD06C035ED3D
:103850003A95F1F700002111F5CF2091E80025FFFE
:103860000BC040E050E066E070E00E94572C809171
:10387000E8008E778093E8000895CF93DF9321E0EE
:103880002093E9002FEF3091E800215035FD06C06C
:1038900035ED3A95F1F700002111F5CF2091E800C0
:1038A00025FF14C0EC0140E050E068E070E00E94A9
:1038B000572C8091E8008E778093E80088E0FE0125
:1038C000AEE0B3E001900D928A95E1F7DF91CF91E0
:1038D000089587E797E790930108809300089AE09E
:1038E00088E10FB6F894A895809360000FBE90937E
:1038F0006000FFCF78941F920F920FB60F921124A1
:103900008F939F93AF93BF9380919E0290919F025C
:10391000A091A002B091A1020196A11DB11D8093BA
:103920009E0290939F02A093A002B093A102BF9128
:10393000AF919F918F910F900FBE0F901F90189590
:103940009C014FB7F89480919E0290919F02A091A4
:10395000A002B091A1024FBF821B930B08952FB715
:10396000F89460919E0270919F028091A0029091C4
:10397000A1022FBF08950F931F930E948E0A8823E0
:1039800021F01F910F910C94AF1C0E94AF1C00916D
:10399000D1011091D2012091D3013091D401600F57
:1039A000711F821F931F1F910F910895CF92DF9275
:1039B000EF92FF926B017C010E948E0A81110EC072
:1039C0000E94AF1CC61AD70AE80AF90AC092D101B0
:1039D000D092D201E092D301F092D401FF90EF9007
:1039E000DF90CF9008952FB7F89480919E02909128
:1039F0009F02A091A002B091A1022FBF08950E9442
:103A00008E0A81110C94F31C0E94BB1CCB010895FB
:103A10001F920F920FB60F9211248F939F93AF9323
:103A2000BF938091E801811113C080919E02909113
:103A30009F02A091A002B091A1024196A11DB11DCB
:103A400080939E0290939F02A093A002B093A10244
:103A5000BF91AF919F918F910F900FBE0F901F90CC
:103A600018959C012A5F3F4FFC014281461301C01B
:103A70001282019682179307B9F708959C01FC0101
:103A800032969FEF80E04191461789F09F3F19F4ED
:103A9000411101C0982F8F5F8630A9F79F3F39F001
:103AA000F901E90FF11D97FDFA95628308950895D4
:103AB000CF9384E090E00E949531C82F82E290E09D
:103AC0000E9495312C2F30E0A901582BCA01CF91CB
:103AD00008956AEE7EEF80E090E00E94C73160E0DA
:103AE00082E090E00E94A93160E083E090E00E94D3
:103AF000A93110929A0210929B0210929C0210928D
:103B00009D0260E084E090E00E94A93160E082E2E2
:103B100090E00E94A93160E085E090E00E94A93128
:103B200060E086E090E00E94A9316FEF87E090E0CE
:103B30000E94A93140E050E0BA0188E090E00E9484
:103B4000BB3160E08DE090E00E94A93140E050E0A0
:103B5000BA0188E190E00E94BB3160E087E190E02B
:103B60000E94A93140E050E0BA018CE190E00E944F
:103B7000BB3160E070E080E290E00E94C73140E03D
:103B800050E0BA0188E190E00E94BB3140E050E093
:103B9000BA018FE090E00E94BB3140E050E0BA01F2
:103BA00083E190E00C94BB318091990281111092D5
:103BB000990208959091980280919702892B209103
:103BC0009602982F922B9093270280919902882336
:103BD00089F0892B80932702E9E2F2E097E080E008
:103BE000915029F021912223D9F38F5FF9CF8111D0
:103BF0000E94D41DE091E601F091E701309731F089
:103C00000280F381E02D87E292E00994089580E03C
:103C100090E00E94E82580E090E00E94D22510927A
:103C20009702109296020E94DA1DECEFF1E086E016
:103C3000DF011D928A95E9F71092F9011092F501C2
:103C400010922F020C948C07CF93C091D601C2FB27
:103C5000992790F9981781F080FBC2F9C093D6019B
:103C60006091D50184E090E00E94A9316C2F82E23E
:103C700090E0CF910C94A931CF910895BF92CF924B
:103C8000DF92EF92FF920F931F93CF93DF938C01FC
:103C9000C0902203D0902303E0902403F0902503EA
:103CA00080919A0290919B02A0919C02B0919D02FA
:103CB000C82AD92AEA2AFB2ACFE1D0E0D701C601D7
:103CC0000C2E04C0B695A795979587950A94D2F7C0
:103CD00080FD04C0219790F7B12C07C0BC2EB8011D
:103CE0008C2F0E94C90B0197A9F38B2DDF91CF91E7
:103CF0001F910F91FF90EF90DF90CF90BF900895AC
:103D0000CF93DF93EC010E943E1EBE010E94C90BBF
:103D1000DF91CF9108950E94801E292F2F70E92FE7
:103D2000E295EF704E2F50E0FA013297EE30F10538
:103D3000B8F4EE59FF4F0C948232803F99F018F49A
:103D4000883E70F40FC0843F59F40CC0883E50F098
:103D5000813F31F407C0822F869586958695089518
:103D600080E0089581E00895292F220F920F990F86
:103D7000890F682F669566956695982F977085E0F0
:103D8000689FB001112440E050E080E0FB01E40FA7
:103D9000F51FE859FD4F208130E0092E02C036950D
:103DA00027950A94E2F721703327042E01C0220FD1
:103DB0000A94EAF7822B4F5F5F4F4530510531F788
:103DC0000895292F220F920F990F890FE82FE6955A
:103DD000E695E695877051E001C0550F8A95EAF7A0
:103DE00085E0E89FF0011124E859FD4F20E030E024
:103DF00070E04081CB01022E02C0969587950A940F
:103E0000E2F78170819584278523842781932F5F32
:103E10003F4F2530310569F7089560932203709371
:103E2000230380932403909325030C94071E0F9380
:103E30001F9341E050E060E070E004C0440F551F64
:103E4000661F771F8A95D2F74095509560957095BB
:103E50008091220390912303A0912403B091250324
:103E60008A019B01082319232A233B23C901B80196
:103E70001F910F910C940D1F209195028095822324
:103E800080939502982F977041F430E0482F082EC8
:103E9000000C550B2417350721F49091D60192FFA1
:103EA00007C08595859585950E94171F10929502EC
:103EB00008950F931F9341E050E060E070E004C06C
:103EC000440F551F661F771F8A95D2F780912203F2
:103ED00090912303A0912403B09125038A019B01B3
:103EE000082B192B2A2B3B2BC901B8011F910F91CD
:103EF0000C940D1F60939A0270939B0280939C0216
:103F000090939D020C94071E809167029091360257
:103F1000891719F08F5F8770FBCF08950F931F9358
:103F2000CF93DF938091350282958F7009F05DC049
:103F300080913202882309F458C080916702109161
:103F400036026091300270913102C0913302D091FB
:103F5000340291E06F3F09F090E0292F06E08117CD
:103F600009F443C0209721F07F3F21F030E003C0E7
:103F700031E001C0322F90E030FD34C0089FF001E5
:103F8000099FF00D1124DF01A95CBD4F11963C91F2
:103F90001197371327C03C91361324C012963C91D9
:103FA000129731111FC013964D915C9114974C1BC1
:103FB0005D0B483C5105B0F4809135028F708061F3
:103FC00080933502E45CFD4F80818F708061808337
:103FD00080E392E00E944215DF91CF911F910F91F3
:103FE0000C94841F01968770BACFDF91CF911F91F7
:103FF0000F9108958F929F92AF92BF92CF92DF92CE
:10400000EF92FF920F931F93CF93DF93CDB7DEB75D
:1040100061970FB6F894DEBF0FBECDBF8C0185E06F
:10402000F801DE011D9601900D928A95E1F7D80105
:10403000DC901196EC9011971296CC9090913002F2
:1040400020913102409133025091340241155105C3
:1040500031F02F3F31F481E09F3F19F403C081E03C
:1040600001C080E080FD58C1F801A380B48080E3E6
:10407000882E82E0982EF0903202B501641B750BF9
:10408000FF2009F403C180913502382F307F683C4E
:10409000710508F0CDC0311188C02E1112C09D11DC
:1040A00010C0FC2CC1100DC08F7080618093350250
:1040B000C4010E94421580913502D80115968C9357
:1040C00048C1A114B10439F0BFEFEB1206C081E082
:1040D000DB1203C003C081E001C080E080FD03C0AB
:1040E00081E08C2502C080E090E080FF10C04C2D64
:1040F0006E2D8D2D0E94C41B882349F080E392E031
:104100000E944215E0E3F2E086E0DF0199C0AB28AF
:1041100039F0BFEFEB1206C081E0DB1203C003C031
:1041200081E001C080E080FD03C081E08C2502C0F9
:1041300080E090E0E82FE170BE2E80FF2CC04C2D77
:104140006E2D8D2D0E94C41BF82E811124C0DD869A
:10415000EE868D859E850E94801E292F22952F70C8
:10416000223018F0243090F405C09F7059F081116E
:1041700009C0EFC09F7031F0D80115969C91907FD7
:1041800009F4E7C0805E883008F4E3C0C8010E94EB
:104190004215FB2CDEC0FC2CCC2009F4DAC0809147
:1041A00035028160809335024EC02E1106C09D11EC
:1041B00004C0C11002C0F8018BC0DD86EE868D857B
:1041C0009E850E948B1E882369F1CC2059F1209195
:1041D0003502822F82958F7090E0029774F0809163
:1041E00030029091310298878F831986BB86AA8608
:1041F0002C87CE0107960E94421586E0F801A0E3C5
:10420000B2E001900D928A95E1F70E948E1F0DC0D9
:104210002E15D9F0DD86EE868D859E850E948B1E3B
:1042200081111DC0C8010E944215FF24F39491C062
:104230003111EECF80E392E00E94421586E0D40176
:104240001D928A95E9F7F12C84C09D11E3CFC1102E
:10425000E1CFF8018583C8010E94421557C0CC20E8
:1042600009F320913502822F82958F7090E002979A
:1042700024F280913002909131029A8389831B82CB
:10428000BD82AC822E83CE010196B5CF683C71050C
:10429000E8F5FC2CCC2031F22E1127C09D1125C051
:1042A0002091350220FD18C0822F82958F70482FF3
:1042B00050E04115510581F0F80125834F3051053B
:1042C00041F08F5F982F9295907F822F8F70892B6E
:1042D0008583C8010E94421586E0F801A0E3B2E0A0
:1042E00001900D928A95E1F734C0DD86EE868D85CA
:1042F0009E850E948B1E811180CF80913502816046
:1043000080933502C8010E94421523C086E0D40183
:104310001D928A95E9F71DC0CC2009F483CFDD8674
:10432000EE868D859E850E948B1EF82E882309F4CB
:1043300079CF86E0F801A0E3B2E001900D928A9572
:10434000E1F780913002909131020E94801E0E941C
:104350008E1F8F2D61960FB6F894DEBF0FBECDBFB6
:10436000DF91CF911F910F91FF90EF90DF90CF9051
:10437000BF90AF909F908F9008951092980286E022
:10438000E9E2F2E0DF011D928A95E9F70C94071E3D
:1043900008957F928F929F92AF92BF92CF92DF92B9
:1043A000EF92FF920F931F93CF93DF93FC018280D4
:1043B000748081E08483E6E1F4E09490E5E9F4E040
:1043C000E491A12CF5E0BF2ECC24CA94D12CE9199C
:1043D0000E2F10E080910801A81608F0A2C0EA2C68
:1043E000F12C22E0281568F0BE9CF001BF9CF00D76
:1043F0001124E753FD4F80911302808380911402B2
:10440000818371100AC0BE9CF001BF9CF00D112485
:10441000E753FD4F138212826AC0BE9CE001BF9C2D
:10442000D00D1124C753DD4F8B818823F9F08150C3
:104430008B832FEF829FC00111246C8170E00E945A
:104440005A32FB01FF27EA5EFB4F8491E82FE919FE
:104450002FEFE29FC0011124B8010E945A328091CF
:104460001502689FB00111247A8341C00E947C31FB
:10447000209115022695215830E0A901440F551FBF
:10448000322F2227240F351F232F3327821793071C
:1044900074F582E0881588F40E947C31B6010E9490
:1044A0006E3288830E947C31209114022695622FFF
:1044B00070E00E946E32280F2983BE9CF001BF9CE1
:1044C000F00D1124E753FD4F1282809115028431C3
:1044D00020F0893C18F088EC01C084E1BE9CF0011A
:1044E000BF9CF00D1124E753FD4F8483838380919B
:1044F00006019701280F311DC901880F991F280F48
:10450000391F2B553D4FBE9CF001BF9CF00D11246F
:10451000E753FD4F4281618180810E94F805A39499
:1045200059CFDF91CF911F910F91FF90EF90DF90C6
:10453000CF90BF90AF909F908F907F900C94330559
:104540000F931F93CF93DF93EC0100E010E0809175
:104550000801282F30E00217130724F59091060177
:104560009801290F311DA901440F551F240F351F34
:104570002B553D4F869590E04C81081719071CF488
:10458000442331F002C0411103C04091150201C023
:1045900040E060911402809113020E94F8050F5FC1
:1045A0001F4FD5CF0E9433058C8190E0019681701A
:1045B00099278C83DF91CF911F910F9108958F924E
:1045C0009F92AF92BF92CF92DF92EF92FF920F93A2
:1045D0001F93CF93DF938C01FC014481C42FD0E063
:1045E0009E01DE010E9431329B01AC010E94FC3130
:1045F0006B017C01E0E2F0E0EC1BFD0BA5E5B0E017
:104600009B01AC010E94FC314B015C019F01DF0169
:104610000E948F329B01AC010E9407329B01AC01CA
:104620002C0D3D1D4E1D5F1DC501B4010E940F32B2
:10463000C22FD22F2A3228F4F3E02F9F90011124A9
:104640000DC025E530E02C1B3109C901880F991FE9
:10465000280F391F37FF02C02F5F3F4F3595279531
:10466000C22FC095F12C85E5E82EED1A8091080146
:10467000F816C8F4F1FC02C08E2D01C08D2F909168
:1046800006012F2D30E0290F311DA901440F551FC0
:10469000240F351F2B553D4F4C2F609114020E9463
:1046A000F805F394E3CF0E943305F801848181116A
:1046B00002C091E003C0803219F49FEF909324016F
:1046C00090912401890FF8018483DF91CF911F918C
:1046D0000F91FF90EF90DF90CF90BF90AF909F90A1
:1046E0008F9008951F93CF93DF93EC018C818111FC
:1046F00009C081E08C831092A30292E09093230181
:10470000809322018091060190910701891770F42E
:10471000E82FF0E09F01220F331FE20FF31FEB554C
:10472000FD4F1182108212828F5FF0CF10E06091F6
:1047300008011617C0F5E12FF0E070E0CF010E94EC
:104740006E3220910601820F2091A302022E000CEE
:10475000330B90E0E217F307CCF020912301022EF7
:10476000000C330B2E173F078CF09C01220F331FD8
:10477000820F931F9C012B553D4F40911502609174
:104780001402809113020E94F8050BC0FC01EE0F89
:10479000FF1F8E0F9F1FFC01EB55FD4F11821082F2
:1047A00012821F5FC4CF0E943305809122012091A5
:1047B000A302280F2093A30290912301980F9093B6
:1047C000230119165CF4022E000C330B40910801F2
:1047D00050E0415051092417350734F081958093FA
:1047E0002201813009F41C82DF91CF911F9108953D
:1047F0008F929F92AF92BF92CF92DF92EF92FF92F1
:104800000F931F93CF93DF93EC018A8180FF03C046
:10481000BB24BA9402C0BB24B3948C8181110DC017
:1048200081E0B81206C08091080181508093A202F5
:1048300002C01092A20281E08C83A12C4CE0942E45
:1048400080910801A81608F044C080910601CA2C86
:10485000D12C8601080F111DC801880F991F080F60
:10486000191F0B551D4FF80111821082128234E07E
:10487000E32EF12C812C8091A202880D8D302CF03A
:10488000692D0E944C32892F05C087FF03C090918B
:104890000801890F082E000C990BC816D90691F44F
:1048A000809115028E9DA0018F9D500D112455956C
:1048B0004795559547959801609114028091130290
:1048C0000E94F8058B0CF1E0EF1AF108A1F6A39411
:1048D000B7CF0E9433058091A20291E0B9120EC0B9
:1048E000811107C08091080181508093A2021C822F
:1048F0000FC081508093A202BC820AC090E0019652
:104900006091080170E00E946E328093A2028C8355
:10491000DF91CF911F910F91FF90EF90DF90CF909B
:10492000BF90AF909F908F900895FF920F931F9329
:10493000CF93DF93EC01F12C0FEF10E060910801B1
:10494000F616F0F4809106012F2D30E0280F311D6E
:10495000C901880F991F280F391F2B553D4F70E053
:10496000C8010E946E32962F8C8140911502609191
:104970001402F99E800D11240E94F805F394DECFF5
:104980000E9433059A818C8190FF02C08F5F01C025
:1049900081508C83DF91CF911F910F91FF900895EB
:1049A0000F931F93CF93DF9300D01F92CDB7DEB745
:1049B0008C018091A40281110AC09E012F5F3F4F9C
:1049C0004FEF6FEF0E94F8058A818093A402F801EF
:1049D0008481813051F028F0823061F44091A4024A
:1049E0000AC08091A40240E007C06091A40240E0A8
:1049F00080E003C040E080E060E00E947F05F801B5
:104A0000848190E0019663E070E00E946E328483BE
:104A10000F900F900F90DF91CF911F910F910895FC
:104A2000CF93DF93EC01E2E1F2E0438162818C817C
:104A30000E948E068C818F5F8C83DF91CF910895C9
:104A4000CF93DF93EC01EC81F0E0EA5EFB4F449101
:104A5000E2E1F2E0628181810E948E068C818F5FAB
:104A60008C83DF91CF9108951F93CF93DF93CDB7C0
:104A7000DEB767970FB6F894DEBF0FBECDBF342FF9
:104A80004B8B252F5C8B6D8B7E8B8F8B4E895F893B
:104A900061111092970286E0FE013D96DF01982F8A
:104AA0001D929A95E9F73D872E876F87598B488B22
:104AB000DE01179601900D928A95E1F7CE010796D7
:104AC0000E94FA1F81113EC086E0FE013796DE018A
:104AD000119601900D928A95E1F7FF81E8856A852C
:104AE0007B856115710531F0EF3F31F481E0FF3FC7
:104AF00019F403C081E001C080E080FD23C0209153
:104B0000360230E0C901019687709927409167020B
:104B100050E08417950779F1F983EA837D836C83EC
:104B200096E0929FD001939FB00D1124A95CBD4FD8
:104B3000FE01319601900D929A95E1F7809336022D
:104B40000E94841F16E080916702909136028917B7
:104B5000F9F0189FC0011124895C9D4F0E94FA1F33
:104B60008823B1F08091670290E0019687709927C1
:104B700080936702E8CF0E94BD2110923602109206
:104B80006702E0E3F2E086E0DF011D928A95E9F733
:104B900067960FB6F894DEBF0FBECDBFDF91CF9101
:104BA0001F9108952091090330910A0328173907AE
:104BB00071F090930A0380930903E091E601F0916C
:104BC000E701309721F00084F185E02D09940895E4
:104BD00020910703309108032817390771F090934B
:104BE000080380930703E091E601F091E701309715
:104BF00021F00680F781E02D09940895E091E60107
:104C0000F091E701309721F00190F081E02D0994B7
:104C100080E008950F931F93CF93DF93C42FD22F7B
:104C2000FC0182818823C9F0409325020E94F31C75
:104C3000909306038093050380E28C0F883008F080
:104C400057C0C77081E001C0880FCA95EAF7DF91AD
:104C5000CF911F910F910C948E2C809125024813B7
:104C600030C080910503909106030E94A01C883CEF
:104C7000910538F510E21D0FCD17B9F080E28C0FC9
:104C8000883040F4C77081E001C0880FCA95EAF708
:104C90000E94832C183028F581E09D2F977001C069
:104CA000880F9A95EAF70E948E2C802F0E94262E5C
:104CB0001830F0F4D77081E001C0880FDA95EAF778
:104CC0000AC080E28C0F883098F4C77081E001C080
:104CD000880FCA95EAF7DF91CF911F910F910C943D
:104CE000832C802FDF91CF911F910F910C94262E52
:104CF000DF91CF911F910F910895CF93DF93C7E676
:104D0000D2E060E0CE010E94A9312196C11584E075
:104D1000D807B9F7DF91CF9108950F931F93CF93E1
:104D2000DF93843058F56C3048F5463038F521155E
:104D30009CE5390731F4E0910B01F0910C01EF2B68
:104D4000E9F08901C42FD0E0CC0FDD1F9CE0699F02
:104D5000C00DD11D112490E9899FC00DD11D1124D2
:104D6000612FCE0187960E94A931602FCE018896CF
:104D7000DF91CF911F910F910C94A931DF91CF91C9
:104D80001F910F9108958F929F92AF92BF92CF92F1
:104D9000DF92EF92FF920F931F93CF93DF93C09018
:104DA0000B01D0900C0181E090E090930C01809376
:104DB0000B01812CE12CF12C912C00E010E0C0E0E3
:104DC000D0E05701A00EB11EFE01EE0FFF1FEA0D4D
:104DD000FB1DEA5EFA4F259134914C2F692D882DE9
:104DE0000E948D262196C630D10571F7045F1F4FB2
:104DF00093948CE09812E3CF80E9E80EF11C839441
:104E000084E08812D9CFD0920C01C0920B01DF91BF
:104E1000CF911F910F91FF90EF90DF90CF90BF90B7
:104E2000AF909F908F9008950F931F93CF93DF9330
:104E3000843008F56C30F8F44630E8F4C42FD0E044
:104E4000CC0FDD1F2CE0629FC00DD11D112430E975
:104E5000839FC00DD11D1124CE0187960E949531EC
:104E600090E0182F0027CE0188960E949531980176
:104E7000282BC90102C080E090E0DF91CF911F9103
:104E80000F910895462F2091230230912402232B65
:104E900049F4843038F47C3028F4663018F4672FF5
:104EA0000C94142780E090E008959091120290FFF6
:104EB00004C09695981740F003C0811105C090E09A
:104EC000961710F40C94A00E61E00C94220E882327
:104ED00011F0FA0101C0FB010994E2EFF1E0118247
:104EE000828184608283089560911202669570E0E9
:104EF0004BE050E087E191E00E949E32892B19F44B
:104F000081E08093F3010E94FF1C9093ED01809358
:104F1000EC018091F40184608093F40108950F9373
:104F20001F938091220390912303A0912403B091B9
:104F300025038C019D010670112722273327BC0110
:104F4000CD01063011052105310511F4686001C05D
:104F5000677F1F910F910C940D1F1F93CF93DF93C9
:104F6000CDB7DEB7AA970FB6F894DEBF0FBECDBFA0
:104F7000EAE1F3E08091F100819343E0E232F4074B
:104F8000C9F780911B03833009F462C030F481308B
:104F900071F0823009F49CC0B3C08A3009F488C033
:104FA0008B3009F46DC0893009F0AAC020C080910F
:104FB0001A03813A09F0A4C08091E800877F8093AA
:104FC000E80080911E0390911F03892B21F468E073
:104FD0008EE093E003C060E080E090E070E00E942B
:104FE000982E8091E8008B778093E80089C08091AB
:104FF0001A03813209F084C080911E0390911F032F
:10500000009719F0029709F07BC08091E800877F34
:105010008093E8008091E80082FD05C0809118032C
:105020008111F8CF6DC02091F3008091F20090E0E3
:10503000922B029729F48091F1008B7F813021F42B
:105040008091F10080930D038091E8008B7754C02C
:1050500080911A03813A09F053C080911E03909108
:105060001F03892B09F04CC08091E800877F809353
:10507000E8008091E80080FFFCCF8091250137C0D7
:1050800080911A038132E1F580911E0390911F03F4
:10509000892BB1F58091E800877F8093E8000E941A
:1050A000442E80911C03809325010E94BD2128C0BD
:1050B00080911A03813221F58091E800877F8093E7
:1050C000E8000E94442E80911D0380930C0318C0B9
:1050D00080911A03813AA1F48091E800877F809340
:1050E000E8008091E80080FFFCCF80910C03809362
:1050F000F1008091E8008E778093E8000E94442EB2
:105100008091E80083FFE9C180911A0390911B030D
:10511000492F50E04A30510508F0DFC1FA01E0594B
:10512000FF4F0C948232803821F0823809F0D5C1CB
:1051300008C08091160390911703992389F082602B
:105140000FC080911E038F70873008F0C6C1809316
:10515000E9008091EB0085FB882780F91092E90037
:105160009091E800977F9093E8008093F10010926F
:10517000F1007CC1282F2D7F09F0AFC1882319F0E1
:10518000823061F0AAC180911C03813009F0A5C171
:10519000933009F080E0809317032EC080911C03A8
:1051A00081112AC080911E038F702FEF280F2630A7
:1051B00008F093C18093E9002091EB0020FF1CC010
:1051C000933021F48091EB00806214C09091EB0049
:1051D00090619093EB0021E030E0A90102C0440F00
:1051E000551F8A95E2F74093EA001092EA008091F9
:1051F000EB0088608093EB001092E9008091E8005A
:10520000877F8093E8000E94442E67C1811165C1A9
:1052100010911C031F778091E3008078812B80938D
:10522000E3008091E800877F8093E8000E94442E8D
:105230008091E80080FFFCCF8091E300806880933C
:10524000E300111102C082E001C083E080931803E3
:1052500044C18058823008F040C120911C03309135
:105260001D032C3D53E0350779F583E08A838AE2FC
:1052700089834FB7F894DE01139620E03EE051E2B7
:10528000E32FF0E050935700E49120FF03C0E29534
:10529000EF703F5FEF708E2F90E0EA3010F0C7960E
:1052A00001C0C0968D939D932F5F243149F74FBF66
:1052B0008091E800877F8093E8006AE270E0CE0189
:1052C00001960E94982EC0C080911E0390911F03EA
:1052D000432F552743305105B1F068F44130510553
:1052E00009F40AC14230510509F0F7C08BE590E09E
:1052F000E9E3F8E057C04132510589F142325105E6
:1053000009F43CC0EAC0C901992781309105B9F080
:1053100070F082309105D9F0039709F0DEC0E6EA1B
:10532000F8E0E4918E2F90E0E6EAF8E038C0EAEE8B
:10533000F8E0E4918E2F90E0EAEEF8E030C0E4ED82
:10534000F8E0E4918E2F90E0E4EDF8E028C0E4EC82
:10535000F8E0E4918E2F90E0E4ECF8E020C0833098
:10536000910508F0BAC0880F991FFC01E857FE4F5D
:105370000190F081E02D89E090E014C08330910528
:1053800008F0ABC0FC01EE0FFF1FEE57FE4F01907F
:10539000F081E02DDC01A158BE4F8C9190E0009788
:1053A00009F49BC02091E800277F2093E80020911A
:1053B0002003309121032817390708F4C90140E080
:1053C000009789F120911803222309F43DC025306C
:1053D000D9F12091E80023FD37C02091E80022FD9B
:1053E0002FC02091E80020FFEBCF4091F3002091E7
:1053F000F20030E0342B009759F02830310540F4AA
:1054000044914093F100319601972F5F3F4FF3CFC6
:1054100041E02830310509F040E02091E8002E7786
:105420002093E800CDCF4111CDCF0AC08091180361
:10543000882351F0853041F08091E80083FD04C05D
:105440008091E80082FFF2CF8091E8008B77809313
:10545000E80043C0803809F040C08091E800877FB1
:105460008093E800809119038093F1008091E80017
:105470008E77C7CE811131C080911C0390911D039E
:105480009927029754F58091E800877F8093E80080
:1054900010911C03109319030E94442E111106C091
:1054A0008091E30087FD02C081E001C084E0809329
:1054B000180342E061EC81E00E94632E42E261EC5D
:1054C00084E00E94632E42E261EC82E00E94632E3F
:1054D00042E260EC83E00E94632E8091E80083FF4B
:1054E00010C08091E800877F8093E8008091EB00F6
:1054F00080628093EB0005C082E190E0E4E9F8E08F
:1055000051CFAA960FB6F894DEBF0FBECDBFDF9184
:10551000CF911F9108951F920F920FB60F921124F1
:105520002F933F934F935F936F937F938F939F93AB
:10553000AF93BF93CF93DF93EF93FF93C091E900B5
:10554000CF708091EC00D82FD17080FDD0E8109200
:10555000E9008091F000877F8093F00078940E94AA
:10556000AD271092E9008091F00088608093F000F0
:10557000CD2BCF70C093E900FF91EF91DF91CF91D8
:10558000BF91AF919F918F917F916F915F914F915B
:105590003F912F910F900FBE0F901F901895E8ED3F
:1055A000F0E080818E7F80831092E2001092DA001A
:1055B0001092E100A0EEB0E08C9181608C9380812C
:1055C0008F77808319BCA7EDB0E08C918E7F8C9390
:1055D00080818F7E808310920B030895CF92DF929B
:1055E000EF92FF920F931F93CF93DF93C8EDD0E01C
:1055F00088818F7E8883E7EDF0E080818160808301
:1056000084E082BF81E080930B0388818E7F888352
:1056100002EE10E0F80110821092DA0081EEC82E3E
:10562000D12CF601108288818F77888388818068E9
:10563000888388818F7D888319BC1092180310920B
:105640001903109217031092160390EEE92EF12C15
:10565000F70180818B7F808388818160888342E02D
:1056600060E080E00E94632EF60180818E7F80835F
:10567000F801808181608083808188608083F70168
:1056800080818E7F8083888180618883DF91CF9144
:105690001F910F91FF90EF90DF90CF9008951F9290
:1056A0000F920FB60F9211242F933F934F935F9356
:1056B0006F937F938F939F93AF93BF93EF93FF93DA
:1056C0008091E10082FF09C08091E20082FF05C065
:1056D0008091E1008B7F8093E1008091DA0080FF70
:1056E0002AC08091D80080FF26C08091DA008E7F8A
:1056F0008093DA008091D90080FF18C080E189BDD5
:1057000082E189BD09B400FEFDCF81E080931803DA
:1057100080910B0381110FC00E94CF2A0E94EE2AB4
:105720008091E20084608093E20005C019BC109271
:10573000180310920B038091E10080FF17C0809145
:10574000E20080FF13C08091E2008E7F8093E20030
:105750008091E20080618093E2008091D8008062B5
:105760008093D80019BC85E0809318038091E100F4
:1057700084FF2EC08091E20084FF2AC080E189BDB1
:1057800082E189BD09B400FEFDCF8091D8008F7DF4
:105790008093D8008091E1008F7E8093E10080911A
:1057A000E2008F7E8093E2008091E200816080932E
:1057B000E20080911903882311F084E007C08091F2
:1057C000E30087FD02C081E001C083E080931803FD
:1057D0008091E10083FF27C08091E20083FF23C016
:1057E0008091E100877F8093E10082E0809318033D
:1057F000109219038091E1008E7F8093E1008091E7
:10580000E2008E7F8093E2008091E20080618093CD
:10581000E20042E060E080E00E94632E8091F000B0
:1058200088608093F000FF91EF91BF91AF919F91BD
:105830008F917F916F915F914F913F912F910F9039
:105840000FBE0F901F9018952091E4003091E50055
:1058500095E64091EC00842F817040FF23C0809139
:10586000E80080FD1DC080911803882399F08530E1
:1058700099F08091EB0085FD11C04091E4005091BA
:10588000E5002417350729F3915011F09A01E1CF73
:1058900084E0089582E0089583E0089581E008950A
:1058A00080E008954091E80042FFDDCF0895EF9237
:1058B000FF920F931F93CF93DF937C018B010E9484
:1058C000242C811119C0E70101151105A1F0809167
:1058D000E80085FD0AC08091E8008E778093E8009B
:1058E0000E94242C882381F307C089918093F100C2
:1058F00001501109E9CF80E0DF91CF911F910F9105
:10590000FF90EF900895882341F080959091980240
:105910008923809398020C94DA1D0895882339F026
:1059200090919802892B809398020C94DA1D089527
:10593000882309F463C0823869F40E94FE2581FF40
:105940005DC069E387E292E00E943E1D0E94DA1D7D
:1059500069E30EC0833891F40E94FE2580FF4EC09B
:1059600063E587E292E00E943E1D0E94DA1D63E536
:1059700087E292E00E94311D0C94DA1D843869F4AC
:105980000E94FE2582FF3AC067E487E292E00E940F
:105990003E1D0E94DA1D67E4EBCF9CEF980F913A11
:1059A00010F4682FE5CF90E2980F983088F4877054
:1059B00021E030E0A90102C0440F551F8A95E2F7AB
:1059C000CA01809590919802892380939802D4CF40
:1059D0009BE5980F933020F480E090E00C94E8254C
:1059E00098E5980F973120F480E090E00C94D22550
:1059F000803F20F00E94B6070C948C070895CF9347
:105A0000882309F421C1C82F8238B1F40E94FE25F1
:105A100081FD1AC169E387E292E00E943E1D0E9467
:105A2000DA1D2FEF81EE94E0215080409040E1F7A5
:105A300000C0000069E317C08338E1F40E94FE252E
:105A400080FD02C163E587E292E00E943E1D0E9454
:105A5000DA1D2FEF81EE94E0215080409040E1F775
:105A600000C0000063E587E292E00E94311DCF9103
:105A70000C94DA1D8438B1F40E94FE2582FDE4C046
:105A800067E487E292E00E943E1D0E94DA1D2FEF3C
:105A900081EE94E0215080409040E1F700C000008A
:105AA00067E4E1CF8CEF8C0F813A08F080C08091E1
:105AB0002703813069F018F0823021F170C08091A5
:105AC0009802823209F0A8C08C2F0E94EB096CC0AA
:105AD000809198028232C1F3C43189F050F4CB3006
