:100000000C9480040C94EC300C94C7040C94C7043A
:100010000C94C7040C94C7040C94C7040C94C70434
:100020000C94C7040C94C7040C94F82B0C94342B38
:100030000C94B11D0C94C7040C94C7040C94C70411
:100040000C94C7040C94C7040C94C7040C94C70404
:100050000C94C7040C94231D0C94C7040C94C7047F
:100060000C94C7040C94C7040C94C7040C94C704E4
:100070000C94C7040C94C7040C94C7040C94C704D4
:100080000C94C7040C94C7040C94C7040C94C704C4
:100090000C94C7040C94C7040C94C7040C94C704B4
:1000A0000C94C7040C94C7040C94C704ED140515F4
:1000B0000C15AB15AB15441554156715A415181977
:1000C000181952195219AB19C7195A1B5A1BD419AE
:1000D000B11ABE1ABE1A461F461F591F591F4F1F7D
:1000E000591F591F591F461F461F541F591F591F7B
:1000F000541F3C296329162B6329162BAF29D229BB
:10010000162BD32AE32A00000000000000000000A4
:1001100000000000000000000000000000000000DF
:10012000000000000000000000007E0F00D4FFFF70
:10013000FFC70000007800000000000000002A2B2C
:100140002800000000000000000000000000000087
:100150000029000000002C1E3420212224342627F0
:10016000252E362D3738271E1F2021222324252611
:100170003333362E37381F0405060708090A0B0CDF
:100180000D0E0F101112131415161718191A1B1C27
:100190001D2F3130232D350405060708090A0B0CE5
:1001A0000D0E0F101112131415161718191A1B1C07
:1001B0001D2F3130354C0001010101010101010108
:1001C0000202020202020202020303030303030308
:1001D00003040404040404040505050505060606D5
:1001E0000606070707070708080808090909090A92
:1001F0000A0A0B0B0B0C0C0C0D0D0D0E0E0E0F0F37
:100200000F101011111112121313141415151616C4
:100210001717181819191A1A1B1B1C1D1D1E1E1F33
:100220002020212222232424252626272829292A82
:100230002B2C2D2D2E2F30313232333435363738AA
:10024000393A3B3C3D3E3F404142434445464748A6
:10025000494A4C4D4E4F50515354555658595A5B7C
:100260005D5E5F616264656668696B6C6D6F70721C
:10027000737577787A7B7D7E8082838587888A8C88
:100280008E8F91939596989A9C9EA0A2A3A5A7A9BC
:10029000ABADAFB1B3B5B7BABCBEC0C2C4C6C9CBB3
:1002A000CDCFD1D4D6D8DBDDDFE2E4E7E9EBEEF069
:1002B000F3F5F8FAFDFFFFAA7F55401E0F05000475
:1002C0007F3F1F643214643214783C1E1E140A05EA
:1002D000FD377A585A000004E6D6B44602002101E0
:1002E00016000000742FE5A3E002C601165D003D74
:1002F0008889C65436C3174FE4DD5C7431C9895F01
:10030000E437D76A12C8719E622074951E40FC6360
:100310002398D3E329C0FEAFF340E5BB5EB33619A3
:100320004F4897F46DA3394BA146FFEA5E1FCA9868
:10033000A910671AEDCF5AA8539276BBA51FFF9953
:100340000EDF0A72EA3E20FFB723704CD8B173B7B4
:100350004065F4FFD94CD265FF986BA9D96327A6F5
:100360006A5D9FD89E81005757B78E3B17875AB753
:10037000F114F62EA23040E8999A3C93D24E56964C
:1003800082F2B45341460F342D08860906A8E520B1
:10039000A1278B201251A98CEA43E0A90C83A8AFB6
:1003A00053071D2CDCB6AF4B869E161EF4AD31668E
:1003B00030B99D42B8D82EAEDFE76EA827B13A45D6
:1003C00053A5F89F6B72E7C092E8868163EB7513C3
:1003D000129E9EACDD8D7330CE07F22E96839786EB
:1003E0006A97B3C71A3559707014F520AF7504EFCA
:1003F000941E74A3F62311C7AAA50E26BC590C702F
:10040000C652E379700000006300E89329610AFB9B
:100410000001B202C70500009721C603B1C467FB03
:10042000020000000004595A2223252628292A2CDC
:100430002D2F3032333536383A3B3D3E404243452E
:1004400047494A4C4E5051535557595A5C5E606269
:10045000646668696B6D6F71737577797B7D7F8179
:10046000838587898A8C8E90929496989A9C9E9F79
:10047000A1A3A5A7A8AAACAEAFB1B3B4B6B8B9BB97
:10048000BCBEBFC1C2C3C5C6C7C9CACBCCCDCED006
:10049000D1D2D2D3D4D5D6D7D7D8D9D9DADADBDBF3
:1004A000DBDCDCDCDCDCDDDDDDDDDCDCDCDCDCDB8A
:1004B000DBDBDADAD9D9D8D7D7D6D5D4D3D2D2D1D3
:1004C000D0CECDCCCBCAC9C7C6C5C3C2C1BFBEBCC6
:1004D000BBB9B8B6B4B3B1AFAEACAAA8A7A5A3A137
:1004E0009F9E9C9A98969492908E8C8A89878583F9
:1004F000817F7D7B79777573716F6D6B69686664D9
:1005000062605E5C5A5957555351504E4C4A4947A8
:10051000454342403E3D3B3A3836353332302F2D4D
:100520002C2A2928262523222E001E001F00200009
:10053000210022002B0014001A00080015001700EB
:10054000390004001600070009000A00E1001D0040
:100550001B0006001900050029003542490450001F
:100560004F002A000000E000E2004A004D004C006D
:10057000230024002500260027002D001C00180061
:100580000C001200130031000B000D000E000F00D4
:100590003343340011001000360037003861E500A5
:1005A0002C00520051002F00300002582800050393
:1005B0000007E300E4000000010001000100010069
:1005C00001000100010034003600370013001C0058
:1005D000010004001200080018000C0001003400A3
:1005E00014000D000E001B000100010001000100BD
:1005F00001000100000001000100010001000100F4
:1006000001000100010001000100010009000A00D1
:10061000060015000F00386107000B0017001100DD
:1006200016002D00050010001A0019001D00010021
:1006300001000100010001000100010001000100B2
:10064000010001000100000001003A003B003C00F5
:100650003D003E0001001E021F022F00300031024B
:100660000100200221022602270235000100220299
:1006700023022F0030003502005C01000100010060
:100680000100010000000100010001000100010063
:100690003F004000410042004300440052005F0020
:1006A000600061005500450051005C005D005E0087
:1006B00057004604240259005A005B005400010010
:1006C00001000100630062006700010001004E00AC
:1006D0004B00010001000000A60001000100010024
:1006E00001000100010001000100F0000100010013
:1006F00001000100F200F100F3000100010001001F
:100700000100010001000100005C01000100F40093
:10071000F5000100000001000100010001000100DE
:1007200001000100010001000100010001000100C1
:1007300001000100010001000100010001000100B1
:100740000100AE0001000100AC00AB00010001009F
:10075000B600A900AA00A8000100010001000100E4
:10076000010001000100000005010902A10185024C
:100770000901A100050919012905150025019505A3
:100780007501810295017503810105010930093167
:100790001581257F95027508810609381581257F09
:1007A000950175088106050C0A38021581257F958B
:1007B0000175088106C0C005010980A101850319E2
:1007C000012AB700150126B700950175108100C0F8
:1007D000050C0901A101850419012AA002150126B1
:1007E000A002950175108100C00660FF0961A1019A
:1007F0000962150026FF009520750881020963151E
:100800000026FF00952075089102C005010906A188
:1008100001050719E029E7150025019508750181F3
:10082000029501750881010507190029FF150026A9
:10083000FF00950675088100050819012905950531
:1008400075019102950175039101C009025B0003D6
:100850000100A0FA090400000103010100092111AF
:100860000100012240000705810308000A09040174
:1008700000020300000009211101000122220007EB
:10088000058203200001070503032000010904027B
:10089000000103000000092111010001228100076D
:1008A00005840320000A12011001000000085044D2
:1008B00060300100010203011C0376006900610041
:1008C0006C003A00660036003400630032006200BB
:1008D0003300630000000E034400610063007400F5
:1008E00079006C00000014034F0068004B006500A5
:1008F00079006300610070007300000004030904C4
:1009000011241FBECFEFDAE0DEBFCDBF04B603FE79
:1009100027C08091A1039091A203A091A303B0915D
:10092000A4038730904BA740B04BD1F41092A103A1
:100930001092A2031092A3031092A40314BE84B7D2
:10094000877F84BF0FB6F894A89580916000886176
:1009500080936000109260000FBEE0E0F8E309951C
:1009600011E0A0E0B1E0E6E0F7E602C005900D92EC
:10097000A83CB107D9F723E0A8ECB1E001C01D9273
:10098000A13AB207E1F70E94B30E0C9481330C94A4
:1009900000009091D30192FF0DC0282F28712830BC
:1009A00019F4877F846006C0282F2471243011F445
:1009B0008B7F886093FF0DC0282F2871283119F490
:1009C000877E846106C0282F2471243111F48B7E28
:1009D00088612091D40120FF0DC0382F3871383044
:1009E00019F4877F816006C0382F3171313011F4DE
:1009F0008E7F886021FF0DC0282F2871283119F4BF
:100A0000877E816106C0282F2171213111F48E7EED
:100A1000886194FD877E08950F931F9341E050E015
:100A200060E070E08A019B0104C0000F111F221FCB
:100A3000331F8A95D2F7C901B8010E9423201F9164
:100A40000F910C94662225E0E2E1F2E0DC010190D6
:100A50000D922A95E1F72091F0013091F10140913A
:100A6000F201FC0125833683478308951092F20139
:100A700008958091F201089530910501809112024C
:100A800080FF16C0E091040163E0E69FF0011124AD
:100A9000E955FD4F539A8BB1877F9BB198602FB773
:100AA000F894AF0163E0369F400D511D112414C02E
:100AB0008091060190910701891720F7E82FF0E057
:100AC000AF01440F551FE40FF51FE955FD4F11828B
:100AD000108212828F5FF0CFE417F50789F0319111
:100AE00068E09BB9000000C037FF8BB9330F0000EE
:100AF00000C000C000C08BB900C06A9591F7ECCF70
:100B00002FBF8FE594E00197F1F700C00000089532
:100B10009091120290FF16C090910601209107015A
:100B2000921770F4E92FF0E0DF01AA0FBB1FEA0F64
:100B3000FB1FE955FD4F8183608342839F5FF0CFA8
:100B40000C943C05089580911202282F269530E0E0
:100B50002115310519F48170826005C02B323105F1
:100B600024F081708465809312020895CF92DF9201
:100B7000EF92FF926B017C010E94A305B701A601D1
:100B800088E090E0FF90EF90DF90CF900C948A3255
:100B900080911602882319F081508093160260918B
:100BA00012027091130280911402909115020C941C
:100BB000B60580911602833018F48F5F8093160279
:100BC00060911202709113028091140290911502AB
:100BD0000C94B605E2E1F2E083E0808311828FEFAE
:100BE000828383831482A0EFB1E012968C911297D6
:100BF000836012968C9360817181828193810C94C1
:100C0000B605AF92BF92CF92DF92EF92FF920F9311
:100C10001F93CF93DF93E82EF62EE901E42FF0E047
:100C2000611106C0EA54FE4FE4914E2F2E2F71C081
:100C3000062F10E0EA54FE4F4491F42FC42ED12C1D
:100C400026E0829FC00111242FEF30E0B9010E94FD
:100C500029335BEA5603C001579F900D11248E0D76
:100C6000911D8E0D911D582F550F580FD901A01BA6
:100C7000B10BAC9DC001AD9D900DBC9D900D11249C
:100C8000E92FF59ED0011124AB2FBB277901EA1A79
:100C9000FB0AEC9CD001ED9CB00DFC9CB00D112426
:100CA0005901A51AB108A09E7001A19EF00CB09E3A
:100CB000F00C1124EF2CFF242E193F092C9D8001EC
:100CC0002D9D100D3C9D100D1124212F62307105BA
:100CD00091F048F461157105E1F061307105B9F4E6
:100CE000242F4B2F16C06430710569F040F0663038
:100CF000710579F00CC0242F492FE12F0AC0492F2C
:100D0000EF2F2B2F06C0292FE42F412F02C0292FB0
:100D1000EB2F49832883EA83DF91CF911F910F91B5
:100D2000FF90EF90DF90CF90BF90AF900895CF935A
:100D3000DF9300D01F92CDB7DEB79091120290FFE3
:100D40000AC09E012F5F3F4F0E9401064B816981BF
:100D50008A810E9488050F900F900F90DF91CF91AC
:100D60000895AF92BF92CF92DF92EF92FF920F93CE
:100D70001F93CF93DF9300D01F92CDB7DEB7182F0C
:100D8000F62E042FE22E9091120290FF7EC0E92FE2
:100D9000E695AE2FB0E0A05CBE4F8C918093F00141
:100DA0009E7F923061F49E012F5F3F4F812F0E9402
:100DB00001064B8169818A810E94880543C0823087
:100DC00019F4009115023EC0863019F410911302F7
:100DD00039C08930D9F38931A9F5E9518E2F817055
:100DE000D82EE695F0E0EA54FD4FA590B490C12CC2
:100DF000BB2460910801C61618F52C2D30E0A29E88
:100E0000C001A39E900DB29E900D112470E00E942F
:100E10002933812FD11002C0860F01C0861B90910B
:100E20000601290F311DA901440F551F240F351F3D
:100E300029553D4F402F6F2D0E940106C394D9CFF5
:100E40000E943C0580911302181308C0809114027F
:100E5000F81204C080911502081729F08091F20160
:100E600082608093F20110931302F09214020093B7
:100E70001502EE2051F060911202709113028091E0
:100E80001402909115020E94B6050F900F900F90DA
:100E9000DF91CF911F910F91FF90EF90DF90CF9056
:100EA000BF90AF900895E2E1F2E0438121E1421B5F
:100EB00008F440E021E0628181810C94B106E2E116
:100EC000F2E0438121E1420F08F44FEF21E062811B
:100ED00081810C94B106E2E1F2E0628121E1621BC2
:100EE00008F460E021E0438181810C94B106E2E1E5
:100EF000F2E0628121E1620F08F46FEF21E04381AB
:100F000081810C94B106E2E1F2E0818121E043812C
:100F1000628188500C94B106E2E1F2E0818121E027
:100F200043816281885F0C94B1060E949C1D2091D0
:100F3000FC01211104C02091FD01222321F0909396
:100F4000F9018093F8012091FE01211104C0209144
:100F5000FF01222321F09093F5018093F401E091A9
:100F6000E401F091E501309749F082E08093FA01C5
:100F70000480F581E02D8AEF91E009940895803F87
:100F800039F48091FD0187FF6AC01092FD0167C0AE
:100F9000813F29F48091FD011816BCF360C0909147
:100FA000FC01823F29F497FF5AC01092FC0157C000
:100FB000833F19F41916CCF352C09091FE01893F7A
:100FC00031F419160CF04BC01092FE0148C08A3F54
:100FD00019F497FF44C0F8CF8B3F39F48091FF019B
:100FE00087FF3DC01092FF013AC08C3F29F48091E9
:100FF000FF011816BCF333C0843F21F48091FB013C
:101000008E7F17C0853F21F48091FB018D7F11C039
:10101000863F21F48091FB018B7F0BC0873F21F439
:101020008091FB01877F05C0883F31F48091FB01EF
:101030008F7E8093FB0113C08D3F21F4809131029C
:101040008E7F0BC08E3F21F4809131028D7F05C0D1
:101050008F3F29F4809131028B7F80933102809100
:10106000FC01811106C08091FD01811102C0109226
:10107000F7018091FE01811106C08091FF0181116D
:1010800002C01092F30108958091310280FF08C0E0
:101090006091250170E0759567957595679521C0FC
:1010A00081FF06C06091250170E07595679519C0B4
:1010B00082FF04C06091250170E010C09091F3019F
:1010C000992399F0609124019617A0F7809125014A
:1010D000899FC001112470E00E943D336038710582
:1010E00040F46115710519F406C061E070E0862FC7
:1010F00008958FE7089581E008958091310280FF7F
:101100000BC06091270185E0689FB001112475959F
:101110006795759567952BC081FF09C06091270180
:1011200085E0689FB00111247595679520C082FF06
:1011300007C06091270185E0689FB001112417C0A6
:101140009091F7019923D1F060912601961788F7C5
:101150002091270185E0289F90011124929FA001F2
:10116000939F500D112470E0CA010E943D336038F6
:10117000710540F46115710519F406C065E070E071
:10118000862F08958FE7089581E00895803F21F428
:101190000E947D08819504C0813F29F40E947D084A
:1011A0008093FD010895823F21F40E947D0881957E
:1011B00004C0833F29F40E947D088093FC010895B8
:1011C000893F19F40E94440805C08A3F31F40E9407
:1011D000440881958093FE0108958B3F21F40E947D
:1011E0004408819504C08C3F29F40E9444088093F0
:1011F000FF010895843F21F48091FB01816017C0B5
:10120000853F21F48091FB01826011C0863F21F46B
:101210008091FB0184600BC0873F21F48091FB012A
:10122000886005C0883F31F48091FB018061809324
:10123000FB0108958D3F21F48091310281600BC044
:101240008E3F21F480913102826005C08F3F29F4E6
:10125000809131028460809331020895833011F1CE
:1012600028F4813049F0823091F00895853081F181
:1012700020F18630C1F108958091F601681720F4BD
:10128000861B8093F60108951092F60108958091CF
:101290000A01681720F4861B80930A0108951092B2
:1012A0000A01089580912701681720F4861B809316
:1012B000270108951092270108958091260168174B
:1012C00020F4861B8093260108951092260108952C
:1012D00080912501681720F4861B809325010895CD
:1012E00010922501089580912401681720F4861B2F
:1012F000809324010895109224010895833081F190
:1013000028F4813059F08230D1F00895853009F405
:1013100049C0B8F1863009F456C008958091F601AD
:10132000262F30E0280F311D2F3F310524F4680FA0
:101330006093F60108958FEF8093F60108958091F0
:101340000A01262F30E0280F311D2F3F310524F4EC
:10135000680F60930A0108958FEF80930A01089542
:1013600080912701262F30E0280F311D2F3F3105B6
:1013700024F4680F6093270108958FEF809327016D
:10138000089580912601262F30E0280F311D2F3F30
:10139000310524F4680F6093260108958FEF809340
:1013A0002601089580912501262F30E0280F311D58
:1013B0002F3F310524F4680F6093250108958FEFC6
:1013C00080932501089580912401262F30E0280F75
:1013D000311D2F3F310524F4680F609324010895D7
:1013E0008FEF8093240108958B3109F47AC058F56A
:1013F0008B3009F498C078F4863009F446C020F4A4
:10140000853009F44CC091C0873009F45CC0883045
:1014100009F489C08AC0803109F476C068F48E303E
:1014200009F083C08091010282FB222720F991E01C
:10143000922790FB82F95EC0863109F474C089312D
:1014400009F471C072C08A32E9F060F4873209F49D
:1014500067C028F48E3108F468C08D5162C08932AB
:10146000F1F063C0833450F48A3308F057C08533F9
:1014700009F456C0883309F456C057C0833409F4C0
:101480004FC053C00E94121E4EC080910102817F46
:101490008E7F8093010281E080938903089580917B
:1014A000230290912402892BF1F10E9466222FEFF2
:1014B00084E39CE0215080409040E1F700C00000B0
:1014C0000E94121D30C080910102982F909591705A
:1014D00090FB80F980930102911125C0897F877F5D
:1014E00010C08091010281FB222720F991E0922710
:1014F00090FB81F9809301029923A9F08091010268
:101500008160809301020FC08091010283FB22273A
:1015100020F991E0922790FB83F9ECCF895301C029
:1015200080E00E940C0581E0089580E0089580919C
:10153000CE01811118C08091D80080618093D800BD
:101540008AE18A95F1F700C08091D90080FD02C040
:1015500082E001C081E08093CE01823021F40E94BC
:10156000782B1092830381E09091CE01913009F0A5
:1015700080E00895F894E82FE295EF70F0E031A153
:10158000282F2F7081E090E001C0880F2A95EAF79C
:10159000982F9095932391A392A1892B82A378945D
:1015A00008958F929F92AF92BF92CF92DF92EF9267
:1015B000FF920F931F93CF93DF9300D000D000D002
:1015C000CDB7DEB70BE611E085EDC82E81E0D82E51
:1015D0004601F12CAA24A394B12CB801D8018C9116
:1015E000F894E82FE295EF70F0E021A18F70A5014B
:1015F00002C0440F551F8A95E2F7CA01922F982B1B
:1016000091A392A18095892382A3789400C0E7E7F3
:10161000F1E020E030E0E12C4191842F82958F7041
:1016200090E0DC0190968C9190E04F7002C095950F
:1016300087954A95E2F780FD07C08A2D022E01C0EA
:10164000880F0A94EAF701C080E0E82A2F5F3F4F35
:101650002630310509F70F5F1F4FFB0180810E9483
:10166000BA0AF0EAFA95F1F7D4018C91E81619F06C
:10167000EC9281E001C080E0F82ABFEF8B1A9B0A50
:10168000E1E001371E0709F0A8CF1091E201FF2029
:1016900049F081E08093CC010E949C1D9093CB0186
:1016A0008093CA018091CC018823B9F08091CA014E
:1016B0009091CB010E94491D069778F0E12FF0E050
:1016C000E95EFD4FD6018D916D018193BBEDCB1687
:1016D000B1E0DB06B9F71092CC010E94970A609145
:1016E000E2018823E9F18E010F5F1F4F86E0F801C8
:1016F00011928A95E9F7862F90E0B801895E9D4F97
:101700000E94EE2F811115C08091CD018F5F8093D3
:10171000CD01863078F1E091E101F0E0E95EFD4F26
:1017200080E090E01192019686309105D9F781E032
:1017300022C01092CD01E091E101F0E0E95EFD4FA1
:10174000D8019E01295F3F4F80E09D91408149175C
:1017500011F0908381E03196A217B307B1F70BC067
:1017600070E0695E7D4F8091E10190E0895E9D4F60
:101770000E941C3080E0FF2011F081E090E026966E
:101780000FB6F894DEBF0FBECDBFDF91CF911F9192
:101790000F91FF90EF90DF90CF90BF90AF909F9010
:1017A0008F900895CF93DF930E94EB27EC0182384E
:1017B000910559F1A0F48133910509F473C040F407
:1017C0008932910509F467C08A9709F472C084C010
:1017D0008533910509F458C0C997B9F07DC0833E9F
:1017E000910571F138F4803E9105B1F0823E91058A
:1017F00011F172C0863E9105B9F1873E9105C9F19C
:10180000843E910509F068C024C08091D30180FD19
:101810005DC081FD5BC060C08091D30180FD50C080
:101820008091D40180FF49C18091D30184FD43C1DF
:10183000C3EED0E042C18091D30182FF3EC1F4CF1C
:101840008091D30182FD3FC08091D40180FD3EC0D4
:10185000EBCF8091D40181FF30C18091D30184FD11
:101860002AC1C7EED0E029C18091D30183FF25C1F1
:10187000F4CF8091D30183FD2CC08091D40181FFEE
:10188000ECCFC4EED0E019C18091D30185FF15C122
:10189000C9E2D0E012C18091D30185FF0EC1C5E33A
:1018A000D0E00BC18091D30186FF07C1CAE2D0E02E
:1018B00004C18091D30186FF00C1C1E3D0E0FDC027
:1018C000C9E3D0E0FAC0C2EED0E0F7C0C0EED0E08D
:1018D000F4C0C6EED0E0F1C0C11581E5D80708F02C
:1018E00066C0C11520E5D207E0F0CE0174E0969500
:1018F00087957A95E1F783709C2F937021E030E013
:1019000002C0220F331F9A95E2F73C68382BCF7044
:10191000C695C69540E2C49FE0011124C22BD32B8B
:10192000CCC0C83ED10560F5C03ED10508F0C5C0A9
:10193000C83AD105B0F4C53AD10540F0C55AD0E057
:10194000CA56DE4FC881D0E0D064B7C0C130D105DF
:1019500009F4B3C008F4AFC0C430D10508F4ABC07B
:10196000ACC0CF3BD10508F0A6C0C85AD0E0CC0F20
:10197000DD1FC756DE4F0990D881C02DD4649DC0AD
:10198000C11540E2D40758F4C11581E0D80708F02A
:1019900094C0C03FD10508F48EC0D0658EC0C1157B
:1019A00020E4D20708F487C0DF70D06A86C0C11572
:1019B00045E5D40708F042C0C11584E5D80728F0F2
:1019C000DC2FCC27C46FD06A78C0C11523E5D207BD
:1019D000B0F0CE018370992721E030E002C0220FE1
:1019E000331F8A95E2F78C2F8695869540E2849F77
:1019F000C0011124E901C82BD92BDA685EC0C115DA
:101A000042E5D40728F4DC2FCC27C16FD06A55C03B
:101A1000CE018370992721E030E002C0220F331FEE
:101A20008A95E2F78C2F8695869540E2849FC001C7
:101A30001124E901C82BD92BDC683FC0C11589E509
:101A4000D807B8F4C11528E5D20728F0DC2FCC2739
:101A5000C06FD06A32C0C11546E5D40760F58C2F3F
:101A60000E94C9048F71C82FD0E0DC2FCC27D06230
:101A700024C0C1158AE5D80780F48C2F8F700E948E
:101A8000C90494E0D695C7959A95E1F7CF70D0E058
:101A9000DC2FCC27D069C82B10C0CE019056811501
:101AA000904248F48D2F8F710E94C904DD27D062C7
:101AB0008F71D82B02C0C0E0D0E0CE01DF91CF9172
:101AC0000895AF92BF92CF92DF92EF92FF920F9361
:101AD0001F93CF93DF93EC018AE0A82E2881222365
:101AE00009F497C0213009F041C08981813039F46F
:101AF0008E010E5F1F4F8A810E94F52E08C0823032
:101B000041F48E010E5F1F4F8A810E94CE2DE801A5
:101B10007EC0833039F48E010E5F1F4F8A810E9490
:101B2000672DF5CF843011F0219671C02A8122965D
:101B300080E090E030E0205331092A30310558F43C
:101B4000A89EA001A99E500D1124C901840F951FC4
:101B500021962881EFCF009709F459C0EFE9FFE003
:101B60003197F1F700C000000197F5CFE22FF0E0C8
:101B7000EA5CFE4FB490822F86958695869590E01C
:101B8000FC01EA5DFE4FE4902770F12C022E02C0AA
:101B9000F594E7940A94E2F7F1E0EF22FF24FC01C8
:101BA000EA5EFE4FC490D12C022E02C0D594C79499
:101BB0000A94E2F731E0C322DD24FC01EA5FFE4F24
:101BC000049110E002C0159507952A95E2F701707F
:101BD0001127E114F10419F081EE0E94CE2DC114F9
:101BE000D10419F086EE0E94CE2D8B2D0E94F52E89
:101BF000CD2819F086EE0E94672DEF2819F081EEAE
:101C00000E94672D012B19F08CE20E94F52E21967F
:101C100065CFDF91CF911F910F91FF90EF90DF90F3
:101C2000CF90BF90AF900895E2E1F2E080818E7F87
:101C300080830E941628E0EFF1E082818160828338
:101C40002FEF80E792E0215080409040E1F700C004
:101C500000000C943C059091120290FF3BC09170E3
:101C6000811102C0926006C08B3210F0946502C0F0
:101C7000880F982B909312028091F20181608093DB
:101C8000F201662351F0609112027091130280916B
:101C90001402909115020E94B60560911202669599
:101CA00070E04BE050E085E191E00E946D33892BBC
:101CB00019F00E94162802C00E941D2881E080931E
:101CC000ED0120E040911502609114028091130211
:101CD0000C94B10608951F93CF93DF93EC01162F58
:101CE0008F8180FF0FC0888180FF0AC0809112021F
:101CF000816080931202888186950E942B0E02C01B
:101D00000E94140E8F8181FF06C0212F4B816A81B2
:101D100089810E94B1068F8182FF08C08E8188234D
:101D200019F00E941D2802C00E9416288F8183FF8F
:101D300003C081E08093ED01DF91CF911F91089561
:101D4000809112028695815009F48AE261E00C9438
:101D50002B0E8091120286958F5F8B3208F081E006
:101D600061E00C942B0ECF93DF93CDB7DEB7E297F3
:101D70000FB6F894DEBF0FBECDBF84B7877F84BF98
:101D80000FB6F894A89580916000886180936000F8
:101D9000109260000FBE90E080E80FB6F894809338
:101DA0006100909361000FBE85B7806885BF85B7DD
:101DB000806885BF8BE69CE19093C9018093C80140
:101DC0000E94782B0E94972B8091E2008460809380
:101DD000E2007894809183038823A1F01091E900B8
:101DE0001F709091EC00892F817090FD80E8182B76
:101DF0001092E9008091E80083FD0E9456281F7030
:101E00001093E90082E084BD93E095BD9AEF97BD01
:101E100080936E001092CF011092D0011092D101E8
:101E20001092D2018EE090E00E94643291E0811124
:101E300001C090E09093090180910901882321F06D
:101E4000109204018CE003C08CE080930401809325
:101E500005010E94970A81110E94C52F80910901F6
:101E600080910901882311F090E001C096E09093E1
:101E7000E20186E0891B8093E1010BE611E021E796
:101E8000E22E21E0F22EF80181918F010E94BA0A20
:101E9000E016F106C1F707E711E09DE7E92E91E0B2
:101EA000F92EF80181918F010E94BA0AE016F1061D
:101EB000C1F7E5EDF1E081EE91E0A7E1B2E011922A
:101EC0001D928E179F07D9F780E090E00E94723232
:101ED0008A3E9E4F11F00E94121E82E090E00E9406
:101EE0006432809301020E94011E9093D40180937A
:101EF000D3010E94D10A8FE39CE90197F1F700C05A
:101F000000000E94D10A8091170280FF17C06FEF76
:101F100083E290E00E9478326FEF84E290E00E94CA
:101F200078326FEF85E290E00E9478326FEF7FEFBA
:101F300080E090E00E9496320E94121D83E090E0C3
:101F40000E946432682F70E080E090E00E942320BD
:101F50000E94970A811102C00E94CB2F83E290E079
:101F60000E946432813C81F484E290E00E946432F9
:101F70008A3D51F485E290E00E94643291E0833D15
:101F800009F090E0892F01C080E080FF07C68091B2
:101F9000E30181113BC080E090E00E9472328A3EF2
:101FA0009E4F21F00E94121E0E94EA0588E090E0F8
:101FB0000E946C3260931202709313028093140299
:101FC000909315028091F20183608093F2016E7FFD
:101FD00071F40E94EA0588E090E00E946C32609300
:101FE00012027093130280931402909315020E94C0
:101FF000A3050E9416288091120280FF04C060E0B1
:1020000086950E942B0E81E08093E3018BE091E0A6
:102010009093E5018093E4018E010F5F1F4F1E0135
:10202000FFE02F0E311C80918303853009F046C0FC
:10203000B0E1EB2E82E1F82E80918303853009F028
:1020400039C080918303843021F11092E60128E1A8
:1020500030E040E40FB6F894A895209360000FBEDE
:102060004093600083B7817F846083BF83B78160C2
:1020700083BF7894889583B78E7F83BF0FB6F8941B
:10208000A895809160008861809360001092600044
:102090000FBE80917903882309F4CECF0E94D10A24
:1020A000E7E1F2E0819181115AC582E0E332F8075D
:1020B000C9F7C2CF0E9466220E94A7260E94D10AB9
:1020C00081110E94581DA2E0B2E0E7E1F2E0E12CAC
:1020D000F12CAE2CB1908D918B2549F1C12CDD24D2
:1020E000D394982F9D21F1F00E94970A882399F0AC
:1020F000C9A6AAA6BD2081E009F480E08BA70E94B2
:102100009C1D8160782F9DA78CA749A55AA56BA51A
:102110008DA50E94DD25F701EE5FFD4F8081D82659
:10212000D0821CC0C394DD0C96E0C912DACF2FEF29
:10213000E21AF20A3CE0E316F10459F68FEF8EA79B
:102140008FA718AA0E949C1D8160782F9AAB89AB3B
:102150004EA55FA568A98AA90E94DD258091F1019D
:10216000882309F4D4C08091F001E0911202E69531
:10217000E81BE093EC01823059F4F0E0E453FD4FAA
:10218000E491EE2EF12CA9ECCA2EA5E2DA2E70C055
:10219000863059F4F0E0E753FD4FE491EE2EF12C38
:1021A000F9EBCF2EF5E2DF2E63C0893061F4E695BE
:1021B000F0E0EA53FD4FE491EE2EF12CEEE3CE2E4B
:1021C000E5E2DE2E55C08F3061F4E695F0E0ED5388
:1021D000FD4FE491EE2EF12C71EAC72E74E2D72E5A
:1021E00047C0853159F4F0E0E054FD4FE491EE2E04
:1021F000F12C6BE1C62E64E2D62E3AC08831F9F09C
:10220000833249F4EEEBF2E0E590F49059E7C52E05
:1022100055E2D52E2DC08432D1F0853209F58E2FAE
:1022200063E00E940F33E92FF0E0E554FD4FE491A5
:10223000EE2EF12C42E7C42E42E2D42E19C028E241
:10224000E22EF12C38E8C32E33E2D32E11C084EFF6
:10225000E82EFF24F39499E4C92E93E2D92E08C006
:10226000A0EDEA2EA7E0FA2EB1E7CB2EB2E2DB2EEC
:102270008091ED01882361F01092ED010E94A81D6C
:102280009093EB018093EA011092EF011092EE011E
:102290000E94A81DE091EA01F091EB019C012E1B28
:1022A0003F0B2F3F3F4798F52091E9012223B1F0E2
:1022B0001092E9012091E7013091E801821B930B14
:1022C0008F3F9F4758F4205D3A483093E8012093B0
:1022D000E7018091F20188608093F201A090EE0105
:1022E000B090EF01EE0EFF1EF092EB01E092EA01DA
:1022F0008AEE91E0F60109958091EE019091EF014F
:10230000892B29F4AB2819F081E08093E90186E05C
:10231000EAEFF1E0D80101900D928A95E1F7C090C3
:10232000FC01D090FD01E090FE01F090FF011092C1
:10233000FC011092FD011092FE011092FF01C110EC
:1023400003C0DD2009F45DC08091F8019091F9018E
:102350000E94491DAC019091F701992339F0209119
:102360000A0130E02417350758F04BC02091F601E0
:10237000FAE02F9F900111242417350718F041C06F
:102380009F3F19F09F5F9093F701CC2061F00E946E
:102390007D081C1414F491E001C09FEF899F802DEB
:1023A00011248093FC01DD2061F00E947D081D1442
:1023B00014F491E001C09FEF899F802D1124809338
:1023C000FD013091FC013323E1F02091FD01222336
:1023D000C1F045EB3403C0011124992319F0909307
:1023E000FC0103C081E08093FC0135EB2303C001B5
:1023F0001124992319F09093FD0103C081E080938B
:10240000FD01E11003C0FF2009F451C08091F401E7
:102410009091F5010E94491D9C019091F30199232F
:1024200009F4D5C32536310508F441C09F3F19F0A2
:102430009F5F9093F301EE2061F00E9444081E1408
:1024400014F491E001C09FEF899F802D11248093A7
:10245000FE01FF2061F00E9444081F1414F491E073
:1024600001C09FEF899F802D11248093FF0130913F
:10247000FE013323E1F02091FF012223C1F045EB5F
:102480003403C0011124992319F09093FE0103C075
:1024900081E08093FE0135EB2303C00111249923D1
:1024A00019F09093FF0103C081E08093FF018091B8
:1024B000FC0181110BC08091FD01811107C0809149
:1024C000FE01811103C08091FF0181110E949507D7
:1024D000CB82DC82ED82FE8286E0F801AAEFB1E0D9
:1024E00001900D928A95E1F70E94A7269091000233
:1024F000891721F00E94A726809300028091830310
:10250000843009F090CD83E08093E9008091E80069
:1025100082FF89CD8091E80085FF21C00E94CD2CEB
:1025200081111BC0F0E2CF2ED12C780109C080911F
:10253000F100F70181937F01F1E0CF1AD10869F032
:102540008091E80085FDF3CF8091E8008B77809340
:10255000E8000E94CD2C882399F391E001C090E01F
:102560008091E8008B778093E800992309F45BCD94
:10257000E0902502F09026028981E114F10461F0D7
:102580008E3F09F0E8C28A81833008F41AC2855070
:10259000833008F0E0C215C28B3009F4FCC188F525
:1025A000853009F47AC0B8F4823009F446C030F4BA
:1025B000813009F0CEC21A8289E0C4C2833009F4A6
:1025C0005DC0843009F0C5C24C816B818A810E9454
:1025D000BD279D83E1C2873009F46DC008F468C04F
:1025E000883009F49CC0893009F0B3C260911202AE
:1025F0007091130280911402909115020E94B60509
:10260000AAC2803109F40AC160F48D3009F4AAC06D
:1026100008F4A6C08E3009F4A9C08F3009F4D0C0E8
:1026200098C2823109F400C108F4FBC0833109F477
:1026300024C18E3F09F4C5C18CC28A81823009F45D
:10264000A4C2833051F0813009F083C20E94581D2A
:102650009B838C837D836E837EC2809123029091C5
:102660002402892B09F477C2FE013396A7E1B2E078
:102670008D918193E215F305D9F76DC28A8182307D
:1026800009F067C26B817C818D819E810E945733E6
:1026900086E290E00E9478325EC22D813E81322730
:1026A000232732274C816B818A810E94362753C2AF
:1026B0000E946C2750C28A818138B1F050F4803872
:1026C00009F049C220E04B8160911402809113020D
:1026D00023C08238E9F0833809F03DC220E0409100
:1026E00015026C818B8118C060E08B810E942B0EDB
:1026F0008B81811103C00E94140E2DC280911202A1
:1027000081608093120260E086950E942B0E23C2A6
:102710008B81809316021FC20E94B1061CC28A815F
:10272000813899F030F4803809F015C28091150293
:1027300009C2823891F0833809F00DC280911302EA
:102740008B83809114028C8306C28091120280FFD9
:1027500002C08695F7C180E0F5C180911602F2C1F2
:1027600080E160C081E08A8389E9ECC1EA80FB8076
:10277000FE24EF24FE24AC80B12C2DE1A216B1047E
:1027800008F0E9C16801C70189599D4F9601201BD6
:10279000310B2A153B0508F0DEC139E9E31631E0BB
:1027A000F30628F40E946432F601848302C0F60125
:1027B0001482FFEFEF1AFF0A2FEFC21AD20AE3CFFB
:1027C0008091230290912402892B09F4C4C1EA80EC
:1027D000FB80FE24EF24FE24CC80D12C3DE1C316E7
:1027E000D10408F0B8C15801C70189599D4F95011E
:1027F000201B310B2C153D0508F0ADC149E9E4164D
:1028000041E0F40620F4F50164810E947832FFEF84
:10281000EF1AFF0A2FEFA21AB20AE6CF0E9426276C
:102820009AC184E08A8397C1EA80FB80FE24EF246A
:10283000FE24AC80B12C3DE1A316B10408F08BC19D
:102840006801C70187969601201B310B2A153B05AD
:1028500008F081C140E4E41642E0F40628F40E9446
:102860006432F601848302C0F6011482FFEFEF1A8E
:10287000FF0A2FEFC21AD20AE4CFEA80FB80FE24BF
:10288000EF24FE24AC80B12C3DE1A316B10408F086
:1028900062C1370147E2640E711C80E4E81682E0F1
:1028A000F80608F058C180E492E08E199F098A1555
:1028B0009B0508F450C18091230290912402892B3A
:1028C00011F068015FC0E0FE0FC0C70186960E944C
:1028D000643290E0982F88272D81822B81159C45AA
:1028E00031F48FEF8D8303C0C12CD12C03C0CC24D5
:1028F000C394D12CC5018E0D9F1D450180FF1BC0C7
:10290000F1E08F1A910855E0452E512C4C0E5D1EBA
:10291000480C591CC3018A0D9B1D0E946432F201B0
:10292000208130E0322F2227282B21153C4519F435
:102930008FEFF2018083F801EC0DFD1D2FEFCF0129
:10294000801B910B8815990508F0BBCF848190E01E
:10295000982F88273581832B81159C4511F424837A
:1029600025833296ECCF40E4E41642E0F40620F4EE
:10297000F60164810E947832FFEFEF1AFF0A2FEF11
:10298000C21AD20AC70187969601201B310B2A155D
:102990003B0548F3E0C08091230290912402892BEB
:1029A00009F4D9C0C8010E942C2D3FEF41EE84E00C
:1029B000315040408040E1F700C000000E94121DED
:1029C000CAC0EA818E2F90E08930910508F0C3C01B
:1029D000FC01EA5AFF4F0C94513388E0E8E3F1E040
:1029E000DE01919601900D928A95E1F783E089834B
:1029F0001A821B821C8288E0FE01B196DE011596C8
:102A000001900D928A95E1F7A6C088E5898381E05F
:102A10008A831B821C829FC08C8190E0982F88271C
:102A20002B81820F911D092E000CAA0BBB0B35E0E8
:102A3000880F991FAA1FBB1F3A95D1F7AC01BD01A2
:102A4000405E5F4F6F4F7F4F481759076A077B07FC
:102A500008F481C08835E1E09E07A105B10508F0C2
:102A60007AC04935F1E05F076105710520F048E55E
:102A700051E060E070E0481B590BBC0160537D4F92
:102A8000C8010E945B3267C040E250E06FEF70E027
:102A9000C8010E947A33809123028983EA821B82D3
:102AA0001C821D821E8257C081E090E09093260216
:102AB0008093250282E390E09093110280931002AC
:102AC0000E949C1D90930F0280930E0244C0EF2839
:102AD00089F1809117028170F82E80910E029091F9
:102AE0000F020E94491D85369105F0F0FF20E1F0AC
:102AF0000E949C1D90930F0280930E028091100201
:102B00009091110201979093110280931002892BEA
:102B100089F4109226021092250281E090E09093B1
:102B200024028093230206C082E390E09093110276
:102B300080931002809123028983809125028A83E9
:102B4000809110028B8307C01092240210922302FE
:102B500002C08FEF8983C8010E942C2D64CAE9BC92
:102B6000F9BC09B400FEFDCF8091D8008F7D809321
:102B7000D8008091E00082608093E0008091E000C6
:102B800081FDFCCF0E94662257CA86E290E00E9437
:102B900064321B821C821D828E83DDCF60E086E260
:102BA00090E00E9478320E946C270E94262761ECF8
:102BB00083E290E00E9478326AED84E290E00E9425
:102BC000783263ED85E290E00E947832E0C9232BF1
:102BD00009F02ECC6CCC4F925F926F927F929F92B5
:102BE000AF92BF92CF92DF92EF92FF920F931F931B
:102BF000CF93DF93CDB7DEB729970FB6F894DEBF3A
:102C00000FBECDBFFC018081918123813481232BB4
:102C100031F09F3F31F491E08F3F19F403C091E010
:102C200001C090E090FD3EC67F0185E0DE01119677
:102C300001900D928A95E1F7F701228189819A81AD
:102C4000222349F00E94E71E182F682F89819A815C
:102C50000E948A1F03C00E945D1F182F69817A811C
:102C6000812F0E94EB278C01F7018281882309F4D0
:102C700082C0980122513F452031310508F093C0B0
:102C80008FEF93E00E94643281117FC02EEED22E2E
:102C9000D00E07E612E0DD2071F00115F4E01F0709
:102CA00009F473C0C8010E946432811101C0DA9432
:102CB0000F5F1F4FF0CF1E821F8218861986AA242D
:102CC000AA9468012FEFC21AD20AC8010E94643286
:102CD0008E831F82882309F458C0813009F046C0D2
:102CE000380132E0630E711CC6010E9464328F838A
:102CF000882309F44AC09FEF980F933060F468016D
:102D000083E0C80ED11CC3010E9464328887811100
:102D10002DC08601D6CF843011F06301FACFC301F4
:102D20000E946432B82E680194E0C90ED11CC8011B
:102D300003960E946432BB2041F1882331F1282F91
:102D400030E021503109A29EA001A39E500D112414
:102D50008B2D90E00197840F951F0197D0F2EFE93A
:102D6000FFE03197F1F700C00000F7CFCE010696E3
:102D70000E94610DCECF00313FE5130709F0B9C4C1
:102D800081E00E94C01F0E943828809197028770BE
:102D900009F488C5F7018281882309F483C582E09C
:102DA0000E94E51F7FC50031FFE51F0711F481E098
:102DB00005C001312FE5120721F482E00E940220B4
:102DC000E2CF033FFCE51F0749F406E221EE40EEA7
:102DD00063EF7CE5C7010E94B326D7CF043F2CE503
:102DE000120708F049C1083D3CE5130731F407E23A
:102DF00025EE45EE68ED7CE5EDCF093D9CE5190734
:102E000031F408E221E045EE69ED7CE5E3CF073DD2
:102E1000ECE51E0731F406E221EE41EE67ED7CE5BC
:102E2000D9CF882309F45DC11092270202302CE526
:102E3000120708F440C106313CE5130730F0C80121
:102E40008A5F9C45099708F036C10E94011E909345
:102E5000D4018093D30100318CE5180709F4C3C075
:102E600008F041C00830ECE51E0709F49AC0F0F400
:102E700004302CE5120709F487C068F402308CE5B1
:102E8000180709F477C003301C4509F0E5C08091AC
:102E9000D301826076C00630ECE51E0709F46EC0EF
:102EA00008F07BC08091D30188606BC00C302CE5AA
:102EB000120709F485C068F40A308CE5180709F494
:102EC00074C008F079C00E9466228091D3018068A6
:102ED00058C00E30ECE51E0709F476C008F07FC03C
:102EE0008091D3018BC00B3F2CE5120709F44FC032
:102EF00018F503318CE5180709F47DC078F4013129
:102F0000ECE51E0709F473C002311C4509F0A4C0AA
:102F10000E9466228091D3018F7733C005312CE562
:102F2000120709F472C008F486C00A3F1C4509F074
:102F300093C08091D4013EC00F3F9CE5190709F46E
:102F40005FC058F40D3FFCE51F0709F444C008F4C6
:102F50003FC08091D40182602DC001303DE5130750
:102F600009F475C008F45DC002301D4509F074C055
:102F700060E06EC08091D301816003C08091D30175
:102F800080618093D30168C08091D30111C080918A
:102F9000D40182608093D4015FC08091D3018062AC
:102FA000F0CF8091D3018064ECCF8091D301886011
:102FB0008460E7CF8160EECF8091D3018E7FE1CF37
:102FC0008091D3018D7FDDCF8091D301877FD9CFD1
:102FD0008091D40118C08091D4018D7FDBCF809186
:102FE000D3018F7ECECF8091D3018F7DCACF8091C8
:102FF000D3018F7BC6CF8091D301877F8B7FC1CFD9
:103000008091D4018D7F8E7FC5CF8091D30182FBCB
:10301000222720F991E0922790FB82F990FB83F917
:10302000B0CF8091D401982F909591708E7F892B8D
:1030300090FB81F9AFCF0E9466228091D30187FB7C
:10304000222720F991E0922790FB87F99ACF61E03F
:103050008EE090E00E9478326091D3011091D4010B
:1030600084E090E00E947832612F82E290E00E943A
:1030700078320E94662289CE053FFCE51F0731F4B5
:1030800006E221EE42EE65EF7CE5A4CE053F2CE59D
:10309000120730F407E225EE44EE64EF7CE59ACEA9
:1030A000063F3CE5130709F0BCCE07E225EE46EEED
:1030B00066EF7CE58FCE06318CE5180721F580910F
:1030C0009A028A7A91E009F490E09093280288238A
:1030D00011F065E301C069E289E292E00E94E71D18
:1030E0000FC00631ECE51E0709F040C080912802B0
:1030F000882309F405C365E389E292E00E94DA1DA2
:103100000E94831E42CE0A352DE5120749F158F47C
:1031100001158CE51807B1F00E3D1C4509F042C0C1
:103120000E94121E32CE0B35EDE51E07D9F00C358C
:103130001D45C1F58091D40182FB882780F991E07B
:10314000892711C00E9466220FEF14E32CE0015082
:1031500010402040E1F700C000000E94121D15CE73
:1031600081E001C080E00E94CD1E1CC080919A02C7
:1031700082720C3CECE51E0709F473C308F0F2C23E
:10318000063C2CE5120709F458C308F0C9C2033CF9
:103190009CE5190709F447C308F0B4C2023C1C457A
:1031A00009F417C3F701828100811181882349F056
:1031B000C8010E94E71ED82E682FC8010E948A1FEE
:1031C00004C0C8010E945D1FD82EB8018D2D0E9439
:1031D000D20B8C01982EF701D280A580A2949FE09B
:1031E000A92280919702877099F0DD2089F0812FC4
:1031F000807F803421F080E2800F883048F082E0C8
:103200000E94E51F809197028770CC24C39481119E
:10321000C12CB12EB2948FE0B8228B2D90E08C306F
:10322000910508F047C2FC01E15AFF4F0C9451335D
:10323000812F807F1F70882311F01295107FDD2071
:10324000B9F0112309F421C280E2800F883010F018
:10325000911006C080919A02182B10939A0205C013
:1032600080919902182B109399020E94831E0DC21F
:10327000802F0E94672D112309F41CC2005E109557
:10328000083010F0911006C080919A021823109314
:103290009A0205C0809199021823109399020E9406
:1032A000831E08C2812F807F1F70803211F012951B
:1032B000107F992021F0F1E09F1611F130C0DD2040
:1032C000B1F0AA2081F001E0A0120DC08091D401DC
:1032D00082FDF0C180919B02182B181709F4EAC1F6
:1032E00010939B02E7C180919B02812B10C0AA2002
:1032F00021F021E0A21609F4DDC10E947D1E27C045
:10330000DD2041F035E03A1508F4D4C1812F0E9448
:103310005D2DD0C184E08A1508F4CCC118C0DD2031
:1033200049F0AA2099F3F701858180FFAEC18F7023
:103330008583ECCFAA2059F0093309F0B8C1FFEF1B
:1033400017EE23E0F15010402040E1F7AEC1812F8D
:103350000E94522DAFC1812F86958695837019F0FA
:10336000813059F0A7C1DD2019F0C801937002C067
:1033700080E090E00E9491269DC1DD2019F0C801F7
:10338000937002C080E090E00E947B2693C1802F62
:10339000DD2029F00E94C6080E94950702C00E9405
:1033A000BF070E94950786C1812F837009F06AC00C
:1033B000D11084C1902F929596959770990F990F7F
:1033C000802F8F70482E512C612C712C092E04C037
:1033D000440C551C661C771C0A94D2F704FF12C0DB
:1033E0004FE050E060E070E004C0440F551F661FDE
:1033F000771F9A95D2F7DB01CA0180959095A09529
:10340000B09503C080E090E0DC0116951695412F41
:1034100043704230D9F068F500919C0210919D02F2
:1034200020919E0230919F02413059F084299529C4
:10343000A629B729BC01CD016023712382239323E0
:103440001EC0402A512A622A732A13C08429952952
:10345000A629B72900919C0210919D0220919E02FD
:1034600030919F02BC01CD016027712782279327ED
:1034700006C0BC01CD0164297529862997290E94BF
:10348000232018C1DD2019F0812F817001C086959D
:10349000882309F413C1902F929596959770990FF0
:1034A000990F802F8F70482E512C612C712C092E72
:1034B00004C0440C551C661C771C0A94D2F704FF08
:1034C00012C04FE050E060E070E004C0440F551FB0
:1034D000661F771F9A95D2F7DB01CA0180959095F8
:1034E000A095B09503C080E090E0DC01169516959C
:1034F000412F43704230D9F068F500918403109158
:1035000085032091860330918703413059F0842947
:103510009529A629B729BC01CD01602371238223F7
:10352000932388C0402A512A622A732A13C084290F
:103530009529A629B729009184031091850320912C
:10354000860330918703BC01CD0160277127822754
:10355000932770C0BC01CD0164297529862997295C
:1035600069C01F70DD2029F0812F0E940220802F6A
:10357000CECE802F0E94522D812F49C0802F32EF56
:10358000931609F440C0391538F090EF991661F0A0
:10359000E1EF9E1699F174C0F3EF9F16D9F124EF75
:1035A000921609F44EC06CC0DD2019F134E03A15D2
:1035B00008F480C01F7181E090E0A0E0B0E0AC01B1
:1035C000BD0104C0440F551F661F771F1A95D2F71F
:1035D0008091840390918503A0918603B091870325
:1035E0008A019B01082719272A273B27C901B8010F
:1035F00021C025E02A1508F45DC0DCCFDD2029F0CC
:10360000812F8F7130C0DD20D9F3812F8F710E94FF
:10361000C01F50C0DD2089F01F7181E090E0A0E064
:10362000B0E0BC01CD0104C0660F771F881F991F51
:103630001A95D2F70E94B61F3DC060E070E0CB0142
:10364000F9CFDD2099F01F71812F0E940220809117
:10365000D40182FD07C038E0139FC00111248360AC
:1036600080939702812F0E94022024C081E00E9453
:10367000E51F81E08A15F0F482E00E94E51F1AC080
:10368000DD2039F0AA2009F4BBCF802F0E94CE2D77
:1036900011C0AA2009F4B9CF893349F49FEFE7EEAE
:1036A000F3E09150E040F040E1F700C00000802FCF
:1036B0000E94672D88EF8B0D843010F40E94A7269E
:1036C000CC2009F4EFC08091970280FDEBC0F70198
:1036D00012828595859585950E940220C7010E94DA
:1036E000EB15809197028595859585950E94C01F61
:1036F000D9C001319FE5190709F063CB82E041CBC6
:1037000069E2FACC043C2CE5120709F491C0053CAF
:103710001C4509F047CD43E857E06CE877E0A5C0C9
:10372000093C9CE5190709F492C070F4073CFCE5DC
:103730001F0709F487C0083C1C4509F033CD47E753
:1037400057E06BE677E091C00A3C3CE5130709F4CB
:1037500083C00B3C1C4509F025CD48EC55E069EDD4
:1037600075E083C0013DECE51E0709F48AC098F4BA
:103770000E3C2CE5120709F47EC008F479C00F3C1A
:103780008CE5180709F47AC0003D1C4509F00ACD04
:103790006EE089E084C0043DECE51E0709F477C0C3
:1037A00060F4023D2CE5120709F46EC0033D1C4590
:1037B00009F0F8CC61E088E16FC0053D8CE51807A1
:1037C00009F468C00D351D4509F0ECCC6AE285E2CC
:1037D00066C08091120280FF20C08E7F809312020B
:1037E000609112027091130280911402909115025F
:1037F0000E94B6050E9416288091F2018160809394
:10380000F201EFEFF0E702E0E150F0400040E1F7B5
:1038100000C000000E943C05B8CA8160809312027B
:1038200061E0869539C040EA5EE069EA7EE01DC04D
:1038300049EA5EE060EA7EE018C04CE857E063E8E1
:1038400077E013C04BE657E067E777E00EC043E54B
:1038500057E06FE577E009C04FE557E063E577E0B3
:1038600004C049ED55E068EC75E00E9410288DCA4F
:1038700061E081E011C065E082E011C068E086E0AF
:103880000EC064E18FE00BC067E185E108C062E231
:1038900089E105C061E083E20E942B0E76CA0E9496
:1038A000FE2773CA29960FB6F894DEBF0FBECDBFB0
:1038B000DF91CF911F910F91FF90EF90DF90CF900C
:1038C000BF90AF909F907F906F905F904F900895C2
:1038D00080916F03089580E008952091690290918E
:1038E000380256E02917A9F030E0529FF001539FAB
:1038F000F00D1124E75CFD4F7181761306C07081D5
:10390000781303C07281741306C02F5F3F4F277076
:10391000E9CF80E0089581E00895CF93DF9300D050
:103920001F92CDB7DEB790918303943011F5898350
:103930007B836A839093E9008FEF9091E800815038
:1039400095FD06C095ED9A95F1F700008111F5CF30
:103950008091E80085FF0DC040E050E063E070E03A
:10396000CE0101960E94002D8091E8008E77809311
:10397000E8000F900F900F90DF91CF910895BC0158
:1039800084E00C948D1CBC0183E00C948D1C24E01D
:103990002093E9002FEF3091E800215035FD06C05B
:1039A00035ED3A95F1F700002111F5CF2091E800AF
:1039B00025FF0BC040E050E066E070E00E94002D63
:1039C0008091E8008E778093E8000895CF93DF938D
:1039D00021E02093E9002FEF3091E800215035FDE0
:1039E00006C035ED3A95F1F700002111F5CF209191
:1039F000E80025FF14C0EC0140E050E068E070E012
:103A00000E94002D8091E8008E778093E80088E086
:103A1000FE01A0E7B3E001900D928A95E1F7DF91F6
:103A2000CF91089587E797E7909301088093000866
:103A30009AE088E10FB6F894A895809360000FBED5
:103A400090936000FFCF78941F920F920FB60F9261
:103A500011248F939F93AF93BF938091A002909175
:103A6000A102A091A202B091A3020196A11DB11DD5
:103A70008093A0029093A102A093A202B093A3020C
:103A8000BF91AF919F918F910F900FBE0F901F909C
:103A900018959C014FB7F8948091A0029091A102D3
:103AA000A091A202B091A3024FBF821B930B089575
:103AB0002FB7F8946091A0027091A1028091A202A8
:103AC0009091A3022FBF08950F931F930E94970A0E
:103AD000882321F01F910F910C94581D0E94581DAE
:103AE0000091CF011091D0012091D1013091D201EC
:103AF000600F711F821F931F1F910F910895CF9226
:103B0000DF92EF92FF926B017C010E94970A811174
:103B10000EC00E94581DC61AD70AE80AF90AC092B8
:103B2000CF01D092D001E092D101F092D201FF906A
:103B3000EF90DF90CF9008952FB7F8948091A00276
:103B40009091A102A091A202B091A3022FBF08956B
:103B50000E94970A81110C949C1D0E94641DCB0148
:103B600008951F920F920FB60F9211248F939F9377
:103B7000AF93BF938091E601811113C08091A002A1
:103B80009091A102A091A202B091A3024196A11D21
:103B9000B11D8093A0029093A102A093A202B093C2
:103BA000A302BF91AF919F918F910F900FBE0F9085
:103BB0001F9018959C012A5F3F4FFC0142814613DC
:103BC00001C01282019682179307B9F708959C01EC
:103BD000FC0132969FEF80E04191461789F09F3FAC
:103BE00019F4411101C0982F8F5F8630A9F79F3FCC
:103BF00039F0F901E90FF11D97FDFA9562830895F7
:103C00000895CF9384E090E00E946432C82F82E24E
:103C100090E00E9464322C2F30E0A901582BCA0199
:103C2000CF9108956AEE7EEF80E090E00E94963298
:103C300060E082E090E00E94783260E083E090E013
:103C40000E94783210929C0210929D0210929E0265
:103C500010929F0260E084E090E00E94783260E081
:103C600082E290E00E94783260E085E090E00E947D
:103C7000783260E086E090E00E9478326FEF87E073
:103C800090E00E94783240E050E0BA0188E090E095
:103C90000E948A3260E08DE090E00E94783240E03D
:103CA00050E0BA0188E190E00E948A3260E087E14A
:103CB00090E00E94783240E050E0BA018CE190E060
:103CC0000E948A3260E070E080E290E00E949632CA
:103CD00040E050E0BA0188E190E00E948A3240E082
:103CE00050E0BA018FE090E00E948A3240E050E05C
:103CF000BA0183E190E00C948A3280919B02811199
:103D000010929B02089590919A0280919902892BBA
:103D100020919802982F922B9093290280919B02D8
:103D2000882389F0892B80932902EBE2F2E097E067
:103D300080E0915029F021912223D9F38F5FF9CFB0
:103D400081110E947D1EE091E401F091E501309720
:103D500031F00280F381E02D89E292E00994089528
:103D600080E090E00E94912680E090E00E947B2617
:103D700010929902109298020E94831EEAEFF1E0DD
:103D800086E0DF011D928A95E9F71092F701109203
:103D9000F301109231020C949507CF93C091D40196
:103DA000C2FB992790F9981781F080FBC2F9C09364
:103DB000D4016091D30184E090E00E9478326C2FAE
:103DC00082E290E0CF910C947832CF910895BF9227
:103DD000CF92DF92EF92FF920F931F93CF93DF93D7
:103DE0008C01C0908403D0908503E0908603F0900E
:103DF000870380919C0290919D02A0919E02B091B8
:103E00009F02C82AD92AEA2AFB2ACFE1D0E0D701AB
:103E1000C6010C2E04C0B695A795979587950A9470
:103E2000D2F780FD04C0219790F7B12C07C0BC2EBB
:103E3000B8018C2F0E94D20B0197A9F38B2DDF9133
:103E4000CF911F910F91FF90EF90DF90CF90BF9097
:103E50000895CF93DF93EC010E94E71EBE010E94FC
:103E6000D20BDF91CF9108950E94291F292F2F7027
:103E7000E92FE295EF704E2F50E0FA013297EE30C5
:103E8000F105B8F4E559FF4F0C945133803F99F098
:103E900018F4883E70F40FC0843F59F40CC0883E7B
:103EA00050F0813F31F407C0822F86958695869524
:103EB000089580E0089581E00895292F220F920F40
:103EC000990F890F682F669566956695982F97705C
:103ED00085E0689FB001112440E050E080E0FB01E4
:103EE000E40FF51FE659FD4F208130E0092E02C096
:103EF000369527950A94E2F721703327042E01C0E6
:103F0000220F0A94EAF7822B4F5F5F4F453051052D
:103F100031F70895292F220F920F990F890FE82F5B
:103F2000E695E695E695877051E001C0550F8A95B4
:103F3000EAF785E0E89FF0011124E659FD4F20E003
:103F400030E070E04081CB01022E02C0969587954B
:103F50000A94E2F7817081958427852384278193D1
:103F60002F5F3F4F2530310569F708956093840333
:103F70007093850380938603909387030C94B01EFF
:103F80000F931F9341E050E060E070E004C0440FE5
:103F9000551F661F771F8A95D2F7409550956095FB
:103FA00070958091840390918503A0918603B091D0
:103FB00087038A019B01082319232A233B23C90174
:103FC000B8011F910F910C94B61F20919702809514
:103FD000822380939702982F977041F430E0482F06
:103FE000082E000C550B2417350721F49091D401AD
:103FF00092FF07C08595859585950E94C01F1092F8
:10400000970208950F931F9341E050E060E070E045
:1040100004C0440F551F661F771F8A95D2F7809101
:10402000840390918503A0918603B09187038A0150
:104030009B01082B192B2A2B3B2BC901B8011F917F
:104040000F910C94B61F60939C0270939D02809315
:104050009E0290939F020C94B01E809169029091F1
:104060003802891719F08F5F8770FBCF08950F937F
:104070001F93CF93DF938091370282958F7009F061
:104080005DC080913402882309F458C08091690290
:10409000109138026091320270913302C091350262
:1040A000D091360291E06F3F09F090E0292F06E0B1
:1040B000811709F443C0209721F07F3F21F030E0C1
:1040C00003C031E001C0322F90E030FD34C0089FC2
:1040D000F001099FF00D1124DF01A75CBD4F11967F
:1040E0003C911197371327C03C91361324C0129688
:1040F0003C91129731111FC013964D915C9114970A
:104100004C1B5D0B483C5105B0F4809137028F7019
:10411000806180933702E25CFD4F80818F70806107
:10412000808382E392E00E94EB15DF91CF911F9193
:104130000F910C942D2001968770BACFDF91CF910B
:104140001F910F9108958F929F92AF92BF92CF923D
:10415000DF92EF92FF920F931F93CF93DF93CDB730
:10416000DEB761970FB6F894DEBF0FBECDBF8C01EE
:1041700085E0F801DE011D9601900D928A95E1F728
:10418000D801DC901196EC9011971296CC909091FA
:10419000320220913302409135025091360241158E
:1041A000510531F02F3F31F481E09F3F19F403C0F6
:1041B00081E001C080E080FD58C1F801A380B48097
:1041C00082E3882E82E0982EF0903402B501641BC1
:1041D000750BFF2009F403C180913702382F307F1F
:1041E000683C710508F0CDC0311188C02E1112C095
:1041F0009D1110C0FC2CC1100DC08F708061809388
:104200003702C4010E94EB1580913702D801159640
:104210008C9348C1A114B10439F0BFEFEB1206C072
:1042200081E0DB1203C003C081E001C080E080FDBB
:1042300003C081E08C2502C080E090E080FF10C0C8
:104240004C2D6E2D8D2D0E946D1C882349F082E32C
:1042500092E00E94EB15E2E3F2E086E0DF0199C014
:10426000AB2839F0BFEFEB1206C081E0DB1203C0D0
:1042700003C081E001C080E080FD03C081E08C25A7
:1042800002C080E090E0E82FE170BE2E80FF2CC0DD
:104290004C2D6E2D8D2D0E946D1CF82E811124C089
:1042A000DD86EE868D859E850E94291F292F229509
:1042B0002F70223018F0243090F405C09F7059F010
:1042C000811109C0EFC09F7031F0D80115969C9103
:1042D000907F09F4E7C0805E883008F4E3C0C8012D
:1042E0000E94EB15FB2CDEC0FC2CCC2009F4DAC0BC
:1042F000809137028160809337024EC02E1106C034
:104300009D1104C0C11002C0F8018BC0DD86EE868D
:104310008D859E850E94341F882369F1CC2059F138
:1043200020913702822F82958F7090E0029774F06F
:10433000809132029091330298878F831986BB86D1
:10434000AA862C87CE0107960E94EB1586E0F8011D
:10435000A2E3B2E001900D928A95E1F70E94372026
:104360000DC02E15D9F0DD86EE868D859E850E94C6
:10437000341F81111DC0C8010E94EB15FF24F39466
:1043800091C03111EECF82E392E00E94EB1586E0FE
:10439000D4011D928A95E9F7F12C84C09D11E3CFD9
:1043A000C110E1CFF8018583C8010E94EB1557C009
:1043B000CC2009F320913702822F82958F7090E0F4
:1043C000029724F280913202909133029A8389837A
:1043D0001B82BD82AC822E83CE010196B5CF683C94
:1043E0007105E8F5FC2CCC2031F22E1127C09D116F
:1043F00025C02091370220FD18C0822F82958F7032
:10440000482F50E04115510581F0F80125834F30C8
:10441000510541F08F5F982F9295907F822F8F707A
:10442000892B8583C8010E94EB1586E0F801A2E381
:10443000B2E001900D928A95E1F734C0DD86EE86F8
:104440008D859E850E94341F811180CF8091370217
:10445000816080933702C8010E94EB1523C086E07B
:10446000D4011D928A95E9F71DC0CC2009F483CFB1
:10447000DD86EE868D859E850E94341FF82E88236A
:1044800009F479CF86E0F801A2E3B2E001900D9241
:104490008A95E1F780913202909133020E94291FA0
:1044A0000E9437208F2D61960FB6F894DEBF0FBEA5
:1044B000CDBFDF91CF911F910F91FF90EF90DF90D3
:1044C000CF90BF90AF909F908F90089510929A02D6
:1044D00086E0EBE2F2E0DF011D928A95E9F70C94A9
:1044E000B01E08957F928F929F92AF92BF92CF920B
:1044F000DF92EF92FF920F931F93CF93DF93FC0114
:104500008280748081E08483E8E2F4E09490E7EABA
:10451000F4E0E491A12CF5E0BF2ECC24CA94D12C78
:10452000E9190E2F10E080910801A81608F0A2C02A
:10453000EA2CF12C22E0281568F0BE9CF001BF9C0B
:10454000F00D1124E151FD4F809113028083809181
:104550001402818371100AC0BE9CF001BF9CF00D53
:104560001124E151FD4F138212826AC0BE9CE0010A
:10457000BF9CD00D1124C151DD4F8B818823F9F0F0
:1045800081508B832FEF829FC00111246C8170E0DA
:104590000E942933FB01FF27E85DFB4F8491E82F40
:1045A000E9192FEFE29FC0011124B8010E942933BD
:1045B00080911502689FB00111247A8341C00E9446
:1045C0004B32209115022695215830E0A901440F65
:1045D000551F322F2227240F351F232F33278217F1
:1045E000930774F582E0881588F40E944B32B60177
:1045F0000E943D3388830E944B32209114022695FD
:10460000622F70E00E943D33280F2983BE9CF00189
:10461000BF9CF00D1124E151FD4F128280911502D3
:10462000843120F0893C18F088EC01C084E1BE9C04
:10463000F001BF9CF00D1124E151FD4F8483838371
:10464000809106019701280F311DC901880F991F1C
:10465000280F391F29553D4FBE9CF001BF9CF00D1E
:104660001124E151FD4F4281618180810E94010648
:10467000A39459CFDF91CF911F910F91FF90EF90AD
:10468000DF90CF90BF90AF909F908F907F900C94D1
:104690003C050F931F93CF93DF93EC0100E010E0F4
:1046A00080910801282F30E00217130724F590911C
:1046B00006019801290F311DA901440F551F240F30
:1046C000351F29553D4F869590E04C8108171907F5
:1046D0001CF4442331F002C0411103C04091150283
:1046E00001C040E060911402809113020E94010613
:1046F0000F5F1F4FD5CF0E943C058C8190E0019643
:10470000817099278C83DF91CF911F910F9108952C
:104710008F929F92AF92BF92CF92DF92EF92FF92D1
:104720000F931F93CF93DF938C01FC014481C42F1F
:10473000D0E09E01DE010E9400339B01AC010E948B
:10474000CB326B017C01E0E2F0E0EC1BFD0BA5E558
:10475000B0E09B01AC010E94CB324B015C019F0198
:10476000DF010E945E339B01AC010E94D6329B01A7
:10477000AC012C0D3D1D4E1D5F1DC501B4010E94F5
:10478000DE32C22FD22F2A3228F4F3E02F9F90017D
:1047900011240DC025E530E02C1B3109C901880F1B
:1047A000991F280F391F37FF02C02F5F3F4F3595E4
:1047B0002795C22FC095F12C85E5E82EED1A809142
:1047C0000801F816C8F4F1FC02C08E2D01C08D2F2F
:1047D000909106012F2D30E0290F311DA901440FC2
:1047E000551F240F351F29553D4F4C2F6091140242
:1047F0000E940106F394E3CF0E943C05F8018481F6
:10480000811102C091E003C0803219F49FEF9093B0
:10481000220190912201890FF8018483DF91CF91C9
:104820001F910F91FF90EF90DF90CF90BF90AF90CE
:104830009F908F9008951F93CF93DF93EC018C810D
:10484000811109C081E08C831092A50292E09093BF
:104850002101809320018091060190910701891721
:1048600070F4E82FF0E09F01220F331FE20FF31FD7
:10487000E955FD4F1182108212828F5FF0CF10E058
:10488000609108011617C0F5E12FF0E070E0CF014C
:104890000E943D3320910601820F2091A502022E35
:1048A000000C330B90E0E217F307CCF020912101CC
:1048B000022E000C330B2E173F078CF09C01220FA9
:1048C000331F820F931F9C0129553D4F40911502C4
:1048D00060911402809113020E9401060BC0FC013A
:1048E000EE0FFF1F8E0F9F1FFC01E955FD4F118238
:1048F000108212821F5FC4CF0E943C05809120016C
:104900002091A502280F2093A50290912101980FD4
:104910009093210119165CF4022E000C330B409188
:10492000080150E0415051092417350734F08195B2
:1049300080932001813009F41C82DF91CF911F9177
:1049400008958F929F92AF92BF92CF92DF92EF9293
:10495000FF920F931F93CF93DF93EC018A8180FF27
:1049600003C0BB24BA9402C0BB24B3948C818111D0
:104970000DC081E0B81206C080910801815080937B
:10498000A40202C01092A40281E08C83A12C48E111
:10499000942E80910801A81608F044C08091060169
:1049A000CA2CD12C8601080F111DC801880F991F30
:1049B000080F191F09551D4FF8011182108212822C
:1049C00034E0E32EF12C812C8091A402880D8931F2
:1049D0002CF0692D0E941B33892F05C087FF03C06F
:1049E00090910801890F082E000C990BC816D90662
:1049F00091F4809115028E9DA0018F9D500D112480
:104A00005595479555954795980160911402809169
:104A100013020E9401068B0CF1E0EF1AF108A1F6D7
:104A2000A394B7CF0E943C058091A40291E0B912F3
:104A30000EC0811107C08091080181508093A402AB
:104A40001C820FC081508093A402BC820AC090E0F7
:104A500001966091080170E00E943D338093A402AA
:104A60008C83DF91CF911F910F91FF90EF90DF909A
:104A7000CF90BF90AF909F908F900895FF920F932B
:104A80001F93CF93DF93EC01F12C0FEF10E06091B7
:104A90000801F616F0F4809106012F2D30E0280F62
:104AA000311DC901880F991F280F391F29553D4F06
:104AB00070E0C8010E943D33962F8C814091150211
:104AC00060911402F99E800D11240E940106F39456
:104AD000DECF0E943C059A818C8190FF02C08F5FDF
:104AE00001C081508C83DF91CF911F910F91FF9076
:104AF00008950F931F93CF93DF9300D01F92CDB7EC
:104B0000DEB78C018091A60281110AC09E012F5F41
:104B10003F4F4FEF6FEF0E9401068A818093A602FC
:104B2000F8018481813051F028F0823061F44091A5
:104B3000A6020AC08091A60240E007C06091A602CA
:104B400040E080E003C040E080E060E00E94880533
:104B5000F801848190E0019663E070E00E943D33AB
:104B600084830F900F900F90DF91CF911F910F9141
:104B70000895CF93DF93EC01E2E1F2E0438162819B
:104B80008C810E9497068C818F5F8C83DF91CF91FF
:104B90000895CF93DF93EC01EC81F0E0E85DFB4FEB
:104BA0004491E2E1F2E0628181810E9497068C816A
:104BB0008F5F8C83DF91CF9108951F93CF93DF9305
:104BC000CDB7DEB767970FB6F894DEBF0FBECDBF87
:104BD000342F4B8B252F5C8B6D8B7E8B8F8B4E896F
:104BE0005F8961111092990286E0FE013D96DF0116
:104BF000982F1D929A95E9F73D872E876F87598BDD
:104C0000488BDE01179601900D928A95E1F7CE014F
:104C100007960E94A32081113EC086E0FE013796D0
:104C2000DE01119601900D928A95E1F7FF81E885EA
:104C30006A857B856115710531F0EF3F31F481E0C4
:104C4000FF3F19F403C081E001C080E080FD23C074
:104C50002091380230E0C901019687709927409170
:104C6000690250E08417950779F1F983EA837D831F
:104C70006C8396E0929FD001939FB00D1124A75CA6
:104C8000BD4FFE01319601900D929A95E1F7809308
:104C900038020E942D2016E080916902909138021E
:104CA0008917F9F0189FC0011124875C9D4F0E945D
:104CB000A3208823B1F08091690290E0019687706B
:104CC000992780936902E8CF0E94662210923802E9
:104CD00010926902E2E3F2E086E0DF011D928A951C
:104CE000E9F767960FB6F894DEBF0FBECDBFDF9130
:104CF000CF911F91089520916B0330916C03281779
:104D0000390771F090936C0380936B03E091E40199
:104D1000F091E501309721F00084F185E02D0994B0
:104D200008952091690330916A032817390771F0BB
:104D300090936A0380936903E091E401F091E501A7
:104D4000309721F00680F781E02D09940895E091D5
:104D5000E401F091E501309721F00190F081E02D20
:104D6000099480E008950F931F93CF93DF93C42F8E
:104D7000D22FFC0182818823C9F0409327020E9430
:104D80009C1D909368038093670380E28C0F8830AA
:104D900008F057C0C77081E001C0880FCA95EAF7D4
:104DA000DF91CF911F910F910C945D2D809127027F
:104DB000481330C080916703909168030E94491D99
:104DC000883C910538F510E21D0FCD17B9F080E24F
:104DD0008C0F883040F4C77081E001C0880FCA95FD
:104DE000EAF70E94522D183028F581E09D2F977028
:104DF00001C0880F9A95EAF70E945D2D802F0E94CE
:104E0000F52E1830F0F4D77081E001C0880FDA95E4
:104E1000EAF70AC080E28C0F883098F4C77081E00E
:104E200001C0880FCA95EAF7DF91CF911F910F91CA
:104E30000C94522D802FDF91CF911F910F910C94E4
:104E4000F52EDF91CF911F910F910895CF93DF93AE
:104E5000C7E6D2E060E0CE010E9478322196C1150B
:104E600084E0D807B9F7DF91CF9108950F931F938E
:104E7000CF93DF93843058F56C3048F5463038F5E1
:104E800021159CE5390731F4E0912302F0912402C9
:104E9000EF2BE9F08901C42FD0E0CC0FDD1F9CE09F
:104EA000699FC00DD11D112490E9899FC00DD11DAE
:104EB0001124612FCE0187960E947832602FCE0197
:104EC0008896DF91CF911F910F910C947832DF91EA
:104ED000CF911F910F9108958F929F92AF92BF92A1
:104EE000CF92DF92EF92FF920F931F93CF93DF93B6
:104EF000C0902302D090240281E090E0909324029D
:104F000080932302812CE12CF12C912C00E010E005
:104F1000C0E0D0E05701A00EB11EFE01EE0FFF1F52
:104F2000EA0DFB1DE85DFA4F259134914C2F692D58
:104F3000882D0E9436272196C630D10571F7045F6F
:104F40001F4F93948CE09812E3CF80E9E80EF11C98
:104F5000839484E08812D9CFD0922402C092230295
:104F6000DF91CF911F910F91FF90EF90DF90CF9045
:104F7000BF90AF909F908F9008950F931F93CF9302
:104F8000DF93843008F56C30F8F44630E8F4C42F31
:104F9000D0E0CC0FDD1F2CE0629FC00DD11D11248D
:104FA00030E9839FC00DD11D1124CE0187960E9448
:104FB000643290E0182F0027CE0188960E94643258
:104FC0009801282BC90102C080E090E0DF91CF91C9
:104FD0001F910F910895462F2091250230912602AE
:104FE000232B49F4843038F47C3028F4663018F4EC
:104FF000672F0C94BD2780E090E0089590911202F5
:1050000090FF04C09695981740F003C0811105C029
:1050100090E0961710F40C94A90E61E00C942B0EFE
:10502000882311F0FA0101C0FB010994E0EFF1E0DF
:105030001182828184608283089560911202669554
:1050400070E04BE050E085E191E00E946D33892BE8
:1050500019F481E08093F1010E94A81D9093EB0167
:105060008093EA018091F20184608093F2010895B7
:105070000F931F938091840390918503A0918603E1
:10508000B09187038C019D010670112722273327D9
:10509000BC01CD01063011052105310511F4686010
:1050A00001C0677F1F910F910C94B61F1F93CF9380
:1050B000DF93CDB7DEB7AA970FB6F894DEBF0FBE69
:1050C000CDBFEBE7F3E08091F100819343E0E3385B
:1050D000F407C9F780917C03833009F462C030F48F
:1050E000813071F0823009F49CC0B3C08A3009F479
:1050F00088C08B3009F46DC0893009F0AAC020C087
:1051000080917B03813A09F0A4C08091E800877FF9
:105110008093E80080917F0390918003892B21F494
:1051200068E080E793E003C060E080E090E070E03A
:105130000E94672F8091E8008B778093E80089C0F8
:1051400080917B03813209F084C080917F0390912C
:105150008003009719F0029709F07BC08091E80066
:10516000877F8093E8008091E80082FD05C08091F0
:1051700083038111F8CF6DC02091F3008091F2007C
:1051800090E0922B029729F48091F1008B7F81307F
:1051900021F48091F10080936F038091E8008B7778
:1051A00054C080917B03813A09F053C080917F0302
:1051B00090918003892B09F04CC08091E800877F93
:1051C0008093E8008091E80080FFFCCF809123016C
:1051D00037C080917B038132E1F580917F0390910C
:1051E0008003892BB1F58091E800877F8093E800E8
:1051F0000E94132F80917D03809323010E946622D9
:1052000028C080917B03813221F58091E800877F5F
:105210008093E8000E94132F80917E0380936E0399
:1052200018C080917B03813AA1F48091E800877FC8
:105230008093E8008091E80080FFFCCF80916E03AE
:105240008093F1008091E8008E778093E8000E94BF
:10525000132F8091E80083FFE9C180917B03909137
:105260007C03492F50E04A30510508F0DFC1FA01B4
:10527000E758FF4F0C945133803821F0823809F001
:10528000D5C108C08091780390917903992389F062
:1052900082600FC080917F038F70873008F0C6C195
:1052A0008093E9008091EB0085FB882780F91092BC
:1052B000E9009091E800977F9093E8008093F100D7
:1052C0001092F1007CC1282F2D7F09F0AFC18823F7
:1052D00019F0823061F0AAC180917D03813009F01C
:1052E000A5C1933009F080E0809379032EC08091AE
:1052F0007D0381112AC080917F038F702FEF280FCB
:10530000263008F093C18093E9002091EB0020FF44
:105310001CC0933021F48091EB00806214C0909106
:10532000EB0090619093EB0021E030E0A90102C016
:10533000440F551F8A95E2F74093EA001092EA0065
:105340008091EB0088608093EB001092E9008091DF
:10535000E800877F8093E8000E94132F67C18111C6
:1053600065C110917D031F778091E3008078812BC8
:105370008093E3008091E800877F8093E8000E949B
:10538000132F8091E80080FFFCCF8091E3008068BC
:105390008093E300111102C082E001C083E080939A
:1053A000830344C18058823008F040C120917D03BE
:1053B00030917E032C3D53E0350779F583E08A83F5
:1053C0008AE289834FB7F894DE01139620E03EE02D
:1053D00051E2E32FF0E050935700E49120FF03C027
:1053E000E295EF703F5FEF708E2F90E0EA3010F0A3
:1053F000C79601C0C0968D939D932F5F243149F7C6
:105400004FBF8091E800877F8093E8006AE270E0F8
:10541000CE0101960E94672FC0C080917F039091BA
:105420008003432F552743305105B1F068F44130D4
:10543000510509F40AC14230510509F0F7C08BE566
:1054400090E0EBE4F8E057C04132510589F1423277
:10545000510509F43CC0EAC0C90199278130910582
:10546000B9F070F082309105D9F0039709F0DEC0F1
:10547000E8EBF8E0E4918E2F90E0E8EBF8E038C03C
:10548000ECEFF8E0E4918E2F90E0ECEFF8E030C024
:10549000E6EEF8E0E4918E2F90E0E6EEF8E028C02A
:1054A000E6EDF8E0E4918E2F90E0E6EDF8E020C024
:1054B0008330910508F0BAC0880F991FFC01EA57A4
:1054C000FE4F0190F081E02D89E090E014C0833020
:1054D000910508F0ABC0FC01EE0FFF1FE058FE4F36
:1054E0000190F081E02DDC01A358BE4F8C9190E03B
:1054F000009709F49BC02091E800277F2093E800E3
:1055000020918103309182032817390708F4C901DB
:1055100040E0009789F120918303222309F43DC0E4
:105520002530D9F12091E80023FD37C02091E80013
:1055300022FD2FC02091E80020FFEBCF4091F30027
:105540002091F20030E0342B009759F028303105DB
:1055500040F444914093F100319601972F5F3F4F03
:10556000F3CF41E02830310509F040E02091E80018
:105570002E772093E800CDCF4111CDCF0AC0809186
:105580008303882351F0853041F08091E80083FD4A
:1055900004C08091E80082FFF2CF8091E8008B7711
:1055A0008093E80043C0803809F040C08091E80053
:1055B000877F8093E80080917A038093F100809147
:1055C000E8008E77C7CE811131C080917D03909124
:1055D0007E039927029754F58091E800877F809396
:1055E000E80010917D0310937A030E94132F11118C
:1055F00006C08091E30087FD02C081E001C084E025
:105600008093830342E061EC81E00E94322F42E20A
:1056100061EC84E00E94322F42E261EC82E00E9461
:10562000322F42E260EC83E00E94322F8091E8004A
:1056300083FF10C08091E800877F8093E80080910D
:10564000EB0080628093EB0005C082E190E0E6EA27
:10565000F8E051CFAA960FB6F894DEBF0FBECDBFCB
:10566000DF91CF911F9108951F920F920FB60F9265
:1056700011242F933F934F935F936F937F938F9357
:105680009F93AF93BF93CF93DF93EF93FF93C0911B
:10569000E900CF708091EC00D82FD17080FDD0E868
:1056A0001092E9008091F000877F8093F000789459
:1056B0000E9456281092E9008091F0008860809343
:1056C000F000CD2BCF70C093E900FF91EF91DF91F7
:1056D000CF91BF91AF919F918F917F916F915F918A
:1056E0004F913F912F910F900FBE0F901F901895E3
:1056F000E8EDF0E080818E7F80831092E2001092CE
:10570000DA001092E100A0EEB0E08C9181608C9301
:1057100080818F77808319BCA7EDB0E08C918E7F5C
:105720008C9380818F7E808310926D030895CF9239
:10573000DF92EF92FF920F931F93CF93DF93C8ED09
:10574000D0E088818F7E8883E7EDF0E08081816002
:10575000808384E082BF81E080936D0388818E7FA7
:10576000888302EE10E0F80110821092DA0081EED8
:10577000C82ED12CF601108288818F77888388818A
:105780008068888388818F7D888319BC1092830309
:1057900010927A03109279031092780390EEE92E1A
:1057A000F12CF70180818B7F8083888181608883E1
:1057B00042E060E080E00E94322FF60180818E7F1F
:1057C0008083F8018081816080838081886080830C
:1057D000F70180818E7F8083888180618883DF915B
:1057E000CF911F910F91FF90EF90DF90CF90089590
:1057F0001F920F920FB60F9211242F933F934F9346
:105800005F936F937F938F939F93AF93BF93EF9328
:10581000FF938091E10082FF09C08091E20082FF46
:1058200005C08091E1008B7F8093E1008091DA00D8
:1058300080FF2AC08091D80080FF26C08091DA00C6
:105840008E7F8093DA008091D90080FF18C080E1BC
:1058500089BD82E189BD09B400FEFDCF81E080935E
:10586000830380916D0381110FC00E94782B0E94E9
:10587000972B8091E20084608093E20005C019BC00
:105880001092830310926D038091E10080FF17C096
:105890008091E20080FF13C08091E2008E7F8093B0
:1058A000E2008091E20080618093E2008091D80064
:1058B00080628093D80019BC85E080938303809137
:1058C000E10084FF2EC08091E20084FF2AC080E1C5
:1058D00089BD82E189BD09B400FEFDCF8091D80069
:1058E0008F7D8093D8008091E1008F7E8093E100CE
:1058F0008091E2008F7E8093E2008091E2008160DF
:105900008093E20080917A03882311F084E007C03D
:105910008091E30087FD02C081E001C083E08093B5
:1059200083038091E10083FF27C08091E20083FF21
:1059300023C08091E100877F8093E10082E0809323
:10594000830310927A038091E1008E7F8093E100BF
:105950008091E2008E7F8093E2008091E20080617E
:105960008093E20042E060E080E00E94322F80916C
:10597000F00088608093F000FF91EF91BF91AF91AC
:105980009F918F917F916F915F914F913F912F9157
:105990000F900FBE0F901F9018952091E40030914A
:1059A000E50095E64091EC00842F817040FF23C014
:1059B0008091E80080FD1DC080918303882399F0C9
:1059C000853099F08091EB0085FD11C04091E40095
:1059D0005091E5002417350729F3915011F09A01F1
:1059E000E1CF84E0089582E0089583E0089581E0A6
:1059F000089580E008954091E80042FFDDCF0895CA
:105A0000EF92FF920F931F93CF93DF937C018B0153
:105A10000E94CD2C811119C0E70101151105A1F0DB
:105A20008091E80085FD0AC08091E8008E77809320
:105A3000E8000E94CD2C882381F307C089918093D0
:105A4000F10001501109E9CF80E0DF91CF911F9162
:105A50000F91FF90EF900895CF932091830324300E
:105A6000F9F4C091E900CF703091EC00232F217040
:105A700030FD20E8C22B22E02093E9002091E800CD
:105A800020FF0BC040E050E060E270E00E94002D7B
:105A90008091E8008E778093E800CF70C093E90092
:105AA000CF910895882341F0809590919A0289239F
:105AB00080939A020C94831E0895882339F0909164
:105AC0009A02892B80939A020C94831E089588234E
:105AD00009F463C0823869F40E94A72681FF5DC083
