:100000000C9452080C94322F0C9499080C94990873
:100010000C9499080C9499080C9499080C949908DC
:100020000C9499080C9499080C94CD260C940926EC
:100030000C94A81F0C9499080C9499080C94990896
:100040000C9499080C9499080C9499080C949908AC
:100050000C9499080C94BB1E0C9499080C94990864
:100060000C9499080C9499080C9499080C9499088C
:100070000C9499080C9499080C9499080C9499087C
:100080000C9499080C9499080C9499080C9499086C
:100090000C9499080C9499080C9499080C9499085C
:1000A0000C9499080C9499080C949908661366139B
:1000B000A013A013F3130F14A115A1151A14F8140B
:1000C00009150915AD12FD15021607160C161116A5
:1000D00016161B16201625162A163116F512F512BD
:1000E000F512F512F512F512F512F51223244A2431
:1000F000EB254A24EB259624B924EB25AE25BD2516
:10010000E82BE82BFB2BFB2BF12BFB2BFB2BFB2BEF
:10011000E82BE82BF62BFB2BFB2BF62B7267626C84
:10012000696768742064697361626C65205B4E4F17
:10013000454550524F4D5D3A207267626C69676861
:10014000745F636F6E6669672E656E61626C6520B1
:100150003D2025750A007267626C69676874206DBE
:100160006F6465205B4E4F454550524F4D5D3A20C0
:1001700025750A007267626C69676874206D6F6428
:1001800065205B454550524F4D5D3A2025750A006C
:10019000000101010101010101010202020202024A
:1001A000020202030303030303030304040404041D
:1001B00004040505050505060606060607070707E4
:1001C0000708080808090909090A0A0A0B0B0B0C99
:1001D0000C0C0D0D0D0E0E0E0F0F0F101011111136
:1001E00012121313141415151616171718181919B7
:1001F0001A1A1B1B1C1D1D1E1E1F2020212222231C
:100200002424252626272829292A2B2C2D2D2E2F5C
:1002100030313232333435363738393A3B3C3D3E73
:100220003F404142434445464748494A4C4D4E4F62
:1002300050515354555658595A5B5D5E5F61626424
:10024000656668696B6C6D6F7072737577787A7BB1
:100250007D7E8082838587888A8C8E8F9193959608
:10026000989A9C9EA0A2A3A5A7A9ABADAFB1B3B528
:10027000B7BABCBEC0C2C4C6C9CBCDCFD1D4D6D804
:10028000DBDDDFE2E4E7E9EBEEF0F3F5F8FAFDFFA2
:100290007267626C6967687420736574206873762E
:1002A000205B4E4F454550524F4D5D3A2025752CF1
:1002B00025752C25750A007267626C696768742061
:1002C00073657420687376205B454550524F4D5DD1
:1002D0003A2025752C25752C25750A0025303258B5
:1002E000007267626C696768742064697361626C2C
:1002F00065205B454550524F4D5D3A207267626CF8
:10030000696768745F636F6E6669672E656E6162A8
:100310006C65203D2025750A007267626C6967680C
:100320007420656E61626C65205B454550524F4D8F
:100330005D3A207267626C696768745F636F6E66AE
:1003400069672E656E61626C65203D2025750A0027
:100350007267626C6967687420746F67676C652088
:100360005B454550524F4D5D3A207267626C69673C
:1003700068745F636F6E6669672E656E61626C6537
:10038000203D2025750A0044454255473A206469BE
:100390007361626C65642E0A0044454255473A20F9
:1003A000656E61626C65642E0A0001000100010047
:1003B0000100010001000100010001000100010035
:1003C0000100010001000100010001000100010025
:1003D00001000100010001000100010001510100C4
:1003E0000100010001000000010001000100010006
:1003F00001000100010001000100010001000100F5
:1004000001000100010001000100010001000100E4
:1004100001000100010001000100010001000100D4
:100420000100010001510100010001000100010073
:1004300001000100010001000000005CC05C01003F
:100440000100010001000100BC5CBF5CC15C010057
:1004500001000100BD5CBE5CC25C01000100C35C28
:10046000C45CC65CC85CCC5C010001000100C75CD8
:10047000C95CCD5C01000000010001000100010029
:100480000100005CC05C01000100010001000100EE
:10049000BC5CBF5CC15C010001000100BD5CBE5CD6
:1004A000C25C01000100C35CC45CC65CC85CCC5C7F
:1004B000010001000100C75CC95CCD5C01000100C6
:1004C00001000100010001000000776865726520ED
:1004D00064656C74613A20637572736F723D256454
:1004E0002C20776865656C3D25640A536565206836
:1004F0007474703A2F2F656E2E77696B697065641E
:1005000069612E6F72672F77696B692F4D6F7573F5
:10051000655F6B6579730A000A092D204D6F75734D
:10052000656B6579202D0A4553432F713A09717522
:1005300069740A313A0964656C6179282A31306D31
:1005400073290A323A09696E74657276616C286D96
:1005500073290A333A096D61785F73706565640ABF
:10056000343A0974696D655F746F5F6D61780A353F
:100570003A09776865656C5F6D61785F7370656572
:10058000640A363A09776865656C5F74696D655F02
:10059000746F5F6D61780A0A703A097072696E74DF
:1005A0002076616C7565730A643A0973657420641A
:1005B000656661756C74730A75703A092B310A644B
:1005C0006F776E3A092D310A706775703A092B31D1
:1005D000300A7067646F776E3A092D31300A0A73FA
:1005E00070656564203D2064656C7461202A206D0F
:1005F00061785F7370656564202A20287265706574
:100600006174202F2074696D655F746F5F6D617810
:10061000290A004C25640A007267626C6967687475
:100620005F636F6E6669672E7370656564203D2039
:1006300025640A007267626C696768745F636F6E35
:100640006669672E76616C203D2025640A0072671A
:10065000626C696768745F636F6E6669672E736149
:1006600074203D2025640A007267626C69676874B3
:100670005F636F6E6669672E687565203D2025642F
:100680000A007267686C696768745F636F6E666999
:10069000672E6D6F6465203D2025640A00726762D5
:1006A0006C696768745F636F6E6669672E656E61FB
:1006B000626C65203D2025640A007267626C696780
:1006C00068745F636F6E66696720454550524F4D91
:1006D0003A0A007267626C696768745F696E697470
:1006E000207267626C696768745F636F6E666967C2
:1006F0002E6D6F6465203D20302E20577269746521
:100700002064656661756C742076616C7565732014
:10071000746F20454550524F4D2E0A007267626C2F
:10072000696768745F696E6974206565636F6E667A
:100730006967206973206E6F7420656E61626C65F5
:10074000642E0A007267626C696768745F696E691B
:1007500074207374617274210A007267626C696735
:1007600068745F696E69742063616C6C65642E0ADD
:10077000000A0025303862003A2000253032580047
:100780000A722F632030313233343536370A000A8B
:100790000025303258006B6579626F6172645F7357
:1007A00065745F6C65643A20005B735D004B65792E
:1007B000626F6172642073746172742E0A00290A78
:1007C000002575002F002575005D28002564002098
:1007D00000256400200025640020002564007C00C2
:1007E00025303258006D6F7573656B6579205B62DB
:1007F000746E7C782079207620685D287265702F71
:1008000061636C293A205B000A002575002E6E6B2F
:10081000726F3A20000A002575002E737761705FB1
:100820006261636B736C6173685F6261636B737049
:100830006163653A20000A002575002E73776170A8
:100840005F67726176655F6573633A20000A002511
:1008500075002E6E6F5F6775693A20000A00257576
:10086000002E737761705F72616C745F7267756977
:100870003A20000A002575002E737761705F6C6165
:100880006C745F6C6775693A20000A002575002E4C
:10089000737761705F7263746C5F726775693A2019
:1008A000000A002575002E737761705F6C63746CAD
:1008B0005F6C6775693A20000A002575002E636138
:1008C00070736C6F636B5F746F5F636F6E74726F66
:1008D0006C3A20000A002575002E737761705F6303
:1008E0006F6E74726F6C5F636170736C6F636B3A81
:1008F00020000A0025303258006B65796D61705F09
:10090000636F6E6669672E7261773A20000A002570
:1009100075002E6D6F7573653A20000A002575000D
:100920002E6B6579626F6172643A20000A0025754A
:10093000002E6D61747269783A20000A00257500F6
:100940002E656E61626C653A20000A0025303258CF
:100950000064656275675F636F6E6669672E7261BA
:10096000773A20000A0025750064656661756C742D
:100970005F6C617965723A20000A092D204D61672C
:100980006963202D0A443A094465627567204D6504
:10099000737361676520546F67676C650A583A091D
:1009A0004D6174726978204465627567204D6F648B
:1009B0006520546F67676C65202D2053686F772022
:1009C0006B65797072657373657320696E206D61F4
:1009D0007472697820677269640A4B3A094B6579C9
:1009E000626F61726420446562756720546F676747
:1009F0006C65202D2053686F77206B657970726568
:100A00007373207265706F72740A4D3A094465629F
:100A10007567204D6F75736520546F67676C650A45
:100A2000563A0956657273696F6E0A533A095374E0
:100A3000617475730A433A09416374697661746538
:100A400020436F6E736F6C65204D6F64650A46318D
:100A50002D4631303A0953776974636820746F20EA
:100A60004C6179657220302D392028463130203D87
:100A7000204C30290A302D393A095377697463685C
:100A800020746F204C6179657220302D390A4752ED
:100A90004156453A0953776974636820746F204C56
:100AA0006179657220302028616C7465726E6174A2
:100AB00065290A423A094A756D7020746F20426FA9
:100AC0006F746C6F616465720A4553433A094A75E5
:100AD0006D7020746F20426F6F746C6F616465720B
:100AE0002028616C7465726E617465290A453A0943
:100AF0005072696E7420454550524F4D20536574B5
:100B000074696E67730A4253504143453A09436C16
:100B100065617220454550524F4D0A000A092D204B
:100B2000436F6E736F6C65202D0A4553432F713AE6
:100B300009717569740A6D3A096D6F7573656B6536
:100B4000790A004743433A20352E342E302041564F
:100B5000522D4C4942433A20322E302E30204156FD
:100B6000525F415243483A20617672350A004F5035
:100B700054494F4E533A204C554641204D4F555302
:100B8000454B45592045585452414B455920434FF8
:100B90004E534F4C4520434F4D4D414E44204C54F5
:100BA0004F20343039360A004255494C443A20200F
:100BB000284A616E2032312032303231290A005603
:100BC00049443A20307834343530284D414E55462A
:100BD0004143545552455229205049443A203078D7
:100BE000333036302844616374796C204572676F06
:100BF000283678362929205645523A203078303028
:100C000030310A000A092D2056657273696F6E2013
:100C10002D0A0074696D65725F72656164333228F4
:100C2000293A202530346C580A006B6579626F616F
:100C300072645F69646C653A2025580A006B6579B7
:100C4000626F6172645F70726F746F636F6C3A2071
:100C500025580A00686F73745F6B6579626F617203
:100C6000645F6C65647328293A2025580A000A09D4
:100C70002D20537461747573202D0A003F000A6D96
:100C80006F7573653A206F66660A000A6D6F75733B
:100C9000653A206F6E0A000A6B6579626F61726453
:100CA0003A206F66660A000A6B6579626F6172644A
:100CB0003A206F6E0A000A6D61747269783A206F8B
:100CC00066660A000A6D61747269783A206F6E0A6E
:100CD000000A64656275673A206F66660A000A64F6
:100CE000656275673A206F6E0A000A0A4A756D7070
:100CF000696E6720746F20626F6F746C6F616465DA
:100D0000722E2E2E2000433E2000436C65617269D6
:100D10006E6720454550524F4D0A006565636F6E02
:100D20006669673A0A006D6B5F776865656C5F742A
:100D3000696D655F746F5F6D6178203D2025640A81
:100D4000006D6B5F776865656C5F6D61785F737070
:100D5000656564203D2025640A006D6B5F74696DD4
:100D6000655F746F5F6D6178203D2025640A006DBA
:100D70006B5F6D61785F7370656564203D202564ED
:100D80000A006D6B5F696E74657276616C203D2040
:100D900025640A006D6B5F64656C6179203D2025D8
:100DA000640A006D6B5F776865656C5F74696D657B
:100DB0005F746F5F6D6178203D2025640A006D6B64
:100DC0005F776865656C5F6D61785F73706565649A
:100DD000203D2025640A006D6B5F74696D655F744A
:100DE0006F5F6D6178203D2025640A006D6B5F6D3B
:100DF00061785F7370656564203D2025640A006D2D
:100E00006B5F696E74657276616C203D2025640AA3
:100E1000006D6B5F64656C6179203D2025640A007C
:100E20000631FF0974A1010975150026FF00952000
:100E3000750881020976150026FF00952075089136
:100E400002C005010902A10185020901A1000509ED
:100E500019012905150025019505750181029501E6
:100E6000750381010501093009311581257F95023E
:100E70007508810609381581257F95017508810659
:100E8000050C0A38021581257F950175088106C079
:100E9000C005010980A101850319012AB7001501C8
:100EA00026B700950175108100C0050C0901A1014C
:100EB000850419012AA002150126A00295017510CA
:100EC0008100C005010906A101050719E029E71500
:100ED00000250195087501810295017508810105BC
:100EE00007190029FF150026FF00950675088100E7
:100EF00005081901290595057501910295017503EC
:100F00009101C05B435D005B445D005B535D005B32
:100F1000575D005B525D0009025B00030100A0FA0F
:100F2000090400000103010100092111010001224F
:100F300040000705810308000A09040100010300BD
:100F40000000092111010001228100070582032010
:100F5000000A090402000203000000092111010037
:100F60000122220007058303200001070503032057
:100F7000000112011001000000085044603001001F
:100F80000102000122034400610063007400790043
:100F90006C0020004500720067006F0028003600DA
:100FA00078003600290000001A034D0041004E0071
:100FB00055004600410043005400550052004500D2
:100FC00052000000040309040A00253032582000B2
:100FD0006B6579626F6172645F7265706F72743A8B
:100FE00020003F004D3E2000433E20000A002575B2
:100FF00000363A20776865656C5F74696D655F746B
:101000006F5F6D61783A20000A00257500353A203F
:10101000776865656C5F6D61785F73706565643A6C
:1010200020000A00257500343A2074696D655F74EC
:101030006F5F6D61783A20000A00257500333A2011
:101040006D61785F73706565643A20000A002575EC
:1010500000323A20696E74657276616C286D73296E
:101060003A20000A00257500313A2064656C6179E8
:10107000282A31306D73293A20000A092D20566143
:101080006C756573202D0A004D3E004D25643E2091
:10109000003F007365742064656661756C740A00B6
:1010A000433E200011241FBECFEFDAE0DEBFCDBFEC
:1010B00004B603FE27C08091A8029091A902A091D6
:1010C000AA02B091AB028730904BA740B04BD1F44D
:1010D0001092A8021092A9021092AA021092AB02DA
:1010E00014BE84B7877F84BF0FB6F894A89580910B
:1010F0006000886180936000109260000FBEE0E0A5
:10110000F8E3099522E0A4E8B1E001C01D92A83AF5
:10111000B207E1F711E0A0E0B1E0E2E9F1E602C0D8
:1011200005900D92A438B107D9F70E941A180C94B3
:10113000C7300C940000FF93EF93E0918401F0918D
:101140008501309709F00995EF91FF910895FC0111
:101150008591803011F0EFDFFBCF0895FF27E0E2AB
:1011600030E247FF0CC0419597FF09C0EDE2609562
:10117000709580959095611D711D811D911D27FFB2
:1011800002C0219530E350E2AA27660F771F881F1F
:10119000991FAA1FA41710F0A41B63955A95A9F7CD
:1011A000AA3008F0A95FA05DAF93F39561157105B2
:1011B0008105910541F7ED3211F4EF93F395F217A4
:1011C00018F43F93F395FBCF8F91B5DFFA95E1F7D4
:1011D0000895E991F9918591803021F0853219F0D7
:1011E000AADFF9CF089520E0E89455915532C1F374
:1011F000503311F4689455915A3348F4505390F396
:10120000220F022E220F220F200D250FF4CF0EF4F5
:10121000219589919991533619F3533729F1533513
:1012200059F1BC0188279927E8945C3621F489910B
:10123000999168945591543639F446EF7EF077FFD2
:101240000DC08FEF9FEF0AC055374AE039F058358F
:1012500040E121F0523642E009F00895FF93EF9308
:101260007DDFEF91FF91B7CFFF93EF93FC01819169
:101270008030B9F360DFFBCFFF93EF9368DFF1CFEE
:10128000DF93CF93CDB7DEB72596A3DFCF91DF9164
:1012900008959091DA0192FF0DC0282F287128300F
:1012A00019F4877F846006C0282F2471243011F43C
:1012B0008B7F886093FF0DC0282F2871283119F487
:1012C000877E846106C0282F2471243111F48B7E1F
:1012D00088612091DB0120FF0DC0382F3871383034
:1012E00019F4877F816006C0382F3171313011F4D5
:1012F0008E7F886021FF0DC0282F2871283119F4B6
:10130000877E816106C0282F2171213111F48E7EE4
:10131000886194FD877E08951F93CF93DF93CDB7A7
:10132000DEB767970FB6F894DEBF0FBECDBF4B8B0D
:101330005C8B6D8B7E8B8F8B86E09E01235F3F4F96
:10134000D901E82F1D92EA95E9F795E0FE01739621
:10135000D90101900D929A95E1F7F901DE011796F6
:1013600001900D928A95E1F7CE0107960E94132A0B
:1013700081113EC086E0FE013796DE011196019094
:101380000D928A95E1F7FF81E8856A857B85611575
:10139000710531F0EF3F31F481E0FF3F19F403C0F4
:1013A00081E001C080E080FD23C02091410230E057
:1013B000C9010196877099274091720250E0841705
:1013C000950779F1F983EA837D836C8396E0929F98
:1013D000D001939FB00D1124AE5BBD4FFE0131963D
:1013E00001900D929A95E1F7809341020E949D2908
:1013F00016E080917202909141028917F9F0189FCE
:10140000C00111248E5B9D4F0E94132A8823B1F0E6
:101410008091720290E00196877099278093720202
:10142000E8CF0E941C2C1092410210927202EBE352
:10143000F2E086E0DF011D928A95E9F767960FB624
:10144000F894DEBF0FBECDBFDF91CF911F910895FD
:101450002091B3013091B4012817390771F09093AE
:10146000B4018093B301E091E501F091E60130977A
:1014700021F00084F185E02D099408952091B101B7
:101480003091B2012817390771F09093B20180931F
:10149000B101E091E501F091E601309721F006807D
:1014A000F781E02D09940895E091E501F091E601BE
:1014B000309721F00190F081E02D099480E00895AB
:1014C0000F931F93CF93DF93C42FD22FFC01828100
:1014D0008823C9F04093B5010E94F01E9093B0019B
:1014E0008093AF0180E28C0F883008F05EC0C77037
:1014F00081E001C0880FCA95EAF7DF91CF911F9173
:101500000F910C94322C8091B50148133EC080910C
:10151000AF019091B0010E94E11E883C9105A8F5B1
:1015200010E21D0FCD17B9F080E28C0F883040F427
:10153000C77081E001C0880FCA95EAF70E94272C86
:10154000183048F481E09D2F977001C0880F9A955C
:10155000EAF70E94322C802F0E94A32C093349F411
:10156000FFEF27EE83E0F15020408040E1F700C01C
:101570000000802F0E943C2C1830B8F4D77081E016
:1015800001C0880FDA95EAF70AC080E28C0F883034
:1015900060F4C77081E001C0880FCA95EAF7DF9157
:1015A000CF911F910F910C94272CDF91CF911F9118
:1015B0000F910895882311F0FA0101C0FB010994ED
:1015C000309101018091DF0180FF16C0E0910001A0
:1015D00063E0E69FF0011124E557FE4F539A8BB16B
:1015E000877F9BB198602FB7F894AF0163E0369F77
:1015F000400D511D112414C08091020190910301EE
:10160000891720F7E82FF0E0AF01440F551FE40FD2
:10161000F51FE557FE4F1182108212828F5FF0CFC7
:10162000E417F50789F0319168E09BB9000000C02C
:1016300037FF8BB9330F000000C000C000C08BB96A
:1016400000C06A9591F7ECCF2FBF8FE594E001972A
:10165000F1F700C0000008958091DF01982F969562
:10166000913021F0817082608093DF010895CF92E4
:10167000DF92EF92FF926B017C010E942C0BB7016D
:10168000A60188E090E0FF90EF90DF90CF900C945F
:101690006B309F92AF92BF92CF92DF92EF92FF9208
:1016A0000F931F93CF93DF939091DF0190FFFFC0C3
:1016B000922E142FD62FC82FE92FE695F0E0EA5D81
:1016C000FE4F80818093DC019E7F923009F095C0AF
:1016D000E42FF0E0611106C0E057FE4FE491FE2FC9
:1016E0002E2F72C0E62EF12CE057FE4FF4910F2FF3
:1016F000CF2ED12C26E0C29FC00111242FEF30E065
:10170000B9010E9499304BEA4603C001479F900DF2
:1017100011248C0F911D8C0F911DB82EBB0CB80E8F
:10172000A9014E195F094C9DC0014D9D900D5C9D16
:10173000900D1124E92FDB9DA0011124452F552781
:10174000D901A41BB50BAC9DA001AD9D500DBC9D56
:10175000500D1124D901AB19B1095D01AE9CD00126
:10176000AF9CB00DBE9CB00D1124AB2FBB272A1B24
:101770003B0B2C9DD0012D9DB00D3C9DB00D112437
:101780002B2F6230710591F048F461157105E1F07D
:1017900061307105B9F42F2FF52F16C06430710533
:1017A00069F040F06630710579F00CC02F2FF92FE9
:1017B000EB2F0AC0F92FE02F252F06C0292FEF2F7E
:1017C000FB2F02C0292FE52F809102019091030188
:1017D000891788F4A82FB0E0AD01440F551FA40F5E
:1017E000B51FA557BE4F1196FC9311972C931296D7
:1017F000EC938F5FEDCF0E94E00A8091E001C81367
:1018000008C08091E101D81304C08091E20118174B
:1018100029F08091DE0182608093DE01C093E001B7
:10182000D093E1011093E201992049F16091DF0129
:101830007091E0018091E1019091E2010E94370BEB
:101840008091020280FF33C08091E2011F928F934A
:101850008091E1011F928F938091E0011F928F93FD
:1018600087EB92E09F938F930E9440098DB79EB7BC
:1018700008960FB6F8949EBF0FBE8DBF18C080911A
:10188000020280FF14C01F921F931F92DF931F92CA
:10189000CF9380E992E09F938F930E944009ADB768
:1018A000BEB718960FB6F894BEBF0FBEADBFDF919E
:1018B000CF911F910F91FF90EF90DF90CF90BF904D
:1018C000AF909F900895EFEDF1E0438121E1421B3D
:1018D00008F440E021E0628181810C94490BEFED36
:1018E000F1E0438121E1420F08F44FEF21E06281F2
:1018F00081810C94490BEFEDF1E0628121E1621BE3
:1019000008F460E021E0438181810C94490BEFED04
:10191000F1E0628121E1620F08F46FEF21E0438181
:1019200081810C94490BEFEDF1E0818121E043814D
:10193000628188500C94490BEFEDF1E0818121E048
:1019400043816281885F0C94490B8091E301882375
:1019500019F081508093E3016091DF017091E00103
:101960008091E1019091E2010C94370B8091E301A9
:10197000833018F48F5F8093E3016091DF017091F1
:10198000E0018091E1019091E2010C94370B80918C
:10199000DF0180FF3BC0817082608093DF01809116
:1019A000DE0181608093DE016623B1F06091DF018A
:1019B0007091E0018091E1019091E2010E94370B6A
:1019C0008091020280FF19C08091DF0186951F92ED
:1019D0008F9384E791E009C08091020280FF0DC0DF
:1019E0001F9281E08F9386E591E09F938F930E94F1
:1019F00040090F900F900F900F9020E04091E2016E
:101A00006091E1018091E0010C94490B089580916F
:101A1000DF018695815009F481E061E00C94C70CE8
:101A200061E081E00C94C70CEFEDF1E083E080838E
:101A300011828FEF828383831482ACEDB1E0129622
:101A40008C911297836012968C9360817181828150
:101A500093810C94370B80918A01811112C080917F
:101A6000D80080618093D8008AE18A95F1F700C0A0
:101A70008091D90080FD02C082E001C081E08093A6
:101A80008A0181E090918A01913009F080E0089507
:101A9000F894E82FE295EF70F0E031A1282F2F7035
:101AA00081E090E001C0880F2A95EAF7982F909581
:101AB000932391A392A1892B82A3789408958F9266
:101AC0009F92AF92BF92CF92DF92EF92FF920F93CD
:101AD0001F93CF93DF9308E211E088ECE82E81E0BA
:101AE000F82E9EE2892E91E0992E6701D0E0AA247B
:101AF000A394B12CB801D8018C91F894E82FE29509
:101B0000EF70F0E021A18F70A50102C0440F551FB6
:101B10008A95E2F7CA01922F982B91A392A1809502
:101B2000892382A3789450EA5A95F1F7E4E3F1E02F
:101B300020E030E0C0E04191842F82958F7090E0EA
:101B4000DC0190968C9190E04F7002C0959587953E
:101B50004A95E2F780FD07C08A2D022E01C0880F4A
:101B60000A94EAF701C080E0C82B2F5F3F4F263070
:101B7000310509F70F5F1F4FFB0180810E94480D5F
:101B8000D6018C91C81719F0CC9381E001C080E098
:101B9000D82BBFEFCB1ADB0A8016910609F0AACF2B
:101BA000C091D501DD2349F081E0809388010E9436
:101BB000F01E90938701809386018091880188238D
:101BC000B9F080918601909187010E94E11E0697ED
:101BD00078F0EC2FF0E0E851FE4F8EEC91E0D70169
:101BE0002D917D0121938A179B07C9F710928801D7
:101BF0000E942B0D8823D1F1C091D4018091DE0188
:101C00008823E9F085E0EFEDF1E0A7EBB1E001908A
:101C10000D928A95E1F78091DC019091DD01A09110
:101C2000DE018093BC019093BD01A093BE0181E0D1
:101C300090E00E94C22F892B11F41092DE0180E007
:101C400090E00E94C22F892B09F071C0EC2FF0E0C8
:101C5000E851FE4F80E090E0DC01A054BE4F2C9193
:101C60002193019686309105B9F75EC0E091D501C8
:101C70000E2F10E08091BF01883009F046C080919E
:101C8000BE0180FF33C09091B7018091DF0190FFCA
:101C90000AC081608093DF018091B70160E0869582
:101CA0000E94C70C23C08E7F8093DF0180910202C7
:101CB00080FF0CC01F921F928CE191E09F938F9345
:101CC0000E9440090F900F900F900F908091DE01BD
:101CD00081608093DE01BFEFE0E7F2E0B150E040C9
:101CE000F040E1F700C000000E94E00A8091BE01D0
:101CF00081FF09C020E04091BA016091B901809153
:101D0000B8010E94490B1092BF01F801E851FE4F43
:101D100080E090E02191DC01A054BE4F2C9301960D
:101D200086309105B9F716C01092890113C08091D1
:101D300089018F5F80938901863060F0E091D40142
:101D4000F0E0E851FE4F80E090E01192019686307D
:101D50009105D9F78D2FDF91CF911F910F91FF90B2
:101D6000EF90DF90CF90BF90AF909F908F900895AD
:101D7000CF93DF9328E4829FC0011124FC0146E049
:101D8000749FE00DF11D1124E60FF11DEE0FFF1FF2
:101D9000E655FC4FC591D491CE01C238D10569F109
:101DA000B0F4C133D10509F475C048F4C932D10586
:101DB00009F469C0CA32D10509F473C085C0C533BE
:101DC000D10509F459C0C933D105B9F07DC0C33E6E
:101DD000D10571F138F4C03ED105B1F0C23ED10554
:101DE00011F172C0C63ED105B9F1C73ED105C9F1A6
:101DF000C43ED10509F068C024C02091DA0120FD5D
:101E00005DC021FD5BC060C02091DA0120FD50C0A3
:101E10002091DB0120FF51C18091DA0184FD4BC18B
:101E200083EE90E04AC12091DA0122FF46C1F4CF4F
:101E30008091DA0182FD3FC08091DB0180FD3EC0D0
:101E4000EBCF2091DB0121FF38C18091DA0184FDC5
:101E500032C187EE90E031C12091DA0123FF2DC11C
:101E6000F4CF8091DA0183FD2CC08091DB0181FFEA
:101E7000ECCF84EE90E021C12091DA0125FF1DC155
:101E800089E290E01AC12091DA0125FF16C185E3AD
:101E900090E013C12091DA0126FF0FC18AE290E0A1
:101EA0000CC12091DA0126FF08C181E390E005C151
:101EB00089E390E002C182EE90E0FFC080EE90E006
:101EC000FCC086EE90E0F9C0C11551E5D50708F0D9
:101ED0006CC0C11520E5D207F0F0CE01F4E0969574
:101EE0008795FA95E1F7282F23703C2F337081E016
:101EF00090E002C0880F991F3A95E2F79C68922BF8
:101F00002C2F2F702695269550E2259F90011124A5
:101F1000822B932BD2C0C83ED10570F5C03ED105AF
:101F200008F0CBC0C83AD105B8F4C53AD10550F095
:101F30002C2F255AC22FD0E0CD5ADE4F888190E059
:101F40009064BBC0C130D10509F4B7C008F4B3C078
:101F5000249708F4B0C0B1C0CF3BD10508F0ABC0A6
:101F60002C2F285AC22FD0E0CC0FDD1FCA5ADE4FCB
:101F7000888199819464A1C0C11540E2D40760F4BE
:101F8000C11551E0D50708F098C0C03FD10508F44D
:101F900092C0CE01906591C0C11580E4D80708F4C5
:101FA0008AC0CE019F70906A88C0C11525E5D2070E
:101FB00008F040C0C11544E5D40728F09C2F8827BD
:101FC000846F906A7AC0C11553E5D507A8F09E01C9
:101FD0002370332781E090E002C0880F991F2A9573
:101FE000E2F72C2F2695269550E2259F900111248B
:101FF000822B932B9A6861C0C11582E5D80728F41B
:102000009C2F8827816F906A58C09E0123703327C8
:1020100081E090E002C0880F991F2A95E2F72C2FEB
:102020002695269540E2249F90011124822B932B24
:102030009C6843C0C11529E5D207B0F4C11548E535
:10204000D40728F09C2F8827806F906A36C0C1156E
:1020500056E5D50780F58C2F0E9449098F7190E0D5
:10206000982F8827906229C0C1158AE5D80790F477
:102070008C2F8F700E9449099E0194E03695279518
:102080009A95E1F72F7030E0322F22273069A901AD
:10209000482B0FC0CE0190568115904260F48D2FD1
:1020A0008F710E9449099E01332730628F71A90107
:1020B000582BCA0102C080E090E0DF91CF910895D3
:1020C0000E941C2C2FEF84E39CE021508040904024
:1020D000E1F700C0000087E797E79093010880933D
:1020E00000089AE088E10FB6F894A8958093600004
:1020F0000FBE90936000FFCF8F929F92AF92BF92DE
:10210000CF92DF92EF92FF920F931F93CF93DF93C3
:10211000CDB7DEB72A970FB6F894DEBF0FBECDBF9E
:10212000FC010081D18083819481892B39F01FEFDC
:10213000D11206C091E00F3F19F403C091E001C035
:1021400090E090FD93C57F0185E0DE011696019039
:102150000D928A95E1F7F70122818E819F812223DA
:1021600049F00E948428182F682F8E819F810E9439
:10217000FE2803C00E94D128182F28E4129FF001E6
:10218000112436E0D39EE00DF11D1124E00FF11D66
:10219000EE0FFF1FE655FC4F05911491F701828168
:1021A000F0E88F9F90011124F7019181F8E09F9F43
:1021B000C0011124822B932BF7012081822B9F9346
:1021C0008F938CED92E09F938F930E9440090F9024
:1021D0000F900F900F90043FFCE51F0759F190F40A
:1021E000093D3CE51307E9F00A3D4CE51407A1F170
:1021F000083D8CE51807B1F506E221EE41EE68EDE9
:102200007CE514C0063F9CE5190701F1C8F0073FC3
:10221000FCE51F0739F507E225EE46EE67EF7CE5A2
:1022200005C007E225EE45EE69ED7CE5C7010E9499
:10223000600ADBC106E221EE40EE64EF7CE5F6CFFA
:1022400007E225EE44EE65EF7CE5F0CF06E221EEF5
:1022500042EE66EF7CE5EACF08E221E045EE6AED6A
:102260007CE5E4CFF7019281992309F43FC11092F4
:10227000B5010230FCE51F0708F422C106312CE548
:10228000120738F098012B5F3C452930310508F0E2
:1022900017C10E94F81F9093DB018093DA0100318F
:1022A0003CE5130709F4C3C008F041C008308CE5D1
:1022B000180709F49AC0F0F40430ECE51E0709F49D
:1022C00087C068F402302CE5120709F477C00330A8
:1022D0001C4509F0E5C08091DA01826076C00630C5
:1022E0004CE5140709F46EC008F07BC08091DA0158
:1022F00088606BC00C309CE5190709F485C068F450
:102300000A30FCE51F0709F474C008F079C00E9488
:102310001C2C8091DA01806858C00E303CE5130710
:1023200009F476C008F07FC08091DA018BC00C3FC1
:102330008CE5180709F44FC018F50331ECE51E07CA
:1023400009F47DC078F401312CE5120709F473C05B
:1023500002311C4509F0A4C00E941C2C8091DA01B6
:102360008F7733C005314CE5140709F472C008F4C7
:1023700086C00B3F1C4509F093C08091DB013EC035
:102380000115EDE51E0709F45FC058F40E3F2CE57A
:10239000120709F444C008F43FC08091DB01826059
:1023A0002DC002304DE5140709F475C008F45DC076
:1023B00003301D4509F074C060E06EC08091DA0101
:1023C000816003C08091DA0180618093DA0168C086
:1023D0008091DA0111C08091DB0182608093DB0182
:1023E0005FC08091DA018062F0CF8091DA01806471
:1023F000ECCF8091DA0188608460E7CF8160EECF16
:102400008091DA018E7FE1CF8091DA018D7FDDCF7F
:102410008091DA01877FD9CF8091DB0118C080914C
:10242000DB018D7FDBCF8091DA018F7ECECF809173
:10243000DA018F7DCACF8091DA018F7BC6CF809180
:10244000DA01877F8B7FC1CF8091DB018D7F8E7F0B
:10245000C5CF8091DA0182FB222720F991E09227F3
:1024600090FB82F990FB83F9B0CF8091DB01982F2C
:10247000909591708E7F892B90FB81F9AFCF0E9450
:102480001C2C8091DA0187FB222720F991E092270A
:1024900090FB87F99ACF61E08EE090E00E9459307E
:1024A0006091DA011091DB0184E090E00E945930E4
:1024B000612F81E290E00E9459300E941C2C95C04F
:1024C00006312CE5120721F58091A3028A7A91E06A
:1024D00009F490E09093B601882311F065E301C000
:1024E00069E283E392E00E94DE1F0FC00631FCE543
:1024F0001F0709F099C08091B601882309F45EC3D3
:1025000065E383E392E00E94D11F0E941A286DC008
:1025100001302CE5120759F00F3D3CE51307D1F0CF
:1025200001151C4509F08AC00E9460105EC08091B0
:102530000202982F9095917090FB80F9809302028F
:10254000992319F089E993E002C087E893E00E949B
:10255000A7084BC00E94092048C08091020280FF5A
:1025600010C08091DF01809581701F928F9380E56C
:1025700093E09F938F930E9440090F900F900F90CC
:102580000F908091DF0180FF1FC38E7F8093DF015A
:102590006091DF017091E0018091E1019091E20191
:1025A0000E94370B8091020280FF0FC08091DF01F3
:1025B00081701F928F9381EE92E09F938F930E9480
:1025C00040090F900F900F900F908091DE01816075
:1025D0008093DE01EFEFF0E702E0E150F0400040D1
:1025E000E1F700C000000E94E00A8091A00287701D
:1025F00009F43CC3F7018281882309F437C382E0E0
:102600002A960FB6F894DEBF0FBECDBFDF91CF91F3
:102610001F910F91FF90EF90DF90CF90BF90AF9000
:102620009F908F900C9459298091A3028272F80197
:10263000E35CFC45E431F10508F4C2C2F701008116
:102640001181992349F0C8010E948428D82E682F4F
:10265000C8010E94FE2804C0C8010E94D128D82EBB
:10266000B8018D2D0E94B80E8C01982EF701A5801F
:10267000A2942FE0A222D280D1101092A2028091C7
:10268000A002877099F0DD2089F0812F807F80344F
:1026900021F080E2800F883048F082E00E945929C2
:1026A0008091A0028770CC24C3948111C12CB12EDB
:1026B000B2949FE0B9228B2D90E08C30910508F008
:1026C00040C2FC01EA5AFF4F0C94C130812F807F39
:1026D0001F70882311F01295107FDD20B9F01123AF
:1026E00009F41AC280E2800F883010F0911006C001
:1026F0008091A302182B1093A30205C08091A2021F
:10270000182B1093A2020E941A2806C2802F0E9442
:102710003C2C112309F415C2005E1095083010F00E
:10272000911006C08091A30218231093A30205C044
:102730008091A20218231093A2020E941A2801C2BB
:10274000812F807F1F70803211F01295107F9920A9
:1027500021F0F1E09F16E1F02AC0DD2081F08091A8
:102760000F02AA2051F001E0A01207C0182B181781
:1027700009F4E7C110930F02E4C1812B10C0AA2015
:1027800021F021E0A21609F4DCC10E940C2327C02D
:10279000DD2041F035E03A1508F4D3C1812F0E94C5
:1027A000322CCFC144E04A1508F4CBC118C0DD205B
:1027B00049F0AA2099F3F701858180FFADC18F70A0
:1027C0008583ECCFAA2059F0093309F0B7C1FFEF98
:1027D00017EE23E0F15010402040E1F7ADC1812F0A
:1027E0000E94272CAEC1812F86958695837019F0A3
:1027F000813059F0A6C1DD2019F0C801937002C0E4
:1028000080E090E00E943E0AA2C1DD2019F0C801DC
:10281000937002C080E090E00E94280A98C1802F47
:10282000DD2019F00E94531E02C00E944C1D0E9420
:10283000FC1E8DC1812F837009F069C0D11085C144
:10284000902F929596959770990F990F802F8F7072
:10285000882E912CA12CB12C092E04C0880C991C17
:10286000AA1CBB1C0A94D2F704FF12C04FE050E030
:1028700060E070E004C0440F551F661F771F9A95F3
:10288000D2F7DB01CA0180959095A095B09503C061
:1028900080E090E0DC0116951695412F43704230A0
:1028A00019F1C8F400911002109111022091120246
:1028B00030911302413059F088299929AA29BB295E
:1028C000BC01CD0160237123822393230AC0802A97
:1028D000912AA22AB32ABC01CD01682979298A2923
:1028E0009B290E94932931C188299929AA29BB29AA
:1028F00000911002109111022091120230911302E6
:10290000BC01CD016027712782279327EACFDD2004
:1029100019F0812F817001C08695882309F415C1B3
:10292000902F929596959770990F990F802F8F7091
:10293000882E912CA12CB12C092E04C0880C991C36
:10294000AA1CBB1C0A94D2F704FF12C04FE050E04F
:1029500060E070E004C0440F551F661F771F9A9512
:10296000D2F7DB01CA0180959095A095B09503C080
:1029700080E090E0DC0116951695412F43704230BF
:10298000D9F068F50091D6011091D7012091D801B6
:102990003091D901413059F088299929AA29BB29B8
:1029A000BC01CD0160237123822393231EC0802AA2
:1029B000912AA22AB32A13C088299929AA29BB29B6
:1029C0000091D6011091D7012091D8013091D90101
:1029D000BC01CD01602771278227932706C0BC0167
:1029E000CD01682979298A299B290E942A29ADC00D
:1029F0001F70DD2039F0812F0E947229802F0E94E4
:102A0000322CA3C0802F0E94272C812F0E943429B2
:102A10009CC0802F32EF931609F440C0391538F06E
:102A200040EF941661F091EF991699F170C0E3EFC1
:102A30009E16D9F1F4EF9F1609F44EC068C0DD2050
:102A400019F104E00A1508F47CC01F7181E090E0E0
:102A5000A0E0B0E0AC01BD0104C0440F551F661FEB
:102A6000771F1A95D2F78091D6019091D701A09146
:102A7000D801B091D9018A019B01082719272A277B
:102A80003B27C901B80125C025E02A1508F459C023
:102A9000DCCFDD2029F0812F8F712CC0DD20D9F310
:102AA000812F8F710E9434294CC0DD2079F01F7175
:102AB00081E090E0A0E0B0E0BC01CD0104C0660F71
:102AC000771F881F991F1A95D2F703C060E070E046
:102AD000CB010E942A2935C0DD2079F01F71812F9A
:102AE0000E94722938E0139FC001112483608093F3
:102AF000A002812F0E94722924C081E00E945929DE
:102B000041E04A15F0F482E00E9459291AC0DD2004
:102B100039F0AA2009F4BFCF802F0E94A32C11C046
:102B2000AA2009F4BDCF893349F48FEF97EEE3E093
:102B300081509040E040E1F700C00000802F0E94EB
:102B40003C2C88EF8B0D843010F40E94540ACC206A
:102B5000A9F08091A00280FD11C0F7011282859535
:102B6000859585950E947229C7010E947C108091ED
:102B7000A0028595859585950E94342985E0F70109
:102B8000DE01119601900D928A95E1F789819A8173
:102B90000E94D1289A8108E4809FF001112416E058
:102BA000919FE00DF11D11248981E80FF11DEE0FB9
:102BB000FF1FE655FC4F8591949158C069E2A1CC66
:102BC000EE59FF4F0C94C13081608093DF018091FA
:102BD000020280FF0DC01F9281E08F9389E193E094
:102BE0009F938F930E9440090F900F900F900F902A
:102BF0008091DF0161E0869536C047E05DE060E1ED
:102C00007DE02CC040E15DE067E07DE027C043E966
:102C10005CE06CE97CE022C04CE95CE063E97CE0CC
:102C20001DC04BE75CE067E87CE018C047E85CE06B
:102C30006BE77CE013C043E65CE06FE67CE00EC02F
:102C40004FE65CE063E67CE009C045EA5CE066EBE9
:102C50007CE004C046EB5CE065EA7CE00E94DA0AB6
:102C6000C4CC61E081E00E94C70CBFCC2A960FB6AD
:102C7000F894DEBF0FBECDBFDF91CF911F910F91B2
:102C8000FF90EF90DF90CF90BF90AF909F908F908C
:102C9000089580911E0208959FB7F89410921A0229
:102CA0009FBF90912902943009F057C09091E9009C
:102CB0009F703091EC00232F217030FD20E8922B83
:102CC00023E02093E9002091EB0020FF43C02091F6
:102CD000EE0027FF3FC02091C701222321F0209161
:102CE000E80025FF37C01092C70126E03091E800C8
:102CF00035FD15C030912902343061F53091EB007B
:102D000035FD28C0215021F481E08093C70122C005
:102D1000EFE9FFE03197F1F700C00000E7CF8093C3
:102D2000F1008091E80085FD0AC08091E80080FFF5
:102D3000FCCF8091E8008E778093E80006C08FB7C3
:102D4000F89421E020931A028FBF9F709093E900BE
:102D500080E008959F709093E9008FEF0895CF93DE
:102D6000DF9300D01F92CDB7DEB790912902943047
:102D700019F589837B836A8382E08093E9008FEF72
:102D80009091E800815095FD06C095ED9A95F1F778
:102D900000008111F5CF8091E80085FF0DC040E073
:102DA00050E063E070E0CE0101960E941223809112
:102DB000E8008E778093E8000F900F900F90DF91DE
:102DC000CF910895BC0184E00C94AF16BC0183E060
:102DD0000C94AF1622E02093E9002FEF3091E80029
:102DE000215035FD06C035ED3A95F1F7000021116F
:102DF000F5CF2091E80025FF0BC040E050E066E0F1
:102E000070E00E9412238091E8008E778093E800A2
:102E10000895CF93DF9321E02093E9002FEF3091C5
:102E2000E800215035FD06C035ED3A95F1F7000078
:102E30002111F5CF2091E80025FF14C0EC0140E0FE
:102E400050E068E070E00E9412238091E8008E77E5
:102E50008093E80088E0FE01AFE1B2E001900D92BE
:102E60008A95E1F7DF91CF9108952091E4003091A8
:102E7000E50095E64091EC00842F817040FF23C06F
:102E80008091E80080FD1DC080912902882399F07F
:102E9000853099F08091EB0085FD11C04091E400F0
:102EA0005091E5002417350729F3915011F09A014C
:102EB000E1CF84E0089582E0089583E0089581E001
:102EC000089580E008954091E80042FFDDCF089525
:102ED00080912B0287FF11C08091E80082FD05C020
:102EE000809129028111F8CF11C08091E8008B7781
:102EF0000BC080912902882349F08091E80080FF6F
:102F0000F8CF8091E8008E778093E8000895982F9D
:102F1000973068F59093E900981739F07091EC00BC
:102F20002091ED005091F00003C0242F762F50E047
:102F300021FD02C09F5FECCF3091EB003E7F3093CC
:102F4000EB003091ED003D7F3093ED003091EB00D0
:102F500031603093EB007093EC002093ED005093C0
:102F6000F0002091EE0027FDE5CF80E008958F70FE
:102F70008093E90081E0089520913102309132027E
:102F80002617370748F06115710539F42091E800DC
:102F90002E772093E80001C0B901FC0120E0611503
:102FA000710579F1809129028823F1F18530F1F1E1
:102FB0008091E80083FD3CC08091E80082FD2EC036
:102FC0008091E80080FFEBCF2091F3008091F20028
:102FD00090E0922B6115710551F08830910538F41D
:102FE00021912093F100615071090196F3CF21E006
:102FF000089709F020E08091E8008E778093E80040
:10300000CECF2111CFCF0AC080912902882361F051
:10301000853061F08091E80083FD0AC08091E8006E
:1030200082FFF2CF80E0089582E0089583E0089562
:1030300081E00895CF93DF93CDB7DEB762970FB6E7
:10304000F894DEBF0FBECDBF84B7877F84BF0FB6B5
:10305000F894A89580916000886180936000109238
:1030600060000FBE90E080E80FB6F8948093610096
:10307000909361000FBE85B7806885BF85B7806873
:1030800085BF0E944D260E946C268091E2008460DC
:103090008093E2008CE496E1909385018093840113
:1030A0007894809129028823A1F01091E9001F7083
:1030B0009091EC00892F817090FD80E8182B109280
:1030C000E9008091E80083FD0E943E231F70109369
:1030D000E90082E084BD93E095BD9AEF97BD8093AF
:1030E0006E008EE090E00E94453091E0811101C0B9
:1030F00090E09093150180911501882321F01092A2
:10310000000186E003C086E0809300018093010106
:103110000E942B0D882331F062E070E085E091E0A1
:103120000E94E02E8091150180911501811102C04D
:1031300096E001C090E09093D50186E0891B8093D2
:10314000D40108E211E0F80181918F010E94480D3D
:10315000F1E00E321F07B9F704E311E0F8018191A5
:103160008F010E94480DF1E00A331F07B9F7E8EC20
:10317000F1E0A8EEB1E011921D9221E0E43DF207EA
:10318000D1F780E090E00E9453308C3E9E4F11F0CA
:103190000E9409200E942B0D811106C062E070E0A0
:1031A00085E091E00E94E92E80E090E00E9453309B
:1031B0008C3E9E4F11F00E94092082E090E00E9418
:1031C0004530809302020E94F81F9093DB018093A8
:1031D000DA0183E090E00E944530682F70E080E0E3
:1031E00090E00E9493298091E4018111E3C08091D5
:1031F000020280FF08C08AE597E09F938F930E94A8
:1032000040090F900F908091020280FF08C084E473
:1032100097E09F938F930E9440090F900F9080E05A
:1032200090E00E9453308C3E9E4F81F080910202CC
:1032300080FF08C08CE197E09F938F930E94400924
:103240000F900F900E9409200E94140D88E090E0DA
:103250000E944D306093DF017093E0018093E101A3
:103260009093E2018091DE0183608093DE016E7FA6
:10327000D1F48091020280FF08C083ED96E09F9315
:103280008F930E9440090F900F900E94140D88E0C8
:1032900090E00E944D306093DF017093E0018093D5
:1032A000E1019093E2010E942C0B8091020280FFC9
:1032B00008C08AEB96E09F938F930E9440090F907D
:1032C0000F908091020280FF0FC08091DF0181701A
:1032D0001F928F938DE996E09F938F930E944009F0
:1032E0000F900F900F900F908091020280FF0FC0FF
:1032F0008091DF0186951F928F9382E896E09F93DD
:103300008F930E9440090F900F900F900F90809123
:10331000020280FF0EC08091E0011F928F9388E629
:1033200096E09F938F930E9440090F900F900F900B
:103330000F908091020280FF0EC08091E1011F92E8
:103340008F938EE496E09F938F930E9440090F9095
:103350000F900F900F908091020280FF0EC080911D
:10336000E2011F928F9384E396E09F938F930E94D4
:1033700040090F900F900F900F908091020280FFF4
:103380000EC08091E3011F928F9388E196E09F9396
:103390008F930E9440090F900F900F900F90809193
:1033A000DF0180FF04C060E086950E94C70C81E0C9
:1033B0008093E4018091020281608093020287E1A0
:1033C00091E09093E6018093E5018DEA97E00E94F9
:1033D000A7083324339433E7432E37E0532E48E1D4
:1033E000642E712C80912902853009F03BC089EA56
:1033F00097E00E94A70880912902843011F1109271
:10340000E70180E40FB6F894A895609260000FBEC3
:103410008093600083B7817F846083BF83B78160BE
:1034200083BF7894889583B78E7F83BF0FB6F89457
:10343000A895809160008861809360001092600080
:103440000FBE80912802882309F4CCCF0E945F0D23
:10345000E8EEF1E081918111ADC121E0E43FF20796
:10346000C9F7C0CF0E945F0D0E942B0D811111C0C2
:103470003FEF3C873D871E860E94F01E8160782FBB
:10348000988B8F874C855D856E8588890E948C0915
:1034900077C093E0C92E92E0D92E28EEA22E21E02B
:1034A000B22E00E010E00A8BF50121905F01F601D9
:1034B00081916F018225898B811106C00F5F1F4F9B
:1034C0000C30110581F7D4CF8091020281FD04C038
:1034D00080E0FF24F39437C080E897E00E94A708BB
:1034E00088EE882E81E0982EE12CF12CFF92EF924D
:1034F0002BE737E03F932F930E94400988E797E03E
:103500000E94A708F40181914F010E94FA221F92A4
:103510008F935F924F920E94400981E797E00E944B
:10352000A708FFEFEF1AFF0A0FB6F894DEBF0FBE31
:10353000CDBF3CE0E316F104C9F6CACF8F5FFF0CA4
:10354000863009F4BBCF99899F21C1F38F834A89C3
:1035500048872F2081E009F480E089870E94F01ECF
:103560008160782F9B878A874F81588569858B85F5
:103570000E948C09F801ED5FFD4F8081F826F082F2
:1035800086E0EBEFF1E0DE01119601900D928A9555
:10359000E1F7E090FD01F090FE010091FF01109134
:1035A00000021092FD011092FE011092FF01109294
:1035B0000002E11003C0FF2009F45BC08091F90113
:1035C0009091FA010E94E11EAC019091F8019923BB
:1035D00039F02091160130E02417350758F049C022
:1035E0002091F7018AE0289F9001112424173507C4
:1035F00018F03FC09F3F19F09F5F9093F801EE20B5
:1036000061F00E940A1E1E1414F09FEF01C091E0A9
:10361000899F802D11248093FD01FF2061F00E947D
:103620000A1E1F1414F09FEF01C091E0899F802DA6
:1036300011248093FE013091FD013323D1F02091BC
:10364000FE012223B1F045EB3403C001112499237C
:1036500019F09093FD0102C03092FD0135EB230378
:10366000C0011124992319F09093FE0102C03092F9
:10367000FE01011103C0112309F44FC08091F5012F
:103680009091F6010E94E11E9C019091F401992312
:1036900009F4A6C02536310508F43FC09F3F19F054
:1036A0009F5F9093F401002361F00E94D11D1016DA
:1036B00014F09FEF01C091E0899F802D1124809329
:1036C000FF01112361F00E94D11D111614F09FEF2C
:1036D00001C091E0899F802D1124809300023091D8
:1036E000FF013323D1F0209100022223B1F045EBFA
:1036F0003403C0011124992319F09093FF0102C0F3
:103700003092FF0135EB2303C0011124992319F0F6
:103710009093000202C0309200028091FD0181115D
:103720000BC08091FE01811107C08091FF018111C2
:1037300003C08091000281110E94FC1EEB82FC827A
:103740000D831E8386E0FE013196ABEFB1E0019060
:103750000D928A95E1F70E94540A9091010289170F
:1037600009F440CE0E94540A182F809301028091E0
:10377000020282FF37CE80FF04C086E997E00E94F4
:10378000A7088091020280FF0CC01F921F9381E95D
:1037900097E09F938F930E9440090F900F900F9096
:1037A0000F908091020280FF1DCE8FE897E00E946B
:1037B000A70818CEF0E1F9BD82E189BD09B400FE89
:1037C000FDCF8091D8008F7D8093D8008091E0005C
:1037D00082608093E0008091E00081FDFCCF02CE0A
:1037E000232B09F05DCF99CFCF93C82F1F928F93D2
:1037F00083E196E09F938F930E94400981E090E0DF
:10380000A0E0B0E0BC01CD0104C0660F771F881FA7
:10381000991FCA95D2F70E9493290F900F900F908D
:103820000F90CF910C941C2C88E195E00E94A70882
:103830001F9281E08F931F9285E08F938AEC94E032
:103840009F938F930E9440090F900F900F900F90BD
:103850000F900F900895833081F128F4813059F052
:103860008230D1F00895853009F449C0B8F186302E
:1038700009F456C008958091F701681720F4861B5B
:103880008093F70102C01092F7018091F7011F9217
:103890008F9381E19EE054C080911601681720F457
:1038A000861B8093160102C01092160180911601AA
:1038B0001F928F938FEF9DE043C080912401681782
:1038C00020F4861B8093240102C010922401809171
:1038D00024011F928F938CEE9DE032C080912301D2
:1038E000681720F4861B8093230102C010922301E5
:1038F000809123011F928F9387ED9DE021C08091DD
:103900002201681720F4861B8093220102C01092C6
:103910002201809122011F928F938EEB9DE010C0B7
:1039200080912101681720F4861B8093210102C039
:1039300010922101809121011F928F9383EA9DE0D3
:103940009F938F930E9440090F900F900F900F90BC
:1039500008958330E9F128F4813061F0823009F173
:103960000895853009F462C008F449C0863009F42E
:1039700074C008958091F701262F30E0280F311D83
:103980002F3F310524F4680F6093F70103C08FEFD8
:103990008093F7018091F7011F928F9384E99DE056
:1039A00072C080911601262F30E0280F311D2F3F65
:1039B000310524F4680F6093160103C08FEF8093E4
:1039C0001601809116011F928F9382E89DE05BC0E3
:1039D00080912401262F30E0280F311D2F3F310523
:1039E00024F4680F6093240103C08FEF80932401B7
:1039F000809124011F928F938FE69DE044C08091B7
:103A00002301262F30E0280F311D2F3F310524F4EC
:103A1000680F6093230103C08FEF8093230180918F
:103A200023011F928F938AE59DE02DC08091220192
:103A3000262F30E0280F311D2F3F310524F4680F69
:103A40006093220103C08FEF8093220180912201B5
:103A50001F928F9381E49DE016C080912101262F53
:103A600030E0280F311D2F3F310524F4680F60939B
:103A7000210103C08FEF80932101809121011F92CA
:103A80008F9386E29DE09F938F930E9440090F9051
:103A90000F900F900F900895803F39F48091FE01B0
:103AA00087FF6AC01092FE0167C0813F29F48091B0
:103AB000FE011816BCF360C09091FD01823F29F40D
:103AC00097FF5AC01092FD0157C0833F19F4191691
:103AD000CCF352C09091FF01893F31F419160CF0DC
:103AE0004BC01092FF0148C08A3F19F497FF44C0B1
:103AF000F8CF8B3F39F48091000287FF3DC01092D0
:103B000000023AC08C3F29F4809100021816BCF3E1
:103B100033C0843F21F48091FC018E7F17C0853F24
:103B200021F48091FC018D7F11C0863F21F48091AA
:103B3000FC018B7F0BC0873F21F48091FC01877FC4
:103B400005C0883F31F48091FC018F7E8093FC0199
:103B500013C08D3F21F4809114028E7F0BC08E3FE5
:103B600021F4809114028D7F05C08F3F29F480914C
:103B700014028B7F809314028091FD01811106C095
:103B80008091FE01811102C01092F8018091FF0125
:103B9000811106C080910002811102C01092F401CF
:103BA00008958091140280FF08C06091220170E0A6
:103BB000759567957595679521C081FF06C06091E1
:103BC000220170E07595679519C082FF04C060916D
:103BD000220170E010C09091F401992399F0609156
:103BE00021019617A0F780912201899FC00111241D
:103BF00070E00E94AD306038710540F461157105C8
:103C000019F406C061E070E0862F08958FE70895EB
:103C100081E008958091140280FF0BC0609124011F
:103C200085E0689FB0011124759567957595679536
:103C30002BC081FF09C06091240185E0689FB0011D
:103C400011247595679520C082FF07C060912401FB
:103C500085E0689FB001112417C09091F801992365
:103C6000D1F060912301961788F72091240185E017
:103C7000289F90011124929FA001939F500D112421
:103C800070E0CA010E94AD306038710540F46115E2
:103C9000710519F406C065E070E0862F08958FE77E
:103CA000089581E00895803F21F40E940A1E8195C5
:103CB00004C0813F29F40E940A1E8093FE010895EA
:103CC000823F21F40E940A1E819504C0833F29F49B
:103CD0000E940A1E8093FD010895893F19F40E94F5
:103CE000D11D05C08A3F31F40E94D11D819580937A
:103CF000FF0108958B3F21F40E94D11D819504C0DE
:103D00008C3F29F40E94D11D809300020895843FC6
:103D100021F48091FC01816017C0853F21F48091DE
:103D2000FC01826011C0863F21F48091FC01846017
:103D30000BC0873F21F48091FC01886005C0883F5B
:103D400031F48091FC0180618093FC0108958D3FE6
:103D500021F48091140281600BC08E3F21F4809188
:103D60001402826005C08F3F29F4809114028460A0
:103D700080931402089578941F920F920FB60F92B9
:103D800011248F939F93AF93BF93809115029091CD
:103D90001602A0911702B09118020196A11DB11D43
:103DA0008093150290931602A0931702B093180205
:103DB000BF91AF919F918F910F900FBE0F901F9069
:103DC00018959C014FB7F8948091150290911602B6
:103DD000A0911702B09118024FBF821B930B089558
:103DE0002FB7F8948091150290911602A0911702B6
:103DF000B09118022FBF08958091020283FF7EC008
:103E000085EE97E00E94A7088091FC011F928F9396
:103E100080EE97E09F938F930E9440098EED97E08C
:103E20000E94A7088091FD01282F082E000C330B5B
:103E30003F938F938BED97E09F938F930E94400960
:103E400089ED97E00E94A7088091FE01282F082E97
:103E5000000C330B3F938F9386ED97E09F938F93E6
:103E60000E94400984ED97E00E94A7088091FF011D
:103E7000282F082E000C330B3F938F9381ED97E092
:103E80009F938F930E9440098FEC97E00E94A708B0
:103E900080910002282F082E000C330B3F938F9344
:103EA0008CEC97E09F938F930E94400989EC97E0F8
:103EB0000E94A7088091F8011F928F9386EC97E0EB
:103EC0009F938F930E94400984EC97E00E94A7087B
:103ED000809114021F928F9381EC97E09F938F93B0
:103EE0000E9440098EEB97E00E94A7088DB79EB70D
:103EF0004C960FB6F8949EBF0FBE8DBF0E94F01E69
:103F00002091FD01211104C02091FE01222321F006
:103F10009093FA018093F9012091FF01211104C0CF
:103F200020910002222321F09093F6018093F50165
:103F3000E091E501F091E601309749F082E080934D
:103F4000FB010480F581E02D8BEF91E00994089549
:103F50001F920F920FB60F9211248F939F93AF93DE
:103F6000BF938091E701811113C080911502909158
:103F70001602A0911702B09118024196A11DB11D21
:103F80008093150290931602A0931702B093180223
:103F9000BF91AF919F918F910F900FBE0F901F9087
:103FA00018959C012A5F3F4FFC014281461301C0D6
:103FB0001282019682179307B9F708959C01FC01BC
:103FC00032969FEF80E04191461789F09F3F19F4A8
:103FD000411101C0982F8F5F8630A9F79F3F39F0BC
:103FE000F901E90FF11D97FDFA956283089508958F
:103FF000CF9384E090E00E944530C82F81E290E0AA
:104000000E9445302C2F30E0A901582BCA01CF91D6
:1040100008956CEE7EEF80E090E00E94773060E0E3
:1040200082E090E00E94593060E083E090E00E94DE
:104030005930109210021092110210921202109236
:10404000130260E084E090E00E94593060E081E279
:1040500090E00E94593060E085E090E00E94593085
:1040600060E086E090E00E9459306FEF87E090E0DA
:104070000E94593040E050E0BA0188E090E00E9490
:104080006B3060E08DE090E00E94593040E050E0FD
:10409000BA0188E190E00E946B3060E087E190E037
:1040A0000E94593040E050E0BA018CE190E00E945B
:1040B0006B3060E080E290E00E94593040E050E0D8
:1040C000BA0188E190E00E946B3040E050E0BA0114
:1040D0008FE090E00E946B3040E050E0BA0183E155
:1040E00090E00C946B30CF93DF938B3109F4EEC1E9
:1040F00008F08FC18B3009F4B2C108F069C1863075
:1041000009F4B0C120F4853009F4BEC16AC2873019
:1041100009F4C1C1883009F064C28BE19DE00E94BE
:10412000A70889E699E00E94A70883E090E00E9432
:1041300045301F928F9386E699E09F938F930E945C
:10414000400984E699E00E94A70882E090E00E947E
:104150004530C82F81E599E00E94A7081F92CF93B0
:104160008CE499E09F938F930E9440098AE499E040
:104170000E94A70880E499E00E94A7088C2F817014
:104180001F928F938DE399E09F938F930E94400934
:104190008BE399E00E94A70881E399E00E94A708B9
:1041A000C1FB882780F91F928F938EE299E09F933D
:1041B0008F930E9440098CE299E00E94A70880E258
:1041C00099E00E94A708C2FB882780F91F928F936D
:1041D0008DE199E09F938F930E9440098BE199E0D4
:1041E0000E94A70882E199E00E94A708C3FBCC27A0
:1041F000C0F91F92CF938FE099E09F938F930E9415
:1042000040098DE099E00E94A7080E94F81FEC0188
:1042100089EF98E00E94A708DF93CF9384EF98E09E
:104220009F938F930E94400982EF98E00E94A70815
:1042300089ED98E00E94A7088C2F81701F928F93C0
:1042400086ED98E09F938F930E9440098DB79EB7AB
:1042500080960FB6F8949EBF0FBE8DBF84ED98E098
:104260000E94A7088DEB98E00E94A708C1FB882751
:1042700080F91F928F938AEB98E09F938F930E940F
:10428000400988EB98E00E94A70886EA98E00E941F
:10429000A7088D2F81701F928F9383EA98E09F93D8
:1042A0008F930E94400981EA98E00E94A7088FE856
:1042B00098E00E94A708D695D1701F92DF938CE8F2
:1042C00098E09F938F930E9440098AE898E00E94AB
:1042D000A70888E798E00E94A708C2FB882780F912
:1042E0001F928F9385E798E09F938F930E944009D8
:1042F00083E798E00E94A70881E698E00E94A7085B
:10430000C3FB882780F91F928F938EE598E09F93D7
:104310008F930E9440098CE598E00E94A70882E5EF
:1043200098E00E94A708C4FB882780F91F928F930A
:104330008FE498E09F938F930E9440098DE498E06A
:104340000E94A7088BE398E00E94A708C5FB882776
:1043500080F91F928F9388E398E09F938F930E9438
:10436000400986E398E00E94A7088AE198E00E944D
:10437000A708C6FB882780F91F928F9387E198E0F2
:104380009F938F930E9440098DB79EB780960FB67A
:10439000F8949EBF0FBE8DBF85E198E00E94A708EC
:1043A0008DE098E00E94A708C7FBCC27C0F91F92B8
:1043B000CF938AE098E09F938F930E94400988E012
:1043C00098E00E94A7080F900F900F900F9045C0A3
:1043D000803109F4A3C020F48E3009F48BC001C1F0
:1043E000863109F4B8C0893109F0FBC084E09CE053
:1043F0000E94A7088FEB9BE00E94A70888EA9BE039
:104400000E94A7088EE69BE00E94A70883E49BE039
:104410009FC08A32E1F060F4873209F4DEC028F4EC
:104420008E3108F4DEC08D51D9C0893269F1D9C00E
:10443000833448F48A3308F0CEC0853309F4CDC004
:10444000883369F0CEC0833409F4C7C0CAC08AE09B
:104450009DE00E94A7080E940920C1E0C7C089E72B
:1044600099E076C080910202817F8E7F8093020264
:104470008CE19BE00E94A70886E09DE00E94A708CF
:1044800081E080931902E9CF8AEE9CE00E94A708A0
:104490000E946010E2CF80910202C82FC095C170C7
:1044A000C0FB80F980930202CC2329F08EED9CE0C2
:1044B0000E94A7089BC081ED9CE00E94A708809104
:1044C0000202897F877F80930202C7CF9091020208
:1044D00091FBCC27C0F981E0C827892FC0FB81F967
:1044E00080930202CC2319F084EC9CE027C086EB79
:1044F0009CE02EC09091020292FBCC27C0F981E093
:10450000C827892FC0FB82F980930202CC2319F0BF
:1045100087EA9CE013C087E99CE01AC090910202F0
:1045200093FBCC27C0F981E0C827892FC0FB83F912
:1045300080930202CC2351F08BE89CE00E94A708F4
:104540008091020281608093020250C08EE79CE05D
:104550000E94A70882CF8EE69CE00E94A7080E94D6
:10456000540A1F928F9384E59CE09F938F930E943F
:104570004009809125011F928F938DE39CE09F93CA
:104580008F930E94400980911D021F928F938AE2AF
:104590009CE09F938F930E9440092FB7F8948091DD
:1045A000150290911602A0911702B09118022FBF28
:1045B000BF93AF939F938F9383E19CE09F938F93DF
:1045C0000E9440098DB79EB742960FB6F8949EBFE1
:1045D0000FBE8DBF42CF895301C080E00E94F41B03
:1045E0003CCF8CE79CE00E94A708C0E08C2FDF91B5
:1045F000CF9108958295982F937344E0949F9001F2
:1046000011248C7C86958695282B822F8575880FA2
:104610002A7A2695822B089580910F02811110929B
:104620000F020895EF92FF920F931F93CF93DF93A2
:104630007C018B010E943517811119C0E70101151A
:104640001105A1F08091E80085FD0AC08091E80085
:104650008E778093E8000E943517882381F307C086
:1046600089918093F10001501109E9CF80E0DF9139
:10467000CF911F910F91FF90EF9008951F93CF93CB
:10468000DF93CDB7DEB7AA970FB6F894DEBF0FBEA3
:10469000CDBFEBE2F2E083E392E02091F1002193C1
:1046A0008E179F07D1F780912C02833009F460C0E8
:1046B00030F4813071F0823009F49AC0B1C08A3090
:1046C00009F486C08B3009F46BC0893009F0A8C0AA
:1046D00020C080912B02813A09F0A2C08091E800AD
:1046E000877F8093E80080912F0290913002892B80
:1046F00021F468E08FE192E003C060E080E090E0A8
:1047000070E00E94BC178091E8008B778093E800EE
:1047100087C080912B02813209F082C080912F02E4
:1047200090913002029708F07BC08091E800877F6B
:104730008093E8008091E80082FD05C08091290205
:104740008111F8CF6DC02091F3008091F20090E0CC
:10475000922B029729F48091F1008B7F813021F414
:104760008091F10080931E028091E8008B7754C005
:1047700080912B02813A09F053C080912F029091D1
:104780003002892B09F04CC08091E800877F80932C
:10479000E8008091E80080FFFCCF8091250137C0C0
:1047A00080912B028132E1F580912F0290913002AD
:1047B000892BB1F58091E800877F8093E8000E9403
:1047C000681780912D02809325010E941C2C28C01F
:1047D00080912B02813221F58091E800877F8093C0
:1047E000E8000E94681780912E0280931D0218C075
:1047F00080912B02813AA1F48091E800877F809319
:10480000E8008091E80080FFFCCF80911D0280933A
:10481000F1008091E8008E778093E8000E9468178D
:104820008091E80083FFD7C180912B0290912C02E8
:10483000492F50E04A30510508F0CDC1FA01EA583D
:10484000FF4F0C94C130803821F0823809F0C3C189
:1048500008C08091270290912802992389F08260F4
:104860000FC080912F028F70873008F0B4C1809301
:10487000E9008091EB0085FB882780F91092E90020
:104880009091E800977F9093E8008093F100109258
:10489000F1006FC1282F2D7F09F09DC1882319F0E9
:1048A000823061F098C180912D02813009F093C16E
:1048B000933009F080E0809328022EC080912D0271
:1048C00081112AC080912F028F702FEF280F263080
:1048D00008F081C18093E9002091EB0020FF1CC00B
:1048E000933021F48091EB00806214C09091EB0032
:1048F00090619093EB0021E030E0A90102C0440FE9
:10490000551F8A95E2F74093EA001092EA008091E1
:10491000EB0088608093EB001092E9008091E80042
:10492000877F8093E8000E94681755C1811153C1A9
:1049300010912D021F778091E3008078812B809366
:10494000E3008091E800877F8093E8000E94681769
:104950008091E80080FFFCCF8091E3008068809325
:10496000E300111102C082E001C083E080932902BC
:1049700032C18058823008F02EC120912D02309132
:104980002E022C3D53E0350779F583E08A838AE2D5
:1049900089834FB7F894DE01139620E03EE051E2A0
:1049A000E32FF0E050935700E49120FF03C0E2951D
:1049B000EF703F5FEF708E2F90E0EA3010F0C796F7
:1049C00001C0C0968D939D932F5F243149F74FBF4F
:1049D0008091E800877F8093E8006AE270E0CE0172
:1049E00001960E94BC17B4C080912F0290913002B2
:1049F000432F552743305105A9F068F44130510544
:104A000009F4F8C04230510509F0E5C08BE590E0AB
:104A1000E7E1FFE04BC04132510529F14232510537
:104A200089F1D9C0C901992781309105A1F058F0C9
:104A3000029709F0D0C0E4E8FFE0E4918E2F90E007
:104A4000E4E8FFE030C0E4ECFFE0E4918E2F90E07A
:104A5000E4ECFFE028C0E8EAFFE0E4918E2F90E06C
:104A6000E8EAFFE020C08330910508F0B4C0880F69
:104A7000991FFC01ED5BFE4F0190F081E02D89E074
:104A800090E014C08330910508F0A5C0FC01EE0F42
:104A9000FF1FE35CFE4F0190F081E02DDC01A65C7E
:104AA000BE4F8C9190E0009709F495C02091E800EA
:104AB000277F2093E800209131023091320228179D
:104AC000390708F4C90140E0009789F120912902D3
:104AD000222309F43DC02530D9F12091E80023FDBF
:104AE00037C02091E80022FD2FC02091E80020FF70
:104AF000EBCF4091F3002091F20030E0342B00978F
:104B000059F02830310540F444914093F10031963A
:104B100001972F5F3F4FF3CF41E02830310509F077
:104B200040E02091E8002E772093E800CDCF41119E
:104B3000CDCF0AC080912902882351F0853041F001
:104B40008091E80083FD04C08091E80082FFF2CFED
:104B50008091E8008B778093E8003DC08038D9F5DC
:104B60008091E800877F8093E80080912A028093FB
:104B7000F1008091E8008E77D4CE81112CC0809115
:104B80002D0290912E02992702972CF58091E80032
:104B9000877F8093E80010912D0210932A020E94D3
:104BA0006817111106C08091E30087FD02C081E003
:104BB00001C084E08093290242E061EC81E00E9420
:104BC000871742E261EC82E00E94871742E261ECC3
:104BD00083E00E9487178091E80083FF10C08091D6
:104BE000E800877F8093E8008091EB0080628093EB
:104BF000EB0005C082E190E0E2E7FFE057CFAA9624
:104C00000FB6F894DEBF0FBECDBFDF91CF911F91DD
:104C100008951F920F920FB60F9211242F933F9376
:104C20004F935F936F937F938F939F93AF93BF93B4
:104C3000CF93DF93EF93FF93C091E900CF70809102
:104C4000EC00D82FD17080FDD0E81092E90080915F
:104C5000F000877F8093F00078940E943E231092AA
:104C6000E9008091F00088608093F000CD2BCF7038
:104C7000C093E900FF91EF91DF91CF91BF91AF9188
:104C80009F918F917F916F915F914F913F912F9164
:104C90000F900FBE0F901F901895E8EDF0E0808107
:104CA0008E7F80831092E2001092DA001092E10071
:104CB000A0EEB0E08C9181608C9380818F778083AF
:104CC00019BCA7EDB0E08C918E7F8C9380818F7E94
:104CD000808310921C020895CF92DF92EF92FF9290
:104CE0000F931F93CF93DF93C8EDD0E088818F7E21
:104CF0008883E7EDF0E080818160808384E082BF7B
:104D000081E080931C0288818E7F888302EE10E010
:104D1000F80110821092DA0081EEC82ED12CF60133
:104D2000108288818F7788838881806888838881D2
:104D30008F7D888319BC1092290210922A0210924A
:104D400028021092270290EEE92EF12CF7018081C3
:104D50008B7F808388818160888342E060E080E08F
:104D60000E948717F60180818E7F8083F801808101
:104D700081608083808188608083F70180818E7F5D
:104D80008083888180618883DF91CF911F910F910B
:104D9000FF90EF90DF90CF9008951F920F920FB683
:104DA0000F9211242F933F934F935F936F937F93B1
:104DB0008F939F93AF93BF93EF93FF938091E10005
:104DC00082FF49C08091E20082FF45C08091E100EE
:104DD0008B7F8093E10020911B022F5F822F62E383
:104DE0000E948D30992319F020931B0234C0109239
:104DF0001B0280911A02882371F18091290284306C
:104E000041F58091E9008F702091EC00922F917014
:104E100020FD90E8892B93E09093E9009091EB00BE
:104E200090FF14C09091EE0097FF10C09091E800A1
:104E300095FF03C01092F100F9CF9091E80090FF28
:104E400005C09091E8009E779093E8008F70809362
:104E5000E90010921A028091DA0080FF32C080913E
:104E6000D80080FF2EC08091DA008E7F8093DA0018
:104E70008091D90080FF1CC080E189BD82E189BD9D
:104E800009B400FEFDCF81E08093290283E09FE01A
:104E90000E94A70880911C02811113C00E944D2618
:104EA0000E946C268091E20084608093E20009C039
:104EB00019BC1092290287E09FE00E94A708109277
:104EC0001C028091E10080FF1BC08091E20080FF06
:104ED00017C08091E2008E7F8093E2008091E20013
:104EE00080618093E2008091D80080628093D80036
:104EF00019BC85E0809329028BE09FE00E94A708FF
:104F00008091E10084FF36C08091E20084FF32C0CE
:104F100080E189BD82E189BD09B400FEFDCF8091A9
:104F2000D8008F7D8093D8008091E1008F7E8093A0
:104F3000E1008091E2008F7E8093E2008091E200A8
:104F400081608093E20080912A02882311F084E03E
:104F500007C08091E30087FD02C081E001C083E0CB
:104F6000809329028FE09FE00E94A7080E941C2CDA
:104F70000E94540A8091E10083FF2BC08091E200DF
:104F800083FF27C08091E100877F8093E10082E06A
:104F90008093290210922A028091E1008E7F8093F3
:104FA000E1008091E2008E7F8093E2008091E20038
:104FB00080618093E20042E060E080E00E94871719
:104FC0008091F00088608093F00083E19FE00E9470
:104FD000A708FF91EF91BF91AF919F918F917F9122
:104FE0006F915F914F913F912F910F900FBE0F9056
:104FF0001F901895209172029091410256E0291756
:10500000A9F030E0529FF001539FF00D1124EE5BA8
:10501000FD4F7181761306C07081781303C07281D1
:10502000741306C02F5F3F4F2770E9CF80E00895CB
:1050300081E00895EF92FF920F931F93CF93909189
:10504000A3028091A202892B2091A102982F922B7A
:105050009093330280910F02882389F0892B8093EB
:105060003302E5E3F2E097E080E0915029F02191EE
:105070002223D9F38F5FF9CF81110E940C23E09195
:10508000E501F091E6013097C9F10280F381E02D4E
:1050900083E392E009958091020282FF2FC080FF96
:1050A00004C080ED9FE00E94A70803E312E0C8E07F
:1050B0008AECE82E8FE0F82E8091020280FF0CC06F
:1050C000F80180811F928F93FF92EF920E94400916
:1050D0000F900F900F900F90C1500F5F1F4FC11195
:1050E000EBCF8091020280FF09C088EC9FE0CF9156
:1050F0001F910F91FF90EF900C94A708CF911F91F3
:105100000F91FF90EF900895BF92CF92DF92EF92B0
:10511000FF920F931F93CF93DF938C01C090D60122
:10512000D090D701E090D801F090D9018091100281
:1051300090911102A0911202B0911302C82AD92AAB
:10514000EA2AFB2ACFE1D0E0D701C6010C2E04C029
:10515000B695A795979587950A94D2F780FD04C0D8
:10516000219790F7B12C07C0BC2EB8018C2F0E945C
:10517000B80E0197A9F38B2DDF91CF911F910F915D
:10518000FF90EF90DF90CF90BF900895CF93DF9383
:10519000EC010E948428BE010E94B80EDF91CF91DD
:1051A0000895292F220F920F990F890F682F669566
:1051B00066956695982F977085E0689FB0011124D9
:1051C00040E050E080E0FB01E40FF51FED58FD4F9B
:1051D000208130E0092E02C0369527950A94E2F727
:1051E00021703327042E01C0220F0A94EAF7822B84
:1051F0004F5F5F4F4530510531F70895292F220F3A
:10520000920F990F890FE82FE695E695E69587703E
:1052100051E001C0550F8A95EAF785E0E89FF0015B
:105220001124ED58FD4F20E030E070E04081CB01CB
:10523000022E02C0969587950A94E2F781708195B7
:1052400084278523842781932F5F3F4F25303105A5
:1052500069F708956093D6017093D7018093D801C0
:105260009093D9010C94FF2B0F931F9341E050E0D2
:1052700060E070E004C0440F551F661F771F8A95D9
:10528000D2F740955095609570958091D601909198
:10529000D701A091D801B091D9018A019B010823BF
:1052A00019232A233B23C901B8011F910F910C94A4
:1052B0002A292091A002809582238093A002982F12
:1052C000977079F430E0482F082E000C550B241706
:1052D000350739F08595859585950E94342910927A
:1052E000A00208950F931F9341E050E060E070E04A
:1052F00004C0440F551F661F771F8A95D2F780910F
:10530000D6019091D701A091D801B091D9018A011D
:105310009B01082B192B2A2B3B2BC901B8011F918C
:105320000F910C942A2960931002709311028093BC
:105330001202909313020C94FF2B809172029091B1
:105340004102891719F08F5F8770FBCF08950F9383
:105350001F93CF93DF938091400282958F7009F065
:105360005DC080913D02882309F458C0809172028B
:105370001091410260913B0270913C02C0913E024B
:10538000D0913F0291E06F3F09F090E0292F06E0B5
:10539000811709F443C0209721F07F3F21F030E0CE
:1053A00003C031E001C0322F90E030FD34C0089FCF
:1053B000F001099FF00D1124DF01AE5BBD4F119686
:1053C0003C911197371327C03C91361324C0129695
:1053D0003C91129731111FC013964D915C91149717
:1053E0004C1B5D0B483C5105B0F4809140028F701E
:1053F000806180934002E95BFD4F80818F70806106
:1054000080838BE392E00E947C10DF91CF911F910B
:105410000F910C949D2901968770BACFDF91CF919F
:105420001F910F9108958F929F92AF92BF92CF924A
:10543000DF92EF92FF920F931F93CF93DF93CDB73D
:10544000DEB761970FB6F894DEBF0FBECDBF8C01FB
:1054500085E0F801DE011D9601900D928A95E1F735
:10546000D801DC901196EC9011971296CC90909107
:105470003B0220913C0240913E0250913F02411577
:10548000510531F02F3F31F481E09F3F19F403C003
:1054900081E001C080E080FD58C1F801A380B480A4
:1054A0008BE3882E82E0982EF0903D02B501641BBC
:1054B000750BFF2009F403C180914002382F307F23
:1054C000683C710508F0CDC0311188C02E1112C0A2
:1054D0009D1110C0FC2CC1100DC08F708061809395
:1054E0004002C4010E947C1080914002D8011596B0
:1054F0008C9348C1A114B10439F0BFEFEB1206C080
:1055000081E0DB1203C003C081E001C080E080FDC8
:1055100003C081E08C2502C080E090E080FF10C0D5
:105520004C2D6E2D8D2D0E94FA27882349F08BE398
:1055300092E00E947C10EBE3F2E086E0DF0199C08C
:10554000AB2839F0BFEFEB1206C081E0DB1203C0DD
:1055500003C081E001C080E080FD03C081E08C25B4
:1055600002C080E090E0E82FE170BE2E80FF2CC0EA
:105570004C2D6E2D8D2D0E94FA27F82E811124C0FE
:10558000DD86EE868D859E850E94C628292F229570
:105590002F70223018F0243090F405C09F7059F01D
:1055A000811109C0EFC09F7031F0D80115969C9110
:1055B000907F09F4E7C0805E883008F4E3C0C8013A
:1055C0000E947C10FB2CDEC0FC2CCC2009F4DAC03D
:1055D000809140028160809340024EC02E1106C02F
:1055E0009D1104C0C11002C0F8018BC0DD86EE869B
:1055F0008D859E850E94D62B882369F1CC2059F198
:1056000020914002822F82958F7090E0029774F073
:1056100080913B0290913C0298878F831986BB86CC
:10562000AA862C87CE0107960E947C1086E0F8019E
:10563000ABE3B2E001900D928A95E1F70E94A729B1
:105640000DC02E15D9F0DD86EE868D859E850E94D3
:10565000D62B81111DC0C8010E947C10FF24F39439
:1056600091C03111EECF8BE392E00E947C1086E076
:10567000D4011D928A95E9F7F12C84C09D11E3CFE6
:10568000C110E1CFF8018583C8010E947C1057C08A
:10569000CC2009F320914002822F82958F7090E0F8
:1056A000029724F280913B0290913C029A83898375
:1056B0001B82BD82AC822E83CE010196B5CF683CA1
:1056C0007105E8F5FC2CCC2031F22E1127C09D117C
:1056D00025C02091400220FD18C0822F82958F7036
:1056E000482F50E04115510581F0F80125834F30D6
:1056F000510541F08F5F982F9295907F822F8F7088
:10570000892B8583C8010E947C1086E0F801ABE3F9
:10571000B2E001900D928A95E1F734C0DD86EE8605
:105720008D859E850E94D62B811180CF809140026D
:10573000816080934002C8010E947C1023C086E0F3
:10574000D4011D928A95E9F71DC0CC2009F483CFBE
:10575000DD86EE868D859E850E94D62BF82E8823C9
:1057600009F479CF86E0F801ABE3B2E001900D9245
:105770008A95E1F780913B0290913C020E94C628F5
:105780000E94A7298F2D61960FB6F894DEBF0FBE39
:10579000CDBFDF91CF911F910F91FF90EF90DF90E0
:1057A000CF90BF90AF909F908F9008950E94C62891
:1057B000292F2F70E92FE295EF704E2F50E0FA015C
:1057C0003297EE30F105B8F4E058FF4F0C94C13039
:1057D000803F99F018F4883E70F40FC0843F59F46C
:1057E0000CC0883E50F0813F31F407C0822F86956F
:1057F00086958695089580E0089581E00895109239
:10580000A2021092A1020E941A28EBEFF1E086E0BA
:10581000DF011D928A95E9F71092F8011092F401C8
:10582000109214020E94FC1E80E090E00E943E0A4A
:1058300080E090E00C94280A1092A30286E0E5E351
:10584000F2E0DF011D928A95E9F70C94FF2B882383
:1058500041F080959091A30289238093A3020C9438
:105860001A280895882339F09091A302892B8093F8
:10587000A3020C941A280895882309F463C082387F
:1058800069F40E94540A81FF5DC069E383E392E0FA
:105890000E94DE1F0E941A2869E30EC0833891F42B
:1058A0000E94540A80FF4EC063E583E392E00E94A9
:1058B000DE1F0E941A2863E583E392E00E94D11F55
:1058C0000C941A28843869F40E94540A82FF3AC062
:1058D00067E483E392E00E94DE1F0E941A2867E4D7
:1058E000EBCF9CEF980F913A10F4682FE5CF90E240
:1058F000980F983088F4877021E030E0A90102C049
:10590000440F551F8A95E2F7CA0180959091A30232
:1059100089238093A302D4CF9BE5980F933020F482
:1059200080E090E00C943E0A98E5980F973120F4BF
:1059300080E090E00C94280A803F20F00E944C1DEB
:105940000C94FC1E0895CF93882309F4D9C1C82F65
:105950008238B1F40E94540A81FDD2C169E383E325
:1059600092E00E94DE1F0E941A282FEF81EE94E041
:10597000215080409040E1F700C0000069E317C06B
:105980008338E1F40E94540A80FDBAC163E583E3E1
:1059900092E00E94DE1F0E941A282FEF81EE94E011
:1059A000215080409040E1F700C0000063E583E3B0
:1059B00092E00E94D11FCF910C941A288438B1F440
:1059C0000E94540A82FD9CC167E483E392E00E9436
:1059D000DE1F0E941A282FEF81EE94E021508040B4
:1059E0009040E1F700C0000067E4E1CF8CEF8C0F3E
:1059F000813A08F038C180911902813069F018F0BD
:105A00008230A1F128C18091A302823209F060C1E5
:105A10008C2F0E94732024C18091A3028232C1F393
:105A2000C431E1F070F4CB3081F0C031D1F40E9488
:105A3000141C84EE9FE00E94A70882E08093190264
:105A40000DC1C93259F0C83361F48CE19BE00E946A
:105A5000A70888EE9FE00E94A70800C110921902D3
:105A600035C182EE9FE00E94A70830C1C43218F50C
:105A7000CE3108F0BFC0CB3091F1C0F4C73009F08F
:105A8000D1C01092F70184E180931601C0932401E4
:105A90008CE38093230188E08093220188E2809345
:105AA000210183E990E10E94A708BFC0C33149F1F9
:105AB000C431C1F0B7C0CB3409F4A9C028F4C9324D
:105AC00089F0C83361F0AEC0C13509F49EC0C2355B
:105AD00009F499C0CE3409F0A5C06AE09EC00E94C6
