:100000000C94A0030C94502C0C94E7030C94E7037D
:100010000C94E7030C94E7030C94E7030C94E703B8
:100020000C94E7030C94E7030C9426240C946223AD
:100030000C9448190C94E7030C94E7030C94E70321
:100040000C94E7030C94E7030C94E7030C94E70388
:100050000C94E7030C94DD180C94E7030C94E7036D
:100060000C94E7030C94E7030C94E7030C94E70368
:100070000C94E7030C94E7030C94E7030C94E70358
:100080000C94E7030C94E7030C94E7030C94E70348
:100090000C94E7030C94E7030C94E7030C94E70338
:1000A0000C94E7030C94E7030C94E703E207E507DD
:1000B000060813081A083A083D08710893082D0924
:1000C00037099E08A008A408C708E708EA08ED0851
:1000D0000F09ED0CED0C270D270D7A0D960D280F4D
:1000E000280FA10D7F0E900E900E680F920F970FA4
:1000F0009C0FA10FA60FAB0FB00FB50FBA0FBF0F1C
:10010000C60FC90FCC0FCF0FD20FD50FD80FDB0FF3
:10011000E00FBA1CBA1CCD1CCD1CC31CCD1CCD1CC1
:10012000CD1CBA1CBA1CC81CCD1CCD1CC81C762109
:100130009D2144239D214423E9210C2244230123B2
:10014000112332190A00047F3F1F643214643214F1
:10015000783C1E1E140A050000000000000000008C
:1001600000000000000000000000007E0F00D4FF2F
:10017000FFFFC70000007800000000000000002A18
:100180002B2800000000000000000000000000001C
:10019000000029000000002C1E34202122243426D7
:1001A00027252E362D3738271E1F202122232425D0
:1001B000263333362E37381F0405060708090A0B85
:1001C0000C0D0E0F101112131415161718191A1BF7
:1001D0001C1D2F3130232D350405060708090A0B95
:1001E0000C0D0E0F101112131415161718191A1BD7
:1001F0001C1D2F3130354C000101010101010101AD
:1002000001020202020202020202030303030303C9
:100210000303040404040404040505050505060697
:100220000606060707070707080808080909090955
:100230000A0A0A0B0B0B0C0C0C0D0D0D0E0E0E0FFB
:100240000F0F10101111111212131314141515168B
:10025000161717181819191A1A1B1B1C1D1D1E1EFC
:100260001F2020212222232424252626272829294D
:100270002A2B2C2D2D2E2F30313232333435363778
:1002800038393A3B3C3D3E3F404142434445464776
:1002900048494A4C4D4E4F50515354555658595A4F
:1002A0005B5D5E5F616264656668696B6C6D6F70F3
:1002B00072737577787A7B7D7E8082838587888A62
:1002C0008C8E8F91939596989A9C9EA0A2A3A5A799
:1002D000A9ABADAFB1B3B5B7BABCBEC0C2C4C6C995
:1002E000CBCDCFD1D4D6D8DBDDDFE2E4E7E9EBEE4E
:1002F000F0F3F5F8FAFDFFFFAA7F5540050109026A
:10030000A10185020901A1000509190129051500AE
:10031000250195057501810295017503810105018E
:10032000093009311581257F950275088106093844
:100330001581257F950175088106050C0A3802157F
:1003400081257F950175088106C0C005010980A13E
:1003500001850319012AB700150126B7009501751B
:10036000108100C0050C0901A101850419012AA012
:1003700002150126A002950175108100C00660FFDC
:100380000961A1010962150026FF00952075088109
:10039000020963150026FF00952075089102C0052B
:1003A000010906A101050719E029E71500250195B6
:1003B0000875018102950175088101050719002959
:1003C000FF150026FF009506750881000508190134
:1003D0002905950575019102950175039101C009E3
:1003E000025B00030100A0FA0904000001030101FF
:1003F00000092111010001224000070581030800C6
:100400000A09040100020300000009211101000192
:1004100022220007058203200001070503032000B4
:10042000010904020001030000000921110100017B
:100430002281000705840320000A12011001000038
:100440000008504460300100010200012203440012
:1004500061006300740079006C00200045007200A8
:1004600067006F0028003600780036002900000081
:100470001A034D0041004E00550046004100430064
:1004800054005500520045005200000004030904C6
:100490002223252628292A2C2D2F30323335363891
:1004A0003A3B3D3E4042434547494A4C4E505153EA
:1004B0005557595A5C5E6062646668696B6D6F710E
:1004C000737577797B7D7F81838587898A8C8E9010
:1004D000929496989A9C9E9FA1A3A5A7A8AAACAE19
:1004E000AFB1B3B4B6B8B9BBBCBEBFC1C2C3C5C659
:1004F000C7C9CACBCCCDCED0D1D2D2D3D4D5D6D702
:10050000D7D8D9D9DADADBDBDBDCDCDCDCDCDDDD3F
:10051000DDDDDCDCDCDCDCDBDBDBDADAD9D9D8D72F
:10052000D7D6D5D4D3D2D2D1D0CECDCCCBCAC9C7D1
:10053000C6C5C3C2C1BFBEBCBBB9B8B6B4B3B1AF08
:10054000AEACAAA8A7A5A3A19F9E9C9A98969492A8
:10055000908E8C8A89878583817F7D7B797775737F
:10056000716F6D6B6968666462605E5C5A5957555D
:100570005351504E4C4A4947454342403E3D3B3A19
:100580003836353332302F2D2C2A292826252322A0
:100590002E001E001F002000210022002B0014004E
:1005A0001A000800150017003900040016000700A3
:1005B00009000A00E1001D001B00060019000500EB
:1005C00029003541490450004F002A000000E00096
:1005D000E2004A004D004C002300240025002600C4
:1005E00027002D001C0018000C0012001300310021
:1005F0000B000D000E000F003342340011001000FC
:10060000360037003861E5002C00520051002F0001
:1006100030000158280005030007E300E400000053
:1006200001003A003B003C003D003E0001001E027C
:100630001F022F0030003102010020022102260299
:10064000270235000100220223022F00300035026C
:10065000005C010001000100010001000000010038
:1006600001000100010001003F0040004100420084
:100670004300440052005F006000610055004500E7
:1006800051005C005D005E005700460424025900E2
:100690005A005B0054000100010001006300620089
:1006A0006700010001004E004B0001000100000046
:1006B000A60001000100010001000100010001008D
:1006C0000100F0000100010001000100F200F10052
:1006D000F300010001000100010001000100010020
:1006E000005C01000100F400F500010000000100C1
:1006F00001000100010001000100010001000100F2
:1007000001000100010001000100010001000100E1
:1007100001000100010001000100AE000100010024
:10072000AC00AB0001000100B600A900AA00A800BF
:1007300001000100010001000100010001000000B2
:1007400011241FBECFEFDAE0DEBFCDBF04B603FE3B
:1007500027C08091870390918803A0918903B0916D
:100760008A038730904BA740B04BD1F41092870397
:10077000109288031092890310928A0314BE84B7E2
:10078000877F84BF0FB6F894A89580916000886138
:1007900080936000109260000FBEE0E0F8E30995DE
:1007A00023E0A0ECB1E001C01D92A738B207E1F749
:1007B00011E0A0E0B1E0EEEAFDE502C005900D9287
:1007C000A03CB107D9F70E94E9030C94D52E0C94F4
:1007D0000000CF93DF93CDB7DEB7AA970FB6F8949A
:1007E000DEBF0FBECDBF84B7877F84BF0FB6F8943E
:1007F000A8958091600088618093600010926000ED
:100800000FBE90E080E80FB6F8948093610090935B
:1008100061000FBE85B7806885BF85B7806885BFDA
:100820000E94A6230E94C5238091E20084608093E9
:10083000E20078948091B6028823A1F01091E9003B
:100840001F709091EC00892F817090FD80E8182B2B
:100850001092E9008091E80083FD0E9490201F70B3
:100860001093E90082E084BD93E095BD9AEF97BDB7
:1008700080936E008EE090E00E94BF2D91E0811188
:1008800001C090E09093190180911901882321F013
:10089000109204018CE003C08CE0809304018093EB
:1008A00005010E949712882331F062E070E089E030
:1008B00091E00E94FE2B80911901809119018823FB
:1008C00011F090E001C096E09093DD0186E0891B75
:1008D0008093DC0108E311E08EE3E82E81E0F82E3E
:1008E000F80181918F010E94B412E016F106C1F760
:1008F00004E411E0BAE4EB2EB1E0FB2EF8018191A3
:100900008F010E94B412E016F106C1F7E0EDF1E0AC
:100910008CED91E0A0E1B2E011921D928E179F073D
:10092000D9F70E94C4148FE39CE90197F1F700C046
:1009300000000E94C4148091100280FF0AC080E071
:100940000E94962A6FEF7FEF80E090E00E94F12DE9
:100950009AC480E090E00E94CD2D8C3E9E4F11F015
:100960000E94A9190E949712811106C062E070E0EE
:1009700089E091E00E94072C82E290E00E94BF2D66
:10098000813281F483E290E00E94BF2D813051F4E6
:1009900084E290E00E94BF2D91E0833209F090E064
:1009A000892F01C080E080FF95C480E090E00E9424
:1009B000CD2D8C3E9E4F11F00E94A91982E090E04F
:1009C0000E94BF2D8093FE010E9498199093DF0131
:1009D0008093DE0183E090E00E94BF2D682F70E0DD
:1009E00080E090E00E94551B8091E00181113BC0A6
:1009F00080E090E00E94CD2D8C3E9E4F21F00E9421
:100A0000A9190E94EC1088E090E00E94C72D609325
:100A10000B0270930C0280930D0290930E02809152
:100A2000EF0183608093EF016E7F71F40E94EC1000
:100A300088E090E00E94C72D60930B0270930C0237
:100A400080930D0290930E020E94A5100E94CC2A62
:100A500080910B0280FF04C060E086950E947114B3
:100A600081E08093E0018BE191E09093E20180933B
:100A7000E101CE0101967C013E019FE0690E711CEF
:100A8000A5E4AA2EA1E0BA2E8091B602853009F025
:100A90003AC08091B602843021F11092E30120E443
:100AA00088E190E00FB6F894A895809360000FBE9F
:100AB0002093600083B7817F846083BF83B78160A8
:100AC00083BF7894889583B78E7F83BF0FB6F894E1
:100AD000A89580916000886180936000109260000A
:100AE0000FBE8091AC02882309F4CECF0E94C414BB
:100AF0008CE192E0E0E1F2E021912111CCC38E176C
:100B00009F07D1F7C1CF0E94C4140E949712882377
:100B1000A1F1AFEFB1E0E0E1F2E000E010E0302F52
:100B200021919D91922721F180E0DD24D394492FDA
:100B30004D21D1F089A33AA32D2181E009F480E071
:100B40008BA30E9412198160782F9DA38CA349A1C9
:100B50005AA16BA18DA10E94D828F801E150FE4F47
:100B60008081D826D08219C08F5FDD0C8630F9F6DF
:100B70000F5F1F4F0C30110591F68FEF8EA38FA3DF
:100B800018A60E9412198160782F9AA789A74EA1F2
:100B90005FA168A58AA50E94D8288091EE018823CC
:100BA00009F4D4C08091ED01E0910B02E695E81BB9
:100BB000E093E901823059F4F0E0ED5AFE4FE49100
:100BC0000E2F10E0F4ECCF2EF8E2DF2E6AC0863054
:100BD00059F4F0E0E05BFE4FE4910E2F10E0E4EBFF
:100BE000CE2EE8E2DE2E5DC0893061F4E695F0E0BD
:100BF000E35BFE4FE4910E2F10E079E3C72E78E21D
:100C0000D72E4FC08F3061F4E695F0E0E65BFE4FE3
:100C1000E4910E2F10E06CE9C62E67E2D62E41C09B
:100C2000853159F4F0E0E95BFE4FE4910E2F10E0BE
:100C300056E1C52E57E2D52E34C08831F1F083320B
:100C400041F4F5010591149144E7C42E48E2D42EF5
:100C500028C08432C9F08532F1F48E2F63E00E94FF
:100C60006A2EE92FF0E0EE5BFE4FE4910E2F10E0CC
:100C700035E8C32E35E2D32E14C008E210E023E895
:100C8000C22E26E2D22E0DC004EF11E094E4C92E4C
:100C900096E2D92E06C000ED17E084E8C82E85E262
:100CA000D82E8091EA01882389F01092EA010E94EF
:100CB0001219980120953095820F931F9093E801A7
:100CC0008093E7011092EC011092EB018091E70113
:100CD0009091E8010E94031980179107B8F1809163
:100CE000E6018823B1F01092E6018091E401909131
:100CF000E5010E9403198033954758F00E941219AC
:100D00009093E5018093E4018091EF0188608093E6
:100D1000EF018090EB019090EC01E091E701F09100
:100D2000E8010E0F1F1F1093E8010093E70187EE03
:100D300091E0F60109958091EB019091EC01892BEE
:100D400029F4892819F081E08093E60186E0E7EF35
:100D5000F1E0D70101900D928A95E1F7C090F90179
:100D6000D090FA010091FB011091FC011092F90161
:100D70001092FA011092FB011092FC01C11003C005
:100D8000DD2009F45DC08091F5019091F6010E948B
:100D90000319AC019091F401992339F020911A01C3
:100DA00030E02417350758F04BC02091F301FAE0EA
:100DB0002F9F900111242417350718F041C09F3F41
:100DC00019F09F5F9093F401CC2061F00E941B18F2
:100DD0001C1414F491E001C09FEF899F802D112411
:100DE0008093F901DD2061F00E941B181D1414F49A
:100DF00091E001C09FEF899F802D11248093FA011B
:100E00003091F9013323E1F02091FA012223C1F05E
:100E100045EB3403C0011124992319F09093F90193
:100E200003C081E08093F90135EB2303C001112455
:100E3000992319F09093FA0103C081E08093FA019D
:100E4000011103C0112309F451C08091F101909167
:100E5000F2010E9403199C019091F001992309F479
:100E600046C22536310508F441C09F3F19F09F5F07
:100E70009093F001002361F00E94E217101614F421
:100E800091E001C09FEF899F802D11248093FB0189
:100E9000112361F00E94E217111614F491E001C0D1
:100EA0009FEF899F802D11248093FC013091FB01DD
:100EB0003323E1F02091FC012223C1F045EB340300
:100EC000C0011124992319F09093FB0103C081E024
:100ED0008093FB0135EB2303C0011124992319F002
:100EE0009093FC0103C081E08093FC018091F901A3
:100EF00081110BC08091FA01811107C08091FB0123
:100F0000811103C08091FC0181110E941E19CB82C6
:100F1000DC820D831E8386E0F701A7EFB1E001902C
:100F20000D928A95E1F70E94A0299091FD01891701
:100F300021F00E94A0298093FD018091B6028430A7
:100F400009F0A2CD83E08093E9008091E80082FF60
:100F50009BCD8091E80085FF1FC00E94FF24811176
:100F600019C000E210E0670108C08091F100F601AD
:100F700081936F010150110969F08091E80085FDAE
:100F8000F4CF8091E8008B778093E8000E94FF24E3
:100F9000882399F391E001C090E08091E8008B777D
:100FA0008093E800992309F46FCDE9818E2F90E0BA
:100FB000FC013197E331F10508F067C1EA5AFF4FB0
:100FC0000C94AC2E1A8289E0A7C08A81823009F481
:100FD00078C1833089F0813009F057C12FB7F89478
:100FE00080911C0290911D02A0911E02B0911F02DF
:100FF0002FBFBB83AC831CC0FE013396A0E1B2E0DF
:101000008D918193E615F705D9F741C18A81823028
:1010100009F03BC16B817C818D819E810E94B22E43
:1010200085E290E024C04C816B818A810E94632A12
:101030009D834EC1CD80DE80DC24CD24DC248C81D8
:101040000B819A81FCE00F9F8001112420E9929F7F
:10105000000D111D1124080F111D080F111D6D2DFC
:10106000C80186960E94D32D6C2DC80187960E94D8
:10107000D32D0DC10E942F2A0AC18A818138B1F077
:1010800050F4803809F003C120E04B8160910D02DB
:1010900080910C0223C08238E9F0833809F0F7C050
:1010A00020E040910E026C818B8118C060E08B8142
:1010B0000E9471148B81811103C00E945A14E7C0F1
:1010C00080910B02816080930B0260E086950E9404
:1010D0007114DDC08B8180930F02D9C00E94B311BF
:1010E000D6C08A81813899F030F4803809F0CFC0B9
:1010F00080910E0211C0823899F0833809F0C7C080
:1011000080910C028B8380910D028C83C0C08091F2
:101110000B0280FF03C086958B83B9C080E0FCCFB3
:1011200080910F02F9CF60910B0270910C028091B7
:101130000D0290910E020E94B810A9C080E14BC030
:1011400081E08A838AE9E8CF0A811B811027012781
:1011500010278C80912C6701C8018A599D4F9601F8
:101160002E193F092815390508F091C00A3931E0D8
:10117000130728F40E94BF2DF601848302C0F601F4
:1011800014820F5F1F4FFFEFCF1ADF0AE5CF0A81EE
:101190001B811027012710278C80912C6701C80123
:1011A0008A599D4F96012E193F092815390508F0D7
:1011B0006EC00A3921E0120720F4F60164810E9412
:1011C000D32D0F5F1F4FFFEFCF1ADF0AE8CF0E942A
:1011D0001F2A5DC084E08A835AC00A811B811027C0
:1011E000012710278C80912C6701C80186969601F3
:1011F0002E193F092815390508F049C0003422E0AE
:10120000120728F40E94BF2DF601848302C0F60164
:1012100014820F5F1F4FFFEFCF1ADF0AE6CF0A815C
:101220001B811027012710278C80912C6701C80192
:10123000869696012E193F092815390540F5003488
:1012400022E0120720F4F60164810E94D32D0F5F83
:101250001F4FFFEFCF1ADF0AEACF80E00E94962AE5
:101260006FEF7FEF80E090E00E94F12D10C0C7018A
:101270000E945E252FEF31EE44E021503040404087
:10128000E1F700C000000E94CC188FEF8983C701EE
:101290000E945E25F9CB80E189BD82E189BD09B458
:1012A00000FEFDCF8091D8008F7D8093D800809183
:1012B000E00082608093E0008091E00081FDFCCF3F
:1012C000E3CB85E290E00E94BF2D1B821C821D8231
:1012D0008E83DDCF60E085E290E00E94D32D0E94F6
:1012E0002F2A0E941F2A81E00E94962A5ECB232B80
:1012F00009F0BDCDFBCD5F926F927F928F929F924E
:10130000AF92BF92CF92DF92EF92FF920F931F9313
:10131000CF93DF93CDB7DEB729970FB6F894DEBF32
:101320000FBECDBFFC018081918123813481232BAD
:1013300031F09F3F31F491E08F3F19F403C091E009
:1013400001C090E090FD41C67F0185E0DE0111966D
:1013500001900D928A95E1F7F701228189819A81A6
:10136000222349F00E94461A182F682F89819A81FA
:101370000E94C01A03C00E94931A182F69817A81B3
:10138000812F0E94892A8C01F7019281992309F407
:10139000DFC0980122513F452031310508F004C1DA
:1013A0008FEF93E00E94BF2D8111DCC0025136E621
:1013B000832E32E0932E002379F08114F4E09F060F
:1013C00009F4D0C0C4010E94BF2D811101C0015099
:1013D0001FEF811A910AEFCF1E821F82188619868D
:1013E000662463942AE0522E84010F5F1F4FC401CC
:1013F0000E94BF2D8E831F82882309F4B3C09FEF04
:10140000980F933060F48F836E8222E0820E911CDD
:10141000C8010E94BF2D8887811102C0A3C0480166
:101420008E010A5F1F4FF80120812223E9F221304B
:1014300009F04CC08181813049F46801F2E0CF0E9F
:10144000D11CF80182810E945F200AC0823051F4D1
:101450006801F2E0CF0ED11CF80182810E94381F92
:10146000860173C0833049F46801F2E0CF0ED11CCD
:10147000F80182810E94D11EF3CF843019F00F5FF2
:101480001F4F63C0F80122810E5F1F4F80E090E084
:1014900030E0205331092A30310568F4589EA0010C
:1014A000599E500D1124C901840F951F0F5F1F4FC6
:1014B000F8012081EDCF009709F447C0EFE9FFE084
:1014C0003197F1F700C000000197F5CFE22FF0E06F
:1014D000E958FE4F7490822F86958695869590E008
:1014E000FC01E959FE4FA4902770B12C022E02C0D6
:1014F000B594A7940A94E2F7F1E0AF22BB24FC0173
:10150000E95AFE4FC490D12C02C0D594C7942A95B5
:10151000E2F721E0C222DD24A114B10419F081EE2A
:101520000E94381FC114D10419F086EE0E94381FA2
:10153000872D0E945F20CD2819F086EE0E94D11ED3
:10154000AB2819F081EE0E94D11E0F5F1F4F6BCFA9
:1015500000313FE5130709F0AEC481E00E94F61A9E
:101560000E94722080919402877009F42EC5F701C1
:101570008281882309F429C582E029960FB6F89460
:10158000DEBF0FBECDBFDF91CF911F910F91FF90B6
:10159000EF90DF90CF90BF90AF909F908F907F9013
:1015A0006F905F900C941B1B0031FFE51F0711F437
:1015B00081E005C001312FE5120721F482E00E948D
:1015C000341BCECF043FFCE51F0749F406E221EEB1
:1015D00040EE64EF7CE5C7010E94AC29C3CF053F14
:1015E0002CE5120708F04AC1093D3CE5130731F428
:1015F00007E225EE45EE69ED7CE5EDCF0A3D8CE591
:10160000180731F408E221E045EE6AED7CE5E3CF0E
:10161000083DECE51E0731F406E221EE41EE68EDEF
:101620007CE5D9CF992309F45EC1109220020230E3
:101630003CE5130708F441C106318CE5180738F082
:1016400098012B5F3C452930310508F036C10E94D6
:1016500098199093DF018093DE0100319CE5190712
:1016600009F4C3C008F041C00830FCE51F0709F4C5
:101670009AC0F0F404303CE5130709F487C068F41D
:1016800002309CE5190709F477C003301C4509F0C6
:10169000E5C08091DE01826076C00630FCE51F0760
:1016A00009F46EC008F07BC08091DE0188606BC0D9
:1016B0000C303CE5130709F485C068F40A309CE55A
:1016C000190709F474C008F079C00E94B11E809116
:1016D000DE01806858C00E30FCE51F0709F476C0B3
:1016E00008F07FC08091DE018BC00C3F3CE5130702
:1016F00009F44FC018F503319CE5190709F47DC0C2
:1017000078F40131FCE51F0709F473C002311C4570
:1017100009F0A4C00E94B11E8091DE018F7733C012
:1017200005313CE5130709F472C008F486C00B3F8D
:101730001C4509F093C08091DF013EC00115EDE525
:101740001E0709F45FC058F40E3F2CE5120709F498
:1017500044C008F43FC08091DF0182602DC0023098
:101760008DE5180709F475C008F45DC003301D4508
:1017700009F074C060E06EC08091DE01816003C03A
:101780008091DE0180618093DE0168C08091DE017E
:1017900011C08091DF0182608093DF015FC0809182
:1017A000DE018062F0CF8091DE018064ECCF809119
:1017B000DE0188608460E7CF8160EECF8091DE013A
:1017C0008E7FE1CF8091DE018D7FDDCF8091DE01C4
:1017D000877FD9CF8091DF0118C08091DF018D7F95
:1017E000DBCF8091DE018F7ECECF8091DE018F7DB9
:1017F000CACF8091DE018F7BC6CF8091DE01877FCB
:101800008B7FC1CF8091DF018D7F8E7FC5CF80918F
:10181000DE0182FB222720F991E0922790FB82F9DA
:1018200090FB83F9B0CF8091DF01982F9095917054
:101830008E7F892B90FB81F9AFCF0E94B11E8091E2
:10184000DE0187FB222720F991E0922790FB87F9A0
:101850009ACF61E08EE090E00E94D32D6091DE018E
:101860001091DF0184E090E00E94D32D612F81E28E
:1018700090E00E94D32D0E94B11E74CE063FFCE57D
:101880001F0731F406E221EE42EE66EF7CE5A3CEBF
:10189000063F2CE5120730F407E225EE44EE65EF33
:1018A0007CE599CE073F3CE5130709F0BBCE07E284
:1018B00025EE46EE67EF7CE58ECE06318CE5180707
:1018C00019F5809197028A7A91E009F490E090935B
:1018D0002102882311F065E301C069E287E292E00A
:1018E0000E947E190EC00631ECE51E0721F580919D
:1018F0002102882309F4E6C265E387E292E00E94B0
:1019000071190E94191A2ECE01152CE5120731F01B
:101910000F3D1C45D1F40E94A91924CE0E94B11E8E
:101920008FEF94E3ECE081509040E040E1F700C09D
:1019300000000E94CC18809197028272F801E35C4B
:10194000FC45E431F10508F4BFC2F70100811181C3
:10195000992349F0C8010E94461AD82E682FC80161
:101960000E94C01A04C0C8010E94931AD82EB80160
:101970008D2D0E94CB128C01982EF701A580A29488
:101980009FE0A922D280D1101092960280919402F9
:10199000877099F0DD2089F0812F807F803421F0DD
:1019A00080E2800F883048F082E00E941B1B80910B
:1019B00094028770CC24C3948111C12CB12EB294AF
:1019C0008FE0B8228B2D90E08C30910508F040C25A
:1019D000FC01E759FF4F0C94AC2E812F807F1F70C4
:1019E000882311F01295107FDD20B9F0112309F43E
:1019F0001AC280E2800F883010F0911006C08091EA
:101A00009702182B1093970205C080919602182B0D
:101A1000109396020E94191A06C2802F0E94D11EAE
:101A2000112309F415C2005E1095083010F09110D2
:101A300006C08091970218231093970205C08091E9
:101A400096021823109396020E94191A01C2812F40
:101A5000807F1F70803211F01295107F992021F045
:101A6000F1E09F16E1F02AC0DD2081F0809198021C
:101A7000AA2051F001E0A01207C0182B181709F492
:101A8000E7C110939802E4C1812B10C0AA2021F075
:101A900021E0A21609F4DCC10E94131A27C0DD2040
:101AA00041F035E03A1508F4D3C1812F0E94C71EDA
:101AB000CFC184E08A1508F4CBC118C0DD2049F0FD
:101AC000AA2099F3F701858180FFADC18F708583CE
:101AD000ECCFAA2059F0093309F0B7C1FFEF17EE98
:101AE00023E0F15010402040E1F7ADC1812F0E946A
:101AF000BC1EAEC1812F86958695837019F081300A
:101B000059F0A6C1DD2019F0C801937002C080E031
:101B100090E00E948A29A2C1DD2019F0C8019370CB
:101B200002C080E090E00E94742998C1802FDD20DF
:101B300019F00E94641802C00E945D170E941E19CD
:101B40008DC1812F837009F069C0D11085C1902F9C
:101B5000929596959770990F990F802F8F70882E78
:101B6000912CA12CB12C092E04C0880C991CAA1C04
:101B7000BB1C0A94D2F704FF12C04FE050E060E0B3
:101B800070E004C0440F551F661F771F9A95D2F767
:101B9000DB01CA0180959095A095B09503C080E0C7
:101BA00090E0DC0116951695412F4370423019F1F3
:101BB000C8F40091990210919A0220919B023091F1
:101BC0009C02413059F088299929AA29BB29BC01D6
:101BD000CD0160237123822393230AC0802A912A96
:101BE000A22AB32ABC01CD01682979298A299B2917
:101BF0000E94551B31C188299929AA29BB29009126
:101C0000990210919A0220919B0230919C02BC0192
:101C1000CD016027712782279327EACFDD2019F0B5
:101C2000812F817001C08695882309F415C1902FFA
:101C3000929596959770990F990F802F8F70882E97
:101C4000912CA12CB12C092E04C0880C991CAA1C23
:101C5000BB1C0A94D2F704FF12C04FE050E060E0D2
:101C600070E004C0440F551F661F771F9A95D2F786
:101C7000DB01CA0180959095A095B09503C080E0E6
:101C800090E0DC0116951695412F43704230D9F053
:101C900068F50091B7021091B8022091B902309115
:101CA000BA02413059F088299929AA29BB29BC01D7
:101CB000CD0160237123822393231EC0802A912AA1
:101CC000A22AB32A13C088299929AA29BB290091DD
:101CD000B7021091B8022091B9023091BA02BC014A
:101CE000CD01602771278227932706C0BC01CD0153
:101CF000682979298A299B290E94EC1AADC01F7096
:101D0000DD2039F0812F0E94341B802F0E94C71ED6
:101D1000A3C0802F0E94BC1E812F0E94F61A9CC077
:101D2000802F32EF931609F440C0391538F090EF48
:101D3000991661F0E1EF9E1699F170C0F3EF9F16CE
:101D4000D9F124EF921609F44EC068C0DD2019F1D4
:101D500034E03A1508F47CC01F7181E090E0A0E007
:101D6000B0E0AC01BD0104C0440F551F661F771FD2
:101D70001A95D2F78091B7029091B802A091B9025A
:101D8000B091BA028A019B01082719272A273B270D
:101D9000C901B80125C025E02A1508F459C0DCCFD7
:101DA000DD2029F0812F8F712CC0DD20D9F3812F08
:101DB0008F710E94F61A4CC0DD2079F01F7181E00E
:101DC00090E0A0E0B0E0BC01CD0104C0660F771F39
:101DD000881F991F1A95D2F703C060E070E0CB010D
:101DE0000E94EC1A35C0DD2079F01F71812F0E940E
:101DF000341B38E0139FC001112483608093940248
:101E0000812F0E94341B24C081E00E941B1B81E0B3
:101E10008A15F0F482E00E941B1B1AC0DD2039F005
:101E2000AA2009F4BFCF802F0E94381F11C0AA201A
:101E300009F4BDCF893349F49FEFE7EEF3E0915009
:101E4000E040F040E1F700C00000802F0E94D11E6A
:101E500088EF8B0D843010F40E94A029CC2009F467
:101E6000B4C08091940280FDB0C0F70112828595C4
:101E7000859585950E94341BC7010E947B0980913E
:101E8000940285958595859529960FB6F894DEBFC1
:101E90000FBECDBFDF91CF911F910F91FF90EF90BB
:101EA000DF90CF90BF90AF909F908F907F906F907A
:101EB0005F900C94F61A01318FE5180709F082CB78
:101EC00082E04CCB69E219CDEB58FF4F0C94AC2E5D
:101ED00080910B0280FF20C08E7F80930B02609167
:101EE0000B0270910C0280910D0290910E020E94E3
:101EF000B8100E94CC2A8091EF0181608093EF019D
:101F0000FFEF00E712E0F15000401040E1F700C0A1
:101F100000000E943E1026CB816080930B0261E09E
:101F2000869550C041EB54E16AEB74E12CC04AEB5A
:101F300054E161EB74E127C045E852E16EE872E1DB
:101F400022C04EE852E165E872E11DC04DE652E163
:101F500069E772E118C049E752E16DE672E113C02A
:101F600045E552E161E672E10EC041E652E165E508
:101F700072E109C04AEC50E16BED70E104C04BED39
:101F800050E16AEC70E10E94C62AECCA61E081E08F
:101F900019C065E082E011C068E086E00EC06EE026
:101FA00089E00BC064E18FE008C067E185E105C00E
:101FB00061E088E107C062E289E10E94B42AD2CAE6
:101FC00061E083E20E947114CDCA29960FB6F8949D
:101FD000DEBF0FBECDBFDF91CF911F910F91FF905C
:101FE000EF90DF90CF90BF90AF909F908F907F90B9
:101FF0006F905F9008959091DE0192FF0DC0282FA1
:102000002871283019F4877F846006C0282F247136
:10201000243011F48B7F886093FF0DC0282F287126
:10202000283119F4877E846106C0282F2471243159
:1020300011F48B7E88612091DF0120FF0DC0382FC5
:102040003871383019F4877F816006C0382F3171BC
:10205000313011F48E7F886021FF0DC0282F287148
:10206000283119F4877E816106C0282F2171213122
:1020700011F48E7E886194FD877E0895309105016C
:1020800080910B0280FF16C0E091040163E0E69F9F
:10209000F0011124E254FD4F539A8BB1877F9BB11D
:1020A00098602FB7F894AF0163E0369F400D511D43
:1020B000112414C08091060190910701891720F71F
:1020C000E82FF0E0AF01440F551FE40FF51FE25475
:1020D000FD4F1182108212828F5FF0CFE417F50757
:1020E00089F0319168E09BB9000000C037FF8BB9DF
:1020F000330F000000C000C000C08BB900C06A955B
:1021000091F7ECCF2FBF8FE594E00197F1F700C076
:102110000000089590910B0290FF16C09091060167
:1021200020910701921770F4E92FF0E0DF01AA0F68
:10213000BB1FEA0FFB1FE254FD4F81836083428384
:102140009F5FF0CF0C943E10089580910B02282FD2
:10215000269530E02115310519F48170826005C0A3
:102160002B32310524F08170846580930B02089531
:10217000CF92DF92EF92FF926B017C010E94A5103B
:10218000B701A60188E090E0FF90EF90DF90CF903C
:102190000C94E52D80910F02882319F081508093D3
:1021A0000F0260910B0270910C0280910D029091D0
:1021B0000E020C94B81080910F02833018F48F5FD8
:1021C00080930F0260910B0270910C0280910D02BE
:1021D00090910E020C94B810EBE0F2E083E0808363
:1021E00011828FEF828383831482ADEEB1E0129669
:1021F0008C911297836012968C9360817181828199
:1022000093810C94B810AF92BF92CF92DF92EF926D
:10221000FF920F931F93CF93DF93E82EF62EE901E1
:10222000E42FF0E0611106C0E950FE4FE4914E2F1B
:102230002E2F71C0062F10E0E950FE4F4491F42F6D
:10224000C42ED12C26E0829FC00111242FEF30E054
:10225000B9010E94842E5BEA5603C001579F900D7E
:1022600011248E0D911D8E0D911D582F550F580F55
:10227000D901A01BB10BAC9DC001AD9D900DBC9DC3
:10228000900D1124E92FF59ED0011124AB2FBB270F
:102290007901EA1AFB0AEC9CD001ED9CB00DFC9C84
:1022A000B00D11245901A51AB108A09E7001A19E7C
:1022B000F00CB09EF00C1124EF2CFF242E193F09D6
:1022C0002C9D80012D9D100D3C9D100D1124212F62
:1022D0006230710591F048F461157105E1F06130EB
:1022E0007105B9F4242F4B2F16C06430710569F0C5
:1022F00040F06630710579F00CC0242F492FE12F92
:102300000AC0492FEF2F2B2F06C0292FE42F412F72
:1023100002C0292FEB2F49832883EA83DF91CF91D5
:102320001F910F91FF90EF90DF90CF90BF90AF90F3
:102330000895CF93DF9300D01F92CDB7DEB7909171
:102340000B0290FF0AC09E012F5F3F4F0E940311B6
:102350004B8169818A810E948A100F900F900F90A3
:10236000DF91CF910895AF92BF92CF92DF92EF921B
:10237000FF920F931F93CF93DF9300D01F92CDB79F
:10238000DEB7182FF62E042FE22E90910B0290FF4D
:102390007EC0E92FE695AE2FB0E0A65BBE4F8C91D4
:1023A0008093ED019E7F923061F49E012F5F3F4F3D
:1023B000812F0E9403114B8169818A810E948A10BA
:1023C00043C0823019F400910E023EC0863019F4E9
:1023D00010910C0239C08930D9F38931A9F5E9513E
:1023E0008E2F8170D82EE695F0E0E950FD4FA59034
:1023F000B490C12CBB2460910801C61618F52C2D91
:1024000030E0A29EC001A39E900DB29E900D1124BB
:1024100070E00E94842E812FD11002C0860F01C06F
:10242000861B90910601290F311DA901440F551FEC
:10243000240F351F22543D4F402F6F2D0E94031152
:10244000C394D9CF0E943E1080910C02181308C08B
:1024500080910D02F81204C080910E02081729F035
:102460008091EF0182608093EF0110930C02F09253
:102470000D0200930E02EE2051F060910B0270915C
:102480000C0280910D0290910E020E94B8100F90E4
:102490000F900F90DF91CF911F910F91FF90EF90D0
:1024A000DF90CF90BF90AF900895EBE0F2E04381D2
:1024B00021E1421B08F440E021E0628181810C941B
:1024C000B311EBE0F2E0438121E1420F08F44FEF5A
:1024D00021E0628181810C94B311EBE0F2E0628132
:1024E00021E1621B08F460E021E0438181810C94CA
:1024F000B311EBE0F2E0628121E1620F08F46FEFCB
:1025000021E0438181810C94B311EBE0F2E0818101
:1025100021E04381628188500C94B311EBE0F2E03A
:10252000818121E043816281885F0C94B3118091A5
:102530002602811112C08091D80080618093D8005A
:102540008AE18A95F1F700C08091D90080FD02C030
:1025500082E001C081E08093260281E09091260212
:10256000913009F080E00895F894E82FE295EF703B
:10257000F0E031A1282F2F7081E090E001C0880F9A
:102580002A95EAF7982F9095932391A392A1892BEE
:1025900082A378940895CF93DF930E94892AEC0157
:1025A0008238910559F1A0F48133910509F473C083
:1025B00040F48932910509F467C08A9709F472C022
:1025C00084C08533910509F458C0C997B9F07DC01E
:1025D000833E910571F138F4803E9105B1F0823E61
:1025E000910511F172C0863E9105B9F1873E9105C2
:1025F000C9F1843E910509F068C024C08091DE01D4
:1026000080FD5DC081FD5BC060C08091DE0180FD0A
:1026100050C08091DF0180FF49C18091DE0184FDBF
:1026200043C1C3EED0E042C18091DE0182FF3EC1D2
:10263000F4CF8091DE0182FD3FC08091DF0180FDFB
:102640003EC0EBCF8091DF0181FF30C18091DE0180
:1026500084FD2AC1C7EED0E029C18091DE0183FF4D
:1026600025C1F4CF8091DE0183FD2CC08091DF0174
:1026700081FFECCFC4EED0E019C18091DE0185FF6F
:1026800015C1C9E2D0E012C18091DE0185FF0EC103
:10269000C5E3D0E00BC18091DE0186FF07C1CAE22D
:1026A000D0E004C18091DE0186FF00C1C1E3D0E02B
:1026B000FDC0C9E3D0E0FAC0C2EED0E0F7C0C0EE82
:1026C000D0E0F4C0C6EED0E0F1C0C11581E5D80776
:1026D00008F066C0C11520E5D207E0F0CE0174E035
:1026E000969587957A95E1F783709C2F937021E0FA
:1026F00030E002C0220F331F9A95E2F73C68382B76
:10270000CF70C695C69540E2C49FE0011124C22B4C
:10271000D32BCCC0C83ED10560F5C03ED10508F032
:10272000C5C0C83AD105B0F4C53AD10540F0C55A84
:10273000D0E0C158DE4FC881D0E0D064B7C0C1300E
:10274000D10509F4B3C008F4AFC0C430D10508F412
:10275000ABC0ACC0CF3BD10508F0A6C0C85AD0E092
:10276000CC0FDD1FCE57DE4F0990D881C02DD46429
:102770009DC0C11540E2D40758F4C11581E0D807C7
:1027800008F094C0C03FD10508F48EC0D0658EC05B
:10279000C11520E4D20708F487C0DF70D06A86C074
:1027A000C11545E5D40708F042C0C11584E5D80736
:1027B00028F0DC2FCC27C46FD06A78C0C11523E580
:1027C000D207B0F0CE018370992721E030E002C03B
:1027D000220F331F8A95E2F78C2F8695869540E26B
:1027E000849FC0011124E901C82BD92BDA685EC08F
:1027F000C11542E5D40728F4DC2FCC27C16FD06A7D
:1028000055C0CE018370992721E030E002C0220F2D
:10281000331F8A95E2F78C2F8695869540E2849F38
:10282000C0011124E901C82BD92BDC683FC0C115B8
:1028300089E5D807B8F4C11528E5D20728F0DC2FC0
:10284000CC27C06FD06A32C0C11546E5D40760F509
:102850008C2F0E94FB0F8F71C82FD0E0DC2FCC276C
:10286000D06224C0C1158AE5D80780F48C2F8F7000
:102870000E94FB0F94E0D695C7959A95E1F7CF702B
:10288000D0E0DC2FCC27D069C82B10C0CE019056E9
:102890008115904248F48D2F8F710E94FB0FDD2728
:1028A000D0628F71D82B02C0C0E0D0E0CE01DF91A2
:1028B000CF910895EBE0F2E080818E7F80830E94CB
:1028C000CC2AEDEEF1E08281816082832FEF80E7F8
:1028D00092E0215080409040E1F700C000000C944D
:1028E0003E1090910B0290FF3BC09170811102C08D
:1028F000926006C08B3210F0946502C0880F982B4E
:1029000090930B028091EF0181608093EF01662329
:1029100051F060910B0270910C0280910D02909128
:102920000E020E94B81060910B02669570E04BE0B9
:1029300050E08AE291E00E94C82E892B19F00E9493
:10294000CC2A02C00E94D32A81E08093EA0120E0D1
:1029500040910E0260910D0280910C020C94B31113
:10296000089580910B028695815009F48AE261E016
:102970000C94711480910B0286958F5F8B3208F056
:1029800081E061E00C9471148F929F92AF92BF929C
:10299000CF92DF92EF92FF920F931F93CF93DF932B
:1029A00008E311E080EDE82E81E0F82E9EE3892E09
:1029B00091E0992E6701D0E0AA24A394B12CB8012C
:1029C000D8018C91F894E82FE295EF70F0E021A106
:1029D0008F70A50102C0440F551F8A95E2F7CA0106
:1029E000922F982B91A392A18095892382A378940A
:1029F00050EA5A95F1F7E4E4F1E020E030E0C0E07D
:102A00004191842F82958F7090E0DC0190968C919B
:102A100090E04F7002C0959587954A95E2F780FD4A
:102A200007C08A2D022E01C0880F0A94EAF701C060
:102A300080E0C82B2F5F3F4F2630310509F70F5F2D
:102A40001F4FFB0180810E94B412D6018C91C817E0
:102A500019F0CC9381E001C080E0D82BBFEFCB1AF6
:102A6000DB0A8016910609F0AACFC091DD01DD23B3
:102A700049F081E0809324020E941219909323026E
:102A800080932202809124028823B9F0809122024F
:102A9000909123020E940319069778F0EC2FF0E042
:102AA000E05FFD4F86ED91E0D7012D917D012193EF
:102AB0008A179B07C9F7109224020E949712882355
:102AC000D1F1C091DC018091EF018823E9F085E02C
:102AD000EBE0F2E0A0ECB1E001900D928A95E1F715
:102AE0008091ED019091EE01A091EF018093C501DD
:102AF0009093C601A093C70181E090E00E94E02C72
:102B0000892B11F41092EF0180E090E00E94E02CFC
:102B1000892B09F063C0EC2FF0E0E05FFD4F80E00F
:102B200090E0DC01A753BE4F2C9121930196863093
:102B30009105B9F750C0E091DD010E2F10E08091B2
:102B4000C8018830C9F58091C70180FF12C080910B
:102B5000C00180FF0CC080910B02816080930B024A
:102B60008091C00160E086950E94711402C00E94AD
:102B70005A148091C70181FF09C020E04091C30130
:102B80006091C2018091C1010E94B3118091C7017F
:102B900082FF09C08091C601882319F00E94D32AC0
:102BA00002C00E94CC2A8091C70183FF03C081E04C
:102BB0008093EA011092C801F801E05FFD4F80E0C8
:102BC00090E02191DC01A753BE4F2C9301968630F3
:102BD0009105B9F716C01092250213C08091250205
:102BE0008F5F80932502863060F0E091DC01F0E099
:102BF000E05FFD4F80E090E01192019686309105F4
:102C0000D9F78D2FDF91CF911F910F91FF90EF900A
:102C1000DF90CF90BF90AF909F908F90089580915C
:102C2000A2020895CF93DF9300D01F92CDB7DEB7F5
:102C30009091B602943011F589837B836A839093D7
:102C4000E9008FEF9091E800815095FD06C095ED69
:102C50009A95F1F700008111F5CF8091E80085FF8A
:102C60000DC040E050E063E070E0CE0101960E94AC
:102C700032258091E8008E778093E8000F900F90C6
:102C80000F90DF91CF910895BC0184E00C9412164F
:102C9000BC0183E00C94121624E02093E9002FEF8E
:102CA0003091E800215035FD06C035ED3A95F1F739
:102CB00000002111F5CF2091E80025FF0BC040E076
:102CC00050E066E070E00E9432258091E8008E7747
:102CD0008093E8000895CF93DF9321E02093E900EB
:102CE0002FEF3091E800215035FD06C035ED3A95C3
:102CF000F1F700002111F5CF2091E80025FF14C065
:102D0000EC0140E050E068E070E00E9432258091E4
:102D1000E8008E778093E80088E0FE01A3EAB2E045
:102D200001900D928A95E1F7DF91CF91089583305C
:102D300011F128F4813049F0823091F00895853006
:102D400081F120F18630C1F108958091F301681777
:102D500020F4861B8093F30108951092F3010895E7
:102D600080911A01681720F4861B80931A01089538
:102D700010921A01089580912801681720F4861B8B
:102D800080932801089510922801089580912701C9
:102D9000681720F4861B809327010895109227015D
:102DA000089580912601681720F4861B80932601E0
:102DB000089510922601089580912501681720F446
:102DC000861B809325010895109225010895833074
:102DD00081F128F4813059F08230D1F008958530A6
:102DE00009F449C0B8F1863009F456C008958091BD
:102DF000F301262F30E0280F311D2F3F310524F439
:102E0000680F6093F30108958FEF8093F3010895A5
:102E100080911A01262F30E0280F311D2F3F3105F8
:102E200024F4680F60931A0108958FEF80931A01BC
:102E3000089580912801262F30E0280F311D2F3F63
:102E4000310524F4680F6093280108958FEF809373
:102E50002801089580912701262F30E0280F311D89
:102E60002F3F310524F4680F6093270108958FEFF9
:102E700080932701089580912601262F30E0280FA6
:102E8000311D2F3F310524F4680F6093260108950A
:102E90008FEF80932601089580912501262F30E041
:102EA000280F311D2F3F310524F4680F6093250151
:102EB00008958FEF809325010895803F39F4809124
:102EC000FA0187FF6AC01092FA0167C0813F29F4B6
:102ED0008091FA011816BCF360C09091F901823F0D
:102EE00029F497FF5AC01092F90157C0833F19F493
:102EF0001916CCF352C09091FB01893F31F4191699
:102F00000CF04BC01092FB0148C08A3F19F497FFA8
:102F100044C0F8CF8B3F39F48091FC0187FF3DC05E
:102F20001092FC013AC08C3F29F48091FC011816E4
:102F3000BCF333C0843F21F48091F8018E7F17C029
:102F4000853F21F48091F8018D7F11C0863F21F4E7
:102F50008091F8018B7F0BC0873F21F48091F801AD
:102F6000877F05C0883F31F48091F8018F7E809380
:102F7000F80113C08D3F21F480919D028E7F0BC01C
:102F80008E3F21F480919D028D7F05C08F3F29F4F3
:102F900080919D028B7F80939D028091F901811128
:102FA00006C08091FA01811102C01092F401809153
:102FB000FB01811106C08091FC01811102C01092B9
:102FC000F001089580919D0280FF08C06091260164
:102FD00070E0759567957595679521C081FF06C06E
:102FE0006091260170E07595679519C082FF04C055
:102FF0006091260170E010C09091F001992399F042
:10300000609125019617A0F780912601899FC00144
:10301000112470E00E94982E6038710540F461150B
:10302000710519F406C061E070E0862F08958FE7FE
:10303000089581E0089580919D0280FF0BC060910A
:10304000280185E0689FB0011124759567957595F5
:1030500067952BC081FF09C06091280185E0689FBA
:10306000B00111247595679520C082FF07C060915B
:10307000280185E0689FB001112417C09091F401E8
:103080009923D1F060912701961788F720912801A4
:1030900085E0289F90011124929FA001939F500DDD
:1030A000112470E0CA010E94982E6038710540F426
:1030B0006115710519F406C065E070E0862F08956A
:1030C0008FE7089581E00895803F21F40E941B1846
:1030D000819504C0813F29F40E941B188093FA0156
:1030E0000895823F21F40E941B18819504C0833FFC
:1030F00029F40E941B188093F9010895893F19F45F
:103100000E94E21705C08A3F31F40E94E2178195C0
:103110008093FB0108958B3F21F40E94E217819573
:1031200004C08C3F29F40E94E2178093FC010895AB
:10313000843F21F48091F801816017C0853F21F41C
:103140008091F801826011C0863F21F48091F801DE
:1031500084600BC0873F21F48091F801886005C02E
:10316000883F31F48091F80180618093F8010895DF
:103170008D3F21F480919D0281600BC08E3F21F430
:1031800080919D02826005C08F3F29F480919D024D
:10319000846080939D02089587E797E790930108E4
:1031A000809300089AE088E10FB6F894A895809380
:1031B00060000FBE90936000FFCF78941F920F9233
:1031C0000FB60F9211248F939F93AF93BF9380916B
:1031D0001C0290911D02A0911E02B0911F02019647
:1031E000A11DB11D80931C0290931D02A0931E028D
:1031F000B0931F02BF91AF919F918F910F900FBE1F
:103200000F901F9018959C014FB7F89480911C0265
:1032100090911D02A0911E02B0911F024FBF821B10
:10322000930B08952FB7F89480911C0290911D0282
:10323000A0911E02B0911F022FBF08950E94121983
:103240002091F901211104C02091FA01222321F0DB
:103250009093F6018093F5012091FB01211104C0A8
:103260002091FC01222321F09093F2018093F1013F
:10327000E091E101F091E201309749F082E0809322
:10328000F7010480F581E02D87EF91E0099408951E
:103290001F920F920FB60F9211248F939F93AF93AB
:1032A000BF938091E301811113C080911C02909122
:1032B0001D02A0911E02B0911F024196A11DB11DD9
:1032C00080931C0290931D02A0931E02B0931F02D4
:1032D000BF91AF919F918F910F900FBE0F901F9054
:1032E00018959C012A5F3F4FFC014281461301C0A3
:1032F0001282019682179307B9F708959C01FC0189
:1033000032969FEF80E04191461789F09F3F19F474
:10331000411101C0982F8F5F8630A9F79F3F39F088
:10332000F901E90FF11D97FDFA956283089508955B
:10333000CF9384E090E00E94BF2DC82F81E290E0FF
:103340000E94BF2D2C2F30E0A901582BCA01CF912C
:1033500008956CEE7EEF80E090E00E94F12D60E039
:1033600082E090E00E94D32D60E083E090E00E9434
:10337000D32D1092990210929A0210929B021092F1
:103380009C0260E084E090E00E94D32D60E081E246
:1033900090E00E94D32D60E085E090E00E94D32D64
:1033A00060E086E090E00E94D32D6FEF87E090E030
:1033B0000E94D32D40E050E0BA0188E090E00E94E6
:1033C000E52D60E08DE090E00E94D32D40E050E0DC
:1033D000BA0188E190E00E94E52D60E087E190E08D
:1033E0000E94D32D40E050E0BA018CE190E00E94B1
:1033F000E52D60E080E290E00E94D32D40E050E0B7
:10340000BA0188E190E00E94E52D40E050E0BA0169
:103410008FE090E00E94E52D40E050E0BA0183E1AA
:1034200090E00C94E52D8091980281111092980201
:1034300008959091970280919602892B2091950290
:10344000982F922B9093270280919802882389F0DD
:10345000892B80932702E9E2F2E097E080E0915027
:1034600029F021912223D9F38F5FF9CF81110E9496
:10347000131AE091E101F091E201309731F00280FE
:10348000F381E02D87E292E009940895BF92CF92F4
:10349000DF92EF92FF920F931F93CF93DF938C01F4
:1034A000C090B702D090B802E090B902F090BA0292
:1034B0008091990290919A02A0919B02B0919C02F6
:1034C000C82AD92AEA2AFB2ACFE1D0E0D701C601CF
:1034D0000C2E04C0B695A795979587950A94D2F7B8
:1034E00080FD04C0219790F7B12C07C0BC2EB80115
:1034F0008C2F0E94CB120197A9F38B2DDF91CF91D6
:103500001F910F91FF90EF90DF90CF90BF900895A3
:10351000CF93DF93EC010E94461ABE010E94CB12AA
:10352000DF91CF910895292F220F920F990F890FC4
:10353000682F669566956695982F977085E0689FC9
:10354000B001112440E050E080E0FB01E40FF51FE2
:10355000E959FD4F208130E0092E02C036952795AC
:103560000A94E2F721703327042E01C0220F0A9437
:10357000EAF7822B4F5F5F4F4530510531F70895D1
:10358000292F220F920F990F890FE82FE695E695C4
:10359000E695877051E001C0550F8A95EAF785E0FE
:1035A000E89FF0011124E959FD4F20E030E070E080
:1035B0004081CB01022E02C0969587950A94E2F7CE
:1035C0008170819584278523842781932F5F3F4FC6
:1035D0002530310569F708956093B7027093B802FA
:1035E0008093B9029093BA020C94941E0F931F9388
:1035F00041E050E060E070E004C0440F551F661FDA
:10360000771F8A95D2F74095509560957095809177
:10361000B7029091B802A091B902B091BA028A01A2
:103620009B01082319232A233B23C901B8011F91B9
:103630000F910C94EC1A2091940280958223809330
:103640009402982F977079F430E0482F082E000CE0
:10365000550B2417350739F08595859585950E947A
:10366000F61A1092940208950F931F9341E050E0D0
:1036700060E070E004C0440F551F661F771F8A95F5
:10368000D2F78091B7029091B802A091B902B0919F
:10369000BA028A019B01082B192B2A2B3B2BC9014B
:1036A000B8011F910F910C94EC1A609399027093DA
:1036B0009A0280939B0290939C020C94941E0F9309
:1036C0001F9341E050E060E070E08A019B0104C07C
:1036D000000F111F221F331F8A95D2F7C901B801AD
:1036E0000E94551B1F910F910C94B11E8B3109F450
:1036F00073C058F58B3009F48FC078F4863009F424
:1037000046C020F4853009F44CC08AC0873009F4E3
:1037100055C0883009F480C083C0803109F46FC07F
:1037200068F48E3009F07CC08091FE0182FB222774
:1037300020F991E0922790FB82F957C0863109F475
:103740006BC0893109F468C06BC08A32E9F060F45B
:10375000873209F463C028F48E3108F461C08D51BA
:1037600059C08932F1F05CC0833450F48A3308F0D8
:1037700050C0853309F452C0883309F44DC050C09D
:10378000833409F44BC04CC00E94A91945C08091F4
:10379000FE01817F8E7F8093FE0181E080939E02F7
:1037A00008950E94B11E2FEF84E39CE021508040D9
:1037B0009040E1F700C000000E94CC188091FE010B
:1037C000982F9095917090FB80F98093FE01911154
:1037D00023C0897F877F10C08091FE0181FB222753
:1037E00020F991E0922790FB81F98093FE019923C3
:1037F00099F08091FE0181608093FE010DC080915F
:10380000FE0183FB222720F991E0922790FB83F9A8
:10381000ECCF89530E945F1B81E0089580E0FACFCE
:1038200080E00895209166029091350256E02917B4
:10383000A9F030E0529FF001539FF00D1124EA5C93
:10384000FD4F7181761306C07081781303C07281B9
:10385000741306C02F5F3F4F2770E9CF80E00895B3
:1038600081E008958091660290913502891719F0E0
:103870008F5F8770FBCF08950F931F93CF93DF93D4
:103880008091340282958F7009F05DC08091310281
:10389000882309F458C08091660210913502609126
:1038A0002F0270913002C0913202D091330291E028
:1038B0006F3F09F090E0292F06E0811709F443C01B
:1038C000209721F07F3F21F030E003C031E001C0BC
:1038D000322F90E030FD34C0089FF001099FF00DB9
:1038E0001124DF01AA5CBD4F11963C91119737134B
:1038F00027C03C91361324C012963C911297311187
:103900001FC013964D915C9114974C1B5D0B483C66
:103910005105B0F4809134028F708061809334023D
:10392000E55CFD4F80818F70806180838FE292E043
:103930000E947B09DF91CF911F910F910C94321C53
:1039400001968770BACFDF91CF911F910F910895A3
:103950000E94881A292F2F70E92FE295EF704E2FC1
:1039600050E0FA013297EE30F105B8F4E757FF4F17
:103970000C94AC2E803F99F018F4883E70F40FC080
:10398000843F59F40CC0883E50F0813F31F407C0A9
:10399000822F869586958695089580E0089581E02A
:1039A00008958F929F92AF92BF92CF92DF92EF9243
:1039B000FF920F931F93CF93DF93CDB7DEB761973D
:1039C0000FB6F894DEBF0FBECDBF8C0185E0F801C5
:1039D000DE011D9601900D928A95E1F7D801DC90E9
:1039E0001196EC9011971296CC9090912F02209105
:1039F000300240913202509133024115510531F0AD
:103A00002F3F31F481E09F3F19F403C081E001C0F2
:103A100080E080FD58C1F801A380B4808FE2882E39
:103A200082E0982EF0903102B501641B750BFF20E7
:103A300009F403C180913402382F307F683C71054E
:103A400008F0CDC0311188C02E1112C09D1110C0D8
:103A5000FC2CC1100DC08F70806180933402C401B2
:103A60000E947B0980913402D80115968C9348C13D
:103A7000A114B10439F0BFEFEB1206C081E0DB12F4
:103A800003C003C081E001C080E080FD03C081E08D
:103A90008C2502C080E090E080FF10C04C2D6E2D80
:103AA0008D2D0E94121C882349F08FE292E00E9423
:103AB0007B09EFE2F2E086E0DF0199C0AB2839F044
:103AC000BFEFEB1206C081E0DB1203C003C081E050
:103AD00001C080E080FD03C081E08C2502C080E051
:103AE00090E0E82FE170BE2E80FF2CC04C2D6E2D93
:103AF0008D2D0E94121CF82E811124C0DD86EE86C9
:103B00008D859E850E94881A292F22952F7022303C
:103B100018F0243090F405C09F7059F0811109C04D
:103B2000EFC09F7031F0D80115969C91907F09F4F9
:103B3000E7C0805E883008F4E3C0C8010E947B09BA
:103B4000FB2CDEC0FC2CCC2009F4DAC080913402BE
:103B50008160809334024EC02E1106C09D1104C0B6
:103B6000C11002C0F8018BC0DD86EE868D859E8572
:103B70000E94A81C882369F1CC2059F120913402BD
:103B8000822F82958F7090E0029774F080912F02BF
:103B90009091300298878F831986BB86AA862C87DE
:103BA000CE0107960E947B0986E0F801AFE2B2E001
:103BB00001900D928A95E1F70E943C1C0DC02E15D4
:103BC000D9F0DD86EE868D859E850E94A81C811128
:103BD0001DC0C8010E947B09FF24F39491C03111DC
:103BE000EECF8FE292E00E947B0986E0D4011D9225
:103BF0008A95E9F7F12C84C09D11E3CFC110E1CF84
:103C0000F8018583C8010E947B0957C0CC2009F3C5
:103C100020913402822F82958F7090E0029724F2D7
:103C200080912F02909130029A8389831B82BD82FA
:103C3000AC822E83CE010196B5CF683C7105E8F5C4
:103C4000FC2CCC2031F22E1127C09D1125C02091D3
:103C5000340220FD18C0822F82958F70482F50E0CB
:103C60004115510581F0F80125834F30510541F090
:103C70008F5F982F9295907F822F8F70892B8583ED
:103C8000C8010E947B0986E0F801AFE2B2E0019032
:103C90000D928A95E1F734C0DD86EE868D859E858E
:103CA0000E94A81C811180CF809134028160809392
:103CB0003402C8010E947B0923C086E0D4011D9212
:103CC0008A95E9F71DC0CC2009F483CFDD86EE8606
:103CD0008D859E850E94A81CF82E882309F479CF33
:103CE00086E0F801AFE2B2E001900D928A95E1F72B
:103CF00080912F02909130020E94881A0E943C1CF1
:103D00008F2D61960FB6F894DEBF0FBECDBFDF9149
:103D1000CF911F910F91FF90EF90DF90CF90BF90C8
:103D2000AF909F908F9008951092960210929502F6
:103D30000E94191AE7EFF1E086E0DF011D928A95F3
:103D4000E9F71092F4011092F00110929D020E9486
:103D50001E1980E090E00E948A2980E090E00C9497
:103D600074291092970286E0E9E2F2E0DF011D92E9
:103D70008A95E9F70C94941E882341F080959091E0
:103D800097028923809397020C94191A0895882327
:103D900039F090919702892B809397020C94191A0D
:103DA0000895882309F463C0823869F40E94A02929
:103DB00081FF5DC069E387E292E00E947E190E9464
:103DC000191A69E30EC0833891F40E94A02980FF7C
:103DD0004EC063E587E292E00E947E190E94191AA4
:103DE00063E587E292E00E9471190C94191A8438F5
:103DF00069F40E94A02982FF3AC067E487E292E05A
:103E00000E947E190E94191A67E4EBCF9CEF980F6D
:103E1000913A10F4682FE5CF90E2980F983088F42B
:103E2000877021E030E0A90102C0440F551F8A9538
:103E3000E2F7CA01809590919702892380939702B7
:103E4000D4CF9BE5980F933020F480E090E00C9461
:103E50008A2998E5980F973120F480E090E00C943F
:103E60007429803F20F00E945D170C941E1908955C
:103E7000CF93882309F421C1C82F8238B1F40E945E
:103E8000A02981FD1AC169E387E292E00E947E19B0
:103E90000E94191A2FEF81EE94E02150804090404B
:103EA000E1F700C0000069E317C08338E1F40E9425
:103EB000A02980FD02C163E587E292E00E947E199D
:103EC0000E94191A2FEF81EE94E02150804090401B
:103ED000E1F700C0000063E587E292E00E947119FB
:103EE000CF910C94191A8438B1F40E94A02982FD54
:103EF000E4C067E487E292E00E947E190E94191AEA
:103F00002FEF81EE94E0215080409040E1F700C017
:103F1000000067E4E1CF8CEF8C0F813A08F080C09D
:103F200080919E02813069F018F0823021F170C0DA
:103F300080919702823209F0A8C08C2F0E94761BD4
:103F40006CC0809197028232C1F3C43189F050F481
:103F5000CB3009F498C0C03109F05DC082E0809395
:103F60009E0291C0C93221F0C83309F48CC053C0FD
:103F700010929E0250C0C93299F118F5C43181F1F6
:103F8000A0F4C73009F099C01092F30184E1809346
:103F90001A01C09328018CE38093270188E0809365
:103FA000260188E28093250188C0CE51C63008F0F2
:103FB00084C0EC2FF0E0EB58FE4F808180939F028D
:103FC0007CC0CE34F9F028F4CB3409F076C06AE036
:103FD00014C0C13581F0C23509F06FC061E00DC079
:103FE00080919F02882319F010929F0266C081E0A1
:103FF00080939E0262C061E006C080919F02CF91D3
:104000000C94E7166AE080919F02CF910C9497166A
:1040100010929E023AC080E0817081114EC035C07E
:1040200080E28C0F883068F4C77081E090E001C0B6
:10403000880FCA95EAF790919702892B809397028F
:104040004FCFEBE5EC0FE33040F4F0E0E158FE4FEA
:10405000808190E0CF910C948A29E8E5EC0FE7315C
:1040600050F4F0E0EE0FFF1FEE57FE4F808191817C
:10407000CF910C947429C03F00F18C2F0E946418DA
:10408000CF910C941E1981E0C7CFE9E2F2E08FE2F4
:1040900092E02191C21749F08E179F07D1F76C2F3C
:1040A00087E292E00E947E191BCF6C2F87E292E09C
:1040B0000E9471190E94191AF2CFCF910895CF93DF
:1040C000C82F0E94381FC93349F42FEF87EE93E0C1
:1040D000215080409040E1F700C000008C2FCF912C
:1040E0000C94D11E0F931F938091B7029091B80248
:1040F000A091B902B091BA028C019D0106701127FE
:1041000022273327BC01CD010630110521053105D9
:1041100011F4686001C0677F1F910F910C94EC1A35
:104120001F93CF93DF93CDB7DEB7AA970FB6F8945E
:10413000DEBF0FBECDBFEEEAF2E08091F1008193C9
:1041400042E0E63BF407C9F78091AF02833009F4FF
:1041500062C030F4813071F0823009F49CC0B3C089
:104160008A3009F488C08B3009F46DC0893009F0B9
:10417000AAC020C08091AE02813A09F0A4C080910B
:10418000E800877F8093E8008091B2029091B302AB
:10419000892B21F468E083EA92E003C060E080E0CC
:1041A00090E070E00E94422B8091E8008B77809332
:1041B000E80089C08091AE02813209F084C080910C
:1041C000B2029091B302009719F0029709F07BC0F8
:1041D0008091E800877F8093E8008091E80082FD6D
:1041E00005C08091B6028111F8CF6DC02091F30017
:1041F0008091F20090E0922B029729F48091F100D7
:104200008B7F813021F48091F1008093A202809114
:10421000E8008B7754C08091AE02813A09F053C018
:104220008091B2029091B302892B09F04CC0809129
:10423000E800877F8093E8008091E80080FFFCCF52
:104240008091290137C08091AE028132E1F58091E1
:10425000B2029091B302892BB1F58091E800877F7B
:104260008093E8000E94EE2A8091B0028093290199
:104270000E94B11E28C08091AE02813221F580914A
:10428000E800877F8093E8000E94EE2A8091B102C7
:104290008093A10218C08091AE02813AA1F480916E
:1042A000E800877F8093E8008091E80080FFFCCFE2
:1042B0008091A1028093F1008091E8008E77809335
:1042C000E8000E94EE2A8091E80083FFDDC1809122
:1042D000AE029091AF02492F50E04A30510508F0EC
:1042E000D3C1FA01E956FF4F0C94AC2E803821F06F
:1042F000823809F0C9C108C08091AB029091AC022C
:10430000992389F082600FC08091B2028F7087304C
:1043100008F0BAC18093E9008091EB0085FB882703
:1043200080F91092E9009091E800977F9093E8005F
:104330008093F1001092F10070C1282F2D7F09F0B9
:10434000A3C1882319F0823061F09EC18091B00230
:10435000813009F099C1933009F080E08093AC027C
:104360002EC08091B00281112AC08091B2028F705C
:104370002FEF280F263008F087C18093E9002091A5
:10438000EB0020FF1CC0933021F48091EB00806291
:1043900014C09091EB0090619093EB0021E030E02D
:1043A000A90102C0440F551F8A95E2F74093EA0025
:1043B0001092EA008091EB0088608093EB001092ED
:1043C000E9008091E800877F8093E8000E94EE2A50
:1043D0005BC1811159C11091B0021F778091E30038
:1043E0008078812B8093E3008091E800877F809321
:1043F000E8000E94EE2A8091E80080FFFCCF8091C7
:10440000E30080688093E300111102C082E001C0E4
:1044100083E08093B60238C18058823008F034C1FE
:104420002091B0023091B1022C3D53E0350779F56F
:1044300083E08A838AE289834FB7F894DE0113967A
:1044400020E03EE051E2E32FF0E050935700E4918A
:1044500020FF03C0E295EF703F5FEF708E2F90E07A
:10446000EA3010F0C79601C0C0968D939D932F5FE0
:10447000243149F74FBF8091E800877F8093E8009F
:104480006AE270E0CE0101960E94422BB4C0809196
:10449000B2029091B302432F552743305105A9F042
:1044A00068F44130510509F4FEC04230510509F06D
:1044B000EBC08BE590E0EFEDF3E04BC041325105EE
:1044C00029F14232510589F1DFC0C90199278130B4
:1044D0009105A1F058F0029709F0D6C0ECE4F4E0A1
:1044E000E4918E2F90E0ECE4F4E030C0ECE8F4E0EE
:1044F000E4918E2F90E0ECE8F4E028C0E0E7F4E0EF
:10450000E4918E2F90E0E0E7F4E020C08330910545
:1045100008F0BAC0880F991FFC01E754FE4F0190C4
:10452000F081E02D89E090E014C08330910508F01F
:10453000ABC0FC01EE0FFF1FED54FE4F0190F08168
:10454000E02DDC01A055BE4F8C9190E0009709F45E
:104550009BC02091E800277F2093E8002091B402BF
:104560003091B5022817390708F4C90140E00097D7
:1045700089F12091B602222309F43DC02530D9F1FA
:104580002091E80023FD37C02091E80022FD2FC0D4
:104590002091E80020FFEBCF4091F3002091F20042
:1045A00030E0342B009759F02830310540F4449125
:1045B0004093F100319601972F5F3F4FF3CF41E0D9
:1045C0002830310509F040E02091E8002E77209353
:1045D000E800CDCF4111CDCF0AC08091B60288232B
:1045E00051F0853041F08091E80083FD04C0809156
:1045F000E80082FFF2CF8091E8008B778093E8009B
:1046000043C0803809F040C08091E800877F8093E4
:10461000E8008091AD028093F1008091E8008E77F0
:10462000D3CE811131C08091B0029091B10299270F
:10463000029754F58091E800877F8093E8001091FD
:10464000B0021093AD020E94EE2A111106C08091B3
:10465000E30087FD02C081E001C084E08093B602E0
:1046600042E061EC81E00E940D2B42E261EC84E0CB
:104670000E940D2B42E261EC82E00E940D2B42E28F
:1046800060EC83E00E940D2B8091E80083FF10C056
:104690008091E800877F8093E8008091EB00806242
:1046A0008093EB0005C082E190E0EAE3F4E051CFB3
:1046B000AA960FB6F894DEBF0FBECDBFDF91CF91A3
:1046C0001F9108951F920F920FB60F9211242F93EE
:1046D0003F934F935F936F937F938F939F93AF938A
:1046E000BF93CF93DF93EF93FF93C091E900CF7017
:1046F0008091EC00D82FD17080FDD0E81092E900B5
:104700008091F000877F8093F00078940E94902041
:104710001092E9008091F00088608093F000CD2B2A
:10472000CF70C093E900FF91EF91DF91CF91BF91DE
:10473000AF919F918F917F916F915F914F913F9139
:104740002F910F900FBE0F901F901895E8EDF0E09D
:1047500080818E7F80831092E2001092DA001092A6
:10476000E100A0EEB0E08C9181608C9380818F7726
:10477000808319BCA7EDB0E08C918E7F8C938081F3
:104780008F7E80831092A0020895CF92DF92EF92E5
:10479000FF920F931F93CF93DF93C8EDD0E08881F2
:1047A0008F7E8883E7EDF0E080818160808384E004
:1047B00082BF81E08093A00288818E7F888302EE91
:1047C00010E0F80110821092DA0081EEC82ED12C90
:1047D000F601108288818F7788838881806888833A
:1047E00088818F7D888319BC1092B6021092AD0229
:1047F0001092AC021092AB0290EEE92EF12CF70170
:1048000080818B7F808388818160888342E060E043
:1048100080E00E940D2BF60180818E7F8083F8015D
:10482000808181608083808188608083F7018081BE
:104830008E7F8083888180618883DF91CF911F91F3
:104840000F91FF90EF90DF90CF9008951F920F92FD
:104850000FB60F9211242F933F934F935F936F9353
:104860007F938F939F93AF93BF93EF93FF93809129
:10487000E10082FF09C08091E20082FF05C08091C3
:10488000E1008B7F8093E1008091DA0080FF2AC0F5
:104890008091D80080FF26C08091DA008E7F8093BF
:1048A000DA008091D90080FF18C080E189BD82E1E3
:1048B00089BD09B400FEFDCF81E08093B6028091EE
:1048C000A00281110FC00E94A6230E94C5238091DF
:1048D000E20084608093E20005C019BC1092B60229
:1048E0001092A0028091E10080FF17C08091E20049
:1048F00080FF13C08091E2008E7F8093E200809160
:10490000E20080618093E2008091D8008062809311
:10491000D80019BC85E08093B6028091E10084FF45
:1049200032C08091E20084FF2EC080E189BD82E127
:1049300089BD09B400FEFDCF8091D8008F7D8093A2
:10494000D8008091E1008F7E8093E1008091E200A9
:104950008F7E8093E2008091E20081608093E2008C
:104960008091AD02882311F084E007C08091E300BC
:1049700087FD02C081E001C083E08093B6020E94FF
:10498000B11E0E94A0298091E10083FF27C0809181
:10499000E20083FF23C08091E100877F8093E100E4
:1049A00082E08093B6021092AD028091E1008E7F8A
:1049B0008093E1008091E2008E7F8093E2008091FD
:1049C000E20080618093E20042E060E080E00E94CB
:1049D0000D2B8091F00088608093F000FF91EF91A3
:1049E000BF91AF919F918F917F916F915F914F9107
:1049F0003F912F910F900FBE0F901F90189520910F
:104A0000E4003091E50095E64091EC00842F817040
:104A100040FF23C08091E80080FD1DC08091B60258
:104A2000882399F0853099F08091EB0085FD11C0C5
:104A30004091E4005091E5002417350729F3915087
:104A400011F09A01E1CF84E0089582E0089583E0B7
:104A5000089581E0089580E008954091E80042FFC4
:104A6000DDCF0895EF92FF920F931F93CF93DF93C3
:104A70007C018B010E94FF24811119C0E7010115FF
:104A80001105A1F08091E80085FD0AC08091E80041
:104A90008E778093E8000E94FF24882381F307C06B
:104AA00089918093F10001501109E9CF80E0DF91F5
:104AB000CF911F910F91FF90EF900895CF93209188
:104AC000B6022430F9F4C091E900CF703091EC00C7
:104AD000232F217030FD20E8C22B22E02093E90033
:104AE0002091E80020FF0BC040E050E060E270E061
:104AF0000E9432258091E8008E778093E800CF7085
:104B0000C093E900CF91089508958F929F92AF923C
:104B1000BF92CF92DF92EF92FF920F931F93CF93AA
:104B2000DF93FC01B280948081E0848300E015E093
:104B30005BE4A52E88248394EE24EA94F12C7BE494
:104B4000C72ED12C80910801081708F08FC0C02F04
:104B5000D0E01C9FF0011D9FF00D1124EA5FFC4F77
:104B6000911003C01382128267C02381222389F12E
:104B7000215023833481332319F09A2D921B01C0D5
:104B8000922F80910E021C9FF0011D9FF00D1124A9
:104B9000EA5FFC4F899FC0011124B6010E94842E58
:104BA0006283211104C0332311F01482A38222E016
:104BB0002B1508F441C01C9FF0011D9FF00D11241E
:104BC000EA5FFC4F80910C02808380910D0281830B
:104BD00033C00E94AF2D8230914074F582E08B1576
:104BE00030F40E94AF2DB7010E94982E02C0809130
:104BF0000C021C9FF0011D9FF00D1124EA5FFC4F79
:104C0000808322E02B1558F40E94AF2D20910D02D5
:104C10002695622F70E00E94982E820F02C080912C
:104C20000D021C9FF0011D9FF00D1124EA5FFC4F47
:104C300081831282A3828482809106019E01280FC3
:104C4000311DC901880F991F280F391F22543D4F6C
:104C50001C9FF0011D9FF00D1124EA5FFC4F428163
:104C6000618180810E9403110F5F6CCFDF91CF9132
:104C70001F910F91FF90EF90DF90CF90BF90AF907A
:104C80009F908F900C943E100F931F93CF93DF93C0
:104C9000EC0100E010E080910801282F30E00217BD
:104CA000130724F5909106019801290F311DA901E0
:104CB000440F551F240F351F22543D4F869590E019
:104CC0004C81081719071CF4442331F002C041112C
:104CD00003C040910E0201C040E060910D0280913E
:104CE0000C020E9403110F5F1F4FD5CF0E943E1090
:104CF0008C8190E00196817099278C83DF91CF9110
:104D00001F910F9108958F929F92AF92BF92CF9271
:104D1000DF92EF92FF920F931F93CF93DF938C015B
:104D2000FC014481C42FD0E09E01DE010E945B2E75
:104D30009B01AC010E94262E6B017C01E0E2F0E0B9
:104D4000EC1BFD0BA5E5B0E09B01AC010E94262EFB
:104D50004B015C019F01DF010E94B92E9B01AC0158
:104D60000E94312E9B01AC012C0D3D1D4E1D5F1D7F
:104D7000C501B4010E94392EC22FD22F2A3228F445
:104D8000F3E02F9F900111240DC025E530E02C1B8E
:104D90003109C901880F991F280F391F37FF02C039
:104DA0002F5F3F4F35952795C22FC095F12C85E594
:104DB000E82EED1A80910801F816C8F4F1FC02C043
:104DC0008E2D01C08D2F909106012F2D30E0290FDF
:104DD000311DA901440F551F240F351F22543D4F8B
:104DE0004C2F60910D020E940311F394E3CF0E94B7
:104DF0003E10F8018481811102C091E003C080322D
:104E000019F49FEF9093370190913701890FF801C2
:104E10008483DF91CF911F910F91FF90EF90DF90EE
:104E2000CF90BF90AF909F908F9008951F93CF9396
:104E3000DF93EC018C81811109C081E08C83109299
:104E4000BC0292E090933601809335018091060177
:104E500090910701891770F4E82FF0E09F01220F6D
:104E6000331FE20FF31FE254FD4F118210821282B2
:104E70008F5FF0CF10E0609108011617C0F5E12FA9
:104E8000F0E070E0CF010E94982E20910601820F81
:104E90002091BC02022E000C330B90E0E217F307C6
:104EA000CCF020913601022E000C330B2E173F0759
:104EB0008CF09C01220F331F820F931F9C01225400
:104EC0003D4F40910E0260910D0280910C020E94B4
:104ED00003110BC0FC01EE0FFF1F8E0F9F1FFC0183
:104EE000E254FD4F1182108212821F5FC4CF0E94D4
:104EF0003E10809135012091BC02280F2093BC0206
:104F000090913601980F9093360119165CF4022E99
:104F1000000C330B4091080150E041505109241717
:104F2000350734F0819580933501813009F41C8276
:104F3000DF91CF911F9108958F929F92AF92BF9270
:104F4000CF92DF92EF92FF920F931F93CF93DF9355
:104F5000EC018A8180FF03C0BB24BA9402C0BB2449
:104F6000B3948C8181110DC081E0B81206C080918C
:104F7000080181508093BB0202C01092BB0281E005
:104F80008C83A12C48E1942E80910801A81608F08A
:104F900044C080910601CA2CD12C8601080F111D36
:104FA000C801880F991F080F191F02541D4FF801DF
:104FB00011821082128234E0E32EF12C812C809138
:104FC000BB02880D89312CF0692D0E94762E892F25
:104FD00005C087FF03C090910801890F082E000CBF
:104FE000990BC816D90691F480910E028E9DA001EE
:104FF0008F9D500D112455954795559547959801CE
:1050000060910D0280910C020E9403118B0CF1E063
:10501000EF1AF108A1F6A394B7CF0E943E10809139
:10502000BB0291E0B9120EC0811107C08091080146
:1050300081508093BB021C820FC081508093BB02C1
:10504000BC820AC090E001966091080170E00E9465
:10505000982E8093BB028C83DF91CF911F910F918B
:10506000FF90EF90DF90CF90BF90AF909F908F9088
:105070000895FF920F931F93CF93DF93EC01F12CD0
:105080000FEF10E060910801F616F0F48091060130
:105090002F2D30E0280F311DC901880F991F280FCF
:1050A000391F22543D4F70E0C8010E94982E962F60
:1050B0008C8140910E0260910D02F99E800D1124A9
:1050C0000E940311F394DECF0E943E109A818C81DE
:1050D00090FF02C08F5F01C081508C83DF91CF9120
:1050E0001F910F91FF9008950F931F93CF93DF931C
:1050F00000D01F92CDB7DEB78C018091BD02811127
:105100000AC09E012F5F3F4F4FEF6FEF0E940311C8
:105110008A818093BD02F8018481813051F028F0AA
:10512000823061F44091BD020AC08091BD0240E02E
:1051300007C06091BD0240E080E003C040E080E035
:1051400060E00E948A10F801848190E0019663E09B
:1051500070E00E94982E84830F900F900F90DF9143
:10516000CF911F910F910895CF93DF93EC01EBE066
:10517000F2E0438162818C810E9499118C818F5F62
:105180008C83DF91CF910895CF93DF93EC01EC8175
:10519000F0E0E057FB4F4491EBE0F2E06281818167
:1051A0000E9499118C818F5F8C83DF91CF9108953C
:1051B0001F93CF93DF93CDB7DEB767970FB6F89401
:1051C000DEBF0FBECDBF4B8B5C8B6D8B7E8B8F8B11
:1051D00086E09E01235F3F4FD901E82F1D92EA959B
:1051E000E9F795E0FE017396D90101900D929A9529
:1051F000E1F7F901DE01179601900D928A95E1F72A
:10520000CE0107960E94D11C81113EC086E0FE01AE
:105210003796DE01119601900D928A95E1F7FF8194
:10522000E8856A857B856115710531F0EF3F31F4C2
:1052300081E0FF3F19F403C081E001C080E080FD00
:1052400023C02091350230E0C9010196877099276B
:105250004091660250E08417950779F1F983EA835B
:105260007D836C8396E0929FD001939FB00D1124B3
:10527000AA5CBD4FFE01319601900D929A95E1F71F
:10528000809335020E94321C16E080916602909154
:1052900035028917F9F0189FC00111248A5C9D4FCF
:1052A0000E94D11C8823B1F08091660290E00196A3
:1052B0008770992780936602E8CF0E94B11E1092F2
:1052C000350210926602EFE2F2E086E0DF011D9205
:1052D0008A95E9F767960FB6F894DEBF0FBECDBF8B
:1052E000DF91CF911F910895209182033091830324
:1052F0002817390771F09093830380938203E0911C
:10530000E101F091E201309721F00084F185E02D78
:10531000099408952091800330918103281739075B
:1053200071F09093810380938003E091E101F0910B
:10533000E201309721F00680F781E02D099408956D
:10534000E091E101F091E201309721F00190F081CC
:10535000E02D099480E008950F931F93CF93DF937E
:10536000C42FD22FFC0182818823C9F040932002F0
:105370000E94121990937F0380937E0380E28C0F2A
:10538000883008F057C0C77081E001C0880FCA9507
:10539000EAF7DF91CF911F910F910C94C71E809176
:1053A0002002481330C080917E0390917F030E94B9
:1053B0000319883C910538F510E21D0FCD17B9F09F
:1053C00080E28C0F883040F4C77081E001C0880F04
:1053D000CA95EAF70E94BC1E183028F581E09D2F7F
:1053E000977001C0880F9A95EAF70E94C71E802F18
:1053F0000E945F201830F0F4D77081E001C0880F60
:10540000DA95EAF70AC080E28C0F883098F4C7700A
:1054100081E001C0880FCA95EAF7DF91CF911F9113
:105420000F910C94BC1E802FDF91CF911F910F9193
:105430000C945F20DF91CF911F910F910895CF932E
:10544000DF93C6E6D2E060E0CE010E94D32D219624
:10545000C11584E0D807B9F7DF91CF910895CF92B5
:10546000DF92EF92FF920F931F93CF93DF93C0E0F1
:10547000D0E08E0100571F4F6E018CE0C80ED11C8A
:10548000FE01E057FA4FE590F4906F2DCE0186961D
:105490000E94D32D6E2DCE0187960E94D32D229689
:1054A000CC15DD0569F70C171D0731F7E80100344D
:1054B0001240F9F6DF91CF911F910F91FF90EF907D
:1054C000DF90CF9008950F931F93CF93DF93C42F56
:1054D000D0E0CC0FDD1F2CE0629FC00DD11D112448
:1054E00030E9839FC00DD11D1124CE0186960E9404
:1054F000BF2D082F10E0102F0027CE0187960E94A5
:10550000BF2D9801282BC901DF91CF911F910F91D9
:105510000895462F843038F47C3028F4663018F42F
:10552000672F0C94632A80E090E00895CF93C82FF2
:10553000811102C06FEF01C061E282E290E00E943F
:10554000D32DC11102C06FEF01C061E083E290E092
:105550000E94D32DC11102C06FEF01C063E284E24B
:1055600090E0CF910C94D32D90910B0290FF04C04A
:105570009695981740F003C0811105C090E09617EA
:1055800010F40C94BA1461E00C947114882311F097
:10559000FA0101C0FB010994EDEEF1E01182828174
:1055A00084608283089560910B02669570E04BE001
:1055B00050E08AE291E00E94C82E892B19F481E024
:1055C0008093EE010E9412199093E8018093E70105
:1055D0008091EF0184608093EF0108958091AE0285
:1055E00087FF11C08091E80082FD05C08091B6025E
:1055F0008111F8CF11C08091E8008B770BC08091AA
:10560000B602882349F08091E80080FFF8CF8091AE
:10561000E8008E778093E8000895982F973068F51A
:105620009093E900981739F07091EC002091ED000B
:105630005091F00003C0242F762F50E021FD02C0CE
:105640009F5FECCF3091EB003E7F3093EB003091C9
:10565000ED003D7F3093ED003091EB0031603093F1
:10566000EB007093EC002093ED005093F00020913C
:10567000EE0027FDE5CF80E008958F708093E9006C
:1056800081E008952091B4023091B50226173707C2
:1056900048F06115710539F42091E8002E772093C8
:1056A000E80001C0B901FC0120E06115710579F144
:1056B0008091B6028823F1F18530F1F18091E80004
:1056C00083FD3CC08091E80082FD2EC08091E800FF
:1056D00080FFEBCF2091F3008091F20090E0922BBD
:1056E0006115710551F08830910538F421912093AE
:1056F000F100615071090196F3CF21E0089709F09C
:1057000020E08091E8008E778093E800CECF2111D1
:10571000CFCF0AC08091B602882361F0853061F056
:105720008091E80083FD0AC08091E80082FFF2CFFB
:1057300080E0089582E0089583E0089581E008956F
:105740008EE1489B02C08150E1F7489BFECF08954F
:10575000589880E28A95F1F7589A0895FC012AE05A
:105760002A95F1F790E020E080E031E0261779F00B
:1057700040E14A95F1F7880F489B02C0816093276A
:1057800000C0000040E14A95F1F72F5FEFCF20E124
:105790002A95F1F729B100C0000030E13A95F1F700
:1057A000217092272081920F90830895EF92FF92AB
:1057B0000F931F93CF93DF931F92CDB7DEB719825C
:1057C0008C017C01E60EF11C0E151F0559F00E949C
:1057D000A02B68E0CE0101960E94AE2BF8018193C8
:1057E0008F01F2CF81E09981911180E00F90DF91DC
:1057F000CF911F910F91FF90EF90089590938603A2
:105800008093850360938403509A589A08959093E7
:10581000860380938503609384035098589AE89A8E
:10582000E9E6F0E080818C7F80830895615091E00B
:1058300001C0990F6A95EAF720E031E0992361F001
:10584000492F482319F0589A232701C0589840E25D
:105850004A95F1F79695F2CF222311F0589A01C09C
:10586000589880E28A95F1F758980895FF920F931F
:105870001F93CF93DF93EC018C01060F111DC0170E
:10588000D10741F0F9900E94A82B68E08F2D0E946B
:10589000162CF5CFDF91CF911F910F91FF900895B6
:1058A0001F920F920FB60F9211240F931F932F93F5
:1058B0003F934F935F936F937F938F939F93AF9398
:1058C000BF93EF93FF93CF93DF931F92CDB7DEB7D4
:1058D00019820E94A02B67E0CE0101960E94AE2B98
:1058E000382F369536953695932F96959570232FAC
:1058F0002570920F292F2370969596958770920F99
:10590000891348C08981811145C080918403831720
:1059100008F440C080E18A95F1F7589A509AA2E0C5
:10592000AA95F1F700C00091850310918603B8E0B5
:105930003B9F000D111D11245898F80165816623C5
:1059400021F0868197810E94362C0E94A82BF0E1DD
:10595000FA95F1F758985098589A80E18A95F1F79E
:10596000D80112966C911297662369F013968D9167
:105970009C9114970E94D62BD801ED91FC91811136
:1059800005C082E004C0D801ED91FC9188E08083DD
:105990000E94A02B0F90DF91CF91FF91EF91BF91CB
:1059A000AF919F918F917F916F915F914F913F91B7
:1059B0002F911F910F910F900FBE0F901F90189570
:1059C0000F931F93CF93DF932091840330E0281728
:1059D00039070CF471C09C0193E0220F331F9A9594
:1059E000E1F7C0918503D0918603C20FD31FF894CD
:1059F000509A589845E04A95F1F70000982F9695EF
:105A000095708570890F982F937086958695890F6C
:105A10008901082B0E94A82B84E08A95F1F700C029
:105A200067E0802F0E94162C40E14A95F1F75098CC
:105A3000589A489902C000C0FCCF87E090E0489B8C
:105A40000EC0019751F4509A589AE881F98181E08B
:105A50008083789481E090E031C000C0F0CF6D8108
:105A6000662381F08E819F810E94D62B81110AC00E
:105A7000509A589AE881F98182E08083789482E094
:105A800090E01CC00E94A02B80E28A95F1F7589804
:105A9000509A40E14A95F1F76A81662321F08B81A3
:105AA0009C810E94362C0E94A82BE881F9811082EB
:105AB000789480E090E002C084E090E0DF91CF91A4
:105AC0001F910F9108958F929F92AF92BF92CF92A4
:105AD000DF92EF92FF92CF93DF93EC01688179819F
