:100000000C9417040C94C72E0C945E040C945E049C
:100010000C945E040C945E040C945E040C945E04D8
:100020000C945E040C945E040C94051C0C94C11B8F
:100030000C942B2D0C945E040C945E040C945E04C2
:100040000C945E040C945E040C945E040C945E04A8
:100050000C945E040C94072D0C945E040C945E04C6
:100060000C945E040C945E040C945E040C945E0488
:100070000C945E040C945E040C945E040C945E0478
:100080000C945E040C945E040C945E040C945E0468
:100090000C945E040C945E040C945E040C945E0458
:1000A0000C945E040C945E040C945E040501090239
:1000B000A10185020901A100050919012905150001
:1000C00025019505750181029501750381010501E1
:1000D000093009311581257F950275088106093897
:1000E0001581257F950175088106050C0A380215D2
:1000F00081257F950175088106C0C005010980A191
:1001000001850319012AB700150126B7009501756D
:10011000108100C0050C0901A101850419012AA064
:1001200002150126A002950175108100C00660FF2E
:100130000961A1010962150026FF0095207508815B
:10014000020963150026FF00952075089102C0057D
:10015000010906A101050719E029E7150025019508
:1001600008750181029501750881010507190029AB
:10017000FF150026FF009506750881000508190186
:100180002905950575019102950175039101C0003E
:10019000000000000000000000000000000000005F
:1001A000000000000000000000000000000000004F
:1001B0000000007E0F00D4FFFFFFC70000007800A2
:1001C000000000000000002A2B28000000000000B2
:1001D0000000000000000000000029000000002CCA
:1001E0001E3420212224342627252E362D37382769
:1001F0001E1F202122232425263333362E37381F75
:100200000405060708090A0B0C0D0E0F1011121336
:100210001415161718191A1B1C1D2F3130232D35D4
:100220000405060708090A0B0C0D0E0F1011121316
:100230001415161718191A1B1C1D2F3130354C00B8
:100240000101010101010101010202020202020297
:10025000020203030303030303030404040404046A
:100260000405050505050606060606070707070730
:1002700008080808090909090A0A0A0B0B0B0C0CE3
:100280000C0D0D0D0E0E0E0F0F0F1010111111127F
:100290001213131414151516161717181819191AFE
:1002A0001A1B1B1C1D1D1E1E1F2020212222232461
:1002B00024252626272829292A2B2C2D2D2E2F30A0
:1002C000313232333435363738393A3B3C3D3E3FB4
:1002D000404142434445464748494A4C4D4E4F50A1
:1002E000515354555658595A5B5D5E5F616264655F
:1002F0006668696B6C6D6F7072737577787A7B7DE9
:100300007E8082838587888A8C8E8F91939596983C
:100310009A9C9EA0A2A3A5A7A9ABADAFB1B3B5B758
:10032000BABCBEC0C2C4C6C9CBCDCFD1D4D6D8DB2F
:10033000DDDFE2E4E7E9EBEEF0F3F5F8FAFDFFFFCD
:10034000AA7F55402223252628292A2C2D2F3032FA
:10035000333536383A3B3D3E4042434547494A4CA7
:100360004E5051535557595A5C5E606264666869D5
:100370006B6D6F71737577797B7D7F8183858789DD
:100380008A8C8E90929496989A9C9E9FA1A3A5A7E2
:10039000A8AAACAEAFB1B3B4B6B8B9BBBCBEBFC10E
:1003A000C2C3C5C6C7C9CACBCCCDCED0D1D2D2D399
:1003B000D4D5D6D7D7D8D9D9DADADBDBDBDCDCDCAD
:1003C000DCDCDDDDDDDDDCDCDCDCDCDBDBDBDADA70
:1003D000D9D9D8D7D7D6D5D4D3D2D2D1D0CECDCCE7
:1003E000CBCAC9C7C6C5C3C2C1BFBEBCBBB9B8B6FC
:1003F000B4B3B1AFAEACAAA8A7A5A3A19F9E9C9A87
:1004000098969492908E8C8A89878583817F7D7B54
:1004100079777573716F6D6B6968666462605E5C35
:100420005A5957555351504E4C4A494745434240FB
:100430003E3D3B3A3836353332302F2D2C2A292891
:10044000262523222E001E001F002000210022004E
:100450002B0014001A0008001500170039000400D2
:100460001600070009000A00E1001D001B0006003D
:100470001900050029003541490450004F002A00A9
:100480000000E000E2004A004D004C002300240080
:100490002500260027002D001C0018000C0012006B
:1004A000130031000B000D000E000F00334234002A
:1004B00011001000360037003861E5002C005200B2
:1004C00051002F0030000158280005030007E30009
:1004D000E400000001003A003B003C003D003E000B
:1004E00001001E021F022F00300031020100200215
:1004F00021022602270235000100220223022F00DA
:1005000030003502005C0100010001000100010023
:100510000000010001000100010001003F00400057
:10052000410042004300440052005F00600061004F
:100530005500450051005C005D005E005700460418
:10054000240259005A005B00540001000100010020
:10055000630062006700010001004E004B000100D3
:1005600001000000A60001000100010001000100DF
:10057000010001000100F000010001000100010084
:10058000F200F100F3000100010001000100010090
:1005900001000100005C01000100F400F500010011
:1005A0000000010001000100010001000100010044
:1005B0000100010001000100010001000100010033
:1005C0000100010001000100010001000100AE0076
:1005D00001000100AC00AB0001000100B600A90061
:1005E000AA00A800010001000100010001000100B3
:1005F000010000001E0F0500047F3F1F64321464D9
:100600003214783C1E1E140A05FD377A585A000031
:1006100004E6D6B4460200210116000000742FE55E
:10062000A3E002C601165D003D8889C65436C31793
:100630004FE4DD5C7431C9895FE437D76A12C87151
:100640009E622074951E40FC632398D3E329C0FE6C
:10065000AFF340E5BB5EB336194F4897F46DA3394D
:100660004BA146FFEA5E1FCA98A910671AEDCF5A40
:10067000A8539276BBA51FFF990EDF0A72EA3E20AF
:10068000FFB723704CD8B173B74065F4FFD94CD293
:1006900065FF986BA9D96327A66A5D9FD89E8100E4
:1006A0005757B78E3B17875AB7F114F62EA2304032
:1006B000E8999A3C93D24E569682F2B45341460F33
:1006C000342D08860906A8E520A1278B201251A900
:1006D0008CEA43E0A90C83A8AF53071D2CDCB6AF0E
:1006E0004B869E161EF4AD316630B99D42B8D82EA9
:1006F000AEDFE76EA827B13A4553A5F89F6B72E7C6
:10070000C092E8868163EB7513129E9EACDD8D73FB
:1007100030CE07F22E968397866A97B3C71A35595B
:10072000707014F520AF7504EF941E74A3F62311B6
:10073000C7AAA50E26BC590C70C652E379700000FA
:10074000006300E89329610AFB0001B202C70500BB
:10075000009721C603B1C467FB02000000000459E2
:100760005A09025B00030100A0FA0904000001031A
:100770000101000921110100012240000705810348
:1007800008000A0904010002030000000921110108
:100790000001222200070582032000010705030350
:1007A00020000109040200010300000009211101D9
:1007B00000012281000705840320000A12011001B4
:1007C00000000008504460300100010203011C03D6
:1007D0007600690061006C003A0066003600340063
:1007E0006300320062003300630000002203440013
:1007F00061006300740079006C0020004500720005
:1008000067006F00280036007800360029000000DD
:1008100018034F00680020004B006500790020009D
:1008200043006100700073000000040309041124F8
:100830001FBECFEFDAE0DEBFCDBF04B603FE27C098
:100840008091410390914203A0914303B0914403EE
:100850008730904BA740B04BD1F4109241031092D7
:100860004203109243031092440314BE84B7877F5F
:1008700084BF0FB6F894A89580916000886180933A
:100880006000109260000FBEE0E0F8E3099511E00F
:10089000A0E0B1E0E2E3F3E602C005900D92A83CCF
:1008A000B107D9F723E0A8ECB1E001C01D92A13453
:1008B000B207E1F70E94C2250C9456310C94000057
:1008C000E8EDF0E080818E7F80831092E20010924C
:1008D000DA001092E100A0EEB0E08C9181608C9380
:1008E00080818F77808319BCA7EDB0E08C918E7FDB
:1008F0008C9380818F7E808310920C0308952091C9
:10090000E4003091E50095E6A9012091EC00822FEA
:10091000817020FF06C08091E80080FF06C080E063
:1009200008952091E80022FD1AC0809122038823B7
:1009300089F0853089F08091EB0085FD0FC0209112
:10094000E4003091E50042175307F9F29150E1F6C7
:1009500084E0089582E0089583E0089581E0089599
:10096000EF92FF920F931F93CF937C018B010E9414
:100970007F04C82F811117C08091E80085FD0BC04E
:100980008091E8008E778093E8000E947F0488239E
:1009900099F3C82F08C0F70181917F018093F1007E
:1009A0000150110949F78C2FCF911F910F91FF90A2
:1009B000EF900895CF93FC0180912203843001F5DC
:1009C000C091E900CF702091EC00922F917020FD32
:1009D00090E8C92B82E08093E9008091E80080FFD5
:1009E0000CC050E040E060E270E0CF010E94B00433
:1009F0008091E8008E778093E800CF70C093E90083
:100A0000CF91089580911A0387FF13C08091E80069
:100A100082FF06C08091E8008B778093E80004C0D5
:100A2000809122038111F2CF0895809122038823BF
:100A3000D9F38091E80080FFF8CF8091E8008E77AD
:100A4000ECCF982F9093E900242F762F50E0891750
:100A500031F07091EC002091ED005091F00021FDFB
:100A600007C09F5F973071F78093E90081E0089598
:100A70003091EB003E7F3093EB003091ED003D7FF5
:100A80003093ED003091EB0031603093EB007093C8
:100A9000EC002093ED005093F0002091EE0027FD34
:100AA000E0CF80E00895CF92DF92EF92FF920F9314
:100AB0001F93CF93DF93C8EDD0E088818F7E88832A
:100AC000E7EDF0E080818160808384E082BF81E097
:100AD00080930C0388818E7F888302EE10E0F801FA
:100AE00010821092DA0081EEC82ED12CF60110820D
:100AF00088818F77888388818068888388818F7DCB
:100B0000888319BC109222031092190310921803C3
:100B10001092170390EEE92EF12CF70180818B7F64
:100B2000808388818160888342E060E080E00E9469
:100B30002105F60180818E7F8083F80180818160AC
:100B40008083808188608083F70180818E7F8083AD
:100B5000888180618883DF91CF911F910F91FF90F1
:100B6000EF90DF90CF900895FC0180912003909149
:100B7000210386179707A0F06115710529F490915C
:100B8000E8009E779093E80090E06115710551F4BC
:100B9000911108C08091E80082FF34C080E0089580
:100BA000BC01F2CF809122038823C1F18530C1F1CD
:100BB0008091E80083FD30C08091E80082FDEACF9B
:100BC0008091E80080FFE1CF8091F3002091F20056
:100BD000382F6115710519F02830310558F091E072
:100BE0002830310509F090E02091E8002E7720931D
:100BF000E800CBCF81918093F100615071092F5FA4
:100C00003F4FE7CF80912203882341F0853041F0A8
:100C10008091E80083FFBECF81E0089582E00895CF
:100C200083E00895089580E0089580910E0308956B
:100C300087E797E7909301088093000888E19AE09E
:100C40000FB6F894A895809360000FBE9093600053
:100C5000FFCF9C014FB7F8948091B0029091B10200
:100C6000A091B202B091B3024FBF821B930B0895C3
:100C70002FB7F8946091B0027091B1028091B202E6
:100C80009091B3022FBF08952FB7F8948091B002CE
:100C90009091B102A091B202B091B3022FBF08951A
:100CA0008091AB0281111092AB0208958091AA024B
:100CB0009091A902892B9091A802892B8093CA0157
:100CC0009091AB02992391F0892B8093CA0120E087
:100CD0008CEC91E0FC013191CF0131112F5FF1E0FB
:100CE000823D9F07B9F721110E945006E091C90289
:100CF000F091CA02309731F00280F381E02D8AEC46
:100D000091E009940895ECECF1E09191891303C00E
:100D1000DF0111971C9291E0E23DF907B1F70895C8
:100D2000ACECB1E0EFEF90E02D91821751F0EF3F86
:100D300019F4211101C0E92F9F5F9630A9F7EF3F09
:100D400009F408950E2E000CFF0BE653FE4F82832C
:100D50000895E92FEE0FE90FEE0F8E0F982F977081
:100D600086958695869525E0829FF0011124E658A8
:100D7000FD4F50E040E080E0219130E0092E02C0BC
:100D8000369527950A94E2F721703327042E01C087
:100D9000220F0A94EAF7822B4F5F5F4F45305105CF
:100DA00059F70895E92FEE0FE90FEE0F8E0F982FE8
:100DB000977041E001C0440F9A95EAF786958695B1
:100DC000869595E0899FF0011124E658FD4F30E0AB
:100DD00020E070E05191DF011197CB01022E02C09B
:100DE000969587950A94E2F78170819585278423EB
:100DF00085278C932F5F3F4F2530310559F7089594
:100E0000209179029091480256E0291302C080E0B7
:100E1000089530E0529FF001539FF00D1124E75BDD
:100E2000FD4F7181761306C07081781303C0728103
:100E3000741304C02F5F3F4F2770E7CF81E0089500
:100E40008091790290914802981301C008958F5FB4
:100E50008770FACF882341F080959091AA02892368
:100E60008093AA020C9456060895882339F0909135
:100E7000AA02982B9093AA020C94560608952091EA
:100E80003C0230913D022817390771F090933D02E2
:100E900080933C02E091C902F091CA02309721F0A0
:100EA0000084F185E02D0994089520913A02309153
:100EB0003B022817390771F090933B0280933A0266
:100EC000E091C902F091CA02309721F00680F781C3
:100ED000E02D09940895E091C902F091CA0230977B
:100EE00021F00190F081E02D099480E00895FA014D
:100EF000811101C0FB010994E5EDF2E011828281CC
:100F00008460828308958091F702982F9E7F29F450
:100F1000817082608093F70208958635E8F38170CE
:100F20008465F8CFAF92BF92DF92EF92FF920F935A
:100F30001F93CF93DF93082F162FE901E42FF0E0E2
:100F4000E15CFD4F611110C0E4915E2F4E2F49838B
:100F5000E8835A83DF91CF911F910F91FF90EF901B
:100F6000DF90BF90AF900895E62EF12C4491D42EDF
:100F7000E42FF0E026E0829FC00111242FEF30E043
:100F8000B9010E94EE2F802F90E0880F991F55E540
:100F9000569FD001579FB00D11248A1B9B0B982F91
:100FA000990F890F5901AE18BF08AE9ED001AF9EB0
:100FB000B00DBE9EB00D11245B2F189F800111242F
:100FC000012F11275901A01AB10AAE9E8001AF9ED0
:100FD000100DBE9E100D11245901A81AB108AE9C27
:100FE000C001AF9C900DBE9C900D1124892F9927B4
:100FF000281B390B2E9FC0012F9F900D3E9F900DF7
:101000001124E92F62307105A1F050F461157105CA
:1010100009F49DCF6130710581F0EB2F512F97CFEF
:101020006430710569F080F06630710509F48FCF86
:10103000F4CFE42F4B2F592F8ACFE42F412F87CFA6
:10104000EB2F542F492F83CF4B2F5D2DE12F7FCFD7
:101050000E9444069C019091E1028091E202982B4B
:1010600021F03093DE022093DD029091E302809123
:10107000E402982B21F03093DA022093D902E09118
:10108000C902F091CA02309749F082E08093DF02F2
:101090000480F581E02D8FED92E00994089590E0B1
:1010A00080E00E94550790E080E00E943F07109288
:1010B000A9021092A8020E94560686E0EFEDF2E027
:1010C000DF011D928A95E9F71092DC021092D80296
:1010D000109241020C942808609326037093270312
:1010E00080932803909329030C944F080F931F9328
:1010F0006091260370912703809128039091290322
:101100008B019C0106701127222733270630110519
:101110002105310529F468601F910F910C946C082A
:10112000677FFACF0F931F9341E050E060E070E0DB
:1011300004C0440F551F661F771F8A95D2F7CB0155
:10114000BA01609570958095909500912603109155
:1011500027032091280330912903602371238223E0
:1011600093231F910F910C946C089091A702809586
:1011700089238093A702282F277071F4282F082E27
:10118000000C330B9217130639F0859585958595DC
:101190000E9492081092A70208950F931F9341E0B6
:1011A00050E060E070E004C0440F551F661F771FD9
:1011B0008A95D2F78091260390912703A091280366
:1011C000B09129038A019B01082B192B2A2B3B2B59
:1011D000C901B8011F910F910C946C086093AC0287
:1011E0007093AD028093AE029093AF020C944F08BF
:1011F0009091E102803F59F48091E20287FF0DC097
:101200001092E20291110BC01092DC0208C0813FE3
:1012100081F48091E20218169CF3992381F0809169
:10122000E3029091E402892B09F064C01092D80285
:101230000895823F49F497FFF0CF1092E102809128
:10124000E2028111ECCFE0CF833F19F41916ACF321
:10125000E4CF2091E302893F29F41216F4F61092AC
:10126000E302DBCF8A3F19F427FFD7CFF8CF2091D5
:10127000E4028B3F29F427FFD0CF1092E402CDCFB8
:101280008C3F19F41216CCF3C8CF843F31F480910F
:10129000E0028E7F8093E002C0CF853F21F48091F1
:1012A000E0028D7FF7CF863F21F48091E0028B7FB3
:1012B000F1CF873F21F48091E002877FEBCF883F19
:1012C00021F48091E0028F7EE5CF8D3F31F4809153
:1012D00041028E7F80934102A0CF8E3F21F4809106
:1012E00041028D7FF7CF8F3F09F097CF8091410268
:1012F0008B7FF0CF0895882309F459C0823871F4A8
:101300000E946B0781FF53C089E30E9490060E94F0
:10131000560689E30E9483060C945606833859F4D6
:101320000E946B0780FF43C083E50E9490060E94E5
:10133000560683E5EFCF843859F40E946B0782FF8D
:1013400036C087E40E9490060E94560687E4E2CFEA
:101350009CEF980F913AF0F290E2980F983088F451
:10136000877021E030E0A90102C0440F551F8A9523
:10137000E2F7CA0180959091AA0289238093AA027C
:10138000CBCF9BE5980F933020F490E080E00C9455
:10139000550798E5980F973120F490E080E00C9481
:1013A0003F07803F20F00E94F8080C942808089519
:1013B0008091410280FF0CC06091130170E075952F
:1013C0006795759567956115710549F1862F0895A3
:1013D00081FF06C06091130170E075956795F3CFAA
:1013E0006091130182FD0BC09091D8029923A1F066
:1013F0006091120180911301961738F0682F70E008
:101400006038710500F38FE70895899FC0011124AA
:1014100070E00E940230F4CF61E070E0D7CF81E04D
:1014200008958091410280FF12C06091150185E00E
:10143000689FB0011124759567957595679560381B
:101440007105A8F561157105A1F1862F089581FF39
:1014500009C06091150185E0689FB0011124759560
:101460006795EDCF6091150182FD0AC08091DC0285
:101470008823D1F09091140160911501891728F00B
:1014800085E0689FB0011124DACF869FB001112456
:1014900085E0869F9001879F300D1124692F70E0B1
:1014A000C9010E940230CBCF65E070E0CECF8FE75C
:1014B000089581E00895803F31F40E94110A8195DA
:1014C0008093E2020895813F19F40E94110AF8CF37
:1014D000823F31F40E94110A81958093E1020895C0
:1014E000833F19F40E94110AF8CF893F29F40E9422
:1014F000D8098093E30208958A3F21F40E94D80915
:101500008195F7CF8B3F31F40E94D8098195809364
:10151000E40208958C3F19F40E94D809F8CF843F63
:1015200031F48091E00281608093E0020895853F6C
:1015300021F48091E0028260F7CF863F21F4809110
:10154000E0028460F1CF873F21F48091E00288605F
:10155000EBCF883F21F48091E0028061E5CF8D3FA1
:1015600031F48091410281608093410208958E3F61
:1015700021F4809141028260F7CF8F3FB9F78091CB
:1015800041028460F1CF833011F128F4813049F0B9
:10159000823091F00895853081F120F18630C1F1DB
:1015A00008958091DB02681720F4861B8093DB028C
:1015B00008951092DB02089580911C01681720F4B1
:1015C000861B80931C01089510921C010895809140
:1015D0001501681720F4861B809315010895109259
:1015E0001501089580911401681720F4861B8093DB
:1015F0001401089510921401089580911301681741
:1016000020F4861B8093130108951092130108950E
:1016100080911201681720F4861B809312010895AF
:10162000109212010895833081F128F4813059F02D
:101630008230D1F00895853009F449C0B8F1863080
:1016400009F456C008958091DB02482F460F5527B4
:10165000551F4F3F510524F4680F6093DB02089536
:101660008FEF8093DB02089580911C01482F460F75
:101670005527551F4F3F510524F4680F60931C01F7
:1016800008958FEF80931C01089580911501482FD4
:10169000460F5527551F4F3F510524F4680F60939F
:1016A000150108958FEF809315010895809114011D
:1016B000482F460F5527551F4F3F510524F4680FFB
:1016C0006093140108958FEF809314010895809121
:1016D0001301482F460F5527551F4F3F510524F43E
:1016E000680F6093130108958FEF8093130108959D
:1016F00080911201482F460F5527551F4F3F510526
:1017000024F4680F6093120108958FEF8093120103
:101710000895F894E82FE295EF70F0E031A1282FBA
:101720002F7081E090E001C0880F2A95EAF7982F8A
:101730009095932391A392A1892B82A378940895E5
:101740009091C60292FF06C0282F28712830F9F424
:10175000877F846093FF06C0282F28712831F1F419
:10176000877E84612091C70220FF06C0382F387120
:101770003830D9F4877F816021FF06C0282F287177
:101780002831D1F4877E816194FD877E0895282FCA
:1017900024712430F9F68B7F8860DCCF282F2471E8
:1017A000243101F78B7E8861DDCF382F31713130E4
:1017B00019F78E7F8860E0CF282F2171213121F722
:1017C0008E7E8861E1CFCF93DF9300D00F92CDB7AB
:1017D000DEB790912203943011F589837B836A836D
:1017E0009093E9008FEF9091E800815095FD06C03D
:1017F00095ED9A95F1F700008111F5CF8091E80001
:1018000085FF0DC050E040E063E070E0CE0101963E
:101810000E94B0048091E8008E778093E8000F90DA
:101820000F900F90DF91CF910895BC0184E00C944C
:10183000E30BBC0183E00C94E30B9C0184E08093F8
:10184000E9009FEF8091E800915085FD06C085ED8D
:101850008A95F1F700009111F5CF8091E80085FF9E
:101860000CC050E040E066E070E0C9010E94B004A6
:101870008091E8008E778093E8000895CF93DF93FE
:10188000EC0181E08093E9008FEF9091E8008150B6
:1018900095FD06C095ED9A95F1F700008111F5CF01
:1018A0008091E80085FF14C050E040E068E070E0FF
:1018B000CE010E94B0048091E8008E778093E8000A
:1018C00088E0FE01AFE0B3E001900D928A95E1F768
:1018D000DF91CF910895609117018091F70280FF09
:1018E00020C08091160143E0849FC00111248652DC
:1018F0009E4F539A2BB1277F3BB138605FB7F89466
:10190000FC01649FE00DF11D1124BF0168177907E8
:10191000D1F45FBF8FE594E00197F1F700C00000BC
:101920000895809118019091190123E0829FF001A0
:101930001124E652FE4F8917A0F6118210821282FE
:101940008F5F3396F8CFFC014191CF01E8E03BB9BE
:10195000000000C047FF2BB9440F000000C000C0CA
:1019600000C02BB900C0EA9591F7D0CFEF92FF925B
:101970001F93CF93DF93EC0110E0EE24EA94F12C57
:1019800060911A01161770F00E946B0C9A818C817D
:1019900090FF27C08F5F8C83DF91CF911F91FF90C5
:1019A000EF90089520911801422F410F5527551FA0
:1019B000CA019A01220F331F280F391F26523E4FAA
:1019C00070E0C7010E940230962F8C814091FA028C
:1019D0006091F902199F800D11240E9492071F5FE8
:1019E000CFCF8150D8CF8F929F92AF92BF92CF929C
:1019F000DF92EF92FF920F931F93CF93DF93EC014F
:101A00008A81BB24BA9480FD02C0BB24B394A09009
:101A10001A018C81811109C081E0B81228C08FEFB2
:101A20008A0D8093D70181E08C83F12CE12C4CE06E
:101A3000942EEA14F8F00E946B0C8091D70191E08B
:101A4000B9125FC0811158C080911A0181508093F2
:101A5000D7011C82DF91CF911F910F91FF90EF90E2
:101A6000DF90CF90BF90AF909F908F90089510928D
:101A7000D701D9CF009118010E0D1F2D111DC801DE
:101A8000880F991F080F191F06521E4FF801118267
:101A90001082128234E0C32ED12C812C8091D70188
:101AA000880D8D302CF1692D0E94E02F892F082E92
:101AB000000C990B8E159F0591F48091FA028C9D74
:101AC000A0018D9D500D112455954795559547952D
:101AD00098016091F9028091F8020E9492078B0CA4
:101AE000F1E0CF1AD108D1F68FEFE81AF80AA1CFAA
:101AF00087FFDDCF8A0DDBCF81508093D701BC8279
:101B0000A9CF90E0019660911A0170E00E94023026
:101B10008093D7018C839ECFEF92FF920F931F93F8
:101B2000CF93DF93EC018C81811109C081E08C831C
:101B30001092D80192E09093100180930F01809150
:101B400018019091190123E0829FF0011124E652BF
:101B5000FE4F891768F110E003E060911A01161733
:101B600068F10E946B0C80910F012091D801280F21
:101B70002093D80190911001980F9093100119169D
:101B800054F4022E000C330B40911A014150550BB6
:101B90002417350734F0819580930F01813009F4C3
:101BA0001C82DF91CF911F910F91FF90EF900895CC
:101BB0001182108212828F5F3396CBCFE12EF12CEF
:101BC00070E0C7010E94023020911801820F482F57
:101BD00050E02091D801022E000C330BE216F306E0
:101BE000BCF020911001022E000C330B2E153F0586
:101BF0007CF0809F9001112426523E4F4091FA02C2
:101C00006091F9028091F8020E9492071F5FA5CFB0
:101C1000FA01EE0FFF1FE40FF51FE652FE4F11828F
:101C200010821282F3CF8F929F92AF92BF92CF9287
:101C3000DF92EF92FF920F931F93CF93DF93EC010C
:101C40004C81042F10E09801D8010E9447319B017C
:101C5000AC010E9412314B015C01E0E2F0E0E01BBC
:101C6000F10BA5E5B0E0AC019B010E9412316B01C4
:101C70007C019F01DF010E9423309B01AC010E9487
:101C80001D319B01AC01280D391D4A1D5B1DC7018B
:101C9000B6010E942531F22E822F90E039E23F15E5
:101CA00060F143E0249F9001112435952795122F70
:101CB000109500E085E5E82EEF1880911A010817CD
:101CC00058F10E946B0C9C8181E0992319F09032AD
:101CD00019F48FEF8093110180911101890F8C838A
:101CE000DF91CF911F910F91FF90EF90DF90CF90F8
:101CF000BF90AF909F908F90089525E530E0B90197
:101D0000681B790B9B01220F331F260F371F37FFEC
:101D1000CCCF2F5F3F4FC9CF8E2D01FD8F2D20914E
:101D20001801622F600F7727771F9B01220F331F47
:101D3000260F371F26523E4F412F6091F9020E9415
:101D400092070F5FBACF0F931F93CF93DF93EC01EE
:101D500010E000E090911A019017110609F06CF460
:101D60000E946B0C8C8190E00196817099278C8386
:101D7000DF91CF911F910F91089520911801A80133
:101D8000420F511D9A01220F331F240F351F265277
:101D90003E4F4C816091F9028091F8029695901720
:101DA000110651F04CF0442349F04091FA020E9490
:101DB00092070F5F1F4FCECF4423B9F340E0F7CF18
:101DC0009091F70290FF14C0909118012091190191
:101DD00033E0939FF0011124E652FE4F921710F06A
:101DE0000C946B0C8183608342839F5F3396F6CFA4
:101DF00008950F931F93CF93DF9300D00F92CDB729
:101E0000DEB78C018091D90181110AC09E012F5F3C
:101E10003F4F4FEF6FEF0E9492078A818093D90165
:101E2000F8016481613069F08091D90140E0662356
:101E300061F040E0623011F44091D90180E060E04F
:101E400004C06091D90140E080E00E94E00EF801FA
:101E5000848190E0019663E070E00E940230848308
:101E60000F900F900F90DF91CF911F910F910895D8
:101E7000CF93DF9300D00F92CDB7DEB79091F702EA
:101E800090FF0AC09E012F5F3F4F0E9492074B8137
:101E900069818A810E94E00E0F900F900F90DF9170
:101EA000CF910895CF93DF93EC01EC81F0E0EC5BF0
:101EB000FC4F4491E7EFF2E0628181810E94380F8C
:101EC0008C818F5F8C83DF91CF910895CF93DF93C7
:101ED000EC01E7EFF2E0438162818C810E94380FD0
:101EE0008C818F5F8C83DF91CF910895E7EFF2E0D3
:101EF00080818E7F80830E947C07E5EDF2E0828105
:101F0000816082832FEF80E792E0215080409040F3
:101F1000E1F700C000000C946B0C8091D601811198
:101F200011C08091D80080618093D8008AE18A95A1
:101F3000F1F700C09091D900892F817090FF82E065
:101F40008093D60181E09091D601913009F080E034
:101F50000895CF9384E090E00E94AB30C82F81E2D7
:101F600090E00E94AB30982F8C2FCF9108950F9363
:101F70001F93CF93DF93843030F56C3020F54630DB
:101F800010F5C42FD0E0CC0FDD1F2CE0629FC00DF8
:101F9000D11D112430E9839FC00DD11D1124CE0124
:101FA00086960E94AB30082F10E0102F0027CE013C
:101FB00087960E94AB309801282BC901DF91CF9101
:101FC0001F910F91089590E080E0F8CF462F209167
:101FD0000A0330910B03232B49F4843038F47C300E
:101FE00028F4663018F4672F0C94B70F90E080E067
:101FF0000895CF93DF930E94E60FEC01823891059C
:10200000A9F1D8F58133910509F496C048F58932D4
:10201000910509F48AC08A9709F495C0C11521E594
:10202000D20708F0BCC0C11530E5D30708F014C1D1
:10203000C83ED10508F09CC0C03ED10560F5C83A45
:10204000D10508F087C0C53AD10508F0FDC0C13000
:10205000D10509F12097F9F0C430D105E0F440C072
:102060008533910509F45AC0C997C1F68091C6021B
:10207000837089F0C0EED0E00EC0833E910599F1E7
:1020800070F4803E910501F1823E910539F6809110
:10209000C60282FD21C0CE01DF91CF910895863E18
:1020A000910561F1873E910571F1843E910509F03A
:1020B000B5CF8091C70281FFEECF8091C602C7EEF7
:1020C000D0E084FD0DC0E7CF8091C60280FD12C133
:1020D0009091C70290FFDFCFC3EED0E084FFDBCF4B
:1020E000D0E0C0E0D8CF8091C60282FD06C19091B9
:1020F000C70290FDBFCF84FFCECFF2CF8091C60242
:1021000083FDDDCFC8CF8091C60283FDF9C09091D9
:10211000C70291FFF0CFC4EED0E0BDCF8091C602E0
:1021200085FFB9CFC9E2D0E0B6CF8091C60285FF66
:10213000B2CFC5E3D0E0AFCF8091C60286FFABCF70
:10214000CAE2D0E0A8CF8091C60286FFA4CFC1E347
:10215000D0E0A1CFCF3BD10518F6C85AD0E0CC0FC4
:10216000DD1FC858DE4F0990D881C02DD46493CFAD
:10217000C11540E2D40758F4C11581E0D80708F032
:102180008ACFC03FD10508F4ABCFD06584CFC1154D
:1021900090E4D90708F4A4CFDF70D06A7CCFC115D2
:1021A00025E5D20700F5C11534E5D30708F08AC04C
:1021B000C11543E5D40708F071C0C11582E5D80701
:1021C00008F467C0CE018370992721E030E002C097
:1021D000220F331F8A95E2F7C695C69580E2C89F05
:1021E000E001112452C0C11599E5D907A8F4C11521
:1021F00028E5D20708F06BC0C11536E5D30708F013
:102200006FCF8C2F0E94A00BC82FD0E0DC2FCC27E3
:10221000CC27DF71D0623FCFC1154AE5D40708F45F
:102220005BC0CE0190568115904208F059CF8D2F9A
:102230008F710E94A00B90E0982F882788279F71AC
:102240009C012C2BE901E6CFC55AD0E0CB58DE4FDC
:10225000C881D0E0D0641FCFCE01E4E09695879589
:10226000EA95E1F783702C2F26952695237040E29E
:10227000249F90011124382B8C2F8370C1E0D0E073
:1022800002C0CC0FDD1F8A95E2F7C22BD32BDC688E
:1022900002CFDC2FCC27C16FD06AFDCECE01837078
:1022A000992721E030E002C0220F331F8A95E2F720
:1022B000C695C69590E2C99FE0011124C22BD32B8D
:1022C000DA68E9CEDC2FCC27C46FD06AE4CEDC2FED
:1022D000CC27C06FD06ADFCE8C2F8F700E94A00BEE
:1022E00034E0D695C7953A95E1F7CF709C2FEC0175
:1022F000D069D1CEC9E3D0E0CECEC2EED0E0CBCE15
:10230000C6EED0E0C8CEBF92CF92DF92EF92FF929E
:102310000F931F93CF93DF938C01C0902603D0902F
:102320002703E0902803F09029038091AC0290915C
:10233000AD02A091AE02B091AF02C82AD92AEA2A12
:10234000FB2ACFE1D0E0BC2ED701C6010C2E04C081
:10235000B695A795979587950A94D2F780FD0EC0FC
:10236000219788F7B12C8B2DDF91CF911F910F9181
:10237000FF90EF90DF90CF90BF900895B8018C2F21
:102380000E94F90F019761F3EECFCF93DF93EC0139
:102390000E948311BE01DF91CF910C94F90F0E942E
:1023A000C511292F2F7092959F7092509E3078F40E
:1023B000E92FF0E0E85AFE4C0C941630803F19F0FB
:1023C00020F4883E20F481E00895843FE1F380E02A
:1023D0000895883EC0F3813FD1F7F5CF822F8695CF
:1023E000869586950895CF93DF93C6E6D2E060E0A8
:1023F000CE010E94BF302196C11584E0D807B9F7FD
:10240000DF91CF9108950F931F93CF93DF938901AD
:10241000843048F56C3038F5463028F521153C45B8
:1024200031F42091080330910903232BE1F0C42FEC
:10243000D0E0CC0FDD1F9CE0699FC00DD11D1124A1
:1024400090E9899FC00DD11D1124612FCE01869680
:102450000E94BF30602FCE018796DF91CF911F91F0
:102460000F910C94BF30DF91CF911F910F91089580
:102470008F929F92AF92BF92CF92DF92EF92FF9294
:102480001F93CF93DF93809008039090090381E01E
:1024900090E0909309038093080384E4C82E84E0BD
:1024A000D82ED0E07601C0E014C0F501259134911A
:1024B000412F6C2F8D2F0E94031282E0A80EB11CB9
:1024C0001F5F163091F78CE0E80EF11CCF5FCC3027
:1024D00019F0570110E0E9CFDF5F80E9C80ED11C89
:1024E000D43001F79092090380920803DF91CF91D5
:1024F0001F91FF90EF90DF90CF90BF90AF909F9093
:102500008F9008951092AA02ECECF1E086E0DF01D2
:102510001D928A95E9F70C944F081F93CF93DF9390
:10252000CDB7DEB7AA970FB6F894DEBF0FBECDBF0A
:102530008AE193E02091F100DC012D93CD01B3E01D
:1025400082329B07B9F780911B03833009F471C075
:10255000B8F4813009F448C0823009F4B2C08091E7
:10256000E80083FF3AC180911A0390911B039A30CF
:1025700008F033C1E92FF0E0EA59FE4C0C94163014
:102580008A3009F48DC08B3009F470C0893039F776
:1025900080911A03813219F780911E0390911F03D5
:1025A000009711F00297D9F68091E800877F809319
:1025B000E8008091E80082FF37C09091F30080919D
:1025C000F200029729F48091F1008B7F813021F491
:1025D0008091F10080930E038091E8008B778093C7
:1025E000E8000E940205BBCF80911A03813A09F0EE
:1025F000B6CF8091E800877F8093E80080911E032A
:1026000090911F03892B61F468E08FE093E070E004
:102610000E94B4058091E8008B778093E8009FCFFB
:1026200060E090E080E0F3CF809122038111C1CF80
:1026300096CF80911A03813A09F091CF80911E03C1
:1026400090911F03892B09F08ACF8091E800877F42
:102650008093E8008091E80080FFFCCF8091270103
:102660008093F1008091E8008E77B9CF80911A03B2
:10267000813209F074CF80911E0390911F03892B42
:1026800009F06DCF8091E800877F8093E8000E9479
:10269000020580911C03809327010E9482125FCF64
:1026A00080911A03813209F05ACF8091E800877F28
:1026B0008093E8000E94020580911D0380930D0322
:1026C0004ECF80911A03813A09F049CF8091E800FA
:1026D000877F8093E8008091E80080FFFCCF8091A5
:1026E0000D03BECF803899F0823809F076C0809112
:1026F0001E038F70873008F070C08093E9008091CE
:10270000EB0085FB882780F91092E90006C08091D4
:10271000170390911803911182609091E800977FC0
:102720009093E8008093F1001092F1008091E8000E
:102730008E77C0C1882309F4ADC1823009F04DC045
:1027400080911C038111B1C180911E038F702FEF06
:10275000280F263008F041C08093E9002091EB005B
:1027600020FFA3C1933031F48091EB00806280930D
:10277000EB009BC19091EB0090619093EB0021E006
:1027800030E001C0220F8A95EAF72093EA00109208
:10279000EA008091EB008860EACF81111EC01091A1
:1027A0001C031F778091E3008078812B8093E300E6
:1027B0008091E800877F8093E8000E940205809165
:1027C000E80080FFFCCF8091E30080688093E30005
:1027D00082E0111183E0809322038091E80083FF5F
:1027E0000AC08091E800877F8093E8008091EB0029
:1027F00080628093EB00AA960FB6F894DEBF0FBEFE
:10280000CDBFDF91CF911F9108958058823028F776
:1028100020911C0330911D032C3DE3E03E07A1F500
:1028200083E08A838AE289834FB7F894DE011396A6
:1028300020E03EE051E2E32FF0E050935700E491B6
:1028400020FF03C0E295EF703F5FEF708E2F90E0A6
:10285000EA30C0F0C7968D939D932F5F243159F7CE
:102860004FBF8091E800877F8093E8006AE270E0C4
:10287000CE0101960E94B4058091E8008B77809389
:10288000E800ABCFC096E7CF80911E0390911F0365
:10289000432F55274330510509F44AC078F541309C
:1028A000510509F485C08BE590E0E1E6F7E04230A0
:1028B000510509F092CF2091E800277F2093E8008E
:1028C00020912003309121038217930708F49C0183
:1028D00040E02115310509F070C041116EC08091B2
:1028E000E80082FDC9CF80912203882329F2853038
:1028F00019F28091E80083FFF2CFBECF413251053B
:1029000009F447C04232510509F067CF8330910581
:1029100008F063CFFC01EE0FFF1FE554FE4F01905E
:10292000F081E02D88549E4FDC018C9190E01DC019
:10293000332721303105E9F02115310579F02230B6
:102940003105F9F02330310509F047CFEEECF7E01F
:10295000E4918E2F90E0EEECF7E007C0EAE2F8E0B9
:10296000E4918E2F90E0EAE2F8E0009709F435CF89
:10297000A2CFE0E1F8E0E4918E2F90E0E0E1F8E012
:10298000F4CFECEEF7E0E4918E2F90E0ECEEF7E080
:10299000ECCF8330910508F020CF880F991FFC0100
:1029A000EF53FE4F0190F081E02D89E090E083CF5E
:1029B00082E190E0ECEBF7E07ECF80912203882368
:1029C00009F45ACF853009F457CF8091E80083FD90
:1029D00053CF8091E80082FD82CF8091E80080FF94
:1029E00078CF9091F3008091F2002115310519F014
:1029F0008830910550F041E0089709F040E080915F
:102A0000E8008E778093E80064CF44914093F10012
:102A10003196215031090196E8CF803809F0DDCE9A
:102A20008091E800877F8093E8008091190380936C
:102A3000F1007CCE8111D1CE10911C03123008F030
:102A4000CCCE8091E800877F8093E8001093190333
:102A50000E940205112311F084E005C08091E3007B
:102A600087FDFACF81E08093220342E061EC81E0B0
:102A70000E94210542E261EC84E00E94210542E2CD
:102A800061EC82E00E94210542E260EC83E00E945A
:102A90002105A3CE80911C03813009F09ECE81E0F8
:102AA000933009F080E0809318031092E900809140
:102AB000E800877F8093E8000E9402058ECE0F9386
:102AC0001F9341E050E060E070E08A019B0104C088
:102AD000000F111F221F331F8A95D2F7C901B801B9
:102AE0000E94EE081F910F910C9482124F925F92F8
:102AF0006F927F928F929F92AF92BF92CF92DF920E
:102B0000EF92FF920F931F93CF93DF93FC016280AC
:102B1000448081E08483E4E4F3E07490E3ECF3E048
:102B2000E491812C75E0972EF2E0CF2EDD24D39432
:102B3000AA24AA94B12C55245A94E7190E2F10E018
:102B400080911A01881690F0DF91CF911F910F911B
:102B5000FF90EF90DF90CF90BF90AF909F908F90BD
:102B60007F906F905F904F900C946B0CE82CF12C41
:102B700082E0861568F09E9CF0019F9CF00D112468
:102B8000E250FE4F8091F80280838091F9028183A8
:102B9000411023C09E9CF0019F9CF00D1124E25037
:102BA000FE4F1382128220911801C701820F911DDE
:102BB0009C01220F331F280F391F26523E4F9E9C27
:102BC000F0019F9CF00D1124E250FE4F4281618183
:102BD00080810E9492078394B3CF9E9CE0019F9CCA
:102BE000D00D1124C250DE4F8B818823E9F0815033
:102BF0008B83859DC00111246C8170E00E94EE2FB3
:102C0000FB01FF27EC5BFC4F8491E82FE719E59D62
:102C1000C0011124B8010E94EE2F8091FA02689F32
:102C2000B00111247A83BFCF0E947E302091FA0236
:102C3000269521582C9DA0012D9D500D1124452F26
:102C40005527841795070CF0AECF82E0861588F4DF
:102C50000E947E30B5010E94023088830E947E303F
:102C60002091F9022695622F70E00E940230280F11
:102C700029839E9CF0019F9CF00D1124E250FE4F91
:102C800012828091FA02893C58F088EC9E9CF001F7
:102C90009F9CF00D1124E250FE4F8483838383CFE9
:102CA0008431A0F784E1F2CF6BEE7EEF90E080E01C
:102CB0000E94DD3060E082E090E00E94BF3060E082
:102CC00083E090E00E94BF301092AC021092AD02FF
:102CD0001092AE021092AF0260E084E090E00E9499
:102CE000BF3060E081E290E00E94BF3060E085E0AC
:102CF00090E00E94BF3060E086E090E00E94BF302C
:102D00006FEF87E090E00E94BF3040E050E0BA01F2
:102D100088E090E00E94D13060E08DE090E00E9479
:102D2000BF3040E050E0BA0188E190E00E94D1302D
:102D300060E087E190E00E94BF3040E050E0BA01DF
:102D40008CE190E00E94D13060E080E290E00E944F
:102D5000BF3040E050E0BA0188E190E00E94D130FD
:102D600040E050E0BA018FE090E00E94D13040E0B6
:102D700050E0BA0183E190E00C94D1308B3109F43A
:102D800074C040F58B3071F078F4863009F456C089
:102D900020F4853059F180E00895873009F457C058
:102DA0008830C9F781E00895803109F46CC068F477
:102DB0008E3089F79091E602892F8B7F92FF846095
:102DC0008093E60282FD5BC0EDCF863159F38931F5
:102DD00049F3E1CF8A3279F1E0F4873241F120F40E
:102DE0008E31C8F28D5124C08932A9F68091080332
:102DF00090910903892BB1F20E9482122FEF84E394
:102E00009CE0215080409040E1F700C000000E940B
:102E10001806833448F48A3308F040C0853339F00B
:102E2000883309F4BFCFB7CF833409F0B4CF80E043
:102E30000E945F15B7CF0E945416B4CF8091E6026E
:102E4000807F8093E60281E0809340020895909114
:102E5000E602892F8E7F90FF81608093E60280FDDD
:102E6000A1CF817F8093E6029DCF9091E602892FCA
:102E70008D7F91FF82608093E60281FF93CF8091E6
:102E8000E6028160EFCF9091E602892F877F93FF62
:102E900088608093E60283FDF2CF84CF8953C8CF48
:102EA000CF93C82F882309F491C08238C1F40E94BF
:102EB0006B0781FD8BC089E30E9490060E94560635
:102EC0002FEF81EE94E0215080409040E1F700C068
:102ED000000089E30E948306CF910C945606833844
:102EE000A1F40E946B0780FD71C083E50E949006EB
:102EF0000E9456062FEF81EE94E0215080409040D2
:102F0000E1F700C0000083E5E5CF8438A1F40E941A
:102F10006B0782FD5BC087E40E9490060E94560604
:102F20002FEF81EE94E0215080409040E1F700C007
:102F3000000087E4CFCF8CEF8C0F813A08F088C077
:102F4000809140028130F9F0882399F08230B1F10C
:102F500010924002ECECF1E082ED91E02191C21779
:102F600009F4AAC08E179F07C9F78C2F0E949006FC
:102F7000B3CF8091AA02823269F78C2F0E94BE16CD
:102F8000811124C0E7CF8091AA028232B1F3C4310B
:102F900071F038F4CB3049F0C03161F080E08170DD
:102FA000EFCFC93221F0C833C9F781E0F8CF1092D2
:102FB0004002F4CF82E080934002F7CFC93221F182
:102FC00090F4C43109F120F4C73089F1CF9108950C
:102FD000CE51C630D8F7EC2FF0E0E559FE4F808196
:102FE00080933F02F3CFCE3401F140F46AE0CB345A
:102FF00069F780913F02CF910C94130BC13579F0A2
:1030000061E0C235B1F3E2CF80913F02882319F02D
:1030100010923F02DBCF81E080934002D7CF61E086
:1030200080913F02CF910C94C30A6AE0F9CF1092CD
:10303000DB0284E180931C01C09315018CE3809333
:10304000140188E08093130188E280931201BECFBF
:1030500080E28C0F883068F4C77021E030E001C056
:10306000220FCA95EAF78091AA02822B8093AA02C6
:1030700033CFEBE5EC0FE33040F4F0E0EB58FE4FDC
:10308000808190E0CF910C945507E8E5EC0FE73193
:1030900050F4F0E0EE0FFF1FE858FE4F8081918161
:1030A000CF910C943F07C03F08F490CF8C2F0E9423
:1030B0005B0ACF910C9428088C2F0E9483060E94F3
:1030C000560653CF1F93CF93DF93182FD0E0C0E065
:1030D000893311F4C0E5D0E0812F0E94501720976A
:1030E00031F4812FDF91CF911F910C947B098FE9EF
:1030F0009FE00197F1F700C000002197F0CF0F93F8
:103100001F93CF93DF93C62FD42F022FFC01828110
:103110008823A1F0609325030E9444069093240322
:1031200080932303C77081E001C0880FCA95EAF736
:10313000DF91CF911F910F910C943507809125035A
:10314000681335C080912303909124030E942906BF
:10315000883C910560F510E21D0FCD17B9F080E2B3
:103160008C0F883040F4C77081E001C0880FCA9589
:10317000EAF70E942A07183048F481E09D2F9770E3
:1031800001C0880F9A95EAF70E943507802F0E94A8
:103190006218183098F4D77081E001C0880FDA9572
:1031A000EAF7DF91CF911F910F910C942A07C77016
:1031B00081E001C0880FCA95EAF7F3CFDF91CF9184
:1031C0001F910F910895AF92BF92CF92DF92EF922D
:1031D000FF920F931F93CF93DF93EC018AE0A82E09
:1031E0002881222309F48CC02130C9F599818A8174
:1031F000913021F422960E94621805C0923029F481
:1032000022960E9450172196EBCF933021F42296FC
:103210000E947B09F8CF943011F02196F4CF2296CA
:1032200030E020E0AE014F5F5F4F8053990B8A3052
:10323000910550F02150310930F38FE99FE001975B
:10324000F1F700C00000F6CFA29EB001A39E700D62
:1032500011249C01260F371F8981EA01E3CFE22F59
:10326000F0E0E154FE4FB490822F869586958695C6
:1032700090E0FC01E155FE4FE4902770F12C022E06
:1032800002C0F594E7940A94E2F731E0E322FF24C8
:10329000FC01E156FE4FC490D12C022E02C0D59401
:1032A000C7940A94E2F731E0C322DD24FC01E15720
:1032B000FE4F049110E002C0159507952A95E2F79C
:1032C00001701127E114F10419F081EE0E945017EA
:1032D000C114D10419F086EE0E9450178B2D0E9464
:1032E0006218CD2819F086EE0E947B09EF2819F0AC
:1032F00081EE0E947B09012B09F485CF8CE27BCF04
:10330000DF91CF911F910F91FF90EF90DF90CF90C1
:10331000BF90AF900895CF92DF92EF92FF926B0132
:103320007C010E948307B701A60188E090E0FF902E
:10333000EF90DF90CF900C94D130AF92BF92CF92AC
:10334000DF92EF92FF920F931F93CF93DF9300D002
:103350000F92CDB7DEB7182FF62E042FE22E9091E4
:10336000F70290FF3AC0E92FE695AE2FB0E0A05CDF
:10337000BE4F8C918093D5029E7F9230E1F59E01E5
:103380002F5F3F4F812F0E9492074B8169818A8175
:103390000E94E00E8091F802811308C08091F9022A
:1033A0008F1104C08091FA02801729F08091D70212
:1033B00082608093D7021093F802F092F902009392
:1033C000FA02EE2051F06091F7027091F8028091BC
:1033D000F9029091FA020E948B190F900F900F90B2
:1033E000DF91CF911F910F91FF90EF90DF90CF90E1
:1033F000BF90AF900895823019F40091FA02CACFBD
:10340000863019F41091F802C5CF8930D9F389318B
:1034100009F6E9518E2F8170D82EE695F0E0E15C37
:10342000FC4FA590B490C12CBB2460911A01C61624
:1034300018F00E946B0CAECF2C2D30E0A29EC00184
:10344000A39E900DB29E900D112470E00E94EE2F6D
:10345000812FD11013C0860F40911801420F532FB6
:10346000511D9A01220F331F240F351F26523E4F44
:10347000402F6F2D0E949207C394D7CF861BECCFAD
:10348000E7EFF2E0438121E1421B08F440E021E054
:10349000628181810C949D19E7EFF2E0438121E183
:1034A000420F08F44FEF21E0628181810C949D1955
:1034B000E7EFF2E0628121E1621B08F460E021E0C5
:1034C000438181810C949D19E7EFF2E0628121E153
:1034D000620F08F46FEF21E0438181810C949D1904
:1034E000E7EFF2E0818121E04381628188500C9412
:1034F0009D19E7EFF2E0818121E043816281885FDD
:103500000C949D198091FB02882319F081508093BF
:10351000FB026091F7027091F8028091F90290919C
:10352000FA020C948B198091FB02833018F48F5FA0
:103530008093FB026091F7027091F8028091F9028A
:103540009091FA020C948B19E7EFF2E083E080830C
:1035500011828FEF828383831482A5EDB2E01296ED
:103560008C911297836012968C9360817181828115
:1035700093810C948B198F929F92AF92BF92CF92AE
:10358000DF92EF92FF920F931F93CF93DF9300D0C0
:1035900000D000D0CDB7DEB706EA11E088EBC82E28
:1035A00082E0D82E4601F12CAA24A394B12CD80194
:1035B0008D918D01F894E82FE295EF70F0E021A154
:1035C0008F70A50102C0440F551F8A95E2F7CA010A
:1035D000922F982B91A392A18095892382A378940E
:1035E00000C0E2EBF1E030E020E0E12C4191A42FBB
:1035F000A295AF70B0E090968C9190E04F7002C0B1
:10360000959587954A95E2F780FD48C08A2D022E50
:1036100001C0880F0A94EAF7E82A2F5F3F4F26304F
:10362000310521F7F801319780810E94890B50EA1A
:103630005A95F1F7D4018C91E81691F1EC9281E062
:10364000F82ABFEF8B1A9B0AE1E00C3A1E0709F03B
:10365000AECF1091C502FF2029F181E08093D40103
:103660000E9444069093D3018093D2018091D201AD
:103670009091D3010E9429060697C0F0E12FF0E057
:10368000E450FD4FD6018D916D018193BEEBCB16B9
:10369000B2E0DB06B9F71092D40108C080E0BCCFDD
:1036A00080E0CECF8091D4018111E0CF0E948D0FB8
:1036B000E82E6091C502882309F458C08E010F5F7F
:1036C0001F4F86E0F80111928A95E9F7862F90E066
:1036D000B80184509D4F0E94C82D81112AC080914D
:1036E000D5018F5F8093D5018630F0F1E091C4025F
:1036F000F0E0E450FD4F90E080E0119201968630BA
:103700009105D9F7F11001C0FE2C8F2D26960FB62A
:10371000F894DEBF0FBECDBFDF91CF911F910F9107
:10372000FF90EF90DF90CF90BF90AF909F908F90E1
:1037300008951092D501A091C402B0E0A450BD4FED
:103740009E01295F3F4FE12C4D91F80191918F012E
:10375000491731F0AD0141505109FA019083E82E2B
:103760002017310789F7CECFE12CCCCF70E0645021
:103770007D4F8091C40290E084509D4F0E94F32DB4
:10378000C1CF1F920F920FB60F9211242F933F9328
:103790004F935F936F937F938F939F93AF93BF9359
:1037A000CF93DF93EF93FF93D091E900DF70809187
:1037B000EC00C82FC17080FDC0E81092E900809134
:1037C000F000877F8093F00078940E948D12109211
:1037D000E9008091F00088608093F000CD2BCF70DD
:1037E000C093E900FF91EF91DF91CF91BF91AF912D
:1037F0009F918F917F916F915F914F913F912F9109
:103800000F900FBE0F901F9018951F920F920FB63A
:103810000F9211242F933F934F935F936F937F9356
:103820008F939F93AF93BF93EF93FF938091E100AA
:1038300082FF09C08091E20082FF05C08091E10013
:103840008B7F8093E1008091DA0080FF24C080911B
:10385000D80080FF20C08091DA008E7F8093DA004C
:103860008091D90080FF9BC080E189BD82E189BD44
:1038700009B400FEFDCF81E08093220380910C0308
:10388000811109C00E9460040E9453058091E200EA
:1038900084608093E2008091E10080FF17C08091F6
:1038A000E20080FF13C08091E2008E7F8093E200EF
:1038B0008091E20080618093E2008091D800806274
:1038C0008093D80019BC85E0809322038091E100A9
:1038D00084FF29C08091E20084FF25C080E189BD7A
:1038E00082E189BD89B5982F917080FFFBCF8091CF
:1038F000D8008F7D8093D8008091E1008F7E8093E7
:10390000E1008091E2008F7E8093E2008091E200EE
:1039100081608093E20080911903882309F445C0F7
:1039200084E0809322038091E10083FF27C080918F
:10393000E20083FF23C08091E100877F8093E10054
:1039400082E080932203109219038091E1008E7F20
:103950008093E1008091E2008E7F8093E20080916D
:10396000E20080618093E20042E060E080E00E943B
:1039700021058091F00088608093F000FF91EF9125
:10398000BF91AF919F918F917F916F915F914F9177
:103990003F912F910F900FBE0F901F90189519BC5B
:1039A0001092220310920C0376CF8091E30087FDE2
:1039B00093E090932203B7CF0F931F930E948D0F34
:1039C000882321F01F910F910C9438060E9438062D
:1039D0000091B4021091B5022091B6023091B70265
:1039E000600F711F821F931F1F910F9108950E94F6
:1039F0008D0F81110C9444060E94DC1CCB010895AC
:103A00006091F702669570E04BE050E084E091E051
:103A10000E949730892B19F481E08093D6020E948E
:103A2000F71C9093D0028093CF028091D7028460DC
:103A30008093D70208959091F70290FF3BC0917058
:103A400081112EC092609093F7028091D70281601D
:103A50008093D702662351F06091F7027091F802CB
:103A60008091F9029091FA020E948B196091F702FD
:103A7000669570E04BE050E084E091E00E94973062
:103A8000892BA9F00E947C0781E08093D20220E07C
:103A90004091FA026091F9028091F8020C949D190C
:103AA0008B3210F09465CFCF880F982BCCCF0E942B
:103AB000001DEACF08958091F7028695815009F4A0
:103AC0008AE261E00C941B1D8091F70286958F5F5E
:103AD0008B3208F081E061E00C941B1D9091F7029D
:103AE00090FF07C09695981720F0961710F40C9445
:103AF000641D61E00C941B1D4F925F926F927F9248
:103B00008F929F92AF92BF92CF92DF92EF92FF92ED
:103B10000F931F93CF93DF9300D000D00F92CDB7B8
:103B2000DEB77C01FC0183819481892B31F0808197
:103B3000918189238F3F09F031C50F900F900F902D
:103B40000F900F90DF91CF911F910F91FF90EF9009
:103B5000DF90CF90BF90AF909F908F907F906F90AD
:103B60005F904F9008950E948311182F682F8981CC
:103B70009A810E94D20669817A81812F0E94E60F84
:103B80008C01F7019281992309F4FDC49801225117
:103B90003F452031310508F0CFC48FEF93E00E94FC
:103BA000AB304EEED42ED00E06E612E08823D1F0D4
:103BB0008091A702877009F4C0CFF7018281882322
:103BC00009F4BBCF82E00E94B508B7CF0115F4E03D
:103BD0001F0771F3C8010E94AB30811101C0DA9454
:103BE0000F5F1F4FD110F2CF19821A821B821C82E5
:103BF000CC24CA9448012FEF821A920AC8010E946D
:103C0000AB3089831A82882399F2813009F047C04A
:103C1000580132E0A30EB11CC4010E94AB30982EB3
:103C20008A83882329F2C5010E94AB30D82E8FEFFA
:103C3000890D833068F4580143E0A40EB11CDB8287
:103C4000DD2021F0CE0101960E94E3188501D2CF3C
:103C500054E09512FBCF580184E0A80EB11CC801B6
:103C600003960E94AB30DD2009F4A2CF882309F42B
:103C70009FCF8150990BC89E9001C99E300D112491
:103C8000ED2DE150FF0BCF01820F931F0197F0F252
:103C9000EFE9FFE03197F1F700C00000F7CFCE0168
:103CA00001960E94E3185401D1CF81E00E94CD0813
:103CB0000E9476087DCF81E00E949208F9CF82E0D1
:103CC000F5CF053FECE51E0709F45EC008F458C0C7
:103CD000063F2CE5120709F45BC0992309F46FC471
:103CE0001092250302303CE5130708F431C1063178
:103CF0004CE5140738F098012A5F3C45293031051E
:103D000008F026C10E94A90F9093C7028093C602B3
:103D100000315CE5150709F4EAC008F078C0083006
:103D20009CE5190709F4D9C008F047C00430FCE548
:103D30001F0709F4C6C098F502303CE5130709F4E3
:103D4000BAC08091C602826003301C4509F4B6C037
:103D50006091C6021091C70284E090E00E94BF30DB
:103D6000612F81E290E00E94BF300E94821220CF3A
:103D700027E245EE65EE03C426E241EE60EEFFC3A6
:103D800027E245EE64EEFBC326E241EE62EEF7C3A6
:103D900027E245EE66EEF3C328E241E0EBCF8091E7
:103DA000C602806106305CE5150709F487C008F497
:103DB0008CC08091C602806281C08091C6028D7FD6
:103DC0000C309CE5190709F479C070F48091C602A3
:103DD0008C600A30FCE51F0709F470C008F481C04C
:103DE0008091C6028E7F6AC08091C602877F0E30A6
:103DF0003CE5130709F462C08091C6028B7F0F3047
:103E00001C4508F45BC08091C6028F7E57C00B3FF3
:103E10005CE5150709F45DC030F503319CE5190731
:103E200009F46DC078F40131FCE51F0709F463C0A3
:103E300002311C4509F08CCF0E9482128091C6028B
:103E40008F773CC005313CE5130709F460C008F4E6
:103E500074C08091C70281600A3F1C4509F078CF89
:103E60008093C70275CF0F3F8CE5180709F44BC04C
:103E700088F48091C7028D7F0D3FECE51E0781F32A
:103E80008091C7028E7F0E3F1C4550F38091C70280
:103E90008360E6CF01302DE5120709F457C008F41E
:103EA00042C060E002301D4509F052CF8EE090E044
:103EB0000E94BF304DCF8091C60281608093C602C0
:103EC00047CF8091C6028460F9CF8091C602886096
:103ED000F5CF8091C7028260C3CF8091C602806413
:103EE000EDCF0E9482128091C6028068E7CF809158
:103EF000C6028F7DE3CF8091C6028F7BDFCF80919A
:103F0000C602837FDBCF8091C7028C7FA9CF8091CF
:103F1000C60282FB992790F921E0922790FB82F953
:103F200090FB83F9CBCF8091C702982F9095917029
:103F30008E7F892B90FB81F993CF0E948212909102
:103F4000C602892F97FB87F98058B8CF61E0AECFC2
:103F500006315CE5150709F03FC38091AA028A7A11
:103F600091E009F490E090933E02811106C089E24D
:103F70000E9490060E9456061BCE85E3F9CF85E38A
:103F800028C38091F70280FF20C08E7F8093F702C4
:103F90006091F7027091F8028091F9029091FA0213
:103FA0000E948B190E947C078091D70281608093C8
:103FB000D7028FEF90E7E2E081509040E040E1F7D8
:103FC00000C000000E946B0CF3CD81608093F7026B
:103FD00061E086950E941B1DEBCD4BE55DE164E63B
:103FE0007DE10E947707E4CD44E65DE16BE57DE18C
:103FF000F8CF40E75AE169E77AE1F3CF49E75AE1C0
:1040000060E77AE1EECF48E55AE164E67AE1E9CF8C
:1040100044E65AE168E57AE1E4CF40E45AE16CE431
:104020007AE1DFCF4CE45AE160E47AE1DACF42E8AA
:104030005AE163E97AE1D5CF43E95AE162E87AE1EE
:10404000D0CF61E081E0C6CF65E082E00E946E1DC6
:10405000AFCD68E086E0FACF6EE089E0F7CF64E1AB
:104060008FE0F4CF67E185E1F1CF61E088E1B2CF85
:1040700062E289E1EBCF61E083E2ACCF0E94821281
:10408000FFEF24E33CE0F15020403040E1F700C076
:1040900000000E9418060E9454168ACDC8010E9492
:1040A000A906D82EB0C2212F2F70A22E107F19F092
:1040B000A29490EFA922DD20C9F0AA2069F080E245
:1040C000800F883010F081100BC08091AA02A82ABE
:1040D000A092AA020E945606802F0E94501718C074
:1040E0008091A902A82AA092A902F4CF802F0E9451
:1040F0007B09AA2069F0A094005E083010F08110BE
:1041000028C08091AA02A822A092AA020E94560664
:104110002B2D2850330B2430310510F40E946B07EF
:10412000CC2009F40ACD8091A70280FD06CDF701CD
:1041300012828595859585950E94CD08C7010E94BC
:104140007C1D8091A7028595859585950E94920892
:10415000F4CC8091A902A822A092A902D7CF312F36
:104160003F70932E107F103219F0929480EF9822B6
:10417000882071F041E0841661F1DD20B9F1AA20B8
:1041800071F1F701858180FFA7CF8F70858327C0EC
:10419000DD2091F09091AB02892D892BA11003C0F5
:1041A0000E943507B5CF51E0A512FACF981709F450
:1041B000AFCF8093AB02ACCFA11006C00E945006D7
:1041C000892D0E942A07A4CF81E0A81609F4A0CF68
:1041D000F5CFDD2031F095E09A1508F499CF892DBF
:1041E000DFCFE4E0EA1508F493CFEACFAA2041F349
:1041F000F9E38F1209C02FEF37EE43E02150304032
:104200004040E1F700C00000802F0E947B0980CF72
:10421000812F86958695837061F0813009F078CF83
:10422000C8019370D11002C090E080E00E943F0767
:104230006FCFC8019370D11002C090E080E00E945F
:10424000550766CF802FDD2039F00E945B0A0E945F
:1042500028080E9428085CCF0E94F808FACF812F16
:10426000837009F066C0D11053CF802F8295869558
:104270008770880F880F602F6F70462E512C712C1D
:10428000612C082E04C0440C551C661C771C0A9433
:10429000D2F740E050E0BA0104FF0FC04FE050E019
:1042A00060E070E004C0440F551F661F771F8A95B9
:1042B000D2F74095509560957095812F869586959B
:1042C0008370823019F1D8F40091AC021091AD02E4
:1042D0002091AE023091AF02813069F04429552916
:1042E00066297729CB01BA016023712382239323A6
:1042F0000E94EE080DCF402A512A622A732ACB0170
:10430000BA016429752986299729F2CF44295529AC
:10431000662977290091AC021091AD022091AE027E
:104320003091AF02CB01BA01602771278227932712
:10433000DFCF8695DD2011F0812F8170882309F46D
:10434000E7CE802F829586958770880F880F602F23
:104350006F70462E512C712C612C082E04C0440C19
:10436000551C661C771C0A94D2F740E050E0BA0155
:1043700004FF0FC04FE050E060E070E004C0440F65
:10438000551F661F771F8A95D2F740955095609507
:104390007095812F869586958370823019F1D8F4B7
:1043A00000912603109127032091280330912903BF
:1043B000813069F04429552966297729CB01BA0152
:1043C00060237123822393230E946C08A1CE402A8C
:1043D000512A622A732ACB01BA01642975298629D8
:1043E0009729F2CF44295529662977290091260378
:1043F000109127032091280330912903CB01BA01A2
:104400006027712782279327DFCF1F70DD2029F0D7
:10441000812F0E94CD08802FC3CE802F0E942A07B3
:10442000812F0E94920874CE802F52EF851609F4D6
:1044300050C0581578F090EF891619F1E1EF8E16FB
:1044400009F43FC0DD2009F467C0A11045CE812FDB
:104450008F713CC0F3EF8F1609F440C024EF821235
:10446000F1CFDD2009F44DC01F71812F0E94CD08CE
:1044700058E0159FC001112483608093A702812F0B
:1044800025C0DD20C9F034E03A1508F441CE1F7193
:1044900061E070E080E090E004C0660F771F881F45
:1044A000991F1A95D2F700912603109127032091A6
:1044B000280330912903A4CF45E04A1508F428CEFB
:1044C000E6CF812F8F71DD2009F4ABCF0E94CD089C
:1044D0001FCE812F8F71DD20C9F3A3CF60E070E084
:1044E000CB01DD2009F470CF1F7161E070E080E046
:1044F00090E004C0660F771F881F991F1A95D2F7A6
:1045000063CF81E00E94B50881E08A1508F000CEF3
:1045100082E00E94B508FCCDAA2059F0893309F049
:1045200073CE9FEFE7EEF3E09150E040F040E1F70B
:1045300069CE812F8F7175CF0031FFE51F0709F418
:10454000B4CB01312FE5120709F4B9CB033F2CE5B9
:10455000120709F411CC08F0B4CB083D4CE5140760
:1045600009F406CC093D5CE5150709F415CC073DB7
:104570008CE5180709F0B1CB26E241EE61EEC701E8
:104580000E947F1815CB00313FE5130709F493CB48
:1045900001314FE51407D1F682E08ECB85E0DE01D4
:1045A000119601900D928A95E1F7F7012281898198
:1045B0009A812111D8CA0E94A906182FDCCA063197
:1045C000FCE51F0709F052C080913E028111D7CC53
:1045D00089E20E948306CECC01152CE5120709F46E
:1045E0004DCD0E3D1C4509F456CDF70100811181DA
:1045F000992309F453CDC8010E948311D82E682F46
:10460000C8010E94D206B8018D2D0E94F90F8C01BD
:10461000882EF701D280A580A2943FE0A32280914A
:10462000A7028770A1F0CD2CDD2091F0812F807F33
:10463000803421F080E2800F883048F082E00E94D0
:10464000B5088091A7028770CC24C3948111C12C36
:10465000B12EB2942FE0B222FBE0FB1508F458CD46
:10466000EB2DF0E0E059FE4C0C9416308091AA023C
:104670008272F801E25CFC45E431F10508F0B5CF47
:10468000E458FE4C0C9416301F93CF93DF93809127
:104690004702807FA9F480914402882389F08091A9
:1046A0007902D09148026091420270914302A09138
:1046B0004502B0914602C62FC72316E0D81304C0A6
:1046C000DF91CF911F91089590E0109711F0CF3FA7
:1046D00019F401968770F2CF189F9001199F300D41
:1046E0001124F901E75BFD4F41814713F2CF40816F
:1046F0004613EFCF42814111ECCF438154814A1BD5
:104700005B0B483C510528F7809147028F70806110
:1047100080934702F901E25BFD4F80818F708061D9
:10472000808382E492E00E947C1DDF91CF911F91F3
:104730000C9420078F929F92AF92BF92CF92DF92FC
:10474000EF92FF920F931F93CF93DF93CDB7DEB716
:1047500061970FB6F894DEBF0FBECDBF8C0185E028
:10476000F801DE011D9601900D928A95E1F7D801BE
:10477000EC901196DC9011971296CC90129782E4EF
:10478000882E82E0982E40914502509146024115B4
:10479000510509F443C19091420220914302892FAF
:1047A00082238F3F09F43AC11396AD90BC901497C1
:1047B000F0904402F501E41BF50BFF2009F4FFC063
:1047C00080914702382F307FE83CF10508F0C8C0DF
:1047D000311185C0FC2C2D1124C09E1122C0C110A6
:1047E00020C08F70806180934702C4010E947C1DAD
:1047F00080914702D80115968C938F2D61960FB644
:10480000F894DEBF0FBECDBFDF91CF911F910F9106
:10481000FF90EF90DF90CF90BF90AF909F908F90E0
:104820000895A114B10429F08E2D8D218F3F09F038
:1048300016C180E080FF14C04C2D6D2D8E2D0E947E
:104840000007882369F082E492E00E947C1D86E0E4
:10485000E2E4F2E0DF011D928A95E9F7F12CCDCF79
:10486000AB2829F08E2D8D218F3F09F0F5C080E017
:10487000B82FB170AB2E80FF29C04C2D6D2D8E2D21
:104880000E940007B82E811121C0ED86DE868D853D
:104890009E850E94C511292F22952F70223050F03D
:1048A000243078F49F7051F0F8019581907F31F4B5
:1048B000FB2CA3CF9F7011F08823D1F3805E88304A
:1048C000B8F3C8010E947C1DBA2CF2CFCC2009F4A9
:1048D00094CF80914702816080934702BFCF2D1112
:1048E00012C09E1110C0C1100EC015968C93C80145
:1048F0000E947C1D86E0F801A2E4B2E001900D92D6
:104900008A95E1F77ACFED86DE868D859E850E94B9
:10491000CF11882309F1CC20F9F080914702803231
:1049200070F0209142023091430238872F8319861C
:10493000BB86AA868C87CE0107960E947C1D86E0E6
:10494000F801A2E4B2E001900D928A95E1F70E948D
:104950004423FF24F39451CFC8010E947C1DF9CF5A
:10496000332309F470CF2D110FC09E110DC0C1105B
:104970000BC0F8018583C8010E947C1D86E0D4012C
:104980001D928A95E9F739CFED86DE868D859E8565
:104990000E94CF11882301F3CC20F1F280914702CD
:1049A000803268F220914202309143023A83298397
:1049B0001B82BD82AC828E83CE010196BECFE83CC5
:1049C000F105E0F6FC2CCC2039F22D1116C09E1119
:1049D00014C08091470280FD8DCF982F907F09F4FD
:1049E00089CFF8018583903F09F481CF982F907F7C
:1049F000905F8F70892B85837ACFED86DE868D85DB
:104A00009E850E94CF1181119ACF809147028160CB
:104A100080934702C8010E947C1DEFCECC2009F490
:104A20009BCFED86DE868D859E850E94CF11F82E68
:104A3000882309F491CF86E0F801A2E4B2E0019066
:104A40000D928A95E1F780914202909143020E9473
:104A5000C5110E944423D1CE81E08C2509CF81E08D
:104A60008C25E8CE1F93CF93DF93CDB7DEB7679742
:104A70000FB6F894DEBF0FBECDBF342F4B8B252F62
:104A80005C8B6D8B7E8B8F8B8E899F8961111092D1
:104A9000A9021A8A198A3D872E876F87998B888B7E
:104AA00086E0FE013D96DE01179601900D928A95F3
:104AB000E1F7CE0107960E949A23882389F016E039
:104AC0008091790290914802891349C067960FB688
:104AD000F894DEBF0FBECDBFDF91CF911F91089537
:104AE00086E0FE013796DE01119601900D928A95BF
:104AF000E1F78A859B85892B11F38F81988589231E
:104B00008F3FE9F22091480230E0C9010196877099
:104B10009927409179024817190671F40E94821270
:104B2000109248021092790286E0E2E4F2E0DF019E
:104B30001D928A95E9F7C3CF96E0929FD001939F8B
:104B4000B00D1124A75BBD4FFE01319601900D926F
:104B50009A95E1F7809348020E942007B0CF819F89
:104B6000C0011124875B9D4F0E949A23882309F47A
:104B7000ADCF8091790290E001968770992780935C
:104B800079029ECFCDB7DEB7E2970FB6F894DEBFBD
:104B90000FBECDBF84B7877F84BF0FB6F894A895AA
:104BA00080916000886180936000109260000FBE69
:104BB00080E890E00FB6F8948093610090936100D4
:104BC0000FBE85B7806885BF85B7806885BF83E1E4
:104BD00096E09093C9018093C8010E9460040E94EE
:104BE00053058091E20084608093E2007894809184
:104BF00022038823A1F01091E9001F709091EC002E
:104C0000892F817090FD80E8182B1092E900809127
:104C1000E80083FD0E948D121F701093E90082E06E
:104C200084BD93E095BD9AEF97BD80936E0010927E
:104C3000B4021092B5021092B6021092B7028EE042
:104C400090E00E94AB3091E0811101C090E0909320
:104C50001B0180911B01882309F46AC01092160180
:104C600086E0809317010E948D0F81110E949F2D75
:104C700080911B0180911B0196E0811190E090933F
:104C8000C50286E0891B8093C40286EF0E94890BCF
:104C900087EF0E94890B81E30E94890B83E30E94C6
:104CA000890B82E30E94890B86E30E94890B84E9C9
:104CB0000E94890B86E60E94890B87E90E94890B76
:104CC00086EC0E94890B84E30E94890B85E30E9495
:104CD000890BE8EBF2E0ACEFB2E011921D9222E01A
:104CE000E43CF207D1F70E94BB1A8FE39CE90197DD
:104CF000F1F700C000000E94BB1A8091FC0280FF07
:104D00001BC06FEF82E290E00E94BF306FEF83E242
:104D100090E00E94BF306FEF84E290E00E94BF30CD
:104D20006FEF7FEF90E080E00E94DD300E94180678
:104D300086E08093160195CF90E080E00E94B93024
:104D40008B3E9E4F11F00E9454160E948D0F8111D0
:104D500002C00E94A52D82E290E00E94AB30803B11
:104D600009F012C683E290E00E94AB30863309F06E
:104D70000BC684E290E00E94AB30843709F004C691
:104D800090E080E00E94B9308B3E9E4F11F00E946F
:104D9000541682E090E00E94AB308093E6020E94BD
:104DA000A90F9093C7028093C60283E090E00E940F
:104DB000AB30682F70E090E080E00E94EE088091B8
:104DC000C80281113BC090E080E00E94B9308B3E68
:104DD0009E4F21F00E9454160E94A41A88E090E091
:104DE0000E94B3306093F7027093F8028093F90247
:104DF0009093FA028091D70283608093D7026E7FEE
:104E000071F40E94A41A88E090E00E94B33060938D
:104E1000F7027093F8028093F9029093FA020E94CD
:104E200083070E947C078091F70280FF04C060E046
:104E300086950E941B1D81E08093C8028DE191E060
:104E40009093CA028093C90228E1422E512C30E48B
:104E5000232E8CEF92E04CE0342E380E809122030A
:104E600000E112E1853009F4A7C10E94BB1A81114B
:104E70000E943806A7EEB2E0ECEFF2E010E000E0AE
:104E8000C02EF1908D918F1509F4A5C18F25D12CDD
:104E9000EE24E394982F9E2109F498C10E948D0F6F
:104EA000882399F0D9A6CAA6FE2081E009F480E003
:104EB0008BA70E9444068160782F9DA78CA749A5E7
:104EC0005AA56BA58DA50E943225F801E951FD4F29
:104ED0008081E826E0828091D602882309F464C0AC
:104EE0008091D502E091F702E695E81BE093D102AC
:104EF000823009F087C1F0E0EB5FF94FE4910E2FAB
:104F000010E092E5E92E9FE0F92E8091D2028823ED
:104F100061F01092D2020E94F71C9093D00280930D
:104F2000CF021092D4021092D3020E94F71CE0919B
:104F3000CF02F091D0029C012E1B3F0B2F3F3F4729
:104F400098F52091CE022223B1F01092CE0220914A
:104F5000CC023091CD02821B930B8F3F9F4758F4B8
:104F6000205D3A483093CD022093CC028091D70245
:104F700088608093D702C090D302D090D402E00F13
:104F8000F11FF093D002E093CF028FEC92E0F70193
:104F900009958091D3029091D402892B29F4CD28D0
:104FA00019F081E08093CE0286E0EFEDF2E0DE01C1
:104FB000119601900D928A95E1F7E090E102F09050
:104FC000E2021091E3020091E4021092E1021092D9
:104FD000E2021092E3021092E4028E2D8F2991F0EA
:104FE0008091DD029091DE020E942906AC01909131
:104FF000DC02992309F472C180911C018417150603
:1050000008F47AC1812F802B09F448C08091D9021D
:105010009091DA020E9429069C019091D80299236E
:1050200009F4D4C425363105C8F19F3F19F09F5FBC
:105030009093D802112359F00E94D8099FEF1116BE
:105040000CF491E0899F802D11248093E3020023CA
:1050500059F00E94D8099FEF10160CF491E0899F37
:10506000802D11248093E4023091E3023323B1F0C8
:105070002091E402222391F045EB3403C001112476
:10508000992309F478C19093E30245EB240390013E
:105090001124332309F473C13093E4028091E102B7
:1050A0009091E202892B9091E302892B9091E40286
:1050B000892B11F00E94280886E0FE013196AFEDA1
:1050C000B2E001900D928A95E1F70E946B079091F2
:1050D000E502891721F00E946B078093E502809119
:1050E0002203843009F0BACE83E08093E9008091F6
:1050F000E80082FFB3CE8091E80090E085FF06C013
:105100000E947F04882309F43EC191E08091E80069
:105110008B778093E800992309F4A0CE00910A03CD
:1051200010910B0389810115110509F448C18E3FC7
:1051300009F0D8C18A81833020F08550833008F08F
:10514000D1C1EA81E93008F0CDC1F0E0E057FE4C72
:105150000C94163080912203843009F11092CB0216
:105160000FB6F894A895409260000FBE20926000A0
:1051700083B7817F846083BF83B7816083BF789466
:10518000889583B78E7F83BF0FB6F894A8958091DA
:105190006000886180936000109260000FBE809173
:1051A0001803882349F00E94BB1AECEFF2E08191CA
:1051B0008111D4C33E12FBCF80912203853009F4C4
:1051C000C9CF0E9482120E946B074FCED394EE0C7F
:1051D00036E0D3125FCE0F5F1F4F0C30110509F080
:1051E0004FCE8FEF8EA78FA718AA0E94440681602A
:1051F000782F9AAB89AB4EA55FA568A98AA90E94B2
:10520000322569CE863059F4F0E0EE5FF94FE49133
:105210000E2F10E086E6E82E8FE0F82E76CE89304D
:1052200061F4E695F0E0E150FA4FE4910E2F10E0C2
:10523000B6EBEB2EBCE0FB2E68CE8F3061F4E6952A
:10524000F0E0E450FA4FE4910E2F10E0A3EFEA2EC5
:10525000ACE0FA2E5ACE853159F4F0E0E750FA4F1F
:10526000E4910E2F10E0FCE8EF2EFDE0FF2E4DCE76
:1052700008E210E063E1E62E6EE0F62E883109F4D4
:1052800044CE833249F4E7EFF5E005911491E9EF5C
:10529000EE2EEEE0FE2E39CE04EF11E053EAE52EBD
:1052A0005EE0F52E843209F430CE00ED17E042E1E5
:1052B000E42E46E0F42E853209F027CE8E2F63E0EF
:1052C0000E94D42FE92FF0E0EC50FA4FE4910E2F1A
:1052D00010E076E7E72E75E1F72E17CE2091DB027E
:1052E000FAE02F9F900111242417350708F08ACE89
:1052F0009F5F9093DC0202C09F3FD1F7EE2059F0F0
:105300000E94110A9FEF1E140CF491E0899F802DDA
:1053100011248093E102FF2059F00E94110A9FEFAF
:105320001F140CF491E0899F802D11248093E202D8
:105330003091E102332309F465CE2091E202222369
:1053400009F460CE45EB3403C0011124992359F0D0
:105350009093E10245EB240390011124332339F0AB
:105360003093E2024FCE81E08093E102F3CF81E0FF
:105370008093E20247CE81E08093E30286CE81E013
:105380008093E4028BCE00E210E0CE0101967C0116
:105390008091E80085FD0AC08091E8008B778093BA
:1053A000E8000E947F04882399F3AFCE8091F1003A
:1053B000F70181937F010150110951F7A6CE8B307F
:1053C00009F4FAC198F5853009F4B2C0D0F48230FE
:1053D00009F477C030F4813009F46FC08FEF89830E
:1053E00081C0833009F495C08430C1F74C816B8152
:1053F0008A810E94B70F9827892798279E838D83DB
:1054000071C0873009F4A2C008F49DC0883009F447
:10541000CFC0893019F76091F7027091F80280913E
:10542000F9029091FA020E948B195CC0803109F454
:1054300012C1B8F58D3009F4DFC008F4DAC08E303F
:1054400009F4DEC08F3051F6809108039091090372
:10545000892B09F447C08C81C82ED12C2DE1C216AE
:10546000D10408F03FC00A811B81102701271027B3
:10547000CE0101967C01C80ED91EC8018A599D4FE4
:10548000EC14FD0479F10A39F1E01F0720F4F7016B
:1054900064810E94BF30FFEFEF1AFF0A0F5F1F4FBA
:1054A000ECCF823109F4DCC008F4D8C0833109F4B0
:1054B00000C18E3F09F092CF44CE1A8289E08B83DF
:1054C00011C08A81823009F478C2833081F0813042
:1054D00009F084CF0E9438060E941C306B837C83C5
:1054E0008D839E83CE0101960E94DA04B7CC809111
:1054F000080390910903892BA9F3DE01139688E034
:1055000093E0ECEFF2E021912D938E179F07D9F7EE
:10551000E9CF8A81823009F061CF6B817C818D81F6
:105520009E810E941C3085E290E00E94BF30DACF5D
:105530002D813E813227232732274C816B818A813E
:105540000E940312CFCF0E943812CCCF8A818138BB
:10555000B9F058F4803831F620E04B816091F902BF
:105560008091F8020E949D19BDCF8238E9F08338FE
:1055700009F0B8CF20E04091FA026C818B81F2CF24
:1055800060E08B810E941B1D8B81811103C00E94F2
:10559000760FA8CF8091F70281608093F70260E0D8
:1055A00086950E941B1D9ECF8B818093FB029ACF14
:1055B0008A81813899F030F4803809F093CF809156
:1055C000FA027DCF823891F0833809F08BCF809139
:1055D000F8028B838091F9028C8384CF8091F7024B
:1055E00080FF02C086956BCF80E069CF8091FB027F
:1055F00066CF80E18A8376CF81E08A838AE95FCFB4
:105600008C81C82ED12CFDE1CF16D10408F06ACFD1
:105610000A811B811027012710279E012F5F3F4F12
:105620007901C20ED31EC8018A599D4FCE14DF04E2
:1056300009F458CF0A39E1E01E0750F40E94AB305C
:10564000F70184830F5F1F4FFFEFEF1AFF0AEBCFC5
:10565000F7011482F7CF0E94F31144CF84E0CACF40
:105660008C81C82ED12C2DE1C216D10408F03ACF7E
:105670000A811B81102701271027CE0101967C018A
:10568000C80ED91EC8018696CE14DF0409F42ACFAD
:105690000034F2E01F0750F40E94AB30F70184831E
:1056A0000F5F1F4FFFEFEF1AFF0AECCFF7011482D5
:1056B000F7CFEC80F12C2DE1E216F10408F012CFC7
:1056C0000A811B81102701271027003432E01307BD
:1056D00008F008CF80E492E0801B910B8E159F05A7
:1056E00008F400CF480146E2840E911C8091080323
:1056F00090910903892BD1F5680181E0C822DD244E
:1057000000FF0DC0C80185960E94AB309D8189279E
:105710009827892781159C4511F48FEF8D83C80147
:105720008E0D9F1D570180FF17C0F1E0AF1AB10821
:1057300035E0632E712C6C0E7D1E6A0C7B1CC4013F
:105740008E0D9F1D0E94AB30F301908181159C4509
:1057500019F48FEFF3018083E1E0F0E0EC0FFD1F1F
:10576000EC0DFD1D2FEFCA14DB0438F09E012F5FF6
:105770003F4F6901E20EF31E19C0948185818115A6
:105780009C4511F42483258342E0C40ED11C32963B
:10579000EACF0034E2E01E0720F4F60164810E94A3
:1057A000BF30FFEFCF1ADF0A0F5F1F4FC801869689
:1057B000EC14FD0471F796CE8091080390910903D3
:1057C000892B09F48FCECE0101960E94DA049FEF57
:1057D000E1EEF4E09150E040F040E1F700C000005D
:1057E000A5CA88E0E8E3F1E0DE01919601900D9210
:1057F0008A95E1F783E089831A821B821C8288E004
:10580000FE01B196DE01159601900D928A95E1F7A1
:1058100069CE88E5898381E08A831B821C8262CEFF
:105820008C81682F70E0762F66278B81860F972FEB
:10583000911D092E000CAA0BBB0B25E0880F991FA8
:10584000AA1FBB1F2A95D1F7AC01BD01405E5F4F77
:105850006F4F7F4F481759076A077B0708F442CEFE
:10586000883521E09207A105B10508F03BCE493506
:1058700031E053076105710520F048E551E060E033
:1058800070E0481B590BBC01675F794FCE01019650
:105890000E948E3027CE4AE150E06FEF70E0CE01DB
:1058A00007960E94A4308091080389830A831B8293
:1058B0001C821D821E8216CE81E090E090930B0325
:1058C00080930A0382E390E09093F6028093F502BE
:1058D0000E9444069093F4028093F30203CE012BBE
:1058E00041F11091FC028091F3029091F4020E9428
:1058F00029068536910530F110FF24C00E94440628
:105900009093F4028093F3028091F5029091F60255
:1059100001979093F6028093F502892B51F410922F
:105920000B0310920A0381E090E0909309038093A7
:10593000080380910803898380910A038A838091F8
:10594000F502BDCD82E390E09093F6028093F502DC
:10595000F0CF1092090310920803C4CD09BD19BD00
:1059600009B400FEFDCF8091D8008F7D8093D800D0
:105970008091E00082608093E0008091E00081FDF2
:10598000FCCF0E94821218CC60E085E290E00E9479
:10599000BF300E9438120E94F31160EB82E290E067
:1059A0000E94BF3066E383E290E00E94BF3064E76C
:1059B00084E290E00E94BF30E3C985E290E00E945B
:1059C000AB301B821C821D828E838CCD232B09F071
:1059D0002ECB64CBCF92DF92EF92FF926B017C01D2
:1059E0000E948D0F81110EC00E943806C61AD70A78
:1059F000E80AF90AC092B402D092B502E092B60267
:105A0000F092B702FF90EF90DF90CF9008957894D6
:105A10001F921FB61F9211248F939F93AF93BF9332
:105A20008091B0029091B102A091B202B091B30204
:105A30000196A11DB11D8093B0029093B102A09375
:105A4000B202B093B302BF91AF919F918F911F901B
:105A50001FBE1F9018951F921FB61F9211248F937F
:105A60009F93AF93BF938091CB02811113C080911C
:105A7000B0029091B102A091B202B091B3024196EE
:105A8000A11DB11D8093B0029093B102A093B20208
:105A9000B093B302BF91AF919F918F911F901FBEA2
:105AA0001F9018951F93CF93DF93EC01162F8F81D2
:105AB00080FF0BC0888180FF23C09091F702916026
:105AC0009093F70286950E941B1D8F8181FF06C06F
:105AD000212F4B816A8189810E949D198F8182FFCC
