:100000000C947F080C9422160C94C6080C94C60815
:100010000C94C6080C94C6080C94C6080C94C60828
:100020000C94C6080C94C6080C94D3320C94A533D7
:100030000C94BE240C94C6080C94C6080C94C608F4
:100040000C94C6080C94C6080C94C6080C94C608F8
:100050000C94C6080C9417250C94C6080C94C6087A
:100060000C94C6080C94C6080C94C6080C94C608D8
:100070000C94C6080C94C6080C94C6080C94C608C8
:100080000C94C6080C94C6080C94C6080C94C608B8
:100090000C94C6080C94C6080C94C6080C94C608A8
:1000A0000C94C6080C94C6080C94C608F712FA12F1
:1000B000FF1206130B13101315131A131F13241317
:1000C00029132E133113311331133113311331131B
:1000D000311331134D1A4D1A7F1A7F1ACC1AEA1AAE
:1000E0000B1C0B1CF51A8A1B9B1B9B1BFB1B0B1C65
:1000F0000B1C041CAB1CAB1CBD1CBD1CB41CBD1CD0
:10010000BD1CBD1CAB1CAB1CB91CBD1CBD1CB91C53
:10011000123439343135393431358534A8343135F8
:10012000FF340E3525303258000100010001000176
:1001300000010001000100010001000100010001B7
:1001400000010001000100010001000100010001A7
:100150000001000100010001000100015101000146
:100160000001000100000000000100010001000189
:100170000000000000010001000100010001000179
:100180000001000100010001000100010001000167
:100190000001000100010001000100010001000157
:1001A0000001000100010001000100010001000147
:1001B00051010001000100010001000100010001E6
:1001C000000000000001000100010001000000002B
:1001D00000005C01000100010001000100005C0161
:1001E0000001000100010001000100C55CC75CC9FD
:1001F0005CCB5C01000100C65CC85CCA5CCC5C01E5
:1002000000010001000100010001000100000000E8
:1002100000010001000100C25C00000000010001BB
:100220000001000100005C0100010001000100016B
:1002300000005C010001000100010001000100C597
:100240005CC75CC95CCB5C01000100C65CC85CCAD1
:100250005CCC5C0100010001000100010001000113
:1002600000C25C010001000100000000000100016B
:1002700000010001000000000044454255473A20BB
:1002800064697361626C65642E0A00444542554797
:100290003A20656E61626C65642E0A000A002530A2
:1002A0003862003A200025303258000A722F63204D
:1002B00030313233343536370A007267626C696721
:1002C00068742073657420687376205B4E4F4545D3
:1002D00050524F4D5D3A2025752C25752C25750AF9
:1002E000007267626C696768742073657420687354
:1002F00076205B454550524F4D5D3A2025752C25A3
:10030000752C25750A007267626C696768742064D1
:10031000697361626C65205B4E4F454550524F4D8D
:100320005D3A207267626C696768745F636F6E66BE
:1003300069672E656E61626C65203D2025750A0037
:100340007267626C696768742064697361626C6566
:10035000205B454550524F4D5D3A207267626C6993
:100360006768745F636F6E6669672E656E61626C45
:1003700065203D2025750A007267626C69676874A4
:1003800020656E61626C65205B454550524F4D5D46
:100390003A207267626C696768745F636F6E666942
:1003A000672E656E61626C65203D2025750A0072BE
:1003B00067626C6967687420746F67676C65205B3F
:1003C000454550524F4D5D3A207267626C696768CF
:1003D000745F636F6E6669672E656E61626C65201F
:1003E0003D2025750A007267626C69676874206D2C
:1003F0006F6465205B4E4F454550524F4D5D3A202E
:1004000025750A007267626C69676874206D6F6495
:1004100065205B454550524F4D5D3A2025750A00D9
:100420007267626C696768745F696E69742072676D
:10043000626C696768745F636F6E6669672E6D6F63
:100440006465203D20302E205772697465206465F4
:100450006661756C742076616C75657320746F20AD
:10046000454550524F4D2E0A007267626C696768AD
:10047000745F696E6974206565636F6E6669672075
:100480006973206E6F7420656E61626C65642E0AFC
:10049000007267626C696768745F696E6974207363
:1004A00074617274210A007267626C696768745FB4
:1004B000696E69742063616C6C65642E0A007267F2
:1004C000626C696768745F636F6E6669672E7370CC
:1004D000656564203D2025640A007267626C696767
:1004E00068745F636F6E6669672E76616C203D206D
:1004F00025640A007267626C696768745F636F6E77
:100500006669672E736174203D2025640A00726756
:10051000626C696768745F636F6E6669672E687581
:1005200065203D2025640A007267686C69676874FD
:100530005F636F6E6669672E6D6F6465203D202571
:10054000640A007267626C696768745F636F6E66E5
:1005500069672E656E61626C65203D2025640A0026
:100560007267626C696768745F636F6E6669672043
:10057000454550524F4D3A0A000001010101010169
:10058000010101020202020202020202030303034A
:10059000030303030404040404040405050505051A
:1005A00006060606060707070707080808080909D8
:1005B00009090A0A0A0B0B0B0C0C0C0D0D0D0E0E83
:1005C0000E0F0F0F10101111111212131314141516
:1005D0001516161717181819191A1A1B1B1C1D1D8A
:1005E0001E1E1F20202122222324242526262728E0
:1005F00029292A2B2C2D2D2E2F3031323233343510
:10060000363738393A3B3C3D3E3F40414243444512
:10061000464748494A4C4D4E4F50515354555658F1
:10062000595A5B5D5E5F616264656668696B6C6D9B
:100630006F7072737577787A7B7D7E808283858711
:10064000888A8C8E8F91939596989A9C9EA0A2A34F
:10065000A5A7A9ABADAFB1B3B5B7BABCBEC0C2C454
:10066000C6C9CBCDCFD1D4D6D8DBDDDFE2E4E7E914
:10067000EBEEF0F3F5F8FAFDFF0A002530325820D2
:10068000006B6579626F6172645F7265706F72741E
:100690003A20000A0025303258006B6579626F619C
:1006A00072645F7365745F6C65643A2000290A00A8
:1006B0002575002F002575005D28002564002000A9
:1006C000256400200025640020002564007C0025AE
:1006D000303258006D6F7573656B6579205B62749D
:1006E0006E7C782079207620685D287265702F6195
:1006F000636C293A205B006D6B5F776865656C5FA2
:1007000074696D655F746F5F6D6178203D2025644D
:100710000A006D6B5F776865656C5F6D61785F730C
:1007200070656564203D2025640A006D6B5F746907
:100730006D655F746F5F6D6178203D2025640A00F0
:100740006D6B5F6D61785F7370656564203D20251A
:10075000640A006D6B5F696E74657276616C203D32
:100760002025640A006D6B5F64656C6179203D2013
:1007700025640A006D6B5F776865656C5F74696DF1
:10078000655F746F5F6D6178203D2025640A006DA0
:100790006B5F776865656C5F6D61785F73706565C9
:1007A00064203D2025640A006D6B5F74696D655F90
:1007B000746F5F6D6178203D2025640A006D6B5F6A
:1007C0006D61785F7370656564203D2025640A0063
:1007D0006D6B5F696E74657276616C203D20256477
:1007E0000A006D6B5F64656C6179203D2025640AA9
:1007F000000A00257500363A20776865656C5F74DD
:10080000696D655F746F5F6D61783A20000A00253D
:100810007500353A20776865656C5F6D61785F7348
:10082000706565643A20000A00257500343A20742A
:10083000696D655F746F5F6D61783A20000A00250D
:100840007500333A206D61785F73706565643A2096
:10085000000A00257500323A20696E74657276616F
:100860006C286D73293A20000A00257500313A2062
:1008700064656C6179282A31306D73293A20000A49
:10088000092D2056616C756573202D0A004D3E00C0
:100890004D25643E20003F007365742064656661E9
:1008A000756C740A00433E200077686572652064A9
:1008B000656C74613A20637572736F723D25642CA8
:1008C00020776865656C3D25640A5365652068740A
:1008D00074703A2F2F656E2E77696B697065646945
:1008E000612E6F72672F77696B692F4D6F75736516
:1008F0005F6B6579730A000A092D204D6F7573656A
:100900006B6579202D0A4553432F713A097175693A
:10091000740A313A0964656C6179282A31306D7343
:10092000290A323A09696E74657276616C286D73B2
:10093000290A333A096D61785F73706565640A341A
:100940003A0974696D655F746F5F6D61780A353A55
:1009500009776865656C5F6D61785F737065656464
:100960000A363A09776865656C5F74696D655F740E
:100970006F5F6D61780A0A703A097072696E74204F
:1009800076616C7565730A643A09736574206465F1
:100990006661756C74730A75703A092B310A646F5D
:1009A000776E3A092D310A706775703A092B31302C
:1009B0000A7067646F776E3A092D31300A0A7370D6
:1009C000656564203D2064656C7461202A206D613A
:1009D000785F7370656564202A2028726570656190
:1009E00074202F2074696D655F746F5F6D61782965
:1009F0000A003F004D3E2000433E20004C25640A83
:100A00000074696D65725F72656164333228293ADA
:100A1000202530346C580A006B6579626F6172640E
:100A20005F69646C653A2025580A006B6579626FCE
:100A30006172645F70726F746F636F6C3A202558D7
:100A40000A00686F73745F6B6579626F6172645FCF
:100A50006C65647328293A2025580A000A092D205C
:100A6000537461747573202D0A004743433A20354F
:100A70002E342E30204156522D4C4942433A2032DA
:100A80002E302E30204156525F415243483A206169
:100A90007672350A004F5054494F4E533A204C5508
:100AA0004641204D4F5553454B45592045585452CA
:100AB000414B455920434F4E534F4C4520434F4DDA
:100AC0004D414E4420343039360A004255494C4499
:100AD0003A2022302E392E34362D34352D673865A4
:100AE000616332642D646972747922202831343A4A
:100AF00035373A313220417567202031203230328B
:100B000030290A005649443A203078343434442895
:100B10007473686F727429205049443A20307833D6
:100B20003633362844616374796C2D4D616E756679
:100B30006F726D20283678362929205645523A2082
:100B40003078303030310A000A092D205665727332
:100B5000696F6E202D0A000A092D20436F6E736F96
:100B60006C65202D0A4553432F713A0971756974DC
:100B70000A6D3A096D6F7573656B65790A000A092C
:100B80002D204D61676963202D0A443A094465624E
:100B90007567204D65737361676520546F67676C77
:100BA000650A583A094D6174726978204465627526
:100BB00067204D6F646520546F67676C65202D203A
:100BC00053686F77206B65797072657373657320F6
:100BD000696E206D617472697820677269640A4B6E
:100BE0003A094B6579626F6172642044656275678A
:100BF00020546F67676C65202D2053686F77206BDA
:100C000065797072657373207265706F72740A4DC6
:100C10003A094465627567204D6F75736520546F9E
:100C200067676C650A563A0956657273696F6E0A92
:100C3000533A095374617475730A433A09416374F2
:100C4000697661746520436F6E736F6C65204D6FBC
:100C500064650A46312D4631303A09537769746329
:100C60006820746F204C6179657220302D392028FE
:100C7000463130203D204C30290A302D393A095375
:100C8000776974636820746F204C617965722030D5
:100C90002D390A47524156453A09537769746368BA
:100CA00020746F204C6179657220302028616C744B
:100CB00065726E617465290A423A094A756D702041
:100CC000746F20426F6F746C6F616465720A455374
:100CD000433A094A756D7020746F20426F6F746CCF
:100CE0006F616465722028616C7465726E617465F1
:100CF000290A453A095072696E7420454550524F91
:100D00004D2053657474696E67730A4253504143B2
:100D1000453A09436C65617220454550524F4D0A72
:100D2000000A002575002E6E6B726F3A20000A00D3
:100D30002575002E737761705F6261636B736C6100
:100D400073685F6261636B73706163653A20000A68
:100D5000002575002E737761705F67726176655F3D
:100D60006573633A20000A002575002E6E6F5F6779
:100D700075693A20000A002575002E737761705F4F
:100D800072616C745F726775693A20000A0025759C
:100D9000002E737761705F6C616C745F6C6775694E
:100DA0003A20000A002575002E737761705F726328
:100DB000746C5F726775693A20000A002575002E11
:100DC000737761705F6C63746C5F6C6775693A20F0
:100DD000000A002575002E636170736C6F636B5F92
:100DE000746F5F636F6E74726F6C3A20000A002537
:100DF00075002E737761705F636F6E74726F6C5FD6
:100E0000636170736C6F636B3A20000A00253032A7
:100E100058006B65796D61705F636F6E6669672EF0
:100E20007261773A20000A002575002E6D6F757388
:100E3000653A20000A002575002E6B6579626F61A6
:100E400072643A20000A002575002E6D6174726983
:100E5000783A20000A002575002E656E61626C6587
:100E60003A20000A00253032580064656275675FD9
:100E7000636F6E6669672E7261773A20000A0025FB
:100E8000750064656661756C745F6C617965723A52
:100E900020003F000A6D6F7573653A206F66660A21
:100EA000000A6D6F7573653A206F6E0A000A6B65F4
:100EB00079626F6172643A206F66660A000A6B6538
:100EC00079626F6172643A206F6E0A000A6D617414
:100ED0007269783A206F66660A000A6D61747269F9
:100EE000783A206F6E0A000A64656275673A206F6F
:100EF00066660A000A64656275673A206F6E0A00CA
:100F00000A0A4A756D70696E6720746F20626F6F90
:100F1000746C6F616465722E2E2E2000433E20009B
:100F2000436C656172696E6720454550524F4D0AAA
:100F3000006565636F6E6669673A0A005B735D0002
:100F40004B6579626F6172642073746172742E0AEA
:100F5000005B575D005B535D005B525D005B445D71
:100F6000005B435D000403300000002C034400617B
:100F7000006300740079006C002D004D0061006E6C
:100F800000750066006F0072006D002000280036BA
:100F90000078003600290000000E0374007300681A
:100FA000006F007200740000000403090409025B72
:100FB00000030100A0FA0904000001030101000977
:100FC00021110100012240000705810308000A09E0
:100FD0000401000103000000092111010001228128
:100FE000000705820320000A090402000203000032
:100FF00000092111010001222200070583032000BE
:101000000107050303200001120110010000000880
:101010004D4436360100010203010631FF0974A177
:10102000010975150026FF009520750881020976D3
:10103000150026FF00952075089102C005010902E0
:10104000A10185020901A100050919012905150061
:101050002501950575018102950175038101050141
:10106000093009311581257F9502750881060938F7
:101070001581257F950175088106050C0A38021532
:1010800081257F950175088106C0C005010980A1F1
:1010900001850319012AB700150126B700950175CE
:1010A000108100C0050C0901A101850419012AA0C5
:1010B00002150126A002950175108100C0050109E5
:1010C00006A101050719E029E71500250195087516
:1010D0000181029501750881010507190029FF1595
:1010E0000026FF00950675088100050819012905ED
:1010F000950575019102950175039101C0001124B8
:101100001FBECFEFDAE0DEBFCDBF04B603FE27C0BF
:101110008091170390911803A0911903B0911A03BD
:101120008730904BA740B04BD1F410921703109228
:1011300018031092190310921A0314BE84B7877F04
:1011400084BF0FB6F894A895809160008861809361
:101150006000109260000FBEE0E0F8E3099511E036
:10116000A0E0B1E0E0EDFBE602C005900D92AA3BE5
:10117000B107D9F723E0AAEBB1E001C01D92A73176
:10118000B207E1F70E94F92F0C94E6350C940000A9
:10119000FF93EF93E091BA01F091BB01309709F012
:1011A0000995EF91FF910895FC018591803011F030
:1011B000EFDFFBCF0895FF27E0E230E247FF0CC0EE
:1011C000419597FF09C0EDE26095709580959095E7
:1011D000611D711D811D911D27FF02C0219530E306
:1011E00050E2AA27660F771F881F991FAA1FA4170E
:1011F00010F0A41B63955A95A9F7AA3008F0A95FCF
:10120000A05DAF93F395611571058105910541F7D7
:10121000ED3211F4EF93F395F21718F43F93F39531
:10122000FBCF8F91B5DFFA95E1F70895E991F99138
:101230008591803021F0853219F0AADFF9CF089529
:1012400020E0E89455915532C1F3503311F468947D
:1012500055915A3348F4505390F3220F022E220F27
:10126000220F200D250FF4CF0EF42195899199912D
:10127000533619F3533729F1533559F1BC018827F7
:101280009927E8945C3621F4899199916894559155
:10129000543639F446EF7EF077FF0DC08FEF9FEFA5
:1012A0000AC055374AE039F0583540E121F052364E
:1012B00042E009F00895FF93EF937DDFEF91FF91F6
:1012C000B7CFFF93EF93FC0181918030B9F360DFDA
:1012D000FBCFFF93EF9368DFF1CFDF93CF93CDB7D1
:1012E000DEB72596A3DFCF91DF9108950C94D50C3E
:1012F000FB01828140E8849F90011124918148E0A4
:10130000949FC0011124822B932B2081822B9F93C9
:101310008F9384E291E09F938F930E946D090F90C9
:101320000F900F900F9081E0089580917702816077
:1013300080937702089581E008950C9478090895C8
:101340000C949F091F93CF93DF9300D000D01F927E
:10135000CDB7DEB749835A836B833091F20189811F
:101360009A81311114C0662359F0222349F00E945A
:101370002022182F682F89819A810E94C72103C0DB
:101380000E94F321182F69817A81812F04C00E9465
:10139000202269817A810F900F900F900F900F900B
:1013A000DF91CF911F910C94760AFC01262F40818A
:1013B00051816281738184810C94A209CF93DF9360
:1013C000EC0160E00E94D509BE01DF91CF910C9441
:1013D000A0090E946923811102C00E9409240C9473
:1013E00076090C94D30C08950C94F30981E00895C8
:1013F0000C94F609CF93C82F0E94F4098C2F0E94F9
:10140000F809CF91089508950E94991C0E94030A3B
:101410002FEF84E39CE0215080409040E1F700C032
:1014200000000C943D250F931F93CF93DF93EC01A5
:1014300061E00E94D5098C01BE010E949D098823AC
:1014400009F449C0BE01C8010E94D513882309F4DC
:1014500042C0BE01C8010E9416148823E1F1BE01FA
:10146000C8010E9441158823B1F1BE01C8010E9444
:10147000E012882381F18A81882331F101308CE5E3
:10148000180751F00E3D8CE51807D9F001151C45E1
:10149000D9F40E94040A1FC080917702C82FC0951A
:1014A000C170C0FB80F980937702CC2329F08BE8D0
:1014B00092E00E94D4080FC089E792E00E94D4080D
:1014C0000BC00E94092407C0CE01DF91CF911F916C
:1014D0000F910C949B09C0E08C2FDF91CF911F914D
:1014E0000F91089580E090E00895089524E5829F8B
:1014F000C0011124FC0126E0729FE00DF11D1124B2
:10150000E60FF11DEE0FFF1FE75DFE4F85919491F1
:101510000895880F991FFC01E456FD4F8591949121
:101520000895CF93DF930E94760A0E94A90BEC01E5
:101530008115904508F041C0C11580E4D80708F036
:10154000D1C0C83ED10510F5C03ED10508F0FDC0A0
:10155000C83AD10578F4C53AD10508F0A2C0C13027
:10156000D10509F4F2C008F4EEC0C430D10508F08A
:10157000ECC0E9C0CF3BD10508F49BC0C03CD1050D
:1015800008F4E1C0CE01805C91099EC0C11590E2D3
:10159000D90758F4C11521E0D20708F0D6C0C03FE2
:1015A000D10508F4D0C0D065D0C0C11580E3D807FC
:1015B00008F08EC0CE019F7087C0C11595E5D90790
:1015C00008F043C0C11524E5D20708F0A2C0C11538
:1015D00082E5D80708F5C11591E5D90708F085C05F
:1015E000CE0174E0969587957A95E1F783709C2FEC
:1015F000937021E030E002C0220F331F9A95E2F78A
:101600003C68382BCF70C695C69580E2C89FE00134
:101610001124C22BD32B99C09E01237033278C2F0A
:1016200086958695C115D34508F064C0C1E0D0E029
:1016300002C0CC0FDD1F2A95E2F720E2829FC00195
:101640001124C82BD92BDC6880C0C11529E5D2072D
:10165000A0F4C11588E5D80708F060C0C11596E56B
:10166000D90708F070C08C2F0E943D0C8F71C82FD5
:10167000D0E0DC2FCC27D06268C0C1152AE5D207A4
:1016800008F451C0CE0190568115904208F05BC01D
:101690008D2F8F710E943D0CDD27D0628F71D82B6A
:1016A00054C0C55AD0E0C95ADE4FC881D0E0D064DA
:1016B0004CC0C85AD0E0CC0FDD1FC75DDE4F09908B
:1016C000D881C02DD46441C00E94890AEC013DC07C
:1016D000CE019927D3FF03C0EC01D86C36C0EC01D2
:1016E000D06C33C0DF70D06A30C0DC2FCC27C16F24
:1016F000D06A2BC0C1E0D0E002C0CC0FDD1F2A951C
:10170000E2F720E2829FC0011124C82BD92BDA68AE
:101710001CC0DC2FCC27C46FD06A17C0DC2FCC27AD
:10172000C06FD06A12C08C2F8F700E943D0C94E065
:10173000D695C7959A95E1F7CF70D0E0DC2FCC27EE
:10174000D069C82B02C0C0E0D0E0CE01DF91CF91BC
:1017500008958238910569F1B0F48133910509F457
:101760006DC048F48932910509F463C08A3291054D
:1017700009F469C008958533910509F455C089338A
:101780009105B9F00895833E910569F138F4803EE2
:101790009105B1F0823E910509F10895863E9105CB
:1017A000A9F1873E9105B9F1843E910509F064C025
:1017B00023C02091080320FD4FC021FD4DC0089596
:1017C0008091080380FD44C08091090380FF44C0DC
:1017D0008091080384FD42C083EE4DC080910803D0
:1017E00082FF38C0F5CF8091080382FD33C080911D
:1017F000090380FD31C0ECCF8091090381FF32C025
:101800008091080384FD2AC087EE35C080910803CB
:1018100083FF26C0F5CF8091080383FD21C080910E
:10182000090381FD1FC0ECCF8091080385FD1CC01A
:101830001DC08091080385FD19C016C08091080362
:1018400086FD16C017C08091080386FD13C010C026
:1018500089E311C082EE0FC080EE0DC080E00BC0A6
:1018600086EE09C084EE07C089E205C085E303C0A7
:101870008AE201C081E390E008959091080392FF0D
:101880000DC0282F2871283019F4877F846006C086
:10189000282F2471243011F48B7F886093FF0DC0B2
:1018A000282F2871283119F4877E846106C0282FDB
:1018B0002471243111F48B7E88612091090320FF6B
:1018C0000DC0382F3871383019F4877F816006C019
:1018D000382F3171313011F48E7F886021FF0DC0B7
:1018E000282F2871283119F4877E816106C0282F9E
:1018F0002171213111F48E7E886194FD877E0895D7
:10190000E82FF0E0E955FD4F80810895CF92DF92F6
:10191000EF92FF920F931F93CF93DF938BEA92E0A6
:101920000E94D40887EAE82E82E0F82EC0E0D0E0DA
:1019300096EAC92E92E0D92E0EE912E0DF93CF93FA
:10194000DF92CF920E946D0983EA92E00E94D40850
:10195000F70181917F010E9457231F928F931F935C
:101960000F930E946D098CE992E00E94D4082196A1
:101970008DB79EB708960FB6F8949EBF0FBE8DBF69
:10198000CE30D105D9F6DF91CF911F910F91FF9005
:10199000EF90DF90CF90089580EA8A95F1F708954F
:1019A00008950C94D00C0C94D10C0C94D00C089588
:1019B000CF93DF930E94480E809100018091000137
:1019C000811102C097E001C090E09093B60287E0D9
:1019D000891B8093B502A0E6B1E047E651E061E0E3
:1019E00070E08D91E82FE295EF70F0E021A18F700B
:1019F000EB0102C0CC0FDD1F8A95E2F7CE019C2FD0
:101A00009095922391A392A1892B82A34A175B07F9
:101A100041F7AAE5B1E040E651E061E070E08D9168
:101A2000E82FE295EF70F0E021A18F70EB0102C08A
:101A3000CC0FDD1F8A95E2F7CE019C2F9095922363
:101A400091A392A1892B82A34A175B0741F7E9E989
:101A5000F2E0A7EAB2E087EA92E011921D928E17B7
:101A60009F07D9F787E00E94F20D0E94E909DF91F4
:101A7000CF910C945C0E0E942B0E882309F180916B
:101A8000B50290E089559D4F0E948C0E811114C0C3
:101A90008091BC018F5F8093BC01863078F0E0912B
:101AA000B502F0E0E955FD4F80E090E0119201961B
:101AB00087309105D9F702C01092BC010C94F1094E
:101AC0008091B60290E089559D4F0E94AB0E0C9418
:101AD000D70C6F927F928F929F92AF92BF92CF92CC
:101AE000DF92EF92FF920F931F93CF93DF9380E6E5
:101AF000882E81E0982E09E912E090EAA92E92E062
:101B0000B92E712CCC24C394D12CF40181914F01B6
:101B1000C82FC295CF70D0E099A18F70760101C017
:101B2000EE0C8A95EAF7892F8E2989A38AA16E2C5B
:101B3000609486218AA30E94CC0CEAE5F1E040E0A3
:101B400050E020E03191A32FA295AF70B0E09096C5
:101B50008C9190E03F7002C0959587953A95E2F799
:101B600080FD07C08C2D042E01C0880F0A94EAF76F
:101B700001C080E0282B4F5F5F4F4630510511F7C1
:101B800089A1682269A28AA1E82AEAA2F8018081D3
:101B9000281719F0208381E001C080E0782A0F5FC8
:101BA0001F4FA016B10609F0B0CF6091B60270E0E9
:101BB00069557D4F272D47E089E992E00E94F30D9A
:101BC0000E943B0D872DDF91CF911F910F91FF90C8
:101BD000EF90DF90CF90BF90AF909F908F907F90CD
:101BE0006F9008950895FF920F931F93CF93DF9303
:101BF0008C01F62ED72FC42F222349F081E0809349
:101C0000BF010E94F0249093BE018093BD0180919A
:101C1000BF018823C1F08091BD019091BE010E9457
:101C20000825069780F0EF2DFD2FD8014C2F50E0AE
:101C3000CD01801B910B841795071CF48D91819326
:101C4000F7CF1092BF01DF91CF911F910F91FF90BD
:101C500008950C940B248091C001811112C08091D1
:101C6000D80080618093D8008AE18A95F1F700C09E
:101C70008091D90080FD02C082E001C081E08093A4
:101C8000C00181E09091C001913009F080E0089599
:101C90000E94290E80930001809100016CE088234E
:101CA00011F080E001C08CE00E944C0F0E942B0ECE
:101CB00081110C94630E08950E942B0E811102C0B5
:101CC0000C94690E089562E070E081E091E00C945C
:101CD000D01562E070E081E091E00C94D9150E948B
:101CE0009A12882361F08AEC91E00E94A01281E0B0
:101CF00090E00E94B216892B11F40C949D12089565
:101D00008091C901883039F460E08AEC91E00E944A
:101D1000B3121092C9010895CF93DF93D82FC92F22
:101D20000E946F0E80E090E00E94B216892B79F439
:101D3000ED2FFC2F80E090E0DC01AE53BE4F2C91E4
:101D40002193019687309105B9F781E001C080E0C9
:101D5000DF91CF910895CF93DF93D82FC92F0E94A1
:101D6000800EED2FFC2F80E090E02191DC01AE533E
:101D7000BE4F2C93019687309105B9F7DF91CF9133
:101D80000895EF92FF920F931F93CF93DF93F62E58
:101D9000472FE82FF0E0711106C0E758FA4F649121
:101DA000762F862F72C0272F30E0E758FA4FE49144
:101DB0000E2F10E056E0659FC0011124CFEFD0E058
:101DC000BE010E9470355BEA5603C001579F900D1B
:101DD00011248F0D911D8F0D911D982F990F890F33
:101DE0007E01E21AF30AE09ED001E19EB00DF09E62
:101DF000B00D1124489FA0011124452F55277E01C5
:101E0000E41AF50AE09EA001E19E500DF09E500DEF
:101E100011247E01E81AF108E29EC001E39E900DB4
:101E2000F29E900D1124892F9927C81BD90BC09FB2
:101E3000C001C19F900DD09F900D1124623071059B
:101E400091F048F461157105E1F061307105A9F474
:101E50008B2F752F19C06430710561F038F0663032
:101E6000710579F00AC0892F7B2F0EC08E2F7B2F32
:101E7000E52F0AC08E2F792F02C0852F7E2FEB2FE2
:101E800003C08B2F7E2FE92F6E2FDF91CF911F91F3
:101E90000F91FF90EF900895E1E1F1E0808361837D
:101EA0000895CF93DF93762FE901682F842F0E9446
:101EB000C10E798368838A83DF91CF9108958091E1
:101EC000B702982F9695913021F0817082608093AF
:101ED000B702089588E090E00C94A635CF92DF9287
:101EE000EF92FF926B017C010E945F0FB701A60188
:101EF00088E090E0FF90EF90DF90CF900C94C43595
:101F0000E7EBF2E083E0808311828FEF82838383AB
:101F10001482A3EDB1E012968C9112978360129611
:101F20008C9360817181828193810C946E0F80917A
:101F3000770280FF08C080E695E09F938F930E9410
:101F40006D090F900F908091770280FF0FC08091F4
:101F5000B70281701F928F9383E495E09F938F93D4
:101F60000E946D090F900F900F900F908091770253
:101F700080FF0FC08091B70286951F928F9388E2F1
:101F800095E09F938F930E946D090F900F900F9093
:101F90000F908091770280FF0EC08091B8021F924F
:101FA0008F938EE095E09F938F930E946D090F9021
:101FB0000F900F900F908091770280FF0EC080915C
:101FC000B9021F928F9384EF94E09F938F930E94A6
:101FD0006D090F900F900F900F908091770280FF06
:101FE0000EC08091BA021F928F938AED94E09F9366
:101FF0008F930E946D090F900F900F900F9080911A
:10200000770280FF0EC08091BB021F928F938EEBF0
:1020100094E09F938F930E946D090F900F900F9003
:102020000F9008958091BB02833018F48F5F8093E6
:10203000BB026091B7027091B8028091B902909191
:10204000BA020C946E0F8091BB02882319F0815064
:102050008093BB026091B7027091B8028091B9027F
:102060009091BA020C946E0F70E00C94361360914C
:1020700012018091B70280FF0AC08091110123E014
:10208000829FC001112484549D4F0C943410809180
:10209000130190911401891780F7E82FF0E09F0158
:1020A000220F331FE20FF31FE454FD4F1182108201
:1020B00012828F5FF0CF8091B7028E7F8093B7023C
:1020C0006091B7027091B8028091B9029091BA0202
:1020D0000E946E0F8091770280FF0FC08091B7023F
:1020E00081701F928F9380E493E09F938F930E945F
:1020F0006D090F900F900F900F908091D501816026
:102100008093D5012FEF80E792E0215080409040EE
:10211000E1F700C000000C9437108091B7028E7F69
:102120008093B7028091770280FF0CC01F921F92AC
:1021300086E093E09F938F930E946D090F900F901C
:102140000F900F908091D50181608093D5012FEF82
:1021500080E792E0215080409040E1F700C000000D
:102160000C9437109091B70290FF16C09091130114
:1021700020911401921770F4E92FF0E0DF01AA0F0B
:10218000BB1FEA0FFB1FE454FD4F81836083428332
:102190009F5FF0CF0C9437100895EF92FF920F934A
:1021A0001F93CF93DF9300D01F92CDB7DEB79091EE
:1021B000B70290FF65C0E22EF42E062F182FE92FEC
:1021C000E695F0E0E259FE4F80818093D3019E7F37
:1021D000923059F49E012F5F3F4F812F0E94510F83
:1021E0004B8169818A810E94B2108091B8021813D4
:1021F00008C08091B902081304C08091BA02F81691
:1022000029F08091D50182608093D5011093B802A6
:102210000093B902F092BA02EE20E9F06091B702A1
:102220007091B8028091B9029091BA020E946E0F2B
:102230008091770280FF24C08091BA021F928F9311
:102240008091B9021F928F938091B8021F928F9351
:1022500081EE92E00CC08091770280FF11C01F9246
:10226000FF921F920F931F921F938AEB92E09F930E
:102270008F930E946D090FB6F894DEBF0FBECDBFDD
:102280000F900F900F90DF91CF911F910F91FF90C2
:10229000EF900895E7EBF2E09181282F438162816E
:1022A00088E0890F0C94CD1081E00C944A11E7EB83
:1022B000F2E09181282F4381628188EF890F0C948D
:1022C000CD1081E00C945711E7EBF2E0628121E13F
:1022D000620F08F46FEF282F438181810C94CD1099
:1022E00081E00C946411E7EBF2E0628121E1621B72
:1022F00008F460E0282F438181810C94CD1081E0A7
:102300000C947311E7EBF2E0438121E1420F08F4F2
:102310004FEF282F628181810C94CD1081E00C94C5
:102320008211E7EBF2E0438121E1421B08F440E037
:10233000282F628181810C94CD1081E00C94911141
:1023400020E00C94CD108091B70280FF3AC08170DC
:1023500082608093B7028091D50181608093D5011E
:102360006623B1F06091B7027091B8028091B90212
:102370009091BA020E946E0F8091770280FF19C07F
:102380008091B70286951F928F9384E094E009C0F4
:102390008091770280FF0DC01F9281E08F9386EEBF
:1023A00093E09F938F930E946D090F900F900F9071
:1023B0000F904091BA026091B9028091B8020C94DA
:1023C000A0110895682F81E00C94A31181E00C9472
:1023D000E211682F9091B70296958FEF890F09F45B
:1023E00081E00C94A31181E00C94E91161E00C945C
:1023F000A3118091B70281608093B7028091770228
:1024000080FF0DC01F9281E08F9388E793E09F9338
:102410008F930E946D090F900F900F900F908091F5
:10242000B70286950C94F6118091770280FF10C058
:102430008091B702809581701F928F938FEA93E00D
:102440009F938F930E946D090F900F900F900F90A4
:102450008091B70280FD0C945B100C94F91160E040
:102460000C94A3118091D201811163C080917702F5
:1024700080FF08C087EA94E09F938F930E946D09C4
:102480000F900F908091770280FF08C081E994E05F
:102490009F938F930E946D090F900F900E94692364
:1024A000811110C08091770280FF08C089E694E016
:1024B0009F938F930E946D090F900F900E940924A3
:1024C0000E94800F0E946A0F6093B7027093B80257
:1024D0008093B9029093BA028091D5018360809372
:1024E000D5016E7FC1F48091770280FF08C080E241
:1024F00094E09F938F930E946D090F900F900E941C
:10250000800F0E946A0F6093B7027093B8028093A5
:10251000B9029093BA020E945F0F0E94970F8091B8
:10252000B70280FF03C086950E942F1281E080933E
:10253000D20108958091D50108951092D501089592
:1025400025E0E7EBF2E0DC0101900D922A95E1F73E
:102550002091D3013091D4014091D501FC01258314
:102560003683478308951F93CF93DF93EC01162F93
:102570008F8180FF0FC0888180FF0AC08091B702E1
:1025800081608093B702888186950E94A31102C062
:102590000E948D108F8181FF09C0212F4B816A819C
:1025A0008981DF91CF911F910C94CD10DF91CF9154
:1025B0001F910895882311F0FA0101C0FB010994CD
:1025C0001F93CF93DF93FB01128111114AC0EC01DD
:1025D0000E94A1228272FE01E25CFC45E431F10519
:1025E00020F4EA5AFF4F0C94983511E03AC00E944B
:1025F000141237C043EF51E166EE71E104C046EEBC
:1026000051E163EF71E10E94DA122BC041E651E122
:1026100064E571E1F8CF44E551E161E671E1F3CFA2
:102620004FE751E160E771E1EECF40E751E16FE73D
:1026300071E1E9CF4DE951E16EE871E1E4CF4EE897
:1026400051E16DE971E1DFCF43E250E162E170E118
:10265000DACF42E150E163E270E1D5CF81E00E9440
:10266000F611812FDF91CF911F910895539A2BB1CD
:10267000277F3BB138604FB7F894FC01CB01880F3E
:10268000991F680F791F6E0F7F1FE617F70789F0F4
:10269000819198E03BB9000000C087FF2BB9880FFB
:1026A000000000C000C000C02BB900C09A9591F78F
:1026B000ECCF4FBF8FE594E00197F1F700C0000029
:1026C00008950F931F93CF93DF93C62FD42F122F0C
:1026D000FC0182818823C9F06093D8010E94F02414
:1026E0009093D7018093D60180E28C0F883008F058
:1026F00057C0C77081E001C0880FCA95EAF7DF9123
:10270000CF911F910F910C94091A8091D8016813F1
:1027100030C08091D6019091D7010E940825883C55
:10272000910538F500E20D0FCD17B9F080E28C0F5E
:10273000883040F4C77081E001C0880FCA95EAF77D
:102740000E94101A083028F581E09D2F977001C073
:10275000880F9A95EAF70E94091A812F0E94F619AC
:102760000830F0F4D77081E001C0880FDA95EAF7FD
:102770000AC080E28C0F883098F4C77081E001C0F5
:10278000880FCA95EAF7DF91CF911F910F910C94B2
:10279000101A812FDF91CF911F910F910C94F61990
:1027A000DF91CF911F910F9108959C01CB01233FA1
:1027B0004CE53407F9F078F4283DFCE53F07B9F023
:1027C000293D4CE5340711F1273D3C4531F526E222
:1027D00041EE61EE1EC0253FFCE53F0799F070F029
:1027E000263F3C45D1F427E245EE66EE12C027E2D3
:1027F00045EE0EC026E241EE60EE0BC027E245EE4C
:1028000064EE07C026E241EE62EE03C028E241E03A
:1028100065EE0E94611380E00895FC0182818823A7
:1028200019F01092D801089581E00895CF93DF93B5
:10283000EC01FB018281882309F41FC1C230FCE551
:10284000DF0708F41BC1C6319CE5D90738F09E01AB
:102850002A5F3C452930310508F010C10E947C23D5
:102860009093090380930803C031ECE5DE0709F477
:10287000C3C008F041C0C8308CE5D80709F49AC03D
:10288000F0F4C430ECE5DE0709F487C068F4C23028
:102890008CE5D80709F477C0C330DC4509F0E3C004
:1028A00080910803826076C0C630ECE5DE0709F44B
:1028B0006EC008F07BC08091080388606BC0CC308C
:1028C0008CE5D80709F485C068F4CA30ECE5DE076A
:1028D00009F474C008F079C00E94991C8091080323
:1028E000806858C0CE308CE5D80709F476C008F06F
:1028F0007FC0809108038BC0CB3FECE5DE0709F475
:102900004FC018F5C3318CE5D80709F47DC078F4C1
:10291000C131ECE5DE0709F473C0C231DC4509F0D2
:10292000A2C00E94991C809108038F7733C0C531E3
:102930008CE5D80709F472C008F486C0CA3FDC45AC
:1029400009F091C0809109033EC0CF3FFCE5DF074D
:1029500009F45FC058F4CD3F9CE5D90709F444C0A1
:1029600008F43FC08091090382602DC0C130FDE5AD
:10297000DF0709F475C008F45DC0C230DD4509F019
:1029800072C080E06EC080910803816003C08091B6
:10299000080380618093080366C08091080311C01A
:1029A000809109038260809309035DC080910803D0
:1029B0008062F0CF809108038064ECCF809108039F
:1029C00088608460E7CF8160EECF809108038E7FBE
:1029D000E1CF809108038D7FDDCF80910803877F51
:1029E000D9CF8091090318C0809109038D7FDBCF77
:1029F000809108038F7ECECF809108038F7DCACF50
:102A0000809108038F7BC6CF80910803877F8B7FDF
:102A1000C1CF809109038D7F8E7FC5CF8091080340
:102A200082FB222720F991E0922790FB82F990FB0C
:102A300083F9B0CF80910903982F909591708E7F84
:102A4000892B90FB81F9AFCF0E94991C80910803DC
:102A500087FB222720F991E0922790FB87F99ACFF4
:102A600081E00E94152480910803909109030E943F
:102A70008D230E94991C80E001C081E0DF91CF91FD
:102A80000895CF93DF9386319C4541F5EB010E9479
:102A9000A122982F8A812091160130911701882355
:102AA00079F09A7A81E009F480E08093D90191115C
:102AB00002C069E201C065E3C9010E945C240AC04A
:102AC0008091D901811102C069E201C065E3C901A9
:102AD0000E945E240E94EF2280E001C081E0DF912D
:102AE000CF9108958EE1489B02C08150E1F7489B49
:102AF000FECF0895589880E28A95F1F7589A089584
:102B0000FC012AE02A95F1F790E020E080E031E036
:102B1000261779F040E14A95F1F7880F489B02C0EB
:102B20008160932700C0000040E14A95F1F72F5FD4
:102B3000EFCF20E12A95F1F729B100C0000030E184
:102B40003A95F1F7217092272081920F9083089592
:102B5000EF92FF920F931F93CF93DF931F92CDB706
:102B6000DEB719828C017C01E60EF11C0E151F05E3
:102B700059F00E94721568E0CE0101960E948015FE
:102B8000F80181938F01F2CF81E09981911180E06A
:102B90000F90DF91CF911F910F91FF90EF900895CB
:102BA0009093DC018093DB016093DA01509A589A8C
:102BB00008959093DC018093DB016093DA015098D3
:102BC000589AE89AE9E6F0E080818C7F8083089546
:102BD000615091E001C0990F6A95EAF720E031E079
:102BE000992361F0492F482319F0589A232701C0EF
:102BF000589840E24A95F1F79695F2CF222311F0CA
:102C0000589A01C0589880E28A95F1F7589808952B
:102C1000FF920F931F93CF93DF93EC018C01060F6C
:102C2000111DC017D10741F0F9900E947A1568E094
:102C30008F2D0E94E815F5CFDF91CF911F910F9155
:102C4000FF9008951F920F920FB60F9211240F93C9
:102C50001F932F933F934F935F936F937F938F9324
:102C60009F93AF93BF93EF93FF93CF93DF931F9205
:102C7000CDB7DEB719820E94721567E0CE010196CA
:102C80000E948015382F369536953695932F969558
:102C90009570232F2570920F292F23709695969566
:102CA0008770920F891348C08981811145C0809136
:102CB000DA01831708F440C080E18A95F1F7589A49
:102CC000509AA2E0AA95F1F700C00091DB011091A3
:102CD000DC01B8E03B9F000D111D11245898F8014C
:102CE0006581662321F0868197810E9408160E94E3
:102CF0007A15F0E1FA95F1F758985098589A80E1D2
:102D00008A95F1F7D80112966C911297662369F0B3
:102D100013968D919C9114970E94A815D801ED915E
:102D2000FC91811105C082E004C0D801ED91FC91B5
:102D300088E080830E9472150F90DF91CF91FF9100
:102D4000EF91BF91AF919F918F917F916F915F9123
:102D50004F913F912F911F910F910F900FBE0F90A8
:102D60001F9018950F931F93CF93DF932091DA0153
:102D700030E0281739070CF471C09C0193E0220F52
:102D8000331F9A95E1F7C091DB01D091DC01C20FAE
:102D9000D31FF894509A589845E04A95F1F70000EF
:102DA000982F969595708570890F982F93708695BA
:102DB0008695890F8901082B0E947A1584E08A95EF
:102DC000F1F700C067E0802F0E94E81540E14A95C6
:102DD000F1F75098589A489902C000C0FCCF87E09C
:102DE00090E0489B0EC0019751F4509A589AE881A0
:102DF000F98181E08083789481E090E031C000C067
:102E0000F0CF6D81662381F08E819F810E94A8158D
:102E100081110AC0509A589AE881F98182E0808332
:102E2000789482E090E01CC00E94721580E28A953E
:102E3000F1F75898509A40E14A95F1F76A81662374
:102E400021F08B819C810E9408160E947A15E881EE
:102E5000F9811082789480E090E002C084E090E0F4
:102E6000DF91CF911F910F9108959093E20180938C
:102E7000E1010895E091E101F091E201309721F044
:102E80000190F081E02D099480E00895EF92FF9287
:102E90000F931F93CF93DF93E091E101F091E20153
:102EA0003097B1F18C010280F381E02D099580917A
:102EB000770282FF2DC080FF04C081E896E00E9467
:102EC000D408E80118E08BE7E82E86E0F82E809120
:102ED000770280FF0BC088811F928F93FF92EF9241
:102EE0000E946D090F900F900F900F901150219636
:102EF0001111EDCF8091770280FF0AC089E796E03B
:102F0000DF91CF911F910F91FF90EF900C94D40817
:102F1000DF91CF911F910F91FF90EF900895E09175
:102F2000E101F091E201309739F022E0DC012C93CD
:102F30000480F581E02D099408952091DF013091FE
:102F4000E0012817390771F09093E0018093DF01C9
:102F5000E091E101F091E201309721F00680F781E4
:102F6000E02D099408952091DD013091DE012817AC
:102F7000390771F09093DE018093DD01E091E1016A
:102F8000F091E201309721F00084F185E02D099461
:102F9000089585B7806885BF85B7806885BF089527
:102FA00008950C94D0170C94D1170C94D0170C944E
:102FB00095090E94C9170E94D5170C94D3170C9439
:102FC0002B0E0E94E7240E94D80C0E944E250E94DE
:102FD00032120C94D717CF93C82F8091770282FFBB
:102FE0001EC080FF04C08AE996E00E94D408809148
:102FF000770280FF0CC01F92CF9385E996E09F93E4
:103000008F930E946D090F900F900F900F908091F9
:10301000770280FF04C083E996E00E94D4088C2FD9
:10302000CF910C94FA09AF92BF92CF92DF92EF92B8
:10303000FF920F931F93CF93DF93CDB7DEB72A97FD
:103040000FB6F894DEBF0FBECDBF0E94690D0E947F
:10305000DF17811111C08FEF89838A831B820E9441
:10306000F0248160782F9D838C8349815A816B8104
:103070008D810E94AB1840C084EEA82E81E0B82E4E
:1030800000E010E0C02E802F0E94800CE82EF50199
:10309000D1905F01D82631F40F5F1F4F0E3011051C
:1030A00089F7D9CF8091770281FD0E94860C80E05C
:1030B000FF24F3949D2D9F21D1F08E83CF82EF20AA
:1030C00081E009F480E088870E94F0248160782FF5
:1030D0009A8789874E815F8168858A850E94AB18AF
:1030E000F801EC51FE4F8081F826F08205C08F5F19
:1030F000FF0C8630F9F6D0CF0E9462270E943A1763
:103100009091E3018917B1F00E943A178093E3018F
:103110002A960FB6F894DEBF0FBECDBFDF91CF91D8
:103120001F910F91FF90EF90DF90CF90BF90AF90E5
:103130000C94EB172A960FB6F894DEBF0FBECDBFE6
:10314000DF91CF911F910F91FF90EF90DF90CF9083
:10315000BF90AF900895CF93DF93CDB7DEB72B9795
:103160000FB6F894DEBF0FBECDBF4F835887698777
:103170007A878B87DE01119686E0FD0111928A9590
:10318000E9F785E0FE01379601900D928A95E1F707
:1031900049815A816B817C818D819E810E948C1F27
:1031A0002B960FB6F894DEBF0FBECDBFDF91CF9147
:1031B0000895FC01808191810E9462220895CF933D
:1031C000882309F4A9C0C82F8238C1F40E943A1795
:1031D00081FDA2C069E380911601909117010E94C0
:1031E0005C240E94EF222FEF81EE94E0215080407A
:1031F0009040E1F700C0000069E319C0833801F591
:103200000E943A1780FD88C063E580911601909175
:1032100017010E945C240E94EF222FEF81EE94E0C0
:10322000215080409040E1F700C0000063E58091AC
:103230001601909117010E945E24CF910C94EF2209
:103240008438C1F40E943A1782FD66C067E4809119
:103250001601909117010E945C240E94EF222FEF2B
:1032600081EE94E0215080409040E1F700C00000E2
:1032700067E4DDCF8CEF8C0F813AF8F48C2F0E943D
:103280006E2C811149C06C2F80911601909117010D
:103290000E942624882349F06C2F8091160190917A
:1032A00017010E945E240E94EF226C2F809116016C
:1032B000909117010E945C24C0CF80E28C0F88306F
:1032C00048F4C77081E001C0880FCA95EAF70E94F0
:1032D000A422B3CFEBE5EC0FE33040F4F0E0E2568C
:1032E000FE4F808190E0CF910C949D17E8E5EC0FA4
:1032F000E73150F4F0E0EE0FFF1FE059FE4F808100
:103300009181CF910C94B317C03F30F08C2F0E9465
:10331000E825CF910C94D526CF910895882309F400
:1033200064C0823879F40E943A1781FF5EC069E375
:1033300080911601909117010E945C240E94EF2257
:1033400069E310C08338B1F40E943A1780FF4DC082
:1033500063E580911601909117010E945C240E9400
:10336000EF2263E580911601909117010E945E247F
:103370000C94EF22843879F40E943A1782FF35C00A
:1033800067E480911601909117010E945C240E94CD
:10339000EF2267E4E7CF9CEF980F913A10F4682F83
:1033A000E1CF90E2980F983050F4877091E001C01F
:1033B000990F8A95EAF7892F0E94AA22D9CF9BE517
:1033C000980F933020F480E090E00C949D1798E5DE
:1033D000980F973120F480E090E00C94B317803F71
:1033E00020F00E9450260C94D5260895CF93C82F24
:1033F0000E94DF18C93349F42FEF87EE93E0215084
:1034000080409040E1F700C000008C2FCF910C94D9
:103410008E19882321F00E94A4220C94EF22089593
:10342000882321F00E94AA220C94EF220895CF92C3
:10343000DF92EF92FF920F931F93CF93DF937C0164
:10344000062FC72FFC01158112951F70D281D11153
:103450000E94C1220E949A22882399F0DD2389F0DC
:103460008C2F807F803421F080E2800F883048F0FC
:1034700082E00E9439230E949A2291E0D82ED92618
:1034800001C0D12CCC2EC2948FE0C8228C2D90E0AC
:10349000FC01E659FF4F0C9498358C2F807FCF703C
:1034A000882311F0C295C07FDD2399F0CC2309F465
:1034B0008DC180E2800F883010F0011104C08C2F84
:1034C0000E94A42203C08C2F0E94B4220E94EF22EB
:1034D0007DC1802F0E948E19CC2309F49CC180E20B
:1034E000800F883010F0011104C08C2F0E94AA2296
:1034F00003C08C2F0E94BA220E94EF228CC18C2F15
:10350000807FCF70803211F0C295C07F002319F008
:103510000130C9F022C0DD2371F0112341F01130D8
:1035200031F40E94D4228C2B0E94DC2274C10E94B0
:10353000D4228C2B1DC0112319F0113009F46BC15A
:103540000E94E52225C0DD2321F0163008F063C17A
:103550000EC0153008F05FC11BC0DD2361F01123E0
:1035600031F0F701858180FF31C18F7085838C2F09
:103570000E94091A50C1112359F0093309F037C1CB
:10358000FFEF27EE83E0F15020408040E1F72DC1AE
:103590008C2F0E94101A3FC18C2F869586958370C0
:1035A00019F0813061F037C1DD2321F0802F9C2F8D
:1035B000937002C080E090E00E949D1734C1DD232B
:1035C00021F0802F9C2F937002C080E090E00E9439
:1035D000B31729C1802FDD2319F00E94E82502C00E
:1035E0000E9450260E94D5261EC18C2F837009F0A0
:1035F00045C0D11114C1402F429546954770440FE4
:10360000440F602F6F70862F90E0A0E0B0E0042E92
:1036100004C0880F991FAA1FBB1F0A94D2F704FF8A
:1036200010C00FE010E020E030E004C0000F111FD8
:10363000221F331F4A95D2F700951095209530959B
:1036400003C000E010E09801C695C695C370BC01A8
:10365000CD01602B712B822B932BC23049F058F493
:10366000C13019F00E94DD20DAC00E94CB20D7C003
:103670000E94EF20D4C00E94C920D1C0DD2319F0E0
:103680008C2F817001C08695882309F4C8C0402F13
:10369000429546954770440F440F602F6F70862FF8
:1036A00090E0A0E0B0E0042E04C0880F991FAA1F8C
:1036B000BB1F0A94D2F704FF10C00FE010E020E017
:1036C00030E004C0000F111F221F331F4A95D2F7AC
:1036D000009510952095309503C000E010E098010A
:1036E000C695C695C370BC01CD01602B712B822B92
:1036F000932BC23049F058F4C13019F00E94A22136
:103700008EC00E9490218BC00E94B42188C00E946C
:10371000032185C0CF70DD2339F08C2F0E94292131
:10372000802F0E94091A7BC0802F0E94101A8C2FB4
:103730000E944A2174C0023F01F128F4003F41F089
:10374000013FA1F03FC0033FF9F0043F39F13AC017
:10375000DD2341F0153008F05EC08C2F8F710E9480
:103760006F2159C0163008F056C0F7CFDD2339F06D
:103770008C2F8F710E9429214EC0DD23C9F38C2F1D
:103780008F710E944A2147C0DD2329F08C2F8F7151
:103790000E94142140C00E940F213DC0DD2349F04A
:1037A000CF718C2F0E94292163E08C2F0E9424234B
:1037B00032C081E00E943923123068F182E00E9419
:1037C000392329C0DD2331F0112391F2802F0E948B
:1037D000DF1821C0112399F2093349F49FEFE7EE76
:1037E000F3E09150E040F040E1F700C00000802F8E
:1037F0000E948E1910C04C2F4F70602FC7010E947D
:10380000720A0E943A200FC04C2F4F70602FC701E0
:103810000E94750A08C088EF8C0D843020F40E9445
:103820003A170E94FA09DD20C9F00E94962280FD15
:1038300015C0F70112820E9490220E942921C7011F
:103840000E944F1C0E949022DF91CF911F910F91F7
:10385000FF90EF90DF90CF900C944A21DF91CF91B1
:103860001F910F91FF90EF90DF90CF9008950F93ED
:103870001F93CF93DF93EC01688179818A810E9445
:103880006D228C010E94C6210E94B720B801CE0192
:103890000E94171ADF91CF911F910F910895CF9336
:1038A000DF93EC01988189812B813C81232B31F0BE
:1038B0008F3F31F481E09F3F19F403C081E001C0E4
:1038C00080E080FD19C0CE010E94130A81110CC056
:1038D0000E949A22882381F08A81882369F082E0FD
:1038E000DF91CF910C943923CE010E94371CCE0179
:1038F000DF91CF910C94DE09DF91CF9108950E9462
:10390000C1220E94D1220E94EF220E9481280E949F
:10391000D52680E090E00E949D1780E090E00C9416
:10392000B31780911601909117010E9460240C94A6
:103930007F1C0E94B1220C94911CE92FE295EF703C
:103940004E2F50E0FA013297EE30F105B0F4E65810
:10395000FF4F0C949835803F91F018F4883E68F43E
:103960000EC0843F51F40BC0883E48F0813F29F4DB
:1039700006C093FB882780F9089580E0089581E0D0
:1039800008950E9462220E949D1C0895CF93DF93A8
:1039900000D000D01F92CDB7DEB70F900F900F90E0
:1039A0000F900F90DF91CF910895CF93DF9300D0C8
:1039B00000D000D0CDB7DEB726960FB6F894DEBFA4
:1039C0000FBECDBFDF91CF9108951F93CF93DF93AB
:1039D000C091F30116E08091F401C81799F0D0E08E
:1039E0001C9FF0011D9FF00D1124EB50FE4F4081F4
:1039F000518162817381848195810E94D51C2196B9
:103A0000C770E9CFDF91CF911F91089540912502B2
:103A1000509126026091270270912802809129021C
:103A200090912A020C94D51C2091F3019091F401FD
:103A300056E02917A9F030E0529FF001539FF00D96
:103A40001124EB50FE4F7181761306C070817813FC
:103A500003C07281741306C02F5F3F4F2770E9CFF8
:103A600080E0089581E008950F931F93CF93DF9333
:103A700080912A0282958F7009F05DC080912702A3
:103A8000882309F458C08091F3011091F4016091EA
:103A9000250270912602C0912802D091290291E05E
:103AA0006F3F09F090E0292F06E0811709F443C029
:103AB000209721F07F3F21F030E003C031E001C0CA
:103AC000322F90E030FD34C0089FF001099FF00DC7
:103AD0001124DF01AB50BE4F11963C911197371363
:103AE00027C03C91361324C012963C911297311195
:103AF0001FC013964D915C9114974C1B5D0B483C75
:103B00005105B0F480912A028F70806180932A025F
:103B1000E650FE4F80818F708061808385E292E065
:103B20000E944F1CDF91CF911F910F910C94E51CC7
:103B300001968770BACFDF91CF911F910F910895B1
:103B40008F929F92AF92BF92CF92DF92EF92FF92AD
:103B50000F931F93CF93DF93CDB7DEB761970FB667
:103B6000F894DEBF0FBECDBF8C0185E0F801DE0109
:103B70001D9601900D928A95E1F7D801DC9011967F
:103B8000EC9011971296CC909091250220912602EC
:103B900040912802509129024115510531F02F3FE3
:103BA00031F481E09F3F19F403C081E001C080E05F
:103BB00080FD81C1F8018380948085E2A82E82E097
:103BC000B82EF0902702B401641B750BFF2009F496
:103BD00018C180912A02382F307F683C710508F0A7
:103BE000D1C031118AC0E21214C0D91212C0FC2C0B
:103BF000C1100FC08F70806180932A020E94061D41
:103C0000C5010E944F1C80912A02D80115968C9301
:103C10006FC18114910439F0BFEFEB1206C081E04F
:103C2000DB1203C003C081E001C080E080FD03C05F
:103C300081E08C2502C080E090E080FF10C04C2D18
:103C40006E2D8D2D0E94141D882349F085E292E08F
:103C50000E944F1CE5E2F2E086E0DF01A4C0892863
:103C600039F0BFEFEB1206C081E0DB1203C003C0E6
:103C700081E001C080E080FD03C081E08C2502C0AE
:103C800080E090E0E82FE170BE2E80FF2CC04C2D2C
:103C90006E2D8D2D0E94141DF82E811124C0DD86FD
:103CA000EE868D859E850E946222292F22952F7097
:103CB000223018F0243090F405C09F7059F0811123
:103CC00009C016C19F7031F0D80115969C91907F64
:103CD00009F40EC1805E883008F40AC1C8010E9450
:103CE0004F1CFB2C05C1FC2CCC2009F401C1809198
:103CF0002A02816080932A025BC0E21206C0D912B8
:103D000004C0C11002C0F801A0C0DD86EE868D851A
:103D10009E850E94C11C882379F1CC2069F12091F5
:103D20002A02822F82958F7090E0029774F0809122
:103D300025029091260298878F8319869B868A8612
:103D40002C87CE0107960E944F1C86E0F801A5E261
:103D5000B2E001900D928A95E1F70E94341D0E9415
:103D6000061D0DC0E21631F1DD86EE868D859E853D
:103D70000E94C11C81112DC0C8010E944F1CFF244C
:103D8000F394B6C03111EECF782D998A888A4D2DE3
:103D90005E2D6C2D89890E94C61C85E292E00E94EE
:103DA0004F1C86E0D5011D928A95E9F70E94061DF9
:103DB000F12C9EC0D912D8CFC110D6CFF80185837F
:103DC000C8010E944F1C86E0D5011D928A95E9F733
:103DD0008FC0CC2089F220912A02822F82958F7089
:103DE00090E002970CF4B1CF8091250290912602C9
:103DF0009A8389831B829D828C822E83CE010196B9
:103E0000A2CF683C710508F047C0FC2CCC2009F417
:103E1000B3CFE21230C0D9122EC020912A0220FD69
:103E200021C0822F82958F70482F50E04115510597
:103E3000C9F0F80125834F30510541F08F5F982F6D
:103E40009295907F822F8F70892B8583C8010E9465
:103E50004F1C86E0F801A5E2B2E001900D928A9530
:103E6000E1F744C086E0F801A5E2B2E001900D92CE
:103E70008A95E1F73DC0DD86EE868D859E850E94A0
:103E8000C11C811162CF80912A02816080932A0235
:103E9000C8010E944F1C2CC0782D998A888A4D2D0C
:103EA0005E2D6C2D89890E94C61C86E0D5011D926D
:103EB0008A95E9F71BC0CC2009F45ECFDD86EE863B
:103EC0008D859E850E94C11CF82E882309F454CF4D
:103ED00086E0F801A5E2B2E001900D928A95E1F743
:103EE00085E292E00E94D9180E94341D0E94061DAE
:103EF0008F2D61960FB6F894DEBF0FBECDBFDF9158
:103F0000CF911F910F91FF90EF90DF90CF90BF90D6
:103F1000AF909F908F9008951F93CF93DF93CDB76D
:103F2000DEB72C970FB6F894DEBF0FBECDBF4F8320
:103F3000588769877A878B879C87CE0107960E946E
:103F4000A01D8823D1F09F8188852A853B85232B5E
:103F500031F08F3F31F481E09F3F19F403C081E0DD
:103F600001C080E080FD47C04F81588569857A8512
:103F70008B859C850E94D51C3EC086E0FE0137964D
:103F8000DE01119601900D928A95E1F7FF81E88597
:103F90006A857B856115710531F0EF3F31F481E071
:103FA000FF3F19F403C081E001C080E080FD23C021
:103FB0002091F40130E0C901019687709927409162
:103FC000F30150E084179507F1F1F983EA837D83CB
:103FD0006C8396E0929FD001939FB00D1124AB505B
:103FE000BE4FFE01319601900D929A95E1F78093B4
:103FF000F4010E94E51C16E08091F3019091F40118
:10400000891771F1189FC00111248B509E4F0E9497
:10401000A01D882329F1E091F3011E9FF0011124D6
:10402000EB50FE4F40815181628173818481958183
:104030000E94D51C8091F30190E00196877099272A
:104040008093F301D9CF0E94991C1092F401109231
:10405000F301E5E2F2E086E0DF011D928A95E9F7DF
:104060002C960FB6F894DEBF0FBECDBFDF91CF9177
:104070001F910895EF92FF920F931F93CF93DF93B9
:104080008C01892B09F46CC0F12CEE24E394E80137
:104090002196F8018491843740F4843008F051C0AF
:1040A000813081F0823019F15BC0853709F444C05A
:1040B000A8F19CE7980F903708F052C08F770E94C4
:1040C0008E1941C00E5F1F4FFE01849190E2980F40
:1040D000983050F48770FE2D01C0FF0F8A95EAF7E3
:1040E0008F2F0E94C42214C00E94DF182DC00E5FC3
:1040F0001F4FFE01849190E2980F983060F4877012
:10410000FE2D01C0FF0F8A95EAF78F2F0E94CA2269
:104110000E94EF2219C00E948E1916C00E5F1F4F19
:10412000FE01C491CC2381F08FE99FE00197F1F764
:1041300000C00000C150F6CF0E5F1F4FFE01F4908B
:1041400003C00E94DF188E018F2D882309F49FCFB2
:10415000EFE9FFE03197F1F700C000008150F5CFA3
:10416000DF91CF911F910F91FF90EF9008950895E7
:1041700008950C94B8200C94B9200E94BB20609341
:1041800066027093670280936802909369020C94B0
:104190007F1C0C94BD200F931F9300916602109119
:1041A00067022091680230916902602B712B822B8B
:1041B000932B1F910F910C94BD200F931F9300918F
:1041C00066021091670220916802309169026023B3
:1041D0007123822393231F910F910C94BD200F9381
:1041E0001F9300916602109167022091680230913E
:1041F000690260277127822793271F910F910C94E2
:10420000BD200C94B8200E9401216093620270933B
:10421000630280936402909365020C947F1C60E0BB
:1042200070E0CB010C9403210F931F9341E050E009
:1042300060E070E08A019B0104C0000F111F221F83
:10424000331F8A95D2F7C901B8011F910F910C94C1
:1042500003210F931F9341E050E060E070E004C041
:10426000440F551F661F771F8A95D2F7809162020F
:1042700090916302A0916402B09165028A019B0152
:10428000082B192B2A2B3B2BC901B8011F910F9129
:104290000C9403210F931F9341E050E060E070E025
:1042A00004C0440F551F661F771F8A95D2F74095AB
:1042B0005095609570958091620290916302A091F3
:1042C0006402B09165028A019B01082319232A2305
:1042D0003B23C901B8011F910F910C9403210F9347
:1042E0001F9341E050E060E070E004C0440F551FB0
:1042F000661F771F8A95D2F78091620290916302C0
:10430000A0916402B09165028A019B0108271927D8
:104310002A273B27C901B8011F910F910C94032153
:104320000F931F9300916202109163022091640227
:1043300030916502602B712B822B932B1F910F9173
:104340000C9403210F931F9300916202109163025A
:1043500020916402309165026023712382239323AC
:104360001F910F910C9403210F931F9300916202F0
:1043700010916302209164023091650260277127D9
:10438000822793271F910F910C9403210895292FC1
:10439000220F920F990F890FE82FE695E695E69583
:1043A000877051E001C0550F8A95EAF785E0E89FD4
:1043B000F0011124E55DFD4F20E030E070E0408128
:1043C000CB01022E02C0969587950A94E2F7817080
:1043D000819584278523842781932F5F3F4F253044
:1043E000310569F70895292F220F920F990F890F30
:1043F000682F669566956695982F977085E0689FFB
:10440000B001112440E050E080E0FB01E40FF51F13
:10441000E55DFD4F208130E0092E02C036952795DD
:104420000A94E2F721703327042E01C0220F0A9468
:10443000EAF7822B4F5F5F4F4530510531F7089502
:10444000BF92CF92DF92EF92FF920F931F93CF9381
:10445000DF938C01C0906202D0906302E09064020E
:10446000F09065028091660290916702A0916802C7
:10447000B0916902C82AD92AEA2AFB2ACFE1D0E002
:10448000D701C6010C2E04C0B695A79597958795C0
:104490000A94D2F780FD04C0219790F7B12C07C091
:1044A000BC2EB8018C2F0E94910A0197A9F38B2D85
:1044B000DF91CF911F910F91FF90EF90DF90CF9000
:1044C000BF900895CF93DF93EC010E942022BE019C
:1044D0000E94910ADF91CF9108951F93CF93DF93AC
:1044E000EB019091F201992321F0CB010E9462220D
:1044F00013C0882349F0CB010E942022182F682F77
:10450000CE010E94C72104C0CB010E94F321182FC5
:10451000BE01812F0E94910ADF91CF911F910895D2
:1045200080916A02859585958595089580916A02A6
:104530008770089590916A02977081E009F480E095
:10454000089580917602089590917602892B809348
:104550007602089580959091760289238093760261
:10456000089510927602089590917502892B809398
:104570007502089580959091750289238093750244
:10458000089510927502089590917402892B80937A
:104590007402089580959091740289238093740227
:1045A000089510927402089580916B020895089501
:1045B0000C94D7220C94D82290916B02981721F07A
:1045C00080936B020C94DA22089580916B02882309
:1045D00029F010926B0280E00C94DA220895E091A9
:1045E0001601F0911701809176028083E091160107
:1045F000F0911701908180917502892B8083E09161
:104600001601F0911701908180917402892B8083AB
:1046100080916B02882381F0E0911601F0911701DF
:104620009081892B808380911601909117010E94BF
:104630001A2481110E94E5228091160190911701A0
:104640000C9446170C94D72298E0899F900111246E
:10465000262B20936A020E94292180916A02859567
:10466000859585950C94222310926A0280E00C9423
:10467000222320916A028095822380936A02982FD8
:10468000977079F430E0482F082E000C550B241752
:10469000350739F08595859585950E944A210C94BA
:1046A000342308959093BB018093BA0108958295B5
:1046B000982F937344E0949F900111248C7C8695ED
:1046C0008695282B822F8575880F2A7A2695822B2E
:1046D000089580E090E00E94AC3521E08C3E9E4F32
:1046E00009F020E0822F089582E090E00C949E353E
:1046F00083E090E00C949E35CF9384E090E00E949C
:104700009E35C82F81E290E00E949E352C2F30E02C
:10471000A901582BCA01CF910895CF93C92F682FB3
:1047200084E090E00E94B2356C2F81E290E0CF915E
:104730000C94B235AB01BC018FE090E00C94C43511
:10474000AB01BC0183E190E00C94C43560E070E003
:10475000CB010C94A02360E070E0CB010E949A236F
:104760000C94A6236CEE7EEF80E090E00E94D035A2
:1047700060E082E090E00E94B23560E083E090E08B
:104780000E94B2351092660210926702109268027F
:104790001092690260E084E090E00E94B23560E02F
:1047A00081E290E00E94B23560E085E090E00E94F6
:1047B000B23560E086E090E00E94B2356FEF87E0AE
:1047C00090E00E94B23540E050E0BA0188E090E00D
:1047D0000E94C43560E08DE090E00E94B23540E078
:1047E00050E0BA0188E190E00E94C43560E087E1C2
:1047F00090E00E94B23540E050E0BA018CE190E0D8
:104800000E94C43560E080E290E00E94B2350C94D2
:10481000AB230C94B2238EE090E00E949E3591E091
:10482000811101C090E0892F0895682F8EE090E0FB
:104830000C94B235FC01329697E080E0915029F05B
:1048400021912223D9F38F5FF9CF0895662349F090
:10485000FC01329608962191621729F0E817F907B2
:10486000D1F780E0089581E008959C01FC01329623
:104870009FEF80E04191461789F09F3F19F4411165
:1048800001C0982F8F5F8630A9F79F3F39F0F9015B
:10489000E90FF11D97FDFA956283089508959C0133
:1048A0002A5F3F4FFC014281461301C012820196EC
:1048B00082179307B9F708950C9435240C944F246C
:1048C000029626E0FC0111922A95E9F708950895D1
:1048D0000C9467240C946724CF930E946A240E944E
:1048E000690D0E946824C0E08C2F0E94800C811109
:1048F00004C0CF5FCE30C1F701C081E0CF910895F1
:104900000C9467240C9480240E94822480910E03CE
:10491000843049F11092780220E488E190E00FB6EB
:10492000F894A895809360000FBE2093600080E00B
:104930000E94FA090E94822483B7817F846083BF2A
:1049400083B7816083BF7894889583B78E7F83BF58
:104950000FB6F894A89580916000886180936000FC
:10496000109260000FBE08950C9467240E94991C59
:104970000E943A170E94FA090C94B4241F920F92D5
:104980000FB60F9211248F939F93AF93BF93809193
:104990007802811113C08091040390910503A091C6
:1049A0000603B09107034196A11DB11D8093040336
:1049B00090930503A0930603B0930703BF91AF91B3
:1049C0009F918F910F900FBE0F901F90189582E0CE
:1049D00084BD93E095BD9AEF97BD80936E000895D6
:1049E0002FB7F8948091040390910503A0910603DA
:1049F000B09107032FBF08952FB7F8946091040377
:104A00007091050380910603909107032FBF0895CD
:104A10009C014FB7F8948091040390910503A091F5
:104A20000603B09107034FBF821B930B0895789440
:104A30001F920F920FB60F9211248F939F93AF93F3
:104A4000BF938091040390910503A0910603B09158
:104A500007030196A11DB11D8093040390930503E4
:104A6000A0930603B0930703BF91AF919F918F91DD
:104A70000F900FBE0F901F90189587E797E79093C0
:104A80000108809300089AE088E10FB6F894A89591
:104A9000809360000FBE90936000FFCF0E94692357
:104AA000811102C00E9409240E947423809377021E
:104AB0000E947C2390930903809308030E9478232B
:104AC000682F70E080E090E00C94C9208091820211
:104AD00080FF0BC060911C0185E0689FB00111242C
:104AE00075956795759567952BC081FF09C0609195
:104AF0001C0185E0689FB00111247595679520C061
:104B000082FF07C060911C0185E0689FB0011124FD
:104B100017C0909181029923D1F060911B019617E3
:104B200088F720911C0185E0289F90011124929F15
:104B3000A001939F500D112470E0CA010E9484359A
:104B40006038710540F46115710519F406C065E01F
:104B500070E0862F08958FE7089581E00895809191
:104B6000820280FF08C06091190170E07595679519
:104B70007595679521C081FF06C06091190170E0AD
:104B80007595679519C082FF04C06091190170E0A6
:104B900010C090918102992399F0609118019617A5
:104BA000A0F780911901899FC001112470E00E9433
:104BB00084356038710540F46115710519F406C03B
:104BC00061E070E0862F08958FE7089581E00895F1
:104BD000803F21F40E946625819504C0813F29F41D
:104BE0000E946625809386020895823F21F40E94E8
:104BF0006625819504C0833F29F40E946625809331
:104C000085020895893F19F40E94AF2505C08A3FA7
:104C100031F40E94AF2581958093870208958B3FE0
:104C200021F40E94AF25819504C08C3F29F40E9495
:104C3000AF25809388020895843F21F480918402F7
:104C4000816017C0853F21F480918402826011C089
:104C5000863F21F48091840284600BC0873F21F459
:104C600080918402886005C0883F31F4809184027D
:104C700080618093840208958D3F21F480918202A7
:104C800081600BC08E3F21F480918202826005C05A
:104C90008F3F29F48091820284608093820208957C
:104CA000803F39F48091860287FF6CC010928602A3
:104CB00069C0813F29F4809186021816BCF362C056
:104CC00090918502823F29F497FF5CC01092850283
:104CD00059C0833F19F41916CCF354C0893F41F4ED
:104CE0008091870218160CF04DC0109287024AC0BE
:104CF0008A3F29F48091870287FF44C0F6CF8B3F1B
:104D000039F48091880287FF3DC0109288023AC032
:104D10008C3F29F4809188021816BCF333C0843F7D
:104D200021F4809184028E7F17C0853F21F4809109
:104D300084028D7F11C0863F21F4809184028B7F95
:104D40000BC0873F21F480918402877F05C0883F94
:104D500031F4809184028F7E8093840213C08D3F52
:104D600021F4809182028E7F0BC08E3F21F48091CE
:104D700082028D7F05C08F3F29F4809182028B7F54
:104D8000809382028091850281110EC080918602FB
:104D900081110AC080918702811106C0809188022A
:104DA000811102C01092810208958091770283FFE1
:104DB0007EC084ED96E00E94D408809184021F9208
:104DC0008F938FEC96E09F938F930E946D098DECEB
:104DD00096E00E94D40880918502282F082E000CAE
:104DE000330B3F938F938AEC96E09F938F930E94AF
:104DF0006D0988EC96E00E94D40880918602282FE5
:104E0000082E000C330B3F938F9385EC96E09F9315
:104E10008F930E946D0983EC96E00E94D4088091E4
:104E20008702282F082E000C330B3F938F9380ECC2
:104E300096E09F938F930E946D098EEB96E00E94FF
:104E4000D40880918802282F082E000C330B3F9342
:104E50008F938BEB96E09F938F930E946D0988EB65
:104E600096E00E94D408809181021F928F9385EB77
:104E700096E09F938F930E946D0983EB96E00E94CA
:104E8000D408809182021F928F9380EB96E09F93CB
:104E90008F930E946D098DEA96E00E94D4088DB729
:104EA0009EB74C960FB6F8949EBF0FBE8DBF83E899
:104EB00092E00E948F170E94F024909380028093CA
:104EC0007F020895CF93DF9300D000D000D0CDB7FC
:104ED000DEB786E0E3E8F2E0DE01119601900D9284
:104EE0008A95E1F780918502811105C08091860243
:104EF000882309F47AC080917D0290917E020E94FD
:104F00000825AC0190918102992339F020911D016F
:104F100030E02417350758F068C020917A028AE003
:104F2000289F900111242417350718F05EC09F3F79
:104F300019F09F5F9093810210928702109288026D
:104F400080918502181624F40E94662580938502BC
:104F50008091850287FF05C00E9466258195809318
:104F6000850280918602181624F40E94662580939B
:104F700086028091860287FF05C00E946625819582
:104F800080938602309185023323E1F020918602DE
:104F90002223C1F045EB3403C0011124992319F0F9
:104FA0009093850203C081E08093850235EB230353
:104FB000C0011124992319F09093860203C081E067
:104FC000809386020E94D52680917F029091800274
:104FD00090937E0280937D0286E0FE013196A3E8E5
:104FE000B2E001900D928A95E1F7809187028111DC
:104FF00005C080918802882309F47AC080917B02E1
:1050000090917C020E940825AC0190918102992325
:1050100039F020911A0130E02417350758F068C0A4
:10502000209179028AE0289F9001112424173507E6
:1050300018F05EC09F3F19F09F5F9093810210921D
:1050400085021092860280918702181624F40E942D
:10505000AF25809387028091870287FF05C00E9459
:10506000AF2581958093870280918802181624F4D9
:105070000E94AF25809388028091880287FF05C037
:105080000E94AF2581958093880230918702332357
:10509000E1F0209188022223C1F045EB3403C001E6
:1050A0001124992319F09093870203C081E0809323
:1050B000870235EB2303C0011124992319F0909343
:1050C000880203C081E0809388020E94D5268091E7
:1050D0007F029091800290937C0280937B0286E015
:1050E000FE013196A3E8B2E001900D928A95E1F7B6
:1050F00026960FB6F894DEBF0FBECDBFDF91CF91DD
:105100000895E3E8F2E086E0DF011D928A95E9F771
:105110001092810210928202089587EF98E00E9417
:10512000D4081F9281E08F931F9285E08F9389EAC4
:1051300098E09F938F930E946D090F900F900F90AE
:105140000F900F900F9008958330E9F128F481308B
:1051500061F0823009F10895853009F462C008F4E5
:1051600049C0863009F474C0089580917A02262FD0
:1051700030E0280F311D2F3F310524F4680F609374
:105180007A0203C08FEF80937A0280917A021F9295
:105190008F9382EE97E072C080911D01262F30E040
:1051A000280F311D2F3F310524F4680F60931D0136
:1051B00003C08FEF80931D0180911D011F928F937B
:1051C00080ED97E05BC080911C01262F30E0280F16
:1051D000311D2F3F310524F4680F60931C0103C07B
:1051E0008FEF80931C0180911C011F928F938DEB98
:1051F00097E044C080911B01262F30E0280F311D1D
:105200002F3F310524F4680F60931B0103C08FEF1B
:1052100080931B0180911B011F928F9388EA97E076
:105220002DC080911901262F30E0280F311D2F3F0E
:10523000310524F4680F6093190103C08FEF809348
:105240001901809119011F928F938FE897E016C082
:1052500080911801262F30E0280F311D2F3F310596
:1052600024F4680F6093180103C08FEF8093180136
:10527000809118011F928F9384E797E09F938F93FB
:105280000E946D090F900F900F900F90089583303A
:1052900081F128F4813059F08230D1F008958530C1
:1052A00009F449C0B8F1863009F456C008958091D8
:1052B0007A02681720F4861B80937A0202C010924B
:1052C0007A0280917A021F928F9385E697E054C00C
:1052D00080911D01681720F4861B80931D0102C078
:1052E00010921D0180911D011F928F9383E597E01D
:1052F00043C080911C01681720F4861B80931C0119
:1053000002C010921C0180911C011F928F9380E4B7
:1053100097E032C080911B01681720F4861B8093B0
:105320001B0102C010921B0180911B011F928F93E1
:105330008BE297E021C080911901681720F4861B49
:105340008093190102C010921901809119011F92D6
:105350008F9382E197E010C080911801681720F4C4
:10536000861B8093180102C01092180180911801C9
:105370001F928F9387EF96E09F938F930E946D0902
:105380000F900F900F900F900895CF93C82F1F92FA
:105390008F938CEF99E09F938F930E946D0981E02A
:1053A00090E0A0E0B0E0BC01CD0104C0660F771F23
:1053B000881F991FCA95D2F70E94C9200F900F909D
:1053C0000F900F90CF910C94991CCF93DF938B315A
:1053D00009F4EAC108F08BC18B3009F4AEC108F0C2
:1053E00065C1863009F4ACC120F4853009F4BAC136
:1053F0005DC2873009F4BDC1883009F057C281E32E
:105400009FE00E94D40882E89EE00E94D4080E9497
:1054100078231F928F938FE79EE09F938F930E9434
:105420006D098DE79EE00E94D4080E947423C82F66
:105430008AE69EE00E94D4081F92CF9385E69EE004
:105440009F938F930E946D0983E69EE00E94D4088B
:1054500089E59EE00E94D4088C2F81701F928F9363
:1054600086E59EE09F938F930E946D0984E59EE000
:105470000E94D4088AE49EE00E94D408C1FB8827D9
:1054800080F91F928F9387E49EE09F938F930E94F1
:105490006D0985E49EE00E94D40889E39EE00E94A5
:1054A000D408C2FB882780F91F928F9386E39EE081
:1054B0009F938F930E946D0984E39EE00E94D4081D
:1054C0008BE29EE00E94D408C3FBCC27C0F91F9258
:1054D000CF9388E29EE09F938F930E946D0986E2AE
:1054E0009EE00E94D4080E947C23EC0182E19EE0B1
:1054F0000E94D408DF93CF938DE09EE09F938F931B
:105500000E946D098BE09EE00E94D40882EF9DE02E
:105510000E94D4088C2F81701F928F938FEE9DE094
:105520009F938F930E946D098DB79EB780960FB69B
:10553000F8949EBF0FBE8DBF8DEE9DE00E94D408F3
:1055400086ED9DE00E94D408C1FB882780F91F9258
:105550008F9383ED9DE09F938F930E946D0981ED62
:105560009DE00E94D4088FEB9DE00E94D4088D2F0F
:1055700081701F928F938CEB9DE09F938F930E947D
:105580006D098AEB9DE00E94D40888EA9DE00E94A4
:10559000D408D695D1701F92DF9385EA9DE09F9342
:1055A0008F930E946D0983EA9DE00E94D40881E9EF
:1055B0009DE00E94D408C2FB882780F91F928F9338
:1055C0008EE89DE09F938F930E946D098CE89DE08B
:1055D0000E94D4088AE79DE00E94D408C3FB882774
:1055E00080F91F928F9387E79DE09F938F930E948E
:1055F0006D0985E79DE00E94D4088BE69DE00E943E
:10560000D408C4FB882780F91F928F9388E69DE019
:105610009F938F930E946D0986E69DE00E94D408B7
:1056200084E59DE00E94D408C5FB882780F91F927D
:105630008F9381E59DE09F938F930E946D098FE486
:105640009DE00E94D40883E39DE00E94D408C6FB3D
:10565000882780F91F928F9380E39DE09F938F931B
:105660000E946D098DB79EB780960FB6F8949EBFC5
:105670000FBE8DBF8EE29DE00E94D40886E29DE0C1
:105680000E94D408C7FBCC27C0F91F92CF9383E2B6
:105690009DE09F938F930E946D0981E29DE00E949F
:1056A000D4080F900F900F900F9045C0803109F4EF
:1056B000A5C020F48E3009F48BC0F8C0863109F4FF
:1056C000B8C0893109F0F2C088E49BE00E94D40898
:1056D00084E09BE00E94D4088BEC9AE00E94D408FE
:1056E00085E99AE00E94D4088AE69AE084C08A326A
:1056F000E1F060F4873209F4D5C028F48E3108F463
:10570000D5C08D51D0C0893269F1D0C0833448F4FE
:105710008A3308F0C5C0853309F4C4C0883369F002
:10572000C5C0833409F4BEC0C1C080E29FE00E94BE
:10573000D4080E940924C1E0BEC08EE79BE05BC094
:1057400080917702817F8E7F8093770287E59BE04F
:105750000E94D4088CE19FE00E94D40881E08093ED
:105760008A02E9CF80E09FE00E94D4080E94040AE8
:10577000E2CF80917702C82FC095C170C0FB80F93D
:1057800080937702CC2329F084EF9EE00E94D40816
:1057900092C087EE9EE00E94D40880917702897FB4
:1057A000877F80937702C7CF9091770291FBCC27B8
:1057B000C0F981E0C827892FC0FB81F98093770267
:1057C000CC2319F08AED9EE029C08CEC9EE013C03A
:1057D0009091770292FBCC27C0F981E0C827892FEE
:1057E000C0FB82F980937702CC2319F08DEB9EE009
:1057F00015C08DEA9EE00E94D4089DCF909177025B
:1058000093FBCC27C0F981E0C827892FC0FB83F91F
:1058100080937702CC2351F081EA9EE00E94D40865
:105820008091770281608093770245C084E99EE091
:10583000E2CF8CE59AE00E94D4080E943A171F92AA
:105840008F9382E49AE09F938F930E946D098091D9
:1058500028011F928F938BE29AE09F938F930E946F
:105860006D09809197021F928F9388E19AE09F9330
:105870008F930E946D090E94FC249F938F937F93C6
:105880006F9381E09AE09F938F930E946D098DB78B
:105890009EB742960FB6F8949EBF0FBE8DBF4BCFFA
:1058A000895301C080E00E94C52945CF82E99EE06E
:1058B0000E94D408C0E08C2FDF91CF91089580E042
:1058C00008950C945F2C8E518A3030F4E82FF0E06C
:1058D000EF55FE4F8081089580E00895CF93C82F43
:1058E00080918A02813059F020F0823009F445C05D
:1058F00037C10E94A122823209F034C104C00E9443
:10590000A122823261F48C2F0E94612C811104C08B
:105910008C2F0E94E5292FC081E090E02CC08C2FB5
:105920000E945F2C811126C0C431E1F070F4CB30AD
:1059300081F0C031D1F40E948D2884EF99E00E945B
:10594000D40882E080938A0215C0C93259F0C83366
:1059500061F487E59BE00E94D40888EF99E00E94FB
:10596000D40808C010928A02FFC082EF99E00E941A
:10597000D408FAC081E08170F9C0C43218F5CE3184
:1059800008F0BFC0CB3091F1C0F4C73009F0CEC0F1
:1059900010927A0284E180931D01C0931C018CE374
:1059A00080931B0188E08093190188E2809318019D
:1059B00088E998E00E94D408BCC0C33149F1C431E1
:1059C000C1F0B4C0CB3409F4A6C028F4C93289F0C0
:1059D000C83361F0ABC0C13509F49BC0C23509F4CE
:1059E00096C0CE3409F0A2C06AE09BC00E948D2808
:1059F000A0C080918902882319F01092890299C071
:105A000085EA98E00E94D40881E080938A02AEC0C3
:105A10008FE798E00E94D4088DE698E00E94D408B1
:105A200080917A021F928F938AE698E09F938F93DA
:105A30000E946D0988E698E00E94D40886E598E007
:105A40000E94D40880911D011F928F9383E598E0F6
:105A50009F938F930E946D0981E598E00E94D4087E
:105A600082E498E00E94D40880911C011F928F93D9
:105A70008FE398E09F938F930E946D098DE398E0E8
:105A80000E94D4088CE298E00E94D40880911B0107
:105A90001F928F9389E298E09F938F930E946D09E4
:105AA00087E298E00E94D40882E198E00E94D4083E
:105AB000809119011F928F938FE098E09F938F93AD
:105AC0000E946D098DE098E00E94D40886EF97E06F
:105AD0000E94D408809118011F928F9383EF97E062
