:100000000C94C6030C94442C0C940D040C940D0415
:100010000C940D040C940D040C940D040C940D041C
:100020000C940D040C940D040C94B61A0C94F21953
:100030000C94621F0C940D040C940D040C940D048C
:100040000C940D040C940D040C940D040C940D04EC
:100050000C940D040C940B1F0C940D040C940D04C3
:100060000C940D040C940D040C940D040C940D04CC
:100070000C940D040C940D040C940D040C940D04BC
:100080000C940D040C940D040C940D040C940D04AC
:100090000C940D040C940D040C940D040C940D049C
:1000A0000C940D040C940D040C940D043C083F08B2
:1000B00060086D08740894089708CB08ED08870954
:1000C0009109F808FA08FE0821094109440947097D
:1000D0006909380D380D720D720DC50DE10D730FE4
:1000E000730FEC0DCA0EDB0EDB0EB30FDD0FE20F4C
:1000F000E70FEC0FF10FF60FFB0F001005100A10C1
:100100001110141017101A101D1020102310261093
:100110002B10FA172118D4192118D4196D1890181A
:10012000D4199119A119CD22CD22E022E022D622A4
:10013000E022E022E022CD22CD22DB22E022E022DA
:10014000DB2232190A00047F3F1F64321464321428
:10015000783C1E1E140A050000000000000000008C
:1001600000000000000000000000007E0F00D4FF2F
:10017000FFFFC70000007800000000000000002A18
:100180002B2800000000000000000000000000001C
:10019000000029000000002C1E34202122243426D7
:1001A00027252E362D3738271E1F202122232425D0
:1001B000263333362E37381F0405060708090A0B85
:1001C0000C0D0E0F101112131415161718191A1BF7
:1001D0001C1D2F3130232D350405060708090A0B95
:1001E0000C0D0E0F101112131415161718191A1BD7
:1001F0001C1D2F3130354C000101010101010101AD
:1002000001020202020202020202030303030303C9
:100210000303040404040404040505050505060697
:100220000606060707070707080808080909090955
:100230000A0A0A0B0B0B0C0C0C0D0D0D0E0E0E0FFB
:100240000F0F10101111111212131314141515168B
:10025000161717181819191A1A1B1B1C1D1D1E1EFC
:100260001F2020212222232424252626272829294D
:100270002A2B2C2D2D2E2F30313232333435363778
:1002800038393A3B3C3D3E3F404142434445464776
:1002900048494A4C4D4E4F50515354555658595A4F
:1002A0005B5D5E5F616264656668696B6C6D6F70F3
:1002B00072737577787A7B7D7E8082838587888A62
:1002C0008C8E8F91939596989A9C9EA0A2A3A5A799
:1002D000A9ABADAFB1B3B5B7BABCBEC0C2C4C6C995
:1002E000CBCDCFD1D4D6D8DBDDDFE2E4E7E9EBEE4E
:1002F000F0F3F5F8FAFDFFFFAA7F5540050109026A
:10030000A10185020901A1000509190129051500AE
:10031000250195057501810295017503810105018E
:10032000093009311581257F950275088106093844
:100330001581257F950175088106050C0A3802157F
:1003400081257F950175088106C0C005010980A13E
:1003500001850319012AB700150126B7009501751B
:10036000108100C0050C0901A101850419012AA012
:1003700002150126A002950175108100C00660FFDC
:100380000961A1010962150026FF00952075088109
:10039000020963150026FF00952075089102C0052B
:1003A000010906A101050719E029E71500250195B6
:1003B0000875018102950175088101050719002959
:1003C000FF150026FF009506750881000508190134
:1003D0002905950575019102950175039101C009E3
:1003E000025B00030100A0FA0904000001030101FF
:1003F00000092111010001224000070581030800C6
:100400000A09040100020300000009211101000192
:1004100022220007058203200001070503032000B4
:10042000010904020001030000000921110100017B
:100430002281000705840320000A12011001000038
:1004400000084D4436360100010203010403300068
:1004500000002C03440061006300740079006C000C
:100460002D004D0061006E00750066006F00720087
:100470006D002000280036007800360029000000BA
:100480000E037400730068006F00720074000000B7
:10049000040309042223252628292A2C2D2F303253
:1004A000333536383A3B3D3E4042434547494A4C56
:1004B0004E5051535557595A5C5E60626466686984
:1004C0006B6D6F71737577797B7D7F81838587898C
:1004D0008A8C8E90929496989A9C9E9FA1A3A5A791
:1004E000A8AAACAEAFB1B3B4B6B8B9BBBCBEBFC1BD
:1004F000C2C3C5C6C7C9CACBCCCDCED0D1D2D2D348
:10050000D4D5D6D7D7D8D9D9DADADBDBDBDCDCDC5B
:10051000DCDCDDDDDDDDDCDCDCDCDCDBDBDBDADA1E
:10052000D9D9D8D7D7D6D5D4D3D2D2D1D0CECDCC95
:10053000CBCAC9C7C6C5C3C2C1BFBEBCBBB9B8B6AA
:10054000B4B3B1AFAEACAAA8A7A5A3A19F9E9C9A35
:1005500098969492908E8C8A89878583817F7D7B03
:1005600079777573716F6D6B6968666462605E5CE4
:100570005A5957555351504E4C4A494745434240AA
:100580003E3D3B3A3836353332302F2D2C2A292840
:10059000262523223A003B003C003D003E003F0060
:1005A00029001E001F002000210022002B00140043
:1005B0001A00080015001700E100040016000700EB
:1005C00009000A00E0001D001B00060019000500DC
:1005D000000000002F00300002512C00000000003D
:1005E0002A0035002B004A00400041004200430031
:1005F00044004500230024002500260027002A008F
:100600001C0018000C00120013002D000B000D0040
:100610000E000F00330034001100100036003700C8
:1006200038003100280001512E022E000000000089
:100630004D004C00E300E200000000003A003B00E7
:100640003C003D003E003F0035021E021F0220021A
:1006500021022202010001000100010001002F001F
:1006600001004A004B004E004D002602010001002F
:10067000010001000100010000000000010046002F
:100680000100010000000000010001000100010064
:100690004000410042004300440045002302240280
:1006A0002502260227024C0030005F006000610036
:1006B00001002E0227025C005D005E002D00310269
:1006C000010059005A005B002E002D0201000100BC
:1006D00001006200000000000100010001000100B3
:1006E0000000000045003A003B003C003D003E0099
:1006F000010001000100010001002F000100500075
:10070000520051004F0026020100010001000100CB
:1007100001000100010001000100010001000100D1
:1007200000000000010001000100010000000000C5
:1007300001000100010001003F00400041004200B3
:100740004300440030000100530049004700A80066
:100750002702AC00AE00AB000100A90001000100BF
:10076000010001000100AA000100010001000100D8
:1007700001000100010001002E0001000000000046
:1007800001000100010001000000000011241FBE53
:10079000CFEFDAE0DEBFCDBF04B603FE27C0809105
:1007A000990390919A03A0919B03B0919C03873089
:1007B000904BA740B04BD1F41092990310929A033A
:1007C00010929B0310929C0314BE84B7877F84BF52
:1007D0000FB6F894A89580916000886180936000BE
:1007E000109260000FBEE0E0F8E3099523E0A0EC72
:1007F000B1E001C01D92A939B207E1F711E0A0E014
:10080000B1E0E8E7FDE502C005900D92A03CB1071C
:10081000D9F70E940F040C94BA2E0C940000CF93C9
:10082000DF93CDB7DEB7AA970FB6F894DEBF0FBE41
:10083000CDBF84B7877F84BF0FB6F894A895809109
:100840006000886180936000109260000FBE90E0AD
:1008500080E80FB6F89480936100909361000FBE1A
:1008600085B7806885BF85B7806885BF0E94361AC6
:100870000E94551A8091E20084608093E20078948F
:10088000809145028823A1F01091E9001F7090919A
:10089000EC00892F817090FD80E8182B1092E90000
:1008A0008091E80083FD0E9414171F701093E900E7
:1008B00082E084BD93E095BD9AEF97BD80936E0072
:1008C0008EE090E00E94B32D91E0811101C090E094
:1008D0009093190180911901882321F0109204014D
:1008E0008CE003C08CE080930401809305010E949A
:1008F000E012882331F062E070E089E091E00E942C
:10090000F22B8091190180911901882311F090E058
:1009100001C097E09093E00187E0891B8093DF019D
:10092000A7E3B1E04EE351E061E070E08D91E82F84
:10093000E295EF70F0E021A18F708B0102C0000FF3
:10094000111F8A95E2F7C801902F9095922391A3E9
:1009500092A1892B82A34A175B0741F7A5E4B1E076
:100960004BE451E061E070E08D91E82FE295EF708B
:10097000F0E021A18F708B0102C0000F111F8A953A
:10098000E2F7C801902F9095922391A392A1892B11
:1009900082A34A175B0741F7E1EDF1E08FED91E0AB
:1009A000A6E1B2E011921D928E179F07D9F70E941F
:1009B000F6148FE39CE90197F1F700C000000E9454
:1009C000F6148091160280FF0AC080E00E943C2B42
:1009D0006FEF7FEF80E090E00E94E52DAEC480E0F5
:1009E00090E00E94C12D8C3E9E4F11F00E94C31FCB
:1009F0000E94E012811106C062E070E089E091E09F
:100A00000E94FB2B82E290E00E94B32D803281F4A1
:100A100083E290E00E94B32D883051F484E290E0AC
:100A20000E94B32D91E0813009F090E0892F01C040
:100A300080E080FFA9C480E090E00E94C12D8C3E40
:100A40009E4F11F00E94C31F82E090E00E94B32DE0
:100A5000809302020E94B21F9093E2018093E10111
:100A600083E090E00E94B32D682F70E080E090E07A
:100A70000E9468218091E30181113BC080E090E0F9
:100A80000E94C12D8C3E9E4F21F00E94C31F0E94E8
:100A9000371188E090E00E94BB2D609311027093A3
:100AA000120280931302909314028091F2018360EA
:100AB0008093F2016E7F71F40E94371188E090E01C
:100AC0000E94BB2D60931102709312028093130257
:100AD000909314020E94F0100E94722B80911102D8
:100AE00080FF04C060E086950E94A31481E080939B
:100AF000E3018BE191E09093E5018093E4019E0195
:100B00002F5F3F4F79013E0131E1630E711CA5E477
:100B1000AA2EA1E0BA2E80914502853009F03AC094
:100B200080914502843021F11092E60120E488E1B1
:100B300090E00FB6F894A895809360000FBE2093C4
:100B4000600083B7817F846083BF83B7816083BF88
:100B50007894889583B78E7F83BF0FB6F894A89555
:100B600080916000886180936000109260000FBEE9
:100B700080913B02882309F4CECF0E94F61484E2D0
:100B800092E0E6E1F2E021912111DFC38E179F0789
:100B9000D1F7C1CF0E94F6140E94E0128823A1F180
:100BA000A3E0B2E0E6E1F2E000E010E0302F2191B6
:100BB0009D91922721F180E0DD24D394492F4D218E
:100BC000D1F089A33AA32D2181E009F480E08BA321
:100BD0000E94401F8160782F9DA38CA349A15AA138
:100BE0006BA18DA10E947D29F801ED5FFD4F8081F1
:100BF000D826D08219C08F5FDD0C8630F9F60F5FE2
:100C00001F4F0E30110591F68FEF8EA38FA318A6FC
:100C10000E94401F8160782F9AA789A74EA15FA1EB
:100C200068A58AA50E947D298091F101882309F495
:100C3000D4C08091F001E0911102E695E81BE093A9
:100C4000EC01823059F4F0E0ED5AFE4FE4910E2FA2
:100C500010E0F9E6CF2EF9E2DF2E6AC0863059F4B3
:100C6000F0E0E05BFE4FE4910E2F10E0E9E5CE2EC0
:100C7000E9E2DE2E5DC0893061F4E695F0E0E35BE9
:100C8000FE4FE4910E2F10E07EEDC72E78E2D72EB6
:100C90004FC08F3061F4E695F0E0E65BFE4FE491E3
:100CA0000E2F10E061E4C62E68E2D62E41C08531D9
:100CB00059F4F0E0E95BFE4FE4910E2F10E05BEB9E
:100CC000C52E57E2D52E34C08831F1F0833241F47D
:100CD000F5010591149149E1C42E49E2D42E28C0B2
:100CE0008432C9F08532F1F48E2F63E00E945E2ECB
:100CF000E92FF0E0EE5BFE4FE4910E2F10E034E8B8
:100D0000C32E36E2D32E14C008EE13E022E8C22E22
:100D100027E2D22E0DC004EF11E093E4C92E97E232
:100D2000D92E06C000ED17E083E8C82E86E2D82E43
:100D30008091ED01882389F01092ED010E94401FFF
:100D4000980120953095820F931F9093EB0180932B
:100D5000EA011092EF011092EE018091EA01909168
:100D6000EB010E94311F80179107B8F18091E901D2
:100D70008823B1F01092E9018091E7019091E80198
:100D80000E94311F8033954758F00E94401F909376
:100D9000E8018093E7018091F20188608093F2017D
:100DA0008090EE019090EF01E091EA01F091EB016B
:100DB0000E0F1F1F1093EB010093EA018AEE91E0E2
:100DC000F60109958091EE019091EF01892B29F4AC
:100DD000892819F081E08093E90186E0EBEFF1E0EA
:100DE000D70101900D928A95E1F78091FD01811163
:100DF00005C08091FE01882309F479C08091F90132
:100E00009091FA010E94311FAC019091F801992351
:100E100039F020911A0130E02417350758F067C0E7
:100E20002091F701FAE02F9F900111242417350734
:100E300018F05DC09F3F19F09F5F9093F8011092EA
:100E4000FF01109200028091FD01181624F40E9407
:100E5000491E8093FD018091FD0187FF05C00E941E
:100E6000491E81958093FD018091FE01181624F49E
:100E70000E94491E8093FE018091FE0187FF05C0FC
:100E80000E94491E81958093FE013091FD0133231C
:100E9000E1F02091FE012223C1F005EB3003C001F7
:100EA0001124992319F09093FD0103C081E08093F0
:100EB000FD0115EB2103C0011124992319F0909332
:100EC000FE0103C081E08093FE010E944C1F8091CF
:100ED000F5019091F6019093FA018093F90186E073
:100EE000F701ABEFB1E001900D928A95E1F78091A7
:100EF000FF01811105C080910002882309F46DC0B3
:100F00008091F3019091F4010E94311F9C01909116
:100F1000F801992309F445C22536310508F45DC06E
:100F20009F3F19F09F5F9093F8011092FD0110927E
:100F3000FE018091FF01181624F40E94101E809378
:100F4000FF018091FF0187FF05C00E94101E81955F
:100F50008093FF0180910002181624F40E94101E55
:100F6000809300028091000287FF05C00E94101E3E
:100F70008195809300023091FF013323E1F02091AD
:100F800000022223C1F045EB3403C0011124992350
:100F900019F09093FF0103C081E08093FF0105EBFE
:100FA0002003C0011124992319F09093000203C07B
:100FB00081E0809300020E944C1F8091F501909186
:100FC000F6019093F4018093F30186E0F701ABEF13
:100FD000B1E001900D928A95E1F70E94452A909127
:100FE0000102891721F00E94452A80930102809115
:100FF0004502843009F08FCD83E08093E900809131
:10100000E80082FF88CD8091E80085FF1FC00E9424
:101010008F1B811119C000E210E0670108C08091A8
:10102000F100F60181936F010150110969F080917F
:10103000E80085FDF4CF8091E8008B778093E8008D
:101040000E948F1B882399F391E001C090E080916A
:10105000E8008B778093E800992309F45CCDE9815F
:101060008E2F90E0FC013197E331F10508F067C164
:10107000EA5AFF4F0C94A02E1A8289E0A7C08A81F9
:10108000823009F478C1833089F0813009F057C18A
:101090002FB7F8948091240290912502A091260206
:1010A000B09127022FBFBB83AC831CC0FE013396D7
:1010B000A6E1B2E08D918193E615F705D9F741C11C
:1010C0008A81823009F03BC16B817C818D819E8158
:1010D0000E94A62E85E290E024C04C816B818A811B
:1010E0000E94092B9D834EC1CD80DE80DC24CD245F
:1010F000DC248C810B819A81FCE00F9F80011124FC
:1011000028EA929F000D111D1124080F111D080FD0
:10111000111D6D2DC80186960E94C72D6C2DC8012A
:1011200087960E94C72D0DC10E94D52A0AC18A81C7
:101130008138B1F050F4803809F003C120E04B81D0
:10114000609113028091120223C08238E9F0833843
:1011500009F0F7C020E0409114026C818B8118C027
:1011600060E08B810E94A3148B81811103C00E94D7
:101170008C14E7C08091110281608093110260E0BD
:1011800086950E94A314DDC08B8180931502D9C07F
:101190000E94FC11D6C08A81813899F030F48038E1
:1011A00009F0CFC08091140211C0823899F08338C1
:1011B00009F0C7C0809112028B83809113028C8347
:1011C000C0C08091110280FF03C086958B83B9C097
:1011D00080E0FCCF80911502F9CF609111027091EF
:1011E000120280911302909114020E940311A9C06F
:1011F00080E14BC081E08A838AE3E8CF0A811B81CA
:101200001027012710278C80912C6701C8018A5371
:101210009D4F96012E193F092815390508F091C0F8
:101220000A3331E0130728F40E94B32DF6018483BA
:1012300002C0F60114820F5F1F4FFFEFCF1ADF0AC3
:10124000E5CF0A811B811027012710278C80912C64
:101250006701C8018A539D4F96012E193F09281531
:10126000390508F06EC00A3321E0120720F4F601B8
:1012700064810E94C72D0F5F1F4FFFEFCF1ADF0A57
:10128000E8CF0E94C52A5DC084E08A835AC00A81E3
:101290001B811027012710278C80912C6701C80122
:1012A000869696012E193F092815390508F049C080
:1012B000003A22E0120728F40E94B32DF60184833D
:1012C00002C0F60114820F5F1F4FFFEFCF1ADF0A33
:1012D000E6CF0A811B811027012710278C80912CD3
:1012E0006701C801869696012E193F092815390510
:1012F00040F5003A22E0120720F4F60164810E94D2
:10130000C72D0F5F1F4FFFEFCF1ADF0AEACF80E034
:101310000E943C2B6FEF7FEF80E090E00E94E52D74
:1013200010C0C7010E94EE1B0FEF11EE24E0015028
:1013300010402040E1F700C000000E94FA1E8FEF2D
:101340008983C7010E94EE1BE6CB80E189BD82E163
:1013500089BD09B400FEFDCF8091D8008F7D8093B8
:10136000D8008091E00082608093E0008091E000EE
:1013700081FDFCCFD0CB85E290E00E94B32D1B8293
:101380001C821D828E83DDCF60E085E290E00E94AA
:10139000C72D0E94D52A0E94C52A81E00E943C2BBD
:1013A0004ACB232B09F0BECD18CE5F926F927F926D
:1013B0008F929F92AF92BF92CF92DF92EF92FF9265
:1013C0000F931F93CF93DF93CDB7DEB729970FB657
:1013D000F894DEBF0FBECDBFFC01808191812381D7
:1013E0003481232B31F09F3F31F491E08F3F19F48A
:1013F00003C091E001C090E090FD32C67F0185E01E
:10140000DE01119601900D928A95E1F7F701228194
:1014100089819A81222349F00E945920182F682F30
:1014200089819A810E94D32003C00E94A620182F90
:1014300069817A81812F0E942F2B8C01F701928183
:10144000992309F4DFC0980122513F45203131052D
:1014500008F004C18FEF93E00E94B32D8111DCC02E
:10146000025136EC832E32E0932E002379F0811462
:10147000F4E09F0609F4D0C0C4010E94B32D81118D
:1014800001C001501FEF811A910AEFCF1E821F8207
:1014900018861986662463942AE0522E84010F5F11
:1014A0001F4FC4010E94B32D8E831F82882309F42D
:1014B000B3C09FEF980F933060F48F836E8222E069
:1014C000820E911CC8010E94B32D8887811102C031
:1014D000A3C048018E010A5F1F4FF801208122231B
:1014E000E9F2213009F04CC08181813049F4680172
:1014F000F2E0CF0ED11CF80182810E9470260AC052
:10150000823051F46801F2E0CF0ED11CF8018281E3
:101510000E944925860173C0833049F46801F2E0D6
:10152000CF0ED11CF80182810E94E224F3CF8430D7
:1015300019F00F5F1F4F63C0F80122810E5F1F4F2C
:1015400080E090E030E0205331092A30310568F422
:10155000589EA001599E500D1124C901840F951F5A
:101560000F5F1F4FF8012081EDCF009709F447C0AE
:10157000EFE9FFE03197F1F700C000000197F5CFE8
:10158000E22FF0E0E958FE4F7490822F8695869501
:10159000869590E0FC01E959FE4FA4902770B12C8C
:1015A000022E02C0B594A7940A94E2F7F1E0AF22AC
:1015B000BB24FC01E95AFE4FC490D12C02C0D59443
:1015C000C7942A95E2F721E0C222DD24A114B104D8
:1015D00019F081EE0E944925C114D10419F086EE5C
:1015E0000E944925872D0E947026CD2819F086EE8D
:1015F0000E94E224AB2819F081EE0E94E2240F5FE2
:101600001F4F6BCF00313FE5130709F09FC481E006
:101610000E9409210E94F6168091C102877009F488
:101620001FC5F7018281882309F41AC582E0299633
:101630000FB6F894DEBF0FBECDBFDF91CF911F91E3
:101640000F91FF90EF90DF90CF90BF90AF909F9061
:101650008F907F906F905F900C942E210031FFE56A
:101660001F0711F481E005C001312FE5120721F4B5
:1016700082E00E944721CECF033FFCE51F0739F4EB
:1016800026E241EE60EEC7010E94512AC5CF043F19
:101690002CE5120708F043C1083D3CE5130721F48F
:1016A00027E245EE65EEEFCF093D8CE5180719F40A
:1016B00028E241E0F7CF073DECE51E0721F426E2E2
:1016C00041EE61EEE0CF992309F458C1109228024F
:1016D00002303CE5130708F43BC106318CE51807DE
:1016E00038F098012A5F3C452930310508F030C1B7
:1016F0000E94B21F9093E2018093E10100319CE5CA
:10170000190709F4C3C008F041C00830FCE51F0701
:1017100009F49AC0F0F404303CE5130709F487C0DB
:1017200068F402309CE5190709F477C003301C45C2
:1017300009F0E5C08091E101826076C00630FCE5E9
:101740001F0709F46EC008F07BC08091E10188603A
:101750006BC00C303CE5130709F485C068F40A300F
:101760009CE5190709F474C008F079C00E94C224EE
:101770008091E101806858C00E30FCE51F0709F434
:1017800076C008F07FC08091E1018BC00B3F3CE543
:10179000130709F44FC018F503319CE5190709F444
:1017A0007DC078F40131FCE51F0709F473C00231F4
:1017B0001C4509F0A4C00E94C2248091E1018F77EA
:1017C00033C005313CE5130709F472C008F486C044
:1017D0000A3F1C4509F093C08091E2013EC00F3FD3
:1017E000ECE51E0709F45FC058F40D3F2CE5120725
:1017F00009F444C008F43FC08091E20182602DC02A
:1018000001308DE5180709F475C008F45DC0023099
:101810001D4509F074C060E06EC08091E1018160F7
:1018200003C08091E10180618093E10168C08091F3
:10183000E10111C08091E20182608093E2015FC00A
:101840008091E1018062F0CF8091E1018064ECCF72
:101850008091E10188608460E7CF8160EECF809164
:10186000E1018E7FE1CF8091E1018D7FDDCF80911D
:10187000E101877FD9CF8091E20118C08091E20118
:101880008D7FDBCF8091E1018F7ECECF8091E10112
:101890008F7DCACF8091E1018F7BC6CF8091E1011E
:1018A000877F8B7FC1CF8091E2018D7F8E7FC5CFF7
:1018B0008091E10182FB222720F991E0922790FBA1
:1018C00082F990FB83F9B0CF8091E201982F909537
:1018D00091708E7F892B90FB81F9AFCF0E94C2243B
:1018E0008091E10187FB222720F991E0922790FB6C
:1018F00087F99ACF61E08EE090E00E94C72D609159
:10190000E1011091E20184E090E00E94C72D612F77
:1019100081E290E00E94C72D0E94C2247DCE053F47
:10192000FCE51F0721F426E241EE62EEACCE053F56
:101930002CE5120720F427E245EE64EEA4CE063F24
:101940003CE5130709F0BFCE27E245EE66EE9BCEDD
:1019500006318CE5180719F58091C4028A7A91E066
:1019600009F490E090932902882311F065E301C007
:1019700069E28AE492E00E94981F0EC00631ECE50D
:101980001E0721F580912902882309F4E6C265E348
:101990008AE492E00E948B1F0E942C203DCE01150C
:1019A0002CE5120731F00E3D1C45D1F40E94C31FF7
:1019B00033CE0E94C2248FEF94E3ECE0815090403C
:1019C000E040E1F700C000000E94FA1E8091C402CE
:1019D0008272F801E25CFC45E431F10508F4BFC213
:1019E000F70100811181992349F0C8010E94592013
:1019F000D82E682FC8010E94D32004C0C8010E94BD
:101A0000A620D82EB8018D2D0E94FD128C01982E93
:101A1000F701A580A2949FE0A922D280D110109254
:101A2000C3028091C102877099F0DD2089F0812F77
:101A3000807F803421F080E2800F883048F082E09F
:101A40000E942E218091C1028770CC24C394811101
:101A5000C12CB12EB2948FE0B8228B2D90E08C3047
:101A6000910508F040C2FC01E759FF4F0C94A02EED
:101A7000812F807F1F70882311F01295107FDD2049
:101A8000B9F0112309F41AC280E2800F883010F0F7
:101A9000911006C08091C402182B1093C40205C097
:101AA0008091C302182B1093C3020E942C2006C2FF
:101AB000802F0E94E224112309F415C2005E1095C4
:101AC000083010F0911006C08091C40218231093C2
:101AD000C40205C08091C30218231093C3020E9460
:101AE0002C2001C2812F807F1F70803211F012954F
:101AF000107F992021F0F1E09F16E1F02AC0DD204F
:101B000081F08091C502AA2051F001E0A01207C027
:101B1000182B181709F4E7C11093C502E4C1812BF3
:101B200010C0AA2021F021E0A21609F4DCC10E9415
:101B3000262027C0DD2041F035E03A1508F4D3C156
:101B4000812F0E94D824CFC184E08A1508F4CBC12C
:101B500018C0DD2049F0AA2099F3F701858180FFA4
:101B6000ADC18F708583ECCFAA2059F0093309F0FD
:101B7000B7C1FFEF17EE23E0F15010402040E1F72E
:101B8000ADC1812F0E94CD24AEC1812F869586954F
:101B9000837019F0813059F0A6C1DD2019F0C80119
:101BA000937002C080E090E00E942F2AA2C1DD2045
:101BB00019F0C801937002C080E090E00E94192AD9
:101BC00098C1802FDD2019F00E94921E02C00E9451
:101BD0008B1D0E944C1F8DC1812F837009F069C03D
:101BE000D11085C1902F929596959770990F990F66
:101BF000802F8F70882E912CA12CB12C092E04C01F
:101C0000880C991CAA1CBB1C0A94D2F704FF12C0B2
:101C10004FE050E060E070E004C0440F551F661FC5
:101C2000771F9A95D2F7DB01CA0180959095A09510
:101C3000B09503C080E090E0DC0116951695412F29
:101C40004370423019F1C8F40091C6021091C702E6
:101C50002091C8023091C902413059F08829992950
:101C6000AA29BB29BC01CD016023712382239323C0
:101C70000AC0802A912AA22AB32ABC01CD01682970
:101C800079298A299B290E94682131C188299929AB
:101C9000AA29BB290091C6021091C7022091C8024F
:101CA0003091C902BC01CD0160277127822793279B
:101CB000EACFDD2019F0812F817001C0869588233D
:101CC00009F415C1902F929596959770990F990FD9
:101CD000802F8F70882E912CA12CB12C092E04C03E
:101CE000880C991CAA1CBB1C0A94D2F704FF12C0D2
:101CF0004FE050E060E070E004C0440F551F661FE5
:101D0000771F9A95D2F7DB01CA0180959095A0952F
:101D1000B09503C080E090E0DC0116951695412F48
:101D200043704230D9F068F50091460210914702A5
:101D30002091480230914902413059F0882999296F
:101D4000AA29BB29BC01CD016023712382239323DF
:101D50001EC0802A912AA22AB32A13C08829992951
:101D6000AA29BB29009146021091470220914802FE
:101D700030914902BC01CD0160277127822793274A
:101D800006C0BC01CD01682979298A299B290E94B6
:101D9000FF20ADC01F70DD2039F0812F0E94472148
:101DA000802F0E94D824A3C0802F0E94CD24812F91
:101DB0000E9409219CC0802F32EF931609F440C085
:101DC000391538F090EF991661F0E1EF9E1699F110
:101DD00070C0F3EF9F16D9F124EF921609F44EC0AC
:101DE00068C0DD2019F134E03A1508F47CC01F7199
:101DF00081E090E0A0E0B0E0AC01BD0104C0440F80
:101E0000551F661F771F1A95D2F780914602909151
:101E10004702A0914802B09149028A019B0108271C
:101E200019272A273B27C901B80125C025E02A1513
:101E300008F459C0DCCFDD2029F0812F8F712CC030
:101E4000DD20D9F3812F8F710E9409214CC0DD2044
:101E500079F01F7181E090E0A0E0B0E0BC01CD011D
:101E600004C0660F771F881F991F1A95D2F703C009
:101E700060E070E0CB010E94FF2035C0DD2079F0EA
:101E80001F71812F0E94472138E0139FC001112448
:101E900083608093C102812F0E94472124C081E08A
:101EA0000E942E2181E08A15F0F482E00E942E210A
:101EB0001AC0DD2039F0AA2009F4BFCF802F0E947C
:101EC000492511C0AA2009F4BDCF893349F49FEFF9
:101ED000E7EEF3E09150E040F040E1F700C0000091
:101EE000802F0E94E22488EF8B0D843010F40E9432
:101EF000452ACC2009F4B4C08091C10280FDB0C055
:101F0000F70112828595859585950E944721C70125
:101F10000E94D5098091C102859585958595299660
:101F20000FB6F894DEBF0FBECDBFDF91CF911F91EA
:101F30000F91FF90EF90DF90CF90BF90AF909F9068
:101F40008F907F906F905F900C94092101318FE505
:101F5000180709F091CB82E05BCB69E219CDEB5811
:101F6000FF4F0C94A02E8091110280FF20C08E7F25
:101F700080931102609111027091120280911302FC
:101F8000909114020E9403110E94722B8091F20121
:101F900081608093F201FFEF00E712E0F150004012
:101FA0001040E1F700C000000E94891035CB81602D
:101FB0008093110261E0869550C043EE54E16CEECF
:101FC00074E12CC04CEE54E163EE74E127C04EEC9A
:101FD00052E167ED72E122C047ED52E16EEC72E131
:101FE0001DC046EB52E162EC72E118C042EC52E1D6
:101FF00066EB72E113C04EE952E16AEA72E10EC08B
:102000004AEA52E16EE972E109C045E151E166E256
:1020100071E104C046E251E165E171E10E946C2B7F
:10202000FBCA61E081E019C065E082E011C068E0B0
:1020300086E00EC06EE089E00BC064E18FE008C06E
:1020400067E185E105C061E088E107C062E289E1FE
:102050000E945A2BE1CA61E083E20E94A314DCCA09
:1020600029960FB6F894DEBF0FBECDBFDF91CF919A
:102070001F910F91FF90EF90DF90CF90BF90AF90A6
:102080009F908F907F906F905F9008959091E10165
:1020900092FF0DC0282F2871283019F4877F8460A3
:1020A00006C0282F2471243011F48B7F886093FFA1
:1020B0000DC0282F2871283119F4877E846106C04D
:1020C000282F2471243111F48B7E88612091E20144
:1020D00020FF0DC0382F3871383019F4877F8160A8
:1020E00006C0382F3171313011F48E7F886021FFA6
:1020F0000DC0282F2871283119F4877E816106C010
:10210000282F2171213111F48E7E886194FD877E04
:102110000895309105018091110280FF16C0E09171
:10212000040163E0E69FF0011124E053FD4F539A50
:102130008BB1877F9BB198602FB7F894AF0163E0B4
:10214000369F400D511D112414C0809106019091BD
:102150000701891720F7E82FF0E0AF01440F551F62
:10216000E40FF51FE053FD4F1182108212828F5F42
:10217000F0CFE417F50789F0319168E09BB90000D2
:1021800000C037FF8BB9330F000000C000C000C093
:102190008BB900C06A9591F7ECCF2FBF8FE594E023
:1021A0000197F1F700C0000008959091110290FF8F
:1021B00016C09091060120910701921770F4E92F43
:1021C000F0E0DF01AA0FBB1FEA0FFB1FE053FD4F3A
:1021D0008183608342839F5FF0CF0C9489100895C0
:1021E00080911102282F269530E02115310519F430
:1021F0008170826005C02B32310524F081708465C6
:10220000809311020895CF92DF92EF92FF926B01BB
:102210007C010E94F010B701A60188E090E0FF90D9
:10222000EF90DF90CF900C94D92D809115028823E8
:1022300019F0815080931502609111027091120281
:1022400080911302909114020C9403118091150255
:10225000833018F48F5F80931502609111027091A2
:10226000120280911302909114020C940311E1E187
:10227000F2E083E0808311828FEF82838383148274
:10228000A0EFB1E012968C911297836012968C9316
:1022900060817181828193810C940311BF92CF92EE
:1022A000DF92EF92FF920F931F93CF93DF93E82E6D
:1022B000F62EE901E42FF0E0611106C0E950FE4F6F
:1022C0008491B82EE82F71C0262F30E0E950FE4FE0
:1022D000E491FE2FCE2ED12C46E0849FC001112424
:1022E0000FEF10E0B8010E94782E4BEA4603C001C0
:1022F000479F900D11248E0D911D8E0D911D982FCD
:10230000990F890FD801A21BB30BAC9DA001AD9D05
:10231000500DBC9D500D1124B52EF89ED0011124F6
:10232000AB2FBB277801EA1AFB0AEC9CD001ED9C8D
:10233000B00DFC9CB00D11247801E81AF108E29E62
:10234000C001E39E900DF29E900D1124892F9927D4
:10235000081B190B0C9D90010D9D300D1C9D300D1F
:102360001124832F6230710591F048F461157105D5
:10237000E1F061307105B9F48E2FEB2F16C0643097
:10238000710569F040F06630710579F00CC08E2F50
:10239000E52FB32E0AC0E52FBF2E8B2F06C0852F49
:1023A000BE2EE32F02C0852FBB2EE9838883BA821D
:1023B000DF91CF911F910F91FF90EF90DF90CF9021
:1023C000BF900895CF93DF9300D01F92CDB7DEB7B3
:1023D0009091110290FF0AC09E012F5F3F4F0E9413
:1023E0004E114B8169818A810E94D5100F900F9008
:1023F0000F90DF91CF910895AF92BF92CF92DF926D
:10240000EF92FF920F931F93CF93DF9300D01F9211
:10241000CDB7DEB7182FF62E042FE22E90911102C1
:1024200090FF7EC0E92FE695AE2FB0E0A55BBE4FD2
:102430008C918093F0019E7F923061F49E012F5F1A
:102440003F4F812F0E944E114B8169818A810E94EA
:10245000D51043C0823019F4009114023EC086307A
:1024600019F41091120239C08930D9F38931A9F5D4
:10247000E9518E2F8170D82EE695F0E0E950FD4F9E
:10248000A590B490C12CBB2460910801C61618F524
:102490002C2D30E0A29EC001A39E900DB29E900D07
:1024A000112470E00E94782E812FD11002C0860F77
:1024B00001C0861B90910601290F311DA901440F0F
:1024C000551F240F351F20533D4F402F6F2D0E9465
:1024D0004E11C394D9CF0E94891080911202181313
:1024E00008C080911302F81204C0809114020817EA
:1024F00029F08091F20182608093F2011093120220
:10250000F092130200931402EE2051F06091110238
:102510007091120280911302909114020E94031193
:102520000F900F900F90DF91CF911F910F91FF901F
:10253000EF90DF90CF90BF90AF900895E1E1F2E08F
:10254000438121E1421B08F440E021E06281818166
:102550000C94FC11E1E1F2E0438121E1420F08F427
:102560004FEF21E0628181810C94FC11E1E1F2E006
:10257000628121E1621B08F460E021E043818181F6
:102580000C94FC11E1E1F2E0628121E1620F08F4B8
:102590006FEF21E0438181810C94FC11E1E1F2E0D5
:1025A000818121E04381628188500C94FC11E1E13A
:1025B000F2E0818121E043816281885F0C94FC110B
:1025C00080912E02811112C08091D8008061809389
:1025D000D8008AE18A95F1F700C08091D90080FD8A
:1025E00002C082E001C081E080932E0281E09091E0
:1025F0002E02913009F080E00895CF93DF930E947E
:102600002F2BEC018238910559F1A0F4813391050B
:1026100009F473C040F48932910509F467C08A97C0
:1026200009F472C084C08533910509F458C0C99774
:10263000B9F07DC0833E910571F138F4803E91057B
:10264000B1F0823E910511F172C0863E9105B9F15B
:10265000873E9105C9F1843E910509F068C024C008
:102660008091E10180FD5DC081FD5BC060C0809113
:10267000E10180FD50C08091E20180FF49C180915D
:10268000E10184FD43C1C3EED0E042C18091E1018C
:1026900082FF3EC1F4CF8091E10182FD3FC0809175
:1026A000E20180FD3EC0EBCF8091E20181FF30C1AD
:1026B0008091E10184FD2AC1C7EED0E029C180915B
:1026C000E10183FF25C1F4CF8091E10183FD2CC09E
:1026D0008091E20181FFECCFC4EED0E019C180917E
:1026E000E10185FF15C1C9E2D0E012C18091E1018D
:1026F00085FF0EC1C5E3D0E00BC18091E10186FFEB
:1027000007C1CAE2D0E004C18091E10186FF00C1A7
:10271000C1E3D0E0FDC0C9E3D0E0FAC0C2EED0E032
:10272000F7C0C0EED0E0F4C0C6EED0E0F1C0C115F5
:1027300081E5D80708F066C0C11520E5D207E0F0B2
:10274000CE0174E0969587957A95E1F783709C2F7A
:10275000937021E030E002C0220F331F9A95E2F718
:102760003C68382BCF70C695C69540E2C49FE00107
:102770001124C22BD32BCCC0C83ED10560F5C03E7E
:10278000D10508F0C5C0C83AD105B0F4C53AD105A5
:1027900040F0C55AD0E0C157DE4FC881D0E0D064C8
:1027A000B7C0C130D10509F4B3C008F4AFC0C4301C
:1027B000D10508F4ABC0ACC0CF3BD10508F0A6C032
:1027C000C85AD0E0CC0FDD1FCE56DE4F0990D8811D
:1027D000C02DD4649DC0C11540E2D40758F4C11582
:1027E00081E0D80708F094C0C03FD10508F48EC03E
:1027F000D0658EC0C11520E4D20708F487C0DF7011
:10280000D06A86C0C11545E5D40708F042C0C1159D
:1028100084E5D80728F0DC2FCC27C46FD06A78C0B5
:10282000C11523E5D207B0F0CE018370992721E0CE
:1028300030E002C0220F331F8A95E2F78C2F869575
:10284000869540E2849FC0011124E901C82BD92B51
:10285000DA685EC0C11542E5D40728F4DC2FCC2726
:10286000C16FD06A55C0CE018370992721E030E056
:1028700002C0220F331F8A95E2F78C2F869586952A
:1028800040E2849FC0011124E901C82BD92BDC68E8
:102890003FC0C11589E5D807B8F4C11528E5D207AE
:1028A00028F0DC2FCC27C06FD06A32C0C11546E5B6
:1028B000D40760F58C2F0E9446108F71C82FD0E08E
:1028C000DC2FCC27D06224C0C1158AE5D80780F45C
:1028D0008C2F8F700E94461094E0D695C7959A95DC
:1028E000E1F7CF70D0E0DC2FCC27D069C82B10C027
:1028F000CE0190568115904248F48D2F8F710E9421
:102900004610DD27D0628F71D82B02C0C0E0D0E026
:10291000CE01DF91CF910895E1E1F2E080818E7FD9
:1029200080830E94722BE0EFF1E0828181608283DC
:102930002FEF80E792E0215080409040E1F700C007
:1029400000000C9489109091110290FF3BC091708F
:10295000811102C0926006C08B3210F0946502C0F3
:10296000880F982B909311028091F20181608093DF
:10297000F201662351F06091110270911202809170
:102980001302909114020E94031160911102669546
:1029900070E04BE050E08AE291E00E94AD2E892B7E
:1029A00019F00E94722B02C00E94792B81E0809363
:1029B000ED0120E040911402609113028091120217
:1029C0000C94FC110895809111028695815009F4B0
:1029D0008AE261E00C94A3148091110286958F5FC6
:1029E0008B3208F081E061E00C94A3146F927F9227
:1029F0008F929F92AF92BF92CF92DF92EF92FF920F
:102A00000F931F93CF93DF9367E371E001ED11E024
:102A100028EDE22E21E0F22E3801C0E0AA24A39492
:102A2000B12CDB018D91BD01E82FE295EF70F0E054
:102A300021A18F70A50102C0440F551F8A95E2F7AE
:102A4000CA01242B21A322A1942E9094292122A3F0
:102A500050EA5A95F1F795E4C92E91E0D92E20E07D
:102A600030E0D0E0D6018D906D01482D42954F7039
:102A700050E0DA0190964C9150E0B82DBF7002C042
:102A800055954795BA95E2F740FD07C04A2D022EAD
:102A900001C0440F0A94EAF701C040E0D42B2F5F35
:102AA0003F4F26303105F1F691A1992291A292A1D2
:102AB000892B82A3F3018081D81719F0D08381E09C
:102AC00001C080E0C82BFFEF6F1A7F0AE614F704FD
:102AD00009F0A7CFD090E001CC2349F081E08093AA
:102AE0002C020E94401F90932B0280932A02809117
:102AF0002C028823A9F080912A0290912B020E9437
:102B0000311F069768F0ED2DF0E0EA5EFD4FD80129
:102B10008D918D018193EA16FB06C9F710922C0264
:102B20000E94E0128823D1F11091DF018091F2011F
:102B30008823E9F085E0E1E1F2E0A0ECB1E001906A
:102B40000D928A95E1F78091F0019091F101A091A9
:102B5000F2018093C5019093C601A093C70181E063
:102B600090E00E94D42C892B11F41092F20180E0A5
:102B700090E00E94D42C892B09F060C0E12FF0E096
:102B8000EA5EFD4F80E090E0DC01A753BE4F2C9140
:102B90002193019687309105B9F764C0E091E00177
:102BA0000E2F10E08091C8018830C9F58091C701CF
:102BB00080FF12C08091C00180FF0CC08091110283
:102BC0008160809311028091C00160E086950E942F
:102BD000A31402C00E948C148091C70181FF09C018
:102BE00020E04091C3016091C2018091C1010E9427
:102BF000FC118091C70182FF09C08091C601882322
:102C000019F00E94792B02C00E94722B8091C7019B
:102C100083FF03C081E08093ED011092C801F801A9
:102C2000EA5EFD4F80E090E02191DC01A753BE4FAA
:102C30002C93019687309105B9F716C080912D022B
:102C40008F5F80932D02863078F0E091DF01F0E015
:102C5000EA5EFD4F80E090E0119201968730910589
:102C6000D9F702C010922D028C2FDF91CF911F91C6
:102C70000F91FF90EF90DF90CF90BF90AF909F901B
:102C80008F907F906F90089580913D0287FF11C0D3
:102C90008091E80082FD05C0809145028111F8CF46
:102CA00011C08091E8008B770BC08091450288238A
:102CB00049F08091E80080FFF8CF8091E8008E779E
:102CC0008093E8000895982F973068F59093E90075
:102CD000981739F07091EC002091ED005091F000C0
:102CE00003C0242F762F50E021FD02C09F5FECCF60
:102CF0003091EB003E7F3093EB003091ED003D7F53
:102D00003093ED003091EB0031603093EB00709325
:102D1000EC002093ED005093F0002091EE0027FD91
:102D2000E5CF80E008958F708093E90081E00895F9
:102D300020914302309144022617370748F061156D
:102D4000710539F42091E8002E772093E80001C046
:102D5000B901FC0120E06115710579F1809145020E
:102D60008823F1F18530F1F18091E80083FD3CC0CA
:102D70008091E80082FD2EC08091E80080FFEBCFBB
:102D80002091F3008091F20090E0922B6115710583
:102D900051F08830910538F421912093F100615071
:102DA00071090196F3CF21E0089709F020E08091A6
:102DB000E8008E778093E800CECF2111CFCF0AC0F4
:102DC00080914502882361F0853061F08091E800B0
:102DD00083FD0AC08091E80082FFF2CF80E0089571
:102DE00082E0089583E0089581E008950F931F9392
:102DF0008091460290914702A0914802B091490209
:102E00008C019D010670112722273327BC01CD01BB
:102E1000063011052105310511F4686001C0677F96
:102E20001F910F910C94FF201F93CF93DF93CDB789
:102E3000DEB7AA970FB6F894DEBF0FBECDBFEDE3A5
:102E4000F2E08091F100819342E0E534F407C9F7A4
:102E500080913E02833009F462C030F4813071F019
:102E6000823009F49CC0B3C08A3009F488C08B302A
:102E700009F46DC0893009F0AAC020C080913D02DC
:102E8000813A09F0A4C08091E800877F8093E80030
:102E90008091410290914202892B21F468E082E303
:102EA00092E003C060E080E090E070E00E9498163D
:102EB0008091E8008B778093E80089C080913D0283
:102EC000813209F084C080914102909142020097C2
:102ED00019F0029709F07BC08091E800877F80930A
:102EE000E8008091E80082FD05C0809145028111D3
:102EF000F8CF6DC02091F3008091F20090E0922B0A
:102F0000029729F48091F1008B7F813021F4809128
:102F1000F100809331028091E8008B7754C080915A
:102F20003D02813A09F053C08091410290914202E2
:102F3000892B09F04CC08091E800877F8093E800DE
:102F40008091E80080FFFCCF8091250137C08091FF
:102F50003D028132E1F58091410290914202892B3C
:102F6000B1F58091E800877F8093E8000E944416C5
:102F700080913F02809325010E94C22428C0809145
:102F80003D02813221F58091E800877F8093E8003F
:102F90000E944416809140028093300218C08091B4
:102FA0003D02813AA1F48091E800877F8093E80098
:102FB0008091E80080FFFCCF809130028093F10087
:102FC0008091E8008E778093E8000E9444168091FB
:102FD000E80083FFE9C180913D0290913E02492FB4
:102FE00050E04A30510508F0DFC1FA01E757FF4FC2
:102FF0000C94A02E803821F0823809F0D5C108C089
:1030000080913A0290913B02992389F082600FC02F
:10301000809141028F70873008F0C6C18093E9002B
:103020008091EB0085FB882780F91092E900909150
:10303000E800977F9093E8008093F1001092F100F0
:103040007CC1282F2D7F09F0AFC1882319F0823071
:1030500061F0AAC180913F02813009F0A5C193308F
:1030600009F080E080933B022EC080913F028111E5
:103070002AC0809141028F702FEF280F263008F070
:1030800093C18093E9002091EB0020FF1CC0933096
:1030900021F48091EB00806214C09091EB0090616C
:1030A0009093EB0021E030E0A90102C0440F551FCE
:1030B0008A95E2F74093EA001092EA008091EB00D3
:1030C00088608093EB001092E9008091E800877F90
:1030D0008093E8000E94441667C1811165C1109178
:1030E0003F021F778091E3008078812B8093E3007B
:1030F0008091E800877F8093E8000E9444168091C9
:10310000E80080FFFCCF8091E30080688093E300BB
:10311000111102C082E001C083E08093450244C1E6
:103120008058823008F040C120913F023091400227
:103130002C3D53E0350779F583E08A838AE2898361
:103140004FB7F894DE01139620E03EE051E2E32F02
:10315000F0E050935700E49120FF03C0E295EF7038
:103160003F5FEF708E2F90E0EA3010F0C79601C0FD
:10317000C0968D939D932F5F243149F74FBF809167
:10318000E800877F8093E8006AE270E0CE01019654
:103190000E949816C0C08091410290914202432F34
:1031A000552743305105B1F068F44130510509F419
:1031B0000AC14230510509F0F7C08BE590E0EFED10
:1031C000F3E057C04132510589F14232510509F40B
:1031D0003CC0EAC0C901992781309105B9F070F06F
:1031E00082309105D9F0039709F0DEC0ECE4F4E0F9
:1031F000E4918E2F90E0ECE4F4E038C0E0E9F4E0F4
:10320000E4918E2F90E0E0E9F4E030C0E0E8F4E0F3
:10321000E4918E2F90E0E0E8F4E028C0E2E5F4E0ED
:10322000E4918E2F90E0E2E5F4E020C08330910538
:1032300008F0BAC0880F991FFC01E158FE4F0190B9
:10324000F081E02D89E090E014C08330910508F012
:10325000ABC0FC01EE0FFF1FE758FE4F0190F0815D
:10326000E02DDC01AA58BE4F8C9190E0009709F444
:103270009BC02091E800277F2093E8002091430223
:10328000309144022817390708F4C90140E000973B
:1032900089F120914502222309F43DC02530D9F15E
:1032A0002091E80023FD37C02091E80022FD2FC0C7
:1032B0002091E80020FFEBCF4091F3002091F20035
:1032C00030E0342B009759F02830310540F4449118
:1032D0004093F100319601972F5F3F4FF3CF41E0CC
:1032E0002830310509F040E02091E8002E77209346
:1032F000E800CDCF4111CDCF0AC08091450288238F
:1033000051F0853041F08091E80083FD04C0809148
:10331000E80082FFF2CF8091E8008B778093E8008D
:1033200043C0803809F040C08091E800877F8093D7
:10333000E80080913C028093F1008091E8008E7754
:10334000C7CE811131C080913F02909140029927F0
:10335000029754F58091E800877F8093E8001091F0
:103360003F0210933C020E944416111106C0809146
:10337000E30087FD02C081E001C084E08093450244
:1033800042E061EC81E00E94631642E261EC84E07D
:103390000E94631642E261EC82E00E94631642E200
:1033A00060EC83E00E9463168091E80083FF10C008
:1033B0008091E800877F8093E8008091EB00806235
:1033C0008093EB0005C082E190E0EAE3F4E051CFA6
:1033D000AA960FB6F894DEBF0FBECDBFDF91CF9196
:1033E0001F9108951F920F920FB60F9211242F93E1
:1033F0003F934F935F936F937F938F939F93AF937D
:10340000BF93CF93DF93EF93FF93C091E900CF7009
:103410008091EC00D82FD17080FDD0E81092E900A7
:103420008091F000877F8093F00078940E941417B9
:103430001092E9008091F00088608093F000CD2B1D
:10344000CF70C093E900FF91EF91DF91CF91BF91D1
:10345000AF919F918F917F916F915F914F913F912C
:103460002F910F900FBE0F901F901895E8EDF0E090
:1034700080818E7F80831092E2001092DA00109299
:10348000E100A0EEB0E08C9181608C9380818F7719
:10349000808319BCA7EDB0E08C918E7F8C938081E6
:1034A0008F7E808310922F020895CF92DF92EF9249
:1034B000FF920F931F93CF93DF93C8EDD0E08881E5
:1034C0008F7E8883E7EDF0E080818160808384E0F7
:1034D00082BF81E080932F0288818E7F888302EEF5
:1034E00010E0F80110821092DA0081EEC82ED12C83
:1034F000F601108288818F7788838881806888832D
:1035000088818F7D888319BC1092450210923C02FD
:1035100010923B0210923A0290EEE92EF12CF70144
:1035200080818B7F808388818160888342E060E036
:1035300080E00E946316F60180818E7F8083F8010F
:10354000808181608083808188608083F7018081B1
:103550008E7F8083888180618883DF91CF911F91E6
:103560000F91FF90EF90DF90CF9008951F920F92F0
:103570000FB60F9211242F933F934F935F936F9346
:103580007F938F939F93AF93BF93EF93FF9380911C
:10359000E10082FF09C08091E20082FF05C08091B6
:1035A000E1008B7F8093E1008091DA0080FF2AC0E8
:1035B0008091D80080FF26C08091DA008E7F8093B2
:1035C000DA008091D90080FF18C080E189BD82E1D6
:1035D00089BD09B400FEFDCF81E080934502809152
:1035E0002F0281110FC00E94361A0E94551A809135
:1035F000E20084608093E20005C019BC109245028D
:1036000010922F028091E10080FF17C08091E200AC
:1036100080FF13C08091E2008E7F8093E200809152
:10362000E20080618093E2008091D8008062809304
:10363000D80019BC85E0809345028091E10084FFA9
:1036400032C08091E20084FF2EC080E189BD82E11A
:1036500089BD09B400FEFDCF8091D8008F7D809395
:10366000D8008091E1008F7E8093E1008091E2009C
:103670008F7E8093E2008091E20081608093E2007F
:1036800080913C02882311F084E007C08091E30020
:1036900087FD02C081E001C083E0809345020E9463
:1036A000C2240E94452A8091E10083FF27C08091B7
:1036B000E20083FF23C08091E100877F8093E100D7
:1036C00082E08093450210923C028091E1008E7F5F
:1036D0008093E1008091E2008E7F8093E2008091F0
:1036E000E20080618093E20042E060E080E00E94BE
:1036F00063168091F00088608093F000FF91EF9155
:10370000BF91AF919F918F917F916F915F914F91F9
:103710003F912F910F900FBE0F901F901895209101
:10372000E4003091E50095E64091EC00842F817033
:1037300040FF23C08091E80080FD1DC080914502BC
:10374000882399F0853099F08091EB0085FD11C0B8
:103750004091E4005091E5002417350729F391507A
:1037600011F09A01E1CF84E0089582E0089583E0AA
:10377000089581E0089580E008954091E80042FFB7
:10378000DDCF0895EF92FF920F931F93CF93DF93B6
:103790007C018B010E948F1B811119C0E70101156B
:1037A0001105A1F08091E80085FD0AC08091E80034
:1037B0008E778093E8000E948F1B882381F307C0D7
:1037C00089918093F10001501109E9CF80E0DF91E8
:1037D000CF911F910F91FF90EF900895CF9320917B
:1037E00045022430F9F4C091E900CF703091EC002B
:1037F000232F217030FD20E8C22B22E02093E90026
:103800002091E80020FF0BC040E050E060E270E053
:103810000E94C21B8091E8008E778093E800CF70F1
:10382000C093E900CF91089580914502843011F052
:1038300081E0089582E00895809131020895CF9348
:10384000DF9300D01F92CDB7DEB790914502943040
:1038500011F589837B836A839093E9008FEF9091C0
:10386000E800815095FD06C095ED9A95F1F70000AE
:103870008111F5CF8091E80085FF0DC040E050E058
:1038800063E070E0CE0101960E94C21B8091E800C7
:103890008E778093E8000F900F900F90DF91CF917B
:1038A0000895CF93DF93EC010E94141C823011F035
:1038B000843031F4BE0184E0DF91CF910C941F1C61
:1038C000DF91CF910895BC0183E00C941F1CCF932E
:1038D000DF93EC010E94141C823011F08430F9F463
:1038E00084E08093E9008FEF9091E800815095FD8E
:1038F00006C095ED9A95F1F700008111F5CF809102
:10390000E80085FF0CC040E050E066E070E0CE01CA
:103910000E94C21B8091E8008E778093E800DF91BF
:10392000CF910895CF93DF93EC010E94141C823055
:1039300011F0843039F581E08093E9008FEF9091A8
:10394000E800815095FD06C095ED9A95F1F70000CD
:103950008111F5CF8091E80085FF14C040E050E070
:1039600068E070E0CE010E94C21B8091E8008E7773
:103970008093E80088E0FE01A2E3B2E001900D929E
:103980008A95E1F7DF91CF910895833011F128F402
:10399000813049F0823091F00895853081F120F135
:1039A0008630C1F108958091F701681720F4861BD5
:1039B0008093F70108951092F701089580911A01FC
:1039C000681720F4861B80931A01089510921A013B
:1039D000089580912901681720F4861B809329019E
:1039E000089510922901089580912801681720F404
:1039F000861B8093280108951092280108958091D4
:103A00002701681720F4861B8093270108951092E0
:103A10002701089580912601681720F4861B809362
:103A200026010895109226010895833081F128F42B
:103A3000813059F08230D1F00895853009F449C0C1
:103A4000B8F1863009F456C008958091F701262F09
:103A500030E0280F311D2F3F310524F4680F6093AB
:103A6000F70108958FEF8093F701089580911A016F
:103A7000262F30E0280F311D2F3F310524F4680F29
:103A800060931A0108958FEF80931A010895809131
:103A90002901262F30E0280F311D2F3F310524F456
:103AA000680F6093290108958FEF8093290108958D
:103AB00080912801262F30E0280F311D2F3F31053E
:103AC00024F4680F6093280108958FEF80932801F4
:103AD000089580912701262F30E0280F311D2F3FB8
:103AE000310524F4680F6093270108958FEF8093C8
:103AF0002701089580912601262F30E0280F311DDF
:103B00002F3F310524F4680F6093260108958FEF4D
:103B1000809326010895803F39F48091FE0187FF4C
:103B20006CC01092FE0169C0813F29F48091FE01B2
:103B30001816BCF362C09091FD01823F29F497FFF3
:103B40005CC01092FD0159C0833F19F41916CCF3E3
:103B500054C0893F41F48091FF0118160CF04DC00C
:103B60001092FF014AC08A3F29F48091FF0187FF2C
:103B700044C0F6CF8B3F39F48091000287FF3DC0EF
:103B8000109200023AC08C3F29F48091000218166E
:103B9000BCF333C0843F21F48091FC018E7F17C0B9
:103BA000853F21F48091FC018D7F11C0863F21F477
:103BB0008091FC018B7F0BC0873F21F48091FC0139
:103BC000877F05C0883F31F48091FC018F7E809310
:103BD000FC0113C08D3F21F48091CA028E7F0BC07F
:103BE0008E3F21F48091CA028D7F05C08F3F29F45A
:103BF0008091CA028B7F8093CA028091FD0181115E
:103C00000EC08091FE0181110AC08091FF018111D7
:103C100006C080910002811102C01092F80108953F
:103C20008091CA0280FF08C06091270170E07595FD
:103C300067957595679521C081FF06C06091270142
:103C400070E07595679519C082FF04C060912701E7
:103C500070E010C09091F801992399F060912601CD
:103C60009617A0F780912701899FC001112470E069
:103C70000E948C2E6038710540F46115710519F4AD
:103C800006C061E070E0862F08958FE7089581E017
:103C900008958091CA0280FF0BC06091290185E0E0
:103CA000689FB001112475956795759567952BC030
:103CB00081FF09C06091290185E0689FB00111244E
:103CC0007595679520C082FF07C06091290185E046
:103CD000689FB001112417C09091F8019923D1F089
:103CE00060912801961788F72091290185E0289F87
:103CF00090011124929FA001939F500D112470E018
:103D0000CA010E948C2E6038710540F4611571055E
:103D100019F406C065E070E0862F08958FE70895D6
:103D200081E00895803F21F40E94491E819504C0DE
:103D3000813F29F40E94491E8093FE010895823F2D
:103D400021F40E94491E819504C0833F29F40E94FA
:103D5000491E8093FD010895893F19F40E94101EA9
:103D600005C08A3F31F40E94101E81958093FF01A7
:103D700008958B3F21F40E94101E819504C08C3F52
:103D800029F40E94101E809300020895843F21F4BC
:103D90008091FC01816017C0853F21F48091FC0176
:103DA000826011C0863F21F48091FC0184600BC0C9
:103DB000873F21F48091FC01886005C0883F31F481
:103DC0008091FC0180618093FC0108958D3F21F476
:103DD0008091CA0281600BC08E3F21F48091CA029B
:103DE000826005C08F3F29F48091CA02846080936D
:103DF000CA02089587E797E7909301088093000827
:103E00009AE088E10FB6F894A895809360000FBE01
:103E100090936000FFCF78941F920F920FB60F928D
:103E200011248F939F93AF93BF938091240290911D
:103E30002502A0912602B09127020196A11DB11D75
:103E40008093240290932502A0932602B093270228
:103E5000BF91AF919F918F910F900FBE0F901F90C8
:103E600018959C014FB7F8948091240290912502F7
:103E7000A0912602B09127024FBF821B930B089599
:103E80002FB7F8948091240290912502A0912602E8
:103E9000B09127022FBF0895E091E401F091E50170
:103EA000309749F082E08093FB010480F581E02D9A
:103EB0008BEF91E009950E94401F9093F60180934B
:103EC000F50108951F920F920FB60F9211248F9350
:103ED0009F93AF93BF938091E601811113C08091AE
:103EE000240290912502A0912602B09127024196CA
:103EF000A11DB11D8093240290932502A093260258
:103F0000B0932702BF91AF919F918F910F900FBEF9
:103F10000F901F9018959C012A5F3F4FFC01428132
:103F2000461301C01282019682179307B9F70895CC
:103F30009C01FC0132969FEF80E04191461789F089
:103F40009F3F19F4411101C0982F8F5F8630A9F768
:103F50009F3F39F0F901E90FF11D97FDFA95628352
:103F600008950895CF9384E090E00E94B32DC82F68
:103F700081E290E00E94B32D2C2F30E0A901582B54
:103F8000CA01CF9108956CEE7EEF80E090E00E9430
:103F9000E52D60E082E090E00E94C72D60E083E0C4
:103FA00090E00E94C72D1092C6021092C702109294
:103FB000C8021092C90260E084E090E00E94C72D20
:103FC00060E081E290E00E94C72D60E085E090E033
:103FD0000E94C72D60E086E090E00E94C72D6FEF41
:103FE00087E090E00E94C72D40E050E0BA0188E0F1
:103FF00090E00E94D92D60E08DE090E00E94C72DF6
:1040000040E050E0BA0188E190E00E94D92D60E0E4
:1040100087E190E00E94C72D40E050E0BA018CE1BA
:1040200090E00E94D92D60E080E290E00E94C72DD0
:1040300040E050E0BA018FE090E00E94D92D40E0CE
:1040400050E0BA0183E190E00C94D92D8091C50233
:1040500081111092C50208959091C4028091C3020B
:10406000892B2091C202982F922B90934A02809123
:10407000C502882389F0892B80934A02ECE4F2E0A0
:1040800097E080E0915029F021912223D9F38F5FAE
:10409000F9CF81110E942620E091E401F091E50121
:1040A000309731F00280F381E02D8AE492E00994A8
:1040B0000895BF92CF92DF92EF92FF920F931F93DA
:1040C000CF93DF938C01C0904602D0904702E090DE
:1040D0004802F09049028091C6029091C702A091D7
:1040E000C802B091C902C82AD92AEA2AFB2ACFE11C
:1040F000D0E0D701C6010C2E04C0B695A7959795C0
:1041000087950A94D2F780FD04C0219790F7B12CCF
:1041100007C0BC2EB8018C2F0E94FD120197A9F395
:104120008B2DDF91CF911F910F91FF90EF90DF903A
:10413000CF90BF900895CF93DF93EC010E94592058
:10414000BE010E94FD12DF91CF910895292F220F09
:10415000920F990F890F682F669566956695982F2F
:10416000977085E0689FB001112440E050E080E046
:10417000FB01E40FF51FE657FD4F208130E0092ECB
:1041800002C0369527950A94E2F721703327042E52
:1041900001C0220F0A94EAF7822B4F5F5F4F453030
:1041A000510531F70895292F220F920F990F890F8A
:1041B000E82FE695E695E695877051E001C0550F2A
:1041C0008A95EAF785E0E89FF0011124E657FD4F54
:1041D00020E030E070E04081CB01022E02C09695D5
:1041E00087950A94E2F78170819584278523842737
:1041F00081932F5F3F4F2530310569F70895609314
:1042000046027093470280934802909349020C94AF
:10421000A7240F931F9341E050E060E070E004C0DA
:10422000440F551F661F771F8A95D2F7409550950A
:10423000609570958091460290914702A091480246
:10424000B09149028A019B01082319232A233B23A9
:10425000C901B8011F910F910C94FF202091C10258
:10426000809582238093C102982F977079F430E073
:10427000482F082E000C550B2417350739F085956B
:10428000859585950E9409211092C10208950F938A
:104290001F9341E050E060E070E004C0440F551F00
:1042A000661F771F8A95D2F7809146029091470248
:1042B000A0914802B09149028A019B01082B192B59
:1042C0002A2B3B2BC901B8011F910F910C94FF20A1
:1042D0006093C6027093C7028093C8029093C9028C
:1042E0000C94A7240F931F9341E050E060E070E02E
:1042F0008A019B0104C0000F111F221F331F8A95E2
:10430000D2F7C901B8010E9468211F910F910C9446
:10431000C2248B3109F473C058F58B3009F48FC077
:1043200078F4863009F446C020F4853009F44CC096
:104330008AC0873009F455C0883009F480C083C032
:10434000803109F46FC068F48E3009F07CC0809130
:10435000020282FB222720F991E0922790FB82F94A
:1043600057C0863109F46BC0893109F468C06BC04D
:104370008A32E9F060F4873209F463C028F48E31A0
:1043800008F461C08D5159C08932F1F05CC08334AA
:1043900050F48A3308F050C0853309F452C0883392
:1043A00009F44DC050C0833409F44BC04CC00E9486
:1043B000C31F45C080910202817F8E7F80930202DD
:1043C00081E08093CB0208950E94C2242FEF84E302
:1043D0009CE0215080409040E1F700C000000E9426
:1043E000FA1E80910202982F9095917090FB80F9AF
:1043F00080930202911123C0897F877F10C0809132
:10440000020281FB222720F991E0922790FB81F99B
:1044100080930202992399F0809102028160809337
:1044200002020DC08091020283FB222720F991E055
:10443000922790FB83F9ECCF89530E94722181E08F
:10444000089580E0FACF80E008952091890290914C
:10445000580256E02917A9F030E0529FF001539F0F
:10446000F00D1124E75AFD4F7181761306C070815B
:10447000781303C07281741306C02F5F3F4F2770FB
:10448000E9CF80E0089581E00895809189029091BC
:104490005802891719F08F5F8770FBCF08950F932B
:1044A0001F93CF93DF938091570282958F7009F00D
:1044B0005DC080915402882309F458C0809189021C
:1044C000109158026091520270915302C0915502AE
:1044D000D091560291E06F3F09F090E0292F06E05D
:1044E000811709F443C0209721F07F3F21F030E08D
:1044F00003C031E001C0322F90E030FD34C0089F8E
:10450000F001099FF00D1124DF01A75ABD4F11964C
:104510003C911197371327C03C91361324C0129653
:104520003C91129731111FC013964D915C911497D5
:104530004C1B5D0B483C5105B0F4809157028F70C5
:10454000806180935702E25AFD4F80818F708061B5
:10455000808382E592E00E94D509DF91CF911F917F
:104560000F910C94452201968770BACFDF91CF91BD
:104570001F910F9108950E949B20292F2F70E92FE2
:10458000E295EF704E2F50E0FA013297EE30F105D0
:10459000B8F4ED56FF4F0C94A02E803F99F018F41C
:1045A000883E70F40FC0843F59F40CC0883E50F030
:1045B000813F31F407C0822F8695869586950895B0
:1045C00080E0089581E008958F929F92AF92BF920C
:1045D000CF92DF92EF92FF920F931F93CF93DF93CF
:1045E000CDB7DEB761970FB6F894DEBF0FBECDBF73
:1045F0008C0185E0F801DE011D9601900D928A95EF
:10460000E1F7D801DC901196EC9011971296CC90BE
:1046100090915202209153024091550250915602BE
:104620004115510531F02F3F31F481E09F3F19F4DE
:1046300003C081E001C080E080FD58C1F801A38083
:10464000B48082E5882E82E0982EF0905402B50165
:10465000641B750BFF2009F403C180915702382FAA
:10466000307F683C710508F0CDC0311188C02E1133
:1046700012C09D1110C0FC2CC1100DC08F70806144
:1046800080935702C4010E94D50980915702D80136
:1046900015968C9348C1A114B10439F0BFEFEB1209
:1046A00006C081E0DB1203C003C081E001C080E0EE
:1046B00080FD03C081E08C2502C080E090E080FF97
:1046C00010C04C2D6E2D8D2D0E942522882349F07F
:1046D00082E592E00E94D509E2E5F2E086E0DF01A2
:1046E00099C0AB2839F0BFEFEB1206C081E0DB12B6
:1046F00003C003C081E001C080E080FD03C081E011
:104700008C2502C080E090E0E82FE170BE2E80FF93
:104710002CC04C2D6E2D8D2D0E942522F82E81113E
:1047200024C0DD86EE868D859E850E949B20292FE4
:1047300022952F70223018F0243090F405C09F701D
:1047400059F0811109C0EFC09F7031F0D801159662
:104750009C91907F09F4E7C0805E883008F4E3C044
:10476000C8010E94D509FB2CDEC0FC2CCC2009F42A
:10477000DAC0809157028160809357024EC02E119B
:1047800006C09D1104C0C11002C0F8018BC0DD86B7
:10479000EE868D859E850E94BB22882369F1CC2000
:1047A00059F120915702822F82958F7090E00297E5
:1047B00074F0809152029091530298878F831986EA
:1047C000BB86AA862C87CE0107960E94D50986E073
:1047D000F801A2E5B2E001900D928A95E1F70E94FE
:1047E0004F220DC02E15D9F0DD86EE868D859E8573
:1047F0000E94BB2281111DC0C8010E94D509FF245F
:10480000F39491C03111EECF82E592E00E94D50978
:1048100086E0D4011D928A95E9F7F12C84C09D11A0
:10482000E3CFC110E1CFF8018583C8010E94D5090B
:1048300057C0CC2009F320915702822F82958F70A8
:1048400090E0029724F280915202909153029A8351
:1048500089831B82BD82AC822E83CE010196B5CFA7
:10486000683C7105E8F5FC2CCC2031F22E1127C0F4
:104870009D1125C02091570220FD18C0822F8295DE
:104880008F70482F50E04115510581F0F8012583C4
:104890004F30510541F08F5F982F9295907F822F76
:1048A0008F70892B8583C8010E94D50986E0F801A5
:1048B000A2E5B2E001900D928A95E1F734C0DD8661
:1048C000EE868D859E850E94BB22811180CF8091CE
:1048D0005702816080935702C8010E94D50923C006
:1048E00086E0D4011D928A95E9F71DC0CC2009F419
:1048F00083CFDD86EE868D859E850E94BB22F82EB5
:10490000882309F479CF86E0F801A2E5B2E00190AE
:104910000D928A95E1F780915202909153020E9484
:104920009B200E944F228F2D61960FB6F894DEBF18
:104930000FBECDBFDF91CF911F910F91FF90EF90F0
:10494000DF90CF90BF90AF909F908F90089510927E
:10495000C3021092C2020E942C20EBEFF1E086E02D
:10496000DF011D928A95E9F71092F8011092CA02B0
:104970000E944C1F80E090E00E942F2A80E090E08F
:104980000C94192A1092C40286E0ECE4F2E0DF01F4
:104990001D928A95E9F70C94A724882341F080950D
:1049A0009091C40289238093C4020C942C20089512
:1049B000882339F09091C402892B8093C4020C940F
:1049C0002C200895882309F463C0823869F40E947A
:1049D000452A81FF5DC069E38AE492E00E94981F46
:1049E0000E942C2069E30EC0833891F40E94452A6E
:1049F00080FF4EC063E58AE492E00E94981F0E9407
:104A00002C2063E58AE492E00E948B1F0C942C20FA
:104A1000843869F40E94452A82FF3AC067E48AE438
:104A200092E00E94981F0E942C2067E4EBCF9CEF3D
:104A3000980F913A10F4682FE5CF90E2980F9830D4
:104A400088F4877021E030E0A90102C0440F551FAF
:104A50008A95E2F7CA0180959091C40289238093D8
:104A6000C402D4CF9BE5980F933020F480E090E00F
:104A70000C942F2A98E5980F973120F480E090E06D
:104A80000C94192A803F20F00E948B1D0C944C1F1F
:104A90000895CF93882309F421C1C82F8238B1F437
:104AA0000E94452A81FD1AC169E38AE492E00E94CE
:104AB000981F0E942C202FEF81EE94E0215080401F
:104AC0009040E1F700C0000069E317C08338E1F4CB
:104AD0000E94452A80FD02C163E58AE492E00E94BB
:104AE000981F0E942C202FEF81EE94E021508040EF
:104AF0009040E1F700C0000063E58AE492E00E9484
:104B00008B1FCF910C942C208438B1F40E94452A3D
:104B100082FDE4C067E48AE492E00E94981F0E944C
:104B20002C202FEF81EE94E0215080409040E1F75F
:104B300000C0000067E4E1CF8CEF8C0F813A08F0F1
:104B400080C08091CB02813069F018F0823021F171
:104B500070C08091C402823209F0A8C08C2F0E94DC
:104B600089216CC08091C4028232C1F3C43189F0C2
:104B700050F4CB3009F498C0C03109F05DC082E038
:104B80008093CB0291C0C93221F0C83309F48CC0A4
:104B900053C01092CB0250C0C93299F118F5C431FC
:104BA00081F1A0F4C73009F099C01092F70184E1B7
:104BB00080931A01C09329018CE38093280188E037
:104BC0008093270188E28093260188C0CE51C630A9
:104BD00008F084C0EC2FF0E0EB57FE4F808180930B
:104BE000CC027CC0CE34F9F028F4CB3409F076C086
:104BF0006AE014C0C13581F0C23509F06FC061E0D0
:104C00000DC08091CC02882319F01092CC0266C0AE
:104C100081E08093CB0262C061E006C08091CC024B
:104C2000CF910C94151D6AE08091CC02CF910C9429
:104C3000C51C1092CB023AC080E0817081114EC039
:104C400035C080E28C0F883068F4C77081E090E056
:104C500001C0880FCA95EAF79091C402892B80930E
:104C6000C4024FCFEBE5EC0FE33040F4F0E0E15746
:104C7000FE4F808190E0CF910C942F2AE8E5EC0F55
:104C8000E73150F4F0E0EE0FFF1FEE56FE4F80814B
:104C90009181CF910C94192AC03F00F18C2F0E9472
:104CA000921ECF910C944C1F81E0C7CFECE4F2E050
:104CB00082E592E02191C21749F08E179F07D1F744
:104CC0006C2F8AE492E00E94981F1BCF6C2F8AE41D
:104CD00092E00E948B1F0E942C20F2CFCF9108956A
:104CE000CF93C82F0E944925C93349F42FEF87EE8F
:104CF00093E0215080409040E1F700C000008C2FED
:104D0000CF910C94E22408958F929F92AF92BF921C
:104D1000CF92DF92EF92FF920F931F93CF93DF9387
:104D2000FC01B280948081E0848300E015E05BE4C4
:104D3000A52E88248394EE24EA94F12C7BE4C72EDC
:104D4000D12C80910801081708F08FC0C02FD0E047
:104D50001C9FF0011D9FF00D1124E85EFC4F911087
:104D600003C01382128267C02381222389F121505C
:104D700023833481332319F09A2D921B01C0922F83
:104D8000809114021C9FF0011D9FF00D1124E85E1C
:104D9000FC4F899FC0011124B6010E94782E6283C6
:104DA000211104C0332311F01482A38222E02B15B9
:104DB00008F441C01C9FF0011D9FF00D1124E85E16
:104DC000FC4F80911202808380911302818333C053
:104DD0000E94A32D8230914074F582E08B1530F44F
:104DE0000E94A32DB7010E948C2E02C08091120256
:104DF0001C9FF0011D9FF00D1124E85EFC4F808385
:104E000022E02B1558F40E94A32D20911302269521
:104E1000622F70E00E948C2E820F02C080911302DC
:104E20001C9FF0011D9FF00D1124E85EFC4F818353
:104E30001282A3828482809106019E01280F311D77
:104E4000C901880F991F280F391F20533D4F1C9F00
:104E5000F0011D9FF00D1124E85EFC4F428161813D
:104E600080810E944E110F5F6CCFDF91CF911F9117
:104E70000F91FF90EF90DF90CF90BF90AF909F90F9
:104E80008F900C9489100F931F93CF93DF93EC01B5
:104E900000E010E080910801282F30E0021713078E
:104EA00024F5909106019801290F311DA901440FA5
:104EB000551F240F351F20533D4F869590E04C81A0
:104EC000081719071CF4442331F002C0411103C034
:104ED0004091140201C040E06091130280911202DF
:104EE0000E944E110F5F1F4FD5CF0E9489108C81F9
:104EF00090E00196817099278C83DF91CF911F916B
:104F00000F9108950F931F93CF93DF938C01FC01B2
:104F10008481958101968170992795838483C0E06F
:104F2000D5E580910801C81700F5809106012C2F66
:104F300030E0280F311DC901880F991F280F391F34
:104F400020533D4F4C2F4695F80184819581840F65
:104F5000911D817040911402609113028D9F802DEC
:104F600011240E944E11CF5FDCCFDF91CF911F91B2
:104F70000F910C9489101F93CF93DF93EC018C81D8
:104F8000811109C081E08C831092CE0292E090934F
:104F900036018093350180910601909107018917B0
:104FA00070F4E82FF0E09F01220F331FE20FF31F90
:104FB000E053FD4F1182108212828F5FF0CF10E01C
:104FC000609108011617C0F5E12FF0E070E0CF0105
:104FD0000E948C2E20910601820F2091CE02022E7B
:104FE000000C330B90E0E217F307CCF02091360170
:104FF000022E000C330B2E173F078CF09C01220F62
:10500000331F820F931F9C0120533D4F4091140288
:1050100060911302809112020E944E110BC0FC019C
:10502000EE0FFF1F8E0F9F1FFC01E053FD4F1182FB
:10503000108212821F5FC4CF0E94891080913501B7
:105040002091CE02280F2093CE0290913601980F26
:105050009093360119165CF4022E000C330B40912C
:10506000080150E0415051092417350734F081956B
:1050700080933501813009F41C82DF91CF911F911B
:1050800008958F929F92AF92BF92CF92DF92EF924C
:10509000FF920F931F93CF93DF93EC018A8180FFE0
:1050A00003C0BB24BA9402C0BB24B3948C81811189
:1050B0000DC081E0B81206C0809108018150809334
:1050C000CD0202C01092CD0281E08C83A12C48E178
:1050D000942E80910801A81608F044C08091060122
:1050E000CA2CD12C8601080F111DC801880F991FE9
:1050F000080F191F00531D4FF801118210821282F0
:1051000034E0E32EF12C812C8091CD02880D893181
:105110002CF0692D0E946A2E892F05C087FF03C0DD
:1051200090910801890F082E000C990BC816D9061A
:1051300091F4809114028E9DA0018F9D500D112439
:105140005595479555954795980160911302809123
:1051500012020E944E118B0CF1E0EF1AF108A1F639
:10516000A394B7CF0E9489108091CD0291E0B9122B
:105170000EC0811107C08091080181508093CD023B
:105180001C820FC081508093CD02BC820AC090E087
:1051900001966091080170E00E948C2E8093CD02F0
:1051A0008C83DF91CF911F910F91FF90EF90DF9053
:1051B000CF90BF90AF909F908F900895FF920F93E4
:1051C0001F93CF93DF93EC01F12C0FEF10E0609170
:1051D0000801F616F0F4809106012F2D30E0280F1B
:1051E000311DC901880F991F280F391F20533D4FCA
:1051F00070E0C8010E948C2E962F8C814091140281
:1052000060911302F99E800D11240E944E11F394B7
:10521000DECF0E9489109A818C8190FF02C08F5F3F
:1052200001C081508C83DF91CF911F910F91FF902E
:1052300008950F931F93CF93DF9300D01F92CDB7A4
:10524000DEB78C018091CF0281110AC09E012F5FD1
:105250003F4F4FEF6FEF0E944E118A818093CF0234
:10526000F8018481813051F028F0823061F440915E
:10527000CF020AC08091CF0240E007C06091CF0208
:1052800040E080E003C040E080E060E00E94D51094
:10529000F801848190E0019663E070E00E948C2E1A
:1052A00084830F900F900F90DF91CF911F910F91FA
:1052B0000895CF93DF93EC01E1E1F2E04381628155
:1052C0008C810E94E2118C818F5F8C83DF91CF9162
:1052D0000895CF93DF93EC01EC81F0E0EC56FB4FA7
:1052E0004491E1E1F2E0628181810E94E2118C81CE
:1052F0008F5F8C83DF91CF9108951F93CF93DF93BE
:10530000CDB7DEB767970FB6F894DEBF0FBECDBF3F
:105310004B8B5C8B6D8B7E8B8F8B86E09E01235F2E
:105320003F4FD901E82F1D92EA95E9F795E0FE017C
:105330007396D90101900D929A95E1F7F901DE017A
:10534000179601900D928A95E1F7CE0107960E947B
:10535000E42281113EC086E0FE013796DE011196FF
:1053600001900D928A95E1F7FF81E8856A857B853A
:105370006115710531F0EF3F31F481E0FF3F19F421
:1053800003C081E001C080E080FD23C0209158026D
:1053900030E0C9010196877099274091890250E059
:1053A0008417950779F1F983EA837D836C8396E00E
:1053B000929FD001939FB00D1124A75ABD4FFE01BB
:1053C000319601900D929A95E1F7809358020E94D0
:1053D000452216E080918902909158028917F9F0D0
:1053E000189FC0011124875A9D4F0E94E4228823F0
:1053F000B1F08091890290E001968770992780939F
:105400008902E8CF0E94C2241092580210928902A9
:10541000E2E5F2E086E0DF011D928A95E9F7679602
:105420000FB6F894DEBF0FBECDBFDF91CF911F91B5
:10543000089520919403309195032817390771F04E
:105440009093950380939403E091E401F091E5013A
:10545000309721F00084F185E02D09940895209182
:105460009203309193032817390771F090939303B7
:1054700080939203E091E401F091E501309721F0EF
:105480000680F781E02D09940895E091E401F09100
:10549000E501309721F00190F081E02D099480E042
:1054A00008950F931F93CF93DF93C62FD42F122FFE
:1054B000FC0182818823C9F0609328020E94401F6A
:1054C000909391038093900380E28C0F883008F0D2
:1054D00057C0C77081E001C0880FCA95EAF7DF9115
:1054E000CF911F910F910C94D824809128026813BA
:1054F00030C080919003909191030E94311F883CAD
:10550000910538F500E20D0FCD17B9F080E28C0F50
:10551000883040F4C77081E001C0880FCA95EAF76F
:105520000E94CD24083028F581E09D2F977001C09E
:10553000880F9A95EAF70E94D824812F0E9470263E
:105540000830F0F4D77081E001C0880FDA95EAF7EF
:105550000AC080E28C0F883098F4C77081E001C0E7
:10556000880FCA95EAF7DF91CF911F910F910C94A4
:10557000CD24812FDF91CF911F910F910C94702634
:10558000DF91CF911F910F910895CF93DF93C6ECD8
:10559000D2E060E0CE010E94C72D2196C11584E0C3
:1055A000D807B9F7DF91CF910895CF92DF92EF92AC
:1055B000FF920F931F93CF93DF93C0E0D0E08E0153
:1055C00008551F4F6E018CE0C80ED11CFE01EC5631
:1055D000FA4FE590F4906F2DCE0186960E94C72D6C
:1055E0006E2DCE0187960E94C72D2296CC15DD0523
:1055F00069F70C171D0731F7E801003A1240F9F678
:10560000DF91CF911F910F91FF90EF90DF90CF909E
:1056100008950F931F93CF93DF93C42FD0E0CC0F47
:10562000DD1F2CE0629FC00DD11D112438EA839F3D
:10563000C00DD11D1124CE0186960E94B32D082FD6
:1056400010E0102F0027CE0187960E94B32D9801FD
:10565000282BC901DF91CF911F910F910895462FFB
:10566000843038F47E3028F4663018F4672F0C94B8
:10567000092B80E090E00895CF93C82F811102C0DC
:105680006FEF01C060E282E290E00E94C72DC1117D
:1056900002C06FEF01C068E083E290E00E94C72D76
:1056A000C11102C06FEF01C061E084E290E0CF91D0
:1056B0000C94C72D9091110290FF04C096959817F5
:1056C00040F003C0811105C090E0961710F40C94CF
:1056D000EC1461E00C94A314882311F0FA0101C0CA
:1056E000FB010994E0EFF1E0118282818460828302
:1056F000089560911102669570E04BE050E08AE2F7
:1057000091E00E94AD2E892B19F481E08093F10184
:105710000E94401F9093EB018093EA018091F20177
:1057200084608093F20108958EE1489B02C081500D
:10573000E1F7489BFECF0895589880E28A95F1F7EB
:10574000589A0895FC012AE02A95F1F790E020E0AC
:1057500080E031E0261779F040E14A95F1F7880FB3
:10576000489B02C08160932700C0000040E14A9539
:10577000F1F72F5FEFCF20E12A95F1F729B100C0B3
:10578000000030E13A95F1F7217092272081920FC5
:1057900090830895EF92FF920F931F93CF93DF931F
:1057A0001F92CDB7DEB719828C017C01E60EF11C89
:1057B0000E151F0559F00E94942B68E0CE0101964A
:1057C0000E94A22BF80181938F01F2CF81E0998191
:1057D000911180E00F90DF91CF911F910F91FF9079
:1057E000EF900895909398038093970360939603A6
:1057F000509A589A089590939803809397036093D2
:1058000096035098589AE89AE9E6F0E080818C7FF8
:1058100080830895615091E001C0990F6A95EAF77D
:1058200020E031E0992361F0492F482319F0589A7C
:10583000232701C0589840E24A95F1F79695F2CF98
:10584000222311F0589A01C0589880E28A95F1F706
:1058500058980895FF920F931F93CF93DF93EC0115
:105860008C01060F111DC017D10741F0F9900E945D
:105870009C2B68E08F2D0E940A2CF5CFDF91CF91F1
:105880001F910F91FF9008951F920F920FB60F92E4
:1058900011240F931F932F933F934F935F936F9315
:1058A0007F938F939F93AF93BF93EF93FF93CF9388
:1058B000DF931F92CDB7DEB719820E94942B67E069
:1058C000CE0101960E94A22B382F3695369536953B
:1058D000932F96959570232F2570920F292F237063
:1058E000969596958770920F891348C0898181118A
:1058F00045C080919603831708F440C080E18A95E3
:10590000F1F7589A509AA2E0AA95F1F700C00091D9
:10591000970310919803B8E03B9F000D111D1124CF
:105920005898F8016581662321F0868197810E944D
:105930002A2C0E949C2BF0E1FA95F1F75898509888
:10594000589A80E18A95F1F7D80112966C911297D6
:10595000662369F013968D919C9114970E94CA2B2F
:10596000D801ED91FC91811105C082E004C0D801FD
:10597000ED91FC9188E080830E94942B0F90DF9141
:10598000CF91FF91EF91BF91AF919F918F917F91B7
:105990006F915F914F913F912F911F910F910F90B8
:1059A0000FBE0F901F9018950F931F93CF93DF9307
:1059B0002091960330E0281739070CF471C09C0140
:1059C00093E0220F331F9A95E1F7C0919703D0918E
:1059D0009803C20FD31FF894509A589845E04A95FF
:1059E000F1F70000982F969595708570890F982F84
:1059F000937086958695890F8901082B0E949C2BB0
:105A000084E08A95F1F700C067E0802F0E940A2C9D
:105A100040E14A95F1F75098589A489902C000C061
:105A2000FCCF87E090E0489B0EC0019751F4509A5C
:105A3000589AE881F98181E08083789481E090E050
:105A400031C000C0F0CF6D81662381F08E819F81CF
:105A50000E94CA2B81110AC0509A589AE881F98194
:105A600082E08083789482E090E01CC00E94942BB6
:105A700080E28A95F1F75898509A40E14A95F1F7FB
:105A80006A81662321F08B819C810E942A2C0E94CE
:105A90009C2BE881F9811082789480E090E002C02C
:105AA00084E090E0DF91CF911F910F9108958F9244
:105AB0009F92AF92BF92CF92DF92EF92FF92CF93DD
:105AC000DF93EC01688179818A819B816115710581
:105AD0008105910521F464E279ED8BE597E02DE1F4
