:100000000C94B7030C94DF2D0C94FE030C94FE03A8
:100010000C94FE030C94FE030C94FE030C94FE035C
:100020000C94FE030C94FE030C9411290C944D289F
:100030000C94371B0C94FE030C94FE030C94FE03EB
:100040000C94FE030C94FE030C94FE030C94FE032C
:100050000C94FE030C94A91A0C94FE030C94FE035A
:100060000C94FE030C94FE030C94FE030C94FE030C
:100070000C94FE030C94FE030C94FE030C94FE03FC
:100080000C94FE030C94FE030C94FE030C94FE03EC
:100090000C94FE030C94FE030C94FE030C94FE03DC
:1000A0000C94FE030C94FE030C94FE0327112A11FA
:1000B00044115111581178117B11AF11D1116A12ED
:1000C0006A12DC11DE11E2110512251228122B1220
:1000D0004C1283168316BD16BD1616173217C81894
:1000E000C8183D171B182C182C18CC1CCC1CDF1C56
:1000F000DF1CD51CDF1CDF1CDF1CCC1CCC1CDA1C5D
:10010000DF1CDF1CDA1C612688262F2888262F2872
:10011000D426F7262F28EC27FC2700010101010136
:1001200001010101020202020202020202030303B0
:100130000303030303040404040404040505050580
:100140000506060606060707070707080808080940
:100150000909090A0A0A0B0B0B0C0C0C0D0D0D0EEC
:100160000E0E0F0F0F101011111112121313141481
:10017000151516161717181819191A1A1B1B1C1DF6
:100180001D1E1E1F2020212222232424252626274F
:100190002829292A2B2C2D2D2E2F30313232333481
:1001A00035363738393A3B3C3D3E3F404142434487
:1001B00045464748494A4C4D4E4F50515354555669
:1001C00058595A5B5D5E5F616264656668696B6C15
:1001D0006D6F7072737577787A7B7D7E8082838590
:1001E00087888A8C8E8F91939596989A9C9EA0A2D0
:1001F000A3A5A7A9ABADAFB1B3B5B7BABCBEC0C2DA
:10020000C4C6C9CBCDCFD1D4D6D8DBDDDFE2E4E79D
:10021000E9EBEEF0F3F5F8FAFDFFFFAA7F55401E7B
:100220000F0500047F3F1F643214643214783C1EB3
:100230001E140A050000000000000000000000007D
:1002400000000000000000000000000000000000AE
:1002500000000000000000007E0F00D4FFFFFFC779
:100260000000007800000000000000002A2B280099
:100270000000000000000000000000000000002955
:10028000000000002C1E3420212224342627252E95
:10029000362D3738271E1F202122232425263333CD
:1002A000362E37381F0405060708090A0B0C0D0EF9
:1002B0000F101112131415161718191A1B1C1D2FC5
:1002C0003130232D350405060708090A0B0C0D0EE5
:1002D0000F101112131415161718191A1B1C1D2FA5
:1002E0003130354C2223252628292A2C2D2F303237
:1002F000333536383A3B3D3E4042434547494A4C08
:100300004E5051535557595A5C5E60626466686935
:100310006B6D6F71737577797B7D7F81838587893D
:100320008A8C8E90929496989A9C9E9FA1A3A5A742
:10033000A8AAACAEAFB1B3B4B6B8B9BBBCBEBFC16E
:10034000C2C3C5C6C7C9CACBCCCDCED0D1D2D2D3F9
:10035000D4D5D6D7D7D8D9D9DADADBDBDBDCDCDC0D
:10036000DCDCDDDDDDDDDCDCDCDCDCDBDBDBDADAD0
:10037000D9D9D8D7D7D6D5D4D3D2D2D1D0CECDCC47
:10038000CBCAC9C7C6C5C3C2C1BFBEBCBBB9B8B65C
:10039000B4B3B1AFAEACAAA8A7A5A3A19F9E9C9AE7
:1003A00098969492908E8C8A89878583817F7D7BB5
:1003B00079777573716F6D6B6968666462605E5C96
:1003C0005A5957555351504E4C4A4947454342405C
:1003D0003E3D3B3A3836353332302F2D2C2A2928F2
:1003E000262523223A003B003C003D003E003F0012
:1003F00029001E001F002000210022002B001400F5
:100400001A00080015001700E1000400160007009C
:1004100009000A00E0001D001B000600190005008D
:10042000000000002F00300002512C0000000000EE
:100430002A0035002B004A004000410042004300E2
:1004400044004500230024002500260027002A0040
:100450001C0018000C00120013002D000B000D00F2
:100460000E000F003300340011001000360037007A
:1004700038003100280001512E022E00000000003B
:100480004D004C00E300E200000000003A003B0099
:100490003C003D003E003F0035021E021F022002CC
:1004A00021022202010001000100010001002F00D1
:1004B00001004A004B004E004D00260201000100E1
:1004C00001000100010001000000000001004600E1
:1004D0000100010000000000010001000100010016
:1004E0004000410042004300440045002302240232
:1004F0002502260227024C0030005F0060006100E8
:1005000001002E0227025C005D005E002D0031021A
:10051000010059005A005B002E002D02010001006D
:100520000100620000000000010001000100010064
:100530000000000045003A003B003C003D003E004A
:10054000010001000100010001002F000100500026
:10055000520051004F00260201000100010001007D
:100560000100010001000100010001000100010083
:100570000000000001000100010001000000000077
:1005800001000100010001003F0040004100420065
:100590004300440030000100530049004700A80018
:1005A0002702AC00AE00AB000100A9000100010071
:1005B000010001000100AA0001000100010001008A
:1005C00001000100010001002E00010000000000F8
:1005D0000100010001000100000000000501090206
:1005E000A10185020901A1000509190129081500C9
:1005F0002501950875018102050109300931158130
:10060000257F95027508810609381581257F95019A
:1006100075088106050C0A38021581257F9501753C
:10062000088106C0C005010980A101850319012ABE
:10063000B700150126B700950175108100C0050CA3
:100640000901A101850419012AA002150126A002B1
:10065000950175108100C00660FF0961A101096262
:10066000150026FF009520750881020963150026F4
:10067000FF00952075089102C005010906A101053A
:100680000719E029E71500250195087501810295F4
:1006900001750881010507190029FF150026FF00D3
:1006A000950675088100050819012905950575014C
:1006B0009102950175039101C009025B00030100DD
:1006C000A0FA090400000103010100092111010041
:1006D000012240000705810308000A090401000205
:1006E00003000000092111010001222200070582F8
:1006F0000320000107050303200001090402000193
:1007000003000000092111010001227B000705847C
:100710000320000A12011001000000084D44363683
:100720000100010200012C03440061006300740019
:1007300079006C002D004D0061006E0075006600B0
:100740006F0072006D00200028003600780036002F
:100750002900000014034F0068004B006500790079
:100760006300610070007300000004030904112499
:100770001FBECFEFDAE0DEBFCDBF04B603FE27C059
:100780008091440390914503A0914603B0914703A3
:100790008730904BA740B04BD1F410924403109295
:1007A0004503109246031092470314BE84B7877F17
:1007B00084BF0FB6F894A8958091600088618093FB
:1007C0006000109260000FBEE0E0F8E3099511E0D0
:1007D000A0E0B1E0ECECF0E602C005900D92A23C86
:1007E000B107D9F723E0A2ECB1E001C01D92A43417
:1007F000B207E1F70E94190D0C9464300C940000CC
:100800009091CD0192FF0DC0282F2871283019F446
:10081000877F846006C0282F2471243011F48B7FD9
:10082000886093FF0DC0282F2871283119F4877E26
:10083000846106C0282F2471243111F48B7E8861D5
:100840002091CE0120FF0DC0382F3871383019F4B7
:10085000877F816006C0382F3171313011F48E7F6F
:10086000886021FF0DC0282F2871283119F4877E58
:10087000816106C0282F2171213111F48E7E88619B
:1008800094FD877E08950F931F9341E050E060E050
:1008900070E08A019B0104C0000F111F221F331F4B
:1008A0008A95D2F7C901B8010E94A91D1F910F9125
:1008B0000C94EC1F25E0ECE0F2E0DC0101900D92DD
:1008C0002A95E1F72091EC013091ED014091EE0184
:1008D000FC0125833683478308951092EE01089525
:1008E0008091EE0108953091050180910C0280FF06
:1008F00016C0E091040163E0E69FF0011124E75582
:10090000FD4F539A8BB1877F9BB198602FB7F894B6
:10091000AF0163E0369F400D511D112414C080913A
:10092000060190910701891720F7E82FF0E0AF0149
:10093000440F551FE40FF51FE755FD4F118210823C
:1009400012828F5FF0CFE417F50789F0319168E0EC
:100950009BB9000000C037FF8BB9330F000000C007
:1009600000C000C08BB900C06A9591F7ECCF2FBFD3
:100970008FE594E00197F1F700C000000895909191
:100980000C0290FF16C0909106012091070192176A
:1009900070F4E92FF0E0DF01AA0FBB1FEA0FFB1F85
:1009A000E755FD4F8183608342839F5FF0CF0C94B6
:1009B0007304089580910C02282F269530E02115AC
:1009C000310519F48170826005C02B32310524F0A5
:1009D0008170846580930C020895CF92DF92EF922C
:1009E000FF926B017C010E94DA04B701A60188E046
:1009F00090E0FF90EF90DF90CF900C94742F809157
:100A00001002882319F081508093100260910C022B
:100A100070910D0280910E0290910F020C94ED04E2
:100A200080911002833018F48F5F809310026091E0
:100A30000C0270910D0280910E0290910F020C94A5
:100A4000ED04ECE0F2E083E0808311828FEF82839B
:100A500083831482ACEEB1E012968C91129783607E
:100A600012968C9360817181828193810C94ED0444
:100A7000AF92BF92CF92DF92EF92FF920F931F93AC
:100A8000CF93DF93E82EF62EE901E42FF0E0611119
:100A900006C0E65EFE4FE4914E2F2E2F71C0062F4A
:100AA00010E0E65EFE4F4491F42FC42ED12C26E0D8
:100AB000829FC00111242FEF30E0B9010E94133052
:100AC0005BEA5603C001579F900D11248E0D911DB6
:100AD0008E0D911D582F550F580FD901A01BB10B2A
:100AE000AC9DC001AD9D900DBC9D900D1124E92FD2
:100AF000F59ED0011124AB2FBB277901EA1AFB0A1E
:100B0000EC9CD001ED9CB00DFC9CB00D1124590162
:100B1000A51AB108A09E7001A19EF00CB09EF00C29
:100B20001124EF2CFF242E193F092C9D80012D9DAF
:100B3000100D3C9D100D1124212F6230710591F094
:100B400048F461157105E1F061307105B9F4242FA5
:100B50004B2F16C06430710569F040F066307105A6
:100B600079F00CC0242F492FE12F0AC0492FEF2F15
:100B70002B2F06C0292FE42F412F02C0292FEB2F46
:100B800049832883EA83DF91CF911F910F91FF90D2
:100B9000EF90DF90CF90BF90AF900895CF93DF9309
:100BA00000D01F92CDB7DEB790910C0290FF0AC023
:100BB0009E012F5F3F4F0E9438054B8169818A81DA
:100BC0000E94BF040F900F900F90DF91CF91089576
:100BD000AF92BF92CF92DF92EF92FF920F931F934B
:100BE000CF93DF9300D01F92CDB7DEB7182FF62E2C
:100BF000042FE22E90910C0290FF7EC0E92FE69523
:100C0000AE2FB0E0A85CBE4F8C918093EC019E7F2C
:100C1000923061F49E012F5F3F4F812F0E94380573
:100C20004B8169818A810E94BF0443C0823019F4DC
:100C300000910F023EC0863019F410910D0239C0A8
:100C40008930D9F38931A9F5E9518E2F8170D82ED9
:100C5000E695F0E0E65EFD4FA590B490C12CBB2474
:100C600060910801C61618F52C2D30E0A29EC00137
:100C7000A39E900DB29E900D112470E00E9413303F
:100C8000812FD11002C0860F01C0861B90910601F2
:100C9000290F311DA901440F551F240F351F27555A
:100CA0003D4F402F6F2D0E943805C394D9CF0E942D
:100CB000730480910D02181308C080910E02F8127F
:100CC00004C080910F02081729F08091EE01826024
:100CD0008093EE0110930D02F0920E0200930F022A
:100CE000EE2051F060910C0270910D0280910E0285
:100CF00090910F020E94ED040F900F900F90DF91E2
:100D0000CF911F910F91FF90EF90DF90CF90BF9008
:100D1000AF900895ECE0F2E0438121E1421B08F43A
:100D200040E021E0628181810C94E805ECE0F2E092
:100D3000438121E1420F08F44FEF21E0628181817C
:100D40000C94E805ECE0F2E0628121E1621B08F41A
:100D500060E021E0438181810C94E805ECE0F2E061
:100D6000628121E1620F08F46FEF21E0438181810C
:100D70000C94E805ECE0F2E0818121E0438162819E
:100D800088500C94E805ECE0F2E0818121E0438199
:100D90006281885F0C94E8050E94221B2091F80173
:100DA000211104C02091F901222321F09093F50133
:100DB0008093F4012091FA01211104C02091FB01DC
:100DC000222321F09093F1018093F001E091E00162
:100DD000F091E101309749F082E08093F6010480C0
:100DE000F581E02D86EF91E009940895803F39F474
:100DF0009091F90197FF35C01092F90159C0813FD8
:100E000029F49091F9011916BCF32BC09091F801C7
:100E1000823F29F497FF25C01092F80149C0833F13
:100E200019F41916CCF31DC09091FA01893F29F4E9
:100E30001916BCF41092FA013BC08A3F19F497FFCF
:100E400010C0F8CF8B3F39F49091FB0197FF09C098
:100E50001092FB012DC08C3F21F49091FB011916DB
:100E6000BCF39CE0980F953080F421E030E0A901BC
:100E700002C0440F551F9A95E2F7CA0180959091E0
:100E8000F70189238093F70113C08D3F21F48091EE
:100E900029028E7F0BC08E3F21F4809129028D7F25
:100EA00005C08F3F29F4809129028B7F809329020E
:100EB0008091F801811106C08091F901811102C071
:100EC0001092F3018091FA01811106C08091FB011B
:100ED000811102C01092EF0108958091290280FFD4
:100EE00008C06091250170E07595679575956795C7
:100EF00021C081FF06C06091250170E0759567955E
:100F000019C082FF04C06091250170E010C090916B
:100F1000EF01992399F0609124019617A0F7809131
:100F20002501899FC001112470E00E94273060389C
:100F3000710540F46115710519F406C061E070E0B7
:100F4000862F08958FE7089581E008958091290202
:100F500080FF0BC06091270185E0689FB0011124DC
:100F600075956795759567952BC081FF09C0609150
:100F7000270185E0689FB00111247595679520C011
:100F800082FF07C06091270185E0689FB0011124AE
:100F900017C09091F3019923D1F060912601961723
:100FA00088F72091270185E0289F90011124929FC6
:100FB000A001939F500D112470E0CA010E942730B8
:100FC0006038710540F46115710519F406C065E0DB
:100FD00070E0862F08958FE7089581E00895803F9F
:100FE00021F40E94A607819504C0813F29F40E9444
:100FF000A6078093F9010895823F21F40E94A60775
:10100000819504C0833F29F40E94A6078093F801CC
:101010000895893F19F40E946D0705C08A3F31F495
:101020000E946D0781958093FA0108958B3F21F40A
:101030000E946D07819504C08C3F29F40E946D07C2
:101040008093FB0108959CE0980F953078F421E09F
:1010500030E0A90102C0440F551F9A95E2F7CA017A
:101060009091F701892B8093F70108958D3F21F42A
:101070008091290281600BC08E3F21F4809129026A
:10108000826005C08F3F29F480912902846080939B
:1010900029020895833011F128F4813049F082301B
:1010A00091F00895853081F120F18630C1F10895E5
:1010B0008091F201681720F4861B8093F201089555
:1010C0001092F201089580910A01681720F4861B9E
:1010D00080930A01089510920A01089580912701D2
:1010E000681720F4861B809327010895109227012A
:1010F000089580912601681720F4861B80932601AD
:10110000089510922601089580912501681720F412
:10111000861B8093250108951092250108958091E2
:101120002401681720F4861B8093240108951092EF
:1011300024010895833081F128F4813059F0823000
:10114000D1F00895853009F449C0B8F1863009F42A
:1011500056C008958091F201262F30E0280F311DEE
:101160002F3F310524F4680F6093F20108958FEF4B
:101170008093F201089580910A01262F30E0280F14
:10118000311D2F3F310524F4680F60930A01089543
:101190008FEF80930A01089580912701262F30E078
:1011A000280F311D2F3F310524F4680F609327016C
:1011B00008958FEF80932701089580912601262FAF
:1011C00030E0280F311D2F3F310524F4680F609364
:1011D000260108958FEF80932601089580912501BF
:1011E000262F30E0280F311D2F3F310524F4680FE2
:1011F0006093250108958FEF8093250108958091D4
:101200002401262F30E0280F311D2F3F310524F413
:10121000680F6093240108958FEF8093240108954F
:101220008B3109F474C058F58B3009F492C078F40E
:10123000863009F446C020F4853009F44CC08BC0D8
:10124000873009F456C0883009F483C084C08031E7
:1012500009F470C068F48E3009F07DC08091FD0102
:1012600082FB222720F991E0922790FB82F958C057
:10127000863109F46EC0893109F46BC06CC08A32C2
:10128000E9F060F4873209F461C028F48E3108F483
:1012900062C08D515CC08932F1F05DC0833450F47E
:1012A0008A3308F051C0853309F450C0883309F4FB
:1012B00050C051C0833409F449C04DC00E94981BEE
:1012C00048C08091FD01817F8E7F8093FD0181E088
:1012D00080932B0308950E94EC1F2FEF84E39CE082
:1012E000215080409040E1F700C000000E94981A11
:1012F00030C08091FD01982F9095917090FB80F9FE
:101300008093FD01911125C0897F877F10C0809156
:10131000FD0181FB222720F991E0922790FB81F9C2
:101320008093FD019923A9F08091FD018160809354
:10133000FD010FC08091FD0183FB222720F991E080
:10134000922790FB83F9ECCF895301C080E00E9483
:10135000430481E0089580E008958091C8018111DF
:1013600018C08091D80080618093D8008AE18A9566
:10137000F1F700C08091D90080FD02C082E001C079
:1013800081E08093C801823021F40E94912810925C
:101390001C0381E09091C801913009F080E008952C
:1013A000F894E82FE295EF70F0E031A1282F2F702C
:1013B00081E090E001C0880F2A95EAF7982F909578
:1013C000932391A392A1892B82A3789408958F925D
:1013D0009F92AF92BF92CF92DF92EF92FF920F93C4
:1013E0001F93CF93DF93CDB7DEB727970FB6F8944F
:1013F000DEBF0FBECDBF03E611E08FECC82E81E04B
:10140000D82E4601F12CAA24A394B12CB801D801FE
:101410008C91F894E82FE295EF70F0E021A18F70A5
:10142000A50102C0440F551F8A95E2F7CA01922F09
:10143000982B91A392A18095892382A3789400C0D0
:10144000E1E7F1E020E030E0E12C4191842F82954A
:101450008F7090E0DC0190968C9190E04F7002C00C
:10146000959587954A95E2F780FD07C08A2D022E53
:1014700001C0880F0A94EAF701C080E0E82A2F5FD4
:101480003F4F2630310509F70F5F1F4FFB01808169
:101490000E94D009F0EAFA95F1F7D4018C91E81690
:1014A00019F0EC9281E001C080E0F82ABFEF8B1ABE
:1014B0009B0AE1E00A361E0709F0A8CF1091DE0171
:1014C000FF2049F081E08093C6010E94221B909387
:1014D000C5018093C4018091C6018823B9F0809131
:1014E000C4019091C5010E94CF1A069778F0E12FB0
:1014F000F0E0EF5EFD4FD6018D916D018193B6ED69
:10150000CB16B1E0DB06B9F71092C6010E94AD0917
:101510006091DE018823E9F18E010F5F1F4F87E0A4
:10152000F80111928A95E9F7862F90E0B8018F5E55
:101530009D4F0E94E12C811115C08091C7018F5FE2
:101540008093C701863078F1E091DD01F0E0EF5E35
:10155000FD4F80E090E01192019687309105D9F718
:1015600081E022C01092C701E091DD01F0E0EF5E62
:10157000FD4FD8019E01285F3F4F80E09D91408143
:10158000491711F0908381E03196A217B307B1F7A4
:101590000BC070E06F5E7D4F8091DD0190E08F5E4B
:1015A0009D4F0E940F2D80E0FF2011F081E090E020
:1015B00027960FB6F894DEBF0FBECDBFDF91CF9157
:1015C0001F910F91FF90EF90DF90CF90BF90AF9061
:1015D0009F908F900895CF93DF930E941625EC0182
:1015E0008238910559F1A0F48133910509F473C053
:1015F00040F48932910509F467C08A9709F472C0F2
:1016000084C08533910509F458C0C997B9F07DC0ED
:10161000833E910571F138F4803E9105B1F0823E30
:10162000910511F172C0863E9105B9F1873E910591
:10163000C9F1843E910509F068C024C08091CD01B4
:1016400080FD5DC081FD5BC060C08091CD0180FDEB
:1016500050C08091CE0180FF49C18091CD0184FDB1
:1016600043C1C3EED0E042C18091CD0182FF3EC1B3
:10167000F4CF8091CD0182FD3FC08091CE0180FDED
:101680003EC0EBCF8091CE0181FF30C18091CD0172
:1016900084FD2AC1C7EED0E029C18091CD0183FF2E
:1016A00025C1F4CF8091CD0183FD2CC08091CE0166
:1016B00081FFECCFC4EED0E019C18091CD0185FF50
:1016C00015C1C9E2D0E012C18091CD0185FF0EC1E4
:1016D000C5E3D0E00BC18091CD0186FF07C1CAE20E
:1016E000D0E004C18091CD0186FF00C1C1E3D0E00C
:1016F000FDC0C9E3D0E0FAC0C2EED0E0F7C0C0EE52
:10170000D0E0F4C0C6EED0E0F1C0C11581E5D80745
:1017100008F066C0C11520E5D207E0F0CE0174E004
:10172000969587957A95E1F783709C2F937021E0C9
:1017300030E002C0220F331F9A95E2F73C68382B45
:10174000CF70C695C69540E2C49FE0011124C22B1C
:10175000D32BCCC0C83ED10560F5C03ED10508F002
:10176000C5C0C83AD105B0F4C53AD10540F0C55A54
:10177000D0E0C057DE4FC881D0E0D064B7C0C130E0
:10178000D10509F4B3C008F4AFC0C430D10508F4E2
:10179000ABC0ACC0CF3BD10508F0A6C0C85AD0E062
:1017A000CC0FDD1FCD56DE4F0990D881C02DD464FB
:1017B0009DC0C11540E2D40758F4C11581E0D80797
:1017C00008F094C0C03FD10508F48EC0D0658EC02B
:1017D000C11520E4D20708F487C0DF70D06A86C044
:1017E000C11545E5D40708F042C0C11584E5D80706
:1017F00028F0DC2FCC27C46FD06A78C0C11523E550
:10180000D207B0F0CE018370992721E030E002C00A
:10181000220F331F8A95E2F78C2F8695869540E23A
:10182000849FC0011124E901C82BD92BDA685EC05E
:10183000C11542E5D40728F4DC2FCC27C16FD06A4C
:1018400055C0CE018370992721E030E002C0220FFD
:10185000331F8A95E2F78C2F8695869540E2849F08
:10186000C0011124E901C82BD92BDC683FC0C11588
:1018700089E5D807B8F4C11528E5D20728F0DC2F90
:10188000CC27C06FD06A32C0C11546E5D40760F5D9
:101890008C2F0E9400048F71C82FD0E0DC2FCC2742
:1018A000D06224C0C1158AE5D80780F48C2F8F70D0
:1018B0000E94000494E0D695C7959A95E1F7CF7001
:1018C000D0E0DC2FCC27D069C82B10C0CE019056B9
:1018D0008115904248F48D2F8F710E940004DD27FE
:1018E000D0628F71D82B02C0C0E0D0E0CE01DF9172
:1018F000CF910895ECE0F2E080818E7F80830E949A
:101900003B25ECEEF1E08281816082832FEF80E75E
:1019100092E0215080409040E1F700C000000C941C
:10192000730490910C0290FF3BC09170811102C032
:10193000926006C08B3210F0946502C0880F982B1D
:1019400090930C028091EE0181608093EE016623FA
:1019500051F060910C0270910D0280910E029091F5
:101960000F020E94ED0460910C02669570E04BE05E
:1019700050E085E191E00E945730892B19F00E94D8
:101980003B2502C00E94422581E08093E90120E0CE
:1019900040910F0260910E0280910D020C94E805B7
:1019A00008951F93CF93DF93EC01162F8F8180FF53
:1019B0000FC0888180FF0AC080910C0281608093F3
:1019C0000C02888186950E94910C02C00E947A0CBC
:1019D0008F8181FF06C0212F4B816A8189810E94FE
:1019E000E8058F8182FF08C08E81882319F00E944C
:1019F000422502C00E943B258F8183FF03C081E006
:101A00008093E901DF91CF911F91089580910C029D
:101A10008695815009F48AE261E00C94910C8091E2
:101A20000C0286958F5F8B3208F081E061E00C94A8
:101A3000910CCF93DF93CDB7DEB7AA970FB6F8948A
:101A4000DEBF0FBECDBF84B7877F84BF0FB6F894CB
:101A5000A89580916000886180936000109260007A
:101A60000FBE90E080E80FB6F894809361009093E9
:101A700061000FBE85B7806885BF85B7806885BF68
:101A800081EF99E19093C3018093C2010E94912854
:101A90000E94B0288091E20084608093E2007894F4
:101AA00080911C038823A1F01091E9001F70909190
:101AB000EC00892F817090FD80E8182B1092E900CE
:101AC0008091E80083FD0E947B251F701093E90040
:101AD00082E084BD93E095BD9AEF97BD80936E0040
:101AE0001092C9011092CA011092CB011092CC0140
:101AF0008EE090E00E944E2F91E0811101C090E0B5
:101B00009093090180910901882321F0109204012A
:101B100086E003C086E080930401809305010E9463
:101B2000AD0981110E94B82C8091090180910901B1
:101B3000882311F090E001C097E09093DE0187E0E8
:101B4000891B8093DD0103E611E02AE6E22E21E005
:101B5000F22EF80181918F010E94D009E016F10662
:101B6000C1F701E711E097E7E92E91E0F92EF801BE
:101B700081918F010E94D009E016F106C1F7EFECC8
:101B8000F1E08DED91E0A1E1B2E011921D928E178E
:101B90009F07D9F780E090E00E945C2F8A3E9E4F1D
:101BA00011F00E94981B82E090E00E944E2F8093DB
:101BB000FD010E94871B9093CE018093CD010E946E
:101BC000E7098FE39CE90197F1F700C000000E944C
:101BD000E7098091110280FF17C06FEF83E290E068
:101BE0000E94622F6FEF84E290E00E94622F6FEFFD
:101BF00085E290E00E94622F6FEF7FEF80E090E03F
:101C00000E94802F0E94981A83E090E00E944E2F3D
:101C1000682F70E080E090E00E94A91D0E94AD094D
:101C2000811102C00E94BE2C83E290E00E944E2FE0
:101C3000813281F484E290E00E944E2F873051F48B
:101C400085E290E00E944E2F91E0843109F090E00F
:101C5000892F01C080E080FF84C48091DF01811161
:101C60003BC080E090E00E945C2F8A3E9E4F21F0B6
:101C70000E94981B0E94210588E090E00E94562F48
:101C800060930C0270930D0280930E0290930F02EA
:101C90008091EE0183608093EE016E7F71F40E946B
:101CA000210588E090E00E94562F60930C0270930B
:101CB0000D0280930E0290930F020E94DA040E949C
:101CC0003B2580910C0280FF04C060E086950E9455
:101CD000910C81E08093DF018BE091E09093E10132
:101CE0008093E001B8E16B2E712C10E4312E00E1FD
:101CF000402E80E1582E9E012F5F3F4F79015E01FB
:101D000031E1A30EB11C80911C03853009F03FC066
:101D100012E180911C03853009F035C080911C03CD
:101D2000843009F11092E2010FB6F894A895609200
:101D300060000FBE3092600083B7817F846083BFF4
:101D400083B7816083BF7894889583B78E7F83BF84
:101D50000FB6F894A8958091600088618093600028
:101D6000109260000FBE80911B03882391F20E94A5
:101D7000E709E1E1F2E081918111D4C342E0EF3162
:101D8000F407C9F7C6CF0E94EC1F0E942D240E94C1
:101D9000E70981110E94DE1AAEEFB1E0E1E1F2E065
:101DA00000E010E0802E91908D91892549F1C12CA1
:101DB000DD24D394982F9D21F1F00E94AD09882352
:101DC00099F0C9A28AA29D2081E009F480E08BA34A
:101DD0000E94221B8160782F9DA38CA349A15AA148
:101DE0006BA18DA10E946323F801E250FE4F808118
:101DF000D826D0821AC0C394DD0C96E0C912DACF7F
:101E00000F5F1F4F0E30110569F68FEF8EA38FA362
:101E100018A60E94221B8160782F9AA789A74EA13D
:101E20005FA168A58AA50E9463238091ED018823A4
:101E300009F4CFC08091EC01E0910C02E695E81B1B
:101E4000E093E801823059F4F0E0E05DFD4FE49169
:101E50000E2F10E0AFE4CA2EA3E2DA2E6BC086305C
:101E600059F4F0E0E35DFD4FE4910E2F10E0FFE345
:101E7000CF2EF3E2DF2E5EC0893061F4E695F0E00C
:101E8000E65DFD4FE4910E2F10E0E4ECCE2EE2E291
:101E9000DE2E50C08F3061F4E695F0E0E95DFD4F35
:101EA000E4910E2F10E077E2C72E72E2D72E42C0E7
:101EB000853159F4F0E0EC5DFD4FE4910E2F10E018
:101EC00061EAC62E61E2D62E35C08831F9F0833240
:101ED00049F4E2E2F2E0059114915FEFC52E52E27F
:101EE000D52E28C08432C9F08532F1F48E2F63E0FC
:101EF0000E94F92FE92FF0E0E15EFD4FE4910E2FF3
:101F000010E048EFC42E4FE1D42E14C008E210E0D8
:101F10003EE0C32E31E2D32E0DC004EF11E02FECD2
:101F2000C22E20E2D22E06C000ED17E097EFC92E98
:101F30009FE1D92E8091E901882361F01092E90197
:101F40000E942E1B9093E7018093E6011092EB0113
:101F50001092EA010E942E1BE091E601F091E70148
:101F60009C012E1B3F0B2F3F3F4798F52091E50129
:101F70002223B1F01092E5012091E3013091E401B8
:101F8000821B930B8F3F9F4758F4205D3A48309354
:101F9000E4012093E3018091EE0188608093EE01DB
:101FA0008090EA019090EB010E0F1F1F1093E70144
:101FB0000093E60186EE91E0F60109958091EA0131
:101FC0009091EB01892B29F4892819F081E0809305
:101FD000E50186E0E6EFF1E0D70101900D928A95E8
:101FE000E1F7C090F801D090F9010091FA01109149
:101FF000FB011092F8011092F9011092FA0110926F
:10200000FB01C11003C0DD2009F45DC08091F40123
:102010009091F5010E94CF1AAC019091F3019923A0
:1020200039F020910A0130E02417350758F04BC0F1
:102030002091F201FAE02F9F900111242417350717
:1020400018F041C09F3F19F09F5F9093F301CC209F
:1020500061F00E94A6071C1414F491E001C09FEFE8
:10206000899F802D11248093F801DD2061F00E946A
:10207000A6071D1414F491E001C09FEF899F802DE5
:1020800011248093F9013091F8013323E1F020917C
:10209000F9012223C1F045EB3403C0011124992337
:1020A00019F09093F80103C081E08093F80135EBBB
:1020B0002303C0011124992319F09093F90103C05F
:1020C00081E08093F901011103C0112309F451C08B
:1020D0008091F0019091F1010E94CF1A9C019091A2
:1020E000EF01992309F456C22536310508F441C0A1
:1020F0009F3F19F09F5F9093EF01002361F00E94D2
:102100006D07101614F491E001C09FEF899F802D98
:1021100011248093FA01112361F00E946D071116BA
:1021200014F491E001C09FEF899F802D11248093CA
:10213000FB013091FA013323E1F02091FB012223CE
:10214000C1F045EB3403C0011124992319F0909399
:10215000FA0103C081E08093FA0135EB2303C0014B
:102160001124992319F09093FB0103C081E080931F
:10217000FB018091F80181110BC08091F90181115F
:1021800007C08091FA01811103C08091FB01811188
:102190000E94CC06CB82DC820D831E8386E0F70191
:1021A000A6EFB1E001900D928A95E1F70E942D24EF
:1021B0009091FC01891721F00E942D248093FC014D
:1021C00080911C03843009F09ECD83E08093E90068
:1021D0008091E80082FF97CD8091E80085FF21C0C3
:1021E0000E94E62981111BC080E2C82ED12C8701F4
:1021F00009C08091F100F80181938F01F1E0CF1ABD
:10220000D10869F08091E80085FDF3CF8091E80066
:102210008B778093E8000E94E629882399F391E068
:1022200001C090E08091E8008B778093E8009923CB
:1022300009F469CDE9818E2F90E0FC013197E331FB
:10224000F10508F047C1EA5AFF4F0C943B301A825F
:1022500089E0A5C08A81823009F47AC1833051F0C7
:10226000813009F037C10E94DE1A9B838C837D8305
:102270006E8332C1FE013396A1E1B2E08D9181936C
:10228000AE16BF06D9F728C18A81823009F022C173
:102290006B817C818D819E810E94413086E290E03D
:1022A00024C04C816B818A810E94F0249D8357C198
:1022B0000D811E811027012710278C81CB809A81E8
:1022C0002CE0C29E6001112438EA939FC00CD11CFF
:1022D0001124C80ED11CC80ED11C612FC6018796CF
:1022E0000E94622F602FC60188960E94622FF4C060
:1022F0000E94BC24F1C08A818138B1F050F480384A
:1023000009F0EAC020E04B8160910E0280910D023D
:1023100023C08238E9F0833809F0DEC020E0409124
:102320000F026C818B8118C060E08B810E94910C40
:102330008B81811103C00E947A0CCEC080910C0267
:10234000816080930C0260E086950E94910CC4C06D
:102350008B8180931002C0C00E94E805BDC08A81B5
:10236000813899F030F4803809F0B6C080910F02BE
:1023700016C0823891F0833809F0AEC080910D020A
:102380008B8380910E028C83A7C080910C0280FF0A
:1023900002C0869504C080E002C0809110028B8349
:1023A0009BC060910C0270910D0280910E02909181
:1023B0000F020E94ED0490C05A828EC081E08A8391
:1023C00089E3EDCF0A811B811027012710278C801C
:1023D000912C6701C80189539D4F96012E193F0921
:1023E0002815390508F078C0093341E0140728F4AE
:1023F0000E944E2FF601848302C0F60114820F5F03
:102400001F4FFFEFCF1ADF0AE5CF0A811B8110278C
:10241000012710278C80912C6701C80189539D4F9B
:1024200096012E193F092815390508F055C00933C2
:1024300021E0120720F4F60164810E94622F0F5FF1
:102440001F4FFFEFCF1ADF0AE8CF0E94AC2444C031
:1024500084E08A8341C00A811B811027012710274D
:102460008C80912C6701C801879696012E193F092F
:102470002815390588F5003A22E0120728F40E9451
:102480004E2FF601848302C0F60114820F5F1F4FA6
:10249000FFEFCF1ADF0AE7CF0A811B811027012740
:1024A00010278C80912C6701C801879696012E1900
:1024B0003F092815390580F4003A22E0120720F47C
:1024C000F60164810E94622F0F5F1F4FFFEFCF1A4A
:1024D000DF0AEACF8FEF898380911C03843009F0F3
:1024E00012CC1091E9001F709091EC00892F81703F
:1024F00090FD80E8182B82E08093E9008091E8004D
:1025000080FF0CC040E050E060E270E0C7010E9434
:10251000192A8091E8008E778093E8001F7010934D
:10252000E900F1CB49BC19BD09B400FEFDCF809193
:10253000D8008F7D8093D8008091E00082608093E6
:10254000E0008091E00081FDFCCF0E94EC1FE1CB18
:1025500086E290E00E944E2F1B821C821D828E8399
:10256000BBCF60E086E290E00E94622F0E94BC2414
:102570000E94AC2461E283E290E00E94622F67E057
:1025800084E290E00E94622F64E185E290E00E9484
:10259000622F63CB232B09F0ADCDEBCD3F924F9251
:1025A0005F926F927F928F929F92AF92BF92CF92E3
:1025B000DF92EF92FF920F931F93CF93DF93CDB7EC
:1025C000DEB729970FB6F894DEBF0FBECDBFFC0172
:1025D0008081918123813481232B31F09F3F31F41D
:1025E00091E08F3F19F403C091E001C090E090FDAD
:1025F000DDC67F0185E0DE01119601900D928A957E
:10260000E1F7F701228189819A81222349F00E9412
:102610006D1C182F682F89819A810E94101D03C09C
:102620000E94E31C182F69817A81812F0E94162550
:102630008C01F7018281882309F4F2C098012251AC
:102640003F452031310508F019C18FEF93E00E941A
:102650004E2F8111EFC0025137EC832E32E0932EC2
:10266000002379F08114F4E09F0609F4E3C0C4016B
:102670000E944E2F811101C001501FEF811A910A53
:10268000EFCF1E821F8218861986442443942AE0C5
:10269000322E84010F5F1F4FC4010E944E2F8E8384
:1026A0001F82882309F4C6C09FEF980F933060F40F
:1026B0008F834E8222E0820E911CC8010E944E2F11
:1026C0008887811102C0B6C048018E010A5F1F4F82
:1026D000F80120812223E9F2213009F04CC08181E8
:1026E000813049F46801F2E0CF0ED11CF8018281FB
:1026F0000E94E82B0AC0823051F46801F2E0CF0E4C
:10270000D11CF80182810E94C12A860186C08330D3
:1027100049F46801F2E0CF0ED11CF80182810E94D9
:102720005A2AF3CF843019F00F5F1F4F76C0F8019B
:1027300022810E5F1F4F80E090E030E0205331098E
:102740002A30310568F4389EA001399E500D1124BD
:10275000C901840F951F0F5F1F4FF8012081EDCF36
:10276000009709F45AC0EFE9FFE03197F1F700C094
:1027700000000197F5CFE22FF0E0EC59FD4F5490A7
:10278000822F86958695869590E0FC01EC5AFD4F48
:1027900064902770712C022E02C0759467940A947D
:1027A000E2F7F1E06F227724FC01EC5BFD4FA4908F
:1027B000B12C022E02C0B594A7940A94E2F731E03E
:1027C000A322BB24FC01EC5CFD4FC490D12C02C0C1
:1027D000D594C7942A95E2F781E0C822DD246114DC
:1027E000710419F081EE0E94C12AA114B10419F0FC
:1027F00086EE0E94C12A852D0E94E82BAB2819F095
:1028000086EE0E945A2A672819F081EE0E945A2A01
:10281000CD2819F08CE20E94E82B0F5F1F4F58CF94
:1028200000313FE5130709F0E8C481E00E94461D2E
:102830000E945D2580919902877009F4B7C5F70160
:102840008281882309F4B2C582E029960FB6F894F4
:10285000DEBF0FBECDBFDF91CF911F910F91FF90D3
:10286000EF90DF90CF90BF90AF909F908F907F9030
:102870006F905F904F903F900C946B1D0031FFE57F
:102880001F0711F481E005C001312FE5120721F483
:1028900082E00E94881DCCCF033FFCE51F0749F46E
:1028A00006E221EE40EE63EF7CE5C7010E94392489
:1028B000C1CF043F2CE5120708F049C1083D3CE5B3
:1028C000130731F407E225EE45EE68ED7CE5EDCF28
:1028D000093D9CE5190731F408E221E045EE69ED78
:1028E0007CE5E3CF073DECE51E0731F406E221EE7F
:1028F00041EE67ED7CE5D9CF882309F45DC11092E4
:102900001F0202309CE5190708F440C10631ECE5CE
:102910001E0730F0C8018A5F9C45099708F036C150
:102920000E94871B9093CE018093CD010031FCE57E
:102930001F0709F4C3C008F041C008303CE5130785
:1029400009F49AC0F0F404309CE5190709F487C033
:1029500068F40230FCE51F0709F477C003301C451A
:1029600009F0E5C08091CD01826076C006303CE57B
:10297000130709F46EC008F07BC08091CD01886018
:102980006BC00C309CE5190709F485C068F40A3067
:10299000FCE51F0709F474C008F079C00E94EC1F21
:1029A0008091CD01806858C00E303CE5130709F4D2
:1029B00076C008F07FC08091CD018BC00B3F9CE5B5
:1029C000190709F44FC018F50331FCE51F0709F496
:1029D0007DC078F401313CE5130709F473C002317E
:1029E0001C4509F0A4C00E94EC1F8091CD018F7797
:1029F00033C005319CE5190709F472C008F486C09C
:102A00000A3F1C4509F093C08091CE013EC00F3FA4
:102A10002CE5120709F45FC058F40D3F8CE5180748
:102A200009F444C008F43FC08091CE0182602DC0FB
:102A30000130EDE51E0709F475C008F45DC00230F1
:102A40001D4509F074C060E06EC08091CD018160C9
:102A500003C08091CD0180618093CD0168C08091D9
:102A6000CD0111C08091CE0182608093CE015FC004
:102A70008091CD018062F0CF8091CD018064ECCF58
:102A80008091CD0188608460E7CF8160EECF809136
:102A9000CD018E7FE1CF8091CD018D7FDDCF809103
:102AA000CD01877FD9CF8091CE0118C08091CE0112
:102AB0008D7FDBCF8091CD018F7ECECF8091CD01F8
:102AC0008F7DCACF8091CD018F7BC6CF8091CD0104
:102AD000877F8B7FC1CF8091CE018D7F8E7FC5CFC9
:102AE0008091CD0182FB222720F991E0922790FB73
:102AF00082F990FB83F9B0CF8091CE01982F909509
:102B000091708E7F892B90FB81F9AFCF0E94EC1FD3
:102B10008091CD0187FB222720F991E0922790FB3D
:102B200087F99ACF61E08EE090E00E94622F609179
:102B3000CD011091CE0184E090E00E94622F612FC0
:102B400082E290E00E94622F0E94EC1F73CE053F4C
:102B5000FCE51F0731F406E221EE42EE65EF7CE56D
:102B6000A4CE053F2CE5120730F407E225EE44EE33
:102B700064EF7CE59ACE063F3CE5130709F0BCCE36
:102B800007E225EE46EE66EF7CE58FCE06318CE55A
:102B9000180721F580919C028A7A91E009F490E06F
:102BA00090932002882311F065E301C069E281E27D
:102BB00092E00E946D1B0FC00631ECE51E0709F084
:102BC00040C080912002882309F41EC365E381E29E
:102BD00092E00E94601B0E94091C2CCE0A353DE544
:102BE000130749F158F401159CE51907B1F00E3DA2
:102BF0001C4509F042C00E94981B1CCE0B35FDE518
:102C00001F07D9F00C351D45C1F58091CE0182FB1F
:102C1000882780F991E0892711C00E94EC1F3FEFBF
:102C200084E39CE0315080409040E1F700C0000018
:102C30000E94981AFFCD81E001C080E00E94531CE1
:102C40001CC080919C0282720C3C3CE5130709F485
:102C50008CC308F00BC3063CECE51E0709F471C3F6
:102C600008F0E2C2033C2CE5120709F460C308F047
:102C7000CDC2023C1C4509F430C3F70182810081BA
:102C80001181882349F0C8010E946D1CD82E682F3D
:102C9000C8010E94101D04C0C8010E94E31CD82E68
:102CA000B8018D2D0E94EB0A8C01982EF701D2807D
:102CB000A580A2949FE0A92280919902877099F043
:102CC000DD2089F0812F807F803421F080E2800F29
:102CD000883048F082E00E946B1D809199028770D5
:102CE000CC24C3948111C12CB12EB2948FE0B822B0
:102CF0008B2D90E08C30910508F04AC2FC01E75919
:102D0000FF4F0C943B30812F807F1F70882311F080
:102D10001295107FDD20B9F0112309F424C280E25E
:102D2000800F883010F0911006C080919C02182B03
:102D300010939C0205C080919B02182B10939B025C
:102D40000E94091C10C2802F0E945A2A112309F4E4
:102D50001FC2005E1095083010F0911006C08091DF
:102D60009C02182310939C0205C080919B0218239B
:102D700010939B020E94091C0BC2812F807F1F7041
:102D8000803211F01295107F992021F0F1E09F160A
:102D900011F130C0DD20B1F0AA2081F001E0A012D5
:102DA0000DC08091CE0182FDF3C180919D02182B50
:102DB000181709F4EDC110939D02EAC180919D029C
:102DC000812B10C0AA2021F021E0A21609F4E0C155
:102DD0000E94031C27C0DD2041F035E03A1508F4BD
:102DE000D7C1812F0E94502AD3C184E08A1508F4EC
:102DF000CFC118C0DD2049F0AA2099F3F7018581E1
:102E000080FFB1C18F708583ECCFAA2059F00933C0
:102E100009F0BBC1FFEF17EE23E0F1501040204056
:102E2000E1F7B1C1812F0E94452AB2C1812F869559
:102E30008695837019F0813059F0AAC1DD2019F010
:102E4000C801937002C080E090E00E941724A6C1E0
:102E5000DD2019F0C801937002C080E090E00E946C
:102E600001249CC1802FDD2019F00E94EF0702C0D1
:102E70000E94F6060E94CC0691C1812F837009F052
:102E800069C0D11089C1902F929596959770990F2E
:102E9000990F802F8F70882E912CA12CB12C092E88
:102EA00004C0880C991CAA1CBB1C0A94D2F704FF0E
:102EB00012C04FE050E060E070E004C0440F551FC6
:102EC000661F771F9A95D2F7DB01CA01809590950E
:102ED000A095B09503C080E090E0DC0116951695B2
:102EE000412F4370423019F1C8F400919E021091B5
:102EF0009F022091A0023091A102413059F088290F
:102F00009929AA29BB29BC01CD0160237123822301
:102F100093230AC0802A912AA22AB32ABC01CD0198
:102F2000682979298A299B290E94A91D35C18829E8
:102F30009929AA29BB2900919E0210919F022091F4
:102F4000A0023091A102BC01CD0160277127822728
:102F50009327EACFDD2019F0812F817001C086957B
:102F6000882309F419C1902F929596959770990F1F
:102F7000990F802F8F70882E912CA12CB12C092EA7
:102F800004C0880C991CAA1CBB1C0A94D2F704FF2D
:102F900012C04FE050E060E070E004C0440F551FE5
:102FA000661F771F9A95D2F7DB01CA01809590952D
:102FB000A095B09503C080E090E0DC0116951695D1
:102FC000412F43704230D9F068F5009126031091EB
:102FD00027032091280330912903413059F0882993
:102FE0009929AA29BB29BC01CD0160237123822321
:102FF00093231EC0802A912AA22AB32A13C08829AB
:103000009929AA29BB290091260310912703209111
:10301000280330912903BC01CD0160277127822745
:10302000932706C0BC01CD01682979298A299B29EB
:103030000E943C1DB1C01F70DD2039F0812F0E941D
:10304000881D802F0E94502AA7C0802F0E94452AE9
:10305000812F0E94461DA0C0802F32EF931609F4E5
:1030600040C0391538F090EF991661F0E1EF9E16E7
:1030700099F174C0F3EF9F16D9F124EF921609F479
:103080004EC06CC0DD2019F134E03A1508F480C060
:103090001F7181E090E0A0E0B0E0AC01BD0104C090
:1030A000440F551F661F771F1A95D2F7809126038C
:1030B00090912703A0912803B09129038A019B01D5
:1030C000082719272A273B27C901B80125C025E071
:1030D0002A1508F45DC0DCCFDD2029F0812F8F7127
:1030E00030C0DD20D9F3812F8F710E94461D50C062
:1030F000DD2079F01F7181E090E0A0E0B0E0BC013C
:10310000CD0104C0660F771F881F991F1A95D2F74B
:1031100003C060E070E0CB010E943C1D39C0DD209F
:1031200099F01F71812F0E94881D8091CE0182FD30
:1031300007C038E0139FC001112483608093990277
:10314000812F0E94881D24C081E00E946B1D81E0B8
:103150008A15F0F482E00E946B1D1AC0DD2039F060
:10316000AA2009F4BBCF802F0E94C12A11C0AA2037
:1031700009F4B9CF893349F49FEFE7EEF3E09150BA
:10318000E040F040E1F700C00000802F0E945A2A82
:1031900088EF8B0D843010F40E942D24CC2009F48C
:1031A00005C18091990280FD01C1F70112828595C8
:1031B000859585950E94881DC7010E94CE12809139
:1031C000990285958595859529960FB6F894DEBF69
:1031D0000FBECDBFDF91CF911F910F91FF90EF9068
:1031E000DF90CF90BF90AF909F908F907F906F9027
:1031F0005F904F903F900C94461D01319FE5190759
:1032000009F04ACB82E012CB69E2E1CC043C9CE5B8
:10321000190709F491C0053C1C4509F02ECD4AEB75
:1032200056E063EC76E0A5C0093CFCE51F0709F415
:1032300092C070F4073C3CE5130709F487C0083CD2
:103240001C4509F01ACD4EEA56E062EA76E091C0DC
:103250000A3CECE51E0709F483C00B3C1C4509F051
:103260000CCD4FEF54E060E175E083C0013D2CE5EB
:10327000120709F48AC098F40E3C8CE5180709F48B
:103280007EC008F479C00F3CECE51E0709F47AC053
:10329000003D1C4509F0F1CC6EE089E084C0043D9E
:1032A0002CE5120709F477C060F4023D8CE518079D
:1032B00009F46EC0033D1C4509F0DFCC61E088E1F4
:1032C0006FC0053DECE51E0709F468C00D351D45CE
:1032D00009F0D3CC6AE285E266C080910C0280FFDF
:1032E00020C08E7F80930C0260910C0270910D02C1
:1032F00080910E0290910F020E94ED040E943B25E6
:103300008091EE0181608093EE010FEF10E722E0E3
:10331000015010402040E1F700C000000E947304FB
:1033200089CA816080930C0261E0869539C046E0CD
:103330005DE06FE07DE01DC04FE05DE066E07DE0B8
:1033400018C043EC56E06AEB76E013C042EA56E060
:103350006EEA76E00EC04AE856E066E976E009C01B
:1033600046E956E06AE876E004C040E155E06FEFD8
:1033700074E00E9435255ECA61E081E011C065E01D
:1033800082E011C068E086E00EC064E18FE00BC00F
:1033900067E185E108C062E289E105C061E083E29E
:1033A0000E94910C47CA0E94232544CA29960FB651
:1033B000F894DEBF0FBECDBFDF91CF911F910F916B
:1033C000FF90EF90DF90CF90BF90AF909F908F9045
:1033D0007F906F905F904F903F9008958091110380
:1033E000089580E00895209161029091300256E0A6
:1033F0002917A9F030E0529FF001539FF00D1124DE
:10340000EF5CFD4F7181761306C07081781303C0A5
:103410007281741306C02F5F3F4F2770E9CF80E0A1
:10342000089581E00895CF93DF9300D01F92CDB728
:10343000DEB790911C03943011F589837B836A83F6
:103440009093E9008FEF9091E800815095FD06C0C0
:1034500095ED9A95F1F700008111F5CF8091E80084
:1034600085FF0DC040E050E063E070E0CE010196C2
:103470000E94192A8091E8008E778093E8000F90CF
:103480000F900F90DF91CF910895BC0184E00C94D0
:10349000131ABC0183E00C94131A24E02093E90072
:1034A0002FEF3091E800215035FD06C035ED3A95FB
:1034B000F1F700002111F5CF2091E80025FF0BC0A6
:1034C00040E050E066E070E00E94192A8091E80038
:1034D0008E778093E8000895CF93DF9321E02093C7
:1034E000E9002FEF3091E800215035FD06C035EDA1
:1034F0003A95F1F700002111F5CF2091E80025FF62
:1035000014C0EC0140E050E068E070E00E94192A2D
:103510008091E8008E778093E80088E0FE01A2E1C8
:10352000B3E001900D928A95E1F7DF91CF91089574
:1035300087E797E790930108809300089AE088E175
:103540000FB6F894A895809360000FBE909360002A
:10355000FFCF78941F920F920FB60F9211248F9382
:103560009F93AF93BF938091A2029091A302A091E9
:10357000A402B091A5020196A11DB11D8093A202E3
:103580009093A302A093A402B093A502BF91AF9120
:103590009F918F910F900FBE0F901F9018959C01D7
:1035A0004FB7F8948091A2029091A302A091A40237
:1035B000B091A5024FBF821B930B08952FB7F894CB
:1035C0006091A2027091A3028091A4029091A50241
:1035D0002FBF08950F931F930E94AD09882321F0F8
:1035E0001F910F910C94DE1A0E94DE1A0091C901FE
:1035F0001091CA012091CB013091CC01600F711F55
:10360000821F931F1F910F910895CF92DF92EF9227
:10361000FF926B017C010E94AD0981110EC00E94D6
:10362000DE1AC61AD70AE80AF90AC092C901D0926E
:10363000CA01E092CB01F092CC01FF90EF90DF90B5
:10364000CF9008952FB7F8948091A2029091A30291
:10365000A091A402B091A5022FBF08950E94AD09C8
:1036600081110C94221B0E94EA1ACB0108951F922B
:103670000F920FB60F9211248F939F93AF93BF9326
:103680008091E201811113C08091A2029091A30266
:10369000A091A402B091A5024196A11DB11D8093F5
:1036A000A2029093A302A093A402B093A502BF919B
:1036B000AF919F918F910F900FBE0F901F90189513
:1036C0009C012A5F3F4FFC014281461301C01282D8
:1036D000019682179307B9F708959C01FC01329671
:1036E0009FEF80E04191461789F09F3F19F4411107
:1036F00001C0982F8F5F8630A9F79F3F39F0F901FD
:10370000E90FF11D97FDFA95628308950895CF930F
:1037100084E090E00E944E2FC82F82E290E00E9449
:103720004E2F2C2F30E0A901582BCA01CF910895BC
:103730006AEE7EEF80E090E00E94802F60E082E001
:1037400090E00E94622F60E083E090E00E94622F90
:1037500010929E0210929F021092A0021092A1025B
:1037600060E084E090E00E94622F60E082E290E0FE
:103770000E94622F60E085E090E00E94622F60E08E
:1037800086E090E00E94622F6FEF87E090E00E9459
:10379000622F40E050E0BA0188E090E00E94742F70
:1037A00060E08DE090E00E94622F40E050E0BA01BE
:1037B00088E190E00E94742F60E087E190E00E9431
:1037C000622F40E050E0BA018CE190E00E94742F3B
:1037D00060E070E080E290E00E94802F40E050E0E6
:1037E000BA0188E190E00E94742F40E050E0BA01F5
:1037F0008FE090E00E94742F40E050E0BA0183E136
:1038000090E00C94742F80919D02811110929D0282
:10381000089590919C0280919B02892B20919A029D
:10382000982F922B9093210280919D02882389F0FA
:10383000892B80932102E3E2F2E097E080E091504F
:1038400029F021912223D9F38F5FF9CF81110E94B2
:10385000031CE091E001F091E101309731F002802A
:10386000F381E02D81E292E00994089580E090E0F8
:103870000E94172480E090E00E94012410929B0295
:1038800010929A020E94091CE6EFF1E086E0DF0147
:103890001D928A95E9F71092F3011092EF011092B0
:1038A00029020C94CC06CF93C091CE01C2FB99277C
:1038B00090F9981781F080FBC2F9C093CE01609116
:1038C000CD0184E090E00E94622F6C2F82E290E0B4
:1038D000CF910C94622FCF910895BF92CF92DF9237
:1038E000EF92FF920F931F93CF93DF938C01C090C1
:1038F0002603D0902703E0902803F09029038091BD
:103900009E0290919F02A091A002B091A102C82AAC
:10391000D92AEA2AFB2ACFE1D0E0D701C6010C2E32
:1039200004C0B695A795979587950A94D2F780FD20
:1039300004C0219790F7B12C07C0BC2EB8018C2F82
:103940000E94EB0A0197A9F38B2DDF91CF911F9174
:103950000F91FF90EF90DF90CF90BF900895CF939D
:10396000DF93EC010E946D1CBE010E94EB0ADF9107
:10397000CF9108950E94AF1C292F2F70E92FE29557
:10398000EF704E2F50E0FA013297EE30F105B8F4A7
:10399000EB58FF4F0C943B30803F99F018F4883E71
:1039A00070F40FC0843F59F40CC0883E50F0813F42
:1039B00031F407C0822F869586958695089580E01C
:1039C000089581E00895292F220F920F990F890FF2
:1039D000682F669566956695982F977085E0689F25
:1039E000B001112440E050E080E0FB01E40FF51F3E
:1039F000EE59FD4F208130E0092E02C03695279503
:103A00000A94E2F721703327042E01C0220F0A9492
:103A1000EAF7822B4F5F5F4F4530510531F708952C
:103A2000292F220F920F990F890FE82FE695E6951F
:103A3000E695877051E001C0550F8A95EAF785E059
:103A4000E89FF0011124EE59FD4F20E030E070E0D6
:103A50004081CB01022E02C0969587950A94E2F729
:103A60008170819584278523842781932F5F3F4F21
:103A70002530310569F70895609326037093270375
:103A800080932803909329030C94361C0F931F9363
:103A900041E050E060E070E004C0440F551F661F35
:103AA000771F8A95D2F740955095609570958091D3
:103AB000260390912703A0912803B09129038A013E
:103AC0009B01082319232A233B23C901B8011F9115
:103AD0000F910C943C1D2091990280958223809334
:103AE0009902982F977041F430E0482F082E000C6F
:103AF000550B2417350721F49091CE0192FF07C092
:103B00008595859585950E94461D10929902089588
:103B10000F931F9341E050E060E070E004C0440F59
:103B2000551F661F771F8A95D2F7809126039091C3
:103B30002703A0912803B09129038A019B01082B38
:103B4000192B2A2B3B2BC901B8011F910F910C9403
:103B50003C1D60939E0270939F028093A0029093FD
:103B6000A1020C94361C8091610290913002891759
:103B700019F08F5F8770FBCF08950F931F93CF933A
:103B8000DF9380912F0282958F7009F05DC0809144
:103B90002C02882309F458C08091610210913002F0
:103BA00060912A0270912B02C0912D02D0912E02B9
:103BB00091E06F3F09F090E0292F06E0811709F4AA
:103BC00043C0209721F07F3F21F030E003C031E077
:103BD00001C0322F90E030FD34C0089FF001099FF2
:103BE000F00D1124DF01AF5CBD4F11963C91119790
:103BF000371327C03C91361324C012963C9112977C
:103C000031111FC013964D915C9114974C1B5D0BA5
:103C1000483C5105B0F480912F028F7080618093F1
:103C20002F02EA5CFD4F80818F70806180838AE281
:103C300092E00E94CE12DF91CF911F910F910C94D0
:103C4000B31D01968770BACFDF91CF911F910F916D
:103C500008958F929F92AF92BF92CF92DF92EF9290
:103C6000FF920F931F93CF93DF93CDB7DEB761978A
:103C70000FB6F894DEBF0FBECDBF8C0185E0F80112
:103C8000DE011D9601900D928A95E1F7D801DC9036
:103C90001196EC9011971296CC9090912A02209157
:103CA0002B0240912D0250912E024115510531F009
:103CB0002F3F31F481E09F3F19F403C081E001C040
:103CC00080E080FD58C1F801A380B4808AE2882E8C
:103CD00082E0982EF0902C02B501641B750BFF203A
:103CE00009F403C180912F02382F307F683C7105A1
:103CF00008F0CDC0311188C02E1112C09D1110C026
:103D0000FC2CC1100DC08F70806180932F02C40104
:103D10000E94CE1280912F02D80115968C9348C133
:103D2000A114B10439F0BFEFEB1206C081E0DB1241
:103D300003C003C081E001C080E080FD03C081E0DA
:103D40008C2502C080E090E080FF10C04C2D6E2DCD
:103D50008D2D0E94F319882349F08AE292E00E9497
:103D6000CE12EAE2F2E086E0DF0199C0AB2839F03A
:103D7000BFEFEB1206C081E0DB1203C003C081E09D
:103D800001C080E080FD03C081E08C2502C080E09E
:103D900090E0E82FE170BE2E80FF2CC04C2D6E2DE0
:103DA0008D2D0E94F319F82E811124C0DD86EE8638
:103DB0008D859E850E94AF1C292F22952F70223061
:103DC00018F0243090F405C09F7059F0811109C09B
:103DD000EFC09F7031F0D80115969C91907F09F447
:103DE000E7C0805E883008F4E3C0C8010E94CE12AC
:103DF000FB2CDEC0FC2CCC2009F4DAC080912F0211
:103E0000816080932F024EC02E1106C09D1104C008
:103E1000C11002C0F8018BC0DD86EE868D859E85BF
:103E20000E94BA1C882369F1CC2059F120912F02FD
:103E3000822F82958F7090E0029774F080912A0211
:103E400090912B0298878F831986BB86AA862C8730
:103E5000CE0107960E94CE1286E0F801AAE2B2E0F7
:103E600001900D928A95E1F70E94BD1D0DC02E159F
:103E7000D9F0DD86EE868D859E850E94BA1C811163
:103E80001DC0C8010E94CE12FF24F39491C03111CD
:103E9000EECF8AE292E00E94CE1286E0D4011D921B
:103EA0008A95E9F7F12C84C09D11E3CFC110E1CFD1
:103EB000F8018583C8010E94CE1257C0CC2009F3B7
:103EC00020912F02822F82958F7090E0029724F22A
:103ED00080912A0290912B029A8389831B82BD8252
:103EE000AC822E83CE010196B5CF683C7105E8F512
:103EF000FC2CCC2031F22E1127C09D1125C0209121
:103F00002F0220FD18C0822F82958F70482F50E01D
:103F10004115510581F0F80125834F30510541F0DD
:103F20008F5F982F9295907F822F8F70892B85833A
:103F3000C8010E94CE1286E0F801AAE2B2E0019028
:103F40000D928A95E1F734C0DD86EE868D859E85DB
:103F50000E94BA1C811180CF80912F0281608093D2
:103F60002F02C8010E94CE1223C086E0D4011D9208
:103F70008A95E9F71DC0CC2009F483CFDD86EE8653
:103F80008D859E850E94BA1CF82E882309F479CF6E
:103F900086E0F801AAE2B2E001900D928A95E1F77D
:103FA00080912A0290912B020E94AF1C0E94BD1D9D
:103FB0008F2D61960FB6F894DEBF0FBECDBFDF9197
:103FC000CF911F910F91FF90EF90DF90CF90BF9016
:103FD000AF909F908F90089510929C0286E0E3E24C
:103FE000F2E0DF011D928A95E9F70C94361C0895E2
:103FF0007F928F929F92AF92BF92CF92DF92EF9279
:10400000FF920F931F93CF93DF93FC018280748004
:1040100081E08483E4EEF2E09490E3E6F3E0E4915F
:10402000A12CF5E0BF2ECC24CA94D12CE9190E2F77
:1040300010E080910801A81608F0A2C0EA2CF12C2B
:1040400022E0281568F0BE9CF001BF9CF00D112401
:10405000E353FD4F80910D02808380910E02818396
:1040600071100AC0BE9CF001BF9CF00D1124E353F7
:10407000FD4F138212826AC0BE9CE001BF9CD00D2E
:104080001124C353DD4F8B818823F9F081508B833A
:104090002FEF829FC00111246C8170E00E941330C9
:1040A000FB01FF27EC51FD4F8491E82FE9192FEF19
:1040B000E29FC0011124B8010E94133080910F02C9
:1040C000689FB00111247A8341C00E943E2F209145
:1040D0000F022695215830E0A901440F551F322FB9
:1040E0002227240F351F232F33278217930774F5B8
:1040F00082E0881588F40E943E2FB6010E94273086
:1041000088830E943E2F20910E022695622F70E038
:104110000E942730280F2983BE9CF001BF9CF00D20
:104120001124E353FD4F128280910F02843120F05D
:10413000893C18F088EC01C084E1BE9CF001BF9C72
:10414000F00D1124E353FD4F848383838091060196
:104150009701280F311DC901880F991F280F391F9A
:1041600027553D4FBE9CF001BF9CF00D1124E35339
:10417000FD4F4281618180810E943805A39459CF0F
:10418000DF91CF911F910F91FF90EF90DF90CF9033
:10419000BF90AF909F908F907F900C9473040F937B
:1041A0001F93CF93DF93EC0100E010E080910801B2
:1041B000282F30E00217130724F59091060198018B
:1041C000290F311DA901440F551F240F351F2755F5
:1041D0003D4F869590E04C81081719071CF4442345
:1041E00031F002C0411103C040910F0201C040E014
:1041F00060910E0280910D020E9438050F5F1F4FE3
:10420000D5CF0E9473048C8190E00196817099272C
:104210008C83DF91CF911F910F9108958F929F9280
:10422000AF92BF92CF92DF92EF92FF920F931F93C4
:10423000CF93DF938C01FC014481C42FD0E09E0119
:10424000DE010E94EA2F9B01AC010E94B52F6B0199
:104250007C01E0E2F0E0EC1BFD0BA5E5B0E09B018A
:10426000AC010E94B52F4B015C019F01DF010E9450
:1042700048309B01AC010E94C02F9B01AC012C0D6A
:104280003D1D4E1D5F1DC501B4010E94C82FC22FE8
:10429000D22F2A3228F4F3E02F9F900111240DC071
:1042A00025E530E02C1B3109C901880F991F280F23
:1042B000391F37FF02C02F5F3F4F35952795C22F1B
:1042C000C095F12C85E5E82EED1A80910801F816CD
:1042D000C8F4F1FC02C08E2D01C08D2F9091060113
:1042E0002F2D30E0290F311DA901440F551F240F38
:1042F000351F27553D4F4C2F60910E020E94380507
:10430000F394E3CF0E947304F8018481811102C009
:1043100091E003C0803219F49FEF909322019091B5
:104320002201890FF8018483DF91CF911F910F91B2
:10433000FF90EF90DF90CF90BF90AF909F908F90C5
:1043400008951F93CF93DF93EC018C81811109C0F5
:1043500081E08C831092A70292E0909321018093D8
:1043600020018091060190910701891770F4E82FD0
:10437000F0E09F01220F331FE20FF31FE755FD4FBF
:104380001182108212828F5FF0CF10E060910801DD
:104390001617C0F5E12FF0E070E0CF010E94273042
:1043A00020910601820F2091A702022E000C330BF0
:1043B00090E0E217F307CCF020912101022E000CCF
:1043C000330B2E173F078CF09C01220F331F820FF7
:1043D000931F9C0127553D4F40910F0260910E02A3
:1043E00080910D020E9438050BC0FC01EE0FFF1FEB
:1043F0008E0F9F1FFC01E755FD4F11821082128224
:104400001F5FC4CF0E947304809120012091A702F6
:10441000280F2093A70290912101980F90932101DA
:1044200019165CF4022E000C330B4091080150E089
:10443000415051092417350734F0819580932001AC
:10444000813009F41C82DF91CF911F9108958F92E2
:104450009F92AF92BF92CF92DF92EF92FF920F9313
:104460001F93CF93DF93EC018A8180FF03C0BB24AD
:10447000BA9402C0BB24B3948C8181110DC081E039
:10448000B81206C08091080181508093A60202C034
:104490001092A60281E08C83A12C4CE0942E809196
:1044A0000801A81608F044C080910601CA2CD12C3E
:1044B0008601080F111DC801880F991F080F191FC9
:1044C00007551D4FF80111821082128234E0E32E4D
:1044D000F12C812C8091A602880D8D302CF0692D55
:1044E0000E940530892F05C087FF03C09091080105
:1044F000890F082E000C990BC816D90691F48091EB
:104500000F028E9DA0018F9D500D1124559547954A
:1045100055954795980160910E0280910D020E9479
:1045200038058B0CF1E0EF1AF108A1F6A394B7CF90
:104530000E9473048091A60291E0B9120EC081110D
:1045400007C08091080181508093A6021C820FC091
:1045500081508093A602BC820AC090E001966091CF
:10456000080170E00E9427308093A6028C83DF91BF
:10457000CF911F910F91FF90EF90DF90CF90BF9060
:10458000AF909F908F900895FF920F931F93CF93BA
:10459000DF93EC01F12C0FEF10E060910801F616AB
:1045A000F0F4809106012F2D30E0280F311DC90154
:1045B000880F991F280F391F27553D4F70E0C801FC
:1045C0000E942730962F8C8140910F0260910E023D
:1045D000F99E800D11240E943805F394DECF0E94CD
:1045E00073049A818C8190FF02C08F5F01C081505B
:1045F0008C83DF91CF911F910F91FF9008950F93BE
:104600001F93CF93DF9300D01F92CDB7DEB78C01FD
:104610008091A80281110AC09E012F5F3F4F4FEF8A
:104620006FEF0E9438058A818093A802F801848187
:10463000813051F028F0823061F44091A8020AC024
:104640008091A80240E007C06091A80240E080E0AD
:1046500003C040E080E060E00E94BF04F801848174
:1046600090E0019663E070E00E94273084830F9011
:104670000F900F90DF91CF911F910F910895CF93DD
:10468000DF93EC01ECE0F2E0438162818C810E94D7
:10469000CE058C818F5F8C83DF91CF910895CF936E
:1046A000DF93EC01EC81F0E0EC51FD4F4491ECE044
:1046B000F2E0628181810E94CE058C818F5F8C83C4
:1046C000DF91CF9108951F93CF93DF93CDB7DEB7DE
:1046D00067970FB6F894DEBF0FBECDBF342F4B8B5C
:1046E000252F5C8B6D8B7E8B8F8B4E895F89611143
:1046F00010929B0286E0FE013D96DF01982F1D92ED
:104700009A95E9F73D872E876F87598B488BDE0195
:10471000179601900D928A95E1F7CE0107960E94B7
:10472000291E81113EC086E0FE013796DE011196FA
:1047300001900D928A95E1F7FF81E8856A857B8576
:104740006115710531F0EF3F31F481E0FF3F19F45D
:1047500003C081E001C080E080FD23C020913002D1
:1047600030E0C9010196877099274091610250E0BD
:104770008417950779F1F983EA837D836C8396E04A
:10478000929FD001939FB00D1124AF5CBD4FFE01ED
:10479000319601900D929A95E1F7809330020E9434
:1047A000B31D16E080916102909130028917F9F0F3
:1047B000189FC00111248F5C9D4F0E94291E8823E1
:1047C000B1F08091610290E0019687709927809303
:1047D0006102E8CF0E94EC1F109230021092610239
:1047E000EAE2F2E086E0DF011D928A95E9F767963A
:1047F0000FB6F894DEBF0FBECDBFDF91CF911F91F2
:10480000089520910D0330910E032817390771F098
:1048100090930E0380930D03E091E001F091E1018C
:10482000309721F00084F185E02D099408952091BE
:104830000B0330910C032817390771F090930C0388
:1048400080930B03E091E001F091E101309721F0BA
:104850000680F781E02D09940895E091E001F09140
:10486000E101309721F00190F081E02D099480E082
:1048700008950F931F93CF93DF93C42FD22FFC0182
:1048800082818823C9F040931F020E94221B9093CB
:104890000A038093090380E28C0F883008F057C028
:1048A000C77081E001C0880FCA95EAF7DF91CF9108
:1048B0001F910F910C94502A80911F02481330C011
:1048C0008091090390910A030E94CF1A883C9105B8
:1048D00038F510E21D0FCD17B9F080E28C0F88304B
:1048E00040F4C77081E001C0880FCA95EAF70E94C2
:1048F000452A183028F581E09D2F977001C0880F58
:104900009A95EAF70E94502A802F0E94E82B1830CF
:10491000F0F4D77081E001C0880FDA95EAF70AC099
:1049200080E28C0F883098F4C77081E001C0880F56
:10493000CA95EAF7DF91CF911F910F910C94452A08
:10494000802FDF91CF911F910F910C94E82BDF9175
:10495000CF911F910F910895CF93DF93C7ECD2E0D1
:1049600060E0CE010E94622F2196C11584E0D80735
:10497000B9F7DF91CF910895CF92DF92EF92FF9236
:104980000F931F93CF93DF93C0E0D0E08E010855C3
:104990001F4F6E018CE0C80ED11CFE01EC51FC4F84
:1049A000E590F4906F2DCE0187960E94622F6E2DB8
:1049B000CE0188960E94622F2296CC15DD0569F7FC
:1049C0000C171D0731F7E801003A1240F9F6DF91A4
:1049D000CF911F910F91FF90EF90DF90CF900895AE
:1049E0000F931F93CF93DF93C42FD0E0CC0FDD1F25
:1049F0002CE0629FC00DD11D112438EA839FC00DA9
:104A0000D11D1124CE0187960E944E2F082F10E051
:104A1000102F0027CE0188960E944E2F9801282B38
:104A2000C901DF91CF911F910F910895462F8430D6
:104A300038F47E3028F4663018F4672F0C94F02494
:104A400080E090E0089590910C0290FF04C096954C
:104A5000981740F003C0811105C090E0961710F43C
:104A60000C940F0D61E00C94910C882311F0FA0165
:104A700001C0FB010994ECEEF1E0118282818460B7
:104A80008283089560910C02669570E04BE050E0DF
:104A900085E191E00E945730892B19F481E08093E1
:104AA000ED010E942E1B9093E7018093E601809117
:104AB000EE0184608093EE0108950F931F9380911F
:104AC000260390912703A0912803B09129038C011C
:104AD0009D010670112722273327BC01CD01063026
:104AE00011052105310511F4686001C0677F1F9130
:104AF0000F910C943C1D1F93CF93DF93CDB7DEB77E
:104B0000AA970FB6F894DEBF0FBECDBFEEE1F3E07B
:104B10008091F100819343E0E632F407C9F7809178
:104B20001F03833009F462C030F4813071F08230A9
:104B300009F49CC0B3C08A3009F488C08B3009F4F2
:104B40006DC0893009F0AAC020C080911E03813A4F
:104B500009F0A4C08091E800877F8093E8008091ED
:104B6000220390912303892B21F468E082E193E0F2
:104B700003C060E080E090E070E00E945A2C8091D9
:104B8000E8008B778093E80089C080911E03813212
:104B900009F084C08091220390912303009719F0BB
:104BA000029709F07BC08091E800877F8093E8003E
:104BB0008091E80082FD05C080911C038111F8CF2F
:104BC0006DC02091F3008091F20090E0922B02974B
:104BD00029F48091F1008B7F813021F48091F100E4
:104BE000809311038091E8008B7754C080911E035D
:104BF000813A09F053C08091220390912303892BBD
:104C000009F04CC08091E800877F8093E800809194
:104C1000E80080FFFCCF8091230137C080911E0304
:104C20008132E1F58091220390912303892BB1F524
:104C30008091E800877F8093E8000E94062C809195
:104C40002003809323010E94EC1F28C080911E0343
:104C5000813221F58091E800877F8093E8000E94EF
:104C6000062C809121038093100318C080911E03AD
:104C7000813AA1F48091E800877F8093E8008091D9
:104C8000E80080FFFCCF809110038093F1008091B9
:104C9000E8008E778093E8000E94062C8091E8005F
:104CA00083FFDDC180911E0390911F03492F50E0C7
:104CB0004A30510508F0D3C1FA01ED57FF4F0C946B
:104CC0003B30803821F0823809F0C9C108C080919A
:104CD0001A0390911B03992389F082600FC0809181
:104CE00022038F70873008F0BAC18093E900809169
:104CF000EB0085FB882780F91092E9009091E8008D
:104D0000977F9093E8008093F1001092F10070C1BA
:104D1000282F2D7F09F0A3C1882319F0823061F07C
:104D20009EC180912003813009F099C1933009F030
:104D300080E080931B032EC08091200381112AC044
:104D4000809122038F702FEF280F263008F087C143
:104D50008093E9002091EB0020FF1CC0933021F4E8
:104D60008091EB00806214C09091EB009061909371
:104D7000EB0021E030E0A90102C0440F551F8A95E5
:104D8000E2F74093EA001092EA008091EB0088601D
:104D90008093EB001092E9008091E800877F809378
:104DA000E8000E94062C5BC1811159C110912003BB
:104DB0001F778091E3008078812B8093E3008091BE
:104DC000E800877F8093E8000E94062C8091E8002D
:104DD00080FFFCCF8091E30080688093E300111195
:104DE00002C082E001C083E080931C0338C1805878
:104DF000823008F034C120912003309121032C3DF2
:104E000053E0350779F583E08A838AE289834FB7D7
:104E1000F894DE01139620E03EE051E2E32FF0E04B
:104E200050935700E49120FF03C0E295EF703F5F7D
:104E3000EF708E2F90E0EA3010F0C79601C0C09658
:104E40008D939D932F5F243149F74FBF8091E800E8
:104E5000877F8093E8006AE270E0CE0101960E94AD
:104E60005A2CB4C08091220390912303432F5527DD
:104E700043305105A9F068F44130510509F4FEC0F2
:104E80004230510509F0EBC08BE590E0E9EBF6E02C
:104E90004BC04132510529F14232510589F1DFC041
:104EA000C901992781309105A1F058F0029709F0C6
:104EB000D6C0E6E2F7E0E4918E2F90E0E6E2F7E07C
:104EC00030C0EAE6F7E0E4918E2F90E0EAE6F7E002
:104ED00028C0E4E5F7E0E4918E2F90E0E4E5F7E008
:104EE00020C08330910508F0BAC0880F991FFC01DB
:104EF000E058FE4F0190F081E02D89E090E014C071
:104F00008330910508F0ABC0FC01EE0FFF1FE6589F
:104F1000FE4F0190F081E02DDC01A958BE4F8C912D
:104F200090E0009709F49BC02091E800277F209330
:104F3000E80020912403309125032817390708F44D
:104F4000C90140E0009789F120911C03222309F454
:104F50003DC02530D9F12091E80023FD37C02091D4
:104F6000E80022FD2FC02091E80020FFEBCF409108
:104F7000F3002091F20030E0342B009759F02830F4
:104F8000310540F444914093F100319601972F5F31
:104F90003F4FF3CF41E02830310509F040E0209148
:104FA000E8002E772093E800CDCF4111CDCF0AC085
:104FB00080911C03882351F0853041F08091E800F6
:104FC00083FD04C08091E80082FFF2CF8091E80069
:104FD0008B778093E80043C0803809F040C080910F
:104FE000E800877F8093E80080911D038093F100A3
:104FF0008091E8008E77D3CE811131C0809120035B
:10500000909121039927029754F58091E800877FBA
:105010008093E8001091200310931D030E94062C3A
:10502000111106C08091E30087FD02C081E001C03C
:1050300084E080931C0342E061EC81E00E94252C17
:1050400042E261EC84E00E94252C42E261EC82E0C5
:105050000E94252C42E260EC83E00E94252C809186
:10506000E80083FF10C08091E800877F8093E8000C
:105070008091EB0080628093EB0005C082E190E0BC
:10508000E4E1F7E051CFAA960FB6F894DEBF0FBE69
:10509000CDBFDF91CF911F9108951F920F920FB650
:1050A0000F9211242F933F934F935F936F937F93AE
:1050B0008F939F93AF93BF93CF93DF93EF93FF9320
:1050C000C091E900CF708091EC00D82FD17080FDA5
:1050D000D0E81092E9008091F000877F8093F00083
:1050E00078940E947B251092E9008091F0008860FE
:1050F0008093F000CD2BCF70C093E900FF91EF912A
:10510000DF91CF91BF91AF919F918F917F916F91DF
:105110005F914F913F912F910F900FBE0F901F9075
:105120001895E8EDF0E080818E7F80831092E20098
:105130001092DA001092E100A0EEB0E08C91816054
:105140008C9380818F77808319BCA7EDB0E08C9120
:105150008E7F8C9380818F7E808310920F030895C1
:10516000CF92DF92EF92FF920F931F93CF93DF9333
:10517000C8EDD0E088818F7E8883E7EDF0E0808104
:105180008160808384E082BF81E080930F03888107
:105190008E7F888302EE10E0F80110821092DA0010
:1051A00081EEC82ED12CF601108288818F778883FA
:1051B00088818068888388818F7D888319BC10925C
:1051C0001C0310921D0310921B0310921A0390EE01
:1051D000E92EF12CF70180818B7F808388818160AB
:1051E000888342E060E080E00E94252CF601808107
:1051F0008E7F8083F80180818160808380818860D8
:105200008083F70180818E7F80838881806188839D
:10521000DF91CF911F910F91FF90EF90DF90CF9092
:1052200008951F920F920FB60F9211242F933F9360
:105230004F935F936F937F938F939F93AF93BF939E
:10524000EF93FF938091E10082FF09C08091E2001B
:1052500082FF05C08091E1008B7F8093E100809107
:10526000DA0080FF2AC08091D80080FF26C080919C
:10527000DA008E7F8093DA008091D90080FF18C019
:1052800080E189BD82E189BD09B400FEFDCF81E0E6
:1052900080931C0380910F0381110FC00E949128FD
:1052A0000E94B0288091E20084608093E20005C0F3
:1052B00019BC10921C0310920F038091E10080FF33
:1052C00017C08091E20080FF13C08091E2008E7FC2
:1052D0008093E2008091E20080618093E2008091FF
:1052E000D80080628093D80019BC85E080931C03AD
:1052F0008091E10084FF2EC08091E20084FF2AC0EB
:1053000080E189BD82E189BD09B400FEFDCF8091B5
:10531000D8008F7D8093D8008091E1008F7E8093AC
:10532000E1008091E2008F7E8093E2008091E200B4
:1053300081608093E20080911D03882311F084E056
:1053400007C08091E30087FD02C081E001C083E0D7
:1053500080931C038091E10083FF27C08091E200CD
:1053600083FF23C08091E100877F8093E10082E08A
:1053700080931C0310921D038091E1008E7F809327
:10538000E1008091E2008E7F8093E2008091E20054
:1053900080618093E20042E060E080E00E94252C82
:1053A0008091F00088608093F000FF91EF91BF91B1
:1053B000AF919F918F917F916F915F914F913F91AD
:1053C0002F910F900FBE0F901F9018952091E40021
:1053D0003091E50095E64091EC00842F817040FF0C
:1053E00023C08091E80080FD1DC080911C038823AC
:1053F00099F0853099F08091EB0085FD11C04091C6
:10540000E4005091E5002417350729F3915011F07D
:105410009A01E1CF84E0089582E0089583E0089541
:1054200081E0089580E008954091E80042FFDDCFDB
:105430000895EF92FF920F931F93CF93DF937C0118
:105440008B010E94E629811119C0E70101151105A0
:10545000A1F08091E80085FD0AC08091E8008E7778
:105460008093E8000E94E629882381F307C0899190
:105470008093F10001501109E9CF80E0DF91CF91D5
:105480001F910F91FF90EF900895882341F0809530
:1054900090919C02892380939C020C94091C08958E
:1054A000882339F090919C02892B80939C020C9464
:1054B000091C0895882309F463C0823869F40E94A6
:1054C0002D2481FF5DC069E381E292E00E946D1BA3
:1054D0000E94091C69E30EC0833891F40E942D24B8
:1054E00080FF4EC063E581E292E00E946D1B0E9446
:1054F000091C63E581E292E00E94601B0C94091C88
:10550000843869F40E942D2482FF3AC067E481E266
:1055100092E00E946D1B0E94091C67E4EBCF9CEF98
:10552000980F913A10F4682FE5CF90E2980F9830D9
:1055300088F4877021E030E0A90102C0440F551FB4
:105540008A95E2F7CA01809590919C028923809305
:105550009C02D4CF9BE5980F933020F480E090E03C
:105560000C94172498E5980F973120F480E090E090
:105570000C940124803F20F00E94F6060C94CC0687
:105580000895CF93882309F421C1C82F8238B1F43C
:105590000E942D2481FD1AC169E381E292E00E94FC
:1055A0006D1B0E94091C2FEF81EE94E0215080407A
:1055B0009040E1F700C0000069E317C08338E1F4D0
:1055C0000E942D2480FD02C163E581E292E00E94E9
:1055D0006D1B0E94091C2FEF81EE94E0215080404A
:1055E0009040E1F700C0000063E581E292E00E9494
:1055F000601BCF910C94091C8438B1F40E942D24B7
:1056000082FDE4C067E481E292E00E946D1B0E948B
:10561000091C2FEF81EE94E0215080409040E1F78B
:1056200000C0000067E4E1CF8CEF8C0F813A08F0F6
:1056300080C080912B03813069F018F0823021F115
:1056400070C080919C02823209F0A8C08C2F0E9409
:1056500010096CC080919C028232C1F3C43189F080
:1056600050F4CB3009F498C0C03109F05DC082E03D
:1056700080932B0391C0C93221F0C83309F48CC048
:1056800053C010922B0350C0C93299F118F5C431A0
:1056900081F1A0F4C73009F099C01092F20184E1C1
:1056A00080930A01C09327018CE38093260188E050
:1056B0008093250188E28093240188C0CE51C630B2
:1056C00008F084C0EC2FF0E0EA57FE4F8081809311
:1056D0002A037CC0CE34F9F028F4CB3409F076C02C
:1056E0006AE014C0C13581F0C23509F06FC061E0D5
:1056F0000DC080912A03882319F010922A0366C0F6
:1057000081E080932B0362C061E006C080912A0390
:10571000CF910C949A086AE080912A03CF910C945F
:105720004A0810922B033AC080E0817081114EC06C
:1057300035C080E28C0F883068F4C77081E090E05B
:1057400001C0880FCA95EAF790919C02892B80933B
:105750009C024FCFEBE5EC0FE33040F4F0E0E05774
:10576000FE4F808190E0CF910C941724E8E5EC0F78
:10577000E73150F4F0E0EE0FFF1FED56FE4F808151
:105780009181CF910C940124C03F00F18C2F0E9495
:10579000EF07CF910C94CC0681E0C7CFE3E2F2E0B3
:1057A00089E292E02191C21749F08E179F07D1F745
:1057B0006C2F81E292E00E946D1B1BCF6C2F81E267
:1057C00092E00E94601B0E94091CF2CFCF910895C5
:1057D0001F93CF93DF93182F893319F0C0E0D0E0E7
:1057E00002C0C0E5D0E0812F0E94C12A209741F07D
:1057F0008FE99FE00197F1F700C000002197F6CFF5
:10580000812FDF91CF911F910C945A2A80911E0312
:1058100087FF11C08091E80082FD05C080911C03C4
:105820008111F8CF11C08091E8008B770BC0809177
:105830001C03882349F08091E80080FFF8CF809115
:10584000E8008E778093E8000895982F973068F5E8
:105850009093E900981739F07091EC002091ED00D9
:105860005091F00003C0242F762F50E021FD02C09C
:105870009F5FECCF3091EB003E7F3093EB00309197
:10588000ED003D7F3093ED003091EB0031603093BF
:10589000EB007093EC002093ED005093F00020910A
:1058A000EE0027FDE5CF80E008958F708093E9003A
:1058B00081E00895209124033091250326173707AE
:1058C00048F06115710539F42091E8002E77209396
:1058D000E80001C0B901FC0120E06115710579F112
:1058E00080911C038823F1F18530F1F18091E8006B
:1058F00083FD3CC08091E80082FD2EC08091E800CD
:1059000080FFEBCF2091F3008091F20090E0922B8A
:105910006115710551F08830910538F4219120937B
:10592000F100615071090196F3CF21E0089709F069
:1059300020E08091E8008E778093E800CECF21119F
:10594000CFCF0AC080911C03882361F0853061F0BD
:105950008091E80083FD0AC08091E80082FFF2CFC9
:1059600080E0089582E0089583E0089581E008953D
:1059700062E070E088E291E00C948D2D62E070E0CE
:1059800088E291E00C94962D0E947004882361F0C7
:1059900089E393E00E945A0481E090E00E946F2E18
:1059A000892B11F40C946D0408958091380388308C
:1059B00039F460E089E393E00E94D10C109238033F
:1059C0000895CF93DF93D62FC72F0E94C42C80E079
:1059D00090E00E946F2E892BF1F4ED2FFC2F80E0D8
:1059E00090E0DC01AF5CBC4F2C9121930196873095
:1059F0009105B9F70E94EA1ADC01CB010296A11DBC
:105A0000B11D80932D0390932E03A0932F03B09389
:105A1000300381E001C080E0DF91CF910895CF9302
:105A2000DF93D62FC72F0E94D52C60912D03709144
:105A30002E0380912F03909130030E94051BED2FC0
:105A4000FC2F80E090E02191DC01AF5CBC4F2C93F7
:105A5000019687309105B9F7DF91CF9108958EE1D6
:105A6000489B02C08150E1F7489BFECF08955898AB
:105A700080E28A95F1F7589A0895FC012AE02A9568
:105A8000F1F790E020E080E031E0261779F040E186
:105A90004A95F1F7880F489B02C08160932700C0A8
:105AA000000040E14A95F1F72F5FEFCF20E12A9502
:105AB000F1F729B100C0000030E13A95F1F721700B
:105AC00092272081920F90830895EF92FF920F9377
:105AD0001F93CF93DF931F92CDB7DEB719828C014E
