:100000000C944C040C94FA2E0C9493040C949304CA
:100010000C9493040C9493040C9493040C94930404
:100020000C9493040C9493040C943B1C0C94F71BB9
:100030000C945E2D0C9493040C9493040C949304F0
:100040000C9493040C9493040C9493040C949304D4
:100050000C9493040C943A2D0C9493040C949304F4
:100060000C9493040C9493040C9493040C949304B4
:100070000C9493040C9493040C9493040C949304A4
:100080000C9493040C9493040C9493040C94930494
:100090000C9493040C9493040C9493040C94930484
:1000A0000C9493040C9493040C949304050109029A
:1000B000A10185020901A100050919012905150001
:1000C00025019505750181029501750381010501E1
:1000D000093009311581257F950275088106093897
:1000E0001581257F950175088106050C0A380215D2
:1000F00081257F950175088106C0C005010980A191
:1001000001850319012AB700150126B7009501756D
:10011000108100C0050C0901A101850419012AA064
:1001200002150126A002950175108100C00660FF2E
:100130000961A1010962150026FF0095207508815B
:10014000020963150026FF00952075089102C0057D
:10015000010906A101050719E029E7150025019508
:1001600008750181029501750881010507190029AB
:10017000FF150026FF009506750881000508190186
:100180002905950575019102950175039101C0003E
:10019000000000000000000000000000000000005F
:1001A000000000000000000000000000000000004F
:1001B0000000007E0F00D4FFFFFFC70000007800A2
:1001C000000000000000002A2B28000000000000B2
:1001D0000000000000000000000029000000002CCA
:1001E0001E3420212224342627252E362D37382769
:1001F0001E1F202122232425263333362E37381F75
:100200000405060708090A0B0C0D0E0F1011121336
:100210001415161718191A1B1C1D2F3130232D35D4
:100220000405060708090A0B0C0D0E0F1011121316
:100230001415161718191A1B1C1D2F3130354C00B8
:100240000101010101010101010202020202020297
:10025000020203030303030303030404040404046A
:100260000405050505050606060606070707070730
:1002700008080808090909090A0A0A0B0B0B0C0CE3
:100280000C0D0D0D0E0E0E0F0F0F1010111111127F
:100290001213131414151516161717181819191AFE
:1002A0001A1B1B1C1D1D1E1E1F2020212222232461
:1002B00024252626272829292A2B2C2D2D2E2F30A0
:1002C000313232333435363738393A3B3C3D3E3FB4
:1002D000404142434445464748494A4C4D4E4F50A1
:1002E000515354555658595A5B5D5E5F616264655F
:1002F0006668696B6C6D6F7072737577787A7B7DE9
:100300007E8082838587888A8C8E8F91939596983C
:100310009A9C9EA0A2A3A5A7A9ABADAFB1B3B5B758
:10032000BABCBEC0C2C4C6C9CBCDCFD1D4D6D8DB2F
:10033000DDDFE2E4E7E9EBEEF0F3F5F8FAFDFFFFCD
:10034000AA7F55402223252628292A2C2D2F3032FA
:10035000333536383A3B3D3E4042434547494A4CA7
:100360004E5051535557595A5C5E606264666869D5
:100370006B6D6F71737577797B7D7F8183858789DD
:100380008A8C8E90929496989A9C9E9FA1A3A5A7E2
:10039000A8AAACAEAFB1B3B4B6B8B9BBBCBEBFC10E
:1003A000C2C3C5C6C7C9CACBCCCDCED0D1D2D2D399
:1003B000D4D5D6D7D7D8D9D9DADADBDBDBDCDCDCAD
:1003C000DCDCDDDDDDDDDCDCDCDCDCDBDBDBDADA70
:1003D000D9D9D8D7D7D6D5D4D3D2D2D1D0CECDCCE7
:1003E000CBCAC9C7C6C5C3C2C1BFBEBCBBB9B8B6FC
:1003F000B4B3B1AFAEACAAA8A7A5A3A19F9E9C9A87
:1004000098969492908E8C8A89878583817F7D7B54
:1004100079777573716F6D6B6968666462605E5C35
:100420005A5957555351504E4C4A494745434240FB
:100430003E3D3B3A3836353332302F2D2C2A292891
:10044000262523223A003B003C003D003E003F00B1
:1004500029001E001F002000210022002B00140094
:100460001A00080015001700E1000400160007003C
:1004700009000A00E0001D001B000600190005002D
:10048000000000002F00300002512C00000000008E
:100490002A0035002B004A00400041004200430082
:1004A00044004500230024002500260027002A00E0
:1004B0001C0018000C00120013002D000B000D0092
:1004C0000E000F003300340011001000360037001A
:1004D00038003100280001512E022E0000000000DB
:1004E0004D004C00E300E200000000003A003B0039
:1004F0003C003D003E003F0035021E021F0220026C
:1005000021022202010001000100010001002F0070
:1005100001004A004B004E004D0026020100010080
:100520000100010001000100000000000100460080
:1005300001000100000000000100010001000100B5
:1005400040004100420043004400450023022402D1
:100550002502260227024C0030005F006000610087
:1005600001002E0227025C005D005E002D003102BA
:10057000010059005A005B002E002D02010001000D
:100580000100620000000000010001000100010004
:100590000000000045003A003B003C003D003E00EA
:1005A000010001000100010001002F0001005000C6
:1005B000520051004F00260201000100010001001D
:1005C0000100010001000100010001000100010023
:1005D0000000000001000100010001000000000017
:1005E00001000100010001003F0040004100420005
:1005F0004300440030000100530049004700A800B8
:100600002702AC00AE00AB000100A9000100010010
:10061000010001000100AA00010001000100010029
:1006200001000100010001002E0001000000000097
:100630000100010001000100000000001E0F050084
:10064000047F3F1F643214643214783C1E1E140A67
:1006500005FD377A585A000004E6D6B44602002158
:100660000116000000742FE5A3E0030F012D5D00CB
:100670003D8889C65436C3174FE4DD5C7431C9899F
:100680005FE41655C0286371F477888EA2F366770D
:100690007E7BBF1B6F96EF4B6D0EF4838545901EDE
:1006A0009F13AED5B3C7535C91DCA136EC1C999C6B
:1006B0009BACB0C2FAAA3B12963563A49438681674
:1006C000A8C02B59BE85F4A0934D9FFA741D3630F7
:1006D0008DD4EDDBC73C443198C5D4B973818E17F6
:1006E0005524AA681A1EAA8AC103DD5EC193F222AC
:1006F000A9C591AB4885669EA9C7CEA145580114EE
:1007000012DF7CEF2A7FAA7C82B3B6B9DA4ACEF92F
:100710006A03B182D24A18FE987A4825598758450B
:100720007BA00A6DEC0FBBE03FDC2AF9C5FE3A86E0
:100730002C3BA1A2C1027B123E8E9D8DD670CDD9DD
:10074000BE09A7DE649483FFA57991D39651B1B019
:10075000C433555D14E7B546B60D6BDE05D69F056F
:1007600031BBEFD0B3FAC17F77813E1CEE67C83C46
:100770007C462F6593FD86FD9F6BF35D9F90998C62
:10078000A94802F680494B134F88E823DD68863B71
:10079000D95D61B78C159D936999F5D30000000070
:1007A000006828262C32CE71F70001C9029006009D
:1007B00000D755BF36B1C467FB02000000000459E2
:1007C0005A09025B00030100A0FA090400000103BA
:1007D00001010009211101000122400007058103E8
:1007E00008000A09040100020300000009211101A8
:1007F00000012222000705820320000107050303F0
:100800002000010904020001030000000921110178
:1008100000012281000705840320000A1201100153
:10082000000000084D4436360100010203011C039C
:100830007600690061006C003A0066003600340002
:100840006300320062003300630000002C034400A8
:1008500061006300740079006C002D004D006100A0
:100860006E00750066006F0072006D0020002800A9
:100870003600780036002900000018034F00680099
:1008800020004B00650079002000430061007000EB
:10089000730000000403090411241FBECFEFDAE047
:1008A000DEBFCDBF04B603FE27C08091B403909194
:1008B000B503A091B603B091B7038730904BA74022
:1008C000B04BD1F41092B4031092B5031092B6035A
:1008D0001092B70314BE84B7877F84BF0FB6F89415
:1008E000A8958091600088618093600010926000FC
:1008F0000FBEE0E0F8E3099511E0A0E0B1E0E8E91F
:10090000F3E602C005900D92AA3CB107D9F723E0A7
:10091000AAECB1E001C01D92A43BB207E1F70E942E
:10092000F8250C9489310C940000E8EDF0E080810A
:100930008E7F80831092E2001092DA001092E10024
:10094000A0EEB0E08C9181608C9380818F77808362
:1009500019BCA7EDB0E08C918E7F8C9380818F7E47
:10096000808310927E0308952091E4003091E50089
:1009700095E6A9012091EC00822F817020FF06C02E
:100980008091E80080FF06C080E008952091E80093
:1009900022FD1AC080919403882389F0853089F064
:1009A0008091EB0085FD0FC02091E4003091E500BF
:1009B00042175307F9F29150E1F684E0089582E07E
:1009C000089583E0089581E00895EF92FF920F93D8
:1009D0001F93CF937C018B010E94B404C82F811117
:1009E00017C08091E80085FD0BC08091E8008E77EC
:1009F0008093E8000E94B404882399F3C82F08C0AC
:100A0000F70181917F018093F1000150110949F7AD
:100A10008C2FCF911F910F91FF90EF900895CF935E
:100A2000FC0180919403843001F5C091E900CF70FE
:100A30002091EC00922F917020FD90E8C92B82E06C
:100A40008093E9008091E80080FF0CC050E040E016
:100A500060E270E0CF010E94E5048091E8008E77AB
:100A60008093E800CF70C093E900CF910895809102
:100A70008C0387FF13C08091E80082FF06C080913D
:100A8000E8008B778093E80004C080919403811183
:100A9000F2CF0895809194038823D9F38091E800E0
:100AA00080FFF8CF8091E8008E77ECCF982F90935D
:100AB000E900242F762F50E0891731F07091EC0077
:100AC0002091ED005091F00021FD07C09F5F97300D
:100AD00071F78093E90081E008953091EB003E7F4B
:100AE0003093EB003091ED003D7F3093ED0030917D
:100AF000EB0031603093EB007093EC002093ED003D
:100B00005093F0002091EE0027FDE0CF80E00895A3
:100B1000CF92DF92EF92FF920F931F93CF93DF93C9
:100B2000C8EDD0E088818F7E8883E7EDF0E080819A
:100B30008160808384E082BF81E080937E0388812E
:100B40008E7F888302EE10E0F80110821092DA00A6
:100B500081EEC82ED12CF601108288818F77888390
:100B600088818068888388818F7D888319BC1092F2
:100B7000940310928B0310928A031092890390EED3
:100B8000E92EF12CF70180818B7F80838881816041
:100B9000888342E060E080E00E945605F601808193
:100BA0008E7F8083F801808181608083808188606E
:100BB0008083F70180818E7F808388818061888334
:100BC000DF91CF911F910F91FF90EF90DF90CF9029
:100BD0000895FC01809192039091930386179707E3
:100BE000A0F06115710529F49091E8009E7790932B
:100BF000E80090E06115710551F4911108C08091F1
:100C0000E80082FF34C080E00895BC01F2CF8091FB
:100C100094038823C1F18530C1F18091E80083FD00
:100C200030C08091E80082FDEACF8091E80080FF2B
:100C3000E1CF8091F3002091F200382F611571050A
:100C400019F02830310558F091E02830310509F0CD
:100C500090E02091E8002E772093E800CBCF81919F
:100C60008093F100615071092F5F3F4FE7CF809172
:100C70009403882341F0853041F08091E80083FFA0
:100C8000BECF81E0089582E0089583E0089508953D
:100C900080E0089580918003089587E797E7909317
:100CA00001088093000888E19AE00FB6F894A895AF
:100CB000809360000FBE90936000FFCF9C014FB700
:100CC000F89480911C0390911D03A0911E03B09194
:100CD0001F034FBF821B930B08952FB7F8946091A9
:100CE0001C0370911D0380911E0390911F032FBF61
:100CF00008952FB7F89480911C0390911D03A09143
:100D00001E03B0911F032FBF089580911703811117
:100D10001092170308958091160390911503892B63
:100D200090911403892B8093CC0190911703992300
:100D300091F0892B8093CC0120E08EEC91E0FC01B6
:100D40003191CF0131112F5FF1E0843D9F07B9F759
:100D500021110E948506E0913703F0913803309706
:100D600031F00280F381E02D8CEC91E0099408953C
:100D7000EEECF1E09191891303C0DF0111971C9211
:100D800091E0E43DF907B1F70895AEECB1E0EFEF83
:100D900090E02D91821751F0EF3F19F4211101C01D
:100DA000E92F9F5F9630A9F7EF3F09F408950E2EC3
:100DB000000CFF0BE453FE4F82830895E92FEE0FE2
:100DC000E90FEE0F8E0F982F977086958695869572
:100DD00025E0829FF0011124E452FD4F50E040E0F5
:100DE00080E0219130E0092E02C0369527950A94C3
:100DF000E2F721703327042E01C0220F0A94EAF78C
:100E0000822B4F5F5F4F4530510559F70895E92F09
:100E1000EE0FE90FEE0F8E0F982F977041E001C093
:100E2000440F9A95EAF786958695869595E0899F71
:100E3000F0011124E452FD4F30E020E070E05191C8
:100E4000DF011197CB01022E02C0969587950A9477
:100E5000E2F7817081958527842385278C932F5F06
:100E60003F4F2530310559F708952091DB029091CD
:100E7000AA0256E0291302C080E0089530E0529F94
:100E8000F001539FF00D1124E555FD4F718176134C
:100E900006C07081781303C07281741304C02F5F81
:100EA0003F4F2770E7CF81E008958091DB0290915A
:100EB000AA02981301C008958F5F8770FACF882324
:100EC00041F08095909116038923809316030C942A
:100ED0008B060895882339F090911603982B9093F0
:100EE00016030C948B06089520919E0230919F0268
:100EF0002817390771F090939F0280939E02E0912A
:100F00003703F0913803309721F00084F185E02D0C
:100F10000994089520919C0230919D022817390769
:100F200071F090939D0280939C02E0913703F091C1
:100F30003803309721F00680F781E02D0994089559
:100F4000E0913703F0913803309721F00190F08160
:100F5000E02D099480E00895FA01811101C0FB01A0
:100F60000994E3E4F3E0118282818460828308952E
:100F700080916703982F9E7F29F48170826080930F
:100F8000670308958635E8F381708465F8CFAF92E2
:100F9000BF92DF92EF92FF920F931F93CF93DF9355
:100FA000082F162FE901E42FF0E0E15CFD4F6111FD
:100FB00010C0E4915E2F4E2F4983E8835A83DF915E
:100FC000CF911F910F91FF90EF90DF90BF90AF9066
:100FD0000895E62EF12C4491D42EE42FF0E026E083
:100FE000829FC00111242FEF30E0B9010E9421300F
:100FF000802F90E0880F991F55E5569FD001579F8D
:10100000B00D11248A1B9B0B982F990F890F590142
:10101000AE18BF08AE9ED001AF9EB00DBE9EB00D03
:1010200011245B2F189F80011124012F11275901D2
:10103000A01AB10AAE9E8001AF9E100DBE9E100D8B
:1010400011245901A81AB108AE9CC001AF9C900DA3
:10105000BE9C900D1124892F9927281B390B2E9F98
:10106000C0012F9F900D3E9F900D1124E92F6230FB
:101070007105A1F050F46115710509F49DCF61303F
:10108000710581F0EB2F512F97CF6430710569F016
:1010900080F06630710509F48FCFF4CFE42F4B2F29
:1010A000592F8ACFE42F412F87CFEB2F542F492F71
:1010B00083CF4B2F5D2DE12F7FCF0E9479069C01BE
:1010C00090914F0380915003982B21F030934C0363
:1010D00020934B039091510380915203982B21F060
:1010E0003093480320934703E0913703F09138038E
:1010F000309749F082E080934D030480F581E02D24
:101100008DE493E00994089590E080E00E948A07BE
:1011100090E080E00E94740710921503109214036F
:101120000E948B0686E0EDE4F3E0DF011D928A95D4
:10113000E9F710924A03109246031092A3020C940E
:101140005D08609398037093990380939A0390933A
:101150009B030C9484080F931F93609198037091E4
:10116000990380919A0390919B038B019C010670D7
:10117000112722273327063011052105310529F4CF
:1011800068601F910F910C94A108677FFACF0F93AD
:101190001F9341E050E060E070E004C0440F551F31
:1011A000661F771F8A95D2F7CB01BA0160957095BB
:1011B00080959095009198031091990320919A033E
:1011C00030919B0360237123822393231F910F91FE
:1011D0000C94A108909113038095892380931303A5
:1011E000282F277071F4282F082E000C330B92172C
:1011F000130639F08595859585950E94C70810924C
:10120000130308950F931F9341E050E060E070E0F6
:1012100004C0440F551F661F771F8A95D2F780912F
:10122000980390919903A0919A03B0919B038A012E
:101230009B01082B192B2A2B3B2BC901B8011F91AD
:101240000F910C94A1086093180370931903809375
:101250001A0390931B030C94840890914F03803FD2
:1012600059F48091500387FF0DC0109250039111E3
:101270000BC010924A0308C0813F81F48091500353
:1012800018169CF3992381F0809151039091520399
:10129000892B09F064C0109246030895823F49F4F7
:1012A00097FFF0CF10924F03809150038111ECCF44
:1012B000E0CF833F19F41916ACF3E4CF209151032A
:1012C000893F29F41216F4F610925103DBCF8A3FBE
:1012D00019F427FFD7CFF8CF209152038B3F29F481
:1012E00027FFD0CF10925203CDCF8C3F19F41216A6
:1012F000CCF3C8CF843F31F480914E038E7F80932E
:101300004E03C0CF853F21F480914E038D7FF7CFF0
:10131000863F21F480914E038B7FF1CF873F21F4EC
:1013200080914E03877FEBCF883F21F480914E035D
:101330008F7EE5CF8D3F31F48091A3028E7F809325
:10134000A302A0CF8E3F21F48091A3028D7FF7CF1F
:101350008F3F09F097CF8091A3028B7FF0CF089544
:10136000882309F459C0823871F40E94A00781FFD4
:1013700053C089E30E94C5060E948B0689E30E9440
:10138000B8060C948B06833859F40E94A00780FF9E
:1013900043C083E50E94C5060E948B0683E5EFCF1C
:1013A000843859F40E94A00782FF36C087E40E9467
:1013B000C5060E948B0687E4E2CF9CEF980F913A16
:1013C000F0F290E2980F983088F4877021E030E0D6
:1013D000A90102C0440F551F8A95E2F7CA01809502
:1013E00090911603892380931603CBCF9BE5980F2A
:1013F000933020F490E080E00C948A0798E5980FF1
:10140000973120F490E080E00C947407803F20F046
:101410000E942D090C945D0808958091A30280FF1D
:101420000CC06091130170E075956795759567958F
:101430006115710549F1862F089581FF06C06091FD
:10144000130170E075956795F3CF6091130182FDEC
:101450000BC0909146039923A1F0609112018091F5
:101460001301961738F0682F70E06038710500F3AB
:101470008FE70895899FC001112470E00E943530E4
:10148000F4CF61E070E0D7CF81E008958091A302AE
:1014900080FF12C06091150185E0689FB0011124A2
:1014A000759567957595679560387105A8F561150F
:1014B0007105A1F1862F089581FF09C06091150182
:1014C00085E0689FB001112475956795EDCF609117
:1014D000150182FD0AC080914A038823D1F09091C2
:1014E000140160911501891728F085E0689FB0010B
:1014F0001124DACF869FB001112485E0869F9001E8
:10150000879F300D1124692F70E0C9010E9435308A
:10151000CBCF65E070E0CECF8FE7089581E00895EE
:10152000803F31F40E94460A8195809350030895CC
:10153000813F19F40E94460AF8CF823F31F40E949D
:10154000460A819580934F030895833F19F40E94C2
:10155000460AF8CF893F29F40E940D0A809351036F
:1015600008958A3F21F40E940D0A8195F7CF8B3FA1
:1015700031F40E940D0A81958093520308958C3FA7
:1015800019F40E940D0AF8CF843F31F480914E0384
:10159000816080934E030895853F21F480914E032E
:1015A0008260F7CF863F21F480914E038460F1CFB3
:1015B000873F21F480914E038860EBCF883F21F470
:1015C00080914E038061E5CF8D3F31F48091A3027D
:1015D00081608093A30208958E3F21F48091A3023D
:1015E0008260F7CF8F3FB9F78091A3028460F1CF7B
:1015F000833011F128F4813049F0823091F0089560
:10160000853081F120F18630C1F108958091490340
:10161000681720F4861B80934903089510924903AC
:10162000089580911C01681720F4861B80931C018B
:10163000089510921C01089580911501681720F4F7
:10164000861B8093150108951092150108958091CD
:101650001401681720F4861B8093140108951092DA
:101660001401089580911301681720F4861B80935C
:1016700013010895109213010895809112016817C3
:1016800020F4861B80931201089510921201089590
:10169000833081F128F4813059F08230D1F00895FF
:1016A000853009F449C0B8F1863009F456C0089570
:1016B00080914903482F460F5527551F4F3F51052D
:1016C00024F4680F6093490308958FEF80934903D2
:1016D000089580911C01482F460F5527551F4F3FF5
:1016E000510524F4680F60931C0108958FEF8093D7
:1016F0001C01089580911501482F460F5527551F4D
:101700004F3F510524F4680F6093150108958FEF42
:1017100080931501089580911401482F460F552795
:10172000551F4F3F510524F4680F6093140108952D
:101730008FEF80931401089580911301482F460F75
:101740005527551F4F3F510524F4680F609313012F
:1017500008958FEF80931301089580911201482F0F
:10176000460F5527551F4F3F510524F4680F6093CE
:10177000120108958FEF809312010895F894E82FD5
:10178000E295EF70F0E031A1282F2F7081E090E01A
:1017900001C0880F2A95EAF7982F9095932391A37B
:1017A00092A1892B82A3789408959091340392FF9B
:1017B00006C0282F28712830F9F4877F846093FFB2
:1017C00006C0282F28712831F1F4877E846120918A
:1017D000350320FF06C0382F38713830D9F4877FA1
:1017E000816021FF06C0282F28712831D1F4877E1F
:1017F000816194FD877E0895282F24712430F9F6A5
:101800008B7F8860DCCF282F2471243101F78B7EF9
:101810008861DDCF382F3171313019F78E7F8860C4
:10182000E0CF282F2171213121F78E7E8861E1CF11
:10183000CF93DF9300D00F92CDB7DEB79091940392
:10184000943011F589837B836A839093E9008FEF4D
:101850009091E800815095FD06C095ED9A95F1F7BD
:1018600000008111F5CF8091E80085FF0DC050E0A8
:1018700040E063E070E0CE0101960E94E5048091B3
:10188000E8008E778093E8000F900F900F90DF9123
:10189000CF910895BC0184E00C94180CBC0183E046
:1018A0000C94180C9C0184E08093E9009FEF8091D8
:1018B000E800915085FD06C085ED8A95F1F700009E
:1018C0009111F5CF8091E80085FF0CC050E040E019
:1018D00066E070E0C9010E94E5048091E8008E771F
:1018E0008093E8000895CF93DF93EC0181E080932B
:1018F000E9008FEF9091E800815095FD06C095EDCD
:101900009A95F1F700008111F5CF8091E80085FFED
:1019100014C050E040E068E070E0CE010E94E504B1
:101920008091E8008E778093E80088E0FE01A1E8CE
:10193000B3E001900D928A95E1F7DF91CF91089580
:10194000609117018091670380FF20C0809116018C
:1019500043E0849FC001112484529E4F539A2BB1BF
:10196000277F3BB138605FB7F894FC01649FE00DBE
:10197000F11D1124BF0168177907D1F45FBF8FE50E
:1019800094E00197F1F700C00000089580911801DC
:101990009091190123E0829FF0011124E452FE4F3F
:1019A0008917A0F61182108212828F5F3396F8CFCA
:1019B000FC014191CF01E8E03BB9000000C047FFC6
:1019C0002BB9440F000000C000C000C02BB900C0FC
:1019D000EA9591F7D0CFEF92FF921F93CF93DF93C9
:1019E000EC0110E0EE24EA94F12C60911A01161734
:1019F00070F00E94A00C9A818C8190FF27C08F5FAD
:101A00008C83DF91CF911F91FF90EF9008952091EB
:101A10001801422F410F5527551FCA019A01220F65
:101A2000331F280F391F24523E4F70E0C7010E9418
:101A30003530962F8C8140916A0360916903199F1C
:101A4000800D11240E94C7071F5FCFCF8150D8CFD0
:101A50008F929F92AF92BF92CF92DF92EF92FF92BE
:101A60000F931F93CF93DF93EC018A81BB24BA9429
:101A700080FD02C0BB24B394A0901A018C81811117
:101A800009C081E0B81228C08FEF8A0D8093D90178
:101A900081E08C83F12CE12C48E1942EEA14F8F0DB
:101AA0000E94A00C8091D90191E0B9125FC0811110
:101AB00058C080911A0181508093D9011C82DF9116
:101AC000CF911F910F91FF90EF90DF90CF90BF903B
:101AD000AF909F908F9008951092D901D9CF009127
:101AE00018010E0D1F2D111DC801880F991F080F19
:101AF000191F04521E4FF80111821082128234E025
:101B0000C32ED12C812C8091D901880D89312CF1E3
:101B1000692D0E941330892F082E000C990B8E1509
:101B20009F0591F480916A038C9DA0018D9D500DBD
:101B300011245595479555954795980160916903EE
:101B4000809168030E94C7078B0CF1E0CF1AD1087F
:101B5000D1F68FEFE81AF80AA1CF87FFDDCF8A0D03
:101B6000DBCF81508093D901BC82A9CF90E0019650
:101B700060911A0170E00E9435308093D9018C8306
:101B80009ECFEF92FF920F931F93CF93DF93EC01C1
:101B90008C81811109C081E08C831092DA0192E07E
:101BA0009093100180930F01809118019091190179
:101BB00023E0829FF0011124E452FE4F891768F15F
:101BC00010E003E060911A01161768F10E94A00C62
:101BD00080910F012091DA01280F2093DA01909172
:101BE0001001980F90931001191654F4022E000C56
:101BF000330B40911A014150550B2417350734F02F
:101C0000819580930F01813009F41C82DF91CF917F
:101C10001F910F91FF90EF90089511821082128210
:101C20008F5F3396CBCFE12EF12C70E0C7010E947D
:101C3000353020911801820F482F50E02091DA01B1
:101C4000022E000C330BE216F306BCF020911001BB
:101C5000022E000C330B2E153F057CF0809F900167
:101C6000112424523E4F40916A0360916903809190
:101C700068030E94C7071F5FA5CFFA01EE0FFF1F81
:101C8000E40FF51FE452FE4F118210821282F3CF4F
:101C90008F929F92AF92BF92CF92DF92EF92FF927C
:101CA0000F931F93CF93DF93EC014C81042F10E02F
:101CB0009801D8010E947A319B01AC010E94453104
:101CC0004B015C01E0E2F0E0E01BF10BA5E5B0E0C8
:101CD000AC019B010E9445316B017C019F01DF013A
:101CE0000E9456309B01AC010E9450319B01AC0117
:101CF000280D391D4A1D5B1DC701B6010E945831D0
:101D0000F22E822F90E039E23F1560F143E0249FEC
:101D10009001112435952795122F109500E085E547
:101D2000E82EEF1880911A01081758F10E94A00CB4
:101D30009C8181E0992319F0903219F48FEF809300
:101D4000110180911101890F8C83DF91CF911F9137
:101D50000F91FF90EF90DF90CF90BF90AF909F904A
:101D60008F90089525E530E0B901681B790B9B0140
:101D7000220F331F260F371F37FFCCCF2F5F3F4F68
:101D8000C9CF8E2D01FD8F2D20911801622F600F7C
:101D90007727771F9B01220F331F260F371F2452EF
:101DA0003E4F412F609169030E94C7070F5FBACF72
:101DB0000F931F93CF93DF93EC0110E000E090911D
:101DC0001A019017110609F06CF40E94A00C8C8186
:101DD00090E00196817099278C83DF91CF911F91BC
:101DE0000F91089520911801A801420F511D9A01E9
:101DF000220F331F240F351F24523E4F4C81609118
:101E000069038091680396959017110651F04CF084
:101E1000442349F040916A030E94C7070F5F1F4F98
:101E2000CECF4423B9F340E0F7CF9091670390FF02
:101E300014C0909118012091190133E0939FF00193
:101E40001124E452FE4F921710F00C94A00C8183E1
:101E5000608342839F5F3396F6CF08950F931F935D
:101E6000CF93DF9300D00F92CDB7DEB78C01809176
:101E7000DB0181110AC09E012F5F3F4F4FEF6FEFD3
:101E80000E94C7078A818093DB01F8016481613079
:101E900069F08091DB0140E0662361F040E0623050
:101EA00011F44091DB0180E060E004C06091DB014F
:101EB00040E080E00E94150FF801848190E00196D7
:101EC00063E070E00E94353084830F900F900F9094
:101ED000DF91CF911F910F910895CF93DF9300D0A1
:101EE0000F92CDB7DEB79091670390FF0AC09E01B5
:101EF0002F5F3F4F0E94C7074B8169818A810E94F3
:101F0000150F0F900F900F90DF91CF910895CF9301
:101F1000DF93EC01EC81F0E0EC5BFC4F4491E7E6F1
:101F2000F3E0628181810E946D0F8C818F5F8C83D1
:101F3000DF91CF910895CF93DF93EC01E7E6F3E0D3
:101F4000438162818C810E946D0F8C818F5F8C83B5
:101F5000DF91CF910895E7E6F3E080818E7F808363
:101F60000E94B107E3E4F3E08281816082832FEF76
:101F700080E792E0215080409040E1F700C00000EF
:101F80000C94A00C8091D801811111C08091D800CF
:101F900080618093D8008AE18A95F1F700C0909122
:101FA000D900892F817090FF82E08093D80181E071
:101FB0009091D801913009F080E00895CF9384E0AA
:101FC00090E00E94DE30C82F81E290E00E94DE3077
:101FD000982F8C2FCF9108950F931F93CF93DF935A
:101FE000843030F56E3020F5463010F5C42FD0E047
:101FF000CC0FDD1F2CE0629FC00DD11D112438EAEB
:10200000839FC00DD11D1124CE0186960E94DE3023
:10201000082F10E0102F0027CE0187960E94DE3097
:102020009801282BC901DF91CF911F910F9108953D
:1020300090E080E0F8CF462F20917C0330917D0323
:10204000232B49F4843038F47E3028F4663018F4B9
:10205000672F0C94EC0F90E080E00895CF93DF930E
:102060000E941B10EC0182389105A9F1D8F581334B
:10207000910509F496C048F58932910509F48AC0A2
:102080008A9709F495C0C11521E5D20708F0BCC0B4
:10209000C11530E5D30708F014C1C83ED10508F0DA
:1020A0009CC0C03ED10560F5C83AD10508F087C094
:1020B000C53AD10508F0FDC0C130D10509F120971E
:1020C000F9F0C430D105E0F440C08533910509F43E
:1020D0005AC0C997C1F680913403837089F0C0EE6D
:1020E000D0E00EC0833E910599F170F4803E9105D9
:1020F00001F1823E910539F68091340382FD21C0C1
:10210000CE01DF91CF910895863E910561F1873E22
:10211000910571F1843E910509F0B5CF80913503A9
:1021200081FFEECF80913403C7EED0E084FD0DC077
:10213000E7CF8091340380FD12C19091350390FF69
:10214000DFCFC3EED0E084FFDBCFD0E0C0E0D8CF5C
:102150008091340382FD06C19091350390FDBFCF7D
:1021600084FFCECFF2CF8091340383FDDDCFC8CF83
:102170008091340383FDF9C09091350391FFF0CF36
:10218000C4EED0E0BDCF8091340385FFB9CFC9E262
:10219000D0E0B6CF8091340385FFB2CFC5E3D0E065
:1021A000AFCF8091340386FFABCFCAE2D0E0A8CF97
:1021B0008091340386FFA4CFC1E3D0E0A1CFCF3B11
:1021C000D10518F6C85AD0E0CC0FDD1FC858DE4F35
:1021D0000990D881C02DD46493CFC11540E2D407B3
:1021E00058F4C11581E0D80708F08ACFC03FD10567
:1021F00008F4ABCFD06584CFC11590E4D90708F4BB
:10220000A4CFDF70D06A7CCFC11525E5D20700F5D9
:10221000C11534E5D30708F08AC0C11543E5D407DA
:1022200008F071C0C11582E5D80708F467C0CE0177
:102230008370992721E030E002C0220F331F8A9576
:10224000E2F7C695C69580E2C89FE001112452C00E
:10225000C11599E5D907A8F4C11528E5D20708F0FA
:102260006BC0C11536E5D30708F06FCF8C2F0E94E5
:10227000D50BC82FD0E0DC2FCC27CC27DF71D06264
:102280003FCFC1154AE5D40708F45BC0CE01905694
:102290008115904208F059CF8D2F8F710E94D50B78
:1022A00090E0982F882788279F719C012C2BE901AB
:1022B000E6CFC55AD0E0CB58DE4FC881D0E0D0641D
:1022C0001FCFCE01E4E096958795EA95E1F78370FC
:1022D0002C2F26952695237040E2249F90011124EF
:1022E000382B8C2F8370C1E0D0E002C0CC0FDD1FF3
:1022F0008A95E2F7C22BD32BDC6802CFDC2FCC27E8
:10230000C16FD06AFDCECE018370992721E030E005
:1023100002C0220F331F8A95E2F7C695C69590E258
:10232000C99FE0011124C22BD32BDA68E9CEDC2F40
:10233000CC27C46FD06AE4CEDC2FCC27C06FD06A24
:10234000DFCE8C2F8F700E94D50B34E0D695C795C9
:102350003A95E1F7CF709C2FEC01D069D1CEC9E35B
:10236000D0E0CECEC2EED0E0CBCEC6EED0E0C8CE2E
:10237000BF92CF92DF92EF92FF920F931F93CF9372
:10238000DF938C01C0909803D0909903E0909A035A
:10239000F0909B038091180390911903A0911A0368
:1023A000B0911B03C82AD92AEA2AFB2ACFE1D0E040
:1023B000BC2ED701C6010C2E04C0B695A7959795E3
:1023C00087950A94D2F780FD0EC0219788F7B12C2B
:1023D0008B2DDF91CF911F910F91FF90EF90DF90A8
:1023E000CF90BF900895B8018C2F0E942E100197B6
:1023F00061F3EECFCF93DF93EC010E94B811BE01E1
:10240000DF91CF910C942E100E94FA11292F2F707A
:1024100092959F7092509E3078F4E92FF0E0E55746
:10242000FE4C0C944930803F19F020F4883E20F493
:1024300081E00895843FE1F380E00895883EC0F391
:10244000813FD1F7F5CF822F8695869586950895A1
:10245000CF93DF93C6ECD2E060E0CE010E94F23071
:102460002196C11584E0D807B9F7DF91CF9108957F
:102470000F931F93CF93DF938901843048F56E301B
:1024800038F5463028F521153C4531F420917A0382
:1024900030917B03232BE1F0C42FD0E0CC0FDD1F64
:1024A0009CE0699FC00DD11D112498EA899FC00D41
:1024B000D11D1124612FCE0186960E94F230602F2B
:1024C000CE018796DF91CF911F910F910C94F2303E
:1024D000DF91CF911F910F9108958F929F92AF92AC
:1024E000BF92CF92DF92EF92FF921F93CF93DF9331
:1024F00080907A0390907B0381E090E090937B033F
:1025000080937A0384E4C82E84E0D82ED0E076014C
:10251000C0E014C0F50125913491412F6C2F8D2F0F
:102520000E94381282E0A80EB11C1F5F163091F78E
:102530008CE0E80EF11CCF5FCE3019F0570110E0AF
:10254000E9CFDF5F88EAC80ED11CD43001F7909242
:102550007B0380927A03DF91CF911F91FF90EF90E0
:10256000DF90CF90BF90AF909F908F900895109282
:102570001603EEECF1E086E0DF011D928A95E9F7A3
:102580000C9484081F93CF93DF93CDB7DEB7AA973F
:102590000FB6F894DEBF0FBECDBF8CE893E020915C
:1025A000F100DC012D93CD01B3E084399B07B9F72D
:1025B00080918D03833009F471C0B8F4813009F43F
:1025C00048C0823009F4B2C08091E80083FF3AC16C
:1025D00080918C0390918D039A3008F033C1E92FDC
:1025E000F0E0E756FE4C0C9449308A3009F48DC077
:1025F0008B3009F470C0893039F780918C038132B7
:1026000019F78091900390919103009711F0029730
:10261000D9F68091E800877F8093E8008091E800F8
:1026200082FF37C09091F3008091F200029729F465
:102630008091F1008B7F813021F48091F1008093B3
:1026400080038091E8008B778093E8000E94370533
:10265000BBCF80918C03813A09F0B6CF8091E8001E
:10266000877F8093E8008091900390919103892B5C
:1026700061F468E081E893E070E00E94E9058091F0
:10268000E8008B778093E8009FCF60E090E080E0E7
:10269000F3CF809194038111C1CF96CF80918C03A9
:1026A000813A09F091CF8091900390919103892B09
:1026B00009F08ACF8091E800877F8093E8008091BD
:1026C000E80080FFFCCF809127018093F10080918A
:1026D000E8008E77B9CF80918C03813209F074CFF6
:1026E0008091900390919103892B09F06DCF809197
:1026F000E800877F8093E8000E94370580918E0371
:10270000809327010E94B7125FCF80918C038132A2
:1027100009F05ACF8091E800877F8093E8000E94FB
:10272000370580918F0380937F034ECF80918C0378
:10273000813A09F049CF8091E800877F8093E800D3
:102740008091E80080FFFCCF80917F03BECF80386E
:1027500099F0823809F076C0809190038F708730AD
:1027600008F070C08093E9008091EB0085FB88271A
:1027700080F91092E90006C08091890390918A0344
:10278000911182609091E800977F9093E800809388
:10279000F1001092F1008091E8008E77C0C188238B
:1027A00009F4ADC1823009F04DC080918E038111D2
:1027B000B1C1809190038F702FEF280F263008F061
:1027C00041C08093E9002091EB0020FFA3C193302A
:1027D00031F48091EB0080628093EB009BC190917B
:1027E000EB0090619093EB0021E030E001C0220FFC
:1027F0008A95EAF72093EA001092EA008091EB00B4
:102800008860EACF81111EC010918E031F778091DE
:10281000E3008078812B8093E3008091E800877F3C
:102820008093E8000E9437058091E80080FFFCCF8C
:102830008091E30080688093E30082E0111183E0DF
:10284000809394038091E80083FF0AC08091E800A0
:10285000877F8093E8008091EB0080628093EB009B
:10286000AA960FB6F894DEBF0FBECDBFDF91CF9111
:102870001F9108958058823028F720918E0330915F
:102880008F032C3DE3E03E07A1F583E08A838AE2D3
:1028900089834FB7F894DE01139620E03EE051E2C1
:1028A000E32FF0E050935700E49120FF03C0E2953E
:1028B000EF703F5FEF708E2F90E0EA30C0F0C79668
:1028C0008D939D932F5F243159F74FBF8091E8007E
:1028D000877F8093E8006AE270E0CE0101960E9453
:1028E000E9058091E8008B778093E800ABCFC09634
:1028F000E7CF8091900390919103432F5527433068
:10290000510509F44AC078F54130510509F485C0F4
:102910008BE590E0E1ECF7E04230510509F092CF11
:102920002091E800277F2093E800209192033091C6
:1029300093038217930708F49C0140E021153105A9
:1029400009F070C041116EC08091E80082FDC9CFCE
:1029500080919403882329F2853019F28091E80050
:1029600083FFF2CFBECF4132510509F447C0423256
:10297000510509F067CF8330910508F063CFFC0162
:10298000EE0FFF1FE354FE4F0190F081E02D8654BF
:102990009E4FDC018C9190E01DC033272130310522
:1029A000E9F02115310579F022303105F9F02330B5
:1029B000310509F047CFEEE2F8E0E4918E2F90E088
:1029C000EEE2F8E007C0E4E9F8E0E4918E2F90E051
:1029D000E4E9F8E0009709F435CFA2CFEAE7F8E0A0
:1029E000E4918E2F90E0EAE7F8E0F4CFECE4F8E031
:1029F000E4918E2F90E0ECE4F8E0ECCF8330910589
:102A000008F020CF880F991FFC01ED53FE4F019075
:102A1000F081E02D89E090E083CF82E190E0ECE16D
:102A2000F8E07ECF80919403882309F45ACF853053
:102A300009F457CF8091E80083FD53CF8091E800DF
:102A400082FD82CF8091E80080FF78CF9091F300E3
:102A50008091F2002115310519F08830910550F070
:102A600041E0089709F040E08091E8008E7780937C
:102A7000E80064CF44914093F10031962150310930
:102A80000196E8CF803809F0DDCE8091E800877F9D
:102A90008093E80080918B038093F1007CCE8111BC
:102AA000D1CE10918E03123008F0CCCE8091E80088
:102AB000877F8093E80010938B030E9437051123D2
:102AC00011F084E005C08091E30087FDFACF81E03A
:102AD0008093940342E061EC81E00E94560542E25B
:102AE00061EC84E00E94560542E261EC82E00E94C3
:102AF000560542E260EC83E00E945605A3CE809129
:102B00008E03813009F09ECE81E0933009F080E0A1
:102B100080938A031092E9008091E800877F809378
:102B2000E8000E9437058ECE0F931F9341E050E0DE
:102B300060E070E08A019B0104C0000F111F221F9A
:102B4000331F8A95D2F7C901B8010E9423091F914A
:102B50000F910C94B7124F925F926F927F928F9267
:102B60009F92AF92BF92CF92DF92EF92FF920F931C
:102B70001F93CF93DF93FC016280448081E08483C4
:102B8000E4E4F3E07490E3ECF3E0E491812C75E08D
:102B9000972EF2E0CF2EDD24D394AA24AA94B12C50
:102BA00055245A94E7190E2F10E080911A018816C7
:102BB00090F0DF91CF911F910F91FF90EF90DF90F8
:102BC000CF90BF90AF909F908F907F906F905F90CD
:102BD0004F900C94A00CE82CF12C82E0861568F044
:102BE0009E9CF0019F9CF00D1124EC5DFD4F8091A7
:102BF00068038083809169038183411023C09E9C78
:102C0000F0019F9CF00D1124EC5DFD4F13821282A8
:102C100020911801C701820F911D9C01220F331FC3
:102C2000280F391F24523E4F9E9CF0019F9CF00DAF
:102C30001124EC5DFD4F4281618180810E94C707B4
:102C40008394B3CF9E9CE0019F9CD00D1124CC5D5A
:102C5000DD4F8B818823E9F081508B83859DC001F6
:102C600011246C8170E00E942130FB01FF27EC5B96
:102C7000FC4F8491E82FE719E59DC0011124B801AC
:102C80000E94213080916A03689FB00111247A83E9
:102C9000BFCF0E94B13020916A03269521582C9D08
:102CA000A0012D9D500D1124452F55278417950700
:102CB0000CF0AECF82E0861588F40E94B130B501E9
:102CC0000E94353088830E94B13020916903269597
:102CD000622F70E00E943530280F29839E9CF001FE
:102CE0009F9CF00D1124EC5DFD4F128280916A03D0
:102CF000893C58F088EC9E9CF0019F9CF00D1124BB
:102D0000EC5DFD4F8483838383CF8431A0F784E11E
:102D1000F2CF6BEE7EEF90E080E00E94103160E039
:102D200082E090E00E94F23060E083E090E00E9458
:102D3000F230109218031092190310921A03109295
:102D40001B0360E084E090E00E94F23060E081E2EA
:102D500090E00E94F23060E085E090E00E94F23066
:102D600060E086E090E00E94F2306FEF87E090E054
:102D70000E94F23040E050E0BA0188E090E00E940A
:102D8000043160E08DE090E00E94F23040E050E0DD
:102D9000BA0188E190E00E94043160E087E190E0B0
:102DA0000E94F23040E050E0BA018CE190E00E94D5
:102DB000043160E080E290E00E94F23040E050E0B8
:102DC000BA0188E190E00E94043140E050E0BA018D
:102DD0008FE090E00E94043140E050E0BA0183E1CE
:102DE00090E00C9404318B3109F474C040F58B30C1
:102DF00071F078F4863009F456C020F4853059F12A
:102E000080E00895873009F457C08830C9F781E021
:102E10000895803109F46CC068F48E3089F7909180
:102E20005403892F8B7F92FF84608093540382FD2B
:102E30005BC0EDCF863159F3893149F3E1CF8A3256
:102E400079F1E0F4873241F120F48E31C8F28D51EE
:102E500024C08932A9F680917A0390917B03892B53
:102E6000B1F20E94B7122FEF84E39CE02150804022
:102E70009040E1F700C000000E944D06833448F402
:102E80008A3308F040C0853339F0883309F4BFCF66
:102E9000B7CF833409F0B4CF80E00E949415B7CF48
:102EA0000E948916B4CF80915403807F809354038D
:102EB00081E08093A202089590915403892F8E7F20
:102EC00090FF81608093540380FDA1CF817F809328
:102ED00054039DCF90915403892F8D7F91FF826081
:102EE0008093540381FF93CF809154038160EFCF8F
:102EF00090915403892F877F93FF886080935403B8
:102F000083FDF2CF84CF8953C8CFCF93C82F8823B6
:102F100009F491C08238C1F40E94A00781FD8BC0E2
:102F200089E30E94C5060E948B062FEF81EE94E094
:102F3000215080409040E1F700C0000089E30E94EA
:102F4000B806CF910C948B068338A1F40E94A00799
:102F500080FD71C083E50E94C5060E948B062FEF9D
:102F600081EE94E0215080409040E1F700C00000E5
:102F700083E5E5CF8438A1F40E94A00782FD5BC001
:102F800087E40E94C5060E948B062FEF81EE94E035
:102F9000215080409040E1F700C0000087E4CFCF8F
:102FA0008CEF8C0F813A08F088C08091A2028130AA
:102FB000F9F0882399F08230B1F11092A202EEEC80
:102FC000F1E084ED91E02191C21709F4AAC08E17B7
:102FD0009F07C9F78C2F0E94C506B3CF80911603B7
:102FE000823269F78C2F0E94F316811124C0E7CF3B
:102FF000809116038232B1F3C43171F038F4CB30D2
:1030000049F0C03161F080E08170EFCFC93221F02A
:10301000C833C9F781E0F8CF1092A202F4CF82E062
:103020008093A202F7CFC93221F190F4C43109F1A3
:1030300020F4C73089F1CF910895CE51C630D8F72A
:10304000EC2FF0E0E559FE4F80818093A102F3CF91
:10305000CE3401F140F46AE0CB3469F78091A102EB
:10306000CF910C94480BC13579F061E0C235B1F3D2
:10307000E2CF8091A102882319F01092A102DBCF48
:1030800081E08093A202D7CF61E08091A102CF912D
:103090000C94F80A6AE0F9CF1092490384E1809316
:1030A0001C01C09315018CE38093140188E0809388
:1030B000130188E280931201BECF80E28C0F88302A
:1030C00068F4C77021E030E001C0220FCA95EAF72A
:1030D00080911603822B8093160333CFEBE5EC0F20
:1030E000E33040F4F0E0EB58FE4F808190E0CF9168
:1030F0000C948A07E8E5EC0FE73150F4F0E0EE0FAE
:10310000FF1FE858FE4F80819181CF910C94740786
:10311000C03F08F490CF8C2F0E94900ACF910C945E
:103120005D088C2F0E94B8060E948B0653CF1F9318
:10313000CF93DF93182FD0E0C0E0893311F4C0E5BE
:10314000D0E0812F0E948517209731F4812FDF91E5
:10315000CF911F910C94B0098FE99FE00197F1F78F
:1031600000C000002197F0CF0F931F93CF93DF9300
:10317000C62FD42F022FFC0182818823A1F06093F7
:1031800097030E9479069093960380939503C770E6
:1031900081E001C0880FCA95EAF7DF91CF911F91B6
:1031A0000F910C946A0780919703681335C0809142
:1031B0009503909196030E945E06883C910560F508
:1031C00010E21D0FCD17B9F080E28C0F883040F46B
:1031D000C77081E001C0880FCA95EAF70E945F07B7
:1031E000183048F481E09D2F977001C0880F9A95A0
:1031F000EAF70E946A07802F0E949718183098F407
:10320000D77081E001C0880FDA95EAF7DF91CF919E
:103210001F910F910C945F07C77081E001C0880F68
:10322000CA95EAF7F3CFDF91CF911F910F910895DF
:10323000AF92BF92CF92DF92EF92FF920F931F93C4
:10324000CF93DF93EC018AE0A82E2881222309F492
:103250008CC02130C9F599818A81913021F4229660
:103260000E94971805C0923029F422960E94851773
:103270002196EBCF933021F422960E94B009F8CF2B
:10328000943011F02196F4CF229630E020E0AE0188
:103290004F5F5F4F8053990B8A30910550F021505A
:1032A000310930F38FE99FE00197F1F700C000008A
:1032B000F6CFA29EB001A39E700D11249C01260F93
:1032C000371F8981EA01E3CFE22FF0E0E154FE4F9E
:1032D000B490822F86958695869590E0FC01E15505
:1032E000FE4FE4902770F12C022E02C0F594E79473
:1032F0000A94E2F731E0E322FF24FC01E156FE4F9D
:10330000C490D12C022E02C0D594C7940A94E2F73F
:1033100031E0C322DD24FC01E157FE4F049110E0AF
:1033200002C0159507952A95E2F701701127E1145F
:10333000F10419F081EE0E948517C114D10419F02F
:1033400086EE0E9485178B2D0E949718CD2819F0C4
:1033500086EE0E94B009EF2819F081EE0E94B009B4
:10336000012B09F485CF8CE27BCFDF91CF911F91A8
:103370000F91FF90EF90DF90CF90BF90AF900895A6
:10338000CF92DF92EF92FF926B017C010E94B8070F
:10339000B701A60188E090E0FF90EF90DF90CF901A
:1033A0000C940431AF92BF92CF92DF92EF92FF92D2
:1033B0000F931F93CF93DF9300D00F92CDB7DEB75B
:1033C000182FF62E042FE22E9091670390FF3AC03B
:1033D000E92FE695AE2FB0E0A05CBE4F8C918093B4
:1033E00043039E7F9230E1F59E012F5F3F4F812F77
:1033F0000E94C7074B8169818A810E94150F8091C5
:103400006803811308C0809169038F1104C0809103
:103410006A03801729F080914503826080934503F9
:1034200010936803F092690300936A03EE2051F051
:1034300060916703709168038091690390916A03BA
:103440000E94C0190F900F900F90DF91CF911F91A4
:103450000F91FF90EF90DF90CF90BF90AF900895C5
:10346000823019F400916A03CACF863019F41091A2
:103470006803C5CF8930D9F3893109F6E9518E2F18
:103480008170D82EE695F0E0E15CFC4FA590B490F9
:10349000C12CBB2460911A01C61618F00E94A00C22
:1034A000AECF2C2D30E0A29EC001A39E900DB29E07
:1034B000900D112470E00E942130812FD11013C093
:1034C000860F40911801420F532F511D9A01220F70
:1034D000331F240F351F24523E4F402F6F2D0E9463
:1034E000C707C394D7CF861BECCFE7E6F3E0438151
:1034F00021E1421B08F440E021E0628181810C94CB
:10350000D219E7E6F3E0438121E1420F08F44FEFDF
:1035100021E0628181810C94D219E7E6F3E06281B7
:1035200021E1621B08F460E021E0438181810C9479
:10353000D219E7E6F3E0628121E1620F08F46FEF50
:1035400021E0438181810C94D219E7E6F3E0818187
:1035500021E04381628188500C94D219E7E6F3E0C0
:10356000818121E043816281885F0C94D21980912E
:103570006B03882319F0815080936B03609167037C
:10358000709168038091690390916A030C94C0194B
:1035900080916B03833018F48F5F80936B0360918D
:1035A0006703709168038091690390916A030C949A
:1035B000C019E7E6F3E083E0808311828FEF828316
:1035C00083831482A3E4B3E012968C9112978360F4
:1035D00012968C9360817181828193810C94C019C1
:1035E0008F929F92AF92BF92CF92DF92EF92FF9213
:1035F0000F931F93CF93DF9300D000D000D00F9292
:10360000CDB7DEB706EA11E084E2C82E83E0D82EFB
:103610004601F12CAA24A394B12CD8018D918D01DF
:10362000F894E82FE295EF70F0E021A18F70A501EA
:1036300002C0440F551F8A95E2F7CA01922F982BBA
:1036400091A392A18095892382A3789400C0E4EB92
:10365000F1E030E020E0E12C4191A42FA295AF7081
:10366000B0E090968C9190E04F7002C09595879550
:103670004A95E2F780FD48C08A2D022E01C0880FCE
:103680000A94EAF7E82A2F5F3F4F2630310521F7E9
:10369000F801319780810E94BE0B50EA5A95F1F7EC
:1036A000D4018C91E81691F1EC9281E0F82ABFEFF9
:1036B0008B1A9B0AE1E00D3A1E0709F0AECF10917C
:1036C0003303FF2029F181E08093D6010E9479061F
:1036D0009093D5018093D4018091D4019091D5012C
:1036E0000E945E060697C0F0E12FF0E0E459FC4F1F
:1036F000D6018D916D018193BBE2CB16B3E0DB0661
:10370000B9F71092D60108C080E0BCCF80E0CECFE0
:103710008091D6018111E0CF0E94C20FE82E609106
:103720003303882309F458C08E010F5F1F4F87E0D1
:10373000F80111928A95E9F7862F90E0B801845933
:103740009C4F0E94FB2D81112AC08091D7018F5F71
:103750008093D7018630F0F1E0913203F0E0E45934
:10376000FC4F90E080E01192019687309105D9F7E7
:10377000F11001C0FE2C8F2D27960FB6F894DEBFF6
:103780000FBECDBFDF91CF911F910F91FF90EF90B2
:10379000DF90CF90BF90AF909F908F900895109240
:1037A000D701A0913203B0E0A459BC4F9E01285F1D
:1037B0003F4FE12C4D91F80191918F01491731F064
:1037C000AD0141505109FA019083E82E20173107CD
:1037D00089F7CECFE12CCCCF70E064597C4F80913B
:1037E000320390E084599C4F0E94262EC1CF1F9235
:1037F0000F920FB60F9211242F933F934F935F9325
:103800006F937F938F939F93AF93BF93CF93DF93E8
:10381000EF93FF93D091E900DF708091EC00C82F07
:10382000C17080FDC0E81092E9008091F000877FB0
:103830008093F00078940E94C2121092E900809167
:10384000F00088608093F000CD2BCF70C093E9002A
:10385000FF91EF91DF91CF91BF91AF919F918F91A8
:103860007F916F915F914F913F912F910F900FBE7C
:103870000F901F9018951F920F920FB60F92112460
:103880002F933F934F935F936F937F938F939F9368
:10389000AF93BF93EF93FF938091E10082FF09C044
:1038A0008091E20082FF05C08091E1008B7F8093D0
:1038B000E1008091DA0080FF24C08091D80080FF71
:1038C00020C08091DA008E7F8093DA008091D90049
:1038D00080FF9BC080E189BD82E189BD09B400FE03
:1038E000FDCF81E08093940380917E03811109C014
:1038F0000E9495040E9488058091E2008460809374
:10390000E2008091E10080FF17C08091E20080FF1B
:1039100013C08091E2008E7F8093E2008091E200EC
:1039200080618093E2008091D80080628093D8000B
:1039300019BC85E0809394038091E10084FF29C045
:103940008091E20084FF25C080E189BD82E189BDCC
:1039500089B5982F917080FFFBCF8091D8008F7D23
:103960008093D8008091E1008F7E8093E100809168
:10397000E2008F7E8093E2008091E200816080937C
:10398000E20080918B03882309F445C084E0809392
:1039900094038091E10083FF27C08091E20083FFC0
:1039A00023C08091E100877F8093E10082E08093D3
:1039B000940310928B038091E1008E7F8093E1004D
:1039C0008091E2008E7F8093E2008091E20080612E
:1039D0008093E20042E060E080E00E945605809122
:1039E000F00088608093F000FF91EF91BF91AF915C
:1039F0009F918F917F916F915F914F913F912F9107
:103A00000F900FBE0F901F90189519BC1092940341
:103A100010927E0376CF8091E30087FD93E0909330
:103A20009403B7CF0F931F930E94C20F882321F0F6
:103A30001F910F910C946D060E946D06009120035A
:103A4000109121032091220330912303600F711FF5
:103A5000821F931F1F910F9108950E94C20F811121
:103A60000C9479060E94121DCB01089560916703A2
:103A7000669570E04BE050E084E091E00E94CA302F
:103A8000892B19F481E0809344030E942D1D9093AB
:103A90003E0380933D0380914503846080934503FA
:103AA00008959091670390FF3BC0917081112EC0E3
:103AB00092609093670380914503816080934503F2
:103AC000662351F0609167037091680380916903E8
:103AD00090916A030E94C01960916703669570E037
:103AE0004BE050E084E091E00E94CA30892BA9F0BD
:103AF0000E94B10781E08093400320E040916A0377
:103B000060916903809168030C94D2198B3210F094
:103B10009465CFCF880F982BCCCF0E94361DEACF6B
:103B20000895809167038695815009F48AE261E0E7
:103B30000C94511D8091670386958F5F8B3208F03E
:103B400081E061E00C94511D9091670390FF07C0E4
:103B50009695981720F0961710F40C949A1D61E032
:103B60000C94511D4F925F926F927F928F929F9211
:103B7000AF92BF92CF92DF92EF92FF920F931F937B
:103B8000CF93DF9300D000D00F92CDB7DEB77C018A
:103B9000FC0183819481892B31F08081918189237B
:103BA0008F3F09F031C50F900F900F900F900F903D
:103BB000DF91CF911F910F91FF90EF90DF90CF9009
:103BC000BF90AF909F908F907F906F905F904F903D
:103BD00008950E94B811182F682F89819A810E9438
:103BE000070769817A81812F0E941B108C01F701E0
:103BF0009281992309F4FDC4980122513F45203157
:103C0000310508F0CFC48FEF93E00E94DE304EEE16
:103C1000D42ED00E06EC12E08823D1F0809113034D
:103C2000877009F4C0CFF7018281882309F4BBCFE4
:103C300082E00E94EA08B7CF0115F4E01F0771F394
:103C4000C8010E94DE30811101C0DA940F5F1F4F5E
:103C5000D110F2CF19821A821B821C82CC24CA9402
:103C600048012FEF821A920AC8010E94DE30898330
:103C70001A82882399F2813009F047C0580132E056
:103C8000A30EB11CC4010E94DE30982E8A838823C3
:103C900029F2C5010E94DE30D82E8FEF890D8330C6
:103CA00068F4580143E0A40EB11CDB82DD2021F052
:103CB000CE0101960E9418198501D2CF54E09512C9
:103CC000FBCF580184E0A80EB11CC80103960E94E6
:103CD000DE30DD2009F4A2CF882309F49FCF815084
:103CE000990BC89E9001C99E300D1124ED2DE15015
:103CF000FF0BCF01820F931F0197F0F2EFE9FFE076
:103D00003197F1F700C00000F7CFCE0101960E9475
:103D100018195401D1CF81E00E9402090E94AB081A
:103D20007DCF81E00E94C708F9CF82E0F5CF053F43
:103D3000ECE51E0709F45EC008F458C0063F2CE508
:103D4000120709F45BC0992309F46FC4109297031A
:103D500002303CE5130708F431C106314CE5140785
:103D600038F098012A5F3C452930310508F026C11A
:103D70000E94DE0F909335038093340300315CE59D
:103D8000150709F4EAC008F078C008309CE5190767
:103D900009F4D9C008F047C00430FCE51F0709F456
:103DA000C6C098F502303CE5130709F4BAC080910B
:103DB0003403826003301C4509F4B6C060913403BB
:103DC0001091350384E090E00E94F230612F81E28F
:103DD00090E00E94F2300E94B71220CF27E245EE19
:103DE00065EE03C426E241EE60EEFFC327E245EE36
:103DF00064EEFBC326E241EE62EEF7C327E245EE36
:103E000066EEF3C328E241E0EBCF8091340380619A
:103E100006305CE5150709F487C008F48CC0809172
:103E20003403806281C0809134038D7F0C309CE527
:103E3000190709F479C070F4809134038C600A305A
:103E4000FCE51F0709F470C008F481C080913403B9
:103E50008E7F6AC080913403877F0E303CE5130764
:103E600009F462C0809134038B7F0F301C4508F445
:103E70005BC0809134038F7E57C00B3F5CE5150714
:103E800009F45DC030F503319CE5190709F46DC0F4
:103E900078F40131FCE51F0709F463C002311C45C9
:103EA00009F08CCF0E94B712809134038F773CC009
:103EB00005313CE5130709F460C008F474C0809133
:103EC000350381600A3F1C4509F078CF80933503A4
:103ED00075CF0F3F8CE5180709F44BC088F480912B
:103EE00035038D7F0D3FECE51E0781F3809135038F
:103EF0008E7F0E3F1C4550F3809135038360E6CFE3
:103F000001302DE5120709F457C008F442C060E003
:103F100002301D4509F052CF8EE090E00E94F23051
:103F20004DCF8091340381608093340347CF8091DB
:103F300034038460F9CF809134038860F5CF809199
:103F400035038260C3CF809134038064EDCF0E943B
:103F5000B712809134038068E7CF809134038F7D5E
:103F6000E3CF809134038F7BDFCF80913403837F55
:103F7000DBCF809135038C7FA9CF8091340382FB06
:103F8000992790F921E0922790FB82F990FB83F921
:103F9000CBCF80913503982F909591708E7F892B90
:103FA00090FB81F993CF0E94B71290913403892F2F
:103FB00097FB87F98058B8CF61E0AECF06315CE55A
:103FC000150709F03FC3809116038A7A91E009F43E
:103FD00090E09093A002811106C089E20E94C5067C
:103FE0000E948B061BCE85E3F9CF85E328C3809121
:103FF000670380FF20C08E7F809367036091670313
:10400000709168038091690390916A030E94C019BE
:104010000E94B107809145038160809345038FEF33
:1040200090E7E2E081509040E040E1F700C00000FE
:104030000E94A00CF3CD81608093670361E08695B8
:104040000E94511DEBCD41E95DE16AE97DE10E94ED
:10405000AC07E4CD4AE95DE161E97DE1F8CF45EAED
:104060005AE16EEA7AE1F3CF4EEA5AE165EA7AE183
:10407000EECF4DE85AE169E97AE1E9CF49E95AE141
:104080006DE87AE1E4CF45E75AE161E87AE1DFCF14
:1040900041E85AE165E77AE1DACF47EB5AE168ECAB
:1040A0007AE1D5CF48EC5AE167EB7AE1D0CF61E015
:1040B00081E0C6CF65E082E00E94A41DAFCD68E03C
:1040C00086E0FACF6EE089E0F7CF64E18FE0F4CFCD
:1040D00067E185E1F1CF61E088E1B2CF62E289E199
:1040E000EBCF61E083E2ACCF0E94B712FFEF24E395
:1040F0003CE0F15020403040E1F700C000000E9459
:104100004D060E9489168ACDC8010E94DE06D82E6F
:10411000B0C2212F2F70A22E107F19F0A29490EF21
:10412000A922DD20C9F0AA2069F080E2800F883042
:1041300010F081100BC080911603A82AA0921603DC
:104140000E948B06802F0E94851718C0809115034E
:10415000A82AA0921503F4CF802F0E94B009AA20AC
:1041600069F0A094005E083010F0811028C08091A2
:104170001603A822A09216030E948B062B2D28500E
:10418000330B2430310510F40E94A007CC2009F431
:104190000ACD8091130380FD06CDF701128285952B
:1041A000859585950E940209C7010E94B21D8091E4
:1041B00013038595859585950E94C708F4CC809159
:1041C0001503A822A0921503D7CF312F3F70932E4D
:1041D000107F103219F0929480EF9822882071F0AD
:1041E00041E0841661F1DD20B9F1AA2071F1F701F7
:1041F000858180FFA7CF8F70858327C0DD2091F058
:1042000090911703892D892BA11003C00E946A0782
:10421000B5CF51E0A512FACF981709F4AFCF80932C
:104220001703ACCFA11006C00E948506892D0E94FD
:104230005F07A4CF81E0A81609F4A0CFF5CFDD2059
:1042400031F095E09A1508F499CF892DDFCFE4E09D
:10425000EA1508F493CFEACFAA2041F3F9E38F12CD
:1042600009C02FEF37EE43E0215030404040E1F7E6
:1042700000C00000802F0E94B00980CF812F86955A
:104280008695837061F0813009F078CFC801937012
:10429000D11002C090E080E00E9474076FCFC80187
:1042A0009370D11002C090E080E00E948A0766CF30
:1042B000802FDD2039F00E94900A0E945D080E9444
:1042C0005D085CCF0E942D09FACF812F837009F021
:1042D00066C0D11053CF802F829586958770880F46
:1042E000880F602F6F70462E512C712C612C082E78
:1042F00004C0440C551C661C771C0A94D2F740E09D
:1043000050E0BA0104FF0FC04FE050E060E070E001
:1043100004C0440F551F661F771F8A95D2F740953A
:10432000509560957095812F869586958370823023
:1043300019F1D8F4009118031091190320911A0370
:1043400030911B03813069F044295529662977296A
:10435000CB01BA0160237123822393230E94230996
:104360000DCF402A512A622A732ACB01BA0164294F
:10437000752986299729F2CF442955296629772955
:10438000009118031091190320911A0330911B0317
:10439000CB01BA016027712782279327DFCF86954B
:1043A000DD2011F0812F8170882309F4E7CE802F62
:1043B000829586958770880F880F602F6F70462EC4
:1043C000512C712C612C082E04C0440C551C661C09
:1043D000771C0A94D2F740E050E0BA0104FF0FC006
:1043E0004FE050E060E070E004C0440F551F661FCE
:1043F000771F8A95D2F74095509560957095812FDB
:10440000869586958370823019F1D8F400919803CF
:104410001091990320919A0330919B03813069F0A8
:104420004429552966297729CB01BA0160237123D4
:10443000822393230E94A108A1CE402A512A622AF6
:10444000732ACB01BA016429752986299729F2CFED
:1044500044295529662977290091980310919903D9
:1044600020919A0330919B03CB01BA0160277127F9
:1044700082279327DFCF1F70DD2029F0812F0E9434
:104480000209802FC3CE802F0E945F07812F0E94D8
:10449000C70874CE802F52EF851609F450C0581506
:1044A00078F090EF891619F1E1EF8E1609F43FC00C
:1044B000DD2009F467C0A11045CE812F8F713CC06B
:1044C000F3EF8F1609F440C024EF8212F1CFDD2004
:1044D00009F44DC01F71812F0E94020958E0159FF9
:1044E000C0011124836080931303812F25C0DD2038
:1044F000C9F034E03A1508F441CE1F7161E070E074
:1045000080E090E004C0660F771F881F991F1A95FE
:10451000D2F7009198031091990320919A0330915A
:104520009B03A4CF45E04A1508F428CEE6CF812F9F
:104530008F71DD2009F4ABCF0E9402091FCE812FBD
:104540008F71DD20C9F3A3CF60E070E0CB01DD20E7
:1045500009F470CF1F7161E070E080E090E004C06A
:10456000660F771F881F991F1A95D2F763CF81E0D6
:104570000E94EA0881E08A1508F000CE82E00E94DD
:10458000EA08FCCDAA2059F0893309F073CE9FEFD9
:10459000E7EEF3E09150E040F040E1F769CE812F83
:1045A0008F7175CF0031FFE51F0709F4B4CB0131DE
:1045B0002FE5120709F4B9CB033F2CE5120709F4E4
:1045C00011CC08F0B4CB083D4CE5140709F406CC37
:1045D000093D5CE5150709F415CC073D8CE5180786
:1045E00009F0B1CB26E241EE61EEC7010E94B4189A
:1045F00015CB00313FE5130709F493CB01314FE5AB
:104600001407D1F682E08ECB85E0DE011196019091
:104610000D928A95E1F7F701228189819A81211112
:10462000D8CA0E94DE06182FDCCA0631FCE51F0737
:1046300009F052C08091A0028111D7CC89E20E947A
:10464000B806CECC01152CE5120709F44DCD0E3D70
:104650001C4509F456CDF70100811181992309F415
:1046600053CDC8010E94B811D82E682FC8010E94EE
:104670000707B8018D2D0E942E108C01882EF7019E
:10468000D280A580A2943FE0A3228091130387707B
:10469000A1F0CD2CDD2091F0812F807F803421F09E
:1046A00080E2800F883048F082E00E94EA08809122
:1046B00013038770CC24C3948111C12CB12EB29402
:1046C0002FE0B222FBE0FB1508F458CDEB2DF0E013
:1046D000ED55FE4C0C944930809116038272F8011E
:1046E000E25CFC45E431F10508F0B5CFE155FE4C44
:1046F0000C9449301F93CF93DF938091A902807F60
:10470000A9F48091A602882389F08091DB02D091E0
:10471000AA026091A4027091A502A091A702B09193
:10472000A802C62FC72316E0D81304C0DF91CF918B
:104730001F91089590E0109711F0CF3F19F4019662
:104740008770F2CF189F9001199F300D1124F90145
:10475000E555FD4F41814713F2CF40814613EFCF1E
:1047600042814111ECCF438154814A1B5B0B483C91
:10477000510528F78091A9028F7080618093A9026A
:10478000F901E055FD4F80818F708061808384EA5C
:1047900092E00E94B21DDF91CF911F910C945507BA
:1047A0008F929F92AF92BF92CF92DF92EF92FF9241
:1047B0000F931F93CF93DF93CDB7DEB761970FB6FB
:1047C000F894DEBF0FBECDBF8C0185E0F801DE019D
:1047D0001D9601900D928A95E1F7D801EC90119603
:1047E000DC9011971296CC90129784EA882E82E082
:1047F000982E4091A7025091A8024115510509F445
:1048000043C19091A4022091A502892F82238F3F5A
:1048100009F43AC11396AD90BC901497F090A6029B
:10482000F501E41BF50BFF2009F4FFC08091A902FC
:10483000382F307FE83CF10508F0C8C0311185C041
:10484000FC2C2D1124C09E1122C0C11020C08F70DD
:1048500080618093A902C4010E94B21D8091A902C7
:10486000D80115968C938F2D61960FB6F894DEBF04
:104870000FBECDBFDF91CF911F910F91FF90EF90B1
:10488000DF90CF90BF90AF909F908F900895A1142C
:10489000B10429F08E2D8D218F3F09F016C180E0E3
:1048A00080FF14C04C2D6D2D8E2D0E94350788235E
:1048B00069F084EA92E00E94B21D86E0E4EAF2E048
:1048C000DF011D928A95E9F7F12CCDCFAB2829F0B5
:1048D0008E2D8D218F3F09F0F5C080E0B82FB1708B
:1048E000AB2E80FF29C04C2D6D2D8E2D0E943507DB
:1048F000B82E811121C0ED86DE868D859E850E94B1
:10490000FA11292F22952F70223050F0243078F49C
:104910009F7051F0F8019581907F31F4FB2CA3CF6B
:104920009F7011F08823D1F3805E8830B8F3C801FE
:104930000E94B21DBA2CF2CFCC2009F494CF809102
:10494000A90281608093A902BFCF2D1112C09E11D0
:1049500010C0C1100EC015968C93C8010E94B21DE4
:1049600086E0F801A4EAB2E001900D928A95E1F7A1
:104970007ACFED86DE868D859E850E94041288237F
:1049800009F1CC20F9F08091A902803270F02091D9
:10499000A4023091A50238872F831986BB86AA8688
:1049A0008C87CE0107960E94B21D86E0F801A4EA2A
:1049B000B2E001900D928A95E1F70E947A23FF24DC
:1049C000F39451CFC8010E94B21DF9CF332309F4EB
:1049D00070CF2D110FC09E110DC0C1100BC0F8017A
:1049E0008583C8010E94B21D86E0D4011D928A957C
:1049F000E9F739CFED86DE868D859E850E9404120B
:104A0000882301F3CC20F1F28091A902803268F270
:104A10002091A4023091A5023A8329831B82BD8292
:104A2000AC828E83CE010196BECFE83CF105E0F664
:104A3000FC2CCC2039F22D1116C09E1114C080918F
:104A4000A90280FD8DCF982F907F09F489CFF801BE
:104A50008583903F09F481CF982F907F905F8F706E
:104A6000892B85837ACFED86DE868D859E850E9493
:104A7000041281119ACF8091A90281608093A902CA
:104A8000C8010E94B21DEFCECC2009F49BCFED8669
:104A9000DE868D859E850E940412F82E882309F4F7
:104AA00091CF86E0F801A4EAB2E001900D928A95D8
:104AB000E1F78091A4029091A5020E94FA110E9450
:104AC0007A23D1CE81E08C2509CF81E08C25E8CEF8
:104AD0001F93CF93DF93CDB7DEB767970FB6F894E8
:104AE000DEBF0FBECDBF342F4B8B252F5C8B6D8B64
:104AF0007E8B8F8B8E899F896111109215031A8A84
:104B0000198A3D872E876F87998B888B86E0FE01F7
:104B10003D96DE01179601900D928A95E1F7CE0140
:104B200007960E94D023882389F016E08091DB024B
:104B30009091AA02891349C067960FB6F894DEBF18
:104B40000FBECDBFDF91CF911F91089586E0FE018A
:104B50003796DE01119601900D928A95E1F78A85CC
:104B60009B85892B11F38F81988589238F3FE9F2EB
:104B70002091AA0230E0C9010196877099274091DF
:104B8000DB024817190671F40E94B7121092AA02AC
:104B90001092DB0286E0E4EAF2E0DF011D928A95E2
:104BA000E9F7C3CF96E0929FD001939FB00D1124F7
:104BB000A555BD4FFE01319601900D929A95E1F7F2
:104BC0008093AA020E945507B0CF819FC001112493
:104BD00085559D4F0E94D023882309F4ADCF809145
:104BE000DB0290E00196877099278093DB029ECFCD
:104BF000CDB7DEB7E2970FB6F894DEBF0FBECDBFDC
:104C000084B7877F84BF0FB6F894A8958091600021
:104C1000886180936000109260000FBE80E890E091
:104C20000FB6F89480936100909361000FBE85B732
:104C3000806885BF85B7806885BF88E496E09093DB
:104C4000CB018093CA010E9495040E94880580913F
:104C5000E20084608093E20078948091940388233A
:104C6000A1F01091E9001F709091EC00892F8170E4
:104C700090FD80E8182B1092E9008091E80083FDF8
:104C80000E94C2121F701093E90082E084BD93E07D
:104C900095BD9AEF97BD80936E00109220031092FD
:104CA000210310922203109223038EE090E00E94D1
:104CB000DE3091E0811101C090E090931B01809162
:104CC0001B01882309F463C0109216018CE08093C5
:104CD00017010E94C20F81110E94D22D80911B01E9
:104CE00080911B0197E0811190E09093330387E05E
:104CF000891B8093320306EA11E0F80181918F014C
:104D00000E94BE0BF1E00D3A1F07B9F784E90E943B
:104D1000BE0B86E60E94BE0B87E90E94BE0B86ECA6
:104D20000E94BE0B84E30E94BE0B85E30E94BE0B73
:104D3000E4E2F3E0ACE6B3E011921D9223E0E2334B
:104D4000F207D1F70E94F01A8FE39CE90197F1F77F
:104D500000C000000E94F01A80916C0380FF1BC00D
:104D60006FEF82E290E00E94F2306FEF83E290E01A
:104D70000E94F2306FEF84E290E00E94F2306FEF19
:104D80007FEF90E080E00E9410310E944D068CE0A1
:104D9000809316019CCF90E080E00E94EC308B3E27
:104DA0009E4F11F00E9489160E94C20F811102C00D
:104DB0000E94D82D82E290E00E94DE30843D09F00E
:104DC00016C683E290E00E94DE30813C09F00FC6F7
:104DD00084E290E00E94DE30813C09F008C690E059
:104DE00080E00E94EC308B3E9E4F11F00E948916AD
:104DF00082E090E00E94DE30809354030E94DE0F38
:104E0000909335038093340383E090E00E94DE307A
:104E1000682F70E090E080E00E94230980913603C3
:104E200081113BC090E080E00E94EC308B3E9E4FB1
:104E300021F00E9489160E94D91A88E090E00E9411
:104E4000E6306093670370936803809369039093DF
:104E50006A03809145038360809345036E7F71F4FC
:104E60000E94D91A88E090E00E94E63060936703C0
:104E7000709368038093690390936A030E94B80754
:104E80000E94B1078091670380FF04C060E08695AF
:104E90000E94511D81E0809336038DE191E0909353
:104EA00038038093370328E1422E512C30E4232E1F
:104EB0008CE693E04EE0342E380E8091940300E1AE
:104EC00012E1853009F4A7C10E94F01A81110E94F5
:104ED0006D06A5E5B3E0ECE6F3E010E000E0C02EDF
:104EE000F1908D918F1509F4A5C18F25D12CEE2459
:104EF000E394982F9E2109F498C10E94C20F882341
:104F000099F0D9A6CAA6FE2081E009F480E08BA71B
:104F10000E9479068160782F9DA78CA749A55AA584
:104F20006BA58DA50E946825F801EB5AFC4F808186
:104F3000E826E08280914403882309F464C08091CC
:104F40004303E0916703E695E81BE0933F0382305B
:104F500009F087C1F0E0E35BF94FE4910E2F10E018
:104F600097E8E92E9FE0F92E80914003882361F0B5
:104F7000109240030E942D1D90933E0380933D03A9
:104F800010924203109241030E942D1DE0913D03B7
:104F9000F0913E039C012E1B3F0B2F3F3F4798F59E
:104FA00020913C032223B1F010923C0320913A035C
:104FB00030913B03821B930B8F3F9F4758F4205D3A
:104FC0003A4830933B0320933A038091450388602D
:104FD00080934503C0904103D0904203E00FF11F3E
:104FE000F0933E03E0933D038DE393E0F7010995D1
:104FF0008091410390914203892B29F4CD2819F027
:1050000081E080933C0386E0EDE4F3E0DE0111965D
:1050100001900D928A95E1F7E0904F03F0905003D4
:10502000109151030091520310924F0310925003BC
:1050300010925103109252038E2D8F2991F080917E
:105040004B0390914C030E945E06AC0190914A0381
:10505000992309F472C180911C018417150608F484
:105060007AC1812F802B09F448C080914703909129
:1050700048030E945E069C0190914603992309F41F
:10508000D8C425363105C8F19F3F19F09F5F909332
:105090004603112359F00E940D0A9FEF11160CF4DC
:1050A00091E0899F802D112480935103002359F0B2
:1050B0000E940D0A9FEF10160CF491E0899F802D3D
:1050C000112480935203309151033323B1F0209186
:1050D0005203222391F045EB3403C001112499239C
:1050E00009F478C19093510345EB240390011124F6
:1050F000332309F473C13093520380914F0390918D
:105100005003892B90915103892B90915203892B45
:1051100011F00E945D0886E0FE013196ADE4B3E037
:1051200001900D928A95E1F70E94A0079091530398
:10513000891721F00E94A007809353038091940364
:10514000843009F0BACE83E08093E9008091E800D2
:1051500082FFB3CE8091E80090E085FF06C00E94F8
:10516000B404882309F43EC191E08091E8008B7774
:105170008093E800992309F4A0CE00917C0310915C
:105180007D0389810115110509F448C18E3F09F09D
:10519000D8C18A81833020F08550833008F0D1C196
:1051A000EA81E93008F0CDC1F0E0ED53FE4C0C94FB
:1051B000493080919403843009F1109239030FB67D
:1051C000F894A895409260000FBE2092600083B7CB
:1051D000817F846083BF83B7816083BF7894889523
:1051E00083B78E7F83BF0FB6F894A8958091600037
:1051F000886180936000109260000FBE80918A03E6
:10520000882349F00E94F01AECE6F3E081918111C5
:10521000D8C33E12FBCF80919403853009F4C9CFE7
:105220000E94B7120E94A0074FCED394EE0C36E036
:10523000D3125FCE0F5F1F4F0E30110509F04FCE16
:105240008FEF8EA78FA718AA0E9479068160782F0A
:105250009AAB89AB4EA55FA568A98AA90E9468256B
:1052600069CE863059F4F0E0E65BF94FE4910E2FF9
:1052700010E08BE9E82E8FE0F82E76CE893061F4CD
:10528000E695F0E0E95BF94FE4910E2F10E0BBEEFC
:10529000EB2EBCE0FB2E68CE8F3061F4E695F0E09B
:1052A000EC5BF94FE4910E2F10E0A8E2EA2EADE09E
:1052B000FA2E5ACE853159F4F0E0EF5BF94FE491C4
:1052C0000E2F10E0F1ECEF2EFDE0FF2E4DCE08E2A8
:1052D00010E068E4E62E6EE0F62E883109F444CE44
:1052E000833249F4EFE3F6E005911491EEE2EE2EFD
:1052F000EFE0FE2E39CE04EF11E058EDE52E5EE032
:10530000F52E843209F430CE00ED17E047E4E42EA8
:1053100046E0F42E853209F027CE8E2F63E00E94FE
:105320000730E92FF0E0E45CF94FE4910E2F10E034
:105330007BEAE72E75E1F72E17CE20914903FAE0BC
:105340002F9F900111242417350708F08ACE9F5F04
:1053500090934A0302C09F3FD1F7EE2059F00E947C
:10536000460A9FEF1E140CF491E0899F802D1124B2
:1053700080934F03FF2059F00E94460A9FEF1F14AD
:105380000CF491E0899F802D11248093500330917B
:105390004F03332309F465CE20915003222309F4EF
:1053A00060CE45EB3403C0011124992359F090934A
:1053B0004F0345EB240390011124332339F030933C
:1053C00050034FCE81E080934F03F3CF81E0809371
:1053D000500347CE81E08093510386CE81E08093D5
:1053E00052038BCE00E210E0CE0101967C01809149
:1053F000E80085FD0AC08091E8008B778093E80083
:105400000E94B404882399F3AFCE8091F100F70194
:1054100081937F010150110951F7A6CE8B3009F419
:10542000FAC198F5853009F4B2C0D0F4823009F49D
:1054300077C030F4813009F46FC08FEF898381C069
:10544000833009F495C08430C1F74C816B818A8127
:105450000E94EC0F9827892798279E838D8371C01F
:10546000873009F4A2C008F49DC0883009F4CFC089
:10547000893019F76091670370916803809169031F
:1054800090916A030E94C0195CC0803109F412C176
:10549000B8F58D3009F4DFC008F4DAC08E3009F4B5
:1054A000DEC08F3051F680917A0390917B03892B77
:1054B00009F447C08C81C82ED12C2DE1C216D1042D
:1054C00008F03FC00A811B81102701271027CE0159
:1054D00001967C01C80ED91EC8018A539D4FCE1477
:1054E000DF0479F10A33F1E01F0720F4F70164814A
:1054F0000E94F230FFEFEF1AFF0A0F5F1F4FECCF51
:10550000823109F4DCC008F4D8C0833109F400C149
:105510008E3F09F092CF44CE1A8289E08B8311C06E
:105520008A81823009F47CC2833081F0813009F0B5
:1055300084CF0E946D060E944F306B837C838D83E5
:105540009E83CE0101960E940F05B7CC80917A030D
:1055500090917B03892BA9F3DE0113968AE793E0F0
:10556000ECE6F3E021912D938E179F07D9F7E9CF51
:105570008A81823009F061CF6B817C818D819E812F
:105580000E944F3085E290E00E94F230DACF2D8108
:105590003E813227232732274C816B818A810E94EA
:1055A0003812CFCF0E946D12CCCF8A818138B9F0EA
:1055B00058F4803831F620E04B8160916903809186
:1055C00068030E94D219BDCF8238E9F0833809F010
:1055D000B8CF20E040916A036C818B81F2CF60E00C
:1055E0008B810E94511D8B81811103C00E94AB0FE2
:1055F000A8CF8091670381608093670360E0869500
:105600000E94511D9ECF8B8180936B039ACF8A811C
:10561000813899F030F4803809F093CF80916A0393
:105620007DCF823891F0833809F08BCF8091680369
:105630008B83809169038C8384CF8091670380FF83
:1056400002C086956BCF80E069CF80916B0366CFF7
:1056500080E18A8376CF81E08A838AE35FCF8C8181
:10566000C82ED12CFDE1CF16D10408F06ACF0A81F3
:105670001B811027012710279E012F5F3F4F7901C3
:10568000C20ED31EC8018A539D4FEC14FD0409F4C9
:1056900058CF0A33E1E01E0750F40E94DE30F701D4
:1056A00084830F5F1F4FFFEFEF1AFF0AEBCFF70165
:1056B0001482F7CF0E94281244CF84E0CACF8C8195
:1056C000C82ED12C2DE1C216D10408F03ACF0A81A0
:1056D0001B81102701271027CE0101967C01C80EDF
:1056E000D91EC8018696CE14DF0409F42ACF003AE9
:1056F000F2E01F0750F40E94DE30F70184830F5F51
:105700001F4FFFEFEF1AFF0AECCFF7011482F7CF1C
:10571000EC80F12C2DE1E216F10408F012CF0A81A1
:105720001B81102701271027003A32E0130708F0E9
:1057300008CF80EA92E0801B910B8E159F0508F43C
:1057400000CF480146E2840E911C80917A0390912B
:105750007B03892BD1F5680181E0C822DD2400FF9D
:105760000DC0C80185960E94DE309D81892798274B
:10577000892781159C4511F48FEF8D83C8018E0D0B
:105780009F1D570180FF17C0F1E0AF1AB10835E047
:10579000632E712C6C0E7D1E6A0C7B1CC4018E0D59
:1057A0009F1D0E94DE30F301908181159C4519F404
:1057B0008FEFF3018083E1E0F0E0EC0FFD1FEC0DD3
:1057C000FD1D2FEFCA14DB0438F09E012F5F3F4F01
:1057D0006901E20EF31E19C09481858181159C45F3
:1057E00011F42483258342E0C40ED11C3296EACF03
:1057F000003AE2E01E0720F4F60164810E94F230D4
:10580000FFEFCF1ADF0A0F5F1F4FC8018696EC1417
:10581000FD0471F796CE80917A0390917B03892BDA
:1058200009F48FCECE0101960E940F059FEFE1EEA5
:10583000F4E09150E040F040E1F700C00000A5CA5C
:1058400088E0E8E3F1E0DE01919601900D928A95FF
:10585000E1F783E089831A821B821C8288E0FE01C3
:10586000B196DE01159601900D928A95E1F769CE09
:1058700080E7898381E08A831B821C8262CE8C81CF
:10588000682F70E0762F66278B81860F972F911DEA
:10589000092E000CAA0BBB0B25E0880F991FAA1F2D
:1058A000BB1F2A95D1F7AC01BD01405E5F4F6F4F22
:1058B0007F4F481759076A077B0708F442CE8037A5
:1058C00021E09207A105B10508F03BCE413731E058
:1058D00053076105710520F040E751E060E070E09A
:1058E000481B590BBC016F5A794FCE0101960E949B
:1058F000C13027CE4AE150E06FEF70E0CE0107964D
:105900000E94D73080917A0389830A831B821C828C
:1059100085E08D831E8215CE81E090E090937D031B
:1059200080937C0382E390E0909366038093650309
:105930000E947906909364038093630302CE012B47
:1059400059F110916C030091710380916303909160
:1059500064030E945E068536910538F1102310FF1E
:1059600024C00E947906909364038093630380911E
:105970006503909166030197909366038093650396
:10598000892B51F410927D0310927C0381E090E00A
:1059900090937B0380937A0380917A03898380912B
:1059A0007C038A8380916503B9CD82E390E0909374
:1059B000660380936503F0CF10927B0310927A0305
:1059C000C0CD09BD19BD09B400FEFDCF8091D8003E
:1059D0008F7D8093D8008091E00082608093E0000A
:1059E0008091E00081FDFCCF0E94B71214CC60E0F2
:1059F00085E290E00E94F2300E946D120E9428120F
:105A000064ED82E290E00E94F23061EC83E290E08B
:105A10000E94F23061EC84E290E00E94F230DFC933
:105A200085E290E00E94DE301B821C821D828E8304
:105A300088CD232B09F02ACB60CBCF92DF92EF9257
:105A4000FF926B017C010E94C20F81110EC00E9467
:105A50006D06C61AD70AE80AF90AC0922003D09246
:105A60002103E0922203F0922303FF90EF90DF9056
:105A7000CF90089578941F921FB61F9211248F9390
:105A80009F93AF93BF9380911C0390911D03A091AE
:105A90001E03B0911F030196A11DB11D80931C032D
:105AA00090931D03A0931E03B0931F03BF91AF916A
:105AB0009F918F911F901FBE1F9018951F921FB628
:105AC0001F9211248F939F93AF93BF9380913903BB
:105AD000811113C080911C0390911D03A0911E039E
