:100000000C943C060C94B5170C9483060C94830650
:100010000C9483060C9483060C9483060C9483063C
:100020000C9483060C9483060C94E02B0C94B22C55
:100030000C94FD250C9483060C9483060C94830683
:100040000C9483060C9483060C9483060C9483060C
:100050000C9483060C9456260C9483060C94830609
:100060000C9483060C9483060C9483060C948306EC
:100070000C9483060C9483060C9483060C948306DC
:100080000C9483060C9483060C9483060C948306CC
:100090000C9483060C9483060C9483060C948306BC
:1000A0000C9483060C9483060C9483069E1B9E1B63
:1000B000D01BD01B1D1C3B1C5C1D5C1D461CDB1C8F
:1000C000EC1CEC1C4C1D5C1D5C1D551DFC1DFC1D21
:1000D0000E1E0E1E051E0E1E0E1E0E1EFC1DFC1DEF
:1000E0000A1E0E1E0E1E0A1E1F2D462D3E2E462DCA
:1000F0003E2E922DB52D3E2E0C2E1B2E2530325825
:1001000000010001000100010001000100010001E7
:1001100000010001000100010001000100010000D8
:100120000001000100010001000000015101000177
:1001300000010001000100010001000100010001B7
:1001400000010001000100010001000100010001A7
:100150000000000100010001000100000001510148
:100160000001000100005C015C01000100010001D0
:100170000001000100010001000100010001000177
:100180000001000000010001000100010000000169
:1001900000010001000100010001000100015C00FC
:1001A0005C010001000100010001000100010001EB
:1001B0000001000100000001000100010001000039
:1001C00000010001000100010044454255473A206A
:1001D00064697361626C65642E0A00444542554748
:1001E0003A20656E61626C65642E0A000A00253053
:1001F0003862003A200025303258000A722F6320FE
:1002000030313233343536370A006D6B5F776865CD
:10021000656C5F74696D655F746F5F6D6178203DBB
:100220002025640A006D6B5F776865656C5F6D61A2
:10023000785F7370656564203D2025640A006D6BEE
:100240005F74696D655F746F5F6D6178203D202517
:10025000640A006D6B5F6D61785F73706565642023
:100260003D2025640A006D6B5F696E74657276616E
:100270006C203D2025640A006D6B5F64656C6179BC
:10028000203D2025640A006D6B5F776865656C5FB3
:1002900074696D655F746F5F6D6178203D202564C2
:1002A0000A006D6B5F776865656C5F6D61785F7381
:1002B00070656564203D2025640A006D6B5F74697C
:1002C0006D655F746F5F6D6178203D2025640A0065
:1002D0006D6B5F6D61785F7370656564203D20258F
:1002E000640A006D6B5F696E74657276616C203DA7
:1002F0002025640A006D6B5F64656C6179203D2088
:1003000025640A000A00257500363A20776865657D
:100310006C5F74696D655F746F5F6D61783A200022
:100320000A00257500353A20776865656C5F6D6158
:10033000785F73706565643A20000A0025750034A3
:100340003A2074696D655F746F5F6D61783A200063
:100350000A00257500333A206D61785F737065651A
:10036000643A20000A00257500323A20696E7465EF
:100370007276616C286D73293A20000A0025750099
:10038000313A2064656C6179282A31306D73293ADD
:1003900020000A092D2056616C756573202D0A0016
:1003A0004D3E004D25643E20003F0073657420647F
:1003B000656661756C740A00433E2000776865725B
:1003C000652064656C74613A20637572736F723D69
:1003D00025642C20776865656C3D25640A53656546
:1003E00020687474703A2F2F656E2E77696B697070
:1003F000656469612E6F72672F77696B692F4D6F26
:100400007573655F6B6579730A000A092D204D6F5E
:100410007573656B6579202D0A4553432F713A0931
:10042000717569740A313A0964656C6179282A31F9
:10043000306D73290A323A09696E74657276616C9F
:10044000286D73290A333A096D61785F73706565A9
:10045000640A343A0974696D655F746F5F6D617821
:100460000A353A09776865656C5F6D61785F73700E
:100470006565640A363A09776865656C5F74696D0D
:10048000655F746F5F6D61780A0A703A097072690E
:100490006E742076616C7565730A643A09736574CD
:1004A0002064656661756C74730A75703A092B3146
:1004B0000A646F776E3A092D310A706775703A09D0
:1004C0002B31300A7067646F776E3A092D31300A2C
:1004D0000A7370656564203D2064656C7461202A30
:1004E000206D61785F7370656564202A20287265CD
:1004F00070656174202F2074696D655F746F5F6D26
:100500006178290A003F004D3E2000433E20004C08
:1005100025640A0074696D65725F726561643332C7
:1005200028293A202530346C580A006B6579626FAF
:100530006172645F69646C653A2025580A006B65D6
:1005400079626F6172645F70726F746F636F6C3A1F
:100550002025580A00686F73745F6B6579626F615C
:1005600072645F6C65647328293A2025580A000A72
:10057000092D20537461747573202D0A004743437D
:100580003A20352E342E30204156522D4C494243CC
:100590003A20322E302E30204156525F415243488D
:1005A0003A20617672350A004F5054494F4E533A03
:1005B000204C554641204D4F5553454B45592045FC
:1005C000585452414B455920434F4E534F4C4520B0
:1005D000434F4D4D414E4420343039360A00425588
:1005E000494C443A2020284D617220313420323069
:1005F0003231290A005649443A20307834343444A0
:10060000287473686F727429205049443A203078F6
:10061000333433352868616E6477697265642F649A
:10062000616374796C5F6D616E75666F726D2F3486
:10063000783529205645523A203078303030310A0A
:10064000000A092D2056657273696F6E202D0A000D
:100650000A092D20436F6E736F6C65202D0A455378
:10066000432F713A09717569740A6D3A096D6F7596
:1006700073656B65790A000A092D204D616769630E
:10068000202D0A443A094465627567204D657373ED
:1006900061676520546F67676C650A583A094D6158
:1006A00074726978204465627567204D6F646520B7
:1006B000546F67676C65202D2053686F77206B65DA
:1006C000797072657373657320696E206D617472E1
:1006D000697820677269640A4B3A094B6579626FE1
:1006E00061726420446562756720546F67676C654A
:1006F000202D2053686F77206B6579707265737356
:10070000207265706F72740A4D3A094465627567AC
:10071000204D6F75736520546F67676C650A563A94
:100720000956657273696F6E0A533A09537461749E
:1007300075730A433A0941637469766174652043AD
:100740006F6E736F6C65204D6F64650A46312D4680
:1007500031303A0953776974636820746F204C61B3
:1007600079657220302D392028463130203D204CCB
:1007700030290A302D393A09537769746368207437
:100780006F204C6179657220302D390A47524156ED
:10079000453A0953776974636820746F204C617916
:1007A000657220302028616C7465726E61746529F1
:1007B0000A423A094A756D7020746F20426F6F7457
:1007C0006C6F616465720A4553433A094A756D70EE
:1007D00020746F20426F6F746C6F616465722028A3
:1007E000616C7465726E617465290A453A095072CC
:1007F000696E7420454550524F4D2053657474699D
:100800006E67730A4253504143453A09436C656130
:100810007220454550524F4D0A000A002575002EA2
:100820006E6B726F3A20000A002575002E73776197
:10083000705F6261636B736C6173685F6261636B4D
:1008400073706163653A20000A002575002E737786
:1008500061705F67726176655F6573633A20000A55
:10086000002575002E6E6F5F6775693A20000A00DB
:100870002575002E737761705F72616C745F7267AB
:1008800075693A20000A002575002E737761705F44
:100890006C616C745F6C6775693A20000A0025759D
:1008A000002E737761705F7263746C5F7267756935
:1008B0003A20000A002575002E737761705F6C6323
:1008C000746C5F6C6775693A20000A002575002E0C
:1008D000636170736C6F636B5F746F5F636F6E7473
:1008E000726F6C3A20000A002575002E73776170D4
:1008F0005F636F6E74726F6C5F636170736C6F6354
:100900006B3A20000A0025303258006B65796D6122
:10091000705F636F6E6669672E7261773A20000AB6
:10092000002575002E6D6F7573653A20000A00254D
:1009300075002E6B6579626F6172643A20000A005F
:100940002575002E6D61747269783A20000A0025C1
:1009500075002E656E61626C653A20000A002530D4
:1009600032580064656275675F636F6E6669672EF3
:100970007261773A20000A0025750064656661752A
:100980006C745F6C617965723A20003F000A6D6F8C
:100990007573653A206F66660A000A6D6F75736538
:1009A0003A206F6E0A000A6B6579626F6172643A71
:1009B000206F66660A000A6B6579626F6172643A3D
:1009C000206F6E0A000A6D61747269783A206F6652
:1009D000660A000A6D61747269783A206F6E0A00C7
:1009E0000A64656275673A206F66660A000A646584
:1009F0006275673A206F6E0A000A0A4A756D70695F
:100A00006E6720746F20626F6F746C6F61646572C3
:100A10002E2E2E2000433E2000436C656172696ECD
:100A20006720454550524F4D0A006565636F6E66FD
:100A300069673A0A00290A002575002F002575000C
:100A40005D28002564002000256400200025640046
:100A500020002564007C0025303258006D6F7573CE
:100A6000656B6579205B62746E7C782079207620D6
:100A7000685D287265702F61636C293A205B000AFB
:100A8000002530325820006B6579626F6172645FB7
:100A90007265706F72743A20000A00253032580077
:100AA0006B6579626F6172645F7365745F6C6564B6
:100AB0003A20005B735D004B6579626F6172642060
:100AC00073746172742E0A005B575D005B535D00A6
:100AD0005B525D005B445D005B435D003C0368006E
:100AE00061006E00640077006900720065006400B8
:100AF0002F00640061006300740079006C005F00E7
:100B00006D0061006E00750066006F0072006D0080
:100B10002F0034007800350000000E0374007300CD
:100B200068006F00720074000000040309040902E9
:100B30005B00030100A0FA090400000103010100A9
:100B40000921110100012240000705810308000A64
:100B50000904010001030000000921110100012224
:100B60007B000705820320000A090402000203003B
:100B70000000092111010001222200070583032042
:100B8000000107050303200001120110010000000D
:100B9000084D4435340100010200010631FF09749B
:100BA000A1010975150026FF00952075088102092D
:100BB00076150026FF00952075089102C0050109F1
:100BC00002A10185020901A10005091901290815E1
:100BD00000250195087501810205010930093115CB
:100BE00081257F95027508810609381581257F9535
:100BF0000175088106050C0A38021581257F9501CB
:100C000075088106C0C005010980A101850319018D
:100C10002AB700150126B700950175108100C0059F
:100C20000C0901A101850419012AA002150126A0C1
:100C300002950175108100C005010906A101050793
:100C400019E029E715002501950875018102950134
:100C5000750881010507190029FF150026FF009579
:100C6000067508810005081901290595057501918A
:100C700002950175039101C011241FBECFEFDAE088
:100C8000DEBFCDBF04B603FE27C0809194029091D1
:100C90009502A0919602B09197028730904BA740A1
:100CA000B04BD1F4109294021092950210929602D9
:100CB0001092970214BE84B7877F84BF0FB6F89452
:100CC000A895809160008861809360001092600018
:100CD0000FBEE0E0F8E3099511E0A0E0B1E0EEED31
:100CE000FDE502C005900D92A63AB107D9F722E0C2
:100CF000A6EAB1E001C01D92A439B207E1F70E9453
:100D000013290C94ED2E0C940000FF93EF93E091C7
:100D1000A601F091A701309709F00995EF91FF9195
:100D20000895FC018591803011F0EFDFFBCF08952D
:100D3000FF27E0E230E247FF0CC0419597FF09C072
:100D4000EDE26095709580959095611D711D811DF6
:100D5000911D27FF02C0219530E350E2AA27660FBC
:100D6000771F881F991FAA1FA41710F0A41B639553
:100D70005A95A9F7AA3008F0A95FA05DAF93F39543
:100D8000611571058105910541F7ED3211F4EF937D
:100D9000F395F21718F43F93F395FBCF8F91B5DFDE
:100DA000FA95E1F70895E991F9918591803021F064
:100DB000853219F0AADFF9CF089520E0E894559123
:100DC0005532C1F3503311F4689455915A3348F4B5
:100DD000505390F3220F022E220F220F200D250FC9
:100DE000F4CF0EF4219589919991533619F3533725
:100DF00029F1533559F1BC0188279927E8945C36CD
:100E000021F48991999168945591543639F446EFBB
:100E10007EF077FF0DC08FEF9FEF0AC055374AE095
:100E200039F0583540E121F0523642E009F008959A
:100E3000FF93EF937DDFEF91FF91B7CFFF93EF9398
:100E4000FC0181918030B9F360DFFBCFFF93EF931A
:100E500068DFF1CFDF93CF93CDB7DEB72596A3DF61
:100E6000CF91DF9108950C94A10AFB01828140E8A3
:100E7000849F90011124918148E0949FC001112426
:100E8000822B932B2081822B9F938F938CEF90E06A
:100E90009F938F930E942A070F900F900F900F90AF
:100EA00081E00895809158028160809358020895EE
:100EB00081E008950C94350708950C945C071F9306
:100EC000CF93DF9300D000D01F92CDB7DEB7498318
:100ED0005A836B833091E70189819A81311114C063
:100EE000662359F0222349F00E947123182F682F9E
:100EF00089819A810E94182303C00E944423182FDD
:100F000069817A81812F04C00E94712369817A816D
:100F10000F900F900F900F900F90DF91CF911F9136
:100F20000C943E08FC01262F40815181628173811F
:100F300084810C945F07CF93DF93EC0160E00E9403
:100F40009207BE01DF91CF910C945D070E94A3240C
:100F5000811102C00E944A250C9433070C949F0A09
:100F600008950E94EA1D0E94B0072FEF84E39CE0E1
:100F7000215080409040E1F700C000000C94BD2655
:100F80000F931F93CF93DF93EC0161E00E949207D0
:100F90008C01BE010E945A07882309F442C0BE0199
:100FA000C8010E940A158823E1F1BE01C8010E9410
:100FB0005C158823B1F1BE01C8010E948716882301
:100FC00081F18A81882331F101308CE5180751F0D5
:100FD0000F3D8CE51807D9F001151C45D9F40E9486
:100FE000B1071FC080915802C82FC095C170C0FBC7
:100FF00080F980935802CC2329F08BED91E00E9478
:1010000091060FC089EC91E00E9491060BC00E94EE
:101010004A2507C0CE01DF91CF911F910F910C940B
:101020005807C0E08C2FDF91CF911F910F91089549
:101030008295982F937344E0949F900111248C7CA7
:1010400086958695282B822F8575880F2A7A269576
:10105000822B089508950C942A0881E008950C9439
:101060002D08CF93C82F0E942B088C2F0E942F0889
:10107000CF91089580E090E00895089522E3829F43
:10108000C0011124FC0125E0729FE00DF11D112427
:10109000E60FF11DEE0FFF1FEF5FFE4F859194915C
:1010A0000895880F991FFC01E451FE4F859194919A
:1010B0000895CF93DF930E943E080E947109EC01CE
:1010C0008115904508F041C0C11580E4D80708F0AB
:1010D000D1C0C83ED10510F5C03ED10508F0FDC015
:1010E000C83AD10578F4C53AD10508F0A2C0C1309C
:1010F000D10509F4F2C008F4EEC0C430D10508F0FF
:10110000ECC0E9C0CF3BD10508F49BC0C03CD10581
:1011100008F4E1C0CE01805C91099EC0C11590E247
:10112000D90758F4C11521E0D20708F0D6C0CD3E4A
:10113000D10508F4D0C0D065D0C0C11580E3D80770
:1011400008F08EC0CE019F7087C0C11595E5D90704
:1011500008F043C0C11524E5D20708F0A2C0C115AC
:1011600082E5D80708F5C11591E5D90708F085C0D3
:10117000CE0174E0969587957A95E1F783709C2F60
:10118000937021E030E002C0220F331F9A95E2F7FE
:101190003C68382BCF70C695C69580E2C89FE001A9
:1011A0001124C22BD32B99C09E01237033278C2F7F
:1011B00086958695C115D34508F064C0C1E0D0E09E
:1011C00002C0CC0FDD1F2A95E2F720E2829FC0010A
:1011D0001124C82BD92BDC6880C0C11529E5D207A2
:1011E000A0F4C11588E5D80708F060C0C11596E5E0
:1011F000D90708F070C08C2F0E94050A8F71C82F84
:10120000D0E0DC2FCC27D06268C0C1152AE5D20718
:1012100008F451C0CE0190568115904208F05BC091
:101220008D2F8F710E94050ADD27D0628F71D82B18
:1012300054C0C55AD0E0C65BDE4FC881D0E0D06450
:101240004CC0C85AD0E0CC0FDD1FC45EDE4F099001
:10125000D881C02DD46441C00E945108EC013DC02A
:10126000CE019927D3FF03C0EC01D86C36C0EC0146
:10127000D06C33C0DF70D06A30C0DC2FCC27C16F98
:10128000D06A2BC0C1E0D0E002C0CC0FDD1F2A9590
:10129000E2F720E2829FC0011124C82BD92BDA6823
:1012A0001CC0DC2FCC27C46FD06A17C0DC2FCC2722
:1012B000C06FD06A12C08C2F8F700E94050A94E014
:1012C000D695C7959A95E1F7CF70D0E0DC2FCC2763
:1012D000D069C82B02C0C0E0D0E0CE01DF91CF9131
:1012E00008958238910569F1B0F48133910509F4CC
:1012F0006DC048F48932910509F463C08A329105C2
:1013000009F469C008958533910509F455C08933FE
:101310009105B9F00895833E910569F138F4803E56
:101320009105B1F0823E910509F10895863E91053F
:10133000A9F1873E9105B9F1843E910509F064C099
:1013400023C02091850220FD4FC021FD4DC008958E
:101350008091850280FD44C08091860280FF44C058
:101360008091850284FD42C083EE4DC0809185024C
:1013700082FF38C0F5CF8091850282FD33C0809115
:10138000860280FD31C0ECCF8091860281FF32C0A1
:101390008091850284FD2AC087EE35C08091850248
:1013A00083FF26C0F5CF8091850283FD21C0809107
:1013B000860281FD1FC0ECCF8091850285FD1CC097
:1013C0001DC08091850285FD19C016C080918502DF
:1013D00086FD16C017C08091850286FD13C010C01F
:1013E00089E311C082EE0FC080EE0DC080E00BC01B
:1013F00086EE09C084EE07C089E205C085E303C01C
:101400008AE201C081E390E008959091850292FF05
:101410000DC0282F2871283019F4877F846006C0FA
:10142000282F2471243011F48B7F886093FF0DC026
:10143000282F2871283119F4877E846106C0282F4F
:101440002471243111F48B7E88612091860220FF63
:101450000DC0382F3871383019F4877F816006C08D
:10146000382F3171313011F48E7F886021FF0DC02B
:10147000282F2871283119F4877E816106C0282F12
:101480002171213111F48E7E886194FD877E08954B
:10149000E82FF0E0EF58FD4F80810895CF92DF9262
:1014A000EF92FF920F931F93CF93DF938BEF91E017
:1014B0000E94910681E7E82E82E0F82EC0E0D0E09D
:1014C00096EFC92E91E0D92E0EEE11E0DF93CF9367
:1014D000DF92CF920E942A0783EF91E00E9491064B
:1014E000F70181917F010E9418081F928F931F932B
:1014F0000F930E942A078CEE91E00E94910621969C
:101500008DB79EB708960FB6F8949EBF0FBE8DBFDD
:10151000CA30D105D9F6DF91CF911F910F91FF907D
:10152000EF90DF90CF90089580EA8A95F1F70895C3
:1015300000C008950C94940A08950C949C0A0C948D
:101540009D0A0C949C0AF894E82FE295EF70F0E065
:1015500031A1282F2F7081E090E001C0880F2A95DB
:10156000EAF7982F9095932391A392A1892B82A3B8
:101570007894089508950E94460C8091000180910E
:101580000001811102C095E001C090E090937C02BF
:1015900085E0891B80937B0287EF0E94A30A81E389
:1015A0000E94A30A83E30E94A30A82E30E94A30A83
:1015B00086E30E94A30A86E60E94A30A87E90E94A6
:1015C000A30A86EC0E94A30A84E30E94A30A85E38F
:1015D0000E94A30AE7E6F2E0A1E7B2E011921D92B1
:1015E00082E0E137F807D1F785E00E94F00B0E9416
:1015F000A6070C94500C0F931F93CF93DF9300D04A
:1016000000D01F92CDB7DEB70E94290C60917C02FA
:10161000882309F442C08E010F5F1F4F85E0F80157
:1016200011928A95E9F7862F90E0B8018F589D4F67
:101630000E94C416811116C08091A8018F5F80930B
:10164000A801863030F1E0917B02F0E0EF58FD4FC9
:10165000D801CE01069611921D92A817B907D9F7A5
:1016600011E018C01092A801A0917B02B0E0AF5821
:10167000BD4FF8019E012A5F3F4F10E081919C9180
:10168000981711F08C9311E01196E217F307B1F758
:1016900001C010E00E94AE070DC070E06F587D4F92
:1016A00080917B0290E08F589D4F0E94EE160E9421
:1016B000BA0A10E0812F0F900F900F900F900F90AB
:1016C000DF91CF911F910F9108958F929F92AF92CA
:1016D000BF92CF92DF92EF92FF920F931F93CF931F
:1016E000DF9382E5A82E81E0B82EC7E6D2E097E529
:1016F000E92E91E0F92E912C01E010E06501F50151
:101700008081F894E82FE295EF70F0E021A18F70CE
:10171000A80102C0440F551F8A95E2F7CA01922F13
:10172000982B91A392A18095892382A378940E94FB
:10173000980AEDE4F1E020E030E0812C4191A42F03
:10174000A295AF70B0E090968C9190E04F7002C07F
:10175000959587954A95E2F780FD07C0802F022E68
:1017600001C0880F0A94EAF701C080E0882A2F5F41
:101770003F4F2530310511F75FEFA51AB50AF60185
:1017800080810E94A30A0E949A0A8881881619F013
:10179000888281E001C080E0982A2196EA14FB0447
:1017A00009F0ACCF60917C0270E06F587D4F292D1D
:1017B00045E087E692E00E94F10B0E94FB0A992027
:1017C00011F081E090E0DF91CF911F910F91FF9098
:1017D000EF90DF90CF90BF90AF909F908F90089543
:1017E0000895FF920F931F93CF93DF938C01F62EF2
:1017F000D72FC42F222349F081E08093AB010E94B0
:101800002F269093AA018093A9018091AB01882390
:10181000C1F08091A9019091AA010E9447260697E4
:1018200080F0EF2DFD2FD8014C2F50E0CD01801B13
:10183000910B841795071CF48D918193F7CF10922B
:10184000AB01DF91CF911F910F91FF9008950C9400
:101850004C258091AC01811112C08091D80080612B
:101860008093D8008AE18A95F1F700C08091D90071
:1018700080FD02C082E001C081E08093AC0181E084
:101880009091AC01913009F080E008950E94270CFE
:10189000809300010E94290C81110C94B8160895C0
:1018A0000E94290C811102C00C94BE1608958AE092
:1018B00094E00E9491061F9281E08F931F9285E031
:1018C0008F938CEB93E09F938F930E942A070F9046
:1018D0000F900F900F900F900F9008958330E9F1C3
:1018E00028F4813061F0823009F10895853009F4DF
:1018F00062C008F449C0863009F474C0089580912C
:10190000B001262F30E0280F311D2F3F310524F480
:10191000680F6093B00103C08FEF8093B001809196
:10192000B0011F928F9385EF92E072C08091060103
:10193000262F30E0280F311D2F3F310524F4680F8A
:101940006093060103C08FEF80930601809106012A
:101950001F928F9383EE92E05BC080910501262F4A
:1019600030E0280F311D2F3F310524F4680F6093BC
:10197000050103C08FEF80930501809105011F923F
:101980008F9380ED92E044C080910401262F30E0D7
:10199000280F311D2F3F310524F4680F6093040197
:1019A00003C08FEF80930401809104011F928F93F5
:1019B0008BEB92E02DC080910201262F30E0280FA2
:1019C000311D2F3F310524F4680F6093020103C0DD
:1019D0008FEF80930201809102011F928F9382EA20
:1019E00092E016C080910101262F30E0280F311DB2
:1019F0002F3F310524F4680F6093010103C08FEF7E
:101A000080930101809101011F928F9387E892E0FA
:101A10009F938F930E942A070F900F900F900F9023
:101A20000895833081F128F4813059F08230D1F06B
:101A30000895853009F449C0B8F1863009F456C0DC
:101A400008958091B001681720F4861B8093B0013F
:101A500002C01092B0018091B0011F928F9388E76D
:101A600092E054C080910601681720F4861B809391
:101A7000060102C010920601809106011F928F9309
:101A800086E692E043C080910501681720F4861B2A
:101A90008093050102C010920501809105011F92FB
:101AA0008F9383E592E032C080910401681720F49F
:101AB000861B8093040102C01092040180910401EE
:101AC0001F928F938EE392E021C0809102016817EC
:101AD00020F4861B8093020102C0109202018091C3
:101AE00002011F928F9385E292E010C08091010164
:101AF000681720F4861B8093010102C01092010137
:101B0000809101011F928F938AE092E09F938F93BF
:101B10000E942A070F900F900F900F900895CF9377
:101B2000C82F1F928F938FE095E09F938F930E9411
:101B30002A0781E090E0A0E0B0E0BC01CD0104C044
:101B4000660F771F881F991FCA95D2F70E941A2225
:101B50000F900F900F900F90CF910C94EA1DCF93A0
:101B6000DF938B3109F4EAC108F08BC18B3009F4A3
:101B7000AEC108F065C1863009F4ACC120F48530EF
:101B800009F4BAC15DC2873009F4BDC1883009F0DB
:101B900057C28AE29AE00E9491068BE799E00E9480
:101BA00091060E94B2241F928F9388E799E09F9339
:101BB0008F930E942A0786E799E00E9491060E946F
:101BC000AE24C82F83E699E00E9491061F92CF931E
:101BD0008EE599E09F938F930E942A078CE599E008
:101BE0000E94910682E599E00E9491068C2F8170F7
:101BF0001F928F938FE499E09F938F930E942A07FF
:101C00008DE499E00E94910683E499E00E94910698
:101C1000C1FB882780F91F928F9380E499E09F93FE
:101C20008F930E942A078EE399E00E94910682E337
:101C300099E00E949106C2FB882780F91F928F933A
:101C40008FE299E09F938F930E942A078DE299E09B
:101C50000E94910684E299E00E949106C3FBCC2782
:101C6000C0F91F92CF9381E299E09F938F930E94D6
:101C70002A078FE199E00E9491060E94B624EC01A8
:101C80008BE099E00E949106DF93CF9386E099E084
:101C90009F938F930E942A0784E099E00E94910607
:101CA0008BEE98E00E9491068C2F81701F928F938B
:101CB00088EE98E09F938F930E942A078DB79EB776
:101CC00080960FB6F8949EBF0FBE8DBF86EE98E04B
:101CD0000E9491068FEC98E00E949106C1FB882734
:101CE00080F91F928F938CEC98E09F938F930E94C2
:101CF0002A078AEC98E00E94910688EB98E00E94FF
:101D000091068D2F81701F928F9385EB98E09F93A2
:101D10008F930E942A0783EB98E00E94910681EA44
:101D200098E00E949106D695D1701F92DF938EE9BC
:101D300098E09F938F930E942A078CE998E00E9475
:101D400091068AE898E00E949106C2FB882780F9F4
:101D50001F928F9387E898E09F938F930E942A07A2
:101D600085E898E00E94910683E798E00E9491063A
:101D7000C3FB882780F91F928F9380E798E09F9399
:101D80008F930E942A078EE698E00E94910684E6CF
:101D900098E00E949106C4FB882780F91F928F93D8
:101DA00081E698E09F938F930E942A078FE598E041
:101DB0000E9491068DE498E00E949106C5FB882759
:101DC00080F91F928F938AE498E09F938F930E94EB
:101DD0002A0788E498E00E9491068CE298E00E942D
:101DE0009106C6FB882780F91F928F9389E298E0BD
:101DF0009F938F930E942A078DB79EB780960FB648
:101E0000F8949EBF0FBE8DBF87E298E00E949106B6
:101E10008FE198E00E949106C7FBCC27C0F91F9282
:101E2000CF938CE198E09F938F930E942A078AE1D9
:101E300098E00E9491060F900F900F900F9045C070
:101E4000803109F4A5C020F48E3009F48BC0F8C0AD
:101E5000863109F4B8C0893109F0F2C081E496E016
:101E60000E94910685EF95E00E9491068EED95E027
:101E70000E94910688EA95E00E9491068DE795E020
:101E800084C08A32E1F060F4873209F4D5C028F4C6
:101E90008E3108F4D5C08D51D0C0893269F1D0C0DF
:101EA000833448F48A3308F0C5C0853309F4C4C0CC
:101EB000883369F0C5C0833409F4BEC0C1C089E16C
:101EC0009AE00E9491060E944A25C1E0BEC087E7C1
:101ED00096E05BC080915802817F8E7F809358028C
:101EE00080E596E00E94910685E19AE00E949106C5
:101EF00081E08093AE01E9CF89EF99E00E949106DD
:101F00000E94B107E2CF80915802C82FC095C170DE
:101F1000C0FB80F980935802CC2329F08DEE99E024
:101F20000E94910692C080EE99E00E9491068091F5
:101F30005802897F877F80935802C7CF90915802BB
:101F400091FBCC27C0F981E0C827892FC0FB81F91C
:101F500080935802CC2319F083ED99E029C085ECD9
:101F600099E013C09091580292FBCC27C0F981E010
:101F7000C827892FC0FB82F980935802CC2319F01F
:101F800086EB99E015C086EA99E00E9491069DCF04
:101F90009091580293FBCC27C0F981E0C827892F84
:101FA000C0FB83F980935802CC2351F08AE999E071
:101FB0000E9491068091580281608093580245C02A
:101FC0008DE899E0E2CF8FE695E00E9491060E94AD
:101FD00058181F928F9385E595E09F938F930E94E9
:101FE0002A0780911B011F928F938EE395E09F93A8
:101FF0008F930E942A07809166021F928F938BE233
:1020000095E09F938F930E942A070E943B269F93FF
:102010008F937F936F9384E195E09F938F930E94BA
:102020002A078DB79EB742960FB6F8949EBF0FBE93
:102030008DBF4BCF895301C080E00E948F0D45CFEB
:102040008BE899E00E949106C0E08C2FDF91CF9140
:10205000089580E008950C9429108E518A3030F450
:10206000E82FF0E0E45AFE4F8081089580E0089563
:10207000CF93C82F8091AE01813059F020F082308B
:1020800009F445C037C10E94F223823209F034C1FD
:1020900004C00E94F223823261F48C2F0E942B1024
:1020A000811104C08C2F0E94AF0D2FC081E090E001
:1020B0002CC08C2F0E942910811126C0C431E1F060
:1020C00070F4CB3081F0C031D1F40E94570C87E01E
:1020D00095E00E94910682E08093AE0115C0C9325E
:1020E00059F0C83361F480E596E00E9491068BE0D8
:1020F00095E00E94910608C01092AE01FFC085E0F5
:1021000095E00E949106FAC081E08170F9C0C43266
:1021100018F5CE3108F0BFC0CB3091F1C0F4C73014
:1021200009F0CEC01092B00184E180930601C09303
:1021300005018CE38093040188E08093020188E22A
:10214000809301018BEA93E00E949106BCC0C331E9
:1021500049F1C431C1F0B4C0CB3409F4A6C028F4AD
:10216000C93289F0C83361F0ABC0C13509F49BC0F6
:10217000C23509F496C0CE3409F0A2C06AE09BC013
:102180000E94570CA0C08091AD01882319F01092D5
:10219000AD0199C088EB93E00E94910681E08093A5
:1021A000AE01AEC082E993E00E94910680E893E020
:1021B0000E9491068091B0011F928F938DE793E06A
:1021C0009F938F930E942A078BE793E00E949106CA
:1021D00089E693E00E949106809106011F928F93F9
:1021E00086E693E09F938F930E942A0784E693E00C
:1021F0000E94910685E593E00E9491068091050179
:102200001F928F9382E593E09F938F930E942A07FA
:1022100080E593E00E9491068FE393E00E9491068F
:10222000809104011F928F938CE393E09F938F938F
:102230000E942A078AE393E00E94910685E293E0D8
:102240000E949106809102011F928F9382E293E097
:102250009F938F930E942A0780E293E00E94910649
:1022600089E093E00E949106809101011F928F9373
:1022700086E093E09F938F930E942A0784E093E087
:102280000E9491068DB79EB748960FB6F8949EBFF0
:102290000FBE8DBF18C08C2F0E942D108093AD01F2
:1022A00012C061E003C061E006C06AE08091AD0148
:1022B0000E946E0C08C08091AD010E94110D03C0F8
:1022C00089EA93E013C08091AD01882369F01F92E1
:1022D0008F9383EA93E09F938F930E942A070F9036
:1022E0000F900F900F9004C080EA93E00E94910637
:1022F00081E006C01092AE0180E002C080E005CF10
:10230000CF9108958091B70180FF0BC060910501C6
:1023100085E0689FB001112475956795759567955F
:102320002BC081FF09C06091050185E0689FB00165
:1023300011247595679520C082FF07C06091050143
:1023400085E0689FB001112417C09091B6019923D0
:10235000D1F060910401961788F72091050185E07E
:10236000289F90011124929FA001939F500D11244A
:1023700070E0CA010E947D2E6038710540F461153D
:10238000710519F406C065E070E0862F08958FE7A7
:10239000089581E008958091B70180FF08C06091A1
:1023A000020170E0759567957595679521C081FF6D
:1023B00006C06091020170E07595679519C082FFB3
:1023C00004C06091020170E010C09091B5019923A2
:1023D00099F0609101019617A0F780910201899F01
:1023E000C001112470E00E947D2E6038710540F418
:1023F0006115710519F406C061E070E0862F08953B
:102400008FE7089581E008958D3E21F40E948211A6
:10241000819504C08E3E29F40E9482118093BB01F5
:1024200008958F3E21F40E948211819504C0803F5F
:1024300029F40E9482118093BA010895893F19F40A
:102440000E94CB1105C08A3F31F40E94CB118195C7
:102450008093BC0108958B3F21F40E94CB1181959C
:1024600004C08C3F29F40E94CB118093BD010895D4
:102470009FE0980F983078F421E030E0A90102C085
:10248000440F551F9A95E2F7CA019091B901892B23
:102490008093B90108958D3F21F48091B701816047
:1024A0000BC08E3F21F48091B701826005C08F3F41
:1024B00029F48091B70184608093B70108958D3E1F
:1024C00039F49091BB0197FF35C01092BB0159C000
:1024D0008E3E29F49091BB011916BCF32BC090914C
:1024E000BA018F3E29F497FF25C01092BA0149C066
:1024F000803F19F41916CCF31DC09091BC01893F9F
:1025000029F41916BCF41092BC013BC08A3F19F49F
:1025100097FF10C0F8CF8B3F39F49091BD0197FF22
:1025200009C01092BD012DC08C3F21F49091BD01D6
:102530001916BCF39FE0980F983080F421E030E04A
:10254000A90102C0440F551F9A95E2F7CA01809570
:102550009091B90189238093B90113C08D3F21F473
:102560008091B7018E7F0BC08E3F21F48091B7011F
:102570008D7F05C08F3F29F48091B7018B7F8093B9
:10258000B7018091BA01811106C08091BB01811110
:1025900002C01092B6018091BC01811106C08091E9
:1025A000BD01811102C01092B501089580915802B9
:1025B00083FF7EC08CE59AE00E9491068091B9016C
:1025C0001F928F9387E59AE09F938F930E942A072B
:1025D00085E59AE00E9491068091BA01282F082E85
:1025E000000C330B3F938F9382E59AE09F938F9378
:1025F0000E942A0780E59AE00E9491068091BB0123
:10260000282F082E000C330B3F938F938DE49AE014
:102610009F938F930E942A078BE49AE00E94910671
:102620008091BC01282F082E000C330B3F938F9311
:1026300088E49AE09F938F930E942A0786E49AE0A9
:102640000E9491068091BD01282F082E000C330BAB
:102650003F938F9383E49AE09F938F930E942A077E
:1026600080E49AE00E9491068091B6011F928F93B8
:102670008DE39AE09F938F930E942A078BE39AE061
:102680000E9491068091B7011F928F9388E39AE090
:102690009F938F930E942A0785E39AE00E949106F8
:1026A0008DB79EB74C960FB6F8949EBF0FBE8DBFE8
:1026B0000E942F262091BA01211104C02091BB0154
:1026C000222321F09093B4018093B3012091BC01A7
:1026D000211104C02091BD01222321F09093B20169
:1026E0008093B10188EB91E00C94AD18EF92FF92CA
:1026F0000F931F93CF93DF9300D000D000D0CDB7BE
:10270000DEB786E0E8EBF1E0DE01119601900D9274
:102710008A95E1F7E090BA01F090BB010091BC010D
:102720001091BD011092BA011092BB011092BC0130
:102730001092BD01E11003C0FF2009F45DC080913B
:10274000B3019091B4010E944726AC019091B6016B
:10275000992339F02091060130E02417350758F00D
:102760004BC02091B0018AE0289F900111242417CA
:10277000350718F041C09F3F19F09F5F9093B60155
:10278000EE2061F00E9482111E1414F09FEF01C030
:1027900091E0989F902D11249093BA01FF2061F051
:1027A0000E9482111F1414F09FEF01C091E0989FC6
:1027B000902D11249093BB013091BA013323E1F0A5
:1027C0002091BB012223C1F045EB3403C001112449
:1027D000992319F09093BA0103C081E08093BA0164
:1027E00035EB2303C0011124992319F09093BB0109
:1027F00003C081E08093BB01011103C0112309F4E0
:102800005DC08091B1019091B2010E944726AC0158
:102810009091B501992339F02091030130E02417FC
:10282000350758F04BC02091AF018AE0289F9001F6
:1028300011242417350718F041C09F3F19F09F5FFE
:102840009093B501002361F00E94CB11101614F093
:102850009FEF01C091E0989F902D11249093BC01AF
:10286000112361F00E94CB11111614F09FEF01C0EB
:1028700091E0989F902D11249093BD013091BC015F
:102880003323E1F02091BD012223C1F045EB340355
:10289000C0011124992319F09093BC0103C081E079
:1028A0008093BC0135EB2303C0011124992319F057
:1028B0009093BD0103C081E08093BD018091BA0176
:1028C00081110BC08091BB01811107C08091BC01B7
:1028D000811103C08091BD0181110E94D612EB824B
:1028E000FC820D831E8386E0FE013196A8EBB1E0E9
:1028F00001900D928A95E1F726960FB6F894DEBF07
:102900000FBECDBFDF91CF911F910F91FF90EF9040
:102910000895E8EBF1E086E0DF011D928A95E9F782
:102920001092B6011092B5011092B70108950F935D
:102930001F93CF93DF93C42FD22FFC018281882372
:10294000C9F04093C0010E942F269093BF0180934D
:10295000BE0180E28C0F883008F057C0C77081E05C
:1029600001C0880FCA95EAF7DF91CF911F910F91AF
:102970000C945D1B8091C001481330C08091BE0152
:102980009091BF010E944726883C910538F510E2DE
:102990001D0FCD17B9F080E28C0F883040F4C7705E
:1029A00081E001C0880FCA95EAF70E94641B1830C5
:1029B00028F581E09D2F977001C0880F9A95EAF75E
:1029C0000E945D1B802F0E94541B1830F0F4D770BA
:1029D00081E001C0880FDA95EAF70AC080E28C0F27
:1029E000883098F4C77081E001C0880FCA95EAF773
:1029F000DF91CF911F910F910C94641B802FDF9179
:102A0000CF911F910F910C94541BDF91CF911F9187
:102A10000F9108950F939C01CB01243F4CE534079F
:102A200031F188F4293DFCE53F07D9F02A3D4CE51A
:102A3000340779F1283D3C45A9F506E221EE41EE47
:102A400068ED7CE52BC0263FFCE53F07E1F0A8F0F0
:102A5000273F3C4539F507E225EE46EE67EF7CE57A
:102A60001DC007E225EE45EE69ED7CE517C006E2E4
:102A700021EE40EE64EF7CE511C007E225EE44EE66
:102A800065EF7CE50BC006E221EE42EE66EF7CE5E9
:102A900005C008E221E045EE6AED7CE50E9497144E
:102AA00080E008C0FC018281882319F01092C001E7
:102AB00001C081E00F910895CF93DF93EC01FB01FA
:102AC0008281882309F41FC1C230FCE5DF0708F4C6
:102AD0001BC1C6319CE5D90738F09E012B5F3C45F0
:102AE0002930310508F010C10E94B6249093860267
:102AF00080938502C031ECE5DE0709F4C3C008F01D
:102B000041C0C8308CE5D80709F49AC0F0F4C4304D
:102B1000ECE5DE0709F487C068F4C2308CE5D8071D
:102B200009F477C0C330DC4509F0E3C08091850229
:102B3000826076C0C630ECE5DE0709F46EC008F0AE
:102B40007BC08091850288606BC0CC308CE5D80753
:102B500009F485C068F4CA30ECE5DE0709F474C0F6
:102B600008F079C00E94EA1D80918502806858C0F3
:102B7000CE308CE5D80709F476C008F07FC080918C
:102B800085028BC0CC3FECE5DE0709F44FC018F599
:102B9000C3318CE5D80709F47DC078F4C131ECE588
:102BA000DE0709F473C0C231DC4509F0A2C00E94FF
:102BB000EA1D809185028F7733C0C5318CE5D80737
:102BC00009F472C008F486C0CB3FDC4509F091C01F
:102BD000809186023EC0C115FDE5DF0709F45FC0A4
:102BE00058F4CE3F9CE5D90709F444C008F43FC02F
:102BF0008091860282602DC0C230FDE5DF0709F4B6
:102C000075C008F45DC0C330DD4509F072C080E0D6
:102C10006EC080918502816003C0809185028061D1
:102C20008093850266C08091850211C080918602E2
:102C30008260809386025DC0809185028062F0CFC1
:102C4000809185028064ECCF8091850288608460E9
:102C5000E7CF8160EECF809185028E7FE1CF8091BA
:102C600085028D7FDDCF80918502877FD9CF8091CE
:102C7000860218C0809186028D7FDBCF809185020D
:102C80008F7ECECF809185028F7DCACF80918502C5
:102C90008F7BC6CF80918502877F8B7FC1CF80914C
:102CA00086028D7F8E7FC5CF8091850282FB222791
:102CB00020F991E0922790FB82F990FB83F9B0CF45
:102CC00080918602982F909591708E7F892B90FB32
:102CD00081F9AFCF0E94EA1D8091850287FB2227F0
:102CE00020F991E0922790FB87F99ACF81E00E942A
:102CF000562580918502909186020E94C7240E94E9
:102D0000EA1D80E001C081E0DF91CF910895CF936B
:102D1000DF9386319C4541F5EB010E94F223982F09
:102D20008A8120910F0130911001882379F09A7ADD
:102D300081E009F480E08093C101911102C069E251
:102D400001C065E3C9010E949D250AC08091C101AF
:102D5000811102C069E201C065E3C9010E949F259B
:102D60000E94402480E001C081E0DF91CF9108956E
:102D700061E070E087E091E00C94671761E070E03B
:102D800087E091E00C946E17CF93DF93D62FC72F77
:102D90000E940618892BF1F4ED2FFC2F80E090E0C3
:102DA000DC01A953BE4F2C912193019685309105EA
:102DB000B9F70E94A226DC01CB010296A11DB11D2C
:102DC0008093C3019093C401A093C501B093C60141
:102DD00081E001C080E0DF91CF910895CF93DF9330
:102DE000D62FC72F6091C3017091C4018091C50196
:102DF0009091C6010E948526ED2FFC2F80E090E087
:102E00002191DC01A953BE4F2C9301968530910589
:102E1000B9F7DF91CF9108958EE1489B02C08150B0
:102E2000E1F7489BFECF0895589880E28A95F1F724
:102E3000589A0895FC012AE02A95F1F728E090E0DD
:102E400080E031E040E14A95F1F7880F489B02C0ED
:102E50008160932700C0000040E14A95F1F72150BE
:102E600089F720E12A95F1F729B100C0000030E18F
:102E70003A95F1F7217092272081920F908308955F
:102E8000EF92FF920F931F93CF93DF931F92CDB7D3
:102E9000DEB719828C017C01E60EF11C0E151F05B0
:102EA00051F00E940C17CE0101960E941A17F801EA
:102EB00081938F01F3CF81E09981911180E00F9090
:102EC000DF91CF911F910F91FF90EF900895909314
:102ED000CD018093CC01509A589A08959093CD01DA
:102EE0008093CC015098589AE89AE9E6F0E0808106
:102EF0008C7F80830895615091E001C0990F6A959D
:102F0000EAF720E031E0992361F0492F482319F0D6
:102F1000589A232701C0589840E24A95F1F79695B0
:102F2000F2CF222311F0589A01C0589880E28A9576
:102F3000F1F758980895FF920F931F93CF93DF9363
:102F4000EC018C01060F111DC017D10741F0F9905B
:102F50000E94141768E08F2D0E947B17F5CFDF9138
:102F6000CF911F910F91FF9008951F920F920FB66E
:102F70000F9211242F933F934F935F936F937F93FF
:102F80008F939F93AF93BF93CF93DF93EF93FF9371
:102F90005898509AC091CC01D091CD016D81662393
:102FA00021F08E819F810E949B170E94141780E15F
:102FB0008A95F1F758985098589A80E18A95F1F7D8
:102FC0006A81662351F08B819C810E944017E881C1
:102FD000F981811104C082E003C0E881F98188E0B1
:102FE00080830E940C17FF91EF91DF91CF91BF91E9
:102FF000AF919F918F917F916F915F914F913F9191
:103000002F910F900FBE0F901F901895CF93DF93C5
:10301000C091CC01D091CD01F894509A589885E098
:103020008A95F1F700005098589A80E28A95F1F756
:10303000489B0AC0509A589AE881F98181E08083C0
:10304000789481E090E02CC06D81662381F08E81C0
:103050009F810E94401781110AC0509A589AE881B6
:10306000F98182E08083789482E090E019C00E9428
:103070000C1780E28A95F1F75898509A80E18A956A
:10308000F1F76A81662321F08B819C810E949B1756
:103090000E941417E881F9811082789480E090E012
:1030A000DF91CF9108959093D3018093D201089539
:1030B000E091D201F091D301309721F00190F0819D
:1030C000E02D099480E00895EF92FF920F931F93F3
:1030D000CF93DF93E091D201F091D3013097B1F11A
:1030E0008C010280F381E02D09958091580282FFC6
:1030F0002DC080FF04C087E89AE00E949106E80195
:1031000018E081E8E82E8AE0F82E8091580280FFCE
:103110000BC088811F928F93FF92EF920E942A0723
:103120000F900F900F900F90115021961111EDCF2D
:103130008091580280FF0AC08FE79AE0DF91CF911B
:103140001F910F91FF90EF900C949106DF91CF911A
:103150001F910F91FF90EF900895E091D201F091AF
:10316000D301309739F022E0DC012C930480F58103
:10317000E02D099408952091D0013091D1012817B4
:10318000390771F09093D1018093D001E091D20181
:10319000F091D301309721F00680F781E02D09945A
:1031A00008952091CE013091CF012817390771F091
:1031B0009093CF018093CE01E091D201F091D301A1
:1031C000309721F00084F185E02D099408950E9444
:1031D0003B266093E3017093E4018093E5019093B3
:1031E000E6016093DF017093E0018093E101909329
:1031F000E201089585B7806885BF85B7806885BF7F
:1032000008950C94290C08950C9403190C945207FA
:103210000C9403190C9408190C9403190E94FA18C1
:1032200080EB98E20E94CE260E940C190C940A1999
:103230000E9426260E947C260E94BB0A0E94D3265A
:103240000C940619CF93C82F8091580282FF1EC09C
:1032500080FF04C080EA9AE00E94910680915802A3
:1032600080FF0CC01F92CF938BE99AE09F938F93BE
:103270000E942A070F900F900F900F908091580294
:1032800080FF04C089E99AE00E9491068C2FCF91BB
:103290000C9431089F92AF92BF92CF92DF92EF923F
:1032A000FF920F931F93CF93DF93CDB7DEB72A978B
:1032B0000FB6F894DEBF0FBECDBF0E9404190E9466
:1032C00003190E94650B81110E94E71885EDA82E55
:1032D00081E0B82E00E010E0902E802F0E94480A76
:1032E000D82EF501C1905F01C826B1F40F5F1F4FC2
:1032F0000A30110589F78FEF89838A831B820E9428
:103300002F268160782F9D838C8349815A816B8120
:103310008D810E94EC192FC08091580281FD0E947E
:103320004E0AE12CFF24F3948C2D8F21F1F00E94A2
:103330000119882399F0EE829F82DF2081E009F451
:1033400080E088870E942F268160782F9A8789875E
:103350004E815F8168858A850E94EC19F801EB52E5
:10336000FE4F8081F826F08206C0E394FF0CF5E062
:10337000EF12DACFBBCF0E9476130E9458189091BB
:10338000D4018917B9F00E9458188093D4012A9665
:103390000FB6F894DEBF0FBECDBFDF91CF911F9166
:1033A0000F91FF90EF90DF90CF90BF90AF909F90E4
:1033B0000C9422192A960FB6F894DEBF0FBECDBF2B
:1033C000DF91CF911F910F91FF90EF90DF90CF9001
:1033D000BF90AF909F900895DF92EF92FF920F936E
:1033E0001F93CF93DF93CDB7DEB72B970FB6F8942B
:1033F000DEBF0FBECDBFF42E052F162FE72ED82E21
:1034000061110E941224FE01319686E0DF011D92B7
:103410008A95E9F77E2D4F2D502F612F8D2D9E819E
:103420000E94DD202B960FB6F894DEBF0FBECDBFF5
:10343000DF91CF911F910F91FF90EF90DF90089552
:10344000FC01808191810E94B3230895CF9388234A
:1034500009F4A9C0C82F8238C1F40E94581881FD10
:10346000A2C069E380910F01909110010E949D25F7
:103470000E9440242FEF81EE94E021508040904044
:10348000E1F700C0000069E319C0833801F50E942C
:10349000581880FD88C063E580910F01909110015C
:1034A0000E949D250E9440242FEF81EE94E0215040
:1034B00080409040E1F700C0000063E580910F017B
:1034C000909110010E949F25CF910C944024843844
:1034D000C1F40E94581882FD66C067E480910F0114
:1034E000909110010E949D250E9440242FEF81EEB3
:1034F00094E0215080409040E1F700C0000067E474
:10350000DDCF8CEF8C0F813AF8F48C2F0E943810AD
:10351000811149C06C2F80910F01909110010E9480
:103520006725882349F06C2F80910F01909110013D
:103530000E949F250E9440246C2F80910F01909142
:1035400010010E949D25C0CF80E28C0F883048F486
:10355000C77081E001C0880FCA95EAF70E94F52381
:10356000B3CFEBE5EC0FE33040F4F0E0EC56FE4F68
:10357000808190E0CF910C94BB18E8E5EC0FE73127
:1035800050F4F0E0EE0FFF1FEA59FE4F8081918169
:10359000CF910C94D118CD3E30F08C2F0E940412A4
:1035A000CF910C94D612CF910895882309F464C06A
:1035B000823879F40E94581881FF5EC069E38091D7
:1035C0000F01909110010E949D250E94402469E303
:1035D00010C08338B1F40E94581880FF4DC063E5D5
:1035E00080910F01909110010E949D250E9440241E
:1035F00063E580910F01909110010E949F250C942A
:103600004024843879F40E94581882FF35C067E45A
:1036100080910F01909110010E949D250E944024ED
:1036200067E4E7CF9CEF980F913A10F4682FE1CF51
:1036300090E2980F983050F4877091E001C0990F94
:103640008A95EAF7892F0E94FB23D9CF9BE5980F33
:10365000933020F480E090E00C94BB1898E5980F2C
:10366000973120F480E090E00C94D1188D3E20F04A
:103670000E945F120C94D61208951F93CF93DF938C
:10368000182FEB010E94261A209741F08FE99FE046
:103690000197F1F700C000002197F6CF812FDF914D
:1036A000CF911F910C94D51A893319F060E070E026
:1036B00002C060E570E00C943D1B882321F00E945D
:1036C000F5230C9440240895882321F00E94FB23C5
:1036D0000C9440240895CF92DF92EF92FF920F93C3
:1036E0001F93CF93DF937C01062FC72FFC01D2815C
:1036F000158112951F700E94EB23882399F0DD231A
:1037000089F08C2F807F803421F080E2800F883018
:1037100048F082E00E948A240E94EB2391E0D82E98
:10372000D92601C0D12CCC2EC2948FE0C8228C2D7A
:1037300090E0FC01EA5AFF4F0C94912E8C2F807F71
:10374000CF70882311F0C295C07FDD2399F0CC2380
:1037500009F48DC180E2800F883010F0011104C09F
:103760008C2F0E94F52303C08C2F0E9405240E94F9
:1037700040247DC1802F0E94D51ACC2309F49CC11E
:1037800080E2800F883010F0011104C08C2F0E945D
:10379000FB2303C08C2F0E940B240E9440248CC169
:1037A0008C2F807FCF70803211F0C295C07F0023B4
:1037B00019F00130C9F022C0DD2371F0112341F06E
:1037C000113031F40E9425248C2B0E942D2474C1C9
:1037D0000E9425248C2B1DC0112319F0113009F4EF
:1037E0006BC10E94362425C0DD2321F0163008F07D
:1037F00063C10EC0153008F05FC11BC0DD2361F04E
:10380000112331F0F701858180FF31C18F708583ED
:103810008C2F0E945D1B50C1112359F0093309F010
:1038200037C1FFEF27EE83E0F15020408040E1F701
:103830002DC18C2F0E94641B3FC18C2F86958695CD
:10384000837019F0813061F037C1DD2321F0802FC2
:103850009C2F937002C080E090E00E94BB1834C19E
:10386000DD2321F0802F9C2F937002C080E090E038
:103870000E94D11829C1802FDD2319F00E94041263
:1038800002C00E945F120E94D6121EC18C2F83704C
:1038900009F045C0D11114C1402F4295469547709B
:1038A000440F440F602F6F70862F90E0A0E0B0E0CF
:1038B000042E04C0880F991FAA1FBB1F0A94D2F7B9
:1038C00004FF10C00FE010E020E030E004C0000F63
:1038D000111F221F331F4A95D2F70095109520958E
:1038E000309503C000E010E09801C695C695C370FE
:1038F000BC01CD01602B712B822B932BC23049F080
:1039000058F4C13019F00E942E22DAC00E941C2205
:10391000D7C00E944022D4C00E941A22D1C0DD2309
:1039200019F08C2F817001C08695882309F4C8C0D6
:10393000402F429546954770440F440F602F6F709B
:10394000862F90E0A0E0B0E0042E04C0880F991FFD
:10395000AA1FBB1F0A94D2F704FF10C00FE010E0AB
:1039600020E030E004C0000F111F221F331F4A95D2
:10397000D2F7009510952095309503C000E010E037
:103980009801C695C695C370BC01CD01602B712B03
:10399000822B932BC23049F058F4C13019F00E94A9
:1039A000F3228EC00E94E1228BC00E94052388C0B2
:1039B0000E94542285C0CF70DD2339F08C2F0E94E5
:1039C0007A22802F0E945D1B7BC0802F0E94641B87
:1039D0008C2F0E949B2274C0023F01F128F4003F0B
:1039E00041F0013FA1F03FC0033FF9F0043F39F13E
:1039F0003AC0DD2341F0153008F05EC08C2F8F7186
:103A00000E94C02259C0163008F056C0F7CFDD23FF
:103A100039F08C2F8F710E947A224EC0DD23C9F3BA
:103A20008C2F8F710E949B2247C0DD2329F08C2FA1
:103A30008F710E94652240C00E9460223DC0DD233C
:103A400049F0CF718C2F0E947A2263E08C2F0E9464
:103A5000752432C081E00E948A24123068F182E02D
:103A60000E948A2429C0DD2331F0112391F2802F96
:103A70000E94261A21C0112399F2093349F49FEFBD
:103A8000E7EEF3E09150E040F040E1F700C00000C5
:103A9000802F0E94D51A10C04C2F4F70602FC70185
:103AA0000E943A080E948B210FC04C2F4F70602F4C
:103AB000C7010E943D0808C088EF8C0D843020F4B7
:103AC0000E9458180E943108DD20C9F00E94E723A7
:103AD00080FD15C0F70112820E94E1230E947A2224
:103AE000C7010E94A01D0E94E123DF91CF911F9189
:103AF0000F91FF90EF90DF90CF900C949B22DF917D
:103B0000CF911F910F91FF90EF90DF90CF9008958C
:103B10000F931F93CF93DF93EC01688179818A81A2
:103B20000E94BE238C010E9417230E940822B80124
:103B3000CE010E946B1BDF91CF911F910F910895D1
:103B4000CF93DF93EC01988189812B813C81232BDA
:103B500031F08F3F31F481E09F3F19F403C081E0E1
:103B600001C080E080FD19C0CE010E94C007811114
:103B70000CC00E94EB23882381F08A81882369F09E
:103B800082E0DF91CF910C948A24CE010E94881D9F
:103B9000CE01DF91CF910C949B07DF91CF910895D7
:103BA00080E090E00E94BB1880E090E00E94D11875
:103BB0000E9412240E9422240E9440240E94891400
:103BC0000C94D61280910F01909110010E94A125B2
:103BD0000C94D01D0E9402240C94E21DE92FE29562
:103BE000EF704E2F50E0FA013297EE30F105B0F44D
:103BF000EA59FF4F0C94912E803F91F018F4883EC3
:103C000068F40EC0843F51F40BC0883E48F0813FF9
:103C100029F406C093FB882780F9089580E0089571
:103C200081E008950E94B3230E94EE1D0895CF9372
:103C3000DF9300D000D01F92CDB7DEB70F900F906A
:103C40000F900F900F90DF91CF910895CF93DF9356
:103C500000D000D000D0CDB7DEB726960FB6F894CE
:103C6000DEBF0FBECDBFDF91CF9108951F93CF93DD
:103C7000DF93C091E80116E08091E901C81799F03F
:103C8000D0E01C9FF0011D9FF00D1124E651FE4F66
:103C90004081518162817381848195810E94261EB9
:103CA0002196C770E9CFDF91CF911F910895409180
:103CB0001A0250911B0260911C0270911D028091AA
:103CC0001E0290911F020C94261E2091E8019091F3
:103CD000E90156E02917A9F030E0529FF001539F07
:103CE000F00D1124E651FE4F7181761306C07081EC
:103CF000781303C07281741306C02F5F3F4F277083
:103D0000E9CF80E0089581E008950F931F93CF934A
:103D1000DF9380911F0282958F7009F05DC08091C2
:103D20001C02882309F458C08091E8011091E90130
:103D300060911A0270911B02C0911D02D0911E0267
:103D400091E06F3F09F090E0292F06E0811709F418
:103D500043C0209721F07F3F21F030E003C031E0E5
:103D600001C0322F90E030FD34C0089FF001099F60
:103D7000F00D1124DF01A651BE4F11963C91119711
:103D8000371327C03C91361324C012963C911297EA
:103D900031111FC013964D915C9114974C1B5D0B14
:103DA000483C5105B0F480911F028F708061809370
:103DB0001F02E151FE4F80818F70806180838AE114
:103DC00092E00E94A01DDF91CF911F910F910C9462
:103DD000361E01968770BACFDF91CF911F910F9158
:103DE00008958F929F92AF92BF92CF92DF92EF92FF
:103DF000FF920F931F93CF93DF93CDB7DEB76197F9
:103E00000FB6F894DEBF0FBECDBF8C0185E0F80180
:103E1000DE011D9601900D928A95E1F7D801DC90A4
:103E20001196EC9011971296CC9090911A022091D5
:103E30001B0240911D0250911E024115510531F0A7
:103E40002F3F31F481E09F3F19F403C081E001C0AE
:103E500080E080FD81C1F801838094808AE1A82EF2
:103E600082E0B82EF0901C02B401641B750BFF2099
:103E700009F418C180911F02382F307F683C71050A
:103E800008F0D1C031118AC0E21214C0D91212C098
:103E9000FC2CC1100FC08F70806180931F020E94A4
:103EA000571EC5010E94A01D80911F02D8011596C2
:103EB0008C936FC18114910439F0BFEFEB1206C0EF
:103EC00081E0DB1203C003C081E001C080E080FD1F
:103ED00003C081E08C2502C080E090E080FF10C02C
:103EE0004C2D6E2D8D2D0E94651E882349F08AE190
:103EF00092E00E94A01DEAE1F2E086E0DF01A4C0AA
:103F0000892839F0BFEFEB1206C081E0DB1203C055
:103F100003C081E001C080E080FD03C081E08C250A
:103F200002C080E090E0E82FE170BE2E80FF2CC040
:103F30004C2D6E2D8D2D0E94651EF82E811124C0F2
:103F4000DD86EE868D859E850E94B323292F2295DE
:103F50002F70223018F0243090F405C09F7059F073
:103F6000811109C016C19F7031F0D80115969C913E
:103F7000907F09F40EC1805E883008F40AC1C80140
:103F80000E94A01DFB2C05C1FC2CCC2009F401C112
:103F900080911F02816080931F025BC0E21206C005
:103FA000D91204C0C11002C0F801A0C0DD86EE869F
:103FB0008D859E850E94121E882379F1CC2069F19F
:103FC00020911F02822F82958F7090E0029774F0EB
:103FD00080911A0290911B0298878F8319869B8685
:103FE0008A862C87CE0107960E94A01D86E0F801E4
:103FF000AAE1B2E001900D928A95E1F70E94851E38
:104000000E94571E0DC0E21631F1DD86EE868D85C9
:104010009E850E94121E81112DC0C8010E94A01D04
:10402000FF24F394B6C03111EECF782D998A888A97
:104030004D2D5E2D6C2D89890E94171E8AE192E01C
:104040000E94A01D86E0D5011D928A95E9F70E9485
:10405000571EF12C9EC0D912D8CFC110D6CFF8016F
:104060008583C8010E94A01D86E0D5011D928A9516
:10407000E9F78FC0CC2089F220911F02822F829510
:104080008F7090E002970CF4B1CF80911A0290915A
:104090001B029A8389831B829D828C822E83CE0190
:1040A0000196A2CF683C710508F047C0FC2CCC20DB
:1040B00009F4B3CFE21230C0D9122EC020911F02F2
:1040C00020FD21C0822F82958F70482F50E041152E
:1040D0005105C9F0F80125834F30510541F08F5F3C
:1040E000982F9295907F822F8F70892B8583C8019E
:1040F0000E94A01D86E0F801AAE1B2E001900D92B5
:104100008A95E1F744C086E0F801AAE1B2E00190A7
:104110000D928A95E1F73DC0DD86EE868D859E8500
:104120000E94121E811162CF80911F0281608093D4
:104130001F02C8010E94A01D2CC0782D998A888A70
:104140004D2D5E2D6C2D89890E94171E86E0D501AC
:104150001D928A95E9F71BC0CC2009F45ECFDD865D
:10416000EE868D859E850E94121EF82E882309F406
:1041700054CF86E0F801AAE1B2E001900D928A9551
:10418000E1F78AE192E00E94201A0E94851E0E94B7
:10419000571E8F2D61960FB6F894DEBF0FBECDBFB0
:1041A000DF91CF911F910F91FF90EF90DF90CF9013
:1041B000BF90AF909F908F9008951F93CF93DF9300
:1041C000CDB7DEB72C970FB6F894DEBF0FBECDBFCC
:1041D0004F83588769877A878B879C87CE0107969C
:1041E0000E94F11E8823D1F09F8188852A853B8516
:1041F000232B31F08F3F31F481E09F3F19F403C04E
:1042000081E001C080E080FD47C04F81588569850D
:104210007A858B859C850E94261E3EC086E0FE0125
:104220003796DE01119601900D928A95E1F7FF8194
:10423000E8856A857B856115710531F0EF3F31F4C2
:1042400081E0FF3F19F403C081E001C080E080FD00
:1042500023C02091E90130E0C901019687709927B8
:104260004091E80150E084179507F1F1F983EA8362
:104270007D836C8396E0929FD001939FB00D1124B3
:10428000A651BE4FFE01319601900D929A95E1F72D
:104290008093E9010E94361E16E08091E80190911A
:1042A000E901891771F1189FC001112486519E4FB1
:1042B0000E94F11E882329F1E091E8011E9FF00180
:1042C0001124E651FE4F40815181628173818481C6
:1042D00095810E94261E8091E80190E001968770EA
:1042E00099278093E801D9CF0E94EA1D1092E90135
:1042F0001092E801EAE1F2E086E0DF011D928A9582
:10430000E9F72C960FB6F894DEBF0FBECDBFDF9154
:10431000CF911F910895EF92FF920F931F93CF9328
:10432000DF938C01892B09F46CC0F12CEE24E3940B
:10433000E8012196F8018491843740F4843008F034
:1043400051C0813081F0823019F15BC0853709F4AA
:1043500044C0A8F19CE7980F903708F052C08F77BF
:104360000E94D51A41C00E5F1F4FFE01849190E25A
:10437000980F983050F48770FE2D01C0FF0F8A957A
:10438000EAF78F2F0E94152414C00E94261A2DC010
:104390000E5F1F4FFE01849190E2980F983060F4F9
:1043A0008770FE2D01C0FF0F8A95EAF78F2F0E94BC
:1043B0001B240E94402419C00E94D51A16C00E5F0B
:1043C0001F4FFE01C491CC2381F08FE99FE001973C
:1043D000F1F700C00000C150F6CF0E5F1F4FFE0185
:1043E000F49003C00E94261A8E018F2D882309F4B1
:1043F0009FCFEFE9FFE03197F1F700C00000815057
:10440000F5CFDF91CF911F910F91FF90EF9008951D
:10441000089508950C9409220C940A220E940C22FB
:1044200060934702709348028093490290934A0236
:104430000C94D01D0C940E220F931F9300914702F1
:10444000109148022091490230914A02602B712B51
:10445000822B932B1F910F910C940E220F931F937D
:1044600000914702109148022091490230914A027E
:1044700060237123822393231F910F910C940E22AA
:104480000F931F9300914702109148022091490217
:1044900030914A0260277127822793271F910F913D
:1044A0000C940E220C9409220E9452226093430223
:1044B0007093440280934502909346020C94D01D61
:1044C00060E070E0CB010C9454220F931F9341E005
:1044D00050E060E070E08A019B0104C0000F111FF2
:1044E000221F331F8A95D2F7C901B8011F910F917E
:1044F0000C9454220F931F9341E050E060E070E071
:1045000004C0440F551F661F771F8A95D2F780910C
:10451000430290914402A0914502B09146028A0163
:104520009B01082B192B2A2B3B2BC901B8011F918A
:104530000F910C9454220F931F9341E050E060E0E0
:1045400070E004C0440F551F661F771F8A95D2F78D
:1045500040955095609570958091430290914402EA
:10456000A0914502B09146028A019B0108231923BC
:104570002A233B23C901B8011F910F910C945422A7
:104580000F931F9341E050E060E070E004C0440FDF
:10459000551F661F771F8A95D2F78091430290912D
:1045A0004402A0914502B09146028A019B0108276E
:1045B00019272A273B27C901B8011F910F910C9495
:1045C00054220F931F9300914302109144022091B3
:1045D000450230914602602B712B822B932B1F9149
:1045E0000F910C9454220F931F930091430210914A
:1045F00044022091450230914602602371238223B8
:1046000093231F910F910C9454220F931F930091A9
:1046100043021091440220914502309146026027E6
:104620007127822793271F910F910C94542208958C
:1046300024E0929F900D1124890FE82FE695E695CE
:10464000E695877051E001C0550F8A95EAF785E03D
:10465000E89FF0011124E05EFD4F20E030E070E0C3
:104660004081CB01022E02C0969587950A94E2F70D
:104670008170819584278523842781932F5F3F4F05
:104680002530310569F7089524E0929F900D11249B
:10469000890F682F669566956695982F977085E0C7
:1046A000689FB001112440E050E080E0FB01E40F7E
:1046B000F51FE05EFD4F208130E0092E02C03695E7
:1046C00027950A94E2F721703327042E01C0220FA8
:1046D0000A94EAF7822B4F5F5F4F4530510531F75F
:1046E0000895BF92CF92DF92EF92FF920F931F93A4
:1046F000CF93DF938C01C0904302D0904402E090AE
:104700004502F09046028091470290914802A091A4
:104710004902B0914A02C82AD92AEA2AFB2ACFE1E3
:10472000D0E0D701C6010C2E04C0B695A795979589
:1047300087950A94D2F780FD04C0219790F7B12C99
:1047400007C0BC2EB8018C2F0E9459080197A9F30D
:104750008B2DDF91CF911F910F91FF90EF90DF9004
:10476000CF90BF900895CF93DF93EC010E94712307
:10477000BE010E945908DF91CF9108951F93CF93F6
:10478000DF93EB019091E701992321F0CB010E9487
:10479000B32313C0882349F0CB010E947123182F43
:1047A000682FCE010E94182304C0CB010E9444232D
:1047B000182FBE01812F0E945908DF91CF911F91C0
:1047C000089580914B0285958595859508958091F2
:1047D0004B028770089590914B02977081E009F425
:1047E00080E0089580915702089590915702892B97
:1047F0008093570208958095909157028923809362
:104800005702089510925702089590915602892BED
:104810008093560208958095909156028923809343
:104820005602089510925602089590915502892BD0
:104830008093550208958095909155028923809325
:104840005502089510925502089580914C020895E2
:1048500008950C9428240C94292490914C029817C4
:1048600021F080934C020C942B24089580914C02EB
:10487000882329F010924C0280E00C942B24089598
:10488000E0910F01F0911001809157028083E09137
:104890000F01F0911001908180915602892B808345
:1048A000E0910F01F0911001908180915502892BC8
:1048B000808380914C02882381F0E0910F01F09178
:1048C00010019081892B808380910F0190911001BC
:1048D0000E945B2581110E94362480910F019091E6
:1048E00010010C9464180C94282498E0899F90017E
:1048F0001124262B20934B020E947A2280914B0296
:104900008595859585950C94732410924B0280E0D3
:104910000C94732420914B028095822380934B0248
:10492000982F977079F430E0482F082E000C550B23
:104930002417350739F08595859585950E949B222A
:104940000C948524089580E090E00E94B32E21E02D
:104950008B3E9E4F09F020E0822F089582E090E088
:104960000C94AB2E83E090E00C94AB2ECF9384E0BC
:1049700090E00E94AB2EC82F81E290E00E94AB2E07
:104980002C2F30E0A901582BCA01CF910895CF9365
:10499000C92F682F84E090E00E94B92E6C2F81E22D
:1049A00090E0CF910C94B92EAB01BC018FE090E068
:1049B0000C94CB2EAB01BC0183E190E00C94CB2E88
:1049C00060E070E0CB010C94DA2460E070E0CB0191
:1049D0000E94D4240C94E0246BEE7EEF80E090E003
:1049E0000E94D72E60E082E090E00E94B92E60E045
:1049F00083E090E00E94B92E109247021092480284
:104A00001092490210924A0260E084E090E00E9415
:104A1000B92E60E081E290E00E94B92E60E085E06E
:104A200090E00E94B92E60E086E090E00E94B92EEE
:104A30006FEF87E090E00E94B92E40E050E0BA01AD
:104A400088E090E00E94CB2E60E08DE090E00E9434
:104A5000B92E40E050E0BA0188E190E00E94CB2EF0
:104A600060E087E190E00E94B92E40E050E0BA019A
:104A70008CE190E00E94CB2E60E080E290E00E940A
:104A8000B92E40E050E0BA0188E190E00E94CB2EC0
:104A90000C94E5240C94EC248EE090E00E94AB2E64
:104AA00091E0811101C090E0892F0895682F8EE078
:104AB00090E00C94B92EFC01329697E080E0915082
:104AC00029F021912223D9F38F5FF9CF089566232E
:104AD00049F0FC01329608962191621729F0E817F7
:104AE000F907D1F780E0089581E008959C01FC0169
:104AF00032969FEF80E04191461789F09F3F19F46D
:104B0000411101C0982F8F5F8630A9F79F3F39F080
:104B1000F901E90FF11D97FDFA9562830895089553
:104B20009C012A5F3F4FFC014281461301C0128263
:104B3000019682179307B9F708950C9476250C9483
:104B40009025029626E0FC0111922A95E9F7089536
:104B500008950C94A8250C94A825CF930E94AB250A
:104B60000E94650B0E94A925C0E08C2F0E94480A74
:104B7000811104C0CF5FCA30C1F701C081E0CF917D
:104B800008950C94A8250C94C12580918B02843043
:104B900049F10E94C32580E00E9431081092590219
:104BA00020E488E190E00FB6F894A8958093600027
:104BB0000FBE2093600083B7817F846083BF83B77B
:104BC000816083BF7894889583B78E7F83BF0FB64B
:104BD000F894A8958091600088618093600010929D
:104BE00060000FBE08950C94A8250E94EA1D0E9443
:104BF00058180E9431080C94F3251F920F920FB69B
:104C00000F9211248F939F93AF93BF93809159027A
:104C1000811113C080917D0290917E02A0917F024C
:104C2000B09180024196A11DB11D80937D029093A9
:104C30007E02A0937F02B0938002BF91AF919F91BB
:104C40008F910F900FBE0F901F90189582E084BD3A
:104C500093E095BD9AEF97BD80936E0008952FB7AE
:104C6000F89480917D0290917E02A0917F02B09194
:104C700080022FBF08952FB7F89460917D02709144
:104C80007E0280917F02909180022FBF08959C0147
:104C90004FB7F89480917D0290917E02A0917F029F
:104CA000B09180024FBF821B930B089578941F929E
:104CB0000F920FB60F9211248F939F93AF93BF93D0
:104CC00080917D0290917E02A0917F02B09180023E
:104CD0000196A11DB11D80937D0290937E02A09349
:104CE0007F02B0938002BF91AF919F918F910F90FF
:104CF0000FBE0F901F9018951092810210928202A1
:104D000010928302109284020895CF92DF92EF9264
:104D1000FF926B017C010E94290C81110EC00E9440
:104D20003B26C61AD70AE80AF90AC0928102D09235
:104D30008202E0928302F0928402FF90EF90DF9073
:104D4000CF9008950F931F930E94290C882321F080
:104D50001F910F910C943B260E943B2600918102EB
:104D6000109182022091830230918402600F711FA2
:104D7000821F931F1F910F91089587E797E79093E4
:104D80000108809300089AE088E10FB6F894A8958E
:104D9000809360000FBE90936000FFCF9093A701B7
:104DA0008093A60108950E94A324811102C00E944D
:104DB0004A250E94AE24809358020E94B624909304
:104DC0008602809385020E94B224682F70E080E002
:104DD00090E00E941A2260914302709144028091F7
:104DE0004502909146020C945222809165020895EA
:104DF000CF93DF9300D01F92CDB7DEB790918B0297
:104E0000943019F589837B836A8382E08093E9007B
:104E10008FEF9091E800815095FD06C095ED9A9531
:104E2000F1F700008111F5CF8091E80085FF0DC0FA
:104E300040E050E063E070E0CE0101960E94D4298A
:104E40008091E8008E778093E8000F900F900F908C
:104E5000DF91CF910895BC0184E00C94F826BC0149
:104E600083E00C94F82622E02093E9002FEF3091A4
:104E7000E800215035FD06C035ED3A95F1F7000008
:104E80002111F5CF2091E80025FF0BC040E050E054
:104E900066E070E00E94D4298091E8008E778093CC
:104EA000E8000895CF93DF9321E02093E9002FEFEE
:104EB0003091E800215035FD06C035ED3A95F1F707
:104EC00000002111F5CF2091E80025FF14C0EC016E
:104ED00040E050E068E070E00E94D4298091E80052
:104EE0008E778093E80088E0FE01ADE5B2E00190A6
:104EF0000D928A95E1F7DF91CF91089588ED9AE0C0
:104F00000E94910680918A02811109C00E94652B3E
:104F10000E94C22B8091E20084608093E200089599
:104F200084ED9AE00E94910610928A02089580ED25
:104F30009AE00C9491068CEC9AE00C94910688EC23
:104F40009AE00C94910620915B022F5F822F62E31E
:104F50000E94712E992319F020935B0208951092FC
:104F60005B0280915C02882371F180918B02843016
:104F700041F58091E9008F702091EC00922F9170A3
:104F800020FD90E8892B93E09093E9009091EB004D
:104F900090FF14C09091EE0097FF10C09091E80030
:104FA00095FF03C01092F100F9CF9091E80090FFB7
:104FB00005C09091E8009E779093E8008F708093F1
:104FC000E90010925C02089542E061EC81E00E94E9
:104FD000DE2A42E261EC82E00E94DE2A42E261ECDB
:104FE00083E00C94DE2A80918D02833009F460C046
:104FF00030F4813071F0823009F499C008958A301C
:1050000009F485C08B3009F46BC0893009F0A7C062
:1050100020C080918C02813A09F0A1C08091E80003
:10502000877F8093E8008091900290919102892B74
:1050300021F468E08DE592E003C060E080E090E05C
:1050400070E00E941F2A8091E8008B778093E8002F
:10505000089580918C02813209F081C08091900284
:1050600090919102029708F07AC08091E800877FC2
:105070008093E8008091E80082FD05C080918B025A
:105080008111F8CF6CC02091F3008091F20090E084
:10509000922B029729F48091F1008B7F813021F4CB
:1050A0008091F100809365028091E8008B7753C076
:1050B00080918C02813A09F052C0809190029091C7
:1050C0009102892B09F04BC08091E800877F809383
:1050D000E8008091E80080FFFCCF80911B0136C082
:1050E00080918C028132D9F5809190029091910249
:1050F000892BA9F58091E800877F8093E8000E94C2
:10510000132B80918E0280931B010C94EA1D8091D9
:105110008C02813221F58091E800877F8093E8003E
:105120000E94132B80918F028093660208958091D4
:105130008C02813AA1F48091E800877F8093E80097
:105140008091E80080FFFCCF809166028093F1009F
:105150008091E8008E778093E8000C94132B0895DB
:105160009FB7F89410925C029FBF90918B0294308D
:1051700009F057C09091E9009F703091EC00232F07
:10518000217030FD20E8922B23E02093E90020914C
:10519000EB0020FF43C02091EE0027FF3FC020918D
:1051A0005A02222321F02091E80025FF37C01092F7
:1051B0005A0226E03091E80035FD15C030918B028F
:1051C000343061F53091EB0035FD28C0215021F4D9
:1051D00081E080935A0222C0EFE9FFE03197F1F7B6
:1051E00000C00000E7CF8093F1008091E80085FDCA
:1051F0000AC08091E80080FFFCCF8091E8008E77A4
:105200008093E80006C08FB7F89421E020935C02F9
:105210008FBF9F709093E90080E008959F709093F6
:10522000E9008FEF089584B7877F84BF0FB6F894A5
:10523000A895809160008861809360001092600062
:105240000FBE90E080E80FB6F894809361009093D1
:1052500061000FBE0E940E190E94652B0E94C22B96
:105260008091E20084608093E20078940E94562E40
:105270000E94181981E191E00E94531887EB9AE08F
:105280000E94910680918B028530C9F483EB9AE0ED
:105290000E94910680918B02853079F40E94C52589
:1052A000809189028823B1F30E94AD25882391F370
:1052B0000E94BE290E94EA1DEDCF0E94F5250E94A2
:1052C0004A190E9404190E940319DCCF0C94682922
:1052D000292F332723303105C9F060F421303105FF
:1052E00081F02230310509F041C08BE590E02EE2DB
:1052F0003BE040C021323105E1F02232310531F18D
:1053000035C082E190E029E83BE034C09927813044
:10531000910549F028F0029749F5ECEDFAE005C057
:10532000EAE2FBE002C0EAE1FBE0849190E09F0149
:1053300021C063307105D0F4660F771FFB01E05682
:10534000FE4F2081318189E090E014C06330710507
:1053500068F4FB01EE0FFF1FE656FE4F20813181FE
:10536000FB01E956FE4F808190E004C080E090E0B0
:1053700020E030E0FA0131832083089580E189BD87
:1053800082E189BD09B400FEFDCF8091D8008F7DF8
:105390008093D8008091E00082608093E00080914B
:1053A000E00081FDFCCF0895CF92DF92EF92FF9253
:1053B0000F931F93CF93DF93EC018B017A010E942F
:1053C000322B811133C0E114F10439F0F7018081EF
:1053D0009181081B190BC80FD91FC12CD12C0115A5
:1053E000110519F18091E80085FD16C08091E80053
:1053F0008E778093E800E114F10449F0F701808191
:105400009181C80ED91ED182C08285E00FC00E9452
:10541000322B882321F30AC089918093F100015037
:105420001109FFEFCF1ADF0ADACF80E0DF91CF91C9
:105430001F910F91FF90EF90DF90CF9008952091F2
:105440009202309193022617370748F061157105D3
:1054500039F42091E8002E772093E80001C0B901CB
:10546000FC0120E06115710579F180918B028823A0
:10547000F1F18530F1F18091E80083FD3CC080912D
:10548000E80082FD2EC08091E80080FFEBCF2091E4
:10549000F3008091F20090E0922B6115710551F0BC
:1054A0008830910538F421912093F1006150710901
:1054B0000196F3CF21E0089709F020E08091E80001
:1054C0008E778093E800CECF2111CFCF0AC0809194
:1054D0008B02882361F0853061F08091E80083FDC4
:1054E0000AC08091E80082FFF2CF80E0089582E058
:1054F000089583E0089581E008952091920230910B
:1055000093022617370748F06115710539F4209189
:10551000E8002E772093E80001C0B901FC0120E0EB
:105520006115710591F180918B02882309F440C0C7
:10553000853009F43FC08091E80083FD3DC0809133
:10554000E80082FD2FC08091E80080FFE9CF209124
:10555000F3008091F20090E0922B6115710559F0F3
:105560008830910540F424912093F10031966150E8
:1055700071090196F2CF21E0089709F020E08091AF
:10558000E8008E778093E800CBCF2111CCCF0AC002
:1055900080918B02882361F0853061F08091E80072
:1055A00083FD0AC08091E80082FFF2CF80E0089579
:1055B00082E0089583E0089581E00895982F973060
:1055C00068F59093E900981739F07091EC002091FC
:1055D000ED005091F00003C0242F762F50E021FD04
:1055E00002C09F5FECCF3091EB003E7F3093EB0029
:1055F0003091ED003D7F3093ED003091EB00316054
:105600003093EB007093EC002093ED005093F0008A
:105610002091EE0027FDE5CF80E008958F70809304
:10562000E90081E0089580918C0287FF11C080918C
:10563000E80082FD05C080918B028111F8CF11C076
:105640008091E8008B770BC080918B02882349F012
:105650008091E80080FFF8CF8091E8008E778093FA
:10566000E80008952091E4003091E50095E640912E
:10567000EC00842F817040FF23C08091E80080FD02
:105680001DC080918B02882399F0853099F080911C
:10569000EB0085FD11C04091E4005091E500241716
:1056A000350729F3915011F09A01E1CF84E0089574
:1056B00082E0089583E0089581E0089580E00895F0
:1056C0004091E80042FFDDCF08950E94D32B0E9455
:1056D000DB2BE0EEF0E0808181608083E8EDF0E09C
:1056E00080818F77808319BCA7EDB0E08C918E7F8D
:1056F0008C9380818F7E808310928A0208950F930D
:105700001F93CF93DF930E94D32B0E94DB2BC8ED16
:10571000D0E088818F7788838881806888838881BA
:105720008F7D888319BC10928B0210928702109291
:1057300089021092880200EE10E0F80180818B7FD0
:10574000808388818160888342E060E080E00E94FD
:10575000DE2AE1EEF0E080818E7F8083E2EEF0E0F1
:10576000808181608083808188608083F80180816E
:105770008E7F8083888180618883DF91CF911F91A4
:105780000F910895E8EDF0E080818F7E8083E7ED52
:10579000F0E080818160808384E082BF81E080933B
:1057A0008A020C947F2BE8EDF0E080818E7F80836D
:1057B0001092E20008951092DA001092E10008952C
:1057C0001F920F920FB60F9211242F933F934F9376
:1057D0005F936F937F938F939F93AF93BF93EF9359
:1057E000FF938091E10082FF0BC08091E20082FF75
:1057F00007C08091E1008B7F8093E1000E94A32786
:105800008091DA0080FF1FC08091D80080FF1BC00C
:105810008091DA008E7F8093DA008091D90080FF3A
:105820000DC080E189BD82E189BD09B400FEFDCFD4
:1058300081E080938B020E947E2705C019BC1092E4
:105840008B020E9490278091E10080FF19C0809117
:10585000E20080FF15C08091E2008E7F8093E2001D
:105860008091E20080618093E2008091D8008062A4
:105870008093D80019BC85E080938B020E949B27FF
:105880008091E10084FF30C08091E20084FF2CC051
:1058900080E189BD82E189BD09B400FEFDCF809120
:1058A000D8008F7D8093D8008091E1008F7E809317
:1058B000E1008091E2008F7E8093E2008091E2001F
:1058C00081608093E20080918702882311F084E058
:1058D00007C08091E30087FD02C081E001C083E042
:1058E00080938B020E949F278091E10083FF29C053
:1058F0008091E20083FF25C08091E100877F809343
:10590000E10082E080938B02109287028091E10097
:105910008E7F8093E1008091E2008E7F8093E20091
:105920008091E20080618093E20042E060E080E0EC
:105930000E94DE2A8091F00088608093F0000E942F
:105940009727FF91EF91BF91AF919F918F917F9199
:105950006F915F914F913F912F910F900FBE0F90DC
:105960001F9018951F920F920FB60F9211242F932C
:105970003F934F935F936F937F938F939F93AF93D7
:10598000BF93CF93DF93EF93FF93C091E900CF7064
:105990008091EC00D82FD17080FDD0E81092E90002
:1059A0008091F000877F8093F00078940E94F62C1D
:1059B0001092E9008091F00088608093F000CD2B78
:1059C000CF70C093E900FF91EF91DF91CF91BF912C
:1059D000AF919F918F917F916F915F914F913F9187
:1059E0002F910F900FBE0F901F9018951F93CF937C
:1059F000DF93CDB7DEB7AA970FB6F894DEBF0FBE20
:105A0000CDBFECE8F2E08091F100819322E0E4392F
:105A1000F207C9F70E94F3278091E80083FF2EC1A7
:105A200080918C0290918D02492F50E04A305105AF
:105A300008F024C1FA01EC58FF4F0C94912E8038E5
:105A400021F0823809F01AC108C080918802909133
:105A50008902992389F082600FC0809190028F7033
:105A6000873008F00BC18093E9008091EB0085FB43
:105A7000882780F91092E9009091E800977F909331
:105A8000E8008093F1001092F100D1C0282F2D7F03
:105A900009F0F4C0882319F0823061F0EFC08091E2
:105AA0008E02813009F0EAC0933009F080E08093E3
:105AB00089022EC080918E0281112AC080919002AD
:105AC0008F702FEF280F263008F0D8C08093E900A0
:105AD0002091EB0020FF1CC0933021F48091EB005B
