:100000000C9459030C947F2D0C94A0030C94A00322
:100010000C94A0030C94A0030C94A0030C94A003D4
:100020000C94A0030C94A0030C94B1280C94ED271D
:100030000C94D71A0C94A0030C94A0030C94A00366
:100040000C94A0030C94A0030C94A0030C94A003A4
:100050000C94A0030C94491A0C94A0030C94A003D4
:100060000C94A0030C94A0030C94A0030C94A00384
:100070000C94A0030C94A0030C94A0030C94A00374
:100080000C94A0030C94A0030C94A0030C94A00364
:100090000C94A0030C94A0030C94A0030C94A00354
:1000A0000C94A0030C94A0030C94A003C710CA10D6
:1000B000E410F110F81018111B114F1171110A12F0
:1000C0000A127C117E118211A511C511C811CB1124
:1000D000EC11231623165D165D16B616D216681897
:1000E0006818DD16BB17CC17CC176C1C6C1C7F1C5A
:1000F0007F1C751C7F1C7F1C7F1C6C1C6C1C7A1C5D
:100100007F1C7F1C7A1C01262826CF272826CF2774
:1001100074269726CF278C279C2700010101010117
:1001200001010101020202020202020202030303B0
:100130000303030303040404040404040505050580
:100140000506060606060707070707080808080940
:100150000909090A0A0A0B0B0B0C0C0C0D0D0D0EEC
:100160000E0E0F0F0F101011111112121313141481
:10017000151516161717181819191A1A1B1B1C1DF6
:100180001D1E1E1F2020212222232424252626274F
:100190002829292A2B2C2D2D2E2F30313232333481
:1001A00035363738393A3B3C3D3E3F404142434487
:1001B00045464748494A4C4D4E4F50515354555669
:1001C00058595A5B5D5E5F616264656668696B6C15
:1001D0006D6F7072737577787A7B7D7E8082838590
:1001E00087888A8C8E8F91939596989A9C9EA0A2D0
:1001F000A3A5A7A9ABADAFB1B3B5B7BABCBEC0C2DA
:10020000C4C6C9CBCDCFD1D4D6D8DBDDDFE2E4E79D
:10021000E9EBEEF0F3F5F8FAFDFFFFAA7F55401E7B
:100220000F0500047F3F1F643214643214783C1EB3
:100230001E140A050000000000000000000000007D
:1002400000000000000000000000000000000000AE
:1002500000000000000000007E0F00D4FFFFFFC779
:100260000000007800000000000000002A2B280099
:100270000000000000000000000000000000002955
:10028000000000002C1E3420212224342627252E95
:10029000362D3738271E1F202122232425263333CD
:1002A000362E37381F0405060708090A0B0C0D0EF9
:1002B0000F101112131415161718191A1B1C1D2FC5
:1002C0003130232D350405060708090A0B0C0D0EE5
:1002D0000F101112131415161718191A1B1C1D2FA5
:1002E0003130354C2223252628292A2C2D2F303237
:1002F000333536383A3B3D3E4042434547494A4C08
:100300004E5051535557595A5C5E60626466686935
:100310006B6D6F71737577797B7D7F81838587893D
:100320008A8C8E90929496989A9C9E9FA1A3A5A742
:10033000A8AAACAEAFB1B3B4B6B8B9BBBCBEBFC16E
:10034000C2C3C5C6C7C9CACBCCCDCED0D1D2D2D3F9
:10035000D4D5D6D7D7D8D9D9DADADBDBDBDCDCDC0D
:10036000DCDCDDDDDDDDDCDCDCDCDCDBDBDBDADAD0
:10037000D9D9D8D7D7D6D5D4D3D2D2D1D0CECDCC47
:10038000CBCAC9C7C6C5C3C2C1BFBEBCBBB9B8B65C
:10039000B4B3B1AFAEACAAA8A7A5A3A19F9E9C9AE7
:1003A00098969492908E8C8A89878583817F7D7BB5
:1003B00079777573716F6D6B6968666462605E5C96
:1003C0005A5957555351504E4C4A4947454342405C
:1003D0003E3D3B3A3836353332302F2D2C2A2928F2
:1003E00026252322130012000C0018001C003300E5
:1003F0000F000E000D000B00340037003600100017
:10040000110000002E002D002C6228640000025113
:1004100030002F684D0014001A0008001500170066
:1004200004001600070009000A001D001B0006005A
:100430001900050000002F0030002A624C61000006
:10044000015135002B004A004B0001005200010011
:10045000A9004E004F0051005000A80031023802A0
:1004600031003800AA000000F400F400010001008F
:1004700000000100010001000100005C0100F0002B
:10048000010001000100F200F100F3000100010091
:100490000100010001000100000001000100010055
:1004A00001000000010001000100010043004200C2
:1004B000410040003F0027002600250024002300C3
:1004C000270226022502240223020000015C005CB0
:1004D00001000100000001000100010001003A00DC
:1004E0003B003C003D003E001E001F00200021009C
:1004F00022001E021F0220022102220200004400EC
:1005000045000100010000000100010001000100A0
:1005100005010902A10185020901A10005091901CE
:10052000290815002501950875018102050109308A
:1005300009311581257F95027508810609381581D5
:10054000257F950175088106050C0A38021581255D
:100550007F950175088106C0C005010980A101854C
:100560000319012AB700150126B7009501751081FE
:1005700000C0050C0901A101850419012AA002157A
:100580000126A002950175108100C00660FF096177
:10059000A1010962150026FF009520750881020956
:1005A00063150026FF00952075089102C00501091A
:1005B00006A101050719E029E71500250195087531
:1005C0000181029501750881010507190029FF15B0
:1005D0000026FF0095067508810005081901290508
:1005E000950575019102950175039101C009025BA2
:1005F00000030100A0FA0904000001030101000941
:1006000021110100012240000705810308000A09A9
:10061000040100020300000009211101000122224F
:1006200000070582032000010705030320000109DC
:100630000402000103000000092111010001227BD6
:10064000000705840320000A1201100100000008C1
:100650004D4435340100010200013C036800610093
:100660006E006400770069007200650064002F006E
:10067000640061006300740079006C005F006D002D
:1006800061006E00750066006F0072006D002F0043
:10069000340078003500000014034F0068004B0060
:1006A00065007900630061007000730000000403BE
:1006B000090411241FBECFEFDAE0DEBFCDBF04B6C0
:1006C00003FE27C080911C0390911D03A0911E037F
:1006D000B0911F038730904BA740B04BD1F41092DC
:1006E0001C0310921D0310921E0310921F0314BED0
:1006F00084B7877F84BF0FB6F894A8958091600077
:10070000886180936000109260000FBEE0E0F8E323
:10071000099511E0A0E0B1E0ECE0F0E602C0059040
:100720000D92AC3BB107D9F723E0ACEBB1E001C0CF
:100730001D92AC31B207E1F70E94B70C0C94043063
:100740000C9400009091C70192FF0DC0282F2871D2
:10075000283019F4877F846006C0282F2471243044
:1007600011F48B7F886093FF0DC0282F28712831EA
:1007700019F4877E846106C0282F2471243111F476
:100780008B7E88612091C80120FF0DC0382F387101
:10079000383019F4877F816006C0382F31713130CD
:1007A00011F48E7F886021FF0DC0282F2871283119
:1007B00019F4877E816106C0282F2171213111F43F
:1007C0008E7E886194FD877E08950F931F9341E08C
:1007D00050E060E070E08A019B0104C0000F111F2F
:1007E000221F331F8A95D2F7C901B8010E94491D03
:1007F0001F910F910C948C1F25E0EEEFF1E0DC01CE
:1008000001900D922A95E1F72091E2013091E301E8
:100810004091E401FC0125833683478308951092BB
:10082000E40108958091E4010895309105018091DB
:10083000FE0180FF16C0E091040163E0E69FF00135
:100840001124ED57FD4F539A8BB1877F9BB1986070
:100850002FB7F894AF0163E0369F400D511D11246E
:1008600014C08091060190910701891720F7E82FA5
:10087000F0E0AF01440F551FE40FF51FED57FD4F9A
:100880001182108212828F5FF0CFE417F50789F092
:10089000319168E09BB9000000C037FF8BB9330F7E
:1008A000000000C000C000C08BB900C06A9591F77D
:1008B000ECCF2FBF8FE594E00197F1F700C0000067
:1008C00008959091FE0190FF16C09091060120912D
:1008D0000701921770F4E92FF0E0DF01AA0FBB1FA8
:1008E000EA0FFB1FED57FD4F8183608342839F5FBB
:1008F000F0CF0C94150408958091FE01282F2695C1
:1009000030E02115310519F48170826005C02B3269
:10091000310524F0817084658093FE010895CF92A3
:10092000DF92EF92FF926B017C010E947C04B70181
:10093000A60188E090E0FF90EF90DF90CF900C94BC
:10094000142F80910202882319F0815080930202B3
:100950006091FE017091FF0180910002909101026F
:100960000C948F0480910202833018F48F5F80937F
:1009700002026091FE017091FF018091000290914E
:1009800001020C948F04EEEFF1E083E0808311828A
:100990008FEF828383831482A2EEB1E012968C9152
:1009A0001297836012968C9360817181828193810A
:1009B0000C948F04AF92BF92CF92DF92EF92FF928E
:1009C0000F931F93CF93DF93E82EF62EE901E42FC8
:1009D000F0E0611106C0E65EFE4FE4914E2F2E2F2F
:1009E00071C0062F10E0E65EFE4F4491F42FC42E36
:1009F000D12C26E0829FC00111242FEF30E0B901F5
:100A00000E94B32F5BEA5603C001579F900D11243B
:100A10008E0D911D8E0D911D582F550F580FD90118
:100A2000A01BB10BAC9DC001AD9D900DBC9D900D68
:100A30001124E92FF59ED0011124AB2FBB2779019A
:100A4000EA1AFB0AEC9CD001ED9CB00DFC9CB00DA9
:100A500011245901A51AB108A09E7001A19EF00CA5
:100A6000B09EF00C1124EF2CFF242E193F092C9D71
:100A700080012D9D100D3C9D100D1124212F623001
:100A8000710591F048F461157105E1F0613071056F
:100A9000B9F4242F4B2F16C06430710569F040F073
:100AA0006630710579F00CC0242F492FE12F0AC060
:100AB000492FEF2F2B2F06C0292FE42F412F02C0E3
:100AC000292FEB2F49832883EA83DF91CF911F9150
:100AD0000F91FF90EF90DF90CF90BF90AF9008956F
:100AE000CF93DF9300D01F92CDB7DEB79091FE0178
:100AF00090FF0AC09E012F5F3F4F0E94DA044B8196
:100B000069818A810E9461040F900F900F90DF919C
:100B1000CF910895AF92BF92CF92DF92EF92FF9262
:100B20000F931F93CF93DF9300D01F92CDB7DEB703
:100B3000182FF62E042FE22E9091FE0190FF7EC01A
:100B4000E92FE695AE2FB0E0A85CBE4F8C91809364
:100B5000E2019E7F923061F49E012F5F3F4F812F13
:100B60000E94DA044B8169818A810E94610443C03A
:100B7000823019F4009101023EC0863019F41091C0
:100B8000FF0139C08930D9F38931A9F5E9518E2F98
:100B90008170D82EE695F0E0E65EFD4FA590B4900A
:100BA000C12CBB2460910801C61618F52C2D30E02D
:100BB000A29EC001A39E900DB29E900D112470E0E4
:100BC0000E94B32F812FD11002C0860F01C0861B57
:100BD00090910601290F311DA901440F551F240FC3
:100BE000351F2D573D4F402F6F2D0E94DA04C394BF
:100BF000D9CF0E9415048091FF01181308C080917D
:100C00000002F81204C080910102081729F08091B7
:100C1000E40182608093E4011093FF01F0920002EE
:100C200000930102EE2051F06091FE017091FF01EE
:100C300080910002909101020E948F040F900F900A
:100C40000F90DF91CF911F910F91FF90EF90DF9068
:100C5000CF90BF90AF900895EEEFF1E0438121E196
:100C6000421B08F440E021E0628181810C948A05F6
:100C7000EEEFF1E0438121E1420F08F44FEF21E074
:100C8000628181810C948A05EEEFF1E0628121E1BD
:100C9000621B08F460E021E0438181810C948A05A5
:100CA000EEEFF1E0628121E1620F08F46FEF21E0E5
:100CB000438181810C948A05EEEFF1E0818121E08E
:100CC0004381628188500C948A05EEEFF1E08181C6
:100CD00021E043816281885F0C948A050E94C21AD8
:100CE0002091EE01211104C02091EF01222321F077
:100CF0009093EB018093EA012091F001211104C04F
:100D00002091F101222321F09093E7018093E601E5
:100D1000E091D601F091D701309749F082E08093BD
:100D2000EC010480F581E02D8CEE91E009940895AA
:100D3000803F39F49091EF0197FF35C01092EF0199
:100D400059C0813F29F49091EF011916BCF32BC0D3
:100D50009091EE01823F29F497FF25C01092EE0199
:100D600049C0833F19F41916CCF31DC09091F001CE
:100D7000893F29F41916BCF41092F0013BC08A3F58
:100D800019F497FF10C0F8CF8B3F39F49091F1011F
:100D900097FF09C01092F1012DC08C3F21F4909172
:100DA000F1011916BCF39CE0980F953080F421E016
:100DB00030E0A90102C0440F551F9A95E2F7CA011D
:100DC00080959091ED0189238093ED0113C08D3FB3
:100DD00021F4809117028E7F0BC08E3F21F4809109
:100DE00017028D7F05C08F3F29F4809117028B7FFA
:100DF000809317028091EE01811106C08091EF016E
:100E0000811102C01092E9018091F001811106C0A8
:100E10008091F101811102C01092E5010895809145
:100E2000170280FF08C06091250170E075956795F5
:100E30007595679521C081FF06C06091250170E01E
:100E40007595679519C082FF04C06091250170E017
:100E500010C09091E501992399F0609124019617B3
:100E6000A0F780912501899FC001112470E00E94A4
:100E7000C72F6038710540F46115710519F406C07B
:100E800061E070E0862F08958FE7089581E008956E
:100E90008091170280FF0BC06091270185E0689F59
:100EA000B001112475956795759567952BC081FFE5
:100EB00009C06091270185E0689FB00111247595F4
:100EC000679520C082FF07C06091270185E0689F79
:100ED000B001112417C09091E9019923D1F06091DC
:100EE0002601961788F72091270185E0289F900119
:100EF0001124929FA001939F500D112470E0CA010C
:100F00000E94C72F6038710540F46115710519F40E
:100F100006C065E070E0862F08958FE7089581E0B0
:100F20000895803F21F40E944807819504C0813FC5
:100F300029F40E9448078093EF010895823F21F42D
:100F40000E944807819504C0833F29F40E94480706
:100F50008093EE010895893F19F40E940F0705C0A0
:100F60008A3F31F40E940F0781958093F001089524
:100F70008B3F21F40E940F07819504C08C3F29F418
:100F80000E940F078093F10108959CE0980F95301F
:100F900078F421E030E0A90102C0440F551F9A9572
:100FA000E2F7CA019091ED01892B8093ED0108953C
:100FB0008D3F21F48091170281600BC08E3F21F498
:100FC00080911702826005C08F3F29F4809117023B
:100FD0008460809317020895833011F128F48130E2
:100FE00049F0823091F00895853081F120F186300A
:100FF000C1F108958091E801681720F4861B809361
:10100000E80108951092E801089580910A01681797
:1010100020F4861B80930A01089510920A01089516
:1010200080912701681720F4861B8093270108957B
:1010300010922701089580912601681720F4861BDD
:10104000809326010895109226010895809125012C
:10105000681720F4861B80932501089510922501BE
:10106000089580912401681720F4861B8093240141
:101070000895109224010895833081F128F481307D
:1010800059F08230D1F00895853009F449C0B8F1A3
:10109000863009F456C008958091E801262F30E08B
:1010A000280F311D2F3F310524F4680F6093E801AC
:1010B00008958FEF8093E801089580910A01262F0B
:1010C00030E0280F311D2F3F310524F4680F609365
:1010D0000A0108958FEF80930A01089580912701F6
:1010E000262F30E0280F311D2F3F310524F4680FE3
:1010F0006093270108958FEF8093270108958091D1
:101100002601262F30E0280F311D2F3F310524F412
:10111000680F6093260108958FEF8093260108954C
:1011200080912501262F30E0280F311D2F3F3105FA
:1011300024F4680F6093250108958FEF80932501B3
:10114000089580912401262F30E0280F311D2F3F74
:10115000310524F4680F6093240108958FEF809384
:10116000240108958B3109F474C058F58B3009F4CB
:1011700092C078F4863009F446C020F4853009F432
:101180004CC08BC0873009F456C0883009F483C046
:1011900084C0803109F470C068F48E3009F07DC0DD
:1011A0008091F30182FB222720F991E0922790FBA6
:1011B00082F958C0863109F46EC0893109F46BC0D8
:1011C0006CC08A32E9F060F4873209F461C028F417
:1011D0008E3108F462C08D515CC08932F1F05DC07F
:1011E000833450F48A3308F051C0853309F450C079
:1011F000883309F450C051C0833409F449C04DC04C
:101200000E94381B48C08091F301817F8E7F8093BC
:10121000F30181E08093050308950E948C1F2FEF56
:1012200084E39CE0215080409040E1F700C0000042
:101230000E94381A30C08091F301982F90959170D8
:1012400090FB80F98093F301911125C0897F877FFE
:1012500010C08091F30181FB222720F991E09227B1
:1012600090FB81F98093F3019923A9F08091F30118
:1012700081608093F3010FC08091F30183FB2227EB
:1012800020F991E0922790FB83F9ECCF895301C0BC
:1012900080E00E94E50381E0089580E00895809158
:1012A000C201811118C08091D80080618093D8005C
:1012B0008AE18A95F1F700C08091D90080FD02C0D3
:1012C00082E001C081E08093C201823021F40E945B
:1012D00031281092F60281E09091C201913009F01C
:1012E00080E00895F894E82FE295EF70F0E031A1E6
:1012F000282F2F7081E090E001C0880F2A95EAF72F
:10130000982F9095932391A392A1892B82A37894EF
:1013100008958F929F92AF92BF92CF92DF92EF92F9
:10132000FF920F931F93CF93DF9300D000D01F92B3
:10133000CDB7DEB703E611E089ECC82E81E0D82EE8
:101340004601F12CAA24A394B12CB801D8018C91A8
:10135000F894E82FE295EF70F0E021A18F70A501DD
:1013600002C0440F551F8A95E2F7CA01922F982BAD
:1013700091A392A18095892382A3789400C0EDE681
:10138000F1E020E030E0E12C4191842F82958F70D4
:1013900090E0DC0190968C9190E04F7002C09595A2
:1013A00087954A95E2F780FD07C08A2D022E01C07D
:1013B000880F0A94EAF701C080E0E82A2F5F3F4FC8
:1013C0002530310509F70F5F1F4FFB0180810E9417
:1013D0007209F0EAFA95F1F7D4018C91E81619F048
:1013E000EC9281E001C080E0F82ABFEF8B1A9B0AE3
:1013F000E1E008361E0709F0A8CF1091D401FF20C4
:1014000049F081E08093C0010E94C21A9093BF010D
:101410008093BE018091C0018823B9F08091BE0104
:101420009091BF010E946F1A069778F0E12FF0E0CB
:10143000ED5FFD4FD6018D916D018193BEECCB1612
:10144000B1E0DB06B9F71092C0010E944F0960912C
:10145000D4018823E9F18E010F5F1F4F85E0F80169
:1014600011928A95E9F7862F90E0B8018D5F9D4F24
:101470000E94812C811115C08091C1018F5F8093E2
:10148000C101863078F1E091D301F0E0ED5FFD4FCE
:1014900080E090E01192019685309105D9F781E0C6
:1014A00022C01092C101E091D301F0E0ED5FFD4F49
:1014B000D8019E012A5F3F4F80E09D9140814917EE
:1014C00011F0908381E03196A217B307B1F70BC0FA
:1014D00070E06D5F7D4F8091D30190E08D5F9D4FF7
:1014E0000E94AF2C80E0FF2011F081E090E00F908F
:1014F0000F900F900F900F90DF91CF911F910F9150
:10150000FF90EF90DF90CF90BF90AF909F908F9023
:101510000895CF93DF930E94B624EC0182389105A1
:1015200059F1A0F48133910509F473C040F4893274
:10153000910509F467C08A9709F472C084C08533A5
:10154000910509F458C0C997B9F07DC0833E910553
:1015500071F138F4803E9105B1F0823E910511F1B0
:1015600072C0863E9105B9F1873E9105C9F1843E6E
:10157000910509F068C024C08091C70180FD5DC05D
:1015800081FD5BC060C08091C70180FD50C080912B
:10159000C80180FF49C18091C70184FD43C1C3EEEA
:1015A000D0E042C18091C70182FF3EC1F4CF80915B
:1015B000C70182FD3FC08091C80180FD3EC0EBCFD6
:1015C0008091C80181FF30C18091C70184FD2AC18B
:1015D000C7EED0E029C18091C70183FF25C1F4CFB8
:1015E0008091C70183FD2CC08091C80181FFECCFA1
:1015F000C4EED0E019C18091C70185FF15C1C9E2D1
:10160000D0E012C18091C70185FF0EC1C5E3D0E0D3
:101610000BC18091C70186FF07C1CAE2D0E004C1B7
:101620008091C70186FF00C1C1E3D0E0FDC0C9E3DE
:10163000D0E0FAC0C2EED0E0F7C0C0EED0E0F4C017
:10164000C6EED0E0F1C0C11581E5D80708F066C04C
:10165000C11520E5D207E0F0CE0174E0969587959C
:101660007A95E1F783709C2F937021E030E002C0FF
:10167000220F331F9A95E2F73C68382BCF70C6953E
:10168000C69540E2C49FE0011124C22BD32BCCC0ED
:10169000C83ED10560F5C03ED10508F0C5C0C83AC6
:1016A000D105B0F4C53AD10540F0C55AD0E0C557D0
:1016B000DE4FC881D0E0D064B7C0C130D10509F495
:1016C000B3C008F4AFC0C430D10508F4ABC0ACC09F
:1016D000CF3BD10508F0A6C0C85AD0E0CC0FDD1F23
:1016E000C257DE4F0990D881C02DD4649DC0C1156A
:1016F00040E2D40758F4C11581E0D80708F094C03F
:10170000C03FD10508F48EC0D0658EC0C11520E45D
:10171000D20708F487C0DF70D06A86C0C11545E5DE
:10172000D40708F042C0C11584E5D80728F0DC2FA3
:10173000CC27C46FD06A78C0C11523E5D207B0F0BA
:10174000CE018370992721E030E002C0220F331FC1
:101750008A95E2F78C2F8695869540E2849FC0019A
:101760001124E901C82BD92BDA685EC0C11542E506
:10177000D40728F4DC2FCC27C16FD06A55C0CE0126
:101780008370992721E030E002C0220F331F8A9531
:10179000E2F78C2F8695869540E2849FC001112444
:1017A000E901C82BD92BDC683FC0C11589E5D807F2
:1017B000B8F4C11528E5D20728F0DC2FCC27C06F7C
:1017C000D06A32C0C11546E5D40760F58C2F0E945F
:1017D000A2038F71C82FD0E0DC2FCC27D06224C0A9
:1017E000C1158AE5D80780F48C2F8F700E94A20360
:1017F00094E0D695C7959A95E1F7CF70D0E0DC2FAD
:10180000CC27D069C82B10C0CE01905681159042CC
:1018100048F48D2F8F710E94A203DD27D0628F7153
:10182000D82B02C0C0E0D0E0CE01DF91CF91089567
:10183000EEEFF1E080818E7F80830E94DB24E2EE78
:10184000F1E08281816082832FEF80E792E0215076
:1018500080409040E1F700C000000C941504909186
:10186000FE0190FF3BC09170811102C0926006C0E2
:101870008B3210F0946502C0880F982B9093FE0174
:101880008091E40181608093E401662351F06091CE
:10189000FE017091FF0180910002909101020E946F
:1018A0008F046091FE01669570E04BE050E085E1A9
:1018B00091E00E94F72F892B19F00E94DB2402C0CF
:1018C0000E94E22481E08093DF0120E04091010248
:1018D000609100028091FF010C948A0508951F9386
:1018E000CF93DF93EC01162F8F8180FF0FC088818B
:1018F00080FF0AC08091FE0181608093FE01888193
:1019000086950E942F0C02C00E94180C8F8181FFC7
:1019100006C0212F4B816A8189810E948A058F81AF
:1019200082FF08C08E81882319F00E94E22402C041
:101930000E94DB248F8183FF03C081E08093DF015D
:10194000DF91CF911F9108958091FE01869581507E
:1019500009F48AE261E00C942F0C8091FE018695D7
:101960008F5F8B3208F081E061E00C942F0CCF93F5
:10197000DF93CDB7DEB7AA970FB6F894DEBF0FBEE0
:10198000CDBF84B7877F84BF0FB6F894A8958091A8
:101990006000886180936000109260000FBE90E04C
:1019A00080E80FB6F89480936100909361000FBEB9
:1019B00085B7806885BF85B7806885BF81E999E173
:1019C0009093BD018093BC010E9431280E94502851
:1019D0008091E20084608093E20078948091F60226
:1019E0008823A1F01091E9001F709091EC00892FDD
:1019F000817090FD80E8182B1092E9008091E8003A
:101A000083FD0E941B251F701093E90082E084BDB6
:101A100093E095BD9AEF97BD80936E001092C3013D
:101A20001092C4011092C5011092C6018EE090E0A0
:101A30000E94EE2E91E0811101C090E09093090187
:101A400080910901882321F01092040186E003C0EF
:101A500086E080930401809305010E944F09811163
:101A60000E94582C8091090180910901882311F06E
:101A700090E001C095E09093D40185E0891B8093AC
:101A8000D30187EF0E94720981E30E94720983E308
:101A90000E94720982E30E94720986E30E94720921
:101AA00086E60E94720987E90E94720986EC0E940C
:101AB000720984E30E94720985E30E947209E9ECCD
:101AC000F1E083ED91E0A3E0B2E011921D928E1758
:101AD0009F07D9F780E090E00E94FC2E8A3E9E4F3F
:101AE00011F00E94381B82E090E00E94EE2E80935D
:101AF000F3010E94271B9093C8018093C7010E94A5
:101B000089098FE39CE90197F1F700C000000E946A
:101B100089098091030280FF17C06FEF83E290E094
:101B20000E94022F6FEF84E290E00E94022F6FEF7D
:101B300085E290E00E94022F6FEF7FEF80E090E05F
:101B40000E94202F0E94381A83E090E00E94EE2E1F
:101B5000682F70E080E090E00E94491D0E944F09CC
:101B6000811102C00E945E2C83E290E00E94EE2E62
:101B7000813281F484E290E00E94EE2E873051F4AD
:101B800085E290E00E94EE2E91E0843109F090E031
:101B9000892F01C080E080FF84C48091D50181112C
:101BA0003BC080E090E00E94FC2E8A3E9E4F21F0D8
:101BB0000E94381B0E94C30488E090E00E94F62E29
:101BC0006093FE017093FF018093000290930102E5
:101BD0008091E40183608093E4016E7F71F40E9440
:101BE000C30488E090E00E94F62E6093FE0170939B
:101BF000FF0180930002909301020E947C040E94E6
:101C0000DB248091FE0180FF04C060E086950E9485
:101C10002F0C81E08093D5018BE091E09093D70168
:101C20008093D601B8E16B2E712C10E4312E00E1C7
:101C3000402E80E1582E9E012F5F3F4F79015E01BB
:101C40003DE0A30EB11C8091F602853009F03FC043
:101C500012E18091F602853009F035C08091F602DC
:101C6000843009F11092D8010FB6F894A8956092CB
:101C700060000FBE3092600083B7817F846083BFB5
:101C800083B7816083BF7894889583B78E7F83BF45
:101C90000FB6F894A89580916000886180936000E9
:101CA000109260000FBE8091F502882391F20E948D
:101CB0008909E3E0F2E081918111D4C342E0ED3083
:101CC000F407C9F7C6CF0E948C1F0E94CD230E9443
:101CD000890981110E947E1AA4EFB1E0E3E0F2E0ED
:101CE00000E010E0802E91908D91892549F1C12C62
:101CF000DD24D394982F9D21F1F00E944F09882371
:101D000099F0C9A28AA29D2081E009F480E08BA30A
:101D10000E94C21A8160782F9DA38CA349A15AA169
:101D20006BA18DA10E940323F801EC50FE4F80812E
:101D3000D826D0821AC0C394DD0C95E0C912DACF40
:101D40000F5F1F4F0A30110569F68FEF8EA38FA327
:101D500018A60E94C21A8160782F9AA789A74EA15F
:101D60005FA168A58AA50E9403238091E3018823CF
:101D700009F4CFC08091E201E091FE01E695E81BF5
:101D8000E093DE01823059F4F0E0E05DFD4FE49134
:101D90000E2F10E0AFEECA2EA2E2DA2E6BC0863014
:101DA00059F4F0E0E35DFD4FE4910E2F10E0FFEDFC
:101DB000CF2EF2E2DF2E5EC0893061F4E695F0E0CE
:101DC000E65DFD4FE4910E2F10E0E4E6CE2EE2E258
:101DD000DE2E50C08F3061F4E695F0E0E95DFD4FF6
:101DE000E4910E2F10E077ECC72E71E2D72E42C09F
:101DF000853159F4F0E0EC5DFD4FE4910E2F10E0D9
:101E000061E4C62E61E2D62E35C08831F9F0833206
:101E100049F4E2E2F2E0059114915FE9C52E52E245
:101E2000D52E28C08432C9F08532F1F48E2F63E0BC
:101E30000E94992FE92FF0E0E15EFD4FE4910E2F13
:101E400010E048E9C42E4FE1D42E14C008E210E09F
:101E50003EEAC32E30E2D32E0DC004EF11E02FE690
:101E6000C22E20E2D22E06C000ED17E097E9C92E5F
:101E70009FE1D92E8091DF01882361F01092DF016C
:101E80000E94CE1A9093DD018093DC011092E10153
:101E90001092E0010E94CE1AE091DC01F091DD0188
:101EA0009C012E1B3F0B2F3F3F4798F52091DB01F4
:101EB0002223B1F01092DB012091D9013091DA0197
:101EC000821B930B8F3F9F4758F4205D3A48309315
:101ED000DA012093D9018091E40188608093E401C4
:101EE0008090E0019090E1010E0F1F1F1093DD0123
:101EF0000093DC018CED91E0F60109958091E00101
:101F00009091E101892B29F4892819F081E08093CF
:101F1000DB0186E0ECEEF1E0D70101900D928A95AD
:101F2000E1F7C090EE01D090EF010091F001109127
:101F3000F1011092EE011092EF011092F001109257
:101F4000F101C11003C0DD2009F45DC08091EA01F8
:101F50009091EB010E946F1AAC019091E9019923D5
:101F600039F020910A0130E02417350758F04BC0B2
:101F70002091E801FAE02F9F9001112424173507E2
:101F800018F041C09F3F19F09F5F9093E901CC206A
:101F900061F00E9448071C1414F491E001C09FEF07
:101FA000899F802D11248093EE01DD2061F00E9435
:101FB00048071D1414F491E001C09FEF899F802D04
:101FC00011248093EF013091EE013323E1F0209151
:101FD000EF012223C1F045EB3403C0011124992302
:101FE00019F09093EE0103C081E08093EE0135EB90
:101FF0002303C0011124992319F09093EF0103C02A
:1020000081E08093EF01011103C0112309F451C055
:102010008091E6019091E7010E946F1A9C019091D6
:10202000E501992309F456C22536310508F441C06B
:102030009F3F19F09F5F9093E501002361F00E949C
:102040000F07101614F491E001C09FEF899F802DB7
:1020500011248093F001112361F00E940F071116E3
:1020600014F491E001C09FEF899F802D112480938B
:10207000F1013091F0013323E1F02091F1012223AD
:10208000C1F045EB3403C0011124992319F090935A
:10209000F00103C081E08093F00135EB2303C00120
:1020A0001124992319F09093F10103C081E08093EA
:1020B000F1018091EE0181110BC08091EF0181113E
:1020C00007C08091F001811103C08091F10181115D
:1020D0000E946E06CB82DC820D831E8386E0F701B0
:1020E000ACEEB1E001900D928A95E1F70E94CD230C
:1020F0009091F201891721F00E94CD238093F20183
:102100008091F602843009F09ECD83E08093E9004F
:102110008091E80082FF97CD8091E80085FF21C083
:102120000E94862981111BC080E2C82ED12C870114
:1021300009C08091F100F80181938F01F1E0CF1A7D
:10214000D10869F08091E80085FDF3CF8091E80027
:102150008B778093E8000E948629882399F391E089
:1021600001C090E08091E8008B778093E80099238C
:1021700009F469CDE9818E2F90E0FC013197E331BC
:10218000F10508F047C1EA5AFF4F0C94DB2F1A8281
:1021900089E0A5C08A81823009F47AC1833051F088
:1021A000813009F037C10E947E1A9B838C837D8326
:1021B0006E8332C1FE013396A3E0B2E08D9181932C
:1021C000EA15FB05D9F728C18A81823009F022C1BE
:1021D0006B817C818D819E810E94E12F86E290E05F
:1021E00024C04C816B818A810E9490249D8357C1B9
:1021F0000D811E811027012710278C81CB809A81A9
:102200002AE0C29E6001112434E6939FC00CD11CC9
:102210001124C80ED11CC80ED11C612FC60187968F
:102220000E94022F602FC60188960E94022FF4C0E0
:102230000E945C24F1C08A818138B1F050F480386A
:1022400009F0EAC020E04B81609100028091FF011B
:1022500023C08238E9F0833809F0DEC020E04091E5
:1022600001026C818B8118C060E08B810E942F0C71
:102270008B81811103C00E94180CCEC08091FE0199
:1022800081608093FE0160E086950E942F0CC4C09F
:102290008B8180930202C0C00E948A05BDC08A81E2
:1022A000813899F030F4803809F0B6C0809101028D
:1022B00016C0823891F0833809F0AEC08091FF01DA
:1022C0008B83809100028C83A7C08091FE0180FFE8
:1022D00002C0869504C080E002C0809102028B8318
:1022E0009BC06091FE017091FF018091000290916E
:1022F00001020E948F0490C05A828EC082E08A83BD
:1023000089E4EDCF0A811B811027012710278C80DB
:10231000912C6701C80189549E4F96012E193F09DF
:102320002815390508F078C0093442E0140728F46C
:102330000E94EE2EF601848302C0F60114820F5F24
:102340001F4FFFEFCF1ADF0AE5CF0A811B8110274D
:10235000012710278C80912C6701C80189549E4F5A
:1023600096012E193F092815390508F055C0093482
:1023700022E0120720F4F60164810E94022F0F5F11
:102380001F4FFFEFCF1ADF0AE8CF0E944C2444C052
:1023900084E08A8341C00A811B811027012710270E
:1023A0008C80912C6701C801879696012E193F09F0
:1023B0002815390588F5003921E0120728F40E9414
:1023C000EE2EF601848302C0F60114820F5F1F4FC8
:1023D000FFEFCF1ADF0AE7CF0A811B811027012701
:1023E00010278C80912C6701C801879696012E19C1
:1023F0003F092815390580F4003921E0120720F43F
:10240000F60164810E94022F0F5F1F4FFFEFCF1A6A
:10241000DF0AEACF8FEF89838091F602843009F0DA
:1024200012CC1091E9001F709091EC00892F8170FF
:1024300090FD80E8182B82E08093E9008091E8000D
:1024400080FF0CC040E050E060E270E0C7010E94F5
:10245000B9298091E8008E778093E8001F7010936F
:10246000E900F1CB49BC19BD09B400FEFDCF809154
:10247000D8008F7D8093D8008091E00082608093A7
:10248000E0008091E00081FDFCCF0E948C1FE1CB39
:1024900086E290E00E94EE2E1B821C821D828E83BB
:1024A000BBCF60E086E290E00E94022F0E945C2495
:1024B0000E944C2461E283E290E00E94022F67E0D8
:1024C00084E290E00E94022F64E185E290E00E94A5
:1024D000022F63CB232B09F0ADCDEBCD3F924F9272
:1024E0005F926F927F928F929F92AF92BF92CF92A4
:1024F000DF92EF92FF920F931F93CF93DF93CDB7AD
:10250000DEB729970FB6F894DEBF0FBECDBFFC0132
:102510008081918123813481232B31F09F3F31F4DD
:1025200091E08F3F19F403C091E001C090E090FD6D
:10253000DDC67F0185E0DE01119601900D928A953E
:10254000E1F7F701228189819A81222349F00E94D3
:102550000D1C182F682F89819A810E94B01C03C01E
:102560000E94831C182F69817A81812F0E94B624D2
:102570008C01F7018281882309F4F2C0980122516D
:102580003F452031310508F019C18FEF93E00E94DB
:10259000EE2E8111EFC0025137EB832E99249394D4
:1025A000002379F08114F4E09F0609F4E3C0C4012C
:1025B0000E94EE2E811101C001501FEF811A910A75
:1025C000EFCF1E821F8218861986442443942AE086
:1025D000322E84010F5F1F4FC4010E94EE2E8E83A6
:1025E0001F82882309F4C6C09FEF980F933060F4D0
:1025F0008F834E8222E0820E911CC8010E94EE2E33
:102600008887811102C0B6C048018E010A5F1F4F42
:10261000F80120812223E9F2213009F04CC08181A8
:10262000813049F46801F2E0CF0ED11CF8018281BB
:102630000E94882B0AC0823051F46801F2E0CF0E6C
:10264000D11CF80182810E94612A860186C08330F4
:1026500049F46801F2E0CF0ED11CF80182810E949A
:10266000FA29F3CF843019F00F5F1F4F76C0F801BD
:1026700022810E5F1F4F80E090E030E0205331094F
:102680002A30310568F4389EA001399E500D11247E
:10269000C901840F951F0F5F1F4FF8012081EDCFF7
:1026A000009709F45AC0EFE9FFE03197F1F700C055
:1026B00000000197F5CFE22FF0E0EC59FD4F549068
:1026C000822F86958695869590E0FC01EC5AFD4F09
:1026D00064902770712C022E02C0759467940A943E
:1026E000E2F7F1E06F227724FC01EC5BFD4FA49050
:1026F000B12C022E02C0B594A7940A94E2F731E0FF
:10270000A322BB24FC01EC5CFD4FC490D12C02C081
:10271000D594C7942A95E2F781E0C822DD2461149C
:10272000710419F081EE0E94612AA114B10419F01C
:1027300086EE0E94612A852D0E94882BAB2819F015
:1027400086EE0E94FA29672819F081EE0E94FA2984
:10275000CD2819F08CE20E94882B0F5F1F4F58CFB5
:1027600000313FE5130709F0E8C481E00E94E61C50
:102770000E94FD2480917302877009F4B7C5F701A8
:102780008281882309F4B2C582E029960FB6F894B5
:10279000DEBF0FBECDBFDF91CF911F910F91FF9094
:1027A000EF90DF90CF90BF90AF909F908F907F90F1
:1027B0006F905F904F903F900C940B1D0031FFE5A0
:1027C0001F0711F481E005C001312FE5120721F444
:1027D00082E00E94281DCCCF033FFCE51F0749F48F
:1027E00006E221EE40EE63EF7CE5C7010E94D923AB
:1027F000C1CF043F2CE5120708F049C1083D3CE574
:10280000130731F407E225EE45EE68ED7CE5EDCFE8
:10281000093D9CE5190731F408E221E045EE69ED38
:102820007CE5E3CF073DECE51E0731F406E221EE3F
:1028300041EE67ED7CE5D9CF882309F45DC11092A4
:102840000D0202309CE5190708F440C10631ECE5A1
:102850001E0730F0C8018A5F9C45099708F036C111
:102860000E94271B9093C8018093C7010031FCE5AB
:102870001F0709F4C3C008F041C008303CE5130746
:1028800009F49AC0F0F404309CE5190709F487C0F4
:1028900068F40230FCE51F0709F477C003301C45DB
:1028A00009F0E5C08091C701826076C006303CE542
:1028B000130709F46EC008F07BC08091C7018860DF
:1028C0006BC00C309CE5190709F485C068F40A3028
:1028D000FCE51F0709F474C008F079C00E948C1F42
:1028E0008091C701806858C00E303CE5130709F499
:1028F00076C008F07FC08091C7018BC00B3F9CE57C
:10290000190709F44FC018F50331FCE51F0709F456
:102910007DC078F401313CE5130709F473C002313E
:102920001C4509F0A4C00E948C1F8091C7018F77BD
:1029300033C005319CE5190709F472C008F486C05C
:102940000A3F1C4509F093C08091C8013EC00F3F6B
:102950002CE5120709F45FC058F40D3F8CE5180709
:1029600009F444C008F43FC08091C80182602DC0C2
:102970000130EDE51E0709F475C008F45DC00230B2
:102980001D4509F074C060E06EC08091C701816090
:1029900003C08091C70180618093C70168C08091A6
:1029A000C70111C08091C80182608093C8015FC0D7
:1029B0008091C7018062F0CF8091C7018064ECCF25
:1029C0008091C70188608460E7CF8160EECF8091FD
:1029D000C7018E7FE1CF8091C7018D7FDDCF8091D0
:1029E000C701877FD9CF8091C80118C08091C801E5
:1029F0008D7FDBCF8091C7018F7ECECF8091C701C5
:102A00008F7DCACF8091C7018F7BC6CF8091C701D0
:102A1000877F8B7FC1CF8091C8018D7F8E7FC5CF8F
:102A20008091C70182FB222720F991E0922790FB39
:102A300082F990FB83F9B0CF8091C801982F9095CF
:102A400091708E7F892B90FB81F9AFCF0E948C1FF4
:102A50008091C70187FB222720F991E0922790FB04
:102A600087F99ACF61E08EE090E00E94022F60919A
:102A7000C7011091C80184E090E00E94022F612FED
:102A800082E290E00E94022F0E948C1F73CE053FCD
:102A9000FCE51F0731F406E221EE42EE65EF7CE52E
:102AA000A4CE053F2CE5120730F407E225EE44EEF4
:102AB00064EF7CE59ACE063F3CE5130709F0BCCEF7
:102AC00007E225EE46EE66EF7CE58FCE06318CE51B
:102AD000180721F5809176028A7A91E009F490E056
:102AE00090930E02882311F065E301C069E28FE044
:102AF00092E00E940D1B0FC00631ECE51E0709F0A5
:102B000040C080910E02882309F41EC365E38FE064
:102B100092E00E94001B0E94A91B2CCE0A353DE5C5
:102B2000130749F158F401159CE51907B1F00E3D62
:102B30001C4509F042C00E94381B1CCE0B35FDE538
:102B40001F07D9F00C351D45C1F58091C80182FBE6
:102B5000882780F991E0892711C00E948C1F3FEFE0
:102B600084E39CE0315080409040E1F700C00000D9
:102B70000E94381AFFCD81E001C080E00E94F31B63
:102B80001CC08091760282720C3C3CE5130709F46C
:102B90008CC308F00BC3063CECE51E0709F471C3B7
:102BA00008F0E2C2033C2CE5120709F460C308F008
:102BB000CDC2023C1C4509F430C3F701828100817B
:102BC0001181882349F0C8010E940D1CD82E682F5E
:102BD000C8010E94B01C04C0C8010E94831CD82EEA
:102BE000B8018D2D0E94890A8C01982EF701D280A0
:102BF000A580A2949FE0A92280917302877099F02A
:102C0000DD2089F0812F807F803421F080E2800FE9
:102C1000883048F082E00E940B1D8091730287701B
:102C2000CC24C3948111C12CB12EB2948FE0B82270
:102C30008B2D90E08C30910508F04AC2FC01E759D9
:102C4000FF4F0C94DB2F812F807F1F70882311F0A2
:102C50001295107FDD20B9F0112309F424C280E21F
:102C6000800F883010F0911006C080917602182BEA
:102C70001093760205C080917502182B109375028F
:102C80000E94A91B10C2802F0E94FA29112309F467
:102C90001FC2005E1095083010F0911006C08091A0
:102CA000760218231093760205C0809175021823CE
:102CB000109375020E94A91B0BC2812F807F1F7089
:102CC000803211F01295107F992021F0F1E09F16CB
:102CD00011F130C0DD20B1F0AA2081F001E0A01296
:102CE0000DC08091C80182FDF3C180917702182B3D
:102CF000181709F4EDC110937702EAC180917702A9
:102D0000812B10C0AA2021F021E0A21609F4E0C115
:102D10000E94A31B27C0DD2041F035E03A1508F4DE
:102D2000D7C1812F0E94F029D3C184E08A1508F40D
:102D3000CFC118C0DD2049F0AA2099F3F7018581A1
:102D400080FFB1C18F708583ECCFAA2059F0093381
:102D500009F0BBC1FFEF17EE23E0F1501040204017
:102D6000E1F7B1C1812F0E94E529B2C1812F86957B
:102D70008695837019F0813059F0AAC1DD2019F0D1
:102D8000C801937002C080E090E00E94B723A6C102
:102D9000DD2019F0C801937002C080E090E00E942D
:102DA000A1239CC1802FDD2019F00E94910702C051
:102DB0000E9498060E946E0691C1812F837009F0CF
:102DC00069C0D11089C1902F929596959770990FEF
:102DD000990F802F8F70882E912CA12CB12C092E49
:102DE00004C0880C991CAA1CBB1C0A94D2F704FFCF
:102DF00012C04FE050E060E070E004C0440F551F87
:102E0000661F771F9A95D2F7DB01CA0180959095CE
:102E1000A095B09503C080E090E0DC011695169572
:102E2000412F4370423019F1C8F40091780210919B
:102E3000790220917A0230917B02413059F0882941
:102E40009929AA29BB29BC01CD01602371238223C2
:102E500093230AC0802A912AA22AB32ABC01CD0159
:102E6000682979298A299B290E94491D35C1882909
:102E70009929AA29BB290091780210917902209101
:102E80007A0230917B02BC01CD0160277127822735
:102E90009327EACFDD2019F0812F817001C086953C
:102EA000882309F419C1902F929596959770990FE0
:102EB000990F802F8F70882E912CA12CB12C092E68
:102EC00004C0880C991CAA1CBB1C0A94D2F704FFEE
:102ED00012C04FE050E060E070E004C0440F551FA6
:102EE000661F771F9A95D2F7DB01CA0180959095EE
:102EF000A095B09503C080E090E0DC011695169592
:102F0000412F43704230D9F068F5009100031091D1
:102F100001032091020330910303413059F08829C5
:102F20009929AA29BB29BC01CD01602371238223E1
:102F300093231EC0802A912AA22AB32A13C088296B
:102F40009929AA29BB29009100031091010320911E
:102F5000020330910303BC01CD0160277127822752
:102F6000932706C0BC01CD01682979298A299B29AC
:102F70000E94DC1CB1C01F70DD2039F0812F0E943F
:102F8000281D802F0E94F029A7C0802F0E94E529CC
:102F9000812F0E94E61CA0C0802F32EF931609F407
:102FA00040C0391538F090EF991661F0E1EF9E16A8
:102FB00099F174C0F3EF9F16D9F124EF921609F43A
:102FC0004EC06CC0DD2019F134E03A1508F480C021
:102FD0001F7181E090E0A0E0B0E0AC01BD0104C051
:102FE000440F551F661F771F1A95D2F78091000373
:102FF00090910103A0910203B09103038A019B0108
:10300000082719272A273B27C901B80125C025E031
:103010002A1508F45DC0DCCFDD2029F0812F8F71E7
:1030200030C0DD20D9F3812F8F710E94E61C50C083
:10303000DD2079F01F7181E090E0A0E0B0E0BC01FC
:10304000CD0104C0660F771F881F991F1A95D2F70C
:1030500003C060E070E0CB010E94DC1C39C0DD20C1
:1030600099F01F71812F0E94281D8091C80182FD57
:1030700007C038E0139FC00111248360809373025E
:10308000812F0E94281D24C081E00E940B1D81E039
:103090008A15F0F482E00E940B1D1AC0DD2039F081
:1030A000AA2009F4BBCF802F0E94612A11C0AA2058
:1030B00009F4B9CF893349F49FEFE7EEF3E091507B
:1030C000E040F040E1F700C00000802F0E94FA29A4
:1030D00088EF8B0D843010F40E94CD23CC2009F4AE
:1030E00005C18091730280FD01C1F70112828595AF
:1030F000859585950E94281DC7010E946E128091BA
:10310000730285958595859529960FB6F894DEBF4F
:103110000FBECDBFDF91CF911F910F91FF90EF9028
:10312000DF90CF90BF90AF909F908F907F906F90E7
:103130005F904F903F900C94E61C01319FE519077A
:1031400009F04ACB82E012CB69E2E1CC043C9CE579
:10315000190709F491C0053C1C4509F02ECD4CE53A
:1031600056E065E676E0A5C0093CFCE51F0709F4DA
:1031700092C070F4073C3CE5130709F487C0083C93
:103180001C4509F01ACD40E556E064E476E091C0B4
:103190000A3CECE51E0709F483C00B3C1C4509F012
:1031A0000CCD41EA54E062EB74E083C0013D2CE5B4
:1031B000120709F48AC098F40E3C8CE5180709F44C
:1031C0007EC008F479C00F3CECE51E0709F47AC014
:1031D000003D1C4509F0F1CC6EE089E084C0043D5F
:1031E0002CE5120709F477C060F4023D8CE518075E
:1031F00009F46EC0033D1C4509F0DFCC61E088E1B5
:103200006FC0053DECE51E0709F468C00D351D458E
:1032100009F0D3CC6AE285E266C08091FE0180FFAE
:1032200020C08E7F8093FE016091FE017091FF01AE
:1032300080910002909101020E948F040E94DB2481
:103240008091E40181608093E4010FEF10E722E0B8
:10325000015010402040E1F700C000000E9415041A
:1032600089CA81608093FE0161E0869539C044EA95
:103270005CE06DEA7CE01DC04DEA5CE064EA7CE065
:1032800018C045E656E06CE576E013C044E456E02D
:1032900060E576E00EC04CE256E068E376E009C0F7
:1032A00048E356E06CE276E004C042EB54E061EAA9
:1032B00074E00E94D5245ECA61E081E011C065E03F
:1032C00082E011C068E086E00EC064E18FE00BC0D0
:1032D00067E185E108C062E289E105C061E083E25F
:1032E0000E942F0C47CA0E94C32444CA29960FB6D5
:1032F000F894DEBF0FBECDBFDF91CF911F910F912C
:10330000FF90EF90DF90CF90BF90AF909F908F9005
:103310007F906F905F904F903F9008958091EB0267
:10332000089580E0089520914F0290911E0256E08A
:103330002917A9F030E0529FF001539FF00D11249E
:10334000E15EFD4F7181761306C07081781303C072
:103350007281741306C02F5F3F4F2770E9CF80E062
:10336000089581E00895CF93DF9300D01F92CDB7E9
:10337000DEB79091F602943011F589837B836A83DE
:103380009093E9008FEF9091E800815095FD06C081
:1033900095ED9A95F1F700008111F5CF8091E80045
:1033A00085FF0DC040E050E063E070E0CE01019683
:1033B0000E94B9298091E8008E778093E8000F90F1
:1033C0000F900F90DF91CF910895BC0184E00C9491
:1033D000B319BC0183E00C94B31924E02093E900F5
:1033E0002FEF3091E800215035FD06C035ED3A95BC
:1033F000F1F700002111F5CF2091E80025FF0BC067
:1034000040E050E066E070E00E94B9298091E80059
:103410008E778093E8000895CF93DF9321E0209387
:10342000E9002FEF3091E800215035FD06C035ED61
:103430003A95F1F700002111F5CF2091E80025FF22
:1034400014C0EC0140E050E068E070E00E94B9294F
:103450008091E8008E778093E80088E0FE01ACEE72
:10346000B2E001900D928A95E1F7DF91CF91089536
:1034700087E797E790930108809300089AE088E136
:103480000FB6F894A895809360000FBE90936000EB
:10349000FFCF78941F920F920FB60F9211248F9343
:1034A0009F93AF93BF9380917C0290917D02A091F6
:1034B0007E02B0917F020196A11DB11D80937C0216
:1034C00090937D02A0937E02B0937F02BF91AF9153
:1034D0009F918F910F900FBE0F901F9018959C0198
:1034E0004FB7F89480917C0290917D02A0917E026A
:1034F000B0917F024FBF821B930B08952FB7F894B2
:1035000060917C0270917D0280917E0290917F0299
:103510002FBF08950F931F930E944F09882321F016
:103520001F910F910C947E1A0E947E1A0091C30184
:103530001091C4012091C5013091C601600F711F27
:10354000821F931F1F910F910895CF92DF92EF92E8
:10355000FF926B017C010E944F0981110EC00E94F5
:103560007E1AC61AD70AE80AF90AC092C301D09295
:10357000C401E092C501F092C601FF90EF90DF9088
:10358000CF9008952FB7F89480917C0290917D029E
:10359000A0917E02B0917F022FBF08950E944F0933
:1035A00081110C94C21A0E948A1ACB0108951F92AD
:1035B0000F920FB60F9211248F939F93AF93BF93E7
:1035C0008091D801811113C080917C0290917D027D
:1035D000A0917E02B0917F024196A11DB11D809302
:1035E0007C0290937D02A0937E02B0937F02BF91F4
:1035F000AF919F918F910F900FBE0F901F901895D4
:103600009C012A5F3F4FFC014281461301C0128298
:10361000019682179307B9F708959C01FC01329631
:103620009FEF80E04191461789F09F3F19F44111C7
:1036300001C0982F8F5F8630A9F79F3F39F0F901BD
:10364000E90FF11D97FDFA95628308950895CF93D0
:1036500084E090E00E94EE2EC82F82E290E00E946B
:10366000EE2E2C2F30E0A901582BCA01CF910895DE
:103670006AEE7EEF80E090E00E94202F60E082E022
:1036800090E00E94022F60E083E090E00E94022F11
:10369000109278021092790210927A0210927B02B4
:1036A00060E084E090E00E94022F60E082E290E01F
:1036B0000E94022F60E085E090E00E94022F60E00F
:1036C00086E090E00E94022F6FEF87E090E00E947A
:1036D000022F40E050E0BA0188E090E00E94142FF1
:1036E00060E08DE090E00E94022F40E050E0BA01DF
:1036F00088E190E00E94142F60E087E190E00E9452
:10370000022F40E050E0BA018CE190E00E94142FBB
:1037100060E070E080E290E00E94202F40E050E006
:10372000BA0188E190E00E94142F40E050E0BA0115
:103730008FE090E00E94142F40E050E0BA0183E156
:1037400090E00C94142F80917702811110927702EF
:1037500008959091760280917502892B20917402D0
:10376000982F922B90930F0280917702882389F0F3
:10377000892B80930F02E1E1F2E097E080E0915025
:1037800029F021912223D9F38F5FF9CF81110E9473
:10379000A31BE091D601F091D701309731F0028060
:1037A000F381E02D8FE092E00994089580E090E0AD
:1037B0000E94B72380E090E00E94A123109275023E
:1037C000109274020E94A91BECEEF1E086E0DF018A
:1037D0001D928A95E9F71092E9011092E501109285
:1037E00017020C946E06CF93C091C801C2FB9927B3
:1037F00090F9981781F080FBC2F9C093C8016091DD
:10380000C70184E090E00E94022F6C2F82E290E0DA
:10381000CF910C94022FCF910895BF92CF92DF9257
:10382000EF92FF920F931F93CF93DF938C01C09081
:103830000003D0900103E0900203F0900303809115
:10384000780290917902A0917A02B0917B02C82A05
:10385000D92AEA2AFB2ACFE1D0E0D701C6010C2EF3
:1038600004C0B695A795979587950A94D2F780FDE1
:1038700004C0219790F7B12C07C0BC2EB8018C2F43
:103880000E94890A0197A9F38B2DDF91CF911F9197
:103890000F91FF90EF90DF90CF90BF900895CF935E
:1038A000DF93EC010E940D1CBE010E94890ADF918A
:1038B000CF9108950E944F1C292F2F70E92FE29578
:1038C000EF704E2F50E0FA013297EE30F105B8F468
:1038D000EB58FF4F0C94DB2F803F99F018F4883E93
:1038E00070F40FC0843F59F40CC0883E50F0813F03
:1038F00031F407C0822F869586958695089580E0DD
:10390000089581E0089524E0929F900D1124890F7D
:10391000682F669566956695982F977085E0689FE5
:10392000B001112440E050E080E0FB01E40FF51FFE
:10393000E05BFD4F208130E0092E02C036952795CF
:103940000A94E2F721703327042E01C0220F0A9453
:10395000EAF7822B4F5F5F4F4530510531F70895ED
:1039600024E0929F900D1124890FE82FE695E695AB
:10397000E695877051E001C0550F8A95EAF785E01A
:10398000E89FF0011124E05BFD4F20E030E070E0A3
:103990004081CB01022E02C0969587950A94E2F7EA
:1039A0008170819584278523842781932F5F3F4FE2
:1039B0002530310569F70895609300037093010382
:1039C00080930203909303030C94D61B0F931F93D1
:1039D00041E050E060E070E004C0440F551F661FF6
:1039E000771F8A95D2F74095509560957095809194
:1039F000000390910103A0910203B09103038A0197
:103A00009B01082319232A233B23C901B8011F91D5
:103A10000F910C94DC1C209173028095822380937B
:103A20007302982F977041F430E0482F082E000C55
:103A3000550B2417350721F49091C80192FF07C058
:103A40008595859585950E94E61C109273020895D0
:103A50000F931F9341E050E060E070E004C0440F1A
:103A6000551F661F771F8A95D2F7809100039091AA
:103A70000103A0910203B09103038A019B01082B6B
:103A8000192B2A2B3B2BC901B8011F910F910C94C4
:103A9000DC1C609378027093790280937A02909391
:103AA0007B020C94D61B80914F0290911E028917C5
:103AB00019F08F5F8770FBCF08950F931F93CF93FB
:103AC000DF9380911D0282958F7009F05DC0809117
:103AD0001A02882309F458C080914F0210911E02E7
:103AE0006091180270911902C0911B02D0911C02C2
:103AF00091E06F3F09F090E0292F06E0811709F46B
:103B000043C0209721F07F3F21F030E003C031E037
:103B100001C0322F90E030FD34C0089FF001099FB2
:103B2000F00D1124DF01A15EBD4F11963C9111975C
:103B3000371327C03C91361324C012963C9112973C
:103B400031111FC013964D915C9114974C1B5D0B66
:103B5000483C5105B0F480911D028F7080618093C4
:103B60001D02EC5DFD4F80818F708061808388E154
:103B700092E00E946E12DF91CF911F910F910C94F1
:103B8000531D01968770BACFDF91CF911F910F918E
:103B900008958F929F92AF92BF92CF92DF92EF9251
:103BA000FF920F931F93CF93DF93CDB7DEB761974B
:103BB0000FB6F894DEBF0FBECDBF8C0185E0F801D3
:103BC000DE011D9601900D928A95E1F7D801DC90F7
:103BD0001196EC9011971296CC909091180220912A
:103BE000190240911B0250911C024115510531F000
:103BF0002F3F31F481E09F3F19F403C081E001C001
:103C000080E080FD58C1F801A380B48088E1882E4F
:103C100082E0982EF0901A02B501641B750BFF200C
:103C200009F403C180911D02382F307F683C710573
:103C300008F0CDC0311188C02E1112C09D1110C0E6
:103C4000FC2CC1100DC08F70806180931D02C401D7
:103C50000E946E1280911D02D80115968C9348C166
:103C6000A114B10439F0BFEFEB1206C081E0DB1202
:103C700003C003C081E001C080E080FD03C081E09B
:103C80008C2502C080E090E080FF10C04C2D6E2D8E
:103C90008D2D0E949319882349F088E192E00E94BB
:103CA0006E12E8E1F2E086E0DF0199C0AB2839F05E
:103CB000BFEFEB1206C081E0DB1203C003C081E05E
:103CC00001C080E080FD03C081E08C2502C080E05F
:103CD00090E0E82FE170BE2E80FF2CC04C2D6E2DA1
:103CE0008D2D0E949319F82E811124C0DD86EE8659
:103CF0008D859E850E944F1C292F22952F70223082
:103D000018F0243090F405C09F7059F0811109C05B
:103D1000EFC09F7031F0D80115969C91907F09F407
:103D2000E7C0805E883008F4E3C0C8010E946E12CC
:103D3000FB2CDEC0FC2CCC2009F4DAC080911D02E3
:103D4000816080931D024EC02E1106C09D1104C0DB
:103D5000C11002C0F8018BC0DD86EE868D859E8580
:103D60000E945A1C882369F1CC2059F120911D0230
:103D7000822F82958F7090E0029774F080911802E4
:103D80009091190298878F831986BB86AA862C8703
:103D9000CE0107960E946E1286E0F801A8E1B2E01B
:103DA00001900D928A95E1F70E945D1D0DC02E15C0
:103DB000D9F0DD86EE868D859E850E945A1C811184
:103DC0001DC0C8010E946E12FF24F39491C03111EE
:103DD000EECF88E192E00E946E1286E0D4011D923F
:103DE0008A95E9F7F12C84C09D11E3CFC110E1CF92
:103DF000F8018583C8010E946E1257C0CC2009F3D8
:103E000020911D02822F82958F7090E0029724F2FC
:103E100080911802909119029A8389831B82BD8236
:103E2000AC822E83CE010196B5CF683C7105E8F5D2
:103E3000FC2CCC2031F22E1127C09D1125C02091E1
:103E40001D0220FD18C0822F82958F70482F50E0F0
:103E50004115510581F0F80125834F30510541F09E
:103E60008F5F982F9295907F822F8F70892B8583FB
:103E7000C8010E946E1286E0F801A8E1B2E001904C
:103E80000D928A95E1F734C0DD86EE868D859E859C
:103E90000E945A1C811180CF80911D028160809305
:103EA0001D02C8010E946E1223C086E0D4011D923B
:103EB0008A95E9F71DC0CC2009F483CFDD86EE8614
:103EC0008D859E850E945A1CF82E882309F479CF8F
:103ED00086E0F801A8E1B2E001900D928A95E1F741
:103EE00080911802909119020E944F1C0E945D1D42
:103EF0008F2D61960FB6F894DEBF0FBECDBFDF9158
:103F0000CF911F910F91FF90EF90DF90CF90BF90D6
:103F1000AF909F908F9008951092760286E0E1E135
:103F2000F2E0DF011D928A95E9F70C94D61B089503
:103F30007F928F929F92AF92BF92CF92DF92EF9239
:103F4000FF920F931F93CF93DF93FC0182807480C5
:103F500081E08483E4EEF2E09490E3E6F3E0E49120
:103F6000A12CF5E0BF2ECC24CA94D12CE9190E2F38
:103F700010E080910801A81608F0A2C0EA2CF12CEC
:103F800022E0281568F0BE9CF001BF9CF00D1124C2
:103F9000E955FD4F8091FF0180838091000281836C
:103FA00071100AC0BE9CF001BF9CF00D1124E955B0
:103FB000FD4F138212826AC0BE9CE001BF9CD00DEF
:103FC0001124C955DD4F8B818823F9F081508B83F3
:103FD0002FEF829FC00111246C8170E00E94B32FEB
:103FE000FB01FF27EC51FD4F8491E82FE9192FEFDA
:103FF000E29FC0011124B8010E94B32F80910102F9
:10400000689FB00111247A8341C00E94DE2E209166
:1040100001022695215830E0A901440F551F322F87
:104020002227240F351F232F33278217930774F578
:1040300082E0881588F40E94DE2EB6010E94C72F08
:1040400088830E94DE2E209100022695622F70E068
:104050000E94C72F280F2983BE9CF001BF9CF00D42
:104060001124E955FD4F128280910102843120F024
:10407000893C18F088EC01C084E1BE9CF001BF9C33
:10408000F00D1124E955FD4F84838383809106014F
:104090009701280F311DC901880F991F280F391F5B
:1040A0002D573D4FBE9CF001BF9CF00D1124E955EA
:1040B000FD4F4281618180810E94DA04A39459CF2F
:1040C000DF91CF911F910F91FF90EF90DF90CF90F4
:1040D000BF90AF909F908F907F900C9415040F939A
:1040E0001F93CF93DF93EC0100E010E08091080173
:1040F000282F30E00217130724F59091060198014C
:10410000290F311DA901440F551F240F351F2D57AD
:104110003D4F869590E04C81081719071CF4442305
:1041200031F002C0411103C04091010201C040E0E2
:10413000609100028091FF010E94DA040F5F1F4F1F
:10414000D5CF0E9415048C8190E00196817099274B
:104150008C83DF91CF911F910F9108958F929F9241
:10416000AF92BF92CF92DF92EF92FF920F931F9385
:10417000CF93DF938C01FC014481C42FD0E09E01DA
:10418000DE010E948A2F9B01AC010E94552F6B011A
:104190007C01E0E2F0E0EC1BFD0BA5E5B0E09B014B
:1041A000AC010E94552F4B015C019F01DF010E9471
:1041B000E82F9B01AC010E94602F9B01AC012C0DEC
:1041C0003D1D4E1D5F1DC501B4010E94682FC22F09
:1041D000D22F2A3228F4F3E02F9F900111240DC032
:1041E00025E530E02C1B3109C901880F991F280FE4
:1041F000391F37FF02C02F5F3F4F35952795C22FDC
:10420000C095F12C85E5E82EED1A80910801F8168D
:10421000C8F4F1FC02C08E2D01C08D2F90910601D3
:104220002F2D30E0290F311DA901440F551F240FF8
:10423000351F2D573D4F4C2F609100020E94DA042C
:10424000F394E3CF0E941504F8018481811102C028
:1042500091E003C0803219F49FEF90932201909176
:104260002201890FF8018483DF91CF911F910F9173
:10427000FF90EF90DF90CF90BF90AF909F908F9086
:1042800008951F93CF93DF93EC018C81811109C0B6
:1042900081E08C831092810292E0909321018093BF
:1042A00020018091060190910701891770F4E82F91
:1042B000F0E09F01220F331FE20FF31FED57FD4F78
:1042C0001182108212828F5FF0CF10E0609108019E
:1042D0001617C0F5E12FF0E070E0CF010E94C72F64
:1042E00020910601820F20918102022E000C330BD7
:1042F00090E0E217F307CCF020912101022E000C90
:10430000330B2E173F078CF09C01220F331F820FB7
:10431000931F9C012D573D4F409101026091000277
:104320008091FF010E94DA040BC0FC01EE0FFF1F19
:104330008E0F9F1FFC01ED57FD4F118210821282DC
:104340001F5FC4CF0E94150480912001209181023B
:10435000280F2093810290912101980F90932101C1
:1043600019165CF4022E000C330B4091080150E04A
:10437000415051092417350734F08195809320016D
:10438000813009F41C82DF91CF911F9108958F92A3
:104390009F92AF92BF92CF92DF92EF92FF920F93D4
:1043A0001F93CF93DF93EC018A8180FF03C0BB246E
:1043B000BA9402C0BB24B3948C8181110DC081E0FA
:1043C000B81206C08091080181508093800202C01B
:1043D0001092800281E08C83A12C4CE0942E80917D
:1043E0000801A81608F044C080910601CA2CD12CFF
:1043F0008601080F111DC801880F991F080F191F8A
:104400000D571D4FF80111821082128234E0E32E05
:10441000F12C812C80918002880D8D302CF0692D3B
:104420000E94A52F892F05C087FF03C09091080126
:10443000890F082E000C990BC816D90691F48091AB
:1044400001028E9DA0018F9D500D11245595479519
:10445000559547959801609100028091FF010E9457
:10446000DA048B0CF1E0EF1AF108A1F6A394B7CFB0
:104470000E9415048091800291E0B9120EC0811152
:1044800007C0809108018150809380021C820FC078
:10449000815080938002BC820AC090E001966091B6
:1044A000080170E00E94C72F809380028C83DF9107
:1044B000CF911F910F91FF90EF90DF90CF90BF9021
:1044C000AF909F908F900895FF920F931F93CF937B
:1044D000DF93EC01F12C0FEF10E060910801F6166C
:1044E000F0F4809106012F2D30E0280F311DC90115
:1044F000880F991F280F391F2D573D4F70E0C801B5
:104500000E94C72F962F8C8140910102609100027A
:10451000F99E800D11240E94DA04F394DECF0E94EC
:1045200015049A818C8190FF02C08F5F01C0815079
:104530008C83DF91CF911F910F91FF9008950F937E
:104540001F93CF93DF9300D01F92CDB7DEB78C01BE
:104550008091820281110AC09E012F5F3F4F4FEF71
:104560006FEF0E94DA048A8180938202F8018481CD
:10457000813051F028F0823061F4409182020AC00B
:104580008091820240E007C06091820240E080E0BA
:1045900003C040E080E060E00E946104F801848193
:1045A00090E0019663E070E00E94C72F84830F9033
:1045B0000F900F90DF91CF911F910F910895CF939E
:1045C000DF93EC01EEEFF1E0438162818C810E9488
:1045D00070058C818F5F8C83DF91CF910895CF938D
:1045E000DF93EC01EC81F0E0EC51FD4F4491EEEFF4
:1045F000F1E0628181810E9470058C818F5F8C83E4
:10460000DF91CF9108951F93CF93DF93CDB7DEB79E
:1046100067970FB6F894DEBF0FBECDBF342F4B8B1C
:10462000252F5C8B6D8B7E8B8F8B4E895F89611103
:104630001092750286E0FE013D96DF01982F1D92D3
:104640009A95E9F73D872E876F87598B488BDE0156
:10465000179601900D928A95E1F7CE0107960E9478
:10466000C91D81113EC086E0FE013796DE0111961C
:1046700001900D928A95E1F7FF81E8856A857B8537
:104680006115710531F0EF3F31F481E0FF3F19F41E
:1046900003C081E001C080E080FD23C020911E02A4
:1046A00030E0C90101968770992740914F0250E090
:1046B0008417950779F1F983EA837D836C8396E00B
:1046C000929FD001939FB00D1124A15EBD4FFE01BA
:1046D000319601900D929A95E1F780931E020E9407
:1046E000531D16E080914F0290911E028917F9F038
:1046F000189FC0011124815E9D4F0E94C91D88230F
:10470000B1F080914F0290E00196877099278093D5
:104710004F02E8CF0E948C1F10921E0210924F028F
:10472000E8E1F2E086E0DF011D928A95E9F76796FD
:104730000FB6F894DEBF0FBECDBFDF91CF911F91B2
:1047400008952091E7023091E8022817390771F0A7
:104750009093E8028093E702E091D601F091D701AF
:10476000309721F00084F185E02D0994089520917F
:10477000E5023091E6022817390771F09093E602BE
:104780008093E502E091D601F091D701309721F0B6
:104790000680F781E02D09940895E091D601F0910B
:1047A000D701309721F00190F081E02D099480E04D
:1047B00008950F931F93CF93DF93C42FD22FFC0143
:1047C00082818823C9F040930D020E94C21A9093FF
:1047D000E4028093E30280E28C0F883008F057C037
:1047E000C77081E001C0880FCA95EAF7DF91CF91C9
:1047F0001F910F910C94F02980910D02481330C045
:104800008091E3029091E4020E946F1A883C910526
:1048100038F510E21D0FCD17B9F080E28C0F88300B
:1048200040F4C77081E001C0880FCA95EAF70E9482
:10483000E529183028F581E09D2F977001C0880F79
:104840009A95EAF70E94F029802F0E94882B183051
:10485000F0F4D77081E001C0880FDA95EAF70AC05A
:1048600080E28C0F883098F4C77081E001C0880F17
:10487000CA95EAF7DF91CF911F910F910C94E5292A
:10488000802FDF91CF911F910F910C94882BDF9196
:10489000CF911F910F910895CF93DF93C7EBD1E094
:1048A00060E0CE010E94022F2196C11584E0D80756
:1048B000B9F7DF91CF910895CF92DF92EF92FF92F7
:1048C0000F931F93CF93DF93C0E0D0E08E010C597C
:1048D0001F4F6E018AE0C80ED11CFE01EC51FC4F47
:1048E000E590F4906F2DCE0187960E94022F6E2DD9
:1048F000CE0188960E94022F2296CC15DD0569F71D
:104900000C171D0731F7E80100391140F9F6DF9166
:10491000CF911F910F91FF90EF90DF90CF9008956E
:104920000F931F93CF93DF93C42FD0E0CC0FDD1FE5
:104930002AE0629FC00DD11D112434E6839FC00D73
:10494000D11D1124CE0187960E94EE2E082F10E073
:10495000102F0027CE0188960E94EE2E9801282B5A
:10496000C901DF91CF911F910F910895462F843097
:1049700038F47A3028F4653018F4672F0C949024BA
:1049800080E090E008959091FE0190FF04C096951C
:10499000981740F003C0811105C090E0961710F4FD
:1049A0000C94AD0C61E00C942F0C882311F0FA01EB
:1049B00001C0FB010994E2EEF1E011828281846082
:1049C000828308956091FE01669570E04BE050E0AF
:1049D00085E191E00E94F72F892B19F481E0809303
:1049E000E3010E94CE1A9093DD018093DC01809157
:1049F000E40184608093E40108950F931F938091F4
:104A0000000390910103A0910203B09103038C0174
:104A10009D010670112722273327BC01CD010630E6
:104A200011052105310511F4686001C0677F1F91F0
:104A30000F910C94DC1C1F93CF93DF93CDB7DEB79F
:104A4000AA970FB6F894DEBF0FBECDBFE8EFF2E035
:104A50008091F100819343E0E030F407C9F7809141
:104A6000F902833009F462C030F4813071F0823091
:104A700009F49CC0B3C08A3009F488C08B3009F4B3
:104A80006DC0893009F0AAC020C08091F802813A37
:104A900009F0A4C08091E800877F8093E8008091AE
:104AA000FC029091FD02892B21F468E08CEE92E0EB
:104AB00003C060E080E090E070E00E94FA2B8091FB
:104AC000E8008B778093E80089C08091F8028132FA
:104AD00009F084C08091FC029091FD02009719F0CA
:104AE000029709F07BC08091E800877F8093E800FF
:104AF0008091E80082FD05C08091F6028111F8CF17
:104B00006DC02091F3008091F20090E0922B02970B
:104B100029F48091F1008B7F813021F48091F100A4
:104B20008093EB028091E8008B7754C08091F8026B
:104B3000813A09F053C08091FC029091FD02892BCB
:104B400009F04CC08091E800877F8093E800809155
:104B5000E80080FFFCCF8091230137C08091F802EC
:104B60008132E1F58091FC029091FD02892BB1F533
:104B70008091E800877F8093E8000E94A62B8091B7
:104B8000FA02809323010E948C1F28C08091F802B2
:104B9000813221F58091E800877F8093E8000E94B0
:104BA000A62B8091FB028093EA0218C08091F80244
:104BB000813AA1F48091E800877F8093E80080919A
:104BC000E80080FFFCCF8091EA028093F1008091A1
:104BD000E8008E778093E8000E94A62B8091E80081
:104BE00083FFDDC18091F8029091F902492F50E0D6
:104BF0004A30510508F0D3C1FA01ED57FF4F0C942C
:104C0000DB2F803821F0823809F0C9C108C08091BB
:104C1000F4029091F502992389F082600FC080918F
:104C2000FC028F70873008F0BAC18093E900809150
:104C3000EB0085FB882780F91092E9009091E8004D
:104C4000977F9093E8008093F1001092F10070C17B
:104C5000282F2D7F09F0A3C1882319F0823061F03D
:104C60009EC18091FA02813009F099C1933009F018
:104C700080E08093F5022EC08091FA0281112AC053
:104C80008091FC028F702FEF280F263008F087C12B
:104C90008093E9002091EB0020FF1CC0933021F4A9
:104CA0008091EB00806214C09091EB009061909332
:104CB000EB0021E030E0A90102C0440F551F8A95A6
:104CC000E2F74093EA001092EA008091EB008860DE
:104CD0008093EB001092E9008091E800877F809339
:104CE000E8000E94A62B5BC1811159C11091FA0204
:104CF0001F778091E3008078812B8093E30080917F
:104D0000E800877F8093E8000E94A62B8091E8004E
:104D100080FFFCCF8091E30080688093E300111155
:104D200002C082E001C083E08093F60238C180585F
:104D3000823008F034C12091FA023091FB022C3D00
:104D400053E0350779F583E08A838AE289834FB798
:104D5000F894DE01139620E03EE051E2E32FF0E00C
:104D600050935700E49120FF03C0E295EF703F5F3E
:104D7000EF708E2F90E0EA3010F0C79601C0C09619
:104D80008D939D932F5F243149F74FBF8091E800A9
:104D9000877F8093E8006AE270E0CE0101960E946E
:104DA000FA2BB4C08091FC029091FD02432F55274D
:104DB00043305105A9F068F44130510509F4FEC0B3
:104DC0004230510509F0EBC08BE590E0EDEEF5E0E7
:104DD0004BC04132510529F14232510589F1DFC002
:104DE000C901992781309105A1F058F0029709F087
:104DF000D6C0EAE5F6E0E4918E2F90E0EAE5F6E031
:104E000030C0EEEAF6E0E4918E2F90E0EEEAF6E0B4
:104E100028C0E8E9F6E0E4918E2F90E0E8E9F6E0BA
:104E200020C08330910508F0BAC0880F991FFC019B
:104E3000E558FE4F0190F081E02D89E090E014C02C
:104E40008330910508F0ABC0FC01EE0FFF1FEB585B
:104E5000FE4F0190F081E02DDC01AE58BE4F8C91E9
:104E600090E0009709F49BC02091E800277F2093F1
:104E7000E8002091FE023091FF022817390708F45C
:104E8000C90140E0009789F12091F602222309F43C
:104E90003DC02530D9F12091E80023FD37C0209195
:104EA000E80022FD2FC02091E80020FFEBCF4091C9
:104EB000F3002091F20030E0342B009759F02830B5
:104EC000310540F444914093F100319601972F5FF2
:104ED0003F4FF3CF41E02830310509F040E0209109
:104EE000E8002E772093E800CDCF4111CDCF0AC046
:104EF0008091F602882351F0853041F08091E800DE
:104F000083FD04C08091E80082FFF2CF8091E80029
:104F10008B778093E80043C0803809F040C08091CF
:104F2000E800877F8093E8008091F7028093F1008A
:104F30008091E8008E77D3CE811131C08091FA0242
:104F40009091FB029927029754F58091E800877FA2
:104F50008093E8001091FA021093F7020E94A62BAA
:104F6000111106C08091E30087FD02C081E001C0FD
:104F700084E08093F60242E061EC81E00E94C52B60
:104F800042E261EC84E00E94C52B42E261EC82E0E7
:104F90000E94C52B42E260EC83E00E94C52B809109
:104FA000E80083FF10C08091E800877F8093E800CD
:104FB0008091EB0080628093EB0005C082E190E07D
:104FC000E8E4F6E051CFAA960FB6F894DEBF0FBE24
:104FD000CDBFDF91CF911F9108951F920F920FB611
:104FE0000F9211242F933F934F935F936F937F936F
:104FF0008F939F93AF93BF93CF93DF93EF93FF93E1
:10500000C091E900CF708091EC00D82FD17080FD65
:10501000D0E81092E9008091F000877F8093F00043
:1050200078940E941B251092E9008091F00088601E
:105030008093F000CD2BCF70C093E900FF91EF91EA
:10504000DF91CF91BF91AF919F918F917F916F91A0
:105050005F914F913F912F910F900FBE0F901F9036
:105060001895E8EDF0E080818E7F80831092E20059
:105070001092DA001092E100A0EEB0E08C91816015
:105080008C9380818F77808319BCA7EDB0E08C91E1
:105090008E7F8C9380818F7E80831092E9020895A9
:1050A000CF92DF92EF92FF920F931F93CF93DF93F4
:1050B000C8EDD0E088818F7E8883E7EDF0E08081C5
:1050C0008160808384E082BF81E08093E9028881EF
:1050D0008E7F888302EE10E0F80110821092DA00D1
:1050E00081EEC82ED12CF601108288818F778883BB
:1050F00088818068888388818F7D888319BC10921D
:10510000F6021092F7021092F5021092F40290EE5D
:10511000E92EF12CF70180818B7F8083888181606B
:10512000888342E060E080E00E94C52BF601808128
:105130008E7F8083F8018081816080838081886098
:105140008083F70180818E7F80838881806188835E
:10515000DF91CF911F910F91FF90EF90DF90CF9053
:1051600008951F920F920FB60F9211242F933F9321
:105170004F935F936F937F938F939F93AF93BF935F
:10518000EF93FF938091E10082FF09C08091E200DC
:1051900082FF05C08091E1008B7F8093E1008091C8
:1051A000DA0080FF2AC08091D80080FF26C080915D
:1051B000DA008E7F8093DA008091D90080FF18C0DA
:1051C00080E189BD82E189BD09B400FEFDCF81E0A7
:1051D0008093F6028091E90281110FC00E9431286C
:1051E0000E9450288091E20084608093E20005C014
:1051F00019BC1092F6021092E9028091E10080FF42
:1052000017C08091E20080FF13C08091E2008E7F82
:105210008093E2008091E20080618093E2008091BF
:10522000D80080628093D80019BC85E08093F60294
:105230008091E10084FF2EC08091E20084FF2AC0AB
:1052400080E189BD82E189BD09B400FEFDCF809176
:10525000D8008F7D8093D8008091E1008F7E80936D
:10526000E1008091E2008F7E8093E2008091E20075
:1052700081608093E2008091F702882311F084E03E
:1052800007C08091E30087FD02C081E001C083E098
:105290008093F6028091E10083FF27C08091E200B5
:1052A00083FF23C08091E100877F8093E10082E04B
:1052B0008093F6021092F7028091E1008E7F809336
:1052C000E1008091E2008E7F8093E2008091E20015
:1052D00080618093E20042E060E080E00E94C52BA4
:1052E0008091F00088608093F000FF91EF91BF9172
:1052F000AF919F918F917F916F915F914F913F916E
:105300002F910F900FBE0F901F9018952091E400E1
:105310003091E50095E64091EC00842F817040FFCC
:1053200023C08091E80080FD1DC08091F602882393
:1053300099F0853099F08091EB0085FD11C0409186
:10534000E4005091E5002417350729F3915011F03E
:105350009A01E1CF84E0089582E0089583E0089502
:1053600081E0089580E008954091E80042FFDDCF9C
:105370000895EF92FF920F931F93CF93DF937C01D9
:105380008B010E948629811119C0E70101151105C1
:10539000A1F08091E80085FD0AC08091E8008E7739
:1053A0008093E8000E948629882381F307C08991B1
:1053B0008093F10001501109E9CF80E0DF91CF9196
:1053C0001F910F91FF90EF900895882341F08095F1
:1053D000909176028923809376020C94A91B0895FC
:1053E000882339F090917602892B809376020C9471
:1053F000A91B0895882309F463C0823869F40E94C8
:10540000CD2381FF5DC069E38FE092E00E940D1B18
:105410000E94A91B69E30EC0833891F40E94CD233A
:1054200080FF4EC063E58FE092E00E940D1B0E945A
:10543000A91B63E58FE092E00E94001B0C94A91B5E
:10544000843869F40E94CD2382FF3AC067E48FE07C
:1054500092E00E940D1B0E94A91B67E4EBCF9CEF1A
:10546000980F913A10F4682FE5CF90E2980F98309A
:1054700088F4877021E030E0A90102C0440F551F75
:105480008A95E2F7CA0180959091760289238093EC
:105490007602D4CF9BE5980F933020F480E090E023
:1054A0000C94B72398E5980F973120F480E090E0B2
:1054B0000C94A123803F20F00E9498060C946E0665
:1054C0000895CF93882309F421C1C82F8238B1F4FD
:1054D0000E94CD2381FD1AC169E38FE092E00E9412
:1054E0000D1B0E94A91B2FEF81EE94E021508040FC
:1054F0009040E1F700C0000069E317C08338E1F491
:105500000E94CD2380FD02C163E58FE092E00E94FE
:105510000D1B0E94A91B2FEF81EE94E021508040CB
:105520009040E1F700C0000063E58FE092E00E9448
:10553000001BCF910C94A91B8438B1F40E94CD2399
:1055400082FDE4C067E48FE092E00E940D1B0E94A0
:10555000A91B2FEF81EE94E0215080409040E1F7AD
:1055600000C0000067E4E1CF8CEF8C0F813A08F0B7
:1055700080C080910503813069F018F0823021F1FC
:1055800070C080917602823209F0A8C08C2F0E94F0
:10559000B2086CC0809176028232C1F3C43189F0C6
:1055A00050F4CB3009F498C0C03109F05DC082E0FE
:1055B0008093050391C0C93221F0C83309F48CC02F
:1055C00053C01092050350C0C93299F118F5C43187
:1055D00081F1A0F4C73009F099C01092E80184E18C
:1055E00080930A01C09327018CE38093260188E011
:1055F0008093250188E28093240188C0CE51C63073
:1056000008F084C0EC2FF0E0EF57FE4F80818093CC
:1056100004037CC0CE34F9F028F4CB3409F076C012
:105620006AE014C0C13581F0C23509F06FC061E095
:105630000DC080910403882319F01092040366C002
:1056400081E08093050362C061E006C0809104039D
:10565000CF910C943C086AE080910403CF910C94A4
:10566000EC07109205033AC080E0817081114EC0B2
:1056700035C080E28C0F883068F4C77081E090E01C
:1056800001C0880FCA95EAF790917602892B809322
:1056900076024FCFEBE5EC0FE33040F4F0E0E55756
:1056A000FE4F808190E0CF910C94B723E8E5EC0F9A
:1056B000E73150F4F0E0EE0FFF1FE257FE4F80811C
:1056C0009181CF910C94A123C03F00F18C2F0E94B7
:1056D0009107CF910C946E0681E0C7CFE1E1F2E033
:1056E00087E192E02191C21749F08E179F07D1F709
:1056F0006C2F8FE092E00E940D1B1BCF6C2F8FE070
:1057000092E00E94001B0E94A91BF2CFCF91089546
:105710001F93CF93DF93182F893319F0C0E0D0E0A7
:1057200002C0C0E5D0E0812F0E94612A209741F09D
:105730008FE99FE00197F1F700C000002197F6CFB5
:10574000812FDF91CF911F910C94FA298091F8025B
:1057500087FF11C08091E80082FD05C08091F602AC
:105760008111F8CF11C08091E8008B770BC0809138
:10577000F602882349F08091E80080FFF8CF8091FD
:10578000E8008E778093E8000895982F973068F5A9
:105790009093E900981739F07091EC002091ED009A
:1057A0005091F00003C0242F762F50E021FD02C05D
:1057B0009F5FECCF3091EB003E7F3093EB00309158
:1057C000ED003D7F3093ED003091EB003160309380
:1057D000EB007093EC002093ED005093F0002091CB
:1057E000EE0027FDE5CF80E008958F708093E900FB
:1057F00081E008952091FE023091FF0226173707BD
:1058000048F06115710539F42091E8002E77209356
:10581000E80001C0B901FC0120E06115710579F1D2
:105820008091F6028823F1F18530F1F18091E80052
:1058300083FD3CC08091E80082FD2EC08091E8008D
:1058400080FFEBCF2091F3008091F20090E0922B4B
:105850006115710551F08830910538F4219120933C
:10586000F100615071090196F3CF21E0089709F02A
:1058700020E08091E8008E778093E800CECF211160
:10588000CFCF0AC08091F602882361F0853061F0A5
:105890008091E80083FD0AC08091E80082FFF2CF8A
:1058A00080E0089582E0089583E0089581E00895FE
:1058B00062E070E088E291E00C942D2D62E070E0EF
:1058C00088E291E00C94362D0E941204882361F046
:1058D00081E193E00E94FC0381E090E00E940F2EA2
:1058E000892B11F40C940F040895809110038830D3
:1058F00039F460E081E193E00E946F0C1092100394
:105900000895CF93DF93D62FC72F0E94642C80E099
:1059100090E00E940F2E892BF1F4ED2FFC2F80E0F8
:1059200090E0DC01A55FBC4F2C912193019685305E
:105930009105B9F70E948A1ADC01CB010296A11DDC
:10594000B11D8093070390930803A0930903B093BC
:105950000A0381E001C080E0DF91CF910895CF93E9
:10596000DF93D62FC72F0E94752C6091070370918B
:1059700008038091090390910A030E94A51AED2F54
:10598000FC2F80E090E02191DC01A55FBC4F2C93BF
:10599000019685309105B9F7DF91CF9108958EE199
:1059A000489B02C08150E1F7489BFECF089558986C
:1059B00080E28A95F1F7589A0895FC012AE02A9529
:1059C000F1F790E020E080E031E0261779F040E147
:1059D0004A95F1F7880F489B02C08160932700C069
:1059E000000040E14A95F1F72F5FEFCF20E12A95C3
:1059F000F1F729B100C0000030E13A95F1F72170CC
:105A000092272081920F90830895EF92FF920F9337
:105A10001F93CF93DF931F92CDB7DEB719828C010E
:105A20007C01E60EF11C0E151F0559F00E94CF2CCB
:105A300068E0CE0101960E94DD2CF80181938F0170
:105A4000F2CF81E09981911180E00F90DF91CF91A9
:105A50001F910F91FF90EF90089590931B038093F7
:105A60001A0360931903509A589A089590931B0350
:105A700080931A03609319035098589AE89AE9E6BC
:105A8000F0E080818C7F80830895615091E001C0B7
:105A9000990F6A95EAF720E031E0992361F0492FE8
:105AA000482319F0589A232701C0589840E24A9594
:105AB000F1F79695F2CF222311F0589A01C0589829
:105AC00080E28A95F1F758980895FF920F931F93FB
:105AD000CF93DF93EC018C01060F111DC017D10786
