:100000000C9458040C94FF2F0C949F040C949F04A0
:100010000C949F040C949F040C949F040C949F04D4
:100020000C949F040C949F040C94312B0C946D2A17
:100030000C94EA1C0C949F040C949F040C949F0451
:100040000C949F040C949F040C949F040C949F04A4
:100050000C949F040C945C1C0C949F040C949F04BF
:100060000C949F040C949F040C949F040C949F0484
:100070000C949F040C949F040C949F040C949F0474
:100080000C949F040C949F040C949F040C949F0464
:100090000C949F040C949F040C949F040C949F0454
:1000A0000C949F040C949F040C949F0451185118B5
:1000B0008B188B18E4180019931A931A0D19EA1962
:1000C000F719F7197F1E7F1E921E921E881E921E20
:1000D000921E921E7F1E7F1E8D1E921E921E8D1ED0
:1000E00075289C284F2A9C284F2AE8280B294F2A3C
:1000F0000C2A1C2A00000000000000000000000084
:1001000000000000000000000000000000000000EF
:1001100000000000000000007E0F00D4FFFFFFC7BA
:100120000000007800000000000000002A2B2800DA
:100130000000000000000000000000000000002996
:10014000000000002C1E3420212224342627252ED6
:10015000362D3738271E1F2021222324252633330E
:10016000362E37381F0405060708090A0B0C0D0E3A
:100170000F101112131415161718191A1B1C1D2F06
:100180003130232D350405060708090A0B0C0D0E26
:100190000F101112131415161718191A1B1C1D2FE6
:1001A0003130354C00010101010101010101020260
:1001B0000202020202020203030303030303030415
:1001C00004040404040405050505050606060606E0
:1001D000070707070708080808090909090A0A0A9A
:1001E0000B0B0B0C0C0C0D0D0D0E0E0E0F0F0F103C
:1001F00010111111121213131414151516161717C6
:10020000181819191A1A1B1B1C1D1D1E1E1F202031
:10021000212222232424252626272829292A2B2C7B
:100220002D2D2E2F30313232333435363738393A9E
:100230003B3C3D3E3F404142434445464748494A96
:100240004C4D4E4F50515354555658595A5B5D5E64
:100250005F616264656668696B6C6D6F70727375FF
:1002600077787A7B7D7E8082838587888A8C8E8F63
:1002700091939596989A9C9EA0A2A3A5A7A9ABAD91
:10028000AFB1B3B5B7BABCBEC0C2C4C6C9CBCDCF7F
:10029000D1D4D6D8DBDDDFE2E4E7E9EBEEF0F3F52D
:1002A000F8FAFDFFFFAA7F55401E0F0500047F3FAF
:1002B0001F643214643214783C1E1E140A05FD3784
:1002C0007A585A000004E6D6B4460200210116000E
:1002D0000000742FE5A3E00257010A5D003D888904
:1002E000C65436C3174FE4DD5C7431C9895FE41628
:1002F00055C0286371F477887C2CBF66777E7BBFFE
:100300001B6F96EF4B6D0EF48385459018C9EEE890
:10031000BE7CEC2395194B741E03249329C804E773
:100320009A24AA3B12963563A494386816A8C02B69
:1003300059BE85F4A0934D9FFA741D36308DA99156
:1003400044116E76DF034E77F52DFF33F1F10CEF9C
:10035000D38FEC62A69E48B337089EBA28A07F5A76
:10036000F6E180907B60A3094E375D30559BA6ACCB
:100370000B7B6436DB7413B199143C009379FD4216
:100380007A55D28F3B6E31EBF50EF5DDCC2074D66D
:10039000F9FD391DE34C7C1B7C4A2EE3F3A5A82212
:1003A000D5C10BD669E5CFDB19BDF6A78FA2D6F371
:1003B00057EDB6D540E8F29D17DC95CF5BD81C5DB4
:1003C0000FEF2658DD2C7F9EE0B158209F6734F454
:1003D000D5F544CBD4A99CA89A8DBF42A25DCD008F
:1003E000D144D4EF134720000000C51A708FDFC935
:1003F0005CF40001A602D8040000E44C3992B1C4B8
:1004000067FB020000000004595A222325262829F0
:100410002A2C2D2F3032333536383A3B3D3E404280
:10042000434547494A4C4E5051535557595A5C5EC3
:100430006062646668696B6D6F71737577797B7DD7
:100440007F81838587898A8C8E90929496989A9CD6
:100450009E9FA1A3A5A7A8AAACAEAFB1B3B4B6B8EE
:10046000B9BBBCBEBFC1C2C3C5C6C7C9CACBCCCD50
:10047000CED0D1D2D2D3D4D5D6D7D7D8D9D9DADA2B
:10048000DBDBDBDCDCDCDCDCDDDDDDDDDCDCDCDCAB
:10049000DCDBDBDBDADAD9D9D8D7D7D6D5D4D3D2DF
:1004A000D2D1D0CECDCCCBCAC9C7C6C5C3C2C1BFBD
:1004B000BEBCBBB9B8B6B4B3B1AFAEACAAA8A7A521
:1004C000A3A19F9E9C9A98969492908E8C8A8987DD
:1004D0008583817F7D7B79777573716F6D6B6968BB
:1004E000666462605E5C5A5957555351504E4C4A8F
:1004F0004947454342403E3D3B3A3836353332303A
:100500002F2D2C2A2928262523222B0014001A00FF
:100510000800150017003943040016000700090001
:100520000A00E1001D001B00060019000500000084
:10053000000050004F002A004C4200000000E20082
:100540004D00E0004A001C0018000C0012001300CF
:1005500031000B000D000E000F003300344311007A
:100560001000360037003800E50028422C00520009
:100570005100000000000007E4000503E300000054
:100580000000010001000100010001000100010064
:100590000100010001000100010001000100010053
:1005A0000100010001000000000001000100010045
:1005B0000100000000000100010001000100010035
:1005C0000100010001000100010001000100010023
:1005D0000100010001000100010001000100010013
:1005E0000100010001000100010000000000010005
:1005F00001000100010000000000010001000100F5
:10060000010001002F0001000100010001000100B4
:100610002F020100010001000100010001000000A3
:1006200000000100010001000100000000000100C5
:1006300001000100010030005F0060006100010066
:10064000450030025C005D005E002D0046040100A4
:1006500059005A005B002E002D02010001006200CB
:100660006300000000004B0001004E00010000008C
:1006700000000100CA5CC75CC95C01002F000100DA
:10068000C65CC85CC55C01002F02C45CC35CCC5C6A
:10069000CB5C0100010000000000490435000100AE
:1006A000C25C000000000100005C0100010030009D
:1006B0000100CA5CC75CC95C010030020100C65C75
:1006C000C85CC55C01000100C45CC35CCC5CCB5C55
:1006D0000100C25C01000052015200000000010054
:1006E0000100005C01000000000005010902A101F9
:1006F00085020901A1000509190129051500250137
:100700009505750181029501750381010501093087
:1007100009311581257F95027508810609381581F3
:10072000257F950175088106050C0A38021581257B
:100730007F950175088106C0C005010980A101856A
:100740000319012AB700150126B70095017510811C
:1007500000C0050C0901A101850419012AA0021598
:100760000126A002950175108100C00660FF096195
:10077000A1010962150026FF009520750881020974
:1007800063150026FF00952075089102C005010938
:1007900006A101050719E029E7150025019508754F
:1007A0000181029501750881010507190029FF15CE
:1007B0000026FF0095067508810005081901290526
:1007C000950575019102950175039101C009025BC0
:1007D00000030100A0FA090400000103010100095F
:1007E00021110100012240000705810308000A09C8
:1007F000040100020300000009211101000122226E
:1008000000070582032000010705030320000109FA
:1008100004020001030000000921110100012281EE
:10082000000705840320000A1201100100000008DF
:100830004D4436340100010203011C0376006900B7
:1008400061006C003A00660036003400630032003C
:1008500062003300630000003C03680061006E002A
:100860006400770069007200650064002F00640076
:1008700061006300740079006C005F006D0061002E
:100880006E00750066006F0072006D002F0034006E
:1008900078003600000014034F0068004B0065002C
:1008A0007900630061007000730000000403090414
:1008B00011241FBECFEFDAE0DEBFCDBF04B603FECA
:1008C00027C08091310390913203A0913303B091FE
:1008D00034038730904BA740B04BD1F410923103D2
:1008E00010923203109233031092340314BE84B773
:1008F000877F84BF0FB6F894A895809160008861C7
:1009000080936000109260000FBEE0E0F8E309956C
:1009100011E0A0E0B1E0ECE2F5E602C005900D9236
:10092000A83CB107D9F723E0A8ECB1E001C01D92C3
:10093000A133B207E1F70E948A0E0C9494320C9412
:1009400000009091D30192FF0DC0282F287128300C
:1009500019F4877F846006C0282F2471243011F495
:100960008B7F886093FF0DC0282F2871283119F4E0
:10097000877E846106C0282F2471243111F48B7E78
:1009800088612091D40120FF0DC0382F3871383094
:1009900019F4877F816006C0382F3171313011F42E
:1009A0008E7F886021FF0DC0282F2871283119F40F
:1009B000877E816106C0282F2171213111F48E7E3E
:1009C000886194FD877E08950F931F9341E050E066
:1009D00060E070E08A019B0104C0000F111F221F1C
:1009E000331F8A95D2F7C901B8010E945C1F1F917D
:1009F0000F910C949F2125E0ECE0F2E0DC010190E6
:100A00000D922A95E1F72091EE013091EF0140918E
:100A1000F001FC0125833683478308951092F0018D
:100A200008958091F00108953091050180910C02A4
:100A300080FF16C0E091040163E0E69FF0011124FD
:100A4000E856FD4F539A8BB1877F9BB198602FB7C3
:100A5000F894AF0163E0369F400D511D112414C07E
:100A60008091060190910701891720F7E82FF0E0A7
:100A7000AF01440F551FE40FF51FE856FD4F1182DB
:100A8000108212828F5FF0CFE417F50789F0319161
:100A900068E09BB9000000C037FF8BB9330F00003E
:100AA00000C000C000C08BB900C06A9591F7ECCFC0
:100AB0002FBF8FE594E00197F1F700C00000089583
:100AC00090910C0290FF16C09091060120910701B1
:100AD000921770F4E92FF0E0DF01AA0FBB1FEA0FB5
:100AE000FB1FE856FD4F8183608342839F5FF0CFF9
:100AF0000C941405089580910C02282F269530E05F
:100B00002115310519F48170826005C02B32310541
:100B100024F08170846580930C020895CF92DF9257
:100B2000EF92FF926B017C010E947B05B701A60149
:100B300088E090E0FF90EF90DF90CF900C949D3193
:100B400080911002882319F08150809310026091E7
:100B50000C0270910D0280910E0290910F020C9484
:100B60008E0580911002833018F48F5F80931002FD
:100B700060910C0270910D0280910E0290910F0213
:100B80000C948E05ECE0F2E083E0808311828FEF1D
:100B9000828383831482AEEEB1E012968C91129719
:100BA000836012968C9360817181828193810C9411
:100BB0008E05AF92BF92CF92DF92EF92FF920F938A
:100BC0001F93CF93DF93E82EF62EE901E42FF0E098
:100BD000611106C0EC55FE4FE4914E2F2E2F71C0CF
:100BE000062F10E0EC55FE4F4491F42FC42ED12C6B
:100BF00026E0829FC00111242FEF30E0B9010E944E
:100C00003C325BEA5603C001579F900D11248E0DB4
:100C1000911D8E0D911D582F550F580FD901A01BF6
:100C2000B10BAC9DC001AD9D900DBC9D900D1124EC
:100C3000E92FF59ED0011124AB2FBB277901EA1AC9
:100C4000FB0AEC9CD001ED9CB00DFC9CB00D112476
:100C50005901A51AB108A09E7001A19EF00CB09E8A
:100C6000F00C1124EF2CFF242E193F092C9D80013C
:100C70002D9D100D3C9D100D1124212F623071050A
:100C800091F048F461157105E1F061307105B9F436
:100C9000242F4B2F16C06430710569F040F0663088
:100CA000710579F00CC0242F492FE12F0AC0492F7C
:100CB000EF2F2B2F06C0292FE42F412F02C0292F01
:100CC000EB2F49832883EA83DF91CF911F910F9106
:100CD000FF90EF90DF90CF90BF90AF900895CF93AB
:100CE000DF9300D01F92CDB7DEB790910C0290FF3A
:100CF0000AC09E012F5F3F4F0E94D9054B81698139
:100D00008A810E9460050F900F900F90DF91CF9124
:100D10000895AF92BF92CF92DF92EF92FF920F931E
:100D20001F93CF93DF9300D01F92CDB7DEB7182F5C
:100D3000F62E042FE22E90910C0290FF7EC0E92F38
:100D4000E695AE2FB0E0AE5BBE4F8C918093EE0186
:100D50009E7F923061F49E012F5F3F4F812F0E9452
:100D6000D9054B8169818A810E94600543C0823028
:100D700019F400910F023EC0863019F410910D0253
:100D800039C08930D9F38931A9F5E9518E2F8170A5
:100D9000D82EE695F0E0EC55FD4FA590B490C12C0F
:100DA000BB2460910801C61618F52C2D30E0A29ED8
:100DB000C001A39E900DB29E900D112470E00E9480
:100DC0003C32812FD11002C0860F01C0861B90914A
:100DD0000601290F311DA901440F551F240F351F8E
:100DE00028563D4F402F6F2D0E94D905C394D9CF6F
:100DF0000E94140580910D02181308C080910E0204
:100E0000F81204C080910F02081729F08091F001B8
:100E100082608093F00110930D02F0920E02009315
:100E20000F02EE2051F060910C0270910D02809142
:100E30000E0290910F020E948E050F900F900F905E
:100E4000DF91CF911F910F91FF90EF90DF90CF90A6
:100E5000BF90AF900895ECE0F2E0438121E1421BA6
:100E600008F440E021E0628181810C948906ECE085
:100E7000F2E0438121E1420F08F44FEF21E062816B
:100E800081810C948906ECE0F2E0628121E1621B31
:100E900008F460E021E0438181810C948906ECE054
:100EA000F2E0628121E1620F08F46FEF21E04381FB
:100EB00081810C948906ECE0F2E0818121E043819C
:100EC000628188500C948906ECE0F2E0818121E097
:100ED00043816281885F0C9489060E94D51C209111
:100EE000FA01211104C02091FB01222321F09093EB
:100EF000F7018093F6012091FC01211104C020919B
:100F0000FD01222321F09093F3018093F201E091FF
:100F1000E201F091E301309749F082E08093F8011B
:100F20000480F581E02D88EF91E009940895803FD9
:100F300039F48091FB0187FF6AC01092FB0167C002
:100F4000813F29F48091FB011816BCF360C0909199
:100F5000FA01823F29F497FF5AC01092FA0157C054
:100F6000833F19F41916CCF352C09091FC01893FCC
:100F700031F419160CF04BC01092FC0148C08A3FA6
:100F800019F497FF44C0F8CF8B3F39F48091FD01ED
:100F900087FF3DC01092FD013AC08C3F29F480913B
:100FA000FD011816BCF333C0843F21F48091F90190
:100FB0008E7F17C0853F21F48091F9018D7F11C08C
:100FC000863F21F48091F9018B7F0BC0873F21F48C
:100FD0008091F901877F05C0883F31F48091F90144
:100FE0008F7E8093F90113C08D3F21F480912702F9
:100FF0008E7F0BC08E3F21F4809127028D7F05C02C
:101000008F3F29F4809127028B7F80932702809164
:10101000FA01811106C08091FB01811102C010927A
:10102000F5018091FC01811106C08091FD018111C3
:1010300002C01092F10108958091270280FF08C03C
:101040006091270170E0759567957595679521C04A
:1010500081FF06C06091270170E07595679519C002
:1010600082FF04C06091270170E010C09091F101EF
:10107000992399F0609126019617A0F78091270196
:10108000899FC001112470E00E94503260387105C0
:1010900040F46115710519F406C061E070E0862F17
:1010A00008958FE7089581E008958091270280FFD9
:1010B0000BC06091290185E0689FB00111247595EE
:1010C0006795759567952BC081FF09C060912901CF
:1010D00085E0689FB00111247595679520C082FF57
:1010E00007C06091290185E0689FB001112417C0F5
:1010F0009091F5019923D1F060912801961788F716
:101100002091290185E0289F90011124929FA00140
:10111000939F500D112470E0CA010E945032603834
:10112000710540F46115710519F406C065E070E0C1
:10113000862F08958FE7089581E00895803F21F478
:101140000E945508819504C0813F29F40E945508EA
:101150008093FB010895823F21F40E9455088195F8
:1011600004C0833F29F40E9455088093FA01089532
:10117000893F19F40E941C0805C08A3F31F40E947F
:101180001C0881958093FC0108958B3F21F40E94F7
:101190001C08819504C08C3F29F40E941C08809390
:1011A000FD010895843F21F48091F901816017C009
:1011B000853F21F48091F901826011C0863F21F4BE
:1011C0008091F90184600BC0873F21F48091F9017F
:1011D000886005C0883F31F48091F9018061809377
:1011E000F90108958D3F21F48091270281600BC0A1
:1011F0008E3F21F480912702826005C08F3F29F441
:10120000809127028460809327020895833011F132
:1012100028F4813049F0823091F00895853081F1D1
:1012200020F18630C1F108958091F401681720F40F
:10123000861B8093F40108951092F4010895809123
:101240000A01681720F4861B80930A010895109202
:101250000A01089580912901681720F4861B809364
:101260002901089510922901089580912801681795
:1012700020F4861B80932801089510922801089578
:1012800080912701681720F4861B80932701089519
:1012900010922701089580912601681720F4861B7B
:1012A000809326010895109226010895833081F1DC
:1012B00028F4813059F08230D1F00895853009F456
:1012C00049C0B8F1863009F456C008958091F40100
:1012D000262F30E0280F311D2F3F310524F4680FF1
:1012E0006093F40108958FEF8093F4010895809145
:1012F0000A01262F30E0280F311D2F3F310524F43D
:10130000680F60930A0108958FEF80930A01089592
:1013100080912901262F30E0280F311D2F3F310504
:1013200024F4680F6093290108958FEF80932901B9
:10133000089580912801262F30E0280F311D2F3F7E
:10134000310524F4680F6093280108958FEF80938E
:101350002801089580912701262F30E0280F311DA4
:101360002F3F310524F4680F6093270108958FEF14
:1013700080932701089580912601262F30E0280FC1
:10138000311D2F3F310524F4680F60932601089525
:101390008FEF8093260108958B3109F47AC058F5B8
:1013A0008B3009F498C078F4863009F446C020F4F4
:1013B000853009F44CC091C0873009F45CC0883096
:1013C00009F489C08AC0803109F476C068F48E308F
:1013D00009F083C08091FF0182FB222720F991E070
:1013E000922790FB82F95EC0863109F474C089317E
:1013F00009F471C072C08A32E9F060F4873209F4EE
:1014000067C028F48E3108F468C08D5162C08932FB
:10141000F1F063C0833450F48A3308F057C0853349
:1014200009F456C0883309F456C057C0833409F410
:101430004FC053C00E944B1D4EC08091FF01817F61
:101440008E7F8093FF0181E080931A03089580913D
:101450000B0190910C01892BF1F10E949F212FEF3C
:1014600084E39CE0215080409040E1F700C0000000
:101470000E944B1C30C08091FF01982F9095917075
:1014800090FB80F98093FF01911125C0897F877FB0
:1014900010C08091FF0181FB222720F991E0922763
:1014A00090FB81F98093FF019923A9F08091FF01BE
:1014B00081608093FF010FC08091FF0183FB222791
:1014C00020F991E0922790FB83F9ECCF895301C07A
:1014D00080E00E94E40481E0089580E00895809116
:1014E000CE01811118C08091D80080618093D8000E
:1014F0008AE18A95F1F700C08091D90080FD02C091
:1015000082E001C081E08093CE01823021F40E940C
:10151000B12A10920B0381E09091CE01913009F035
:1015200080E00895F894E82FE295EF70F0E031A1A3
:10153000282F2F7081E090E001C0880F2A95EAF7EC
:10154000982F9095932391A392A1892B82A37894AD
:1015500008958F929F92AF92BF92CF92DF92EF92B7
:10156000FF920F931F93CF93DF9300D000D01F9271
:10157000CDB7DEB70DE611E085EDC82E81E0D82E9F
:101580004601F12CAA24A394B12CB801D8018C9166
:10159000F894E82FE295EF70F0E021A18F70A5019B
:1015A00002C0440F551F8A95E2F7CA01922F982B6B
:1015B00091A392A18095892382A3789400C0E7E744
:1015C000F1E020E030E0E12C4191842F82958F7092
:1015D00090E0DC0190968C9190E04F7002C0959560
:1015E00087954A95E2F780FD07C08A2D022E01C03B
:1015F000880F0A94EAF701C080E0E82A2F5F3F4F86
:101600002630310509F70F5F1F4FFB0180810E94D3
:10161000920AF0EAFA95F1F7D4018C91E81619F0E4
:10162000EC9281E001C080E0F82ABFEF8B1A9B0AA0
:10163000E1E002371E0709F0A8CF1091E001FF207A
:1016400049F081E08093CC010E94D51C9093CB019E
:101650008093CA018091CC018823B9F08091CA019E
:101660009091CB010E94821C069778F0E12FF0E068
:10167000EF5EFD4FD6018D916D018193BAEDCB16D2
:10168000B1E0DB06B9F71092CC010E946F0A6091BD
:10169000E0018823E9F18E010F5F1F4F85E0F8011B
:1016A00011928A95E9F7862F90E0B8018F5E9D4FE1
:1016B0000E94012F811115C08091CD018F5F809311
:1016C000CD01863078F1E091DF01F0E0EF5EFD4F73
:1016D00080E090E01192019685309105D9F781E084
:1016E00022C01092CD01E091DF01F0E0EF5EFD4FEE
:1016F000D8019E012A5F3F4F80E09D9140814917AC
:1017000011F0908381E03196A217B307B1F70BC0B7
:1017100070E06F5E7D4F8091DF0190E08F5E9D4FA6
:101720000E942F2F80E0FF2011F081E090E00F90C9
:101730000F900F900F900F90DF91CF911F910F910D
:10174000FF90EF90DF90CF90BF90AF909F908F90E1
:101750000895CF93DF930E942427EC0182389105EE
:1017600059F1A0F48133910509F473C040F4893232
:10177000910509F467C08A9709F472C084C0853363
:10178000910509F458C0C997B9F07DC0833E910511
:1017900071F138F4803E9105B1F0823E910511F16E
:1017A00072C0863E9105B9F1873E9105C9F1843E2C
:1017B000910509F068C024C08091D30180FD5DC00F
:1017C00081FD5BC060C08091D30180FD50C08091DD
:1017D000D40180FF49C18091D30184FD43C1C3EE90
:1017E000D0E042C18091D30182FF3EC1F4CF80910D
:1017F000D30182FD3FC08091D40180FD3EC0EBCF7C
:101800008091D40181FF30C18091D30184FD2AC130
:10181000C7EED0E029C18091D30183FF25C1F4CF69
:101820008091D30183FD2CC08091D40181FFECCF46
:10183000C4EED0E019C18091D30185FF15C1C9E282
:10184000D0E012C18091D30185FF0EC1C5E3D0E085
:101850000BC18091D30186FF07C1CAE2D0E004C169
:101860008091D30186FF00C1C1E3D0E0FDC0C9E390
:10187000D0E0FAC0C2EED0E0F7C0C0EED0E0F4C0D5
:10188000C6EED0E0F1C0C11581E5D80708F066C00A
:10189000C11520E5D207E0F0CE0174E0969587955A
:1018A0007A95E1F783709C2F937021E030E002C0BD
:1018B000220F331F9A95E2F73C68382BCF70C695FC
:1018C000C69540E2C49FE0011124C22BD32BCCC0AB
:1018D000C83ED10560F5C03ED10508F0C5C0C83A84
:1018E000D105B0F4C53AD10540F0C55AD0E0CA568A
:1018F000DE4FC881D0E0D064B7C0C130D10509F453
:10190000B3C008F4AFC0C430D10508F4ABC0ACC05C
:10191000CF3BD10508F0A6C0C85AD0E0CC0FDD1FE0
:10192000C756DE4F0990D881C02DD4649DC0C11523
:1019300040E2D40758F4C11581E0D80708F094C0FC
:10194000C03FD10508F48EC0D0658EC0C11520E41B
:10195000D20708F487C0DF70D06A86C0C11545E59C
:10196000D40708F042C0C11584E5D80728F0DC2F61
:10197000CC27C46FD06A78C0C11523E5D207B0F078
:10198000CE018370992721E030E002C0220F331F7F
:101990008A95E2F78C2F8695869540E2849FC00158
:1019A0001124E901C82BD92BDA685EC0C11542E5C4
:1019B000D40728F4DC2FCC27C16FD06A55C0CE01E4
:1019C0008370992721E030E002C0220F331F8A95EF
:1019D000E2F78C2F8695869540E2849FC001112402
:1019E000E901C82BD92BDC683FC0C11589E5D807B0
:1019F000B8F4C11528E5D20728F0DC2FCC27C06F3A
:101A0000D06A32C0C11546E5D40760F58C2F0E941C
:101A1000A1048F71C82FD0E0DC2FCC27D06224C066
:101A2000C1158AE5D80780F48C2F8F700E94A1041D
:101A300094E0D695C7959A95E1F7CF70D0E0DC2F6A
:101A4000CC27D069C82B10C0CE019056811590428A
:101A500048F48D2F8F710E94A104DD27D0628F7111
:101A6000D82B02C0C0E0D0E0CE01DF91CF91089525
:101A7000AF92BF92CF92DF92EF92FF920F931F939C
:101A8000CF93DF93EC018AE0A82E2881222309F46A
:101A900097C0213009F041C08981813039F48E012D
:101AA0000E5F1F4F8A810E94082E08C0823041F4C9
:101AB0008E010E5F1F4F8A810E94E12CE8017EC0DB
:101AC000833039F48E010E5F1F4F8A810E947A2C79
:101AD000F5CF843011F0219671C02A81229680E0E2
:101AE00090E030E0205331092A30310558F4A89EA7
:101AF000A001A99E500D1124C901840F951F2196A4
:101B00002881EFCF009709F459C0EFE9FFE0319742
:101B1000F1F700C000000197F5CFE22FF0E0EC5D97
:101B2000FE4FB490822F86958695869590E0FC01B5
:101B3000EC5EFE4FE4902770F12C022E02C0F5946B
:101B4000E7940A94E2F7F1E0EF22FF24FC01EC5F56
:101B5000FE4FC490D12C022E02C0D594C7940A9493
:101B6000E2F731E0C322DD24FC01EC50FF4F049189
:101B700010E002C0159507952A95E2F7017011272C
:101B8000E114F10419F081EE0E94E12CC114D1049A
:101B900019F086EE0E94E12C8B2D0E94082ECD2894
:101BA00019F086EE0E947A2CEF2819F081EE0E943F
:101BB0007A2C012B19F08CE20E94082E219665CF19
:101BC000DF91CF911F910F91FF90EF90DF90CF9019
:101BD000BF90AF900895ECE0F2E080818E7F80832B
:101BE0000E944F27EEEEF1E08281816082832FEF29
:101BF00080E792E0215080409040E1F700C0000073
:101C00000C94140590910C0290FF3BC091708111CF
:101C100002C0926006C08B3210F0946502C0880F3B
:101C2000982B90930C028091F00181608093F001D9
:101C3000662351F060910C0270910D0280910E02AA
:101C400090910F020E948E0560910C02669570E0E3
:101C50004BE050E087E191E00E948032892B19F03F
:101C60000E944F2702C00E94562781E08093EB011B
:101C700020E040910F0260910E0280910D020C94C1
:101C8000890608951F93CF93DF93EC01162F8F8160
:101C900080FF0FC0888180FF0AC080910C028160A4
:101CA00080930C02888186950E94020E02C00E94D9
:101CB000EB0D8F8181FF06C0212F4B816A818981C5
:101CC0000E9489068F8182FF08C08E81882319F0C7
:101CD0000E94562702C00E944F278F8183FF03C0B6
:101CE00081E08093EB01DF91CF911F910895809166
:101CF0000C028695815009F48AE261E00C94020E90
:101D000080910C0286958F5F8B3208F081E061E054
:101D10000C94020ECF93DF93CDB7DEB7E2970FB6E8
:101D2000F894DEBF0FBECDBF84B7877F84BF0FB6E8
:101D3000F894A8958091600088618093600010926B
:101D400060000FBE90E080E80FB6F89480936100C9
:101D5000909361000FBE85B7806885BF85B78068A6
:101D600085BF84EA9BE19093C9018093C8010E94DA
:101D7000B12A0E94D02A8091E20084608093E20020
:101D8000789480910B038823A1F01091E9001F70D3
:101D90009091EC00892F817090FD80E8182B1092B3
:101DA000E9008091E80083FD0E948F271F70109347
:101DB000E90082E084BD93E095BD9AEF97BD8093E2
:101DC0006E001092CF011092D0011092D1011092AA
:101DD000D2018EE090E00E94773191E0811101C044
:101DE00090E09093090180910901882321F01092DD
:101DF000040186E003C086E080930401809305011E
:101E00000E946F0A81110E94D82E80910901809151
:101E10000901882311F090E001C095E09093E00162
:101E200085E0891B8093DF0187EF0E94920A81E39E
:101E30000E94920A83E30E94920A82E30E94920A1D
:101E400086E30E94920A07E711E06DE7E62E61E063
:101E5000F62EF80181918F010E94920AE016F10698
:101E6000C1F7E5EDF1E08FED91E0A1E1B2E0119273
:101E70001D928E179F07D9F780E090E00E94853170
:101E80008A3E9E4F11F00E944B1D82E090E00E941E
:101E900077318093FF010E943A1D9093D401809383
:101EA000D3010E94A90A8FE39CE90197F1F700C0D2
:101EB00000000E94A90A8091110280FF17C06FEFF5
:101EC00083E290E00E948B316FEF84E290E00E9409
:101ED0008B316FEF85E290E00E948B316FEF7FEFE7
:101EE00080E090E00E94A9310E944B1C83E090E0CA
:101EF0000E947731682F70E080E090E00E945C1FC4
:101F00000E946F0A811102C00E94DE2E83E290E0DF
:101F10000E9477318F3481F484E290E00E9477311F
:101F2000813051F485E290E00E94773191E0853E66
:101F300009F090E0892F01C080E080FF68C58091A2
:101F4000E10181113BC080E090E00E9485318A3E32
:101F50009E4F21F00E944B1D0E94C20588E090E038
:101F60000E947F3160930C0270930D0280930E02E9
:101F700090930F028091F00183608093F0016E7F57
:101F800071F40E94C20588E090E00E947F31609366
:101F90000C0270930D0280930E0290930F020E9428
:101FA0007B050E944F2780910C0280FF04C060E0F7
:101FB00086950E94020E81E08093E1018DE091E020
:101FC0009093E3018093E20138E1632E712C40E4A9
:101FD000542E5BE1A52E52E0B52E9E012F5F3F4FA0
:101FE000790180910B03853009F03FC000E112E1D7
:101FF00080910B03853009F034C080910B0384304D
:1020000009F11092E4010FB6F894A895609260006F
:102010000FBE5092600083B7817F846083BF83B717
:10202000816083BF7894889583B78E7F83BF0FB616
:10203000F894A89580916000886180936000109268
:1020400060000FBE80910A03882391F20E94A90AC2
:10205000E1E1F2E081918111BBC4AE16BF06D1F778
:10206000C7CF0E949F210E94E0250E94A90A8111EA
:102070000E94911CA0E0B2E0E1E1F2E000E010E09B
:10208000802E91908D91892549F1C12CDD24D39426
:10209000982F9D21F1F00E946F0A882399F0C9A61C
:1020A0008AA69D2081E009F480E08BA70E94D51CC0
:1020B0008160782F9DA78CA749A55AA56BA58DA5F2
:1020C0000E941625F801E050FE4F8081D826D0826C
:1020D0001AC0C394DD0C36E0C312DACF0F5F1F4F76
:1020E0000A30110569F68FEF8EA78FA718AA0E94F4
:1020F000D51C8160782F9AAB89AB4EA55FA568A9E6
:102100008AA90E9416258091EF01882309F4CFC087
:102110008091EE01E0910C02E695E81BE093EA0164
:10212000823059F4F0E0E654FD4FE4910E2F10E0B8
:1021300022E0C22E25E2D22E6BC0863059F4F0E0A8
:10214000E954FD4FE4910E2F10E092EFC92E94E276
:10215000D92E5EC0893061F4E695F0E0EC54FD4F75
:10216000E4910E2F10E087E7C82E84E2D82E50C0ED
:102170008F3061F4E695F0E0EF54FD4FE4910E2FBF
:1021800010E0BAEDCB2EB3E2DB2E42C0853159F41C
:10219000F0E0E255FD4FE4910E2F10E0A4E5CA2EC9
:1021A000A3E2DA2E35C08831F9F0833249F4ECEA43
:1021B000F2E005911491F2EBCF2EF4E2DF2E28C06D
:1021C0008432C9F08532F1F48E2F63E00E9422320E
:1021D000E92FF0E0E755FD4FE4910E2F10E0EBEA18
:1021E000CE2EE1E2DE2E14C008E210E071ECC72E24
:1021F00072E2D72E0DC004EF11E062E8C62E62E253
:10220000D62E06C000ED17E05AEAC52E51E2D52EB3
:102210008091EB01882361F01092EB010E94E11C98
:102220009093E9018093E8011092ED011092EC0186
:102230000E94E11CE091E801F091E9019C012E1B54
:102240003F0B2F3F3F4798F52091E7012223B1F044
:102250001092E7012091E5013091E601821B930B7A
:102260008F3F9F4758F4205D3A483093E601209312
:10227000E5018091F00188608093F0018090EC018D
:102280009090ED010E0F1F1F1093E9010093E801DC
:1022900088EE91E0F60109958091EC019091ED01B5
:1022A000892B29F4892819F081E08093E70186E0E1
:1022B000E8EFF1E0D70101900D928A95E1F7C09027
:1022C000FA01D090FB010091FC011091FD011092E8
:1022D000FA011092FB011092FC011092FD01C11055
:1022E00003C0DD2009F45DC08091F6019091F701F3
:1022F0000E94821CAC019091F501992339F0209144
:102300000A0130E02417350758F04BC02091F40142
:10231000FAE02F9F900111242417350718F041C0CF
:102320009F3F19F09F5F9093F501CC2061F00E94D0
:1023300055081C1414F491E001C09FEF899F802D73
:1023400011248093FA01DD2061F00E9455081D14CC
:1023500014F491E001C09FEF899F802D1124809398
:10236000FB013091FA013323E1F02091FB0122239C
:10237000C1F045EB3403C0011124992319F0909367
:10238000FA0103C081E08093FA0135EB2303C00119
:102390001124992319F09093FB0103C081E08093ED
:1023A000FB01011103C0112309F451C08091F20116
:1023B0009091F3010E94821C9C019091F10199235C
:1023C00009F43EC32536310508F441C09F3F19F09A
:1023D0009F5F9093F101002361F00E941C0810168A
:1023E00014F491E001C09FEF899F802D1124809308
:1023F000FC01112361F00E941C08111614F491E0F5
:1024000001C09FEF899F802D11248093FD013091A1
:10241000FC013323E1F02091FD012223C1F045EBC3
:102420003403C0011124992319F09093FC0103C0D7
:1024300081E08093FC0135EB2303C0011124992333
:1024400019F09093FD0103C081E08093FD0180911C
:10245000FA0181110BC08091FB01811107C08091AD
:10246000FC01811103C08091FD0181110E946D0763
:10247000CB82DC820D831E8386E0F701A8EFB1E0FA
:1024800001900D928A95E1F70E94E0259091FE015E
:10249000891721F00E94E0258093FE0180910B03B3
:1024A000843009F09ECD83E08093E9008091E800BC
:1024B00082FF97CD8091E80085FF21C00E94062C05
:1024C00081111BC040E2C42ED12C870109C080912C
:1024D000F100F80181938F01F1E0CF1AD10869F082
:1024E0008091E80085FDF3CF8091E8008B778093A1
:1024F000E8000E94062C882399F391E001C090E047
:102500008091E8008B778093E800992309F469CDE6
:1025100000911B0210911C0289810115110561F0C7
:102520008E3F09F02FC28A81833008F4A0C1855004
:10253000833008F027C29BC1893009F4D7C0D0F49A
:10254000843009F469C050F48230A1F108F055C01C
:10255000813009F015C21A8289E010C2863009F470
:102560006DC008F460C0873009F46BC0883009F48E
:102570009CC006C2803109F41CC180F48D3009F47E
:10258000C0C028F48C3009F0FBC180E116C18E3048
:1025900009F4BBC08F3009F4E0C0F2C1823109F404
:1025A0000EC108F409C1833109F430C18E3F09F42A
:1025B0005EC1E6C18A81823009F420C2833051F0C5
:1025C000813009F0DDC10E94911C9B838C837D8347
:1025D0006E83D8C180910B0190910C01892B09F475
:1025E000D1C1FE013396CE010D96A1E1B2E02D914D
:1025F0002193E817F907D9F7C5C18A81823009F01C
:10260000BFC16B817C818D819E810E946A3286E28E
:1026100090E00E948B31B6C14C816B818A810E940F
:10262000F6269D83F2C12D813E8132272327322752
:102630004C816B818A810E946F26A4C10E94A526CD
:10264000A1C18A818138B1F050F4803809F09AC173
:1026500020E04B8160910E0280910D0223C08238F0
:10266000E9F0833809F08EC120E040910F026C81BF
:102670008B8118C060E08B810E94020E8B818111DA
:1026800003C00E94EB0D7EC180910C02816080939B
:102690000C0260E086950E94020E74C18B818093CB
:1026A000100270C10E9489066DC18A81813899F03B
:1026B00030F4803809F066C180910F025FC1823822
:1026C00091F0833809F05EC180910D028B83809177
:1026D0000E028C8357C180910C0280FF02C0869548
:1026E0004DC180E04BC18091100248C160910C0245
:1026F00070910D0280910E0290910F020E948E0542
:1027000041C181E08A8389EF39C10A811B81102789
:10271000012710278C80912C2DE18216910408F05E
:1027200031C16701C801895F9D4F96012E193F098C
:102730002815390508F026C1093F31E0130728F4B0
:102740000E947731F601848302C0F60114820F5F84
:102750001F4FFFEFCF1ADF0AE5CF80910B01909159
:102760000C01892B09F40EC10A811B811027012756
:102770001027CC80D12C2DE1C216D10408F002C163
:102780004701C801895F9D4F94012E193F092C15FF
:102790003D0508F0F7C0093F31E0130720F4F401CC
:1027A00064810E948B310F5F1F4FFFEF8F1A9F0ACA
:1027B000E8CF0E945F26E6C084E08A83E3C00A81F6
:1027C0001B811027012710278C80912C2DE1821668
:1027D000910408F0D7C06701C801879696012E19A9
:1027E0003F092815390508F0CDC0003E31E0130738
:1027F00028F40E947731F601848302C0F601148226
:102800000F5F1F4FFFEFCF1ADF0AE6CF0A811B8150
:10281000102701271027CC80D12C2DE1C216D1041E
:1028200008F0B0C0003E31E0130708F0ABC080EE06
:1028300091E0801B910B8C159D0508F4A3C0470106
:10284000C801879694012E193F092C153D0508F003
:1028500099C0003E41E0140720F4F40164810E9415
:102860008B310F5F1F4FFFEF8F1A9F0AE9CF8A81CD
:102870008230C9F158F48823F1F0813009F082C028
:102880009CE499838A831B821C827CC0863009F475
:1028900060C0873009F46CC0853009F073C040E235
:1028A00050E06FEF70E0C7010E948D3280910B0104
:1028B00089830A8367C088E0EAE3F1E0DE0191964C
:1028C00001900D928A95E1F783E089831A821B8239
:1028D0001C8288E0FE01B196DE01159601900D92F2
:1028E0008A95E1F74FC08C8190E0982F88272B8143
:1028F000820F911D092E000CAA0BBB0B35E0880F2F
:10290000991FAA1FBB1F3A95D1F7AC01BD01405ECC
:102910005F4F6F4F7F4F481759076A077B0790F14A
:102920008C3421E09207A105B10560F54D3431E00A
:1029300053076105710520F04CE451E060E070E060
:10294000481B590BBC0162547D4FC7010E946E3178
:1029500019C081E090E090931C0280931B0282E3F7
:1029600090E090930B0280930A020E94D51C0AC04B
:1029700080910B0189830A8380910A028B8302C0B4
:102980008FEF898380910B03843009F02ACB10915B
:10299000E9001F709091EC00892F817090FD80E814
:1029A000182B82E08093E9008091E80080FF0CC042
:1029B00040E050E060E270E0C7010E94392C809155
:1029C000E8008E778093E8001F701093E90009CB30
:1029D00009BD19BD09B400FEFDCF8091D8008F7DDF
:1029E0008093D8008091E00082608093E000809125
:1029F000E00081FDFCCF0E949F21FACA86E290E0B0
:102A00000E9477311B821C821D828E83BBCF60E0C7
:102A100086E290E00E948B310E94A5260E945F26EC
:102A20006FE483E290E00E948B3161E084E290E009
:102A30000E948B3165EE85E290E00E948B317FCA67
:102A4000232B09F0C5CC03CD4F925F926F927F92FA
:102A50009F92AF92BF92CF92DF92EF92FF920F932D
:102A60001F93CF93DF93CDB7DEB729970FB6F894B6
:102A7000DEBF0FBECDBFFC018081918123813481F7
:102A8000232B31F09F3F31F491E08F3F19F403C0C5
:102A900091E001C090E090FD3EC67F0185E0DE013F
:102AA000119601900D928A95E1F7F70122818981B3
:102AB0009A81222349F00E94201E182F682F8981B5
:102AC0009A810E94C31E03C00E94961E182F69811E
:102AD0007A81812F0E9424278C01F701828188232B
:102AE00009F482C0980122513F452031310508F098
:102AF00093C08FEF93E00E94773181117FC02EEE5B
:102B0000D22ED00E07E012E0DD2071F00115F4E0C6
:102B10001F0709F473C0C8010E947731811101C0F9
:102B2000DA940F5F1F4FF0CF1E821F82188619861E
:102B3000AA24AA9468012FEFC21AD20AC8010E94DF
:102B400077318E831F82882309F458C0813009F0C1
:102B500046C0380132E0630E711CC6010E94773115
:102B60008F83882309F44AC09FEF980F933060F455
:102B7000680183E0C80ED11CC3010E9477318887A9
:102B800081112DC08601D6CF843011F06301FACFB8
:102B9000C3010E947731B82E680194E0C90ED11CA0
:102BA000C80103960E947731BB2041F1882331F19F
:102BB000282F30E021503109A29EA001A39E500D84
:102BC00011248B2D90E00197840F951F0197D0F26F
:102BD000EFE9FFE03197F1F700C00000F7CFCE0139
:102BE00006960E94380DCECF00313FE5130709F05D
:102BF000B9C481E00E94F91E0E9471278091880269
:102C0000877009F488C5F7018281882309F483C598
:102C100082E00E941E1F7FC50031FFE51F0711F4EF
:102C200081E005C001312FE5120721F482E00E9406
:102C30003B1FE2CF033FFCE51F0749F406E221EE0C
:102C400040EE63EF7CE5C7010E94EC25D7CF043F3F
:102C50002CE5120708F049C1083D3CE5130731F4A3
:102C600007E225EE45EE68ED7CE5EDCF093D9CE5FC
:102C7000190731F408E221E045EE69ED7CE5E3CF88
:102C8000073DECE51E0731F406E221EE41EE67ED6B
:102C90007CE5D9CF882309F45DC110921D02023072
:102CA0002CE5120708F440C106313CE5130730F06B
:102CB000C8018A5F9C45099708F036C10E943A1DF9
:102CC0009093D4018093D30100318CE5180709F467
:102CD000C3C008F041C00830ECE51E0709F49AC0F3
:102CE000F0F404302CE5120709F487C068F40230D0
:102CF0008CE5180709F477C003301C4509F0E5C0DE
:102D00008091D301826076C00630ECE51E0709F49D
:102D10006EC008F07BC08091D30188606BC00C301E
:102D20002CE5120709F485C068F40A308CE5180711
:102D300009F474C008F079C00E949F218091D301EA
:102D4000806858C00E30ECE51E0709F476C008F024
:102D50007FC08091D3018BC00B3F2CE5120709F493
:102D60004FC018F503318CE5180709F47DC078F4DD
:102D70000131ECE51E0709F473C002311C4509F06E
:102D8000A4C00E949F218091D3018F7733C0053169
:102D90002CE5120709F472C008F486C00A3F1C45EE
:102DA00009F093C08091D4013EC00F3F9CE5190704
:102DB00009F45FC058F40D3FFCE51F0709F444C057
:102DC00008F43FC08091D40182602DC001303DE500
:102DD000130709F475C008F45DC002301D4509F001
:102DE00074C060E06EC08091D301816003C08091A7
:102DF000D30180618093D30168C08091D30111C059
:102E00008091D40182608093D4015FC08091D3010E
:102E10008062F0CF8091D3018064ECCF8091D301A8
:102E200088608460E7CF8160EECF8091D3018E7F90
:102E3000E1CF8091D3018D7FDDCF8091D301877F5A
:102E4000D9CF8091D40118C08091D4018D7FDBCF80
:102E50008091D3018F7ECECF8091D3018F7DCACF59
:102E60008091D3018F7BC6CF8091D301877F8B7FE9
:102E7000C1CF8091D4018D7F8E7FC5CF8091D3014A
:102E800082FB222720F991E0922790FB82F990FBA8
:102E900083F9B0CF8091D401982F909591708E7F57
:102EA000892B90FB81F9AFCF0E949F218091D301A4
:102EB00087FB222720F991E0922790FB87F99ACF90
:102EC00061E08EE090E00E948B316091D30110911F
:102ED000D40184E090E00E948B31612F82E290E087
:102EE0000E948B310E949F2189CE053FFCE51F0780
:102EF00031F406E221EE42EE65EF7CE5A4CE053F1B
:102F00002CE5120730F407E225EE44EE64EF7CE591
:102F10009ACE063F3CE5130709F0BCCE07E225EE4A
:102F200046EE66EF7CE58FCE06318CE5180721F57D
:102F300080918B028A7A91E009F490E090931E02CE
:102F4000882311F065E301C069E28FE192E00E94FD
:102F5000201D0FC00631ECE51E0709F040C080912E
:102F60001E02882309F405C365E38FE192E00E9405
:102F7000131D0E94BC1D42CE0A352DE5120749F1F2
:102F800058F401158CE51807B1F00E3D1C4509F009
:102F900042C00E944B1D32CE0B35EDE51E07D9F025
:102FA0000C351D45C1F58091D40182FB882780F93D
:102FB00091E0892711C00E949F210FEF14E32CE0BC
:102FC000015010402040E1F700C000000E944B1C5F
:102FD00015CE81E001C080E00E94061E1CC08091D9
:102FE0008B0282720C3CECE51E0709F473C308F0F7
:102FF000F2C2063C2CE5120709F458C308F0C9C216
:10300000033C9CE5190709F447C308F0B4C2023C2D
:103010001C4509F417C3F7018281008111818823BF
:1030200049F0C8010E94201ED82E682FC8010E94B6
:10303000C31E04C0C8010E94961ED82EB8018D2D53
:103040000E94A90B8C01982EF701D280A580A29432
:103050009FE0A92280918802877099F0DD2089F095
:10306000812F807F803421F080E2800F883048F00B
:1030700082E00E941E1F809188028770CC24C39436
:103080008111C12CB12EB2948FE0B8228B2D90E02B
:103090008C30910508F047C2FC01EA5AFF4F0C94AE
:1030A0006432812F807F1F70882311F01295107F6A
:1030B000DD20B9F0112309F421C280E2800F8830AD
:1030C00010F0911006C080918B02182B10938B0288
:1030D00005C080918A02182B10938A020E94BC1DA1
:1030E0000DC2802F0E947A2C112309F41CC2005EAD
:1030F0001095083010F0911006C080918B021823B3
:1031000010938B0205C080918A02182310938A02C3
:103110000E94BC1D08C2812F807F1F70803211F079
:103120001295107F992021F0F1E09F1611F130C027
:10313000DD20B1F0AA2081F001E0A0120DC0809145
:10314000D40182FDF0C180918C02182B181709F46C
:10315000EAC110938C02E7C180918C02812B10C0D0
:10316000AA2021F021E0A21609F4DDC10E94B61DBB
:1031700027C0DD2041F035E03A1508F4D4C1812F95
:103180000E94702CD0C184E08A1508F4CCC118C00C
:10319000DD2049F0AA2099F3F701858180FFAEC1B7
:1031A0008F708583ECCFAA2059F0093309F0B8C19C
:1031B000FFEF17EE23E0F15010402040E1F7AEC1E1
:1031C000812F0E94652CAFC1812F869586958370D3
:1031D00019F0813059F0A7C1DD2019F0C8019370B2
:1031E00002C080E090E00E94CA259DC1DD2019F058
:1031F000C801937002C080E090E00E94B42593C1A2
:10320000802FDD2029F00E949E080E946D0702C0D9
:103210000E9497070E946D0786C1812F837009F075
:103220006AC0D11084C1902F929596959770990F8E
:10323000990F802F8F70482E512C612C712C092EE4
:1032400004C0440C551C661C771C0A94D2F704FF7A
:1032500012C04FE050E060E070E004C0440F551F22
:10326000661F771F9A95D2F7DB01CA01809590956A
:10327000A095B09503C080E090E0DC01169516950E
:10328000412F43704230D9F068F500918D021091C2
:103290008E0220918F0230919002413059F08429A2
:1032A0009529A629B729BC01CD016023712382236A
:1032B00093231EC0402A512A622A732A13C08429EC
:1032C0009529A629B72900918D0210918E0220918F
:1032D0008F0230919002BC01CD01602771278227B7
:1032E000932706C0BC01CD01642975298629972939
:1032F0000E945C1F18C1DD2019F0812F817001C070
:103300008695882309F413C1902F9295969597700E
:10331000990F990F802F8F70482E512C612C712C92
:10332000092E04C0440C551C661C771C0A94D2F765
:1033300004FF12C04FE050E060E070E004C0440FB2
:10334000551F661F771F9A95D2F7DB01CA0180953A
:103350009095A095B09503C080E090E0DC011695B3
:103360001695412F43704230D9F068F5009115034E
:10337000109116032091170330911803413059F032
:1033800084299529A629B729BC01CD016023712381
:103390008223932388C0402A512A622A732A13C0A9
:1033A00084299529A629B7290091150310911603A0
:1033B0002091170330911803BC01CD0160277127BC
:1033C0008227932770C0BC01CD0164297529862905
:1033D000972969C01F70DD2029F0812F0E943B1FB3
:1033E000802FCECE802F0E94652C812F49C0802F48
:1033F00032EF931609F440C0391538F090EF991662
:1034000061F0E1EF9E1699F174C0F3EF9F16D9F1C8
:1034100024EF921609F44EC06CC0DD2019F134E09F
:103420003A1508F480C01F7181E090E0A0E0B0E0A0
:10343000AC01BD0104C0440F551F661F771F1A95CC
:10344000D2F78091150390911603A0911703B091C4
:1034500018038A019B01082719272A273B27C9013E
:10346000B80121C025E02A1508F45DC0DCCFDD20BD
:1034700029F0812F8F7130C0DD20D9F3812F8F711A
:103480000E94F91E50C0DD2089F01F7181E090E09C
:10349000A0E0B0E0BC01CD0104C0660F771F881F1B
:1034A000991F1A95D2F70E94EF1E3DC060E070E0B0
:1034B000CB01F9CFDD2099F01F71812F0E943B1FB6
:1034C0008091D40182FD07C038E0139FC001112410
:1034D000836080938802812F0E943B1F24C081E07B
:1034E0000E941E1F81E08A15F0F482E00E941E1FD8
:1034F0001AC0DD2039F0AA2009F4BBCF802F0E942A
:10350000E12C11C0AA2009F4B9CF893349F49FEF07
:10351000E7EEF3E09150E040F040E1F700C000003A
:10352000802F0E947A2C88EF8B0D843010F40E943B
:10353000E025CC2009F4EFC08091880280FDEBC02B
:10354000F70112828595859585950E943B1FC701DD
:103550000E942415809188028595859585950E9405
:10356000F91ED9C001319FE5190709F063CB82E04C
:1035700041CB69E2FACC043C2CE5120709F491C076
:10358000053C1C4509F047CD4BE557E064E677E084
:10359000A5C0093C9CE5190709F492C070F4073CEA
:1035A000FCE51F0709F487C0083C1C4509F033CD32
:1035B0004FE457E063E477E091C00A3C3CE5130731
:1035C00009F483C00B3C1C4509F025CD40EA55E0C9
:1035D00061EB75E083C0013DECE51E0709F48AC08C
:1035E00098F40E3C2CE5120709F47EC008F479C06B
:1035F0000F3C8CE5180709F47AC0003D1C4509F022
:103600000ACD6EE089E084C0043DECE51E0709F4B4
:1036100077C060F4023D2CE5120709F46EC0033D4B
:103620001C4509F0F8CC61E088E16FC0053D8CE5F0
:10363000180709F468C00D351D4509F0ECCC6AE2A5
:1036400085E266C080910C0280FF20C08E7F80934F
:103650000C0260910C0270910D0280910E0290910B
:103660000F020E948E050E944F278091F001816019
:103670008093F001EFEFF0E702E0E150F04000400E
:10368000E1F700C000000E941405B8CA8160809371
:103690000C0261E0869539C047E75EE060E87EE0B5
:1036A0001DC040E85EE067E77EE018C044E657E0F2
:1036B0006BE577E013C043E457E06FE477E00EC0BA
:1036C0004BE257E067E377E009C047E357E06BE27E
:1036D00077E004C041EB55E060EA75E00E944927BD
:1036E0008DCA61E081E011C065E082E011C068E050
:1036F00086E00EC064E18FE00BC067E185E108C0A1
:1037000062E289E105C061E083E20E94020E76CAAE
:103710000E94372773CA29960FB6F894DEBF0FBEF2
:10372000CDBFDF91CF911F910F91FF90EF90DF9070
:10373000CF90BF90AF909F907F906F905F904F9091
:10374000089580910003089580E0089520915F021C
:1037500090912E0256E02917A9F030E0529FF00117
:10376000539FF00D1124E15DFD4F7181761306C06A
:103770007081781303C07281741306C02F5F3F4FAE
:103780002770E9CF80E0089581E00895CF93DF931B
:1037900000D01F92CDB7DEB790910B03943011F596
:1037A00089837B836A839093E9008FEF9091E8008F
:1037B000815095FD06C095ED9A95F1F700008111B5
:1037C000F5CF8091E80085FF0DC040E050E063E058
:1037D00070E0CE0101960E94392C8091E8008E772E
:1037E0008093E8000F900F900F90DF91CF91089594
:1037F000BC0184E00C94C61BBC0183E00C94C61B86
:1038000024E02093E9002FEF3091E800215035FDAE
:1038100006C035ED3A95F1F700002111F5CF209162
:10382000E80025FF0BC040E050E066E070E00E9439
:10383000392C8091E8008E778093E8000895CF932B
:10384000DF9321E02093E9002FEF3091E800215031
:1038500035FD06C035ED3A95F1F700002111F5CFA1
:103860002091E80025FF14C0EC0140E050E068E042
:1038700070E00E94392C8091E8008E778093E800F8
:1038800088E0FE01A1E0B3E001900D928A95E1F796
:10389000DF91CF91089587E797E790930108809390
:1038A00000089AE088E10FB6F894A895809360002C
:1038B0000FBE90936000FFCF78941F920F920FB6C7
:1038C0000F9211248F939F93AF93BF938091910296
:1038D00090919202A0919302B09194020196A11D41
:1038E000B11D8093910290939202A0939302B093A2
:1038F0009402BF91AF919F918F910F900FBE0F9047
:103900001F9018959C014FB7F89480919102909167
:103910009202A0919302B09194024FBF821B930B2D
:1039200008952FB7F894609191027091920280915E
:103930009302909194022FBF08950F931F930E94BA
:103940006F0A882321F01F910F910C94911C0E9403
:10395000911C0091CF011091D0012091D1013091A3
:10396000D201600F711F821F931F1F910F91089545
:10397000CF92DF92EF92FF926B017C010E946F0A5F
:1039800081110EC00E94911CC61AD70AE80AF90AD2
:10399000C092CF01D092D001E092D101F092D20139
:1039A000FF90EF90DF90CF9008952FB7F89480911B
:1039B000910290919202A0919302B09194022FBF34
:1039C00008950E946F0A81110C94D51C0E949D1CC1
:1039D000CB0108951F920F920FB60F9211248F936F
:1039E0009F93AF93BF938091E401811113C08091A5
:1039F000910290919202A0919302B091940241960B
:103A0000A11DB11D8093910290939202A093930205
:103A1000B0939402BF91AF919F918F910F900FBE81
:103A20000F901F9018959C012A5F3F4FFC01428127
:103A3000461301C01282019682179307B9F70895C1
:103A40009C01FC0132969FEF80E04191461789F07E
:103A50009F3F19F4411101C0982F8F5F8630A9F75D
:103A60009F3F39F0F901E90FF11D97FDFA95628347
:103A700008950895CF9384E090E00E947731C82F95
:103A800082E290E00E9477312C2F30E0A901582B80
:103A9000CA01CF9108956AEE7EEF80E090E00E9427
:103AA000A93160E082E090E00E948B3160E083E029
:103AB00090E00E948B3110928D0210928E02109233
:103AC0008F021092900260E084E090E00E948B31BF
:103AD00060E082E290E00E948B3160E085E090E05F
:103AE0000E948B3160E086E090E00E948B316FEFA6
:103AF00087E090E00E948B3140E050E0BA0188E01E
:103B000090E00E949D3160E08DE090E00E948B315A
:103B100040E050E0BA0188E190E00E949D3160E011
:103B200087E190E00E948B3140E050E0BA018CE1E7
:103B300090E00E949D3160E070E080E290E00E94A1
:103B4000A93140E050E0BA0188E190E00E949D3147
:103B500040E050E0BA018FE090E00E949D3140E0EB
:103B600050E0BA0183E190E00C949D3180918C0289
:103B7000811110928C02089590918B0280918A029B
:103B8000892B20918902982F922B90931F0280916C
:103B90008C02882389F0892B80931F02E1E2F2E0F6
:103BA00097E080E0915029F021912223D9F38F5F93
:103BB000F9CF81110E94B61DE091E201F091E3017D
:103BC000309731F00280F381E02D8FE192E009948B
:103BD000089580E090E00E94CA2580E090E00E9475
:103BE000B42510928A02109289020E94BC1DE8EF4F
:103BF000F1E086E0DF011D928A95E9F71092F50168
:103C00001092F101109227020C946D07CF93C0918E
:103C1000D401C2FB992790F9981781F080FBC2F973
:103C2000C093D4016091D30184E090E00E948B3175
:103C30006C2F82E290E0CF910C948B31CF9108955C
:103C4000BF92CF92DF92EF92FF920F931F93CF9389
:103C5000DF938C01C0901503D0901603E0901703FA
:103C6000F090180380918D0290918E02A0918F02A6
:103C7000B0919002C82AD92AEA2AFB2ACFE1D0E0E3
:103C8000D701C6010C2E04C0B695A79597958795C8
:103C90000A94D2F780FD04C0219790F7B12C07C099
:103CA000BC2EB8018C2F0E94A90B0197A9F38B2D74
:103CB000DF91CF911F910F91FF90EF90DF90CF9008
:103CC000BF900895CF93DF93EC010E94201EBE01A8
:103CD0000E94A90BDF91CF9108950E94621E292FA7
:103CE0002F70E92FE295EF704E2F50E0FA013297D6
:103CF000EE30F105B8F4EE59FF4F0C946432803F7A
:103D000099F018F4883E70F40FC0843F59F40CC049
:103D1000883E50F0813F31F407C0822F869586950A
:103D20008695089580E0089581E00895292F220F57
:103D3000920F990F890F682F669566956695982F53
:103D4000977085E0689FB001112440E050E080E06A
:103D5000FB01E40FF51FE05AFD4F208130E0092EF2
:103D600002C0369527950A94E2F721703327042E76
:103D700001C0220F0A94EAF7822B4F5F5F4F453054
:103D8000510531F70895292F220F920F990F890FAE
:103D9000E82FE695E695E695877051E001C0550F4E
:103DA0008A95EAF785E0E89FF0011124E05AFD4F7B
:103DB00020E030E070E04081CB01022E02C09695F9
:103DC00087950A94E2F7817081958427852384275B
:103DD00081932F5F3F4F2530310569F70895609338
:103DE00015037093160380931703909318030C9494
:103DF000E91D0F931F9341E050E060E070E004C0C4
:103E0000440F551F661F771F8A95D2F7409550952E
:103E1000609570958091150390911603A0911703FA
:103E2000B09118038A019B01082319232A233B23FD
:103E3000C901B8011F910F910C94EF1E20918802C7
:103E40008095822380938802982F977041F430E008
:103E5000482F082E000C550B2417350721F490919C
:103E6000D40192FF07C08595859585950E94F91E1E
:103E70001092880208950F931F9341E050E060E094
:103E800070E004C0440F551F661F771F8A95D2F754
:103E90008091150390911603A0911703B091180318
:103EA0008A019B01082B192B2A2B3B2BC901B80136
:103EB0001F910F910C94EF1E60938D0270938E02F0
:103EC00080938F02909390020C94E91D80915F0281
:103ED00090912E02891719F08F5F8770FBCF08959C
:103EE0000F931F93CF93DF9380912D0282958F7054
:103EF00009F05DC080912A02882309F458C080919E
:103F00005F0210912E026091280270912902C091E7
:103F10002B02D0912C0291E06F3F09F090E0292F05
:103F200006E0811709F443C0209721F07F3F21F07C
:103F300030E003C031E001C0322F90E030FD34C0EA
:103F4000089FF001099FF00D1124DF01A15DBD4F15
:103F500011963C911197371327C03C91361324C01A
:103F600012963C91129731111FC013964D915C919E
:103F700014974C1B5D0B483C5105B0F480912D0209
:103F80008F70806180932D02EC5CFD4F80818F707B
:103F90008061808388E292E00E942415DF91CF91B6
:103FA0001F910F910C94661F01968770BACFDF9115
:103FB000CF911F910F9108958F929F92AF92BF92D0
:103FC000CF92DF92EF92FF920F931F93CF93DF93E5
:103FD000CDB7DEB761970FB6F894DEBF0FBECDBF89
:103FE0008C0185E0F801DE011D9601900D928A9505
:103FF000E1F7D801DC901196EC9011971296CC90D5
:10400000909128022091290240912B0250912C027C
:104010004115510531F02F3F31F481E09F3F19F4F4
:1040200003C081E001C080E080FD58C1F801A38099
:10403000B48088E2882E82E0982EF0902A02B501A2
:10404000641B750BFF2009F403C180912D02382FEA
:10405000307F683C710508F0CDC0311188C02E1149
:1040600012C09D1110C0FC2CC1100DC08F7080615A
:1040700080932D02C4010E94241580912D02D80145
:1040800015968C9348C1A114B10439F0BFEFEB121F
:1040900006C081E0DB1203C003C081E001C080E004
:1040A00080FD03C081E08C2502C080E090E080FFAD
:1040B00010C04C2D6E2D8D2D0E94A61B882349F01B
:1040C00088E292E00E942415E8E2F2E086E0DF0157
:1040D00099C0AB2839F0BFEFEB1206C081E0DB12CC
:1040E00003C003C081E001C080E080FD03C081E027
:1040F0008C2502C080E090E0E82FE170BE2E80FFAA
:104100002CC04C2D6E2D8D2D0E94A61BF82E8111DA
:1041100024C0DD86EE868D859E850E94621E292F35
:1041200022952F70223018F0243090F405C09F7033
:1041300059F0811109C0EFC09F7031F0D801159678
:104140009C91907F09F4E7C0805E883008F4E3C05A
:10415000C8010E942415FB2CDEC0FC2CCC2009F4E5
:10416000DAC080912D02816080932D024EC02E1105
:1041700006C09D1104C0C11002C0F8018BC0DD86CD
:10418000EE868D859E850E946D1E882369F1CC2068
:1041900059F120912D02822F82958F7090E0029725
:1041A00074F0809128029091290298878F83198654
:1041B000BB86AA862C87CE0107960E94241586E02E
:1041C000F801A8E2B2E001900D928A95E1F70E9411
:1041D000701F0DC02E15D9F0DD86EE868D859E856B
:1041E0000E946D1E81111DC0C8010E942415FF246C
:1041F000F39491C03111EECF88E292E00E94241531
:1042000086E0D4011D928A95E9F7F12C84C09D11B6
:10421000E3CFC110E1CFF8018583C8010E942415C6
:1042200057C0CC2009F320912D02822F82958F70E8
:1042300090E0029724F280912802909129029A83BB
:1042400089831B82BD82AC822E83CE010196B5CFBD
:10425000683C7105E8F5FC2CCC2031F22E1127C00A
:104260009D1125C020912D0220FD18C0822F82951E
:104270008F70482F50E04115510581F0F8012583DA
:104280004F30510541F08F5F982F9295907F822F8C
:104290008F70892B8583C8010E94241586E0F80160
:1042A000A8E2B2E001900D928A95E1F734C0DD8674
:1042B000EE868D859E850E946D1E811180CF809136
:1042C0002D02816080932D02C8010E94241523C015
:1042D00086E0D4011D928A95E9F71DC0CC2009F42F
:1042E00083CFDD86EE868D859E850E946D1EF82E1D
:1042F000882309F479CF86E0F801A8E2B2E00190C2
:104300000D928A95E1F780912802909129020E94EE
:10431000621E0E94701F8F2D61960FB6F894DEBF4B
:104320000FBECDBFDF91CF911F910F91FF90EF9006
:10433000DF90CF90BF90AF909F908F900895109294
:104340008B0286E0E1E2F2E0DF011D928A95E9F757
:104350000C94E91D08957F928F929F92AF92BF9225
:10436000CF92DF92EF92FF920F931F93CF93DF9341
:10437000FC018280748081E08483EAE0F4E0949020
:10438000E9E8F4E0E491A12CF5E0BF2ECC24CA9436
:10439000D12CE9190E2F10E080910801A81608F021
:1043A000A2C0EA2CF12C22E0281568F0BE9CF00196
:1043B000BF9CF00D1124E454FD4F80910D028083C9
:1043C00080910E02818371100AC0BE9CF001BF9CD7
:1043D000F00D1124E454FD4F138212826AC0BE9C7A
:1043E000E001BF9CD00D1124C454DD4F8B81882384
:1043F000F9F081508B832FEF829FC00111246C81D3
:1044000070E00E943C32FB01FF27E65FFB4F849186
:10441000E82FE9192FEFE29FC0011124B8010E9493
:104420003C3280910F02689FB00111247A8341C011
:104430000E945E3120910F022695215830E0A9019B
:10444000440F551F322F2227240F351F232F3327C8
:104450008217930774F582E0881588F40E945E3114
:10446000B6010E94503288830E945E3120910E0274
:104470002695622F70E00E945032280F2983BE9C3F
:10448000F001BF9CF00D1124E454FD4F1282809185
:104490000F02843120F0893C18F088EC01C084E1DF
:1044A000BE9CF001BF9CF00D1124E454FD4F8483A9
:1044B0008383809106019701280F311DC901880F60
:1044C000991F280F391F28563D4FBE9CF001BF9CF5
:1044D000F00D1124E454FD4F4281618180810E94DE
:1044E000D905A39459CFDF91CF911F910F91FF90E0
:1044F000EF90DF90CF90BF90AF909F908F907F9084
:104500000C9414050F931F93CF93DF93EC0100E0FD
:1045100010E080910801282F30E00217130724F5DE
:10452000909106019801290F311DA901440F551FD3
:10453000240F351F28563D4F869590E04C81081773
:1045400019071CF4442331F002C0411103C040910B
:104550000F0201C040E060910E0280910D020E94A6
:10456000D9050F5F1F4FD5CF0E9414058C8190E0B5
:104570000196817099278C83DF91CF911F910F91C4
:1045800008958F929F92AF92BF92CF92DF92EF9257
:10459000FF920F931F93CF93DF938C01FC01448113
:1045A000C42FD0E09E01DE010E9413329B01AC01BA
:1045B0000E94DE316B017C01E0E2F0E0EC1BFD0BC0
:1045C000A5E5B0E09B01AC010E94DE314B015C012E
:1045D0009F01DF010E9471329B01AC010E94E93111
:1045E0009B01AC012C0D3D1D4E1D5F1DC501B4018D
:1045F0000E94F131C22FD22F2A3228F4F3E02F9FEC
:10460000900111240DC025E530E02C1B3109C901B2
:10461000880F991F280F391F37FF02C02F5F3F4FA8
:1046200035952795C22FC095F12C85E5E82EED1A1A
:1046300080910801F816C8F4F1FC02C08E2D01C06B
:104640008D2F909106012F2D30E0290F311DA901EA
:10465000440F551F240F351F28563D4F4C2F609196
:104660000E020E94D905F394E3CF0E941405F801CD
:104670008481811102C091E003C0803219F49FEF60
:104680009093240190912401890FF8018483DF9194
:10469000CF911F910F91FF90EF90DF90CF90BF903F
:1046A000AF909F908F9008951F93CF93DF93EC016D
:1046B0008C81811109C081E08C831092960292E076
:1046C000909323018093220180910601909107012C
:1046D000891770F4E82FF0E09F01220F331FE20FDB
:1046E000F31FE856FD4F1182108212828F5FF0CFC8
:1046F00010E0609108011617C0F5E12FF0E070E0BE
:10470000CF010E94503220910601820F2091960223
:10471000022E000C330B90E0E217F307CCF020914F
:104720002301022E000C330B2E173F078CF09C0147
:10473000220F331F820F931F9C0128563D4F40913B
:104740000F0260910E0280910D020E94D9050BC0EC
:10475000FC01EE0FFF1F8E0F9F1FFC01E856FD4F5F
:104760001182108212821F5FC4CF0E9414058091B3
:10477000220120919602280F209396029091230106
:10478000980F9093230119165CF4022E000C330B42
:104790004091080150E0415051092417350734F089
:1047A000819580932201813009F41C82DF91CF91A1
:1047B0001F9108958F929F92AF92BF92CF92DF92F6
:1047C000EF92FF920F931F93CF93DF93EC018A81B7
:1047D00080FF03C0BB24BA9402C0BB24B3948C8175
:1047E00081110DC081E0B81206C08091080181508E
:1047F0008093950202C01092950281E08C83A12CD7
:104800004CE0942E80910801A81608F044C08091D5
:104810000601CA2CD12C8601080F111DC801880F72
:10482000991F080F191F08561D4FF8011182108299
:10483000128234E0E32EF12C812C80919502880DB8
:104840008D302CF0692D0E942E32892F05C087FFF4
:1048500003C090910801890F082E000C990BC8160F
:10486000D90691F480910F028E9DA0018F9D500D6D
:1048700011245595479555954795980160910E02DD
:1048800080910D020E94D9058B0CF1E0EF1AF1081E
:10489000A1F6A394B7CF0E9414058091950291E0F0
:1048A000B9120EC0811107C0809108018150809318
:1048B00095021C820FC0815080939502BC820AC071
:1048C00090E001966091080170E00E945032809360
:1048D00095028C83DF91CF911F910F91FF90EF9004
:1048E000DF90CF90BF90AF909F908F900895FF92F0
:1048F0000F931F93CF93DF93EC01F12C0FEF10E098
:1049000060910801F616F0F4809106012F2D30E039
:10491000280F311DC901880F991F280F391F2856EC
:104920003D4F70E0C8010E945032962F8C8140911B
:104930000F0260910E02F99E800D11240E94D9058C
:10494000F394DECF0E9414059A818C8190FF02C0FF
:104950008F5F01C081508C83DF91CF911F910F91A8
:10496000FF9008950F931F93CF93DF9300D01F9272
:10497000CDB7DEB78C018091970281110AC09E01EC
:104980002F5F3F4F4FEF6FEF0E94D9058A818093D1
:104990009702F8018481813051F028F0823061F46F
:1049A000409197020AC08091970240E007C0609151
:1049B000970240E080E003C040E080E060E00E94B9
:1049C0006005F801848190E0019663E070E00E9448
:1049D000503284830F900F900F90DF91CF911F91F1
:1049E0000F910895CF93DF93EC01ECE0F2E0438167
:1049F00062818C810E946F068C818F5F8C83DF9136
:104A0000CF910895CF93DF93EC01EC81F0E0E65F66
:104A1000FB4F4491ECE0F2E0628181810E946F06DD
:104A20008C818F5F8C83DF91CF9108951F93CF93FB
:104A3000DF93CDB7DEB767970FB6F894DEBF0FBE32
:104A4000CDBF342F4B8B252F5C8B6D8B7E8B8F8B4B
:104A50004E895F89611110928A0286E0FE013D96BF
:104A6000DF01982F1D929A95E9F73D872E876F8772
:104A7000598B488BDE01179601900D928A95E1F7CC
:104A8000CE0107960E94DC1F81113EC086E0FE0128
:104A90003796DE01119601900D928A95E1F7FF811C
:104AA000E8856A857B856115710531F0EF3F31F44A
:104AB00081E0FF3F19F403C081E001C080E080FD88
:104AC00023C020912E0230E0C901019687709927FA
:104AD00040915F0250E08417950779F1F983EA83EA
:104AE0007D836C8396E0929FD001939FB00D11243B
:104AF000A15DBD4FFE01319601900D929A95E1F7AF
:104B000080932E020E94661F16E080915F029091B2
:104B10002E028917F9F0189FC0011124815D9D4F65
:104B20000E94DC1F8823B1F080915F0290E0019623
:104B30008770992780935F02E8CF0E949F2110928F
:104B40002E0210925F02E8E2F2E086E0DF011D92A1
:104B50008A95E9F767960FB6F894DEBF0FBECDBF12
:104B6000DF91CF911F9108952091FC023091FD02B9
:104B70002817390771F09093FD028093FC02E091B1
:104B8000E201F091E301309721F00084F185E02DFE
:104B9000099408952091FA023091FB0228173907F1
:104BA00071F09093FB028093FA02E091E201F091A0
:104BB000E301309721F00680F781E02D09940895F4
:104BC000E091E201F091E301309721F00190F08152
:104BD000E02D099480E008950F931F93CF93DF9306
:104BE000C42FD22FFC0182818823C9F040931D027B
:104BF0000E94D51C9093F9028093F80280E28C0FFA
:104C0000883008F057C0C77081E001C0880FCA958E
:104C1000EAF7DF91CF911F910F910C94702C809146
:104C20001D02481330C08091F8029091F9020E9451
:104C3000821C883C910538F510E21D0FCD17B9F0A4
:104C400080E28C0F883040F4C77081E001C0880F8B
:104C5000CA95EAF70E94652C183028F581E09D2F4F
:104C6000977001C0880F9A95EAF70E94702C802FE8
:104C70000E94082E1830F0F4D77081E001C0880F30
:104C8000DA95EAF70AC080E28C0F883098F4C77092
:104C900081E001C0880FCA95EAF7DF91CF911F919B
:104CA0000F910C94652C802FDF91CF911F910F9164
:104CB0000C94082EDF91CF911F910F910895CF93FF
:104CC000DF93C7E0D2E060E0CE010E948B312196F5
:104CD000C11584E0D807B9F7DF91CF9108950F93FC
:104CE0001F93CF93DF93843058F56A3048F54630F0
:104CF00038F521159CE5390731F4E0910B01F0916D
:104D00000C01EF2BE9F08901C42FD0E0CC0FDD1F9F
:104D10009CE0699FC00DD11D112498E7899FC00DAB
:104D2000D11D1124612FCE0187960E948B31602FF7
:104D3000CE018896DF91CF911F910F910C948B310A
:104D4000DF91CF911F910F9108958F929F92AF9213
:104D5000BF92CF92DF92EF92FF920F931F93CF9368
:104D6000DF93C0900B01D0900C0181E090E0909314
:104D70000C0180930B01812CE12CF12C912C00E093
:104D800010E0C0E0D0E05701A00EB11EFE01EE0F12
:104D9000FF1FEA0DFB1DE65FFA4F259134914C2F62
:104DA000692D882D0E946F262196C630D10571F796
:104DB000045F1F4F93948AE09812E3CF88E7E80ED0
:104DC000F11C839484E08812D9CFD0920C01C09258
:104DD0000B01DF91CF911F910F91FF90EF90DF902A
:104DE000CF90BF90AF909F908F9008950F931F9397
:104DF000CF93DF93843008F56A30F8F44630E8F456
:104E0000C42FD0E0CC0FDD1F2CE0629FC00DD11D60
:104E1000112438E7839FC00DD11D1124CE01879640
:104E20000E94773190E0182F0027CE0188960E94CB
:104E300077319801282BC90102C080E090E0DF9112
:104E4000CF911F910F910895462F20911B02309111
:104E50001C02232B49F4843038F47A3028F466306D
:104E600018F4672F0C94F62680E090E00895909156
:104E70000C0290FF04C09695981740F003C0811172
:104E800005C090E0961710F40C94800E61E00C942D
:104E9000020E882311F0FA0101C0FB010994EEEE25
:104EA000F1E01182828184608283089560910C0216
:104EB000669570E04BE050E087E191E00E9480321F
:104EC000892B19F481E08093EF010E94E11C9093FB
:104ED000E9018093E8018091F00184608093F00102
:104EE00008950F931F938091150390911603A0913D
:104EF0001703B09118038C019D010670112722271A
:104F00003327BC01CD01063011052105310511F40F
:104F1000686001C0677F1F910F910C94EF1E1F9373
:104F2000CF93DF93CDB7DEB7AA970FB6F894DEBF65
:104F30000FBECDBFEDE0F3E08091F100819343E03F
:104F4000E531F407C9F780910E03833009F462C09C
:104F500030F4813071F0823009F49CC0B3C08A30E3
:104F600009F488C08B3009F46DC0893009F0AAC0FB
:104F700020C080910D03813A09F0A4C08091E8001F
:104F8000877F8093E8008091110390911203892B11
:104F900021F468E081E093E003C060E080E090E00D
:104FA00070E00E947A2E8091E8008B778093E80071
:104FB00089C080910D03813209F084C08091110372
:104FC00090911203009719F0029709F07BC080912D
:104FD000E800877F8093E8008091E80082FD05C0AB
:104FE00080910B038111F8CF6DC02091F300809167
:104FF000F20090E0922B029729F48091F1008B7FD0
:10500000813021F48091F100809300038091E800C9
:105010008B7754C080910D03813A09F053C0809181
:10502000110390911203892B09F04CC08091E80084
:10503000877F8093E8008091E80080FFFCCF80911B
:10504000250137C080910D038132E1F58091110374
:1050500090911203892BB1F58091E800877F8093AE
:10506000E8000E94262E80910F03809325010E9464
:105070009F2128C080910D03813221F58091E800A5
:10508000877F8093E8000E94262E809110038093F2
:10509000FF0218C080910D03813AA1F48091E800CD
:1050A000877F8093E8008091E80080FFFCCF8091AB
:1050B000FF028093F1008091E8008E778093E800F2
:1050C0000E94262E8091E80083FFE9C180910D03A4
:1050D00090910E03492F50E04A30510508F0DFC18E
:1050E000FA01E059FF4F0C946432803821F0823885
:1050F00009F0D5C108C08091090390910A03992352
:1051000089F082600FC0809111038F70873008F0A2
:10511000C6C18093E9008091EB0085FB882780F968
:105120001092E9009091E800977F9093E8008093B7
:10513000F1001092F1007CC1282F2D7F09F0AFC142
:10514000882319F0823061F0AAC180910F03813069
:1051500009F0A5C1933009F080E080930A032EC0C6
:1051600080910F0381112AC0809111038F702FEF5E
:10517000280F263008F093C18093E9002091EB00BE
:1051800020FF1CC0933021F48091EB00806214C09A
:105190009091EB0090619093EB0021E030E0A90149
:1051A00002C0440F551F8A95E2F74093EA0010921F
:1051B000EA008091EB0088608093EB001092E90098
:1051C0008091E800877F8093E8000E94262E67C1C7
:1051D000811165C110910F031F778091E3008078E2
:1051E000812B8093E3008091E800877F8093E80023
:1051F0000E94262E8091E80080FFFCCF8091E30082
:1052000080688093E300111102C082E001C083E056
:1052100080930B0344C18058823008F040C1209134
:105220000F03309110032C3D53E0350779F583E0EF
:105230008A838AE289834FB7F894DE01139620E0CF
:105240003EE051E2E32FF0E050935700E49120FF5D
:1052500003C0E295EF703F5FEF708E2F90E0EA3071
:1052600010F0C79601C0C0968D939D932F5F243197
:1052700049F74FBF8091E800877F8093E8006AE29A
:1052800070E0CE0101960E947A2EC0C08091110379
:1052900090911203432F552743305105B1F068F424
:1052A0004130510509F40AC14230510509F0F7C0F7
:1052B0008BE590E0EDECF7E057C04132510589F104
:1052C0004232510509F43CC0EAC0C9019927813036
:1052D0009105B9F070F082309105D9F0039709F08B
:1052E000DEC0EAE3F8E0E4918E2F90E0EAE3F8E034
:1052F00038C0ECEAF8E0E4918E2F90E0ECEAF8E0B8
:1053000030C0E6E9F8E0E4918E2F90E0E6E9F8E0BD
:1053100028C0E8E5F8E0E4918E2F90E0E8E5F8E0B9
:1053200020C08330910508F0BAC0880F991FFC0196
:10533000EA57FE4F0190F081E02D89E090E014C023
:105340008330910508F0ABC0FC01EE0FFF1FE05861
:10535000FE4F0190F081E02DDC01A358BE4F8C91EF
:1053600090E0009709F49BC02091E800277F2093EC
:10537000E80020911303309114032817390708F42B
:10538000C90140E0009789F120910B03222309F421
:105390003DC02530D9F12091E80023FD37C0209190
:1053A000E80022FD2FC02091E80020FFEBCF4091C4
:1053B000F3002091F20030E0342B009759F02830B0
:1053C000310540F444914093F100319601972F5FED
:1053D0003F4FF3CF41E02830310509F040E0209104
:1053E000E8002E772093E800CDCF4111CDCF0AC041
:1053F00080910B03882351F0853041F08091E800C3
:1054000083FD04C08091E80082FFF2CF8091E80024
:105410008B778093E80043C0803809F040C08091CA
:10542000E800877F8093E80080910C038093F1006F
:105430008091E8008E77C7CE811131C080910F0333
:10544000909110039927029754F58091E800877F87
:105450008093E80010910F0310930C030E94262EF6
:10546000111106C08091E30087FD02C081E001C0F8
:1054700084E080930B0342E061EC81E00E94452EC2
:1054800042E261EC84E00E94452E42E261EC82E05F
:105490000E94452E42E260EC83E00E94452E8091FE
:1054A000E80083FF10C08091E800877F8093E800C8
:1054B0008091EB0080628093EB0005C082E190E078
:1054C000E8E2F8E051CFAA960FB6F894DEBF0FBE1F
:1054D000CDBFDF91CF911F9108951F920F920FB60C
:1054E0000F9211242F933F934F935F936F937F936A
:1054F0008F939F93AF93BF93CF93DF93EF93FF93DC
:10550000C091E900CF708091EC00D82FD17080FD60
:10551000D0E81092E9008091F000877F8093F0003E
:1055200078940E948F271092E9008091F0008860A3
:105530008093F000CD2BCF70C093E900FF91EF91E5
:10554000DF91CF91BF91AF919F918F917F916F919B
:105550005F914F913F912F910F900FBE0F901F9031
:105560001895E8EDF0E080818E7F80831092E20054
:105570001092DA001092E100A0EEB0E08C91816010
:105580008C9380818F77808319BCA7EDB0E08C91DC
:105590008E7F8C9380818F7E80831092FE0208958F
:1055A000CF92DF92EF92FF920F931F93CF93DF93EF
:1055B000C8EDD0E088818F7E8883E7EDF0E08081C0
:1055C0008160808384E082BF81E08093FE028881D5
:1055D0008E7F888302EE10E0F80110821092DA00CC
:1055E00081EEC82ED12CF601108288818F778883B6
:1055F00088818068888388818F7D888319BC109218
:105600000B0310920C0310920A031092090390EE00
:10561000E92EF12CF70180818B7F80838881816066
:10562000888342E060E080E00E94452EF6018081A0
:105630008E7F8083F8018081816080838081886093
:105640008083F70180818E7F808388818061888359
:10565000DF91CF911F910F91FF90EF90DF90CF904E
:1056600008951F920F920FB60F9211242F933F931C
:105670004F935F936F937F938F939F93AF93BF935A
:10568000EF93FF938091E10082FF09C08091E200D7
:1056900082FF05C08091E1008B7F8093E1008091C3
:1056A000DA0080FF2AC08091D80080FF26C0809158
:1056B000DA008E7F8093DA008091D90080FF18C0D5
:1056C00080E189BD82E189BD09B400FEFDCF81E0A2
:1056D00080930B038091FE0281110FC00E94B12ABA
:1056E0000E94D02A8091E20084608093E20005C08D
:1056F00019BC10920B031092FE028091E10080FF12
:1057000017C08091E20080FF13C08091E2008E7F7D
:105710008093E2008091E20080618093E2008091BA
:10572000D80080628093D80019BC85E080930B0379
:105730008091E10084FF2EC08091E20084FF2AC0A6
:1057400080E189BD82E189BD09B400FEFDCF809171
:10575000D8008F7D8093D8008091E1008F7E809368
:10576000E1008091E2008F7E8093E2008091E20070
:1057700081608093E20080910C03882311F084E023
:1057800007C08091E30087FD02C081E001C083E093
:1057900080930B038091E10083FF27C08091E2009A
:1057A00083FF23C08091E100877F8093E10082E046
:1057B00080930B0310920C038091E1008E7F809305
:1057C000E1008091E2008E7F8093E2008091E20010
:1057D00080618093E20042E060E080E00E94452E1C
:1057E0008091F00088608093F000FF91EF91BF916D
:1057F000AF919F918F917F916F915F914F913F9169
:105800002F910F900FBE0F901F9018952091E400DC
:105810003091E50095E64091EC00842F817040FFC7
:1058200023C08091E80080FD1DC080910B03882378
:1058300099F0853099F08091EB0085FD11C0409181
:10584000E4005091E5002417350729F3915011F039
:105850009A01E1CF84E0089582E0089583E00895FD
:1058600081E0089580E008954091E80042FFDDCF97
:105870000895EF92FF920F931F93CF93DF937C01D4
:105880008B010E94062C811119C0E7010115110539
:10589000A1F08091E80085FD0AC08091E8008E7734
:1058A0008093E8000E94062C882381F307C0899129
:1058B0008093F10001501109E9CF80E0DF91CF9191
:1058C0001F910F91FF90EF900895882341F08095EC
:1058D00090918B02892380938B020C94BC1D0895B8
:1058E000882339F090918B02892B80938B020C9442
:1058F000BC1D0895882309F463C0823869F40E94AE
:10590000E02581FF5DC069E38FE192E00E94201DE8
:105910000E94BC1D69E30EC0833891F40E94E0250B
:1059200080FF4EC063E58FE192E00E94201D0E943F
:10593000BC1D63E58FE192E00E94131D0C94BC1D19
:10594000843869F40E94E02582FF3AC067E48FE161
:1059500092E00E94201D0E94BC1D67E4EBCF9CEFEB
:10596000980F913A10F4682FE5CF90E2980F983095
:1059700088F4877021E030E0A90102C0440F551F70
:105980008A95E2F7CA01809590918B0289238093D2
:105990008B02D4CF9BE5980F933020F480E090E009
:1059A0000C94CA2598E5980F973120F480E090E098
:1059B0000C94B425803F20F00E9497070C946D074B
:1059C0000895CF93882309F421C1C82F8238B1F4F8
:1059D0000E94E02581FD1AC169E38FE192E00E94F7
:1059E000201D0E94BC1D2FEF81EE94E021508040CD
:1059F0009040E1F700C0000069E317C08338E1F48C
:105A00000E94E02580FD02C163E58FE192E00E94E3
:105A1000201D0E94BC1D2FEF81EE94E0215080409C
:105A20009040E1F700C0000063E58FE192E00E9442
:105A3000131DCF910C94BC1D8438B1F40E94E02555
:105A400082FDE4C067E48FE192E00E94201D0E9485
:105A5000BC1D2FEF81EE94E0215080409040E1F793
:105A600000C0000067E4E1CF8CEF8C0F813A08F0B2
:105A700080C080911A03813069F018F0823021F1E2
:105A800070C080918B02823209F0A8C08C2F0E94D6
:105A9000CC096CC080918B028232C1F3C43189F091
:105AA00050F4CB3009F498C0C03109F05DC082E0F9
:105AB00080931A0391C0C93221F0C83309F48CC015
:105AC00053C010921A0350C0C93299F118F5C4316D
:105AD00081F1A0F4C73009F099C01092F40184E17B
