:100000000C94AC030C946E2C0C94F3030C94F3033B
:100010000C94F3030C94F3030C94F3030C94F30388
:100020000C94F3030C94F3030C9444240C94802359
:100030000C9461190C94F3030C94F3030C94F303E4
:100040000C94F3030C94F3030C94F3030C94F30358
:100050000C94F3030C94F6180C94F3030C94F30330
:100060000C94F3030C94F3030C94F3030C94F30338
:100070000C94F3030C94F3030C94F3030C94F30328
:100080000C94F3030C94F3030C94F3030C94F30318
:100090000C94F3030C94F3030C94F3030C94F30308
:1000A0000C94F3030C94F3030C94F3030F0812085D
:1000B00033084008470867086A089E08C0085A09BC
:1000C0006409CB08CD08D108F408140917091A09E6
:1000D0003C091A0D1A0D540D540DA70DC30D550FE3
:1000E000550FCE0DAC0EBD0EBD0E950FBF0FC40F3C
:1000F000C90FCE0FD30FD80FDD0FE20FE70FEC0FB4
:10010000F30FF60FF90FFC0FFF0F02100510081088
:100110000D10CC1CCC1CDF1CDF1CD51CDF1CDF1C15
:10012000DF1CCC1CCC1CDA1CDF1CDF1CDA1C882179
:10013000AF216223AF216223FB211E2262231F23F2
:100140002F2332190A00047F3F1F643214643214D3
:10015000783C1E1E140A050000000000000000008C
:1001600000000000000000000000007E0F00D4FF2F
:10017000FFFFC70000007800000000000000002A18
:100180002B2800000000000000000000000000001C
:10019000000029000000002C1E34202122243426D7
:1001A00027252E362D3738271E1F202122232425D0
:1001B000263333362E37381F0405060708090A0B85
:1001C0000C0D0E0F101112131415161718191A1BF7
:1001D0001C1D2F3130232D350405060708090A0B95
:1001E0000C0D0E0F101112131415161718191A1BD7
:1001F0001C1D2F3130354C000101010101010101AD
:1002000001020202020202020202030303030303C9
:100210000303040404040404040505050505060697
:100220000606060707070707080808080909090955
:100230000A0A0A0B0B0B0C0C0C0D0D0D0E0E0E0FFB
:100240000F0F10101111111212131314141515168B
:10025000161717181819191A1A1B1B1C1D1D1E1EFC
:100260001F2020212222232424252626272829294D
:100270002A2B2C2D2D2E2F30313232333435363778
:1002800038393A3B3C3D3E3F404142434445464776
:1002900048494A4C4D4E4F50515354555658595A4F
:1002A0005B5D5E5F616264656668696B6C6D6F70F3
:1002B00072737577787A7B7D7E8082838587888A62
:1002C0008C8E8F91939596989A9C9EA0A2A3A5A799
:1002D000A9ABADAFB1B3B5B7BABCBEC0C2C4C6C995
:1002E000CBCDCFD1D4D6D8DBDDDFE2E4E7E9EBEE4E
:1002F000F0F3F5F8FAFDFFFFAA7F5540050109026A
:10030000A10185020901A1000509190129051500AE
:10031000250195057501810295017503810105018E
:10032000093009311581257F950275088106093844
:100330001581257F950175088106050C0A3802157F
:1003400081257F950175088106C0C005010980A13E
:1003500001850319012AB700150126B7009501751B
:10036000108100C0050C0901A101850419012AA012
:1003700002150126A002950175108100C00660FFDC
:100380000961A1010962150026FF00952075088109
:10039000020963150026FF00952075089102C0052B
:1003A000010906A101050719E029E71500250195B6
:1003B0000875018102950175088101050719002959
:1003C000FF150026FF009506750881000508190134
:1003D0002905950575019102950175039101C009E3
:1003E000025B00030100A0FA0904000001030101FF
:1003F00000092111010001224000070581030800C6
:100400000A09040100020300000009211101000192
:1004100022220007058203200001070503032000B4
:10042000010904020001030000000921110100017B
:100430002281000705840320000A12011001000038
:1004400000084D443634010001020301040330006A
:1004500000001003500052004F00440055004300BC
:10046000540000000E037400730068006F007200F7
:1004700074000000040309042223252628292A2CBD
:100480002D2F3032333536383A3B3D3E40424345DE
:1004900047494A4C4E5051535557595A5C5E606219
:1004A000646668696B6D6F71737577797B7D7F8129
:1004B000838587898A8C8E90929496989A9C9E9F29
:1004C000A1A3A5A7A8AAACAEAFB1B3B4B6B8B9BB47
:1004D000BCBEBFC1C2C3C5C6C7C9CACBCCCDCED0B6
:1004E000D1D2D2D3D4D5D6D7D7D8D9D9DADADBDBA3
:1004F000DBDCDCDCDCDCDDDDDDDDDCDCDCDCDCDB3A
:10050000DBDBDADAD9D9D8D7D7D6D5D4D3D2D2D182
:10051000D0CECDCCCBCAC9C7C6C5C3C2C1BFBEBC75
:10052000BBB9B8B6B4B3B1AFAEACAAA8A7A5A3A1E6
:100530009F9E9C9A98969492908E8C8A89878583A8
:10054000817F7D7B79777573716F6D6B6968666488
:1005500062605E5C5A5957555351504E4C4A494758
:10056000454342403E3D3B3A3836353332302F2DFD
:100570002C2A2928262523222B0014001A000800E3
:1005800015001700394304001600070009000A008F
:10059000E1001D001B00060019000500000000001E
:1005A00050004F002A004C4200000000E2004D00C5
:1005B000E0004A001C0018000C001200130031007B
:1005C0000B000D000E000F0033003443110010002B
:1005D000360037003800E50028422C005200510058
:1005E000000000000007E4000503E3000000000035
:1005F00001000100010001000100010001000100F3
:1006000001000100010001000100010001000100E2
:1006100001000100000000000100010001000100D4
:1006200000000000010001000100010001000100C4
:1006300001000100010001000100010001000100B2
:1006400001000100010001000100010001000100A2
:100650000100010001000100000000000100010094
:100660000100010000000000010001000100010084
:1006700001002F00010001000100010001002F0214
:100680000100010001000100010001000000000064
:100690000100010001000100000000000100010054
:1006A0000100010030005F006000610001004500B2
:1006B00030025C005D005E002D0046040100590020
:1006C0005A005B002E002D02010001006200630051
:1006D000000000004B0001004E000100000000007F
:1006E0000100CA5CC75CC95C01002F000100C65C48
:1006F000C85CC55C01002F02C45CC35CCC5CCB5CF5
:100700000100010000000000490435000100C25C46
:10071000000000000100005C010001003000010049
:10072000CA5CC75CC95C010030020100C65CC85CE1
:10073000C55C01000100C45CC35CCC5CCB5C010007
:10074000C25C0100005201520000000001000100E3
:10075000005C01000000000011241FBECFEFDAE0B2
:10076000DEBFCDBF04B603FE27C080911903909170
:100770001A03A0911B03B0911C038730904BA74034
:10078000B04BD1F41092190310921A0310921B036C
:1007900010921C0314BE84B7877F84BF0FB6F894F1
:1007A000A89580916000886180936000109260003D
:1007B0000FBEE0E0F8E3099523E0AEEBB1E001C045
:1007C0001D92A931B207E1F711E0A0E0B1E0EAEE35
:1007D000FDE502C005900D92AE3BB107D9F70E942E
:1007E000F5030C94F32E0C940000CF93DF93CDB758
:1007F000DEB7AA970FB6F894DEBF0FBECDBF84B7A1
:10080000877F84BF0FB6F894A895809160008861B7
:1008100080936000109260000FBE90E080E80FB6F9
:10082000F89480936100909361000FBE85B7806853
:1008300085BF85B7806885BF0E94C4230E94E323DB
:100840008091E20084608093E20078948091A80215
:100850008823A1F01091E9001F709091EC00892F7E
:10086000817090FD80E8182B1092E9008091E800DB
:1008700083FD0E94A2201F701093E90082E084BDD6
:1008800093E095BD9AEF97BD80936E008EE090E067
:100890000E94DD2D91E0811101C090E0909319013B
:1008A00080911901882321F01092040186E003C091
:1008B00086E080930401809305010E94C41288237E
:1008C00031F062E070E089E091E00E941C2C8091A0
:1008D000190180911901882311F090E001C095E081
:1008E0009093D80185E0891B8093D701A8E3B1E0FC
:1008F0004DE351E061E070E08D91E82FE295EF70FB
:10090000F0E021A18F708B0102C0000F111F8A95AA
:10091000E2F7C801902F9095922391A392A1892B81
:1009200082A34A175B0741F7A2E4B1E048E451E033
:1009300061E070E08D91E82FE295EF70F0E021A189
:100940008F708B0102C0000F111F8A95E2F7C8015A
:10095000902F9095922391A392A1892B82A34A175D
:100960005B0741F7EDECF1E087ED91E0A9E0B2E043
:1009700011921D928E179F07D9F70E94DA148FE308
:100980009CE90197F1F700C000000E94DA14809101
:10099000090280FF0AC080E00E94B42A6FEF7FEF57
:1009A00080E090E00E940F2E9BC480E090E00E94C7
:1009B000EB2D8C3E9E4F11F00E94C2190E94C41272
:1009C000811106C062E070E089E091E00E94252C70
:1009D00082E290E00E94DD2D803281F483E290E09B
:1009E0000E94DD2D823151F484E290E00E94DD2DE1
:1009F00091E0843109F090E0892F01C080E080FF10
:100A000096C480E090E00E94EB2D8C3E9E4F11F04A
:100A10000E94C21982E090E00E94DD2D8093F901CE
:100A20000E94B1199093DA018093D90183E090E09C
:100A30000E94DD2D682F70E080E090E00E94671B2F
:100A40008091DB0181113BC080E090E00E94EB2DA2
:100A50008C3E9E4F21F00E94C2190E94191188E01D
:100A600090E00E94E52D609304027093050280934C
:100A70000602909307028091EA0183608093EA0165
:100A80006E7F71F40E94191188E090E00E94E52DBC
:100A9000609304027093050280930602909307020C
:100AA0000E94D2100E94EA2A8091040280FF04C0B2
:100AB00060E086950E94871481E08093DB018BE1E2
:100AC00091E09093DD018093DC019E012F5F3F4F09
:100AD00079013E013DE0630E711CA5E4AA2EA1E060
:100AE000BA2E8091A802853009F03AC08091A80200
:100AF000843021F11092DE0120E488E190E00FB60D
:100B0000F894A895809360000FBE2093600083B78F
:100B1000817F846083BF83B7816083BF7894889529
:100B200083B78E7F83BF0FB6F894A895809160003D
:100B3000886180936000109260000FBE80919E02D9
:100B4000882309F4CECF0E94DA1483E192E0E9E031
:100B5000F2E021912111CCC38E179F07D1F7C1CFAD
:100B60000E94DA140E94C4128823A1F1AAEFB1E016
:100B7000E9E0F2E000E010E0302F21919D91922712
:100B800021F180E0DD24D394492F4D21D1F089A3B8
:100B90003AA32D2181E009F480E08BA30E942B1958
:100BA0008160782F9DA38CA349A15AA16BA18DA12F
:100BB0000E94F628F801E650FE4F8081D826D082A8
:100BC00019C08F5FDD0C8630F9F60F5F1F4F0A30BA
:100BD000110591F68FEF8EA38FA318A60E942B19F3
:100BE0008160782F9AA789A74EA15FA168A58AA5E1
:100BF0000E94F6288091E901882309F4D4C08091ED
:100C0000E801E0910402E695E81BE093E4018230FC
:100C100059F4F0E0ED5AFE4FE4910E2F10E0F2EEA1
:100C2000CF2EF8E2DF2E6AC0863059F4F0E0E05BA8
:100C3000FE4FE4910E2F10E0E2EDCE2EE8E2DE2E24
:100C40005DC0893061F4E695F0E0E35BFE4FE4912E
:100C50000E2F10E077E5C72E78E2D72E4FC08F30E9
:100C600061F4E695F0E0E65BFE4FE4910E2F10E0B4
:100C70006AEBC62E67E2D62E41C0853159F4F0E00A
:100C8000E95BFE4FE4910E2F10E054E3C52E57E2CE
:100C9000D52E34C08831F1F0833241F4F50105914D
:100CA000149142E9C42E48E2D42E28C08432C9F0FF
:100CB0008532F1F48E2F63E00E94882EE92FF0E058
:100CC000EE5BFE4FE4910E2F10E033EAC32E35E2C7
:100CD000D32E14C008E210E021EAC22E26E2D22E62
:100CE0000DC004EF11E092E6C92E96E2D92E06C09F
:100CF00000ED17E082EAC82E85E2D82E8091E5014A
:100D0000882389F01092E5010E942B199801209503
:100D10003095820F931F9093E3018093E20110922C
:100D2000E7011092E6018091E2019091E3010E94B7
:100D30001C1980179107B8F18091E1018823B1F067
:100D40001092E1018091DF019091E0010E941C1955
:100D50008033954758F00E942B199093E0018093BF
:100D6000DF018091EA0188608093EA018090E601CA
:100D70009090E701E091E201F091E3010E0F1F1F57
:100D80001093E3010093E20182EE91E0F6010995F0
:100D90008091E6019091E701892B29F4892819F0C7
:100DA00081E08093E10186E0E2EFF1E0D70101907C
:100DB0000D928A95E1F7C090F401D090F501009171
:100DC000F6011091F7011092F4011092F5011092C2
:100DD000F6011092F701C11003C0DD2009F45DC0D7
:100DE0008091F0019091F1010E941C19AC01909149
:100DF000EF01992339F020911A0130E024173507CB
:100E000058F04BC02091EE01FAE02F9F9001112481
:100E10002417350718F041C09F3F19F09F5F90934A
:100E2000EF01CC2061F00E9434181C1414F491E0FE
:100E300001C09FEF899F802D11248093F401DD2054
:100E400061F00E9434181D1414F491E001C09FEF6A
:100E5000899F802D11248093F5013091F401332373
:100E6000E1F02091F5012223C1F045EB3403C001EC
:100E70001124992319F09093F40103C081E0809329
:100E8000F40135EB2303C0011124992319F0909349
:100E9000F50103C081E08093F501011103C0112326
:100EA00009F451C08091EC019091ED010E941C1950
:100EB0009C019091EB01992309F446C22536310536
:100EC00008F441C09F3F19F09F5F9093EB0100230E
:100ED00061F00E94FB17101614F491E001C09FEF1F
:100EE000899F802D11248093F601112361F00E94C7
:100EF000FB17111614F491E001C09FEF899F802D1C
:100F000011248093F7013091F6013323E1F0209111
:100F1000F7012223C1F045EB3403C00111249923CA
:100F200019F09093F60103C081E08093F60135EB50
:100F30002303C0011124992319F09093F70103C0F2
:100F400081E08093F7018091F40181110BC08091C1
:100F5000F501811107C08091F601811103C08091D4
:100F6000F70181110E943719CB82DC820D831E8329
:100F700086E0F701A2EFB1E001900D928A95E1F7CA
:100F80000E94BE299091F801891721F00E94BE2984
:100F90008093F8018091A802843009F0A2CD83E00B
:100FA0008093E9008091E80082FF9BCD8091E8006A
:100FB00085FF1FC00E941D25811119C000E210E0AD
:100FC000670108C08091F100F60181936F01015023
:100FD000110969F08091E80085FDF4CF8091E80067
:100FE0008B778093E8000E941D25882399F391E078
:100FF00001C090E08091E8008B778093E80099230E
:1010000009F46FCDE9818E2F90E0FC013197E33137
:10101000F10508F067C1EA5AFF4F0C94CA2E1A82F4
:1010200089E0A7C08A81823009F478C1833089F0D1
:10103000813009F057C12FB7F89480911302909135
:101040001402A0911502B09116022FBFBB83AC838E
:101050001CC0FE013396A9E0B2E08D918193E615A4
:10106000F705D9F741C18A81823009F03BC16B8114
:101070007C818D819E810E94D02E85E290E024C0EB
:101080004C816B818A810E94812A9D834EC1CD80D3
:10109000DE80DC24CD24DC248C810B819A81FCE071
:1010A0000F9F8001112428E7929F000D111D11242C
:1010B000080F111D080F111D6D2DC80186960E9485
:1010C000F12D6C2DC80187960E94F12D0DC10E9453
:1010D0004D2A0AC18A818138B1F050F4803809F074
:1010E00003C120E04B81609106028091050223C07C
:1010F0008238E9F0833809F0F7C020E04091070218
:101100006C818B8118C060E08B810E9487148B8179
:10111000811103C00E947014E7C0809104028160B5
:101120008093040260E086950E948714DDC08B8165
:1011300080930802D9C00E94E011D6C08A8181380C
:1011400099F030F4803809F0CFC08091070211C0C7
:10115000823899F0833809F0C7C0809105028B83EB
:10116000809106028C83C0C08091040280FF03C07E
:1011700086958B83B9C080E0FCCF80910802F9CFBF
:10118000609104027091050280910602909107021D
:101190000E94E510A9C080E14BC081E08A838AEFFC
:1011A000E8CF0A811B811027012710278C80912C02
:1011B0006701C8018A5F9D4F96012E193F092815C6
:1011C000390508F091C00A3F31E0130728F40E9466
:1011D000DD2DF601848302C0F60114820F5F1F4FDC
:1011E000FFEFCF1ADF0AE5CF0A811B811027012705
:1011F00010278C80912C6701C8018A5F9D4F960152
:101200002E193F092815390508F06EC00A3F21E064
:10121000120720F4F60164810E94F12D0F5F1F4F29
:10122000FFEFCF1ADF0AE8CF0E943D2A5DC084E0BD
:101230008A835AC00A811B811027012710278C80BE
:10124000912C6701C801869696012E193F09281531
:10125000390508F049C0003E21E0120728F40E9439
:10126000DD2DF601848302C0F60114820F5F1F4F4B
:10127000FFEFCF1ADF0AE6CF0A811B811027012773
:1012800010278C80912C6701C801869696012E1933
:101290003F092815390540F5003E21E0120720F4EA
:1012A000F60164810E94F12D0F5F1F4FFFEFCF1AEF
:1012B000DF0AEACF80E00E94B42A6FEF7FEF80E080
:1012C00090E00E940F2E10C0C7010E947C250FEFF6
:1012D00011EE24E0015010402040E1F700C0000072
:1012E0000E94E5188FEF8983C7010E947C25F9CB06
:1012F00080E189BD82E189BD09B400FEFDCF809106
:10130000D8008F7D8093D8008091E0008260809328
:10131000E0008091E00081FDFCCFE3CB85E290E02E
:101320000E94DD2D1B821C821D828E83DDCF60E03A
:1013300085E290E00E94F12D0E944D2A0E943D2AF4
:1013400081E00E94B42A5DCB232B09F0BDCDFBCDFB
:101350005F926F927F928F929F92AF92BF92CF9245
:10136000DF92EF92FF920F931F93CF93DF93CDB74E
:10137000DEB729970FB6F894DEBF0FBECDBFFC01D4
:101380008081918123813481232B31F09F3F31F47F
:1013900091E08F3F19F403C091E001C090E090FD0F
:1013A00041C67F0185E0DE01119601900D928A957C
:1013B000E1F7F701228189819A81222349F00E9475
:1013C000581A182F682F89819A810E94D21A03C057
:1013D0000E94A51A182F69817A81812F0E94A72A5D
:1013E0008C01F7019281992309F4DFC09801225101
:1013F0003F452031310508F004C18FEF93E00E9492
:10140000DD2D8111DCC0025136E0832E32E0932EB7
:10141000002379F08114F4E09F0609F4D0C0C401E0
:101420000E94DD2D811101C001501FEF811A910A28
:10143000EFCF1E821F8218861986662463942AE0E5
:10144000522E84010F5F1F4FC4010E94DD2D8E8339
:101450001F82882309F4B3C09FEF980F933060F484
:101460008F836E8222E0820E911CC8010E94DD2DC6
:101470008887811102C0A3C048018E010A5F1F4FF7
:10148000F80120812223E9F2213009F04CC081814A
:10149000813049F46801F2E0CF0ED11CF80182815D
:1014A0000E9471200AC0823051F46801F2E0CF0E30
:1014B000D11CF80182810E944A1F860173C08330CB
:1014C00049F46801F2E0CF0ED11CF80182810E943C
:1014D000E31EF3CF843019F00F5F1F4F63C0F80194
:1014E00022810E5F1F4F80E090E030E020533109F1
:1014F0002A30310568F4589EA001599E500D1124E0
:10150000C901840F951F0F5F1F4FF8012081EDCF98
:10151000009709F447C0EFE9FFE03197F1F700C009
:1015200000000197F5CFE22FF0E0E958FE4F7490EC
:10153000822F86958695869590E0FC01E959FE4FAD
:10154000A4902770B12C022E02C0B594A7940A94DF
:10155000E2F7F1E0AF22BB24FC01E95AFE4FC49050
:10156000D12C02C0D594C7942A95E2F721E0C2227B
:10157000DD24A114B10419F081EE0E944A1FC114A8
:10158000D10419F086EE0E944A1F872D0E94712017
:10159000CD2819F086EE0E94E31EAB2819F081EEEB
:1015A0000E94E31E0F5F1F4F6BCF00313FE5130713
:1015B00009F0AEC481E00E94081B0E948420809143
:1015C0008602877009F42EC5F7018281882309F409
:1015D00029C582E029960FB6F894DEBF0FBECDBFB5
:1015E000DF91CF911F910F91FF90EF90DF90CF90FF
:1015F000BF90AF909F908F907F906F905F900C9472
:101600002D1B0031FFE51F0711F481E005C00131FA
:101610002FE5120721F482E00E94461BCECF033F44
:10162000FCE51F0749F406E221EE40EE63EF7CE59E
:10163000C7010E94CA29C3CF043F2CE5120708F056
:101640004AC1083D3CE5130731F407E225EE45EEBB
:1016500068ED7CE5EDCF093D8CE5180731F408E233
:1016600021E045EE69ED7CE5E3CF073DECE51E07A3
:1016700031F406E221EE41EE67ED7CE5D9CF992306
:1016800009F45EC11092170202303CE5130708F41A
:1016900041C106318CE5180738F098012A5F3C45B6
:1016A0002930310508F036C10E94B1199093DA0152
:1016B0008093D90100319CE5190709F4C3C008F0F3
:1016C00041C00830FCE51F0709F49AC0F0F404306B
:1016D0003CE5130709F487C068F402309CE519075C
:1016E00009F477C003301C4509F0E5C08091D901A9
:1016F000826076C00630FCE51F0709F46EC008F072
:101700007BC08091D90188606BC00C303CE5130729
:1017100009F485C068F40A309CE5190709F474C01F
:1017200008F079C00E94C31E8091D901806858C01A
:101730000E30FCE51F0709F476C008F07FC08091E9
:10174000D9018BC00B3F3CE5130709F44FC018F5D6
:1017500003319CE5190709F47DC078F40131FCE5FB
:101760001F0709F473C002311C4509F0A4C00E9490
:10177000C31E8091D9018F7733C005313CE5130733
:1017800009F472C008F486C00A3F1C4509F093C0F2
:101790008091DA013EC00F3FECE51E0709F45FC0FF
:1017A00058F40D3F2CE5120709F444C008F43FC07B
:1017B0008091DA0182602DC001308DE5180709F4AF
:1017C00075C008F45DC002301D4509F074C060E0CA
:1017D0006EC08091D901816003C08091D901806180
:1017E0008093D90168C08091D90111C08091DA013C
:1017F00082608093DA015FC08091D9018062F0CF6E
:101800008091D9018064ECCF8091D9018860846097
:10181000E7CF8160EECF8091D9018E7FE1CF8091BB
:10182000D9018D7FDDCF8091D901877FD9CF80917C
:10183000DA0118C08091DA018D7FDBCF8091D90168
:101840008F7ECECF8091D9018F7DCACF8091D90173
:101850008F7BC6CF8091D901877F8B7FC1CF80914D
:10186000DA018D7F8E7FC5CF8091D90182FB22273F
:1018700020F991E0922790FB82F990FB83F9B0CF99
:101880008091DA01982F909591708E7F892B90FB33
:1018900081F9AFCF0E94C31E8091D90187FB222717
:1018A00020F991E0922790FB87F99ACF61E08EE0D2
:1018B00090E00E94F12D6091D9011091DA0184E04D
:1018C00090E00E94F12D612F81E290E00E94F12DC5
:1018D0000E94C31E74CE053FFCE51F0731F406E2EB
:1018E00021EE42EE65EF7CE5A3CE053F2CE5120725
:1018F00030F407E225EE44EE64EF7CE599CE063F36
:101900003CE5130709F0BBCE07E225EE46EE66EF95
:101910007CE58ECE06318CE5180719F58091890299
:101920008A7A91E009F490E090931802882311F0EC
:1019300065E301C069E28EE192E00E9497190EC052
:101940000631ECE51E0721F580911802882309F481
:10195000E6C265E38EE192E00E948A190E942B1A8A
:101960002ECE01152CE5120731F00E3D1C45D1F4A9
:101970000E94C21924CE0E94C31E8FEF94E3ECE0B4
:1019800081509040E040E1F700C000000E94E5185F
:10199000809189028272F801E25CFC45E431F10534
:1019A00008F4BFC2F70100811181992349F0C801F1
:1019B0000E94581AD82E682FC8010E94D21A04C05B
:1019C000C8010E94A51AD82EB8018D2D0E94E112DF
:1019D0008C01982EF701A580A2949FE0A922D280C5
:1019E000D1101092880280918602877099F0DD20D4
:1019F00089F0812F807F803421F080E2800F883051
:101A000048F082E00E942D1B809186028770CC24D2
:101A1000C3948111C12CB12EB2948FE0B8228B2DCA
:101A200090E08C30910508F040C2FC01E759FF4F6F
:101A30000C94CA2E812F807F1F70882311F012957D
:101A4000107FDD20B9F0112309F41AC280E2800F63
:101A5000883010F0911006C080918902182B1093E5
:101A6000890205C080918802182B109388020E9479
:101A70002B1A06C2802F0E94E31E112309F415C2FF
:101A8000005E1095083010F0911006C08091890218
:101A900018231093890205C080918802182310939F
:101AA00088020E942B1A01C2812F807F1F70803212
:101AB00011F01295107F992021F0F1E09F16E1F0CE
:101AC0002AC0DD2081F080918A02AA2051F001E035
:101AD000A01207C0182B181709F4E7C110938A0247
:101AE000E4C1812B10C0AA2021F021E0A21609F444
:101AF000DCC10E94251A27C0DD2041F035E03A15EF
:101B000008F4D3C1812F0E94D91ECFC184E08A1569
:101B100008F4CBC118C0DD2049F0AA2099F3F701E1
:101B2000858180FFADC18F708583ECCFAA2059F0ED
:101B3000093309F0B7C1FFEF17EE23E0F150104071
:101B40002040E1F7ADC1812F0E94CE1EAEC1812F92
:101B500086958695837019F0813059F0A6C1DD20F5
:101B600019F0C801937002C080E090E00E94A8299B
:101B7000A2C1DD2019F0C801937002C080E090E09E
:101B80000E94922998C1802FDD2019F00E947D18B3
:101B900002C00E9476170E9437198DC1812F837071
:101BA00009F069C0D11085C1902F929596959770D4
:101BB000990F990F802F8F70882E912CA12CB12C0A
:101BC000092E04C0880C991CAA1CBB1C0A94D2F7CD
:101BD00004FF12C04FE050E060E070E004C0440F2A
:101BE000551F661F771F9A95D2F7DB01CA018095B2
:101BF0009095A095B09503C080E090E0DC0116952B
:101C00001695412F4370423019F1C8F400918B02B0
:101C100010918C0220918D0230918E02413059F04A
:101C200088299929AA29BB29BC01CD0160237123E8
:101C3000822393230AC0802A912AA22AB32ABC01B4
:101C4000CD01682979298A299B290E94671B31C106
:101C500088299929AA29BB2900918B0210918C020D
:101C600020918D0230918E02BC01CD016027712739
:101C700082279327EACFDD2019F0812F817001C0E0
:101C80008695882309F415C1902F929596959770A3
:101C9000990F990F802F8F70882E912CA12CB12C29
:101CA000092E04C0880C991CAA1CBB1C0A94D2F7EC
:101CB00004FF12C04FE050E060E070E004C0440F49
:101CC000551F661F771F9A95D2F7DB01CA018095D1
:101CD0009095A095B09503C080E090E0DC0116954A
:101CE0001695412F43704230D9F068F50091A90252
:101CF0001091AA022091AB023091AC02413059F010
:101D000088299929AA29BB29BC01CD016023712307
:101D1000822393231EC0802A912AA22AB32A13C0A9
:101D200088299929AA29BB290091A9021091AA0200
:101D30002091AB023091AC02BC01CD01602771272C
:101D40008227932706C0BC01CD01682979298A29F9
:101D50009B290E94FE1AADC01F70DD2039F0812F33
:101D60000E94461B802F0E94D91EA3C0802F0E9474
:101D7000CE1E812F0E94081B9CC0802F32EF93162D
:101D800009F440C0391538F090EF991661F0E1EF91
:101D90009E1699F170C0F3EF9F16D9F124EF9216B9
:101DA00009F44EC068C0DD2019F134E03A1508F49A
:101DB0007CC01F7181E090E0A0E0B0E0AC01BD010B
:101DC00004C0440F551F661F771F1A95D2F78091E4
:101DD000A9029091AA02A091AB02B091AC028A0133
:101DE0009B01082719272A273B27C901B80125C0CD
:101DF00025E02A1508F459C0DCCFDD2029F0812F19
:101E00008F712CC0DD20D9F3812F8F710E94081BA8
:101E10004CC0DD2079F01F7181E090E0A0E0B0E0DF
:101E2000BC01CD0104C0660F771F881F991F1A954A
:101E3000D2F703C060E070E0CB010E94FE1A35C00B
:101E4000DD2079F01F71812F0E94461B38E0139F1F
:101E5000C0011124836080938602812F0E94461B5B
:101E600024C081E00E942D1B81E08A15F0F482E0FD
:101E70000E942D1B1AC0DD2039F0AA2009F4BFCF23
:101E8000802F0E944A1F11C0AA2009F4BDCF8933B8
:101E900049F49FEFE7EEF3E09150E040F040E1F7C6
:101EA00000C00000802F0E94E31E88EF8B0D84305D
:101EB00010F40E94BE29CC2009F4B4C0809186029F
:101EC00080FDB0C0F70112828595859585950E94A9
:101ED000461BC7010E94A8098091860285958595B9
:101EE000859529960FB6F894DEBF0FBECDBFDF9162
:101EF000CF911F910F91FF90EF90DF90CF90BF9007
:101F0000AF909F908F907F906F905F900C94081B84
:101F100001318FE5180709F082CB82E04CCB69E2F2
:101F200019CDEB58FF4F0C94CA2E8091040280FF0C
:101F300020C08E7F8093040260910402709105029C
:101F400080910602909107020E94E5100E94EA2A01
:101F50008091EA0181608093EA01FFEF00E712E0DF
:101F6000F15000401040E1F700C000000E946B10EB
:101F700026CB81608093040261E0869550C047ECD7
:101F800054E160ED74E12CC040ED54E167EC74E184
:101F900027C042EB52E16BEB72E122C04BEB52E106
:101FA00062EB72E11DC04AE952E166EA72E118C0D3
:101FB00046EA52E16AE972E113C042E852E16EE892
:101FC00072E10EC04EE852E162E872E109C047EFEB
:101FD00050E168E071E104C048E051E167EF70E171
:101FE0000E94E42AECCA61E081E019C065E082E069
:101FF00011C068E086E00EC06EE089E00BC064E1CD
:102000008FE008C067E185E105C061E088E107C0B5
:1020100062E289E10E94D22AD2CA61E083E20E9490
:102020008714CDCA29960FB6F894DEBF0FBECDBF78
:10203000DF91CF911F910F91FF90EF90DF90CF90A4
:10204000BF90AF909F908F907F906F905F9008951A
:102050009091D90192FF0DC0282F2871283019F4D2
:10206000877F846006C0282F2471243011F48B7F71
:10207000886093FF0DC0282F2871283119F4877EBE
:10208000846106C0282F2471243111F48B7E88616D
:102090002091DA0120FF0DC0382F3871383019F443
:1020A000877F816006C0382F3171313011F48E7F07
:1020B000886021FF0DC0282F2871283119F4877EF0
:1020C000816106C0282F2171213111F48E7E886133
:1020D00094FD877E0895309105018091040280FF70
:1020E00016C0E091040163E0E69FF0011124E05581
:1020F000FD4F539A8BB1877F9BB198602FB7F894AF
:10210000AF0163E0369F400D511D112414C0809132
:10211000060190910701891720F7E82FF0E0AF0141
:10212000440F551FE40FF51FE055FD4F118210823B
:1021300012828F5FF0CFE417F50789F0319168E0E4
:102140009BB9000000C037FF8BB9330F000000C0FF
:1021500000C000C08BB900C06A9591F7ECCF2FBFCB
:102160008FE594E00197F1F700C000000895909189
:10217000040290FF16C0909106012091070192176A
:1021800070F4E92FF0E0DF01AA0FBB1FEA0FFB1F7D
:10219000E055FD4F8183608342839F5FF0CF0C94B5
:1021A0006B10089580910402282F269530E02115A8
:1021B000310519F48170826005C02B32310524F09D
:1021C00081708465809304020895CF92DF92EF922C
:1021D000FF926B017C010E94D210B701A60188E03A
:1021E00090E0FF90EF90DF90CF900C94032E8091C1
:1021F0000802882319F0815080930802609104023C
:102200007091050280910602909107020C94E510EE
:1022100080910802833018F48F5F809308026091E8
:1022200004027091050280910602909107020C94BD
:10223000E510E4E0F2E083E0808311828FEF828397
:1022400083831482A8EEB1E012968C91129783607A
:1022500012968C9360817181828193810C94E51038
:10226000AF92BF92CF92DF92EF92FF920F931F93A4
:10227000CF93DF93E82EF62EE901E42FF0E0611111
:1022800006C0E950FE4FE4914E2F2E2F71C0062F4D
:1022900010E0E950FE4F4491F42FC42ED12C26E0DB
:1022A000829FC00111242FEF30E0B9010E94A22EBD
:1022B0005BEA5603C001579F900D11248E0D911DAE
:1022C0008E0D911D582F550F580FD901A01BB10B22
:1022D000AC9DC001AD9D900DBC9D900D1124E92FCA
:1022E000F59ED0011124AB2FBB277901EA1AFB0A16
:1022F000EC9CD001ED9CB00DFC9CB00D112459015B
:10230000A51AB108A09E7001A19EF00CB09EF00C21
:102310001124EF2CFF242E193F092C9D80012D9DA7
:10232000100D3C9D100D1124212F6230710591F08C
:1023300048F461157105E1F061307105B9F4242F9D
:102340004B2F16C06430710569F040F0663071059E
:1023500079F00CC0242F492FE12F0AC0492FEF2F0D
:102360002B2F06C0292FE42F412F02C0292FEB2F3E
:1023700049832883EA83DF91CF911F910F91FF90CA
:10238000EF90DF90CF90BF90AF900895CF93DF9301
:1023900000D01F92CDB7DEB79091040290FF0AC023
:1023A0009E012F5F3F4F0E9430114B8169818A81CE
:1023B0000E94B7100F900F900F90DF91CF9108956A
:1023C000AF92BF92CF92DF92EF92FF920F931F9343
:1023D000CF93DF9300D01F92CDB7DEB7182FF62E24
:1023E000042FE22E9091040290FF7EC0E92FE69523
:1023F000AE2FB0E0A85BBE4F8C918093E8019E7F2A
:10240000923061F49E012F5F3F4F812F0E94301167
:102410004B8169818A810E94B71043C0823019F4D0
:10242000009107023EC0863019F41091050239C0B0
:102430008930D9F38931A9F5E9518E2F8170D82ED1
:10244000E695F0E0E950FD4FA590B490C12CBB2477
:1024500060910801C61618F52C2D30E0A29EC0012F
:10246000A39E900DB29E900D112470E00E94A22EAA
:10247000812FD11002C0860F01C0861B90910601EA
:10248000290F311DA901440F551F240F351F205559
:102490003D4F402F6F2D0E943011C394D9CF0E9421
:1024A0006B1080910502181308C080910602F81283
:1024B00004C080910702081729F08091EA01826028
:1024C0008093EA0110930502F0920602009307023E
:1024D000EE2051F060910402709105028091060295
:1024E000909107020E94E5100F900F900F90DF91DE
:1024F000CF911F910F91FF90EF90DF90CF90BF9001
:10250000AF900895E4E0F2E0438121E1421B08F43A
:1025100040E021E0628181810C94E011E4E0F2E08E
:10252000438121E1420F08F44FEF21E06281818174
:102530000C94E011E4E0F2E0628121E1621B08F416
:1025400060E021E0438181810C94E011E4E0F2E05D
:10255000628121E1620F08F46FEF21E04381818104
:102560000C94E011E4E0F2E0818121E0438162819A
:1025700088500C94E011E4E0F2E0818121E0438195
:102580006281885F0C94E01180911D02811112C05C
:102590008091D80080618093D8008AE18A95F1F714
:1025A00000C08091D90080FD02C082E001C081E0BE
:1025B00080931D0281E090911D02913009F080E02E
:1025C0000895CF93DF930E94A72AEC0182389105EA
:1025D00059F1A0F48133910509F473C040F48932B4
:1025E000910509F467C08A9709F472C084C08533E5
:1025F000910509F458C0C997B9F07DC0833E910593
:1026000071F138F4803E9105B1F0823E910511F1EF
:1026100072C0863E9105B9F1873E9105C9F1843EAD
:10262000910509F068C024C08091D90180FD5DC08A
:1026300081FD5BC060C08091D90180FD50C0809158
:10264000DA0180FF49C18091D90184FD43C1C3EE05
:10265000D0E042C18091D90182FF3EC1F4CF809188
:10266000D90182FD3FC08091DA0180FD3EC0EBCFF1
:102670008091DA0181FF30C18091D90184FD2AC1A6
:10268000C7EED0E029C18091D90183FF25C1F4CFE5
:102690008091D90183FD2CC08091DA0181FFECCFBC
:1026A000C4EED0E019C18091D90185FF15C1C9E2FE
:1026B000D0E012C18091D90185FF0EC1C5E3D0E001
:1026C0000BC18091D90186FF07C1CAE2D0E004C1E5
:1026D0008091D90186FF00C1C1E3D0E0FDC0C9E30C
:1026E000D0E0FAC0C2EED0E0F7C0C0EED0E0F4C057
:1026F000C6EED0E0F1C0C11581E5D80708F066C08C
:10270000C11520E5D207E0F0CE0174E096958795DB
:102710007A95E1F783709C2F937021E030E002C03E
:10272000220F331F9A95E2F73C68382BCF70C6957D
:10273000C69540E2C49FE0011124C22BD32BCCC02C
:10274000C83ED10560F5C03ED10508F0C5C0C83A05
:10275000D105B0F4C53AD10540F0C55AD0E0C35810
:10276000DE4FC881D0E0D064B7C0C130D10509F4D4
:10277000B3C008F4AFC0C430D10508F4ABC0ACC0DE
:10278000CF3BD10508F0A6C0C85AD0E0CC0FDD1F62
:10279000C058DE4F0990D881C02DD4649DC0C115AA
:1027A00040E2D40758F4C11581E0D80708F094C07E
:1027B000C03FD10508F48EC0D0658EC0C11520E49D
:1027C000D20708F487C0DF70D06A86C0C11545E51E
:1027D000D40708F042C0C11584E5D80728F0DC2FE3
:1027E000CC27C46FD06A78C0C11523E5D207B0F0FA
:1027F000CE018370992721E030E002C0220F331F01
:102800008A95E2F78C2F8695869540E2849FC001D9
:102810001124E901C82BD92BDA685EC0C11542E545
:10282000D40728F4DC2FCC27C16FD06A55C0CE0165
:102830008370992721E030E002C0220F331F8A9570
:10284000E2F78C2F8695869540E2849FC001112483
:10285000E901C82BD92BDC683FC0C11589E5D80731
:10286000B8F4C11528E5D20728F0DC2FCC27C06FBB
:10287000D06A32C0C11546E5D40760F58C2F0E949E
:1028800028108F71C82FD0E0DC2FCC27D06224C055
:10289000C1158AE5D80780F48C2F8F700E9428100C
:1028A00094E0D695C7959A95E1F7CF70D0E0DC2FEC
:1028B000CC27D069C82B10C0CE019056811590420C
:1028C00048F48D2F8F710E942810DD27D0628F7100
:1028D000D82B02C0C0E0D0E0CE01DF91CF910895A7
:1028E000E4E0F2E080818E7F80830E94EA2AE8EEB5
:1028F000F1E08281816082832FEF80E792E02150B6
:1029000080409040E1F700C000000C946B10909163
:10291000040290FF3BC09170811102C0926006C01A
:102920008B3210F0946502C0880F982B90930402AC
:102930008091EA0181608093EA01662351F0609101
:1029400004027091050280910602909107020E9494
:10295000E51060910402669570E04BE050E08AE279
:1029600091E00E94E62E892B19F00E94EA2A02C00B
:102970000E94F12A81E08093E50120E04091070266
:1029800060910602809105020C94E01108958091F7
:1029900004028695815009F48AE261E00C94871460
:1029A0008091040286958F5F8B3208F081E061E0B0
:1029B0000C9487146F927F928F929F92AF92BF92E6
:1029C000CF92DF92EF92FF920F931F93CF93DF93FB
:1029D00068E371E00DEC11E022EDE22E21E0F22E31
:1029E0003801C0E0AA24A394B12CDB018D91BD0174
:1029F000E82FE295EF70F0E021A18F70A50102C0F1
:102A0000440F551F8A95E2F7CA01242B21A322A166
:102A1000942E9094292122A350EA5A95F1F792E43A
:102A2000C92E91E0D92E20E030E0D0E0D6018D9083
:102A30006D01482D42954F7050E0DA0190964C910F
:102A400050E0B82DBF7002C055954795BA95E2F792
:102A500040FD07C04A2D022E01C0440F0A94EAF738
:102A600001C040E0D42B2F5F3F4F26303105F1F6F7
:102A700091A1992291A292A1892B82A3F301808135
:102A8000D81719F0D08381E001C080E0C82BFFEF98
:102A90006F1A7F0AE614F70409F0A7CFD090D80187
:102AA000CC2349F081E080931B020E942B19909364
:102AB0001A028093190280911B028823A9F0809149
:102AC000190290911A020E941C19069768F0ED2DC8
:102AD000F0E0E75FFD4FD8018D918D018193EA16FB
:102AE000FB06C9F710921B020E94C4128823D1F181
:102AF0001091D7018091EA018823E9F085E0E4E0B4
:102B0000F2E0AEEBB1E001900D928A95E1F7809191
:102B1000E8019091E901A091EA018093C3019093AB
:102B2000C401A093C50181E090E00E94FE2C892B96
:102B300011F41092EA0180E090E00E94FE2C892BB3
:102B400009F060C0E12FF0E0E75FFD4F80E090E02A
:102B5000DC01A953BE4F2C9121930196853091053C
:102B6000B9F764C0E091D8010E2F10E08091C60142
:102B70008830C9F58091C50180FF12C08091BE01E7
:102B800080FF0CC0809104028160809304028091D8
:102B9000BE0160E086950E94871402C00E947014F6
:102BA0008091C50181FF09C020E04091C101609181
:102BB000C0018091BF010E94E0118091C50182FF98
:102BC00009C08091C401882319F00E94F12A02C033
:102BD0000E94EA2A8091C50183FF03C081E08093AF
:102BE000E5011092C601F801E75FFD4F80E090E03B
:102BF0002191DC01A953BE4F2C930196853091059C
:102C0000B9F716C080911C028F5F80931C0286303A
:102C100078F0E091D701F0E0E75FFD4F80E090E0D1
:102C20001192019685309105D9F702C010921C02CD
:102C30008C2FDF91CF911F910F91FF90EF90DF903C
:102C4000CF90BF90AF909F908F907F906F9008959E
:102C5000809194020895CF93DF9300D01F92CDB757
:102C6000DEB79091A802943011F589837B836A8343
:102C70009093E9008FEF9091E800815095FD06C098
:102C800095ED9A95F1F700008111F5CF8091E8005C
:102C900085FF0DC040E050E063E070E0CE0101969A
:102CA0000E9450258091E8008E778093E8000F9075
:102CB0000F900F90DF91CF910895BC0184E00C94A8
:102CC0002B16BC0183E00C942B1624E02093E90022
:102CD0002FEF3091E800215035FD06C035ED3A95D3
:102CE000F1F700002111F5CF2091E80025FF0BC07E
:102CF00040E050E066E070E00E9450258091E800DE
:102D00008E778093E8000895CF93DF9321E020939E
:102D1000E9002FEF3091E800215035FD06C035ED78
:102D20003A95F1F700002111F5CF2091E80025FF39
:102D300014C0EC0140E050E068E070E00E945025D3
:102D40008091E8008E778093E80088E0FE01A5E995
:102D5000B2E001900D928A95E1F7DF91CF9108954D
:102D6000833011F128F4813049F0823091F00895D8
:102D7000853081F120F18630C1F108958091EE0116
:102D8000681720F4861B8093EE0108951092EE01DF
:102D9000089580911A01681720F4861B80931A0108
:102DA000089510921A01089580912801681720F45F
:102DB000861B809328010895109228010895809120
:102DC0002701681720F4861B80932701089510922D
:102DD0002701089580912601681720F4861B8093AF
:102DE0002601089510922601089580912501681703
:102DF00020F4861B809325010895109225010895E3
:102E0000833081F128F4813059F08230D1F0089577
:102E1000853009F449C0B8F1863009F456C00895E8
:102E20008091EE01262F30E0280F311D2F3F310514
:102E300024F4680F6093EE0108958FEF8093EE0104
:102E4000089580911A01262F30E0280F311D2F3F61
:102E5000310524F4680F60931A0108958FEF809371
:102E60001A01089580912801262F30E0280F311D86
:102E70002F3F310524F4680F6093280108958FEFE8
:102E800080932801089580912701262F30E0280F94
:102E9000311D2F3F310524F4680F609327010895F9
:102EA0008FEF80932701089580912601262F30E02F
:102EB000280F311D2F3F310524F4680F6093260140
:102EC00008958FEF80932601089580912501262F84
:102ED00030E0280F311D2F3F310524F4680F609337
:102EE000250108958FEF809325010895803F39F4DF
:102EF0008091F50187FF6AC01092F50167C0813F9C
:102F000029F48091F5011816BCF360C09091F4018A
:102F1000823F29F497FF5AC01092F40157C0833FB3
:102F200019F41916CCF352C09091F601893F31F48F
:102F300019160CF04BC01092F60148C08A3F19F4E4
:102F400097FF44C0F8CF8B3F39F48091F70187FF9A
:102F50003DC01092F7013AC08C3F29F48091F701EF
:102F60001816BCF333C0843F21F48091F3018E7FA7
:102F700017C0853F21F48091F3018D7F11C0863FFA
:102F800021F48091F3018B7F0BC0873F21F4809166
:102F9000F301877F05C0883F31F48091F3018F7E74
:102FA0008093F30113C08D3F21F480918F028E7FB7
:102FB0000BC08E3F21F480918F028D7F05C08F3F23
:102FC00029F480918F028B7F80938F028091F4018E
:102FD000811106C08091F501811102C01092EF01AC
:102FE0008091F601811106C08091F701811102C024
:102FF0001092EB01089580918F0280FF08C06091CC
:10300000260170E0759567957595679521C081FFDC
:1030100006C06091260170E07595679519C082FF22
:1030200004C06091260170E010C09091EB019923DB
:1030300099F0609125019617A0F780912601899F4C
:10304000C001112470E00E94B62E6038710540F472
:103050006115710519F406C061E070E0862F0895CE
:103060008FE7089581E0089580918F0280FF0BC063
:103070006091280185E0689FB001112475956795DE
:10308000759567952BC081FF09C06091280185E087
:10309000689FB00111247595679520C082FF07C015
:1030A0006091280185E0689FB001112417C09091BC
:1030B000EF019923D1F060912701961788F72091AD
:1030C000280185E0289F90011124929FA001939FE1
:1030D000500D112470E0CA010E94B62E60387105AF
:1030E00040F46115710519F406C065E070E0862FA3
:1030F00008958FE7089581E00895803F21F40E94AC
:103100003418819504C0813F29F40E9434188093BB
:10311000F5010895823F21F40E943418819504C07E
:10312000833F29F40E9434188093F4010895893F65
:1031300019F40E94FB1705C08A3F31F40E94FB1767
:1031400081958093F60108958B3F21F40E94FB172F
:10315000819504C08C3F29F40E94FB178093F701EE
:103160000895843F21F48091F301816017C0853F69
:1031700021F48091F301826011C0863F21F4809197
:10318000F30184600BC0873F21F48091F3018860D4
:1031900005C0883F31F48091F30180618093F30191
:1031A00008958D3F21F480918F0281600BC08E3F86
:1031B00021F480918F02826005C08F3F29F48091B5
:1031C0008F02846080938F02089587E797E790933A
:1031D0000108809300089AE088E10FB6F894A8955A
:1031E000809360000FBE90936000FFCF78941F9291
:1031F0000F920FB60F9211248F939F93AF93BF93AB
:103200008091130290911402A0911502B0911602C0
:103210000196A11DB11D8093130290931402A093F7
:103220001502B0931602BF91AF919F918F910F90AD
:103230000FBE0F901F9018959C014FB7F894809186
:10324000130290911402A0911502B09116024FBF83
:10325000821B930B08952FB7F894809113029091DD
:103260001402A0911502B09116022FBF08950E947A
:103270002B192091F401211104C02091F501222382
:1032800021F09093F1018093F0012091F60121113A
:1032900004C02091F701222321F09093ED01809347
:1032A000EC01E091DC01F091DD01309749F082E022
:1032B0008093F2010480F581E02D82EF91E0099482
:1032C00008951F920F920FB60F9211248F939F9320
:1032D000AF93BF938091DE01811113C080911302DF
:1032E00090911402A0911502B09116024196A11D71
:1032F000B11D8093130290931402A0931502B09312
:103300001602BF91AF919F918F910F900FBE0F90BA
:103310001F9018959C012A5F3F4FFC014281461384
:1033200001C01282019682179307B9F708959C0194
:10333000FC0132969FEF80E04191461789F09F3F54
:1033400019F4411101C0982F8F5F8630A9F79F3F74
:1033500039F0F901E90FF11D97FDFA95628308959F
:103360000895CF9384E090E00E94DD2DC82F81E284
:1033700090E00E94DD2D2C2F30E0A901582BCA01CE
:10338000CF9108956CEE7EEF80E090E00E940F2ECA
:1033900060E082E090E00E94F12D60E083E090E048
:1033A0000E94F12D10928B0210928C0210928D02CD
:1033B00010928E0260E084E090E00E94F12D60E0C7
:1033C00081E290E00E94F12D60E085E090E00E94B3
:1033D000F12D60E086E090E00E94F12D6FEF87E034
:1033E00090E00E94F12D40E050E0BA0188E090E0CA
:1033F0000E94032E60E08DE090E00E94F12D40E0FD
:1034000050E0BA0188E190E00E94032E60E087E17D
:1034100090E00E94F12D40E050E0BA018CE190E094
:103420000E94032E60E080E290E00E94F12D40E0D7
:1034300050E0BA018FE090E00E94032E40E050E09F
:10344000BA0183E190E00C94032E80918A028111ED
:1034500010928A0208959091890280918802892BA6
:1034600020918702982F922B90931E0280918A02BE
:10347000882389F0892B80931E02E0E2F2E097E036
:1034800080E0915029F021912223D9F38F5FF9CF69
:1034900081110E94251AE091DC01F091DD01309745
:1034A00031F00280F381E02D8EE192E009940895DD
:1034B000BF92CF92DF92EF92FF920F931F93CF9321
:1034C000DF938C01C090A902D090AA02E090AB02D9
:1034D000F090AC0280918B0290918C02A0918D02B1
:1034E000B0918E02C82AD92AEA2AFB2ACFE1D0E07D
:1034F000D701C6010C2E04C0B695A7959795879560
:103500000A94D2F780FD04C0219790F7B12C07C030
:10351000BC2EB8018C2F0E94E1120197A9F38B2DCC
:10352000DF91CF911F910F91FF90EF90DF90CF909F
:10353000BF900895CF93DF93EC010E94581ABE010B
:103540000E94E112DF91CF910895292F220F920F4F
:10355000990F890F682F669566956695982F9770D5
:1035600085E0689FB001112440E050E080E0FB015D
:10357000E40FF51FE25AFD4F208130E0092E02C012
:10358000369527950A94E2F721703327042E01C05F
:10359000220F0A94EAF7822B4F5F5F4F45305105A7
:1035A00031F70895292F220F920F990F890FE82FD5
:1035B000E695E695E695877051E001C0550F8A952E
:1035C000EAF785E0E89FF0011124E25AFD4F20E080
:1035D00030E070E04081CB01022E02C096958795C5
:1035E0000A94E2F78170819584278523842781934B
:1035F0002F5F3F4F2530310569F708956093A90289
:103600007093AA028093AB029093AC020C94A61E16
:103610000F931F9341E050E060E070E004C0440F5E
:10362000551F661F771F8A95D2F740955095609574
:1036300070958091A9029091AA02A091AB02B091DD
:10364000AC028A019B01082319232A233B23C901C9
:10365000B8011F910F910C94FE1A2091860280955B
:10366000822380938602982F977079F430E0482F58
:10367000082E000C550B2417350739F085958595D4
:1036800085950E94081B1092860208950F931F9340
:1036900041E050E060E070E004C0440F551F661F39
:1036A000771F8A95D2F78091A9029091AA02A091E2
:1036B000AB02B091AC028A019B01082B192B2A2B7B
:1036C0003B2BC901B8011F910F910C94FE1A609316
:1036D0008B0270938C0280938D0290938E020C94D7
:1036E000A61E0F931F9341E050E060E070E08A0156
:1036F0009B0104C0000F111F221F331F8A95D2F7B0
:10370000C901B8010E94671B1F910F910C94C31E41
:103710008B3109F473C058F58B3009F48FC078F4FD
:10372000863009F446C020F4853009F44CC08AC0C4
:10373000873009F455C0883009F480C083C08031D7
:1037400009F46FC068F48E3009F07CC08091F901F3
:1037500082FB222720F991E0922790FB82F957C043
:10376000863109F46BC0893109F468C06BC08A32B4
:10377000E9F060F4873209F463C028F48E3108F46C
:1037800061C08D5159C08932F1F05CC0833450F46E
:103790008A3308F050C0853309F452C0883309F4E5
:1037A0004DC050C0833409F44BC04CC00E94C219B4
:1037B00045C08091F901817F8E7F8093F90181E07E
:1037C0008093900208950E94C31E2FEF84E39CE033
:1037D000215080409040E1F700C000000E94E518B1
:1037E0008091F901982F9095917090FB80F98093CA
:1037F000F901911123C0897F877F10C08091F90161
:1038000081FB222720F991E0922790FB81F9809398
:10381000F901992399F08091F90181608093F90170
:103820000DC08091F90183FB222720F991E09227B6
:1038300090FB83F9ECCF89530E94711B81E00895BE
:1038400080E0FACF80E0089520915D0290912C02F3
:1038500056E02917A9F030E0529FF001539FF00D78
:103860001124E35DFD4F7181761306C070817813DA
:1038700003C07281741306C02F5F3F4F2770E9CFDA
:1038800080E0089581E0089580915D0290912C027E
:10389000891719F08F5F8770FBCF08950F931F93DF
:1038A000CF93DF9380912B0282958F7009F05DC0DA
:1038B00080912802882309F458C080915D021091FC
:1038C0002C026091260270912702C0912902D091AA
:1038D0002A0291E06F3F09F090E0292F06E081175E
:1038E00009F443C0209721F07F3F21F030E003C06E
:1038F00031E001C0322F90E030FD34C0089FF0016C
:10390000099FF00D1124DF01A35DBD4F11963C917D
:103910001197371327C03C91361324C012963C915F
:10392000129731111FC013964D915C9114974C1B47
:103930005D0B483C5105B0F480912B028F70806183
:1039400080932B02EE5CFD4F80818F7080618083BD
:1039500086E292E00E94A809DF91CF911F910F911A
:103960000C94441C01968770BACFDF91CF911F91C0
:103970000F9108950E949A1A292F2F70E92FE2952E
:10398000EF704E2F50E0FA013297EE30F105B8F4A7
:10399000E757FF4F0C94CA2E803F99F018F4883EE9
:1039A00070F40FC0843F59F40CC0883E50F0813F42
:1039B00031F407C0822F869586958695089580E01C
:1039C000089581E008958F929F92AF92BF92CF9217
:1039D000DF92EF92FF920F931F93CF93DF93CDB7B8
:1039E000DEB761970FB6F894DEBF0FBECDBF8C0176
:1039F00085E0F801DE011D9601900D928A95E1F7B0
:103A0000D801DC901196EC9011971296CC90909181
:103A10002602209127024091290250912A02411545
:103A2000510531F02F3F31F481E09F3F19F403C07D
:103A300081E001C080E080FD58C1F801A380B4801E
:103A400086E2882E82E0982EF0902802B501641B51
:103A5000750BFF2009F403C180912B02382F307FB2
:103A6000683C710508F0CDC0311188C02E1112C01C
:103A70009D1110C0FC2CC1100DC08F70806180930F
:103A80002B02C4010E94A80980912B02D80115962F
:103A90008C9348C1A114B10439F0BFEFEB1206C0FA
:103AA00081E0DB1203C003C081E001C080E080FD43
:103AB00003C081E08C2502C080E090E080FF10C050
:103AC0004C2D6E2D8D2D0E94241C882349F086E2FA
:103AD00092E00E94A809E6E2F2E086E0DF0199C0E8
:103AE000AB2839F0BFEFEB1206C081E0DB1203C058
:103AF00003C081E001C080E080FD03C081E08C252F
:103B000002C080E090E0E82FE170BE2E80FF2CC064
:103B10004C2D6E2D8D2D0E94241CF82E811124C059
:103B2000DD86EE868D859E850E949A1A292F229524
:103B30002F70223018F0243090F405C09F7059F097
:103B4000811109C0EFC09F7031F0D80115969C918A
:103B5000907F09F4E7C0805E883008F4E3C0C801B4
:103B60000E94A809FB2CDEC0FC2CCC2009F4DAC092
:103B700080912B02816080932B024EC02E1106C0D3
:103B80009D1104C0C11002C0F8018BC0DD86EE8615
:103B90008D859E850E94BA1C882369F1CC2059F13D
:103BA00020912B02822F82958F7090E0029774F003
:103BB000809126029091270298878F831986BB8671
:103BC000AA862C87CE0107960E94A80986E0F801F4
:103BD000A6E2B2E001900D928A95E1F70E944E1C98
:103BE0000DC02E15D9F0DD86EE868D859E850E944E
:103BF000BA1C81111DC0C8010E94A809FF24F394BA
:103C000091C03111EECF86E292E00E94A80986E0D1
:103C1000D4011D928A95E9F7F12C84C09D11E3CF60
:103C2000C110E1CFF8018583C8010E94A80957C0DF
:103C3000CC2009F320912B02822F82958F7090E087
:103C4000029724F280912602909127029A83898319
:103C50001B82BD82AC822E83CE010196B5CF683C1B
:103C60007105E8F5FC2CCC2031F22E1127C09D11F6
:103C700025C020912B0220FD18C0822F82958F70C5
:103C8000482F50E04115510581F0F80125834F3050
:103C9000510541F08F5F982F9295907F822F8F7002
:103CA000892B8583C8010E94A80986E0F801A6E255
:103CB000B2E001900D928A95E1F734C0DD86EE8680
:103CC0008D859E850E94BA1C811180CF80912B0228
:103CD000816080932B02C8010E94A80923C086E05E
:103CE000D4011D928A95E9F71DC0CC2009F483CF39
:103CF000DD86EE868D859E850E94BA1CF82E88236F
:103D000009F479CF86E0F801A6E2B2E001900D92C5
:103D10008A95E1F780912602909127020E949A1AD3
:103D20000E944E1C8F2D61960FB6F894DEBF0FBE19
:103D3000CDBFDF91CF911F910F91FF90EF90DF905A
:103D4000CF90BF90AF909F908F900895109288026F
:103D5000109287020E942B1AE2EFF1E086E0DF0169
:103D60001D928A95E9F71092EF011092EB011092E3
:103D70008F020E94371980E090E00E94A82980E01D
:103D800090E00C9492291092890286E0E0E2F2E041
:103D9000DF011D928A95E9F70C94A61E882341F055
:103DA0008095909189028923809389020C942B1A23
:103DB0000895882339F090918902892B8093890294
:103DC0000C942B1A0895882309F463C0823869F48F
:103DD0000E94BE2981FF5DC069E38EE192E00E94EE
:103DE00097190E942B1A69E30EC0833891F40E9440
:103DF000BE2980FF4EC063E58EE192E00E949719D4
:103E00000E942B1A63E58EE192E00E948A190C94BD
:103E10002B1A843869F40E94BE2982FF3AC067E4F5
:103E20008EE192E00E9497190E942B1A67E4EBCF73
:103E30009CEF980F913A10F4682FE5CF90E2980F1D
:103E4000983088F4877021E030E0A90102C0440F67
:103E5000551F8A95E2F7CA018095909189028923BE
:103E600080938902D4CF9BE5980F933020F480E0B3
:103E700090E00C94A82998E5980F973120F480E001
:103E800090E00C949229803F20F00E9476170C94C9
:103E900037190895CF93882309F421C1C82F823898
:103EA000B1F40E94BE2981FD1AC169E38EE192E05E
:103EB0000E9497190E942B1A2FEF81EE94E0215057
:103EC00080409040E1F700C0000069E317C08338EC
:103ED000E1F40E94BE2980FD02C163E58EE192E01B
:103EE0000E9497190E942B1A2FEF81EE94E0215027
:103EF00080409040E1F700C0000063E58EE192E071
:103F00000E948A19CF910C942B1A8438B1F40E9424
:103F1000BE2982FDE4C067E48EE192E00E94971919
:103F20000E942B1A2FEF81EE94E0215080409040A8
:103F3000E1F700C0000067E4E1CF8CEF8C0F813A1D
:103F400008F080C080919002813069F018F08230D2
:103F500021F170C080918902823209F0A8C08C2FB3
:103F60000E94881B6CC0809189028232C1F3C431E7
:103F700089F050F4CB3009F498C0C03109F05DC02D
:103F800082E08093900291C0C93221F0C83309F4D5
:103F90008CC053C01092900250C0C93299F118F5EC
:103FA000C43181F1A0F4C73009F099C01092EE013C
:103FB00084E180931A01C09328018CE38093270148
:103FC00088E08093260188E28093250188C0CE5145
:103FD000C63008F084C0EC2FF0E0ED58FE4F808131
:103FE000809391027CC0CE34F9F028F4CB3409F0F0
:103FF00076C06AE014C0C13581F0C23509F06FC0E7
:1040000061E00DC080919102882319F01092910215
:1040100066C081E08093900262C061E006C080913A
:104020009102CF910C9400176AE080919102CF9198
:104030000C94B016109290023AC080E08170811109
:104040004EC035C080E28C0F883068F4C77081E0C4
:1040500090E001C0880FCA95EAF790918902892BF8
:10406000809389024FCFEBE5EC0FE33040F4F0E0B2
:10407000E358FE4F808190E0CF910C94A829E8E5A9
:10408000EC0FE73150F4F0E0EE0FFF1FE058FE4F69
:1040900080819181CF910C949229C03F00F18C2FA7
:1040A0000E947D18CF910C94371981E0C7CFE0E2D0
:1040B000F2E086E292E02191C21749F08E179F0745
:1040C000D1F76C2F8EE192E00E9497191BCF6C2FD5
:1040D0008EE192E00E948A190E942B1AF2CFCF91B2
:1040E0000895CF93C82F0E944A1FC93349F42FEF78
:1040F00087EE93E0215080409040E1F700C000003F
:104100008C2FCF910C94E31E0F931F938091A902E3
:104110009091AA02A091AB02B091AC028C019D01DA
:104120000670112722273327BC01CD010630110567
:104130002105310511F4686001C0677F1F910F915F
:104140000C94FE1A1F93CF93DF93CDB7DEB7AA97D7
:104150000FB6F894DEBF0FBECDBFE0EAF2E080916B
:10416000F100819342E0E83AF407C9F78091A10297
:10417000833009F462C030F4813071F0823009F488
:104180009CC0B3C08A3009F488C08B3009F46DC07C
:10419000893009F0AAC020C08091A002813A09F0BC
:1041A000A4C08091E800877F8093E8008091A402FA
:1041B0009091A502892B21F468E085E992E003C083
:1041C00060E080E090E070E00E94602B8091E80069
:1041D0008B778093E80089C08091A002813209F03A
:1041E00084C08091A4029091A502009719F00297D3
:1041F00009F07BC08091E800877F8093E800809180
:10420000E80082FD05C08091A8028111F8CF6DC041
:104210002091F3008091F20090E0922B029729F414
:104220008091F1008B7F813021F48091F1008093A7
:1042300094028091E8008B7754C08091A002813A6B
:1042400009F053C08091A4029091A502892B09F036
:104250004CC08091E800877F8093E8008091E8005F
:1042600080FFFCCF8091290137C08091A00281326C
:10427000E1F58091A4029091A502892BB1F580917E
:10428000E800877F8093E8000E940C2B8091A202B7
:10429000809329010E94C31E28C08091A002813210
:1042A00021F58091E800877F8093E8000E940C2B25
:1042B0008091A3028093930218C08091A002813A5A
:1042C000A1F48091E800877F8093E8008091E80066
:1042D00080FFFCCF809193028093F1008091E800F1
:1042E0008E778093E8000E940C2B8091E80083FF7A
:1042F000E9C18091A0029091A102492F50E04A307B
:10430000510508F0DFC1FA01E956FF4F0C94CA2E9F
:10431000803821F0823809F0D5C108C080919D0213
:1043200090919E02992389F082600FC08091A4022F
:104330008F70873008F0C6C18093E9008091EB0050
:1043400085FB882780F91092E9009091E800977F1B
:104350009093E8008093F1001092F1007CC1282F27
:104360002D7F09F0AFC1882319F0823061F0AAC116
:104370008091A202813009F0A5C1933009F080E05C
:1043800080939E022EC08091A20281112AC080914A
:10439000A4028F702FEF280F263008F093C180936E
:1043A000E9002091EB0020FF1CC0933021F48091A4
:1043B000EB00806214C09091EB0090619093EB0051
:1043C00021E030E0A90102C0440F551F8A95E2F7B1
:1043D0004093EA001092EA008091EB00886080939D
:1043E000EB001092E9008091E800877F8093E8005D
:1043F0000E940C2B67C1811165C11091A2021F7729
:104400008091E3008078812B8093E3008091E80025
:10441000877F8093E8000E940C2B8091E80080FF4A
:10442000FCCF8091E30080688093E300111102C00B
:1044300082E001C083E08093A80244C180588230AA
:1044400008F040C12091A2023091A3022C3D53E01C
:10445000350779F583E08A838AE289834FB7F89438
:10446000DE01139620E03EE051E2E32FF0E05093AE
:104470005700E49120FF03C0E295EF703F5FEF70BB
:104480008E2F90E0EA3010F0C79601C0C0968D9351
:104490009D932F5F243149F74FBF8091E800877FBC
:1044A0008093E8006AE270E0CE0101960E94602BE2
:1044B000C0C08091A4029091A502432F552743309C
:1044C0005105B1F068F44130510509F40AC1423098
:1044D000510509F0F7C08BE590E0EFEDF3E057C030
:1044E0004132510589F14232510509F43CC0EAC01C
:1044F000C901992781309105B9F070F0823091059A
:10450000D9F0039709F0DEC0ECE4F4E0E4918E2FDB
:1045100090E0ECE4F4E038C0E4E7F4E0E4918E2FBE
:1045200090E0E4E7F4E030C0E4E6F4E0E4918E2FBC
:1045300090E0E4E6F4E028C0E2E5F4E0E4918E2FB8
:1045400090E0E2E5F4E020C08330910508F0BAC0C5
:10455000880F991FFC01E954FE4F0190F081E02D76
:1045600089E090E014C08330910508F0ABC0FC01F5
:10457000EE0FFF1FEF54FE4F0190F081E02DDC01A4
:10458000A255BE4F8C9190E0009709F49BC02091FA
:10459000E800277F2093E8002091A6023091A7022F
:1045A0002817390708F4C90140E0009789F12091E4
:1045B000A802222309F43DC02530D9F12091E8005A
:1045C00023FD37C02091E80022FD2FC02091E80094
:1045D00020FFEBCF4091F3002091F20030E0342B2C
:1045E000009759F02830310540F444914093F10090
:1045F000319601972F5F3F4FF3CF41E028303105CF
:1046000009F040E02091E8002E772093E800CDCF1C
:104610004111CDCF0AC08091A802882351F0853086
:1046200041F08091E80083FD04C08091E80082FFA2
:10463000F2CF8091E8008B778093E80043C0803808
:1046400009F040C08091E800877F8093E800809166
:104650009F028093F1008091E8008E77C7CE811190
:1046600031C08091A2029091A3029927029754F53C
:104670008091E800877F8093E8001091A202109358
:104680009F020E940C2B111106C08091E30087FD50
:1046900002C081E001C084E08093A80242E061ECA6
:1046A00081E00E942B2B42E261EC84E00E942B2BE4
:1046B00042E261EC82E00E942B2B42E260EC83E05C
:1046C0000E942B2B8091E80083FF10C08091E800AE
:1046D000877F8093E8008091EB0080628093EB00FD
:1046E00005C082E190E0EAE3F4E051CFAA960FB66C
:1046F000F894DEBF0FBECDBFDF91CF911F9108951B
:104700001F920F920FB60F9211242F933F934F9346
:104710005F936F937F938F939F93AF93BF93CF9349
:10472000DF93EF93FF93C091E900CF708091EC008D
:10473000D82FD17080FDD0E81092E9008091F00070
:10474000877F8093F00078940E94A2201092E90065
:104750008091F00088608093F000CD2BCF70C093E3
:10476000E900FF91EF91DF91CF91BF91AF919F91C0
:104770008F917F916F915F914F913F912F910F900A
:104780000FBE0F901F901895E8EDF0E080818E7FAE
:1047900080831092E2001092DA001092E100A0EE05
:1047A000B0E08C9181608C9380818F77808319BC7D
:1047B000A7EDB0E08C918E7F8C9380818F7E80837B
:1047C000109292020895CF92DF92EF92FF920F9390
:1047D0001F93CF93DF93C8EDD0E088818F7E8883CD
:1047E000E7EDF0E080818160808384E082BF81E03A
:1047F0008093920288818E7F888302EE10E0F80118
:1048000010821092DA0081EEC82ED12CF6011082AF
:1048100088818F77888388818068888388818F7D6D
:10482000888319BC1092A80210929F0210929E02D7
:1048300010929D0290EEE92EF12CF70180818B7F82
:10484000808388818160888342E060E080E00E940C
:104850002B2BF60180818E7F8083F801808181601F
:104860008083808188608083F70180818E7F808350
:10487000888180618883DF91CF911F910F91FF9094
:10488000EF90DF90CF9008951F920F920FB60F9286
:1048900011242F933F934F935F936F937F938F9345
:1048A0009F93AF93BF93EF93FF938091E10082FFBB
:1048B00009C08091E20082FF05C08091E1008B7FFA
:1048C0008093E1008091DA0080FF2AC08091D800B7
:1048D00080FF26C08091DA008E7F8093DA0080917D
:1048E000D90080FF18C080E189BD82E189BD09B48B
:1048F00000FEFDCF81E08093A80280919202811199
:104900000FC00E94C4230E94E3238091E2008460D0
:104910008093E20005C019BC1092A8021092920286
:104920008091E10080FF17C08091E20080FF13C0FA
:104930008091E2008E7F8093E2008091E2008061AE
:104940008093E2008091D80080628093D80019BCE7
:1049500085E08093A8028091E10084FF32C08091BD
:10496000E20084FF2EC080E189BD82E189BD09B4E7
:1049700000FEFDCF8091D8008F7D8093D80080917C
:10498000E1008F7E8093E1008091E2008F7E809332
:10499000E2008091E20081608093E20080919F02BA
:1049A000882311F084E007C08091E30087FD02C0F6
:1049B00081E001C083E08093A8020E94C31E0E9490
:1049C000BE298091E10083FF27C08091E20083FF30
:1049D00023C08091E100877F8093E10082E0809393
:1049E000A80210929F028091E1008E7F8093E100E7
:1049F0008091E2008E7F8093E2008091E2008061EE
:104A00008093E20042E060E080E00E942B2B8091E6
:104A1000F00088608093F000FF91EF91BF91AF911B
:104A20009F918F917F916F915F914F913F912F91C6
:104A30000F900FBE0F901F9018952091E4003091B9
:104A4000E50095E64091EC00842F817040FF23C083
:104A50008091E80080FD1DC08091A802882399F014
:104A6000853099F08091EB0085FD11C04091E40004
:104A70005091E5002417350729F3915011F09A0160
:104A8000E1CF84E0089582E0089583E0089581E015
:104A9000089580E008954091E80042FFDDCF089539
:104AA000EF92FF920F931F93CF93DF937C018B01C3
:104AB0000E941D25811119C0E70101151105A1F002
:104AC0008091E80085FD0AC08091E8008E77809390
:104AD000E8000E941D25882381F307C089918093F7
:104AE000F10001501109E9CF80E0DF91CF911F91D2
:104AF0000F91FF90EF900895CF932091A80224305A
:104B0000F9F4C091E900CF703091EC00232F2170AF
:104B100030FD20E8C22B22E02093E9002091E8003C
:104B200020FF0BC040E050E060E270E00E945025A2
:104B30008091E8008E778093E800CF70C093E90001
:104B4000CF91089508958F929F92AF92BF92CF9286
:104B5000DF92EF92FF920F931F93CF93DF93FC01AD
:104B6000B280948081E0848300E015E05BE4A52EB0
:104B700088248394EE24EA94F12C7BE4C72ED12C74
:104B800080910801081708F08FC0C02FD0E01C9F4B
:104B9000F0011D9FF00D1124EC52FD4F911003C048
:104BA0001382128267C02381222389F1215023833B
:104BB0003481332319F09A2D921B01C0922F8091DA
:104BC00007021C9FF0011D9FF00D1124EC52FD4FB8
:104BD000899FC0011124B6010E94A22E6283211177
:104BE00004C0332311F01482A38222E02B1508F4B1
:104BF00041C01C9FF0011D9FF00D1124EC52FD4F90
:104C000080910502808380910602818333C00E94D7
:104C1000CD2D8230914074F582E08B1530F40E94E6
:104C2000CD2DB7010E94B62E02C0809105021C9FB7
:104C3000F0011D9FF00D1124EC52FD4F808322E006
:104C40002B1558F40E94CD2D209106022695622F37
:104C500070E00E94B62E820F02C0809106021C9F57
:104C6000F0011D9FF00D1124EC52FD4F8183128243
:104C7000A3828482809106019E01280F311DC90103
:104C8000880F991F280F391F20553D4F1C9FF00199
:104C90001D9FF00D1124EC52FD4F428161818081F6
:104CA0000E9430110F5F6CCFDF91CF911F910F9158
:104CB000FF90EF90DF90CF90BF90AF909F908F903C
:104CC0000C946B100F931F93CF93DF93EC0100E0D4
:104CD00010E080910801282F30E00217130724F517
:104CE000909106019801290F311DA901440F551F0C
:104CF000240F351F20553D4F869590E04C810817B5
:104D000019071CF4442331F002C0411103C0409143
:104D1000070201C040E060910602809105020E94F6
:104D200030110F5F1F4FD5CF0E946B108C8190E028
:104D30000196817099278C83DF91CF911F910F91FC
:104D400008958F929F92AF92BF92CF92DF92EF928F
:104D5000FF920F931F93CF93DF938C01FC0144814B
:104D6000C42FD0E09E01DE010E94792E9B01AC0190
:104D70000E94442E6B017C01E0E2F0E0EC1BFD0B95
:104D8000A5E5B0E09B01AC010E94442E4B015C0103
:104D90009F01DF010E94D72E9B01AC010E944F2E84
:104DA0009B01AC012C0D3D1D4E1D5F1DC501B401C5
:104DB0000E94572EC22FD22F2A3228F4F3E02F9FC1
:104DC000900111240DC025E530E02C1B3109C901EB
:104DD000880F991F280F391F37FF02C02F5F3F4FE1
:104DE00035952795C22FC095F12C85E5E82EED1A53
:104DF00080910801F816C8F4F1FC02C08E2D01C0A4
:104E00008D2F909106012F2D30E0290F311DA90122
:104E1000440F551F240F351F20553D4F4C2F6091D7
:104E200006020E943011F394E3CF0E946B10F80148
:104E30008481811102C091E003C0803219F49FEF98
:104E40009093370190913701890FF8018483DF91A6
:104E5000CF911F910F91FF90EF90DF90CF90BF9077
:104E6000AF909F908F9008951F93CF93DF93EC01A5
:104E70008C81811109C081E08C831092AE0292E096
:104E8000909336018093350180910601909107013E
:104E9000891770F4E82FF0E09F01220F331FE20F13
:104EA000F31FE055FD4F1182108212828F5FF0CF09
:104EB00010E0609108011617C0F5E12FF0E070E0F6
:104EC000CF010E94B62E20910601820F2091AE02E2
:104ED000022E000C330B90E0E217F307CCF0209188
:104EE0003601022E000C330B2E173F078CF09C016D
:104EF000220F331F820F931F9C0120553D4F40917D
:104F0000070260910602809105020E9430110BC0D9
:104F1000FC01EE0FFF1F8E0F9F1FFC01E055FD4FA0
:104F20001182108212821F5FC4CF0E946B10809189
:104F300035012091AE02280F2093AE0290913601E8
:104F4000980F9093360119165CF4022E000C330B67
:104F50004091080150E0415051092417350734F0C1
:104F6000819580933501813009F41C82DF91CF91C6
:104F70001F9108958F929F92AF92BF92CF92DF922E
:104F8000EF92FF920F931F93CF93DF93EC018A81EF
:104F900080FF03C0BB24BA9402C0BB24B3948C81AD
:104FA00081110DC081E0B81206C0809108018150C6
:104FB0008093AD0202C01092AD0281E08C83A12CDF
:104FC0004CE0942E80910801A81608F044C080910E
:104FD0000601CA2CD12C8601080F111DC801880FAB
:104FE000991F080F191F00551D4FF80111821082DB
:104FF000128234E0E32EF12C812C8091AD02880DD9
:105000008D302CF0692D0E94942E892F05C087FFCA
:1050100003C090910801890F082E000C990BC81647
:10502000D90691F4809107028E9DA0018F9D500DAD
:10503000112455954795559547959801609106021D
:10504000809105020E9430118B0CF1E0EF1AF108FB
:10505000A1F6A394B7CF0E946B108091AD0291E0AE
:10506000B9120EC0811107C0809108018150809350
:10507000AD021C820FC081508093AD02BC820AC079
:1050800090E001966091080170E00E94B62E809336
:10509000AD028C83DF91CF911F910F91FF90EF9024
:1050A000DF90CF90BF90AF909F908F900895FF9228
:1050B0000F931F93CF93DF93EC01F12C0FEF10E0D0
:1050C00060910801F616F0F4809106012F2D30E072
:1050D000280F311DC901880F991F280F391F20552E
:1050E0003D4F70E0C8010E94B62E962F8C814091F2
:1050F000070260910602F99E800D11240E94301172
:10510000F394DECF0E946B109A818C8190FF02C0D5
:105110008F5F01C081508C83DF91CF911F910F91E0
:10512000FF9008950F931F93CF93DF9300D01F92AA
:10513000CDB7DEB78C018091AF0281110AC09E010C
:105140002F5F3F4F4FEF6FEF0E9430118A818093A6
:10515000AF02F8018481813051F028F0823061F48F
:105160004091AF020AC08091AF0240E007C0609159
:10517000AF0240E080E003C040E080E060E00E94D9
:10518000B710F801848190E0019663E070E00E941E
:10519000B62E84830F900F900F90DF91CF911F91C7
:1051A0000F910895CF93DF93EC01E4E0F2E04381A7
:1051B00062818C810E94C6118C818F5F8C83DF910C
:1051C000CF910895CF93DF93EC01EC81F0E0E858A4
:1051D000FB4F4491E4E0F2E0628181810E94C611BC
:1051E0008C818F5F8C83DF91CF9108951F93CF9334
:1051F000DF93CDB7DEB767970FB6F894DEBF0FBE6B
:10520000CDBF4B8B5C8B6D8B7E8B8F8B86E09E0135
:10521000235F3F4FD901E82F1D92EA95E9F795E00A
:10522000FE017396D90101900D929A95E1F7F9016B
:10523000DE01179601900D928A95E1F7CE0107964F
:105240000E94E31C81113EC086E0FE013796DE011C
:10525000119601900D928A95E1F7FF81E8856A85A4
:105260007B856115710531F0EF3F31F481E0FF3F3F
:1052700019F403C081E001C080E080FD23C02091CB
:105280002C0230E0C90101968770992740915D0298
:1052900050E08417950779F1F983EA837D836C8365
:1052A00096E0929FD001939FB00D1124A35DBD4F56
:1052B000FE01319601900D929A95E1F780932C02B0
:1052C0000E94441C16E080915D0290912C02891787
:1052D000F9F0189FC0011124835D9D4F0E94E31CCB
:1052E0008823B1F080915D0290E001968770992744
:1052F00080935D02E8CF0E94C31E10922C02109290
:105300005D02E6E2F2E086E0DF011D928A95E9F7B0
:1053100067960FB6F894DEBF0FBECDBFDF91CF9179
:105320001F91089520911403309115032817390710
:1053300071F09093150380931403E091DC01F091D8
:10534000DD01309721F00084F185E02D0994089566
:1053500020911203309113032817390771F09093AD
:10536000130380931203E091DC01F091DD0130978B
:1053700021F00680F781E02D09940895E091DC0189
:10538000F091DD01309721F00190F081E02D09943A
:1053900080E008950F931F93CF93DF93C42FD22FF4
:1053A000FC0182818823C9F0409317020E942B19C7
:1053B000909311038093100380E28C0F883008F0E3
:1053C00057C0C77081E001C0880FCA95EAF7DF9126
:1053D000CF911F910F910C94D91E80911702481301
:1053E00030C080911003909111030E941C19883CD9
:1053F000910538F510E21D0FCD17B9F080E28C0F42
:10540000883040F4C77081E001C0880FCA95EAF780
:105410000E94CE1E183028F581E09D2F977001C0A4
:10542000880F9A95EAF70E94D91E802F0E9471205A
:105430001830F0F4D77081E001C0880FDA95EAF7F0
:105440000AC080E28C0F883098F4C77081E001C0F8
:10545000880FCA95EAF7DF91CF911F910F910C94B5
:10546000CE1E802FDF91CF911F910F910C94712050
:10547000DF91CF911F910F910895CF93DF93C6E0F5
:10548000D2E060E0CE010E94F12D2196C11584E0AA
:10549000D807B9F7DF91CF910895CF92DF92EF92BD
:1054A000FF920F931F93CF93DF93C0E0D0E08E0164
:1054B00008581F4F6E018CE0C80ED11CFE01E85841
:1054C000FA4FE590F4906F2DCE0186960E94F12D53
:1054D0006E2DCE0187960E94F12D2296CC15DD050A
:1054E00069F70C171D0731F7E801003E1140F9F686
:1054F000DF91CF911F910F91FF90EF90DF90CF90B0
:1055000008950F931F93CF93DF93C42FD0E0CC0F58
:10551000DD1F2CE0629FC00DD11D112438E7839F51
:10552000C00DD11D1124CE0186960E94DD2D082FBD
:1055300010E0102F0027CE0187960E94DD2D9801E4
:10554000282BC901DF91CF911F910F910895462F0C
:10555000843038F47A3028F4663018F4672F0C94CD
:10556000812A80E090E00895CF93C82F811102C076
:105570006FEF01C060E282E290E00E94F12DC11164
:1055800002C06FEF01C062E183E290E00E94F12D62
:10559000C11102C06FEF01C064E184E290E0CF91DD
:1055A0000C94F12D9091040290FF04C096959817E9
:1055B00040F003C0811105C090E0961710F40C94E0
:1055C000D01461E00C948714882311F0FA0101C013
:1055D000FB010994E8EEF1E011828281846082830C
:1055E000089560910402669570E04BE050E08AE215
:1055F00091E00E94E62E892B19F481E08093E90165
:105600000E942B199093E3018093E2018091EA01BB
:1056100084608093EA0108958091A00287FF11C001
:105620008091E80082FD05C08091A8028111F8CF29
:1056300011C08091E8008B770BC08091A80288236D
:1056400049F08091E80080FFF8CF8091E8008E77E4
:105650008093E8000895982F973068F59093E900BB
:10566000981739F07091EC002091ED005091F00006
:1056700003C0242F762F50E021FD02C09F5FECCFA6
:105680003091EB003E7F3093EB003091ED003D7F99
:105690003093ED003091EB0031603093EB0070936C
:1056A000EC002093ED005093F0002091EE0027FDD8
:1056B000E5CF80E008958F708093E90081E0089540
:1056C0002091A6023091A7022617370748F06115EE
:1056D000710539F42091E8002E772093E80001C08D
:1056E000B901FC0120E06115710579F18091A802F2
:1056F0008823F1F18530F1F18091E80083FD3CC011
:105700008091E80082FD2EC08091E80080FFEBCF01
:105710002091F3008091F20090E0922B61157105C9
:1057200051F08830910538F421912093F1006150B7
:1057300071090196F3CF21E0089709F020E08091EC
:10574000E8008E778093E800CECF2111CFCF0AC03A
:105750008091A802882361F0853061F08091E80093
:1057600083FD0AC08091E80082FFF2CF80E00895B7
:1057700082E0089583E0089581E008958EE1489BDA
:1057800002C08150E1F7489BFECF0895589880E20F
:105790008A95F1F7589A0895FC012AE02A95F1F7C5
:1057A00090E020E080E031E0261779F040E14A9572
:1057B000F1F7880F489B02C08160932700C000006A
:1057C00040E14A95F1F72F5FEFCF20E12A95F1F7FD
:1057D00029B100C0000030E13A95F1F7217092271D
:1057E0002081920F90830895EF92FF920F931F9361
:1057F000CF93DF931F92CDB7DEB719828C017C0166
:10580000E60EF11C0E151F0559F00E94BE2B68E034
:10581000CE0101960E94CC2BF80181938F01F2CF2B
:1058200081E09981911180E00F90DF91CF911F91DC
:105830000F91FF90EF9008959093180380931703B2
:1058400060931603509A589A089590931803809382
:105850001703609316035098589AE89AE9E6F0E027
:1058600080818C7F80830895615091E001C0990F01
:105870006A95EAF720E031E0992361F0492F482347
:1058800019F0589A232701C0589840E24A95F1F739
:105890009695F2CF222311F0589A01C0589880E2D1
:1058A0008A95F1F758980895FF920F931F93CF931D
:1058B000DF93EC018C01060F111DC017D10741F0D9
:1058C000F9900E94C62B68E08F2D0E94342CF5CFF2
:1058D000DF91CF911F910F91FF9008951F920F922A
:1058E0000FB60F9211240F931F932F933F934F9353
:1058F0005F936F937F938F939F93AF93BF93EF9338
:10590000FF93CF93DF931F92CDB7DEB719820E942A
:10591000BE2B67E0CE0101960E94CC2B382F369526
:1059200036953695932F96959570232F2570920F67
:10593000292F2370969596958770920F891348C0EA
:105940008981811145C080911603831708F440C0F6
:1059500080E18A95F1F7589A509AA2E0AA95F1F75A
:1059600000C00091170310911803B8E03B9F000D91
:10597000111D11245898F8016581662321F0868154
:1059800097810E94542C0E94C62BF0E1FA95F1F702
:1059900058985098589A80E18A95F1F7D801129654
:1059A0006C911297662369F013968D919C911497D0
:1059B0000E94F42BD801ED91FC91811105C082E089
:1059C00004C0D801ED91FC9188E080830E94BE2B39
:1059D0000F90DF91CF91FF91EF91BF91AF919F9188
:1059E0008F917F916F915F914F913F912F911F9177
:1059F0000F910F900FBE0F901F9018950F931F934C
:105A0000CF93DF932091160330E0281739070CF469
:105A100071C09C0193E0220F331F9A95E1F7C0916A
:105A20001703D0911803C20FD31FF894509A5898B7
:105A300045E04A95F1F70000982F9695957085708E
:105A4000890F982F937086958695890F8901082B69
:105A50000E94C62B84E08A95F1F700C067E0802F92
:105A60000E94342C40E14A95F1F75098589A489991
:105A700002C000C0FCCF87E090E0489B0EC00197B9
:105A800051F4509A589AE881F98181E080837894A2
:105A900081E090E031C000C0F0CF6D81662381F0DD
:105AA0008E819F810E94F42B81110AC0509A589ACE
:105AB000E881F98182E08083789482E090E01CC0E4
:105AC0000E94BE2B80E28A95F1F75898509A40E1E7
:105AD0004A95F1F76A81662321F08B819C810E94AF
