:100000000C94B3030C94D62D0C94FA030C94FA03BD
:100010000C94FA030C94FA030C94FA030C94FA036C
:100020000C94FA030C94FA030C9408290C944428B9
:100030000C942E1B0C94FA030C94FA030C94FA0300
:100040000C94FA030C94FA030C94FA030C94FA033C
:100050000C94FA030C94A01A0C94FA030C94FA036F
:100060000C94FA030C94FA030C94FA030C94FA031C
:100070000C94FA030C94FA030C94FA030C94FA030C
:100080000C94FA030C94FA030C94FA030C94FA03FC
:100090000C94FA030C94FA030C94FA030C94FA03EC
:1000A0000C94FA030C94FA030C94FA031E11211118
:1000B0003B1148114F116F117211A611C811611235
:1000C0006112D311D511D911FC111C121F12221269
:1000D00043127A167A16B416B4160D172917BF18DC
:1000E000BF183417121823182318C31CC31CD61C9E
:1000F000D61CCC1CD61CD61CD61CC31CC31CD11CA5
:10010000D61CD61CD11C58267F2626287F262628BA
:10011000CB26EE262628E327F32700010101010163
:1001200001010101020202020202020202030303B0
:100130000303030303040404040404040505050580
:100140000506060606060707070707080808080940
:100150000909090A0A0A0B0B0B0C0C0C0D0D0D0EEC
:100160000E0E0F0F0F101011111112121313141481
:10017000151516161717181819191A1A1B1B1C1DF6
:100180001D1E1E1F2020212222232424252626274F
:100190002829292A2B2C2D2D2E2F30313232333481
:1001A00035363738393A3B3C3D3E3F404142434487
:1001B00045464748494A4C4D4E4F50515354555669
:1001C00058595A5B5D5E5F616264656668696B6C15
:1001D0006D6F7072737577787A7B7D7E8082838590
:1001E00087888A8C8E8F91939596989A9C9EA0A2D0
:1001F000A3A5A7A9ABADAFB1B3B5B7BABCBEC0C2DA
:10020000C4C6C9CBCDCFD1D4D6D8DBDDDFE2E4E79D
:10021000E9EBEEF0F3F5F8FAFDFFFFAA7F55401E7B
:100220000F0500047F3F1F643214643214783C1EB3
:100230001E140A050000000000000000000000007D
:1002400000000000000000000000000000000000AE
:1002500000000000000000007E0F00D4FFFFFFC779
:100260000000007800000000000000002A2B280099
:100270000000000000000000000000000000002955
:10028000000000002C1E3420212224342627252E95
:10029000362D3738271E1F202122232425263333CD
:1002A000362E37381F0405060708090A0B0C0D0EF9
:1002B0000F101112131415161718191A1B1C1D2FC5
:1002C0003130232D350405060708090A0B0C0D0EE5
:1002D0000F101112131415161718191A1B1C1D2FA5
:1002E0003130354C2223252628292A2C2D2F303237
:1002F000333536383A3B3D3E4042434547494A4C08
:100300004E5051535557595A5C5E60626466686935
:100310006B6D6F71737577797B7D7F81838587893D
:100320008A8C8E90929496989A9C9E9FA1A3A5A742
:10033000A8AAACAEAFB1B3B4B6B8B9BBBCBEBFC16E
:10034000C2C3C5C6C7C9CACBCCCDCED0D1D2D2D3F9
:10035000D4D5D6D7D7D8D9D9DADADBDBDBDCDCDC0D
:10036000DCDCDDDDDDDDDCDCDCDCDCDBDBDBDADAD0
:10037000D9D9D8D7D7D6D5D4D3D2D2D1D0CECDCC47
:10038000CBCAC9C7C6C5C3C2C1BFBEBCBBB9B8B65C
:10039000B4B3B1AFAEACAAA8A7A5A3A19F9E9C9AE7
:1003A00098969492908E8C8A89878583817F7D7BB5
:1003B00079777573716F6D6B6968666462605E5C96
:1003C0005A5957555351504E4C4A4947454342405C
:1003D0003E3D3B3A3836353332302F2D2C2A2928F2
:1003E000262523222B0014001A00080015001700F0
:1003F000394304001600070009000A00E1001D004F
:100400001B000600190005000000000050004F000E
:100410002A004C4200000000E2004D00E0004A00CB
:100420001C0018000C001200130031000B000D001E
:100430000E000F0033003443110010003600370067
:100440003800E50028422C00520051000000000056
:100450000007E4000503E3000000000001000100C4
:100460000100010001000100010001000100010084
:100470000100010001000100010001000100010074
:100480000000000001000100010001000000000068
:100490000100010001000100010001000100010054
:1004A0000100010001000100010001000100010044
:1004B0000100010001000100010001000100010034
:1004C0000100010000000000010001000100010026
:1004D00000000000010001000100010001002F00E8
:1004E000010001000100010001002F0201000100D4
:1004F00001000100010001000000000001000100F6
:1005000001000100000000000100010001000100E5
:1005100030005F00600061000100450030025C00B7
:100520005D005E002D004604010059005A005B008A
:100530002E002D0201000100620063000000000097
:100540004B0001004E000100000000000100CA5CE9
:10055000C75CC95C01002F000100C65CC85CC55CBB
:1005600001002F02C45CC35CCC5CCB5C01000100C9
:1005700000000000490435000100C25C00000000DA
:100580000100005C0100010030000100CA5CC75C92
:10059000C95C010030020100C65CC85CC55C01009A
:1005A0000100C45CC35CCC5CCB5C0100C25C01009C
:1005B000005201520000000001000100005C010037
:1005C0000000000005010902A10185020901A10046
:1005D00005091901290815002501950875018102F1
:1005E0000501093009311581257F950275088106BD
:1005F00009381581257F950175088106050C0A3893
:10060000021581257F950175088106C0C005010985
:1006100080A101850319012AB700150126B70095AD
:100620000175108100C0050C0901A10185041901A3
:100630002AA002150126A002950175108100C006AE
:1006400060FF0961A1010962150026FF0095207570
:100650000881020963150026FF00952075089102A4
:10066000C005010906A101050719E029E7150025C4
:100670000195087501810295017508810105071929
:100680000029FF150026FF00950675088100050862
:1006900019012905950575019102950175039101CF
:1006A000C009025B00030100A0FA09040000010375
:1006B0000101000921110100012240000705810309
:1006C00008000A09040100020300000009211101C9
:1006D0000001222200070582032000010705030311
:1006E000200001090402000103000000092111019A
:1006F0000001227B000705840320000A120110017B
:10070000000000084D4436340100010200013C03A2
:10071000680061006E006400770069007200650087
:1007200064002F00640061006300740079006C00B5
:100730005F006D0061006E00750066006F00720062
:100740006D002F00340078003600000014034F00C5
:1007500068004B0065007900630061007000730061
:1007600000000403090411241FBECFEFDAE0DEBF4E
:10077000CDBF04B603FE27C08091230390912403CC
:10078000A0912503B09126038730904BA740B04B32
:10079000D1F4109223031092240310922503109297
:1007A000260314BE84B7877F84BF0FB6F894A8953C
:1007B00080916000886180936000109260000FBE9D
:1007C000E0E0F8E3099511E0A0E0B1E0EAEBF0E643
:1007D00002C005900D92AE3BB107D9F723E0AEEB16
:1007E000B1E001C01D92A332B207E1F70E94110DE2
:1007F0000C945B300C9400009091C90192FF0DC0E5
:10080000282F2871283019F4877F846006C0282F8C
:100810002471243011F48B7F886093FF0DC0282F42
:100820002871283119F4877E846106C0282F24712D
:10083000243111F48B7E88612091CA0120FF0DC004
:10084000382F3871383019F4877F816006C0382F0F
:100850003171313011F48E7F886021FF0DC0282F57
:100860002871283119F4877E816106C0282F2171F3
:10087000213111F48E7E886194FD877E08950F9357
:100880001F9341E050E060E070E08A019B0104C0EA
:10089000000F111F221F331F8A95D2F7C901B8011B
:1008A0000E94A01D1F910F910C94E31F25E0E0E032
:1008B000F2E0DC0101900D922A95E1F72091E4012C
:1008C0003091E5014091E601FC01258336834783A1
:1008D00008951092E60108958091E60108953091FF
:1008E00005018091000280FF16C0E091040163E0E1
:1008F000E69FF0011124E657FD4F539A8BB1877F95
:100900009BB198602FB7F894AF0163E0369F400D1C
:10091000511D112414C0809106019091070189177F
:1009200020F7E82FF0E0AF01440F551FE40FF51F4B
:10093000E657FD4F1182108212828F5FF0CFE417CD
:10094000F50789F0319168E09BB9000000C037FFDE
:100950008BB9330F000000C000C000C08BB900C0CD
:100960006A9591F7ECCF2FBF8FE594E00197F1F7EF
:1009700000C0000008959091000290FF16C0909171
:10098000060120910701921770F4E92FF0E0DF01D2
:10099000AA0FBB1FEA0FFB1FE657FD4F8183608341
:1009A00042839F5FF0CF0C946F0408958091000202
:1009B000282F269530E02115310519F481708260C9
:1009C00005C02B32310524F08170846580930002CC
:1009D0000895CF92DF92EF92FF926B017C010E940B
:1009E000D604B701A60188E090E0FF90EF90DF9079
:1009F000CF900C946B2F80910402882319F08150C2
:100A000080930402609100027091010280910202C1
:100A1000909103020C94E90480910402833018F44D
:100A20008F5F8093040260910002709101028091B7
:100A30000202909103020C94E904E0E0F2E083E00A
:100A4000808311828FEF828383831482A4EEB1E0CE
:100A500012968C911297836012968C9360817181AB
:100A6000828193810C94E904AF92BF92CF92DF927E
:100A7000EF92FF920F931F93CF93DF93E82EF62E02
:100A8000E901E42FF0E0611106C0E65EFE4FE4915B
:100A90004E2F2E2F71C0062F10E0E65EFE4F4491C0
:100AA000F42FC42ED12C26E0829FC00111242FEFF9
:100AB00030E0B9010E940A305BEA5603C001579F3B
:100AC000900D11248E0D911D8E0D911D582F550FD7
:100AD000580FD901A01BB10BAC9DC001AD9D900D6D
:100AE000BC9D900D1124E92FF59ED0011124AB2F50
:100AF000BB277901EA1AFB0AEC9CD001ED9CB00DF2
:100B0000FC9CB00D11245901A51AB108A09E7001DA
:100B1000A19EF00CB09EF00C1124EF2CFF242E1996
:100B20003F092C9D80012D9D100D3C9D100D112421
:100B3000212F6230710591F048F461157105E1F0E3
:100B400061307105B9F4242F4B2F16C06430710544
:100B500069F040F06630710579F00CC0242F492F00
:100B6000E12F0AC0492FEF2F2B2F06C0292FE42F8A
:100B7000412F02C0292FEB2F49832883EA83DF917D
:100B8000CF911F910F91FF90EF90DF90CF90BF908A
:100B9000AF900895CF93DF9300D01F92CDB7DEB70B
:100BA0009091000290FF0AC09E012F5F3F4F0E946C
:100BB00034054B8169818A810E94BB040F900F909C
:100BC0000F90DF91CF910895AF92BF92CF92DF92B5
:100BD000EF92FF920F931F93CF93DF9300D01F925A
:100BE000CDB7DEB7182FF62E042FE22E909100021B
:100BF00090FF7EC0E92FE695AE2FB0E0A85CBE4F17
:100C00008C918093E4019E7F923061F49E012F5F6E
:100C10003F4F812F0E9434054B8169818A810E9458
:100C2000BB0443C0823019F4009103023EC08630F9
:100C300019F41091010239C08930D9F38931A9F52D
:100C4000E9518E2F8170D82EE695F0E0E65EFD4FDB
:100C5000A590B490C12CBB2460910801C61618F56C
:100C60002C2D30E0A29EC001A39E900DB29E900D4F
:100C7000112470E00E940A30812FD11002C0860F2B
:100C800001C0861B90910601290F311DA901440F57
:100C9000551F240F351F26573D4F402F6F2D0E94A3
:100CA0003405C394D9CF0E946F04809101021813B8
:100CB00008C080910202F81204C080910302081754
:100CC00029F08091E60182608093E6011093010291
:100CD000F092020200930302EE2051F060910002B4
:100CE0007091010280910202909103020E94E90436
:100CF0000F900F900F90DF91CF911F910F91FF9068
:100D0000EF90DF90CF90BF90AF900895E0E0F2E0D9
:100D1000438121E1421B08F440E021E062818181AE
:100D20000C94E405E0E0F2E0438121E1420F08F495
:100D30004FEF21E0628181810C94E405E0E0F2E074
:100D4000628121E1621B08F460E021E0438181813E
:100D50000C94E405E0E0F2E0628121E1620F08F426
:100D60006FEF21E0438181810C94E405E0E0F2E043
:100D7000818121E04381628188500C94E405E0E0A8
:100D8000F2E0818121E043816281885F0C94E40577
:100D90000E94191B2091F001211104C02091F10142
:100DA000222321F09093ED018093EC012091F20138
:100DB000211104C02091F301222321F09093E90135
:100DC0008093E801E091D801F091D901309749F082
:100DD00082E08093EE010480F581E02D8EEE91E0BB
:100DE00009940895803F39F49091F10197FF35C03F
:100DF0001092F10159C0813F29F49091F101191627
:100E0000BCF32BC09091F001823F29F497FF25C0DD
:100E10001092F00149C0833F19F41916CCF31DC09C
:100E20009091F201893F29F41916BCF41092F20155
:100E30003BC08A3F19F497FF10C0F8CF8B3F39F4BD
:100E40009091F30197FF09C01092F3012DC08C3FE0
:100E500021F49091F3011916BCF39CE0980F9530A2
:100E600080F421E030E0A90102C0440F551F9A959B
:100E7000E2F7CA0180959091EF0189238093EF01F9
:100E800013C08D3F21F4809119028E7F0BC08E3FDD
:100E900021F4809119028D7F05C08F3F29F4809144
:100EA00019028B7F809319028091F001811106C095
:100EB0008091F101811102C01092EB018091F20149
:100EC000811106C08091F301811102C01092E701E7
:100ED00008958091190280FF08C06091250170E09B
:100EE000759567957595679521C081FF06C06091DE
:100EF000250170E07595679519C082FF04C0609167
:100F0000250170E010C09091E701992399F060915C
:100F100024019617A0F780912501899FC001112413
:100F200070E00E941E306038710540F46115710553
:100F300019F406C061E070E0862F08958FE70895E8
:100F400081E008958091190280FF0BC06091270114
:100F500085E0689FB0011124759567957595679533
:100F60002BC081FF09C06091270185E0689FB00117
:100F700011247595679520C082FF07C060912701F5
:100F800085E0689FB001112417C09091EB0199236F
:100F9000D1F060912601961788F72091270185E00E
:100FA000289F90011124929FA001939F500D11241E
:100FB00070E0CA010E941E306038710540F461156E
:100FC000710519F406C065E070E0862F08958FE77B
:100FD000089581E00895803F21F40E94A207819541
:100FE00004C0813F29F40E94A2078093F101089573
:100FF000823F21F40E94A207819504C0833F29F417
:101000000E94A2078093F0010895893F19F40E947D
:10101000690705C08A3F31F40E9469078195809372
:10102000F20108958B3F21F40E946907819504C065
:101030008C3F29F40E9469078093F30108959CE096
:10104000980F953078F421E030E0A90102C0440FF8
:10105000551F9A95E2F7CA019091EF01892B809371
:10106000EF0108958D3F21F48091190281600BC03A
:101070008E3F21F480911902826005C08F3F29F4D0
:10108000809119028460809319020895833011F1D0
:1010900028F4813049F0823091F00895853081F153
:1010A00020F18630C1F108958091EA01681720F49B
:1010B000861B8093EA0108951092EA0108958091B9
:1010C0000A01681720F4861B80930A010895109284
:1010D0000A01089580912701681720F4861B8093E8
:1010E000270108951092270108958091260168171D
:1010F00020F4861B809326010895109226010895FE
:1011000080912501681720F4861B8093250108959E
:1011100010922501089580912401681720F4861B00
:10112000809324010895109224010895833081F161
:1011300028F4813059F08230D1F00895853009F4D7
:1011400049C0B8F1863009F456C008958091EA018B
:10115000262F30E0280F311D2F3F310524F4680F72
:101160006093EA0108958FEF8093EA0108958091DA
:101170000A01262F30E0280F311D2F3F310524F4BE
:10118000680F60930A0108958FEF80930A01089514
:1011900080912701262F30E0280F311D2F3F310588
:1011A00024F4680F6093270108958FEF809327013F
:1011B000089580912601262F30E0280F311D2F3F02
:1011C000310524F4680F6093260108958FEF809312
:1011D0002601089580912501262F30E0280F311D2A
:1011E0002F3F310524F4680F6093250108958FEF98
:1011F00080932501089580912401262F30E0280F47
:10120000311D2F3F310524F4680F609324010895A8
:101210008FEF8093240108958B3109F474C058F541
:101220008B3009F492C078F4863009F446C020F47B
:10123000853009F44CC08BC0873009F456C0883023
:1012400009F483C084C0803109F470C068F48E3022
:1012500009F07DC08091F50182FB222720F991E001
:10126000922790FB82F958C0863109F46EC089310B
:1012700009F46BC06CC08A32E9F060F4873209F47B
:1012800061C028F48E3108F462C08D515CC089328F
:10129000F1F05DC0833450F48A3308F051C08533D7
:1012A00009F450C0883309F450C051C0833409F4A4
:1012B00049C04DC00E948F1B48C08091F501817FBD
:1012C0008E7F8093F50181E080930C0308950E9446
:1012D000E31F2FEF84E39CE0215080409040E1F732
:1012E00000C000000E948F1A30C08091F501982F35
:1012F0009095917090FB80F98093F501911125C034
:10130000897F877F10C08091F50181FB222720F91A
:1013100091E0922790FB81F98093F5019923A9F040
:101320008091F50181608093F5010FC08091F501F6
:1013300083FB222720F991E0922790FB83F9ECCFE1
:10134000895301C080E00E943F0481E0089580E05D
:1013500008958091C401811118C08091D8008061E6
:101360008093D8008AE18A95F1F700C08091D90076
:1013700080FD02C082E001C081E08093C401823020
:1013800021F40E9488281092FD0281E09091C4010E
:10139000913009F080E00895F894E82FE295EF701D
:1013A000F0E031A1282F2F7081E090E001C0880F7C
:1013B0002A95EAF7982F9095932391A392A1892BD0
:1013C00082A3789408958F929F92AF92BF92CF920A
:1013D000DF92EF92FF920F931F93CF93DF9300D092
:1013E00000D01F92CDB7DEB703E611E08BECC82E1C
:1013F00081E0D82E4601F12CAA24A394B12CB80187
:10140000D8018C91F894E82FE295EF70F0E021A1DB
:101410008F70A50102C0440F551F8A95E2F7CA01DB
:10142000922F982B91A392A18095892382A37894DF
:1014300000C0EDE6F1E020E030E0E12C4191842FA6
:1014400082958F7090E0DC0190968C9190E04F70C7
:1014500002C0959587954A95E2F780FD07C08A2DD1
:10146000022E01C0880F0A94EAF701C080E0E82A42
:101470002F5F3F4F2630310509F70F5F1F4FFB01EC
:1014800080810E94CC09F0EAFA95F1F7D4018C91A1
:10149000E81619F0EC9281E001C080E0F82ABFEF75
:1014A0008B1A9B0AE1E008361E0709F0A8CF1091BD
:1014B000D601FF2049F081E08093C2010E94191BF0
:1014C0009093C1018093C0018091C2018823B9F03B
:1014D0008091C0019091C1010E94C61A069778F0D0
:1014E000E12FF0E0EB5FFD4FD6018D916D0181930F
:1014F000B0EDCB16B1E0DB06B9F71092C2010E9445
:10150000A9096091D6018823E9F18E010F5F1F4F71
:1015100085E0F80111928A95E9F7862F90E0B801ED
:101520008B5F9D4F0E94D82C811115C08091C30103
:101530008F5F8093C301863078F1E091D501F0E0B0
:10154000EB5FFD4F80E090E01192019685309105B0
:10155000D9F781E022C01092C301E091D501F0E0FB
:10156000EB5FFD4FD8019E012A5F3F4F80E09D91C8
:101570004081491711F0908381E03196A217B3079B
:10158000B1F70BC070E06B5F7D4F8091D50190E0AB
:101590008B5F9D4F0E94062D80E0FF2011F081E0BF
:1015A00090E00F900F900F900F900F90DF91CF91E0
:1015B0001F910F91FF90EF90DF90CF90BF90AF9071
:1015C0009F908F900895CF93DF930E940D25EC019B
:1015D0008238910559F1A0F48133910509F473C063
:1015E00040F48932910509F467C08A9709F472C002
:1015F00084C08533910509F458C0C997B9F07DC0FE
:10160000833E910571F138F4803E9105B1F0823E40
:10161000910511F172C0863E9105B9F1873E9105A1
:10162000C9F1843E910509F068C024C08091C901C8
:1016300080FD5DC081FD5BC060C08091C90180FDFF
:1016400050C08091CA0180FF49C18091C90184FDC9
:1016500043C1C3EED0E042C18091C90182FF3EC1C7
:10166000F4CF8091C90182FD3FC08091CA0180FD05
:101670003EC0EBCF8091CA0181FF30C18091C9018A
:1016800084FD2AC1C7EED0E029C18091C90183FF42
:1016900025C1F4CF8091C90183FD2CC08091CA017E
:1016A00081FFECCFC4EED0E019C18091C90185FF64
:1016B00015C1C9E2D0E012C18091C90185FF0EC1F8
:1016C000C5E3D0E00BC18091C90186FF07C1CAE222
:1016D000D0E004C18091C90186FF00C1C1E3D0E020
:1016E000FDC0C9E3D0E0FAC0C2EED0E0F7C0C0EE62
:1016F000D0E0F4C0C6EED0E0F1C0C11581E5D80756
:1017000008F066C0C11520E5D207E0F0CE0174E014
:10171000969587957A95E1F783709C2F937021E0D9
:1017200030E002C0220F331F9A95E2F73C68382B55
:10173000CF70C695C69540E2C49FE0011124C22B2C
:10174000D32BCCC0C83ED10560F5C03ED10508F012
:10175000C5C0C83AD105B0F4C53AD10540F0C55A64
:10176000D0E0C457DE4FC881D0E0D064B7C0C130EC
:10177000D10509F4B3C008F4AFC0C430D10508F4F2
:10178000ABC0ACC0CF3BD10508F0A6C0C85AD0E072
:10179000CC0FDD1FC157DE4F0990D881C02DD46416
:1017A0009DC0C11540E2D40758F4C11581E0D807A7
:1017B00008F094C0C03FD10508F48EC0D0658EC03B
:1017C000C11520E4D20708F487C0DF70D06A86C054
:1017D000C11545E5D40708F042C0C11584E5D80716
:1017E00028F0DC2FCC27C46FD06A78C0C11523E560
:1017F000D207B0F0CE018370992721E030E002C01B
:10180000220F331F8A95E2F78C2F8695869540E24A
:10181000849FC0011124E901C82BD92BDA685EC06E
:10182000C11542E5D40728F4DC2FCC27C16FD06A5C
:1018300055C0CE018370992721E030E002C0220F0D
:10184000331F8A95E2F78C2F8695869540E2849F18
:10185000C0011124E901C82BD92BDC683FC0C11598
:1018600089E5D807B8F4C11528E5D20728F0DC2FA0
:10187000CC27C06FD06A32C0C11546E5D40760F5E9
:101880008C2F0E94FC038F71C82FD0E0DC2FCC2757
:10189000D06224C0C1158AE5D80780F48C2F8F70E0
:1018A0000E94FC0394E0D695C7959A95E1F7CF7016
:1018B000D0E0DC2FCC27D069C82B10C0CE019056C9
:1018C0008115904248F48D2F8F710E94FC03DD2713
:1018D000D0628F71D82B02C0C0E0D0E0CE01DF9182
:1018E000CF910895E0E0F2E080818E7F80830E94B6
:1018F0003225E4EEF1E08281816082832FEF80E780
:1019000092E0215080409040E1F700C000000C942C
:101910006F049091000290FF3BC09170811102C052
:10192000926006C08B3210F0946502C0880F982B2D
:10193000909300028091E60181608093E601662326
:1019400051F0609100027091010280910202909129
:1019500003020E94E90460910002669570E04BE08A
:1019600050E085E191E00E944E30892B19F00E94F1
:10197000322502C00E94392581E08093E10120E0F8
:101980004091030260910202809101020C94E405EF
:1019900008951F93CF93DF93EC01162F8F8180FF63
:1019A0000FC0888180FF0AC080910002816080930F
:1019B0000002888186950E94890C02C00E94720CE8
:1019C0008F8181FF06C0212F4B816A8189810E940E
:1019D000E4058F8182FF08C08E81882319F00E9460
:1019E000392502C00E9432258F8183FF03C081E028
:1019F0008093E101DF91CF911F91089580910002C2
:101A00008695815009F48AE261E00C94890C8091FA
:101A1000000286958F5F8B3208F081E061E00C94C4
:101A2000890CCF93DF93CDB7DEB7AA970FB6F894A2
:101A3000DEBF0FBECDBF84B7877F84BF0FB6F894DB
:101A4000A89580916000886180936000109260008A
:101A50000FBE90E080E80FB6F894809361009093F9
:101A600061000FBE85B7806885BF85B7806885BF78
:101A700088EE99E19093BF018093BE010E9488286F
:101A80000E94A7288091E20084608093E20078940D
:101A90008091FD028823A1F01091E9001F709091C0
:101AA000EC00892F817090FD80E8182B1092E900DE
:101AB0008091E80083FD0E9472251F701093E90059
:101AC00082E084BD93E095BD9AEF97BD80936E0050
:101AD0001092C5011092C6011092C7011092C80160
:101AE0008EE090E00E94452F91E0811101C090E0CE
:101AF0009093090180910901882321F0109204013B
:101B000086E003C086E080930401809305010E9473
:101B1000A90981110E94AF2C8091090180910901CE
:101B2000882311F090E001C095E09093D60185E004
:101B3000891B8093D50187EF0E94CC0981E30E9425
:101B4000CC0983E30E94CC0982E30E94CC0986E39E
:101B50000E94CC090DE611E083E7E82E81E0F82E23
:101B6000F80181918F010E94CC09E016F106C1F7BE
:101B7000EBECF1E085ED91E0A5E0B2E011921D9271
:101B80008E179F07D9F780E090E00E94532F8A3E7E
:101B90009E4F11F00E948F1B82E090E00E94452F23
:101BA0008093F5010E947E1B9093CA018093C90126
:101BB0000E94E3098FE39CE90197F1F700C0000060
:101BC0000E94E3098091050280FF17C06FEF83E256
:101BD00090E00E94592F6FEF84E290E00E94592F0D
:101BE0006FEF85E290E00E94592F6FEF7FEF80E06A
:101BF00090E00E94772F0E948F1A83E090E00E946D
:101C0000452F682F70E080E090E00E94A01D0E94A8
:101C1000A909811102C00E94B52C83E290E00E94C4
:101C2000452F813281F484E290E00E94452F873075
:101C300051F485E290E00E94452F91E0843109F053
:101C400090E0892F01C080E080FF82C48091D7019D
:101C500081113BC080E090E00E94532F8A3E9E4F4E
:101C600021F00E948F1B0E941D0588E090E00E94D9
:101C70004D2F6093000270930102809302029093B3
:101C800003028091E60183608093E6016E7F71F428
:101C90000E941D0588E090E00E944D2F6093000295
:101CA0007093010280930202909303020E94D60473
:101CB0000E9432258091000280FF04C060E086957A
:101CC0000E94890C81E08093D7018BE091E0909392
:101CD000D9018093D801A8E14A2E512CB0E43B2EC3
:101CE0001FE0612E12E0712E9E012F5F3F4F7901A0
:101CF0005E013DE0A30EB11C8091FD02853009F02C
:101D00003FC000E112E18091FD02853009F034C04E
:101D10008091FD02843009F11092DA010FB6F89437
:101D2000A895409260000FBE3092600083B7817F1B
:101D3000846083BF83B7816083BF7894889583B7BD
:101D40008E7F83BF0FB6F894A8958091600088615C
:101D500080936000109260000FBE8091FC02882387
:101D600091F20E94E309E5E0F2E081918111D1C393
:101D70006E167F06D1F7C7CF0E94E31F0E9424246E
:101D80000E94E30981110E94D51AA6EFB1E0E5E0B7
:101D9000F2E000E010E0802E91908D91892549F1CC
:101DA000C12CDD24D394982F9D21F1F00E94A90924
:101DB000882399F0C9A28AA29D2081E009F480E0DD
:101DC0008BA30E94191B8160782F9DA38CA349A12E
:101DD0005AA16BA18DA10E945A23F801EA50FE4F2F
:101DE0008081D826D0821AC0C394DD0C46E0C4128C
:101DF000DACF0F5F1F4F0A30110569F68FEF8EA300
:101E00008FA318A60E94191B8160782F9AA789A713
:101E10004EA15FA168A58AA50E945A238091E50181
:101E2000882309F4CFC08091E401E0910002E69597
:101E3000E81BE093E001823059F4F0E0E05DFD4FF3
:101E4000E4910E2F10E0F6E4CF2EF3E2DF2E6BC00C
:101E5000863059F4F0E0E35DFD4FE4910E2F10E081
:101E6000E6E3CE2EE3E2DE2E5EC0893061F4E69535
:101E7000F0E0E65DFD4FE4910E2F10E07BEBC72E06
:101E800072E2D72E50C08F3061F4E695F0E0E95D44
:101E9000FD4FE4910E2F10E06EE1C62E62E2D62EC9
:101EA00042C0853159F4F0E0EC5DFD4FE4910E2F16
:101EB00010E058E9C52E51E2D52E35C08831F9F031
:101EC000833249F4E2E2F2E00591149146EFC42E28
:101ED00042E2D42E28C08432C9F08532F1F48E2F2C
:101EE00063E00E94F02FE92FF0E0E15EFD4FE49106
:101EF0000E2F10E03FEEC32E3FE1D32E14C008E2B8
:101F000010E025E0C22E21E2D22E0DC004EF11E038
:101F100096ECC92E90E2D92E06C000ED17E08EEEA9
:101F2000C82E8FE1D82E8091E101882361F01092B4
:101F3000E1010E94251B9093DF018093DE01109246
:101F4000E3011092E2010E94251BE091DE01F09175
:101F5000DF019C012E1B3F0B2F3F3F4798F520913F
:101F6000DD012223B1F01092DD012091DB013091DF
:101F7000DC01821B930B8F3F9F4758F4205D3A484A
:101F80003093DC012093DB018091E601886080932F
:101F9000E6018090E2019090E3010E0F1F1F109365
:101FA000DF010093DE018EED91E0F601099580914D
:101FB000E2019091E301892B29F4892819F081E04D
:101FC0008093DD0186E0EEEEF1E0D70101900D9205
:101FD0008A95E1F7C090F001D090F1010091F201F3
:101FE0001091F3011092F0011092F1011092F201A0
:101FF0001092F301C11003C0DD2009F45DC080918F
:10200000EC019091ED010E94C61AAC019091EB0198
:10201000992339F020910A0130E02417350758F050
:102020004BC02091EA01FAE02F9F90011124241760
:10203000350718F041C09F3F19F09F5F9093EB0167
:10204000CC2061F00E94A2071C1414F491E001C09E
:102050009FEF899F802D11248093F001DD2061F096
:102060000E94A2071D1414F491E001C09FEF899F04
:10207000802D11248093F1013091F0013323E1F0A0
:102080002091F1012223C1F045EB3403C00111245A
:10209000992319F09093F00103C081E08093F0013F
:1020A00035EB2303C0011124992319F09093F1011A
:1020B00003C081E08093F101011103C0112309F4F1
:1020C00051C08091E8019091E9010E94C61A9C01DB
:1020D0009091E701992309F454C22536310508F49B
:1020E00041C09F3F19F09F5F9093E701002361F08B
:1020F0000E946907101614F491E001C09FEF899FB8
:10210000802D11248093F201112361F00E94690750
:10211000111614F491E001C09FEF899F802D1124C6
:102120008093F3013091F2013323E1F02091F30128
:102130002223C1F045EB3403C0011124992319F087
:102140009093F20103C081E08093F20135EB230309
:10215000C0011124992319F09093F30103C081E089
:102160008093F3018091F00181110BC08091F10106
:10217000811107C08091F201811103C08091F301A8
:1021800081110E94C806CB82DC820D831E8386E00B
:10219000F701AEEEB1E001900D928A95E1F70E9451
:1021A00024249091F401891721F00E942424809323
:1021B000F4018091FD02843009F09ECD83E080938C
:1021C000E9008091E80082FF97CD8091E80085FFCB
:1021D0001FC00E94DD29811119C000E210E06701D3
:1021E00008C08091F100F60181936F01015011093F
:1021F00069F08091E80085FDF4CF8091E8008B774D
:102200008093E8000E94DD29882399F391E001C0C2
:1022100090E08091E8008B778093E800992309F49F
:102220006BCDE9818E2F90E0FC013197E331F10510
:1022300008F047C1EA5AFF4F0C9432301A8289E005
:10224000A5C08A81823009F47AC1833051F081308F
:1022500009F037C10E94D51A9B838C837D836E83DE
:1022600032C1FE013396A5E0B2E08D918193EA156B
:10227000FB05D9F728C18A81823009F022C16B8120
:102280007C818D819E810E94383086E290E024C05E
:102290004C816B818A810E94E7249D8357C1CD8048
:1022A000DE80DC24CD24DC248C810B819A81FCE04F
:1022B0000F9F8001112428E7929F000D111D11240A
:1022C000080F111D080F111D6D2DC80187960E9462
:1022D000592F6C2DC80188960E94592FF4C00E9476
:1022E000B324F1C08A818138B1F050F4803809F00C
:1022F000EAC020E04B81609102028091010223C07C
:102300008238E9F0833809F0DEC020E04091030212
:102310006C818B8118C060E08B810E94890C8B815D
:10232000811103C00E94720CCEC0809100028160B6
:102330008093000260E086950E94890CC4C08B8166
:1023400080930402C0C00E94E405BDC08A81813828
:1023500099F030F4803809F0B6C08091030216C0BD
:10236000823891F0833809F0AEC0809101028B83EE
:10237000809102028C83A7C08091000280FF02C07E
:10238000869504C080E002C0809104028B839BC0CC
:10239000609100027091010280910202909103020B
:1023A0000E94E90490C080E14BC081E08A8389EFFC
:1023B000EDCF0A811B811027012710278C80912CDB
:1023C0006701C801895F9D4F96012E193F092815A5
:1023D000390508F078C0093F31E0130728F40E945E
:1023E000452FF601848302C0F60114820F5F1F4F50
:1023F000FFEFCF1ADF0AE5CF0A811B8110270127E3
:1024000010278C80912C6701C801895F9D4F960130
:102410002E193F092815390508F055C0093F21E05C
:10242000120720F4F60164810E94592F0F5F1F4F9D
:10243000FFEFCF1ADF0AE8CF0E94A32444C084E054
:102440008A8341C00A811B811027012710278C80B5
:10245000912C6701C801879696012E193F0928150E
:10246000390588F5003E21E0120728F40E94452F27
:10247000F601848302C0F60114820F5F1F4FFFEF45
:10248000CF1ADF0AE7CF0A811B8110270127102707
:102490008C80912C6701C801879696012E193F09FF
:1024A0002815390580F4003E21E0120720F4F601DA
:1024B00064810E94592F0F5F1F4FFFEFCF1ADF0A71
:1024C000EACF8FEF89838091FD02843009F014CC2C
:1024D0001091E9001F709091EC00892F817090FDA0
:1024E00080E8182B82E08093E9008091E80080FF6B
:1024F0000CC040E050E060E270E0C7010E94102A8A
:102500008091E8008E778093E8001F701093E900B7
:10251000F3CB09BD19BD09B400FEFDCF8091D800F1
:102520008F7D8093D8008091E00082608093E000EE
:102530008091E00081FDFCCF0E94E31FE4CB86E2A6
:1025400090E00E94452F1B821C821D828E83BBCF90
:1025500060E086E290E00E94592F0E94B3240E941E
:10256000A32461E283E290E00E94592F67E084E2B5
:1025700090E00E94592F64E185E290E00E94592F7B
:1025800065CB232B09F0AFCDEDCD3F924F925F92FB
:102590006F927F928F929F92AF92BF92CF92DF9273
:1025A000EF92FF920F931F93CF93DF93CDB7DEB7D8
:1025B00029970FB6F894DEBF0FBECDBFFC01808116
:1025C000918123813481232B31F09F3F31F491E0BD
:1025D0008F3F19F403C091E001C090E090FDDDC68B
:1025E0007F0185E0DE01119601900D928A95E1F759
:1025F000F701228189819A81222349F00E94641C7B
:10260000182F682F89819A810E94071D03C00E949C
:10261000DA1C182F69817A81812F0E940D258C0187
:10262000F7018281882309F4F2C0980122513F45C5
:102630002031310508F019C18FEF93E00E94452F3A
:102640008111EFC0025137E0832E32E0932E002338
:1026500079F08114F4E09F0609F4E3C0C4010E94FC
:10266000452F811101C001501FEF811A910AEFCF50
:102670001E821F8218861986442443942AE0322E33
:1026800084010F5F1F4FC4010E94452F8E831F825C
:10269000882309F4C6C09FEF980F933060F48F83AE
:1026A0004E8222E0820E911CC8010E94452F88872D
:1026B000811102C0B6C048018E010A5F1F4FF801A8
:1026C00020812223E9F2213009F04CC08181813040
:1026D00049F46801F2E0CF0ED11CF80182810E941A
:1026E000DF2B0AC0823051F46801F2E0CF0ED11C1A
:1026F000F80182810E94B82A860186C0833049F49D
:102700006801F2E0CF0ED11CF80182810E94512AAB
:10271000F3CF843019F00F5F1F4F76C0F80122818C
:102720000E5F1F4F80E090E030E0205331092A30E7
:10273000310568F4389EA001399E500D1124C9015D
:10274000840F951F0F5F1F4FF8012081EDCF009779
:1027500009F45AC0EFE9FFE03197F1F700C000003B
:102760000197F5CFE22FF0E0EC59FD4F5490822F06
:1027700086958695869590E0FC01EC5AFD4F649015
:102780002770712C022E02C0759467940A94E2F7A8
:10279000F1E06F227724FC01EC5BFD4FA490B12C9B
:1027A000022E02C0B594A7940A94E2F731E0A32266
:1027B000BB24FC01EC5CFD4FC490D12C02C0D5942D
:1027C000C7942A95E2F781E0C822DD2461147104E0
:1027D00019F081EE0E94B82AA114B10419F086EE16
:1027E0000E94B82A852D0E94DF2BAB2819F086EEB7
:1027F0000E94512A672819F081EE0E94512ACD28A3
:1028000019F08CE20E94DF2B0F5F1F4F58CF003171
:102810003FE5130709F0E8C481E00E943D1D0E94D6
:10282000542580917A02877009F4B7C5F701828137
:10283000882309F4B2C582E029960FB6F894DEBF6A
:102840000FBECDBFDF91CF911F910F91FF90EF9001
:10285000DF90CF90BF90AF909F908F907F906F90C0
:102860005F904F903F900C94621D0031FFE51F0771
:1028700011F481E005C001312FE5120721F482E057
:102880000E947F1DCCCF033FFCE51F0749F406E201
:1028900021EE40EE63EF7CE5C7010E943024C1CFFA
:1028A000043F2CE5120708F049C1083D3CE5130739
:1028B00031F407E225EE45EE68ED7CE5EDCF093D0C
:1028C0009CE5190731F408E221E045EE69ED7CE56D
:1028D000E3CF073DECE51E0731F406E221EE41EEC1
:1028E00067ED7CE5D9CF882309F45DC110920F0212
:1028F00002309CE5190708F440C10631ECE51E07DB
:1029000030F0C8018A5F9C45099708F036C10E94E3
:102910007E1B9093CA018093C9010031FCE51F071B
:1029200009F4C3C008F041C008303CE5130709F4BE
:102930009AC0F0F404309CE5190709F487C068F4E4
:102940000230FCE51F0709F477C003301C4509F08D
:10295000E5C08091C901826076C006303CE513076E
:1029600009F46EC008F07BC08091C90188606BC01B
:102970000C309CE5190709F485C068F40A30FCE5C1
:102980001F0709F474C008F079C00E94E31F80910A
:10299000C901806858C00E303CE5130709F476C0C1
:1029A00008F07FC08091C9018BC00B3F9CE51907DF
:1029B00009F44FC018F50331FCE51F0709F47DC089
:1029C00078F401313CE5130709F473C002311C456A
:1029D00009F0A4C00E94E31F8091C9018F7733C022
:1029E00005319CE5190709F472C008F486C00A3F56
:1029F0001C4509F093C08091CA013EC00F3F2CE5F1
:102A0000120709F45FC058F40D3F8CE5180709F46C
:102A100044C008F43FC08091CA0182602DC00130DB
:102A2000EDE51E0709F475C008F45DC002301D45D0
:102A300009F074C060E06EC08091C901816003C07C
:102A40008091C90180618093C90168C08091C901EA
:102A500011C08091CA0182608093CA015FC08091D9
:102A6000C9018062F0CF8091C9018064ECCF809170
:102A7000C90188608460E7CF8160EECF8091C90191
:102A80008E7FE1CF8091C9018D7FDDCF8091C9011B
:102A9000877FD9CF8091CA0118C08091CA018D7FEC
:102AA000DBCF8091C9018F7ECECF8091C9018F7D10
:102AB000CACF8091C9018F7BC6CF8091C901877F22
:102AC0008B7FC1CF8091CA018D7F8E7FC5CF8091D2
:102AD000C90182FB222720F991E0922790FB82F91D
:102AE00090FB83F9B0CF8091CA01982F9095917097
:102AF0008E7F892B90FB81F9AFCF0E94E31F8091DD
:102B0000C90187FB222720F991E0922790FB87F9E2
:102B10009ACF61E08EE090E00E94592F6091C90148
:102B20001091CA0184E090E00E94592F612F82E247
:102B300090E00E94592F0E94E31F73CE053FFCE5F1
:102B40001F0731F406E221EE42EE65EF7CE5A4CEEC
:102B5000053F2CE5120730F407E225EE44EE64EF62
:102B60007CE59ACE063F3CE5130709F0BCCE07E2B0
:102B700025EE46EE66EF7CE58FCE06318CE5180734
:102B800021F580917D028A7A91E009F490E090939A
:102B90001002882311F065E301C069E281E192E04F
:102BA0000E94641B0FC00631ECE51E0709F040C00F
:102BB00080911002882309F41EC365E381E192E04D
:102BC0000E94571B0E94001C2CCE0A353DE51307BE
:102BD00049F158F401159CE51907B1F00E3D1C456B
:102BE00009F042C00E948F1B1CCE0B35FDE51F076C
:102BF000D9F00C351D45C1F58091CA0182FB8827AB
:102C000080F991E0892711C00E94E31F3FEF84E320
:102C10009CE0315080409040E1F700C000000E94ED
:102C20008F1AFFCD81E001C080E00E944A1C1CC0C9
:102C300080917D0282720C3C3CE5130709F48CC341
:102C400008F00BC3063CECE51E0709F471C308F05D
:102C5000E2C2033C2CE5120709F460C308F0CDC2C0
:102C6000023C1C4509F430C3F701828100811181C7
:102C7000882349F0C8010E94641CD82E682FC8011F
:102C80000E94071D04C0C8010E94DA1CD82EB8019A
:102C90008D2D0E94E30A8C01982EF701D280A58029
:102CA000A2949FE0A92280917A02877099F0DD209A
:102CB00089F0812F807F803421F080E2800F88307E
:102CC00048F082E00E94621D80917A028770CC24D5
:102CD000C3948111C12CB12EB2948FE0B8228B2DF8
:102CE00090E08C30910508F04AC2FC01E759FF4F93
:102CF0000C943230812F807F1F70882311F0129541
:102D0000107FDD20B9F0112309F424C280E2800F86
:102D1000883010F0911006C080917D02182B10931E
:102D20007D0205C080917C02182B10937C020E94CA
:102D3000001C10C2802F0E94512A112309F41FC2C7
:102D4000005E1095083010F0911006C080917D0251
:102D5000182310937D0205C080917C0218231093E4
:102D60007C020E94001C0BC2812F807F1F7080326A
:102D700011F01295107F992021F0F1E09F1611F1CA
:102D800030C0DD20B1F0AA2081F001E0A0120DC01A
:102D90008091CA0182FDF3C180917E02182B181721
:102DA00009F4EDC110937E02EAC180917E02812B6D
:102DB00010C0AA2021F021E0A21609F4E0C10E946F
:102DC000FA1B27C0DD2041F035E03A1508F4D7C1E1
:102DD000812F0E94472AD3C184E08A1508F4CFC10D
:102DE00018C0DD2049F0AA2099F3F701858180FF02
:102DF000B1C18F708583ECCFAA2059F0093309F057
:102E0000BBC1FFEF17EE23E0F15010402040E1F787
:102E1000B1C1812F0E943C2AB2C1812F869586952F
:102E2000837019F0813059F0AAC1DD2019F0C80172
:102E3000937002C080E090E00E940E24A6C1DD20C5
:102E400019F0C801937002C080E090E00E94F8235E
:102E50009CC1802FDD2019F00E94EB0702C00E9468
:102E6000F2060E94C80691C1812F837009F069C0E3
:102E7000D11089C1902F929596959770990F990FBF
:102E8000802F8F70882E912CA12CB12C092E04C07C
:102E9000880C991CAA1CBB1C0A94D2F704FF12C010
:102EA0004FE050E060E070E004C0440F551F661F23
:102EB000771F9A95D2F7DB01CA0180959095A0956E
:102EC000B09503C080E090E0DC0116951695412F87
:102ED0004370423019F1C8F400917F0210918002D2
:102EE0002091810230918202413059F0882999293C
:102EF000AA29BB29BC01CD0160237123822393231E
:102F00000AC0802A912AA22AB32ABC01CD016829CD
:102F100079298A299B290E94A01D35C188299929D0
:102F2000AA29BB2900917F02109180022091810281
:102F300030918202BC01CD0160277127822793273F
:102F4000EACFDD2019F0812F817001C0869588239A
:102F500009F419C1902F929596959770990F990F32
:102F6000802F8F70882E912CA12CB12C092E04C09B
:102F7000880C991CAA1CBB1C0A94D2F704FF12C02F
:102F80004FE050E060E070E004C0440F551F661F42
:102F9000771F9A95D2F7DB01CA0180959095A0958D
:102FA000B09503C080E090E0DC0116951695412FA6
:102FB00043704230D9F068F500910703109108037F
:102FC0002091090330910A03413059F08829992949
:102FD000AA29BB29BC01CD0160237123822393233D
:102FE0001EC0802A912AA22AB32A13C088299929AF
:102FF000AA29BB2900910703109108032091090316
:1030000030910A03BC01CD016027712782279327E5
:1030100006C0BC01CD01682979298A299B290E9413
:10302000331DB1C01F70DD2039F0812F0E947F1D3C
:10303000802F0E94472AA7C0802F0E943C2A812F00
:103040000E943D1DA0C0802F32EF931609F440C0AE
:10305000391538F090EF991661F0E1EF9E1699F16D
:1030600074C0F3EF9F16D9F124EF921609F44EC005
:103070006CC0DD2019F134E03A1508F480C01F71EE
:1030800081E090E0A0E0B0E0AC01BD0104C0440FDD
:10309000551F661F771F1A95D2F7809107039091ED
:1030A0000803A0910903B0910A038A019B01082734
:1030B00019272A273B27C901B80125C025E02A1571
:1030C00008F45DC0DCCFDD2029F0812F8F7130C086
:1030D000DD20D9F3812F8F710E943D1D50C0DD206E
:1030E00079F01F7181E090E0A0E0B0E0BC01CD017B
:1030F00004C0660F771F881F991F1A95D2F703C067
:1031000060E070E0CB010E94331D39C0DD2099F0F2
:103110001F71812F0E947F1D8091CA0182FD07C00F
:1031200038E0139FC0011124836080937A02812FBD
:103130000E947F1D24C081E00E94621D81E08A15EB
:10314000F0F482E00E94621D1AC0DD2039F0AA204E
:1031500009F4BBCF802F0E94B82A11C0AA2009F41D
:10316000B9CF893349F49FEFE7EEF3E09150E040A7
:10317000F040E1F700C00000802F0E94512A88EF44
:103180008B0D843010F40E942424CC2009F405C156
:1031900080917A0280FD01C1F701128285958595A3
:1031A00085950E947F1DC7010E94C51280917A02F9
:1031B00085958595859529960FB6F894DEBF0FBE47
:1031C000CDBFDF91CF911F910F91FF90EF90DF90D6
:1031D000CF90BF90AF909F908F907F906F905F90B7
:1031E0004F903F900C943D1D01319FE5190709F068
:1031F0004ACB82E012CB69E2E1CC043C9CE51907A2
:1032000009F491C0053C1C4509F02ECD46EB56E073
:103210006FEB76E0A5C0093CFCE51F0709F492C0FE
:1032200070F4073C3CE5130709F487C0083C1C45D3
:1032300009F01ACD4AEA56E06EE976E091C00A3C00
:10324000ECE51E0709F483C00B3C1C4509F00CCDCE
:103250004BEF54E06CE075E083C0013D2CE51207B4
:1032600009F48AC098F40E3C8CE5180709F47EC076
:1032700008F479C00F3CECE51E0709F47AC0003D64
:103280001C4509F0F1CC6EE089E084C0043D2CE5DA
:10329000120709F477C060F4023D8CE5180709F4C1
:1032A0006EC0033D1C4509F0DFCC61E088E16FC0D2
:1032B000053DECE51E0709F468C00D351D4509F014
:1032C000D3CC6AE285E266C08091000280FF20C014
:1032D0008E7F8093000260910002709101028091C4
:1032E0000202909103020E94E9040E94322580911B
:1032F000E60181608093E6010FEF10E722E00150C4
:1033000010402040E1F700C000000E946F0489CA0D
:1033100081608093000261E0869539C04EEF5CE0E9
:1033200067E07DE01DC047E05DE06EEF7CE018C027
:103330004FEB56E066EB76E013C04EE956E06AEAE2
:1033400076E00EC046E856E062E976E009C042E960
:1033500056E066E876E004C04CE055E06BEF74E0C0
:103360000E942C255ECA61E081E011C065E082E028
:1033700011C068E086E00EC064E18FE00BC067E139
:1033800085E108C062E289E105C061E083E20E9454
:10339000890C47CA0E941A2544CA29960FB6F89488
:1033A000DEBF0FBECDBFDF91CF911F910F91FF9078
:1033B000EF90DF90CF90BF90AF909F908F907F90D5
:1033C0006F905F904F903F9008958091F202089522
:1033D00080E00895209151029091200256E0291733
:1033E000A9F030E0529FF001539FF00D1124EF5DE2
:1033F000FD4F7181761306C07081781303C072810E
:10340000741306C02F5F3F4F2770E9CF80E0089507
:1034100081E00895CF93DF9300D01F92CDB7DEB740
:103420009091FD02943011F589837B836A83909398
:10343000E9008FEF9091E800815095FD06C095ED71
:103440009A95F1F700008111F5CF8091E80085FF92
:103450000DC040E050E063E070E0CE0101960E94B4
:10346000102A8091E8008E778093E8000F900F90EB
:103470000F90DF91CF910895BC0184E00C940A1A5B
:10348000BC0183E00C940A1A24E02093E9002FEF9A
:103490003091E800215035FD06C035ED3A95F1F741
:1034A00000002111F5CF2091E80025FF0BC040E07E
:1034B00050E066E070E00E94102A8091E8008E776C
:1034C0008093E8000895CF93DF9321E02093E900F3
:1034D0002FEF3091E800215035FD06C035ED3A95CB
:1034E000F1F700002111F5CF2091E80025FF14C06D
:1034F000EC0140E050E068E070E00E94102A80910A
:10350000E8008E778093E80088E0FE01A3EFB2E048
:1035100001900D928A95E1F7DF91CF91089587E7A9
:1035200097E790930108809300089AE088E10FB62E
:10353000F894A895809360000FBE90936000FFCF31
:1035400078941F920F920FB60F9211248F939F932E
:10355000AF93BF938091830290918402A0918502E2
:10356000B09186020196A11DB11D809383029093B4
:103570008402A0938502B0938602BF91AF919F9180
:103580008F910F900FBE0F901F9018959C014FB711
:10359000F8948091830290918402A0918502B09169
:1035A00086024FBF821B930B08952FB7F89460914A
:1035B00083027091840280918502909186022FBFD0
:1035C00008950F931F930E94A909882321F01F914A
:1035D0000F910C94D51A0E94D51A0091C501109133
:1035E000C6012091C7013091C801600F711F821F71
:1035F000931F1F910F910895CF92DF92EF92FF9248
:103600006B017C010E94A90981110EC00E94D51A8C
:10361000C61AD70AE80AF90AC092C501D092C601B3
:10362000E092C701F092C801FF90EF90DF90CF9039
:1036300008952FB7F8948091830290918402A0910D
:103640008502B09186022FBF08950E94A9098111B9
:103650000C94191B0E94E11ACB0108951F920F923E
:103660000FB60F9211248F939F93AF93BF938091C6
:10367000DA01811113C08091830290918402A0919C
:103680008502B09186024196A11DB11D80938302EF
:1036900090938402A0938502B0938602BF91AF916C
:1036A0009F918F910F900FBE0F901F9018959C01C6
:1036B0002A5F3F4FFC014281461301C012820196EE
:1036C00082179307B9F708959C01FC0132969FEF8A
:1036D00080E04191461789F09F3F19F4411101C0E4
:1036E000982F8F5F8630A9F79F3F39F0F901E90FD6
:1036F000F11D97FDFA95628308950895CF9384E0B4
:1037000090E00E94452FC82F82E290E00E94452F52
:103710002C2F30E0A901582BCA01CF9108956AEEF1
:103720007EEF80E090E00E94772F60E082E090E002
:103730000E94592F60E083E090E00E94592F109280
:103740007F0210928002109281021092820260E049
:1037500084E090E00E94592F60E082E290E00E94B5
:10376000592F60E085E090E00E94592F60E086E0EC
:1037700090E00E94592F6FEF87E090E00E94592F50
:1037800040E050E0BA0188E090E00E946B2F60E0DA
:103790008DE090E00E94592F40E050E0BA0188E1AE
:1037A00090E00E946B2F60E087E190E00E94592F2B
:1037B00040E050E0BA018CE190E00E946B2F60E0A5
:1037C00070E080E290E00E94772F40E050E0BA0184
:1037D00088E190E00E946B2F40E050E0BA018FE05A
:1037E00090E00E946B2F40E050E0BA0183E190E04E
:1037F0000C946B2F80917E02811110927E020895AD
:1038000090917D0280917C02892B20917B02982FE0
:10381000922B9093110280917E02882389F0892B4C
:1038200080931102E3E1F2E097E080E0915029F00B
:1038300021912223D9F38F5FF9CF81110E94FA1BC6
:10384000E091D801F091D901309731F00280F381F5
:10385000E02D81E192E00994089580E090E00E94DB
:103860000E2480E090E00E94F82310927C021092D7
:103870007B020E94001CEEEEF1E086E0DF011D926B
:103880008A95E9F71092EB011092E7011092190264
:103890000C94C806CF93C091CA01C2FB992790F936
:1038A000981781F080FBC2F9C093CA016091C901E9
:1038B00084E090E00E94592F6C2F82E290E0CF913B
:1038C0000C94592FCF910895BF92CF92DF92EF922F
:1038D000FF920F931F93CF93DF938C01C090070348
:1038E000D0900803E0900903F0900A0380917F02D2
:1038F00090918002A0918102B0918202C82AD92AB7
:10390000EA2AFB2ACFE1D0E0D701C6010C2E04C081
:10391000B695A795979587950A94D2F780FD04C030
:10392000219790F7B12C07C0BC2EB8018C2F0E94B4
:10393000E30A0197A9F38B2DDF91CF911F910F918E
:10394000FF90EF90DF90CF90BF900895CF93DF93DB
:10395000EC010E94641CBE010E94E30ADF91CF913A
:1039600008950E94A61C292F2F70E92FE295EF7071
:103970004E2F50E0FA013297EE30F105B8F4EB58D3
:10398000FF4F0C943230803F99F018F4883E70F469
:103990000FC0843F59F40CC0883E50F0813F31F491
:1039A00007C0822F869586958695089580E00895B4
:1039B00081E00895292F220F920F990F890F682F08
:1039C000669566956695982F977085E0689FB0011B
:1039D000112440E050E080E0FB01E40FF51FEE5AB7
:1039E000FD4F208130E0092E02C0369527950A94BC
:1039F000E2F721703327042E01C0220F0A94EAF760
:103A0000822B4F5F5F4F4530510531F70895292FC5
:103A1000220F920F990F890FE82FE695E695E6950C
:103A2000877051E001C0550F8A95EAF785E0E89F5D
:103A3000F0011124EE5AFD4F20E030E070E04081AB
:103A4000CB01022E02C0969587950A94E2F7817009
:103A5000819584278523842781932F5F3F4F2530CD
:103A6000310569F708956093070370930803809305
:103A7000090390930A030C942D1C0F931F9341E0AC
:103A800050E060E070E004C0440F551F661F771FD0
:103A90008A95D2F74095509560957095809107036F
:103AA00090910803A0910903B0910A038A019B0138
:103AB000082319232A233B23C901B8011F910F9121
:103AC0000C94331D20917A028095822380937A0290
:103AD000982F977041F430E0482F082E000C550BBA
:103AE0002417350721F49091CA0192FF07C08595EC
:103AF000859585950E943D1D10927A0208950F9339
:103B00001F9341E050E060E070E004C0440F551F97
:103B1000661F771F8A95D2F780910703909108035B
:103B2000A0910903B0910A038A019B01082B192B6C
:103B30002A2B3B2BC901B8011F910F910C94331D07
:103B400060937F027093800280938102909382023F
:103B50000C942D1C8091510290912002891719F02C
:103B60008F5F8770FBCF08950F931F93CF93DF93E1
:103B700080911F0282958F7009F05DC080911C02B8
:103B8000882309F458C0809151021091200260915D
:103B90001A0270911B02C0911D02D0911E0291E089
:103BA0006F3F09F090E0292F06E0811709F443C028
:103BB000209721F07F3F21F030E003C031E001C0C9
:103BC000322F90E030FD34C0089FF001099FF00DC6
:103BD0001124DF01AF5DBD4F11963C911197371352
:103BE00027C03C91361324C012963C911297311194
:103BF0001FC013964D915C9114974C1B5D0B483C74
:103C00005105B0F480911F028F70806180931F0274
:103C1000EA5DFD4F80818F70806180838AE192E050
:103C20000E94C512DF91CF911F910F910C94AA1D94
:103C300001968770BACFDF91CF911F910F910895B0
:103C40008F929F92AF92BF92CF92DF92EF92FF92AC
:103C50000F931F93CF93DF93CDB7DEB761970FB666
:103C6000F894DEBF0FBECDBF8C0185E0F801DE0108
:103C70001D9601900D928A95E1F7D801DC9011967E
:103C8000EC9011971296CC9090911A0220911B0201
:103C900040911D0250911E024115510531F02F3FF8
:103CA00031F481E09F3F19F403C081E001C080E05E
:103CB00080FD58C1F801A380B4808AE1882E82E09B
:103CC000982EF0901C02B501641B750BFF2009F4BF
:103CD00003C180911F02382F307F683C710508F0C6
:103CE000CDC0311188C02E1112C09D1110C0FC2C06
:103CF000C1100DC08F70806180931F02C4010E94AB
:103D0000C51280911F02D80115968C9348C1A11449
:103D1000B10439F0BFEFEB1206C081E0DB1203C043
:103D200003C081E001C080E080FD03C081E08C25FC
:103D300002C080E090E080FF10C04C2D6E2D8D2DD4
:103D40000E94EA19882349F08AE192E00E94C51294
:103D5000EAE1F2E086E0DF0199C0AB2839F0BFEF7D
:103D6000EB1206C081E0DB1203C003C081E001C09A
:103D700080E080FD03C081E08C2502C080E090E0FF
:103D8000E82FE170BE2E80FF2CC04C2D6E2D8D2DA6
:103D90000E94EA19F82E811124C0DD86EE868D85F9
:103DA0009E850E94A61C292F22952F70223018F084
:103DB000243090F405C09F7059F0811109C0EFC004
:103DC0009F7031F0D80115969C91907F09F4E7C05F
:103DD000805E883008F4E3C0C8010E94C512FB2C45
:103DE000DEC0FC2CCC2009F4DAC080911F02816077
:103DF00080931F024EC02E1106C09D1104C0C11039
:103E000002C0F8018BC0DD86EE868D859E850E94FE
:103E1000B11C882369F1CC2059F120911F02822F17
:103E200082958F7090E0029774F080911A029091C1
:103E30001B0298878F831986BB86AA862C87CE01A2
:103E400007960E94C51286E0F801AAE1B2E001904F
:103E50000D928A95E1F70E94B41D0DC02E15D9F080
:103E6000DD86EE868D859E850E94B11C81111DC068
:103E7000C8010E94C512FF24F39491C03111EECF06
:103E80008AE192E00E94C51286E0D4011D928A95D3
:103E9000E9F7F12C84C09D11E3CFC110E1CFF80107
:103EA0008583C8010E94C51257C0CC2009F3209118
:103EB0001F02822F82958F7090E0029724F28091EA
:103EC0001A0290911B029A8389831B82BD82AC8265
:103ED0002E83CE010196B5CF683C7105E8F5FC2C28
:103EE000CC2031F22E1127C09D1125C020911F0238
:103EF00020FD18C0822F82958F70482F50E0411509
:103F0000510581F0F80125834F30510541F08F5F55
:103F1000982F9295907F822F8F70892B8583C8016F
:103F20000E94C51286E0F801AAE1B2E001900D926C
:103F30008A95E1F734C0DD86EE868D859E850E94E8
:103F4000B11C811180CF80911F02816080931F027C
:103F5000C8010E94C51223C086E0D4011D928A9533
:103F6000E9F71DC0CC2009F483CFDD86EE868D8570
:103F70009E850E94B11CF82E882309F479CF86E033
:103F8000F801AAE1B2E001900D928A95E1F78091E3
:103F90001A0290911B020E94A61C0E94B41D8F2D34
:103FA00061960FB6F894DEBF0FBECDBFDF91CF9103
:103FB0001F910F91FF90EF90DF90CF90BF90AF9047
:103FC0009F908F90089510927D0286E0E3E1F2E0E9
:103FD000DF011D928A95E9F70C942D1C08957F92BC
:103FE0008F929F92AF92BF92CF92DF92EF92FF9209
:103FF0000F931F93CF93DF93FC018280748081E045
:104000008483E4EEF2E09490E3E6F3E0E491A12C03
:10401000F5E0BF2ECC24CA94D12CE9190E2F10E064
:1040200080910801A81608F0A2C0EA2CF12C22E029
:10403000281568F0BE9CF001BF9CF00D1124E255DC
:10404000FD4F809101028083809102028183711073
:104050000AC0BE9CF001BF9CF00D1124E255FD4F3B
:10406000138212826AC0BE9CE001BF9CD00D112455
:10407000C255DD4F8B818823F9F081508B832FEF60
:10408000829FC00111246C8170E00E940A30FB0104
:10409000FF27EC51FD4F8491E82FE9192FEFE29FA4
:1040A000C0011124B8010E940A3080910302689F68
:1040B000B00111247A8341C00E94352F2091030260
:1040C0002695215830E0A901440F551F322F222791
:1040D000240F351F232F33278217930774F582E0AF
:1040E000881588F40E94352FB6010E941E308883FF
:1040F0000E94352F209102022695622F70E00E94C7
:104100001E30280F2983BE9CF001BF9CF00D1124A6
:10411000E255FD4F128280910302843120F0893CE8
:1041200018F088EC01C084E1BE9CF001BF9CF00D4A
:104130001124E255FD4F848383838091060197010A
:10414000280F311DC901880F991F280F391F2657C5
:104150003D4FBE9CF001BF9CF00D1124E255FD4F78
:104160004281618180810E943405A39459CFDF91FF
:10417000CF911F910F91FF90EF90DF90CF90BF9064
:10418000AF909F908F907F900C946F040F931F932C
:10419000CF93DF93EC0100E010E080910801282F1D
:1041A00030E00217130724F5909106019801290FBA
:1041B000311DA901440F551F240F351F26573D4FB0
:1041C000869590E04C81081719071CF4442331F0C0
:1041D00002C0411103C04091030201C040E0609160
:1041E0000202809101020E9434050F5F1F4FD5CF5C
:1041F0000E946F048C8190E00196817099278C83D6
:10420000DF91CF911F910F9108958F929F92AF925E
:10421000BF92CF92DF92EF92FF920F931F93CF93B3
:10422000DF938C01FC014481C42FD0E09E01DE01AC
:104230000E94E12F9B01AC010E94AC2F6B017C011D
:10424000E0E2F0E0EC1BFD0BA5E5B0E09B01AC016A
:104250000E94AC2F4B015C019F01DF010E943F30A7
:104260009B01AC010E94B72F9B01AC012C0D3D1DA1
:104270004E1D5F1DC501B4010E94BF2FC22FD22F5A
:104280002A3228F4F3E02F9F900111240DC025E578
:1042900030E02C1B3109C901880F991F280F391FE5
:1042A00037FF02C02F5F3F4F35952795C22FC0952E
:1042B000F12C85E5E82EED1A80910801F816C8F476
:1042C000F1FC02C08E2D01C08D2F909106012F2D83
:1042D00030E0290F311DA901440F551F240F351F50
:1042E00026573D4F4C2F609102020E943405F394F3
:1042F000E3CF0E946F04F8018481811102C091E034
:1043000003C0803219F49FEF909322019091220113
:10431000890FF8018483DF91CF911F910F91FF9056
:10432000EF90DF90CF90BF90AF909F908F900895C7
:104330001F93CF93DF93EC018C81811109C081E041
:104340008C831092880292E0909321018093200147
:104350008091060190910701891770F4E82FF0E031
:104360009F01220F331FE20FF31FE657FD4F11820B
:10437000108212828F5FF0CF10E060910801161753
:10438000C0F5E12FF0E070E0CF010E941E302091D7
:104390000601820F20918802022E000C330B90E060
:1043A000E217F307CCF020912101022E000C330B11
:1043B0002E173F078CF09C01220F331F820F931F93
:1043C0009C0126573D4F409103026091020280916B
:1043D00001020E9434050BC0FC01EE0FFF1F8E0F7F
:1043E0009F1FFC01E657FD4F1182108212821F5F52
:1043F000C4CF0E946F048091200120918802280F71
:104400002093880290912101980F90932101191611
:104410005CF4022E000C330B4091080150E0415037
:1044200051092417350734F081958093200181309C
:1044300009F41C82DF91CF911F9108958F929F9272
:10444000AF92BF92CF92DF92EF92FF920F931F93A2
:10445000CF93DF93EC018A8180FF03C0BB24BA9421
:1044600002C0BB24B3948C8181110DC081E0B812CD
:1044700006C08091080181508093870202C010928B
:10448000870281E08C83A12C4CE0942E809108015E
:10449000A81608F044C080910601CA2CD12C8601D0
:1044A000080F111DC801880F991F080F191F065703
:1044B0001D4FF80111821082128234E0E32EF12C9C
:1044C000812C80918702880D8D302CF0692D0E94FF
:1044D000FC2F892F05C087FF03C090910801890F29
:1044E000082E000C990BC816D90691F4809103028E
:1044F0008E9DA0018F9D500D112455954795559582
:104500004795980160910202809101020E94340552
:104510008B0CF1E0EF1AF108A1F6A394B7CF0E943B
:104520006F048091870291E0B9120EC0811107C01B
:10453000809108018150809387021C820FC08150B6
:1045400080938702BC820AC090E0019660910801C6
:1045500070E00E941E30809387028C83DF91CF91A0
:104560001F910F91FF90EF90DF90CF90BF90AF9091
:104570009F908F900895FF920F931F93CF93DF9397
:10458000EC01F12C0FEF10E060910801F616F0F449
:10459000809106012F2D30E0280F311DC901880FB1
:1045A000991F280F391F26573D4F70E0C8010E9400
:1045B0001E30962F8C814091030260910202F99E79
:1045C000800D11240E943405F394DECF0E946F0405
:1045D0009A818C8190FF02C08F5F01C081508C83D3
:1045E000DF91CF911F910F91FF9008950F931F932B
:1045F000CF93DF9300D01F92CDB7DEB78C018091AF
:10460000890281110AC09E012F5F3F4F4FEF6FEF6C
:104610000E9434058A8180938902F8018481813067
:1046200051F028F0823061F4409189020AC08091F3
:10463000890240E007C06091890240E080E003C049
:1046400040E080E060E00E94BB04F801848190E0DB
:10465000019663E070E00E941E3084830F900F90FB
:104660000F90DF91CF911F910F910895CF93DF931A
:10467000EC01E0E0F2E0438162818C810E94CA0596
:104680008C818F5F8C83DF91CF910895CF93DF93DF
:10469000EC01EC81F0E0EC51FD4F4491E0E0F2E000
:1046A000628181810E94CA058C818F5F8C83DF913A
:1046B000CF9108951F93CF93DF93CDB7DEB7679760
:1046C0000FB6F894DEBF0FBECDBF342F4B8B252F16
:1046D0005C8B6D8B7E8B8F8B4E895F896111109205
:1046E0007C0286E0FE013D96DF01982F1D929A958F
:1046F000E9F73D872E876F87598B488BDE01179628
:1047000001900D928A95E1F7CE0107960E94201E36
:1047100081113EC086E0FE013796DE0111960190C0
:104720000D928A95E1F7FF81E8856A857B856115A1
:10473000710531F0EF3F31F481E0FF3F19F403C020
:1047400081E001C080E080FD23C02091200230E0A4
:10475000C9010196877099274091510250E0841752
:10476000950779F1F983EA837D836C8396E0929FC4
:10477000D001939FB00D1124AF5DBD4FFE01319666
:1047800001900D929A95E1F7809320020E94AA1D54
:1047900016E080915102909120028917F9F0189F3C
:1047A000C00111248F5D9D4F0E94201E8823B1F00F
:1047B0008091510290E00196877099278093510271
:1047C000E8CF0E94E31F1092200210925102EAE10A
:1047D000F2E086E0DF011D928A95E9F767960FB651
:1047E000F894DEBF0FBECDBFDF91CF911F9108952A
:1047F0002091EE023091EF022817390771F0909363
:10480000EF028093EE02E091D801F091D901309748
:1048100021F00084F185E02D099408952091EC02A7
:104820003091ED022817390771F09093ED028093D3
:10483000EC02E091D801F091D901309721F0068087
:10484000F781E02D09940895E091D801F091D90104
:10485000309721F00190F081E02D099480E00895D7
:104860000F931F93CF93DF93C42FD22FFC0182812C
:104870008823C9F040930F020E94191B9093EB020A
:104880008093EA0280E28C0F883008F057C0C7702E
:1048900081E001C0880FCA95EAF7DF91CF911F919F
:1048A0000F910C94472A80910F02481330C08091D9
:1048B000EA029091EB020E94C61A883C910538F5F5
:1048C00010E21D0FCD17B9F080E28C0F883040F454
:1048D000C77081E001C0880FCA95EAF70E943C2AA0
:1048E000183028F581E09D2F977001C0880F9A95A8
:1048F000EAF70E94472A802F0E94DF2B1830F0F43D
:10490000D77081E001C0880FDA95EAF70AC080E22B
:104910008C0F883098F4C77081E001C0880FCA9569
:10492000EAF7DF91CF911F910F910C943C2A802FD1
:10493000DF91CF911F910F910C94DF2BDF91CF91DD
:104940001F910F910895CF93DF93C7E0D2E060E00D
:10495000CE010E94592F2196C11584E0D807B9F7DE
:10496000DF91CF910895CF92DF92EF92FF920F9354
:104970001F93CF93DF93C0E0D0E08E0108581F4F04
:104980006E018CE0C80ED11CFE01EC51FC4FE5908D
:10499000F4906F2DCE0187960E94592F6E2DCE0177
:1049A00088960E94592F2296CC15DD0569F70C17C1
:1049B0001D0731F7E801003E1140F9F6DF91CF9174
:1049C0001F910F91FF90EF90DF90CF9008950F937C
:1049D0001F93CF93DF93C42FD0E0CC0FDD1F2CE0CB
:1049E000629FC00DD11D112438E7839FC00DD11DDA
:1049F0001124CE0187960E94452F082F10E0102F1A
:104A00000027CE0188960E94452F9801282BC901C6
:104A1000DF91CF911F910F910895462F843038F484
:104A20007A3028F4663018F4672F0C94E72480E07D
:104A300090E008959091000290FF04C09695981719
:104A400040F003C0811105C090E0961710F40C945B
:104A5000070D61E00C94890C882311F0FA0101C064
:104A6000FB010994E4EEF1E011828281846082838B
:104A7000089560910002669570E04BE050E085E19A
:104A800091E00E944E30892B19F481E08093E5017A
:104A90000E94251B9093DF018093DE018091E60147
:104AA00084608093E60108950F931F93809107031C
:104AB00090910803A0910903B0910A038C019D0114
:104AC0000670112722273327BC01CD0106301105BE
:104AD0002105310511F4686001C0677F1F910F91B6
:104AE0000C94331D1F93CF93DF93CDB7DEB7AA97F6
:104AF0000FB6F894DEBF0FBECDBFEFEFF2E08091AE
:104B0000F100819343E0E730F407C9F78091000397
:104B1000833009F462C030F4813071F0823009F4DE
:104B20009CC0B3C08A3009F488C08B3009F46DC0D2
:104B3000893009F0AAC020C08091FF02813A09F0B3
:104B4000A4C08091E800877F8093E80080910303F0
:104B500090910403892B21F468E083EF92E003C075
:104B600060E080E090E070E00E94512C8091E800CD
:104B70008B778093E80089C08091FF02813209F031
:104B800084C08091030390910403009719F0029769
:104B900009F07BC08091E800877F8093E8008091D6
:104BA000E80082FD05C08091FD028111F8CF6DC043
:104BB0002091F3008091F20090E0922B029729F46B
:104BC0008091F1008B7F813021F48091F1008093FE
:104BD000F2028091E8008B7754C08091FF02813A05
:104BE00009F053C08091030390910403892B09F0CD
:104BF0004CC08091E800877F8093E8008091E800B6
:104C000080FFFCCF8091230137C08091FF02813269
:104C1000E1F58091030390910403892BB1F5809114
:104C2000E800877F8093E8000E94FD2B80910103BC
:104C3000809323010E94E31F28C08091FF028132EC
:104C400021F58091E800877F8093E8000E94FD2B8A
:104C5000809102038093F10218C08091FF02813A93
:104C6000A1F48091E800877F8093E8008091E800BC
:104C700080FFFCCF8091F1028093F1008091E800E9
:104C80008E778093E8000E94FD2B8091E80083FFDF
:104C9000DDC18091FF0290910003492F50E04A301E
:104CA000510508F0D3C1FA01ED57FF4F0C94323093
:104CB000803821F0823809F0C9C108C08091FB0218
:104CC0009091FC02992389F082600FC080910303C8
:104CD0008F70873008F0BAC18093E9008091EB00B3
:104CE00085FB882780F91092E9009091E800977F72
:104CF0009093E8008093F1001092F10070C1282F8A
:104D00002D7F09F0A3C1882319F0823061F09EC184
:104D100080910103813009F099C1933009F080E05E
:104D20008093FC022EC08091010381112AC08091E2
:104D300003038F702FEF280F263008F087C1809370
:104D4000E9002091EB0020FF1CC0933021F48091FA
:104D5000EB00806214C09091EB0090619093EB00A7
:104D600021E030E0A90102C0440F551F8A95E2F707
:104D70004093EA001092EA008091EB0088608093F3
:104D8000EB001092E9008091E800877F8093E800B3
:104D90000E94FD2B5BC1811159C1109101031F7746
:104DA0008091E3008078812B8093E3008091E8007C
:104DB000877F8093E8000E94FD2B8091E80080FFB0
:104DC000FCCF8091E30080688093E300111102C062
:104DD00082E001C083E08093FD0238C180588230B8
:104DE00008F034C120910103309102032C3D53E0BF
:104DF000350779F583E08A838AE289834FB7F8948F
:104E0000DE01139620E03EE051E2E32FF0E0509304
:104E10005700E49120FF03C0E295EF703F5FEF7011
:104E20008E2F90E0EA3010F0C79601C0C0968D93A7
:104E30009D932F5F243149F74FBF8091E800877F12
:104E40008093E8006AE270E0CE0101960E94512C46
:104E5000B4C08091030390910403432F552743303E
:104E60005105A9F068F44130510509F4FEC0423003
:104E7000510509F0EBC08BE590E0E1EAF6E04BC0AC
:104E80004132510529F14232510589F1DFC0C90192
:104E9000992781309105A1F058F0029709F0D6C00A
:104EA000EEE0F7E0E4918E2F90E0EEE0F7E030C026
:104EB000E2E6F7E0E4918E2F90E0E2E6F7E028C02A
:104EC000ECE4F7E0E4918E2F90E0ECE4F7E020C012
:104ED0008330910508F0BAC0880F991FFC01E4588F
:104EE000FE4F0190F081E02D89E090E014C0833006
:104EF000910508F0ABC0FC01EE0FFF1FEA58FE4F12
:104F00000190F081E02DDC01AD58BE4F8C9190E016
:104F1000009709F49BC02091E800277F2093E800C8
:104F200020910503309106032817390708F4C901B9
:104F300040E0009789F12091FD02222309F43DC051
:104F40002530D9F12091E80023FD37C02091E800F9
:104F500022FD2FC02091E80020FFEBCF4091F3000D
:104F60002091F20030E0342B009759F028303105C1
:104F700040F444914093F100319601972F5F3F4FE9
:104F8000F3CF41E02830310509F040E02091E800FE
:104F90002E772093E800CDCF4111CDCF0AC080916C
:104FA000FD02882351F0853041F08091E80083FDB7
:104FB00004C08091E80082FFF2CF8091E8008B77F7
:104FC0008093E80043C0803809F040C08091E80039
:104FD000877F8093E8008091FE028093F1008091AA
:104FE000E8008E77D3CE811131C08091010390917A
:104FF00002039927029754F58091E800877F8093F8
:10500000E800109101031093FE020E94FD2B111184
:1050100006C08091E30087FD02C081E001C084E00A
:105020008093FD0242E061EC81E00E941C2C42E290
:1050300061EC84E00E941C2C42E261EC82E00E9460
:105040001C2C42E260EC83E00E941C2C8091E80062
:1050500083FF10C08091E800877F8093E8008091F3
:10506000EB0080628093EB0005C082E190E0ECEF02
:10507000F6E051CFAA960FB6F894DEBF0FBECDBFB3
:10508000DF91CF911F9108951F920F920FB60F924B
:1050900011242F933F934F935F936F937F938F933D
:1050A0009F93AF93BF93CF93DF93EF93FF93C09101
:1050B000E900CF708091EC00D82FD17080FDD0E84E
:1050C0001092E9008091F000877F8093F00078943F
:1050D0000E9472251092E9008091F0008860809310
:1050E000F000CD2BCF70C093E900FF91EF91DF91DD
:1050F000CF91BF91AF919F918F917F916F915F9170
:105100004F913F912F910F900FBE0F901F901895C8
:10511000E8EDF0E080818E7F80831092E2001092B3
:10512000DA001092E100A0EEB0E08C9181608C93E7
:1051300080818F77808319BCA7EDB0E08C918E7F42
:105140008C9380818F7E80831092F0020895CF929D
:10515000DF92EF92FF920F931F93CF93DF93C8EDEF
:10516000D0E088818F7E8883E7EDF0E080818160E8
:10517000808384E082BF81E08093F00288818E7F0B
:10518000888302EE10E0F80110821092DA0081EEBE
:10519000C82ED12CF601108288818F778883888170
:1051A0008068888388818F7D888319BC1092FD0276
:1051B0001092FE021092FC021092FB0290EEE92E79
:1051C000F12CF70180818B7F8083888181608883C7
:1051D00042E060E080E00E941C2CF60180818E7F1E
:1051E0008083F801808181608083808188608083F2
:1051F000F70180818E7F8083888180618883DF9141
:10520000CF911F910F91FF90EF90DF90CF90089575
:105210001F920F920FB60F9211242F933F934F932B
:105220005F936F937F938F939F93AF93BF93EF930E
:10523000FF938091E10082FF09C08091E20082FF2C
:1052400005C08091E1008B7F8093E1008091DA00BE
:1052500080FF2AC08091D80080FF26C08091DA00AC
:105260008E7F8093DA008091D90080FF18C080E1A2
:1052700089BD82E189BD09B400FEFDCF81E0809344
:10528000FD028091F00281110FC00E9488280E94C7
:10529000A7288091E20084608093E20005C019BCD9
:1052A0001092FD021092F0028091E10080FF17C081
:1052B0008091E20080FF13C08091E2008E7F809396
:1052C000E2008091E20080618093E2008091D8004A
:1052D00080628093D80019BC85E08093FD028091A4
:1052E000E10084FF2EC08091E20084FF2AC080E1AB
:1052F00089BD82E189BD09B400FEFDCF8091D8004F
:105300008F7D8093D8008091E1008F7E8093E100B3
:105310008091E2008F7E8093E2008091E2008160C4
:105320008093E2008091FE02882311F084E007C0A0
:105330008091E30087FD02C081E001C083E080939B
:10534000FD028091E10083FF27C08091E20083FF8E
:1053500023C08091E100877F8093E10082E0809309
:10536000FD021092FE028091E1008E7F8093E100A9
:105370008091E2008E7F8093E2008091E200806164
:105380008093E20042E060E080E00E941C2C80916B
:10539000F00088608093F000FF91EF91BF91AF9192
:1053A0009F918F917F916F915F914F913F912F913D
:1053B0000F900FBE0F901F9018952091E400309130
:1053C000E50095E64091EC00842F817040FF23C0FA
:1053D0008091E80080FD1DC08091FD02882399F036
:1053E000853099F08091EB0085FD11C04091E4007B
:1053F0005091E5002417350729F3915011F09A01D7
:10540000E1CF84E0089582E0089583E0089581E08B
:10541000089580E008954091E80042FFDDCF0895AF
:10542000EF92FF920F931F93CF93DF937C018B0139
:105430000E94DD29811119C0E70101151105A1F0B4
:105440008091E80085FD0AC08091E8008E77809306
:10545000E8000E94DD29882381F307C089918093A9
:10546000F10001501109E9CF80E0DF91CF911F9148
:105470000F91FF90EF900895882341F080959091CF
:105480007D02892380937D020C94001C089588235B
:1054900039F090917D02892B80937D020C94001C41
:1054A0000895882309F463C0823869F40E94242493
:1054B00081FF5DC069E381E192E00E94641B0E946C
:1054C000001C69E30EC0833891F40E94242480FFFD
:1054D0004EC063E581E192E00E94641B0E94001CC3
:1054E00063E581E192E00E94571B0C94001C843814
:1054F00069F40E94242482FF3AC067E481E192E0CB
:105500000E94641B0E94001C67E4EBCF9CEF980F85
:10551000913A10F4682FE5CF90E2980F983088F414
:10552000877021E030E0A90102C0440F551F8A9521
:10553000E2F7CA01809590917D02892380937D02D4
:10554000D4CF9BE5980F933020F480E090E00C944A
:105550000E2498E5980F973120F480E090E00C94A9
:10556000F823803F20F00E94F2060C94C8060895AC
:10557000CF93882309F421C1C82F8238B1F40E9447
:10558000242481FD1AC169E381E192E00E94641B39
:105590000E94001C2FEF81EE94E02150804090404B
:1055A000E1F700C0000069E317C08338E1F40E940E
:1055B000242480FD02C163E581E192E00E94641B26
:1055C0000E94001C2FEF81EE94E02150804090401B
:1055D000E1F700C0000063E581E192E00E94571B03
:1055E000CF910C94001C8438B1F40E94242482FDD5
:1055F000E4C067E481E192E00E94641B0E94001C09
:105600002FEF81EE94E0215080409040E1F700C000
:10561000000067E4E1CF8CEF8C0F813A08F080C086
:1056200080910C03813069F018F0823021F170C054
:1056300080917D02823209F0A8C08C2F0E940C0953
:105640006CC080917D028232C1F3C43189F050F484
:10565000CB3009F498C0C03109F05DC082E080937E
:105660000C0391C0C93221F0C83309F48CC053C077
:1056700010920C0350C0C93299F118F5C43181F170
:10568000A0F4C73009F099C01092EA0184E1809338
:105690000A01C09327018CE38093260188E0809360
:1056A000250188E28093240188C0CE51C63008F0DD
:1056B00084C0EC2FF0E0EE57FE4F808180930B0307
:1056C0007CC0CE34F9F028F4CB3409F076C06AE01F
:1056D00014C0C13581F0C23509F06FC061E00DC062
:1056E00080910B03882319F010920B0366C081E0B0
:1056F00080930C0362C061E006C080910B03CF91E0
:105700000C9496086AE080910B03CF910C944608A4
:1057100010920C033AC080E0817081114EC035C0F8
:1057200080E28C0F883068F4C77081E090E001C09F
:10573000880FCA95EAF790917D02892B80937D02AC
:105740004FCFEBE5EC0FE33040F4F0E0E457FE4FD1
:10575000808190E0CF910C940E24E8E5EC0FE731C6
:1057600050F4F0E0EE0FFF1FE157FE4F8081918172
:10577000CF910C94F823C03F00F18C2F0E94EB07CF
:10578000CF910C94C80681E0C7CFE3E1F2E089E154
:1057900092E02191C21749F08E179F07D1F76C2F25
:1057A00081E192E00E94641B1BCF6C2F81E192E0AB
:1057B0000E94571B0E94001CF2CFCF9108951F93A7
:1057C000CF93DF93182F893319F0C0E0D0E002C0E7
:1057D000C0E5D0E0812F0E94B82A209741F08FE9E0
:1057E0009FE00197F1F700C000002197F6CF812FCD
:1057F000DF91CF911F910C94512A8091FF0287FF76
:1058000011C08091E80082FD05C08091FD028111E8
:10581000F8CF11C08091E8008B770BC08091FD021A
:10582000882349F08091E80080FFF8CF8091E8005C
:105830008E778093E8000895982F973068F59093BD
:10584000E900981739F07091EC002091ED0050912B
:10585000F00003C0242F762F50E021FD02C09F5F8F
:10586000ECCF3091EB003E7F3093EB003091ED00B8
:105870003D7F3093ED003091EB0031603093EB00D1
:105880007093EC002093ED005093F0002091EE0017
:1058900027FDE5CF80E008958F708093E90081E0D7
:1058A000089520910503309106032617370748F025
:1058B0006115710539F42091E8002E772093E800F6
:1058C00001C0B901FC0120E06115710579F18091F9
:1058D000FD028823F1F18530F1F18091E80083FD2C
:1058E0003CC08091E80082FD2EC08091E80080FFDE
:1058F000EBCF2091F3008091F20090E0922B6115A4
:10590000710551F08830910538F421912093F10010
:10591000615071090196F3CF21E0089709F020E06A
:105920008091E8008E778093E800CECF2111CFCF11
:105930000AC08091FD02882361F0853061F080917A
:10594000E80083FD0AC08091E80082FFF2CF80E08A
:10595000089582E0089583E0089581E0089562E06B
:1059600070E088E291E00C94842D62E070E088E2BF
:1059700091E00C948D2D0E946C04882361F088E1E5
:1059800093E00E94560481E090E00E94662E892BED
:1059900011F40C946904089580911703883039F448
:1059A00060E088E193E00E94C90C1092170308950B
:1059B000CF93DF93D62FC72F0E94BB2C80E090E0BF
:1059C0000E94662E892BF1F4ED2FFC2F80E090E0F1
:1059D000DC01AE5EBC4F2C91219301968530910580
:1059E000B9F70E94E11ADC01CB010296A11DB11D9D
:1059F00080930E0390930F03A0931003B0931103B1
:105A000081E001C080E0DF91CF910895CF93DF93D3
:105A1000D62FC72F0E94CC2C60910E0370910F03DC
:105A200080911003909111030E94FC1AED2FFC2F1E
:105A300080E090E02191DC01AE5EBC4F2C9301969A
:105A400085309105B9F7DF91CF9108958EE1489B9C
:105A500002C08150E1F7489BFECF0895589880E23C
:105A60008A95F1F7589A0895FC012AE02A95F1F7F2
:105A700090E020E080E031E0261779F040E14A959F
:105A8000F1F7880F489B02C08160932700C0000097
:105A900040E14A95F1F72F5FEFCF20E12A95F1F72A
:105AA00029B100C0000030E13A95F1F7217092274A
:105AB0002081920F90830895EF92FF920F931F938E
:105AC000CF93DF931F92CDB7DEB719828C017C0193
:105AD000E60EF11C0E151F0559F00E94262D68E0F8
