:100000000C9436040C94E52E0C947D040C947D0421
:100010000C947D040C947D040C947D040C947D045C
:100020000C947D040C947D040C94211C0C94DD1B19
:100030000C94492D0C947D040C947D040C947D0447
:100040000C947D040C947D040C947D040C947D042C
:100050000C947D040C94252D0C947D040C947D044B
:100060000C947D040C947D040C947D040C947D040C
:100070000C947D040C947D040C947D040C947D04FC
:100080000C947D040C947D040C947D040C947D04EC
:100090000C947D040C947D040C947D040C947D04DC
:1000A0000C947D040C947D040C947D0405010902DC
:1000B000A10185020901A100050919012905150001
:1000C00025019505750181029501750381010501E1
:1000D000093009311581257F950275088106093897
:1000E0001581257F950175088106050C0A380215D2
:1000F00081257F950175088106C0C005010980A191
:1001000001850319012AB700150126B7009501756D
:10011000108100C0050C0901A101850419012AA064
:1001200002150126A002950175108100C00660FF2E
:100130000961A1010962150026FF0095207508815B
:10014000020963150026FF00952075089102C0057D
:10015000010906A101050719E029E7150025019508
:1001600008750181029501750881010507190029AB
:10017000FF150026FF009506750881000508190186
:100180002905950575019102950175039101C0003E
:10019000000000000000000000000000000000005F
:1001A000000000000000000000000000000000004F
:1001B0000000007E0F00D4FFFFFFC70000007800A2
:1001C000000000000000002A2B28000000000000B2
:1001D0000000000000000000000029000000002CCA
:1001E0001E3420212224342627252E362D37382769
:1001F0001E1F202122232425263333362E37381F75
:100200000405060708090A0B0C0D0E0F1011121336
:100210001415161718191A1B1C1D2F3130232D35D4
:100220000405060708090A0B0C0D0E0F1011121316
:100230001415161718191A1B1C1D2F3130354C00B8
:100240000101010101010101010202020202020297
:10025000020203030303030303030404040404046A
:100260000405050505050606060606070707070730
:1002700008080808090909090A0A0A0B0B0B0C0CE3
:100280000C0D0D0D0E0E0E0F0F0F1010111111127F
:100290001213131414151516161717181819191AFE
:1002A0001A1B1B1C1D1D1E1E1F2020212222232461
:1002B00024252626272829292A2B2C2D2D2E2F30A0
:1002C000313232333435363738393A3B3C3D3E3FB4
:1002D000404142434445464748494A4C4D4E4F50A1
:1002E000515354555658595A5B5D5E5F616264655F
:1002F0006668696B6C6D6F7072737577787A7B7DE9
:100300007E8082838587888A8C8E8F91939596983C
:100310009A9C9EA0A2A3A5A7A9ABADAFB1B3B5B758
:10032000BABCBEC0C2C4C6C9CBCDCFD1D4D6D8DB2F
:10033000DDDFE2E4E7E9EBEEF0F3F5F8FAFDFFFFCD
:10034000AA7F55402223252628292A2C2D2F3032FA
:10035000333536383A3B3D3E4042434547494A4CA7
:100360004E5051535557595A5C5E606264666869D5
:100370006B6D6F71737577797B7D7F8183858789DD
:100380008A8C8E90929496989A9C9E9FA1A3A5A7E2
:10039000A8AAACAEAFB1B3B4B6B8B9BBBCBEBFC10E
:1003A000C2C3C5C6C7C9CACBCCCDCED0D1D2D2D399
:1003B000D4D5D6D7D7D8D9D9DADADBDBDBDCDCDCAD
:1003C000DCDCDDDDDDDDDCDCDCDCDCDBDBDBDADA70
:1003D000D9D9D8D7D7D6D5D4D3D2D2D1D0CECDCCE7
:1003E000CBCAC9C7C6C5C3C2C1BFBEBCBBB9B8B6FC
:1003F000B4B3B1AFAEACAAA8A7A5A3A19F9E9C9A87
:1004000098969492908E8C8A89878583817F7D7B54
:1004100079777573716F6D6B6968666462605E5C35
:100420005A5957555351504E4C4A494745434240FB
:100430003E3D3B3A3836353332302F2D2C2A292891
:10044000262523222B0014001A000800150017008F
:10045000394304001600070009000A00E1001D00EE
:100460001B000600190005000000000050004F00AE
:100470002A004C4200000000E2004D00E0004A006B
:100480001C0018000C001200130031000B000D00BE
:100490000E000F0033003443110010003600370007
:1004A0003800E50028422C005200510000000000F6
:1004B0000007E4000503E300000000000100010064
:1004C0000100010001000100010001000100010024
:1004D0000100010001000100010001000100010014
:1004E0000000000001000100010001000000000008
:1004F00001000100010001000100010001000100F4
:1005000001000100010001000100010001000100E3
:1005100001000100010001000100010001000100D3
:1005200001000100000000000100010001000100C5
:1005300000000000010001000100010001002F0087
:10054000010001000100010001002F020100010073
:100550000100010001000100000000000100010095
:100560000100010000000000010001000100010085
:1005700030005F00600061000100450030025C0057
:100580005D005E002D004604010059005A005B002A
:100590002E002D0201000100620063000000000037
:1005A0004B0001004E000100000000000100CA5C89
:1005B000C75CC95C01002F000100C65CC85CC55C5B
:1005C00001002F02C45CC35CCC5CCB5C0100010069
:1005D00000000000490435000100C25C000000007A
:1005E0000100005C0100010030000100CA5CC75C32
:1005F000C95C010030020100C65CC85CC55C01003A
:100600000100C45CC35CCC5CCB5C0100C25C01003B
:10061000005201520000000001000100005C0100D6
:10062000000000001E0F0500047F3F1F64321464A9
:100630003214783C1E1E140A05FD377A585A000001
:1006400004E6D6B4460200210116000000742FE52E
:10065000A3E00257010A5D003D8889C65436C317DE
:100660004FE4DD5C7431C9895FE41655C0286371BD
:10067000F477887C2CBF66777E7BBF1B6F96EF4B31
:100680006D0EF48385459018C9EEE8BE7CEC239589
:10069000194B741E03249329C804E79A24AA3B1219
:1006A000963563A494386816A8C02B59BE85F4A06B
:1006B000934D9FFA741D36308DA99144116E76DFEB
:1006C000034E77F52DFF33F1F10CEFD38FEC62A6DB
:1006D0009E48B337089EBA28A07F5AF6E180907BE7
:1006E00060A3094E375D30559BA6AC0B7B6436DBAF
:1006F0007413B199143C009379FD427A55D28F3B23
:100700006E31EBF50EF5DDCC2074D6F9FD391DE325
:100710004C7C1B7C4A2EE3F3A5A822D5C10BD669DD
:10072000E5CFDB19BDF6A78FA2D6F357EDB6D540BE
:10073000E8F29D17DC95CF5BD81C5D0FEF2658DDE6
:100740002C7F9EE0B158209F6734F4D5F544CBD47C
:10075000A99CA89A8DBF42A25DCD00D144D4EF13CD
:100760004720000000C51A708FDFC95CF40001A6A5
:1007700002D8040000E44C3992B1C467FB020000C7
:10078000000004595A09025B00030100A0FA0904A1
:1007900000000103010100092111010001224000B4
:1007A0000705810308000A09040100020300000094
:1007B0000921110100012222000705820320000106
:1007C00007050303200001090402000103000000E3
:1007D0000921110100012281000705840320000A7C
:1007E00012011001000000084D44363401000102DE
:1007F00003011C037600690061006C003A0066008A
:1008000036003400630032006200330063000000F1
:100810003C03680061006E006400770069007200AC
:10082000650064002F0064006100630074007900BB
:100830006C005F006D0061006E00750066006F0067
:1008400072006D002F00340078003600000018039D
:100850004F00680020004B00650079002000430035
:1008600061007000730000000403090411241FBE1E
:10087000CFEFDAE0DEBFCDBF04B603FE27C0809124
:10088000330390913403A0913503B0913603873040
:10089000904BA740B04BD1F4109233031092340325
:1008A000109235031092360314BE84B7877F84BF3D
:1008B0000FB6F894A89580916000886180936000DD
:1008C000109260000FBEE0E0F8E3099511E0A0E0AF
:1008D000B1E0EEE6F3E602C005900D92A63CB1074A
:1008E000D9F723E0A6ECB1E001C01D92A333B20713
:1008F000E1F70E94DE250C9474310C940000E8EDC1
:10090000F0E080818E7F80831092E2001092DA0006
:100910001092E100A0EEB0E08C9181608C93808118
:100920008F77808319BCA7EDB0E08C918E7F8C937C
:1009300080818F7E80831092FF0208952091E400D1
:100940003091E50095E6A9012091EC00822F81709D
:1009500020FF06C08091E80080FF06C080E0089577
:100960002091E80022FD1AC080911503882389F0A8
:10097000853089F08091EB0085FD0FC02091E40067
:100980003091E50042175307F9F29150E1F684E007
:10099000089582E0089583E0089581E00895EF923C
:1009A000FF920F931F93CF937C018B010E949E04B3
:1009B000C82F811117C08091E80085FD0BC0809180
:1009C000E8008E778093E8000E949E04882399F3C4
:1009D000C82F08C0F70181917F018093F100015079
:1009E000110949F78C2FCF911F910F91FF90EF9034
:1009F0000895CF93FC0180911503843001F5C091D7
:100A0000E900CF702091EC00922F917020FD90E8CA
:100A1000C92B82E08093E9008091E80080FF0CC040
:100A200050E040E060E270E0CF010E94CF0480918E
:100A3000E8008E778093E800CF70C093E900CF91F3
:100A4000089580910D0387FF13C08091E80082FF15
:100A500006C08091E8008B778093E80004C0809105
:100A600015038111F2CF0895809115038823D9F3DE
:100A70008091E80080FFF8CF8091E8008E77ECCF7E
:100A8000982F9093E900242F762F50E0891731F0AA
:100A90007091EC002091ED005091F00021FD07C015
:100AA0009F5F973071F78093E90081E0089530915E
:100AB000EB003E7F3093EB003091ED003D7F3093B3
:100AC000ED003091EB0031603093EB007093EC005F
:100AD0002093ED005093F0002091EE0027FDE0CF31
:100AE00080E00895CF92DF92EF92FF920F931F93D1
:100AF000CF93DF93C8EDD0E088818F7E8883E7EDC8
:100B0000F0E080818160808384E082BF81E0809317
:100B1000FF0288818E7F888302EE10E0F801108248
:100B20001092DA0081EEC82ED12CF6011082888155
:100B30008F77888388818068888388818F7D888388
:100B400019BC1092150310920C0310920B03109213
:100B50000A0390EEE92EF12CF70180818B7F8083D0
:100B600088818160888342E060E080E00E944005E7
:100B7000F60180818E7F8083F8018081816080838F
:100B8000808188608083F70180818E7F8083888167
:100B900080618883DF91CF911F910F91FF90EF903B
:100BA000DF90CF900895FC0180911303909114037E
:100BB00086179707A0F06115710529F49091E80058
:100BC0009E779093E80090E06115710551F49111C2
:100BD00008C08091E80082FF34C080E00895BC0125
:100BE000F2CF809115038823C1F18530C1F1809146
:100BF000E80083FD30C08091E80082FDEACF80915B
:100C0000E80080FFE1CF8091F3002091F200382FBF
:100C10006115710519F02830310558F091E0283040
:100C2000310509F090E02091E8002E772093E8004C
:100C3000CBCF81918093F100615071092F5F3F4FBD
:100C4000E7CF80911503882341F0853041F08091F2
:100C5000E80083FFBECF81E0089582E0089583E03D
:100C60000895089580E0089580910103089587E72D
:100C700097E7909301088093000888E19AE00FB607
:100C8000F894A895809360000FBE90936000FFCF0A
:100C90009C014FB7F8948091A9029091AA02A0916B
:100CA000AB02B091AC024FBF821B930B08952FB7DC
:100CB000F8946091A9027091AA028091AB02909180
:100CC000AC022FBF08952FB7F8948091A90290919C
:100CD000AA02A091AB02B091AC022FBF08958091FF
:100CE000A40281111092A40208958091A302909110
:100CF000A202892B9091A102892B8093C801909127
:100D0000A402992391F0892B8093C80120E08AECFA
:100D100091E0FC013191CF0131112F5FF1E0803D75
:100D20009F07B9F721110E946F06E091C002F09170
:100D3000C102309731F00280F381E02D88EC91E020
:100D400009940895EAECF1E09191891303C0DF0161
:100D500011971C9291E0E03DF907B1F70895AAECD4
:100D6000B1E0EFEF90E02D91821751F0EF3F19F4D1
:100D7000211101C0E92F9F5F9630A9F7EF3F09F4D9
:100D800008950E2E000CFF0BE853FE4F828308954A
:100D9000E92FEE0FE90FEE0F8E0F982F97708695C3
:100DA0008695869525E0829FF0011124E858FD4F35
:100DB00050E040E080E0219130E0092E02C03695FD
:100DC00027950A94E2F721703327042E01C0220FE1
:100DD0000A94EAF7822B4F5F5F4F4530510559F770
:100DE0000895E92FEE0FE90FEE0F8E0F982F9770F1
:100DF00041E001C0440F9A95EAF78695869586955D
:100E000095E0899FF0011124E858FD4F30E020E083
:100E100070E05191DF011197CB01022E02C096952F
:100E200087950A94E2F78170819585278423852729
:100E30008C932F5F3F4F2530310559F7089520914E
:100E400077029091460256E0291302C080E008958F
:100E500030E0529FF001539FF00D1124E95BFD4FEC
:100E60007181761306C07081781303C07281741388
:100E700004C02F5F3F4F2770E7CF81E00895809136
:100E8000770290914602981301C008958F5F877092
:100E9000FACF882341F080959091A3028923809313
:100EA000A3020C9475060895882339F09091A3024B
:100EB000982B9093A3020C947506089520913A0202
:100EC00030913B022817390771F090933B028093D1
:100ED0003A02E091C002F091C102309721F0008403
:100EE000F185E02D0994089520913802309139025E
:100EF0002817390771F09093390280933802E091F6
:100F0000C002F091C102309721F00680F781E02DF8
:100F100009940895E091C002F091C102309721F048
:100F20000190F081E02D099480E00895FA0181118B
:100F300001C0FB010994ECECF2E011828281846033
:100F4000828308958091EC02982F9E7F29F481700E
:100F500082608093EC0208958635E8F381708465A1
:100F6000F8CFAF92BF92DF92EF92FF920F931F9351
:100F7000CF93DF93082F162FE901E42FF0E0E15C17
:100F8000FD4F611110C0E4915E2F4E2F4983E8831D
:100F90005A83DF91CF911F910F91FF90EF90DF90D7
:100FA000BF90AF900895E62EF12C4491D42EE42FFB
:100FB000F0E026E0829FC00111242FEF30E0B9015C
:100FC0000E940C30802F90E0880F991F55E5569FA6
:100FD000D001579FB00D11248A1B9B0B982F990F9E
:100FE000890F5901AE18BF08AE9ED001AF9EB00D5B
:100FF000BE9EB00D11245B2F189F80011124012F7C
:1010000011275901A01AB10AAE9E8001AF9E100DA2
:10101000BE9E100D11245901A81AB108AE9CC00142
:10102000AF9C900DBE9C900D1124892F9927281BF1
:10103000390B2E9FC0012F9F900D3E9F900D1124C4
:10104000E92F62307105A1F050F46115710509F4C2
:101050009DCF6130710581F0EB2F512F97CF643018
:10106000710569F080F06630710509F48FCFF4CF17
:10107000E42F4B2F592F8ACFE42F412F87CFEB2F0F
:10108000542F492F83CF4B2F5D2DE12F7FCF0E940F
:1010900063069C019091D8028091D902982B21F08F
:1010A0003093D5022093D4029091DA028091DB0232
:1010B000982B21F03093D1022093D002E091C0020E
:1010C000F091C102309749F082E08093D60204800B
:1010D000F581E02D86ED92E00994089590E080E09E
:1010E0000E94740790E080E00E945E071092A202C6
:1010F0001092A1020E94750686E0E6EDF2E0DF01A3
:101100001D928A95E9F71092D3021092CF021092A5
:101110003F020C9447086093190370931A0380935D
:101120001B0390931C030C946E080F931F93609104
:10113000190370911A0380911B0390911C038B017A
:101140009C0106701127222733270630110521053F
:10115000310529F468601F910F910C948B08677F0B
:10116000FACF0F931F9341E050E060E070E004C0BD
:10117000440F551F661F771F8A95D2F7CB01BA011E
:1011800060957095809590950091190310911A03C0
:1011900020911B0330911C0360237123822393232E
:1011A0001F910F910C948B089091A0028095892338
:1011B0008093A002282F277071F4282F082E000C8E
:1011C000330B9217130639F08595859585950E9406
:1011D000B1081092A00208950F931F9341E050E0D0
:1011E00060E070E004C0440F551F661F771F8A95AA
:1011F000D2F78091190390911A03A0911B03B0912B
:101200001C038A019B01082B192B2A2B3B2BC9019C
:10121000B8011F910F910C948B086093A5027093F5
:10122000A6028093A7029093A8020C946E08909156
:10123000D802803F59F48091D90287FF0DC01092E7
:10124000D90291110BC01092D30208C0813F81F4E2
:101250008091D90218169CF3992381F08091DA02CB
:101260009091DB02892B09F064C01092CF0208959F
:10127000823F49F497FFF0CF1092D8028091D902B3
:101280008111ECCFE0CF833F19F41916ACF3E4CF12
:101290002091DA02893F29F41216F4F61092DA024C
:1012A000DBCF8A3F19F427FFD7CFF8CF2091DB029D
:1012B0008B3F29F427FFD0CF1092DB02CDCF8C3F9C
:1012C00019F41216CCF3C8CF843F31F48091D702C1
:1012D0008E7F8093D702C0CF853F21F48091D702C3
:1012E0008D7FF7CF863F21F48091D7028B7FF1CF9E
:1012F000873F21F48091D702877FEBCF883F21F48D
:101300008091D7028F7EE5CF8D3F31F480913F02EF
:101310008E7F80933F02A0CF8E3F21F480913F02C9
:101320008D7FF7CF8F3F09F097CF80913F028B7F62
:10133000F0CF0895882309F459C0823871F40E94CF
:101340008A0781FF53C089E30E94AF060E94750699
:1013500089E30E94A2060C947506833859F40E9412
:101360008A0780FF43C083E50E94AF060E9475068E
:1013700083E5EFCF843859F40E948A0782FF36C094
:1013800087E40E94AF060E94750687E4E2CF9CEFD7
:10139000980F913AF0F290E2980F983088F48770A5
:1013A00021E030E0A90102C0440F551F8A95E2F701
:1013B000CA0180959091A30289238093A302CBCF89
:1013C0009BE5980F933020F490E080E00C94740734
:1013D00098E5980F973120F490E080E00C945E0738
:1013E000803F20F00E9417090C94470808958091CF
:1013F0003F0280FF0CC06091130170E07595679506
:10140000759567956115710549F1862F089581FFDE
:1014100006C06091130170E075956795F3CF6091F8
:10142000130182FD0BC09091CF029923A1F060912E
:10143000120180911301961738F0682F70E0603820
:10144000710500F38FE70895899FC001112470E0B2
:101450000E942030F4CF61E070E0D7CF81E00895A2
:1014600080913F0280FF12C06091150185E0689F66
:10147000B00111247595679575956795603871056C
:10148000A8F561157105A1F1862F089581FF09C0A6
:101490006091150185E0689FB001112475956795ED
:1014A000EDCF6091150182FD0AC08091D30288239F
:1014B000D1F09091140160911501891728F085E011
:1014C000689FB0011124DACF869FB001112485E016
:1014D000869F9001879F300D1124692F70E0C9010C
:1014E0000E942030CBCF65E070E0CECF8FE708952B
:1014F00081E00895803F31F40E94300A8195809305
:10150000D9020895813F19F40E94300AF8CF823F32
:1015100031F40E94300A81958093D8020895833F68
:1015200019F40E94300AF8CF893F29F40E94F70984
:101530008093DA0208958A3F21F40E94F709819589
:10154000F7CF8B3F31F40E94F70981958093DB023E
:1015500008958C3F19F40E94F709F8CF843F31F4C5
:101560008091D70281608093D7020895853F21F44E
:101570008091D7028260F7CF863F21F48091D70215
:101580008460F1CF873F21F48091D7028860EBCF50
:10159000883F21F48091D7028061E5CF8D3F31F4FF
:1015A00080913F02816080933F0208958E3F21F435
:1015B00080913F028260F7CF8F3FB9F780913F0261
:1015C0008460F1CF833011F128F4813049F082300A
:1015D00091F00895853081F120F18630C1F10895B0
:1015E0008091D202681720F4861B8093D20208955E
:1015F0001092D202089580911C01681720F4861B76
:1016000080931C01089510921C010895809115018A
:10161000681720F4861B8093150108951092150118
:10162000089580911401681720F4861B809314019B
:10163000089510921401089580911301681720F401
:10164000861B8093130108951092130108958091D1
:101650001201681720F4861B8093120108951092DE
:1016600012010895833081F128F4813059F08230DD
:10167000D1F00895853009F449C0B8F1863009F4F5
:1016800056C008958091D202482F460F5527551F06
:101690004F3F510524F4680F6093D20208958FEFF5
:1016A0008093D202089580911C01482F460F552740
:1016B000551F4F3F510524F4680F60931C01089596
:1016C0008FEF80931C01089580911501482F460FDC
:1016D0005527551F4F3F510524F4680F609315019E
:1016E00008958FEF80931501089580911401482F7C
:1016F000460F5527551F4F3F510524F4680F60933F
:10170000140108958FEF80931401089580911301BF
:10171000482F460F5527551F4F3F510524F4680F9A
:101720006093130108958FEF8093130108958091C2
:101730001201482F460F5527551F4F3F510524F4DE
:10174000680F6093120108958FEF8093120108953E
:10175000F894E82FE295EF70F0E031A1282F2F7078
:1017600081E090E001C0880F2A95EAF7982F9095C4
:10177000932391A392A1892B82A3789408959091A9
:10178000BD0292FF06C0282F28712830F9F4877F08
:10179000846093FF06C0282F28712831F1F4877EDA
:1017A00084612091BE0220FF06C0382F3871383086
:1017B000D9F4877F816021FF06C0282F2871283146
:1017C000D1F4877E816194FD877E0895282F24714E
:1017D0002430F9F68B7F8860DCCF282F24712431E8
:1017E00001F78B7E8861DDCF382F3171313019F7E9
:1017F0008E7F8860E0CF282F2171213121F78E7EE6
:101800008861E1CFCF93DF9300D00F92CDB7DEB7E1
:1018100090911503943011F589837B836A839093AB
:10182000E9008FEF9091E800815095FD06C095ED9D
:101830009A95F1F700008111F5CF8091E80085FFBE
:101840000DC050E040E063E070E0CE0101960E94E0
:10185000CF048091E8008E778093E8000F900F907E
:101860000F90DF91CF910895BC0184E00C94020C9D
:10187000BC0183E00C94020C9C0184E08093E9009D
:101880009FEF8091E800915085FD06C085ED8A9517
:10189000F1F700009111F5CF8091E80085FF0CC0B1
:1018A00050E040E066E070E0C9010E94CF04809102
:1018B000E8008E778093E8000895CF93DF93EC01E2
:1018C00081E08093E9008FEF9091E800815095FDD1
:1018D00006C095ED9A95F1F700008111F5CF809142
:1018E000E80085FF14C050E040E068E070E0CE0101
:1018F0000E94CF048091E8008E778093E80088E012
:10190000FE01A2E0B3E001900D928A95E1F7DF912C
:10191000CF910895609117018091EC0280FF20C063
:101920008091160143E0849FC001112488529E4F8C
:10193000539A2BB1277F3BB138605FB7F894FC0115
:10194000649FE00DF11D1124BF0168177907D1F4E0
:101950005FBF8FE594E00197F1F700C000000895A4
:10196000809118019091190123E0829FF0011124C8
:10197000E852FE4F8917A0F61182108212828F5F03
:101980003396F8CFFC014191CF01E8E03BB900006C
:1019900000C047FF2BB9440F000000C000C000C0CA
:1019A0002BB900C0EA9591F7D0CFEF92FF921F9329
:1019B000CF93DF93EC0110E0EE24EA94F12C6091D8
:1019C0001A01161770F00E948A0C9A818C8190FF80
:1019D00027C08F5F8C83DF91CF911F91FF90EF9095
:1019E000089520911801422F410F5527551FCA0114
:1019F0009A01220F331F280F391F28523E4F70E0E3
:101A0000C7010E942030962F8C814091EF02609197
:101A1000EE02199F800D11240E94B1071F5FCFCFE6
:101A20008150D8CF8F929F92AF92BF92CF92DF9288
:101A3000EF92FF920F931F93CF93DF93EC018A8174
:101A4000BB24BA9480FD02C0BB24B394A0901A01B9
:101A50008C81811109C081E0B81228C08FEF8A0DF6
:101A60008093D50181E08C83F12CE12C4CE0942E05
:101A7000EA14F8F00E948A0C8091D50191E0B91225
:101A80005FC0811158C080911A0181508093D501A7
:101A90001C82DF91CF911F910F91FF90EF90DF900B
:101AA000CF90BF90AF909F908F9008951092D501E6
:101AB000D9CF009118010E0D1F2D111DC801880FDF
:101AC000991F080F191F08521E4FF801118210822A
:101AD000128234E0C32ED12C812C8091D501880D47
:101AE0008D302CF1692D0E94FE2F892F082E000CBD
:101AF000990B8E159F0591F48091EF028C9DA001AA
:101B00008D9D500D112455954795559547959801F4
:101B10006091EE028091ED020E94B1078B0CF1E022
:101B2000CF1AD108D1F68FEFE81AF80AA1CF87FFB4
:101B3000DDCF8A0DDBCF81508093D501BC82A9CF48
:101B400090E0019660911A0170E00E94203080932D
:101B5000D5018C839ECFEF92FF920F931F93CF936B
:101B6000DF93EC018C81811109C081E08C8310929C
:101B7000D60192E09093100180930F01809118019B
:101B80009091190123E0829FF0011124E852FE4F49
:101B9000891768F110E003E060911A01161768F1E7
:101BA0000E948A0C80910F012091D601280F20936A
:101BB000D60190911001980F90931001191654F4CA
:101BC000022E000C330B40911A014150550B241783
:101BD000350734F0819580930F01813009F41C8220
:101BE000DF91CF911F910F91FF90EF900895118297
:101BF000108212828F5F3396CBCFE12EF12C70E0F2
:101C0000C7010E94203020911801820F482F50E018
:101C10002091D601022E000C330BE216F306BCF025
:101C200020911001022E000C330B2E153F057CF085
:101C3000809F9001112428523E4F4091EF02609105
:101C4000EE028091ED020E94B1071F5FA5CFFA015D
:101C5000EE0FFF1FE40FF51FE852FE4F11821082B6
:101C60001282F3CF8F929F92AF92BF92CF92DF9268
:101C7000EF92FF920F931F93CF93DF93EC014C8170
:101C8000042F10E09801D8010E9465319B01AC013E
:101C90000E9430314B015C01E0E2F0E0E01BF10B0F
:101CA000A5E5B0E0AC019B010E9430316B017C01E5
:101CB0009F01DF010E9441309B01AC010E943B313A
:101CC0009B01AC01280D391D4A1D5B1DC701B601E2
:101CD0000E944331F22E822F90E039E23F1560F1ED
:101CE00043E0249F9001112435952795122F1095DC
:101CF00000E085E5E82EEF1880911A01081758F1E9
:101D00000E948A0C9C8181E0992319F0903219F489
:101D10008FEF8093110180911101890F8C83DF91E6
:101D2000CF911F910F91FF90EF90DF90CF90BF90D8
:101D3000AF909F908F90089525E530E0B901681B22
:101D4000790B9B01220F331F260F371F37FFCCCF94
:101D50002F5F3F4FC9CF8E2D01FD8F2D2091180190
:101D6000622F600F7727771F9B01220F331F260FEB
:101D7000371F28523E4F412F6091EE020E94B1075B
:101D80000F5FBACF0F931F93CF93DF93EC0110E057
:101D900000E090911A019017110609F06CF40E946E
:101DA0008A0C8C8190E00196817099278C83DF9159
:101DB000CF911F910F91089520911801A801420F12
:101DC000511D9A01220F331F240F351F28523E4FF9
:101DD0004C816091EE028091ED029695901711066C
:101DE00051F04CF0442349F04091EF020E94B107BA
:101DF0000F5F1F4FCECF4423B9F340E0F7CF909150
:101E0000EC0290FF14C0909118012091190133E069
:101E1000939FF0011124E852FE4F921710F00C949A
:101E20008A0C8183608342839F5F3396F6CF089547
:101E30000F931F93CF93DF9300D00F92CDB7DEB7F0
:101E40008C018091D70181110AC09E012F5F3F4F05
:101E50004FEF6FEF0E94B1078A818093D701F8019D
:101E60006481613069F08091D70140E0662361F0C0
:101E700040E0623011F44091D70180E060E004C09E
:101E80006091D70140E080E00E94FF0EF80184815C
:101E900090E0019663E070E00E94203084830F9010
:101EA0000F900F90DF91CF911F910F910895CF93D5
:101EB000DF9300D00F92CDB7DEB79091EC0290FF88
:101EC0000AC09E012F5F3F4F0E94B1074B8169817D
:101ED0008A810E94FF0E0F900F900F90DF91CF919B
:101EE0000895CF93DF93EC01EC81F0E0EC5BFC4FC5
:101EF0004491ECEEF2E0628181810E94570F8C8167
:101F00008F5F8C83DF91CF910895CF93DF93EC01A6
:101F1000ECEEF2E0438162818C810E94570F8C814C
:101F20008F5F8C83DF91CF910895ECEEF2E080819A
:101F30008E7F80830E949B07ECECF2E082818160BF
:101F400082832FEF80E792E0215080409040E1F7BC
:101F500000C000000C948A0C8091D401811111C042
:101F60008091D80080618093D8008AE18A95F1F74A
:101F700000C09091D900892F817090FF82E08093FA
:101F8000D40181E09091D401913009F080E008956E
:101F9000CF9384E090E00E94C930C82F81E290E0A6
:101FA0000E94C930982F8C2FCF9108950F931F93C3
:101FB000CF93DF93843030F56A3020F5463010F54A
:101FC000C42FD0E0CC0FDD1F2CE0629FC00DD11DCF
:101FD000112438E7839FC00DD11D1124CE018696B0
:101FE0000E94C930082F10E0102F0027CE018796DD
:101FF0000E94C9309801282BC901DF91CF911F9110
:102000000F91089590E080E0F8CF462F2091FD02D7
:102010003091FE02232B49F4843038F47A3028F4CE
:10202000663018F4672F0C94D60F90E080E0089586
:10203000CF93DF930E940510EC0182389105A9F13E
:10204000D8F58133910509F496C048F58932910598
:1020500009F48AC08A9709F495C0C11521E5D20711
:1020600008F0BCC0C11530E5D30708F014C1C83E64
:10207000D10508F09CC0C03ED10560F5C83AD10535
:1020800008F087C0C53AD10508F0FDC0C130D105C0
:1020900009F12097F9F0C430D105E0F440C0853350
:1020A000910509F45AC0C997C1F68091BD028370A9
:1020B00089F0C0EED0E00EC0833E910599F170F436
:1020C000803E910501F1823E910539F68091BD0275
:1020D00082FD21C0CE01DF91CF910895863E91050A
:1020E00061F1873E910571F1843E910509F0B5CF0C
:1020F0008091BE0281FFEECF8091BD02C7EED0E09D
:1021000084FD0DC0E7CF8091BD0280FD12C190918A
:10211000BE0290FFDFCFC3EED0E084FFDBCFD0E084
:10212000C0E0D8CF8091BD0282FD06C19091BE0271
:1021300090FDBFCF84FFCECFF2CF8091BD0283FD53
:10214000DDCFC8CF8091BD0283FDF9C09091BE0262
:1021500091FFF0CFC4EED0E0BDCF8091BD0285FFEE
:10216000B9CFC9E2D0E0B6CF8091BD0285FFB2CF32
:10217000C5E3D0E0AFCF8091BD0286FFABCFCAE20E
:10218000D0E0A8CF8091BD0286FFA4CFC1E3D0E00C
:10219000A1CFCF3BD10518F6C85AD0E0CC0FDD1F38
:1021A000C858DE4F0990D881C02DD46493CFC11593
:1021B00040E2D40758F4C11581E0D80708F08ACF6F
:1021C000C03FD10508F4ABCFD06584CFC11590E4F2
:1021D000D90708F4A4CFDF70D06A7CCFC11525E5FC
:1021E000D20700F5C11534E5D30708F08AC0C11540
:1021F00043E5D40708F071C0C11582E5D80708F49B
:1022000067C0CE018370992721E030E002C0220F21
:10221000331F8A95E2F7C695C69580E2C89FE00114
:10222000112452C0C11599E5D907A8F4C11528E5B4
:10223000D20708F06BC0C11536E5D30708F06FCFA1
:102240008C2F0E94BF0BC82FD0E0DC2FCC27CC27CF
:10225000DF71D0623FCFC1154AE5D40708F45BC0F7
:10226000CE0190568115904208F059CF8D2F8F7175
:102270000E94BF0B90E0982F882788279F719C01B0
:102280002C2BE901E6CFC55AD0E0CB58DE4FC881F0
:10229000D0E0D0641FCFCE01E4E096958795EA9513
:1022A000E1F783702C2F26952695237040E2249F1A
:1022B00090011124382B8C2F8370C1E0D0E002C034
:1022C000CC0FDD1F8A95E2F7C22BD32BDC6802CF3F
:1022D000DC2FCC27C16FD06AFDCECE018370992749
:1022E00021E030E002C0220F331F8A95E2F7C69545
:1022F000C69590E2C99FE0011124C22BD32BDA6866
:10230000E9CEDC2FCC27C46FD06AE4CEDC2FCC27FB
:10231000C06FD06ADFCE8C2F8F700E94BF0B34E06D
:10232000D695C7953A95E1F7CF709C2FEC01D0690F
:10233000D1CEC9E3D0E0CECEC2EED0E0CBCEC6EE59
:10234000D0E0C8CEBF92CF92DF92EF92FF920F9370
:102350001F93CF93DF938C01C0901903D0901A0381
:10236000E0901B03F0901C038091A5029091A602BF
:10237000A091A702B091A802C82AD92AEA2AFB2A6A
:10238000CFE1D0E0BC2ED701C6010C2E04C0B6951B
:10239000A795979587950A94D2F780FD0EC021974F
:1023A00088F7B12C8B2DDF91CF911F910F91FF906A
:1023B000EF90DF90CF90BF900895B8018C2F0E94CE
:1023C0001810019761F3EECFCF93DF93EC010E94D9
:1023D000A211BE01DF91CF910C9418100E94E4115C
:1023E000292F2F7092959F7092509E3078F4E92F8C
:1023F000F0E0EA58FE4C0C943430803F19F020F4A1
:10240000883E20F481E00895843FE1F380E0089560
:10241000883EC0F3813FD1F7F5CF822F8695869510
:1024200086950895CF93DF93C6E0D2E060E0CE01B9
:102430000E94DD302196C11584E0D807B9F7DF91FD
:10244000CF9108950F931F93CF93DF938901843029
:1024500048F56A3038F5463028F521153C4531F409
:102460002091FB023091FC02232BE1F0C42FD0E03D
:10247000CC0FDD1F9CE0699FC00DD11D112498E792
:10248000899FC00DD11D1124612FCE0186960E9417
:10249000DD30602FCE018796DF91CF911F910F9194
:1024A0000C94DD30DF91CF911F910F9108958F92A1
:1024B0009F92AF92BF92CF92DF92EF92FF921F93C3
:1024C000CF93DF938090FB029090FC0281E090E03C
:1024D0009093FC028093FB0284E4C82E84E0D82E03
:1024E000D0E07601C0E014C0F50125913491412F70
:1024F0006C2F8D2F0E94221282E0A80EB11C1F5F4C
:10250000163091F78CE0E80EF11CCF5FCA3019F05D
:10251000570110E0E9CFDF5F88E7C80ED11CD43047
:1025200001F79092FC028092FB02DF91CF911F9104
:10253000FF90EF90DF90CF90BF90AF909F908F90E3
:1025400008951092A302EAECF1E086E0DF011D920B
:102550008A95E9F70C946E081F93CF93DF93CDB75C
:10256000DEB7AA970FB6F894DEBF0FBECDBF8DE0E1
:1025700093E02091F100DC012D93CD01B3E0853192
:102580009B07B9F780910E03833009F471C0B8F44A
:10259000813009F448C0823009F4B2C08091E8006B
:1025A00083FF3AC180910D0390910E039A3008F099
:1025B00033C1E92FF0E0EC57FE4C0C9434308A30F4
:1025C00009F48DC08B3009F470C0893039F78091DF
:1025D0000D03813219F78091110390911203009736
:1025E00011F00297D9F68091E800877F8093E80088
:1025F0008091E80082FF37C09091F3008091F20053
:10260000029729F48091F1008B7F813021F4809131
:10261000F100809301038091E8008B778093E800BC
:102620000E942105BBCF80910D03813A09F0B6CFFE
:102630008091E800877F8093E8008091110390915A
:102640001203892B61F468E082E093E070E00E945D
:10265000D3058091E8008B778093E8009FCF60E0FE
:1026600090E080E0F3CF809115038111C1CF96CF28
:1026700080910D03813A09F091CF809111039091DF
:102680001203892B09F08ACF8091E800877F80931D
:10269000E8008091E80080FFFCCF809127018093C3
:1026A000F1008091E8008E77B9CF80910D038132DF
:1026B00009F074CF8091110390911203892B09F0D6
:1026C0006DCF8091E800877F8093E8000E9421050C
:1026D00080910F03809327010E94A1125FCF809108
:1026E0000D03813209F05ACF8091E800877F8093F3
:1026F000E8000E94210580911003809300034ECFD3
:1027000080910D03813A09F049CF8091E800877FDD
:102710008093E8008091E80080FFFCCF8091000367
:10272000BECF803899F0823809F076C080911103CD
:102730008F70873008F070C08093E9008091EB00C3
:1027400085FB882780F91092E90006C080910A0372
:1027500090910B03911182609091E800977F909384
:10276000E8008093F1001092F1008091E8008E77EC
:10277000C0C1882309F4ADC1823009F04DC08091F9
:102780000F038111B1C1809111038F702FEF280FBA
:10279000263008F041C08093E9002091EB0020FF33
:1027A000A3C1933031F48091EB0080628093EB0001
:1027B0009BC19091EB0090619093EB0021E030E0A1
:1027C00001C0220F8A95EAF72093EA001092EA00EE
:1027D0008091EB008860EACF81111EC010910F0339
:1027E0001F778091E3008078812B8093E3008091B4
:1027F000E800877F8093E8000E9421058091E8002F
:1028000080FFFCCF8091E30080688093E30082E04A
:10281000111183E0809315038091E80083FF0AC0C3
:102820008091E800877F8093E8008091EB008062D0
:102830008093EB00AA960FB6F894DEBF0FBECDBF13
:10284000DF91CF911F9108958058823028F7209111
:102850000F03309110032C3DE3E03E07A1F583E028
:102860008A838AE289834FB7F894DE01139620E0C9
:102870003EE051E2E32FF0E050935700E49120FF57
:1028800003C0E295EF703F5FEF708E2F90E0EA306B
:10289000C0F0C7968D939D932F5F243159F74FBF9A
:1028A0008091E800877F8093E8006AE270E0CE01C3
:1028B00001960E94D3058091E8008B778093E80011
:1028C000ABCFC096E7CF8091110390911203432FB5
:1028D00055274330510509F44AC078F54130510578
:1028E00009F485C08BE590E0E5E8F7E0423051055A
:1028F00009F092CF2091E800277F2093E8002091F3
:102900001303309114038217930708F49C0140E0ED
:102910002115310509F070C041116EC08091E800A9
:1029200082FDC9CF80911503882329F2853019F2E1
:102930008091E80083FFF2CFBECF4132510509F408
:1029400047C04232510509F067CF8330910508F046
:1029500063CFFC01EE0FFF1FE754FE4F0190F081A3
:10296000E02D8A549E4FDC018C9190E01DC03327EE
:1029700021303105E9F02115310579F0223031059A
:10298000F9F02330310509F047CFE2EFF7E0E491A9
:102990008E2F90E0E2EFF7E007C0E8E6F8E0E49180
:1029A0008E2F90E0E8E6F8E0009709F435CFA2CF4B
:1029B000EEE4F8E0E4918E2F90E0EEE4F8E0F4CF5E
:1029C000E0E1F8E0E4918E2F90E0E0E1F8E0ECCF78
:1029D0008330910508F020CF880F991FFC01E15446
:1029E000FE4F0190F081E02D89E090E083CF82E1FD
:1029F00090E0E0EEF7E07ECF80911503882309F4A4
:102A00005ACF853009F457CF8091E80083FD53CF2A
:102A10008091E80082FD82CF8091E80080FF78CF2E
:102A20009091F3008091F2002115310519F0883062
:102A3000910550F041E0089709F040E08091E800EE
:102A40008E778093E80064CF44914093F1003196F3
:102A5000215031090196E8CF803809F0DDCE809110
:102A6000E800877F8093E80080910C038093F10059
:102A70007CCE8111D1CE10910F03123008F0CCCE54
:102A80008091E800877F8093E80010930C030E94F8
:102A90002105112311F084E005C08091E30087FD3A
:102AA000FACF81E08093150342E061EC81E00E945F
:102AB000400542E261EC84E00E94400542E261ECA4
:102AC00082E00E94400542E260EC83E00E94400503
:102AD000A3CE80910F03813009F09ECE81E0933028
:102AE00009F080E080930B031092E9008091E800E8
:102AF000877F8093E8000E9421058ECE0F931F935D
:102B000041E050E060E070E08A019B0104C0000FEA
:102B1000111F221F331F8A95D2F7C901B8010E94E5
:102B20000D091F910F910C94A1124F925F926F9219
:102B30007F928F929F92AF92BF92CF92DF92EF924D
:102B4000FF920F931F93CF93DF93FC016280448029
:102B500081E08483E4E4F3E07490E3ECF3E0E49157
:102B6000812C75E0972EF2E0CF2EDD24D394AA2499
:102B7000AA94B12C55245A94E7190E2F10E0809195
:102B80001A01881690F0DF91CF911F910F91FF905D
:102B9000EF90DF90CF90BF90AF909F908F907F90FD
:102BA0006F905F904F900C948A0CE82CF12C82E08F
:102BB000861568F09E9CF0019F9CF00D1124E45056
:102BC000FE4F8091ED0280838091EE02818341105F
:102BD00023C09E9CF0019F9CF00D1124E450FE4FF9
:102BE0001382128220911801C701820F911D9C014E
:102BF000220F331F280F391F28523E4F9E9CF00191
:102C00009F9CF00D1124E450FE4F42816181808130
:102C10000E94B1078394B3CF9E9CE0019F9CD00D8E
:102C20001124C450DE4F8B818823E9F081508B83BF
:102C3000859DC00111246C8170E00E940C30FB0165
:102C4000FF27EC5BFC4F8491E82FE719E59DC0015D
:102C50001124B8010E940C308091EF02689FB001EE
:102C600011247A83BFCF0E949C302091EF022695D9
:102C700021582C9DA0012D9D500D1124452F552725
:102C8000841795070CF0AECF82E0861588F40E9479
:102C90009C30B5010E94203088830E949C30209196
:102CA000EE022695622F70E00E942030280F2983C3
:102CB0009E9CF0019F9CF00D1124E450FE4F128267
:102CC0008091EF02893C58F088EC9E9CF0019F9C1B
:102CD000F00D1124E450FE4F8483838383CF84312D
:102CE000A0F784E1F2CF6BEE7EEF90E080E00E94EF
:102CF000FB3060E082E090E00E94DD3060E083E045
:102D000090E00E94DD301092A5021092A60210926F
:102D1000A7021092A80260E084E090E00E94DD30FB
:102D200060E081E290E00E94DD3060E085E090E0CC
:102D30000E94DD3060E086E090E00E94DD306FEFC1
:102D400087E090E00E94DD3040E050E0BA0188E08A
:102D500090E00E94EF3060E08DE090E00E94DD3076
:102D600040E050E0BA0188E190E00E94EF3060E07E
:102D700087E190E00E94DD3040E050E0BA018CE154
:102D800090E00E94EF3060E080E290E00E94DD3051
:102D900040E050E0BA0188E190E00E94EF3040E06E
:102DA00050E0BA018FE090E00E94EF3040E050E048
:102DB000BA0183E190E00C94EF308B3109F474C0D8
:102DC00040F58B3071F078F4863009F456C020F469
:102DD000853059F180E00895873009F457C0883074
:102DE000C9F781E00895803109F46CC068F48E3031
:102DF00089F79091DD02892F8B7F92FF8460809309
:102E0000DD0282FD5BC0EDCF863159F3893149F394
:102E1000E1CF8A3279F1E0F4873241F120F48E314A
:102E2000C8F28D5124C08932A9F68091FB0290919D
:102E3000FC02892BB1F20E94A1122FEF84E39CE0E7
:102E4000215080409040E1F700C000000E9437060A
:102E5000833448F48A3308F040C0853339F088332E
:102E600009F4BFCFB7CF833409F0B4CF80E00E941C
:102E70007E15B7CF0E947316B4CF8091DD02807F9C
:102E80008093DD0281E080933E0208959091DD02FF
:102E9000892F8E7F90FF81608093DD0280FDA1CF1E
:102EA000817F8093DD029DCF9091DD02892F8D7F00
:102EB00091FF82608093DD0281FF93CF8091DD02DC
:102EC0008160EFCF9091DD02892F877F93FF88602B
:102ED0008093DD0283FDF2CF84CF8953C8CFCF9397
:102EE000C82F882309F491C08238C1F40E948A0750
:102EF00081FD8BC089E30E94AF060E9475062FEF0B
:102F000081EE94E0215080409040E1F700C0000045
:102F100089E30E94A206CF910C9475068338A1F430
:102F20000E948A0780FD71C083E50E94AF060E945F
:102F300075062FEF81EE94E0215080409040E1F73C
:102F400000C0000083E5E5CF8438A1F40E948A0721
:102F500082FD5BC087E40E94AF060E9475062FEFDA
:102F600081EE94E0215080409040E1F700C00000E5
:102F700087E4CFCF8CEF8C0F813A08F088C0809126
:102F80003E028130F9F0882399F08230B1F110923D
:102F90003E02EAECF1E080ED91E02191C21709F4E4
:102FA000AAC08E179F07C9F78C2F0E94AF06B3CF18
:102FB0008091A302823269F78C2F0E94DD16811165
:102FC00024C0E7CF8091A3028232B1F3C43171F003
:102FD00038F4CB3049F0C03161F080E08170EFCF40
:102FE000C93221F0C833C9F781E0F8CF10923E0210
:102FF000F4CF82E080933E02F7CFC93221F190F402
:10300000C43109F120F4C73089F1CF910895CE5130
:10301000C630D8F7EC2FF0E0E559FE4F8081809361
:103020003D02F3CFCE3401F140F46AE0CB3469F7CE
:1030300080913D02CF910C94320BC13579F061E063
:10304000C235B1F3E2CF80913D02882319F010928E
:103050003D02DBCF81E080933E02D7CF61E08091DB
:103060003D02CF910C94E20A6AE0F9CF1092D202AD
:1030700084E180931C01C09315018CE380931401BB
:1030800088E08093130188E280931201BECF80E232
:103090008C0F883068F4C77021E030E001C0220F47
:1030A000CA95EAF78091A302822B8093A30233CFC3
:1030B000EBE5EC0FE33040F4F0E0EB58FE4F80819D
:1030C00090E0CF910C947407E8E5EC0FE73150F4F1
:1030D000F0E0EE0FFF1FE858FE4F80819181CF9105
:1030E0000C945E07C03F08F490CF8C2F0E947A0AA0
:1030F000CF910C9447088C2F0E94A2060E9475065F
:1031000053CF1F93CF93DF93182FD0E0C0E08933C4
:1031100011F4C0E5D0E0812F0E946F17209731F4A1
:10312000812FDF91CF911F910C949A098FE99FE035
:103130000197F1F700C000002197F0CF0F931F9384
:10314000CF93DF93C62FD42F022FFC0182818823D7
:10315000A1F0609318030E94630690931703809375
:103160001603C77081E001C0880FCA95EAF7DF91A6
:10317000CF911F910F910C945407809118036813FD
:1031800035C080911603909117030E944806883C31
:10319000910560F510E21D0FCD17B9F080E28C0F9C
:1031A000883040F4C77081E001C0880FCA95EAF703
:1031B0000E944907183048F481E09D2F977001C0A4
:1031C000880F9A95EAF70E945407802F0E94811871
:1031D000183098F4D77081E001C0880FDA95EAF7CB
:1031E000DF91CF911F910F910C944907C77081E037
:1031F00001C0880FCA95EAF7F3CFDF91CF911F91F5
:103200000F910895AF92BF92CF92DF92EF92FF920B
:103210000F931F93CF93DF93EC018AE0A82E2881B0
:10322000222309F48CC02130C9F599818A8191301B
:1032300021F422960E94811805C0923029F422962A
:103240000E946F172196EBCF933021F422960E94B3
:103250009A09F8CF943011F02196F4CF229630E0FD
:1032600020E0AE014F5F5F4F8053990B8A3091058C
:1032700050F02150310930F38FE99FE00197F1F7C9
:1032800000C00000F6CFA29EB001A39E700D1124D5
:103290009C01260F371F8981EA01E3CFE22FF0E07E
:1032A000E154FE4FB490822F86958695869590E0E6
:1032B000FC01E155FE4FE4902770F12C022E02C074
:1032C000F594E7940A94E2F731E0E322FF24FC014D
:1032D000E156FE4FC490D12C022E02C0D594C79463
:1032E0000A94E2F731E0C322DD24FC01E157FE4FEE
:1032F000049110E002C0159507952A95E2F7017038
:103300001127E114F10419F081EE0E946F17C11426
:10331000D10419F086EE0E946F178B2D0E94811840
:10332000CD2819F086EE0E949A09EF2819F081EE57
:103330000E949A09012B09F485CF8CE27BCFDF91A3
:10334000CF911F910F91FF90EF90DF90CF90BF90A2
:10335000AF900895CF92DF92EF92FF926B017C01C4
:103360000E94A207B701A60188E090E0FF90EF90CD
:10337000DF90CF900C94EF30AF92BF92CF92DF925C
:10338000EF92FF920F931F93CF93DF9300D00F9292
:10339000CDB7DEB7182FF62E042FE22E9091EC0257
:1033A00090FF3AC0E92FE695AE2FB0E0A05CBE4F8B
:1033B0008C918093CC029E7F9230E1F59E012F5F2D
:1033C0003F4F812F0E94B1074B8169818A810E9402
:1033D000FF0E8091ED02811308C08091EE028F11E3
:1033E00004C08091EF02801729F08091CE028260A4
:1033F0008093CE021093ED02F092EE020093EF0262
:10340000EE2051F06091EC027091ED028091EE029D
:103410009091EF020E94AA190F900F900F90DF91E8
:10342000CF911F910F91FF90EF90DF90CF90BF90C1
:10343000AF900895823019F40091EF02CACF863020
:1034400019F41091ED02C5CF8930D9F3893109F60D
:10345000E9518E2F8170D82EE695F0E0E15CFC4FAB
:10346000A590B490C12CBB2460911A01C61618F027
:103470000E948A0CAECF2C2D30E0A29EC001A39EEC
:10348000900DB29E900D112470E00E940C30812F9F
:10349000D11013C0860F40911801420F532F511DB8
:1034A0009A01220F331F240F351F28523E4F402F01
:1034B0006F2D0E94B107C394D7CF861BECCFECEEE3
:1034C000F2E0438121E1421B08F440E021E0628107
:1034D00081810C94BC19ECEEF2E0438121E1420FB2
:1034E00008F44FEF21E0628181810C94BC19ECEE6D
:1034F000F2E0628121E1621B08F460E021E0438197
:1035000081810C94BC19ECEEF2E0628121E1620F42
:1035100008F46FEF21E0438181810C94BC19ECEE3B
:10352000F2E0818121E04381628188500C94BC19D2
:10353000ECEEF2E0818121E043816281885F0C94AE
:10354000BC198091F002882319F081508093F00219
:103550006091EC027091ED028091EE029091EF0289
:103560000C94AA198091F002833018F48F5F809335
:10357000F0026091EC027091ED028091EE02909168
:10358000EF020C94AA19ECEEF2E083E08083118242
:103590008FEF828383831482ACECB2E012968C911D
:1035A0001297836012968C936081718182819381DE
:1035B0000C94AA198F929F92AF92BF92CF92DF92F2
:1035C000EF92FF920F931F93CF93DF9300D000D021
:1035D0000F92CDB7DEB706EA11E081EBC82E82E08C
:1035E000D82E4601F12CAA24A394B12CD8018D9198
:1035F0008D01F894E82FE295EF70F0E021A18F7033
:10360000A50102C0440F551F8A95E2F7CA01922F07
:10361000982B91A392A18095892382A3789400C0CE
:10362000E0EBF1E030E020E0E12C4191A42FA29505
:10363000AF70B0E090968C9190E04F7002C095957D
:1036400087954A95E2F780FD48C08A2D022E01C079
:10365000880F0A94EAF7E82A2F5F3F4F263031059A
:1036600021F7F801319780810E94A80B50EA5A9502
:10367000F1F7D4018C91E81691F1EC9281E0F82AEF
:10368000BFEF8B1A9B0AE1E00B3A1E0709F0AECFA1
:103690001091BC02FF2029F181E08093D2010E94A9
:1036A00063069093D1018093D0018091D0019091D5
:1036B000D1010E9448060697C0F0E12FF0E0EF50DC
:1036C000FD4FD6018D916D018193B6EBCB16B2E023
:1036D000DB06B9F71092D20108C080E0BCCF80E0D1
:1036E000CECF8091D2018111E0CF0E94AC0FE82EA5
:1036F0006091BC02882309F455C08E010F5F1F4FF3
:1037000085E0F80111928A95E9F7862F90E0B801DB
:103710008F509D4F0E94E62D811127C08091D301CB
:103720008F5F8093D3018630D8F1E091BB02F0E047
:10373000EF50FD4F10821182128213821482F11019
:1037400001C0FE2C8F2D0F900F900F900F900F90B7
:10375000DF91CF911F910F91FF90EF90DF90CF906D
:10376000BF90AF909F908F9008951092D301A09139
:10377000BB02B0E0AF50BD4F9E012A5F3F4FE12C2E
:103780004D91F80191918F01491731F0AD014150F0
:103790005109FA019083E82E0217130789F7CFCF5A
:1037A000E12CCDCF70E06F507D4F8091BB0290E057
:1037B0008F509D4F0E94112EC2CF1F920F920FB6B5
:1037C0000F9211242F933F934F935F936F937F93A7
:1037D0008F939F93AF93BF93CF93DF93EF93FF9319
:1037E000D091E900DF708091EC00C82FC17080FD9E
:1037F000C0E81092E9008091F000877F8093F0008C
:1038000078940E94AC121092E9008091F0008860D8
:103810008093F000CD2BCF70C093E900FF91EF9122
:10382000DF91CF91BF91AF919F918F917F916F91D8
:103830005F914F913F912F910F900FBE0F901F906E
:1038400018951F920F920FB60F9211242F933F934A
:103850004F935F936F937F938F939F93AF93BF9398
:10386000EF93FF938091E10082FF09C08091E20015
:1038700082FF05C08091E1008B7F8093E100809101
:10388000DA0080FF24C08091D80080FF20C08091A2
:10389000DA008E7F8093DA008091D90080FF9BC090
:1038A00080E189BD82E189BD09B400FEFDCF81E0E0
:1038B000809315038091FF02811109C00E947F044B
:1038C0000E9472058091E20084608093E200809102
:1038D000E10080FF17C08091E20080FF13C080915B
:1038E000E2008E7F8093E2008091E200806180930D
:1038F000E2008091D80080628093D80019BC85E0F6
:10390000809315038091E10084FF29C08091E2003B
:1039100084FF25C080E189BD82E189BD89B5982FEA
:10392000917080FFFBCF8091D8008F7D8093D8006D
:103930008091E1008F7E8093E1008091E2008F7E94
:103940008093E2008091E20081608093E2008091A8
:103950000C03882309F445C084E08093150380910B
:10396000E10083FF27C08091E20083FF23C08091A4
:10397000E100877F8093E10082E08093150310923D
:103980000C038091E1008E7F8093E1008091E20042
:103990008E7F8093E2008091E20080618093E2005C
:1039A00042E060E080E00E9440058091F000886085
:1039B0008093F000FF91EF91BF91AF919F918F9114
:1039C0007F916F915F914F913F912F910F900FBE1B
:1039D0000F901F90189519BC109215031092FF02BA
:1039E00076CF8091E30087FD93E090931503B7CFE6
:1039F0000F931F930E94AC0F882321F01F910F910A
:103A00000C9457060E9457060091AD021091AE0229
:103A10002091AF023091B002600F711F821F931F7F
:103A20001F910F9108950E94AC0F81110C946306B1
:103A30000E94F81CCB0108956091EC02669570E03D
:103A40004BE050E084E091E00E94B530892B19F4FE
:103A500081E08093CD020E94131D9093C702809352
:103A6000C6028091CE0284608093CE020895909128
:103A7000EC0290FF3BC0917081112EC09260909338
:103A8000EC028091CE0281608093CE02662351F0D9
:103A90006091EC027091ED028091EE029091EF0244
:103AA0000E94AA196091EC02669570E04BE050E02C
:103AB00084E091E00E94B530892BA9F00E949B0719
:103AC00081E08093C90220E04091EF026091EE0214
:103AD0008091ED020C94BC198B3210F09465CFCF1D
:103AE000880F982BCCCF0E941C1DEACF089580919F
:103AF000EC028695815009F48AE261E00C94371D4E
:103B00008091EC0286958F5F8B3208F081E061E056
:103B10000C94371D9091EC0290FF07C09695981772
:103B200020F0961710F40C94801D61E00C94371D62
:103B30004F925F926F927F928F929F92AF92BF92BD
:103B4000CF92DF92EF92FF920F931F93CF93DF9369
:103B500000D000D00F92CDB7DEB77C01FC0183818D
:103B60009481892B31F08081918189238F3F09F0E5
:103B700031C50F900F900F900F900F90DF91CF9164
:103B80001F910F91FF90EF90DF90CF90BF90AF907B
:103B90009F908F907F906F905F904F9008950E94BC
:103BA000A211182F682F89819A810E94F1066981DC
:103BB0007A81812F0E9405108C01F701928199234F
:103BC00009F4FDC4980122513F452031310508F028
:103BD000CFC48FEF93E00E94C9304EEED42ED00EAA
:103BE00006E012E08823D1F08091A002877009F4EA
:103BF000C0CFF7018281882309F4BBCF82E00E9405
:103C0000D408B7CF0115F4E01F0771F3C8010E9473
:103C1000C930811101C0DA940F5F1F4FD110F2CF6C
:103C200019821A821B821C82CC24CA9448012FEF6D
:103C3000821A920AC8010E94C93089831A82882395
:103C400099F2813009F047C0580132E0A30EB11C4F
:103C5000C4010E94C930982E8A83882329F2C501A5
:103C60000E94C930D82E8FEF890D833068F4580137
:103C700043E0A40EB11CDB82DD2021F0CE010196D1
:103C80000E9402198501D2CF54E09512FBCF580152
:103C900084E0A80EB11CC80103960E94C930DD2043
:103CA00009F4A2CF882309F49FCF8150990BC89EB5
:103CB0009001C99E300D1124ED2DE150FF0BCF0175
:103CC000820F931F0197F0F2EFE9FFE03197F1F7D0
:103CD00000C00000F7CFCE0101960E9402195401E6
:103CE000D1CF81E00E94EC080E9495087DCF81E051
:103CF0000E94B108F9CF82E0F5CF053FECE51E0741
:103D000009F45EC008F458C0063F2CE5120709F418
:103D10005BC0992309F46FC41092180302303CE58C
:103D2000130708F431C106314CE5140738F0980147
:103D30002A5F3C452930310508F026C10E94C80F92
:103D40009093BE028093BD0200315CE5150709F433
:103D5000EAC008F078C008309CE5190709F4D9C01A
:103D600008F047C00430FCE51F0709F4C6C098F509
:103D700002303CE5130709F4BAC08091BD028260AD
:103D800003301C4509F4B6C06091BD021091BE021B
:103D900084E090E00E94DD30612F81E290E00E949B
:103DA000DD300E94A11220CF27E245EE65EE03C46C
:103DB00026E241EE60EEFFC327E245EE64EEFBC370
:103DC00026E241EE62EEF7C327E245EE66EEF3C36C
:103DD00028E241E0EBCF8091BD02806106305CE5D6
:103DE000150709F487C008F48CC08091BD02806279
:103DF00081C08091BD028D7F0C309CE5190709F4CC
:103E000079C070F48091BD028C600A30FCE51F0718
:103E100009F470C008F481C08091BD028E7F6AC031
:103E20008091BD02877F0E303CE5130709F462C024
:103E30008091BD028B7F0F301C4508F45BC08091E0
:103E4000BD028F7E57C00B3F5CE5150709F45DC0CE
:103E500030F503319CE5190709F46DC078F40131A0
:103E6000FCE51F0709F463C002311C4509F08CCF43
:103E70000E94A1128091BD028F773CC005313CE5C4
:103E8000130709F460C008F474C08091BE02816019
:103E90000A3F1C4509F078CF8093BE0275CF0F3FD3
:103EA0008CE5180709F44BC088F48091BE028D7F21
:103EB0000D3FECE51E0781F38091BE028E7F0E3F21
:103EC0001C4550F38091BE028360E6CF01302DE5A2
:103ED000120709F457C008F442C060E002301D45E3
:103EE00009F052CF8EE090E00E94DD304DCF8091FE
:103EF000BD0281608093BD0247CF8091BD02846086
:103F0000F9CF8091BD028860F5CF8091BE028260BA
:103F1000C3CF8091BD028064EDCF0E94A112809139
:103F2000BD028068E7CF8091BD028F7DE3CF809195
:103F3000BD028F7BDFCF8091BD02837FDBCF80917D
:103F4000BE028C7FA9CF8091BD0282FB992790F998
:103F500021E0922790FB82F990FB83F9CBCF8091EF
:103F6000BE02982F909591708E7F892B90FB81F9DE
:103F700093CF0E94A1129091BD02892F97FB87F9E0
:103F80008058B8CF61E0AECF06315CE5150709F087
:103F90003FC38091A3028A7A91E009F490E0909364
:103FA0003C02811106C089E20E94AF060E9475069C
:103FB0001BCE85E3F9CF85E328C38091EC0280FF17
:103FC00020C08E7F8093EC026091EC027091ED0234
:103FD0008091EE029091EF020E94AA190E949B0725
:103FE0008091CE0281608093CE028FEF90E7E2E075
:103FF00081509040E040E1F700C000000E948A0C30
:10400000F3CD81608093EC0261E086950E94371DBC
:10401000EBCD47E75DE160E87DE10E949607E4CDE6
:1040200040E85DE167E77DE1F8CF4FE85AE168E9F4
:104030007AE1F3CF48E95AE16FE87AE1EECF47E75A
:104040005AE163E87AE1E9CF43E85AE167E77AE1C8
:10405000E4CF4FE55AE16BE67AE1DFCF4BE65AE178
:104060006FE57AE1DACF41EA5AE162EB7AE1D5CF46
:1040700042EB5AE161EA7AE1D0CF61E081E0C6CF5C
:1040800065E082E00E948A1DAFCD68E086E0FACF4D
:104090006EE089E0F7CF64E18FE0F4CF67E185E17E
:1040A000F1CF61E088E1B2CF62E289E1EBCF61E07C
:1040B00083E2ACCF0E94A112FFEF24E33CE0F15079
:1040C00020403040E1F700C000000E9437060E9407
:1040D00073168ACDC8010E94C806D82EB0C2212FFF
:1040E0002F70A22E107F19F0A29490EFA922DD204C
:1040F000C9F0AA2069F080E2800F883010F08110AA
:104100000BC08091A302A82AA092A3020E94750668
:10411000802F0E946F1718C08091A202A82AA09237
:10412000A202F4CF802F0E949A09AA2069F0A094DD
:10413000005E083010F0811028C08091A302A822F0
:10414000A092A3020E9475062B2D2850330B243019
:10415000310510F40E948A07CC2009F40ACD809121
:10416000A00280FD06CDF701128285958595859583
:104170000E94EC08C7010E94981D8091A0028595BD
:10418000859585950E94B108F4CC8091A202A82261
:10419000A092A202D7CF312F3F70932E107F103202
:1041A00019F0929480EF9822882071F041E08416F3
:1041B00061F1DD20B9F1AA2071F1F701858180FF5D
:1041C000A7CF8F70858327C0DD2091F09091A40246
:1041D000892D892BA11003C00E945407B5CF51E04F
:1041E000A512FACF981709F4AFCF8093A402ACCFF1
:1041F000A11006C00E946F06892D0E944907A4CF16
:1042000081E0A81609F4A0CFF5CFDD2031F095E0CC
:104210009A1508F499CF892DDFCFE4E0EA1508F468
:1042200093CFEACFAA2041F3F9E38F1209C02FEF11
:1042300037EE43E0215030404040E1F700C000003D
:10424000802F0E949A0980CF812F86958695837052
:1042500061F0813009F078CFC8019370D11002C0AD
:1042600090E080E00E945E076FCFC8019370D1108C
:1042700002C090E080E00E94740766CF802FDD20AE
:1042800039F00E947A0A0E9447080E9447085CCFD2
:104290000E941709FACF812F837009F066C0D110F0
:1042A00053CF802F829586958770880F880F602F57
:1042B0006F70462E512C712C612C082E04C0440CBA
:1042C000551C661C771C0A94D2F740E050E0BA01F6
:1042D00004FF0FC04FE050E060E070E004C0440F06
:1042E000551F661F771F8A95D2F7409550956095A8
:1042F0007095812F869586958370823019F1D8F458
:104300000091A5021091A6022091A7023091A80267
:10431000813069F04429552966297729CB01BA01F2
:1043200060237123822393230E940D090DCF402A1D
:10433000512A622A732ACB01BA0164297529862978
:104340009729F2CF44295529662977290091A5029A
:104350001091A6022091A7023091A802CB01BA01C8
:104360006027712782279327DFCF8695DD2011F004
:10437000812F8170882309F4E7CE802F829586955E
:104380008770880F880F602F6F70462E512C712C0C
:10439000612C082E04C0440C551C661C771C0A9422
:1043A000D2F740E050E0BA0104FF0FC04FE050E008
:1043B00060E070E004C0440F551F661F771F8A95A8
:1043C000D2F74095509560957095812F869586958A
:1043D0008370823019F1D8F40091190310911A03F7
:1043E00020911B0330911C03813069F04429552929
:1043F00066297729CB01BA01602371238223932395
:104400000E948B08A1CE402A512A622A732ACB012E
:10441000BA016429752986299729F2CF442955299B
:10442000662977290091190310911A0320911B0323
:1044300030911C03CB01BA01602771278227932793
:10444000DFCF1F70DD2029F0812F0E94EC08802F24
:10445000C3CE802F0E944907812F0E94B10874CEDD
:10446000802F52EF851609F450C0581578F090EF60
:10447000891619F1E1EF8E1609F43FC0DD2009F429
:1044800067C0A11045CE812F8F713CC0F3EF8F160E
:1044900009F440C024EF8212F1CFDD2009F44DC0B1
:1044A0001F71812F0E94EC0858E0159FC001112454
:1044B00083608093A002812F25C0DD20C9F034E005
:1044C0003A1508F441CE1F7161E070E080E090E0A1
:1044D00004C0660F771F881F991F1A95D2F70091A5
:1044E000190310911A0320911B0330911C03A4CFD0
:1044F00045E04A1508F428CEE6CF812F8F71DD20E4
:1045000009F4ABCF0E94EC081FCE812F8F71DD2004
:10451000C9F3A3CF60E070E0CB01DD2009F470CFD8
:104520001F7161E070E080E090E004C0660F771FCB
:10453000881F991F1A95D2F763CF81E00E94D40893
:1045400081E08A1508F000CE82E00E94D408FCCDFC
:10455000AA2059F0893309F073CE9FEFE7EEF3E01C
:104560009150E040F040E1F769CE812F8F7175CF17
:104570000031FFE51F0709F4B4CB01312FE5120725
:1045800009F4B9CB033F2CE5120709F411CC08F06C
:10459000B4CB083D4CE5140709F406CC093D5CE5B5
:1045A000150709F415CC073D8CE5180709F0B1CBC8
:1045B00026E241EE61EEC7010E949E1815CB003144
:1045C0003FE5130709F493CB01314FE51407D1F60A
:1045D00082E08ECB85E0DE01119601900D928A95E6
:1045E000E1F7F701228189819A812111D8CA0E94BD
:1045F000C806182FDCCA0631FCE51F0709F052C0B7
:1046000080913C028111D7CC89E20E94A206CECCD7
:1046100001152CE5120709F44DCD0E3D1C4509F49A
:1046200056CDF70100811181992309F453CDC801BA
:104630000E94A211D82E682FC8010E94F106B8016D
:104640008D2D0E9418108C01882EF701D280A58034
:10465000A2943FE0A3228091A0028770A1F0CD2C0C
:10466000DD2091F0812F807F803421F080E2800F67
:10467000883048F082E00E94D4088091A0028770C0
:10468000CC24C3948111C12CB12EB2942FE0B2225C
:10469000FBE0FB1508F458CDEB2DF0E0E257FE4CA3
:1046A0000C9434308091A3028272F801E25CFC45E4
:1046B000E431F10508F0B5CFE656FE4C0C943430E9
:1046C0001F93CF93DF9380914502807FA9F480915F
:1046D0004202882389F080917702D091460260914E
:1046E000400270914102A0914302B0914402C62F52
:1046F000C72316E0D81304C0DF91CF911F9108950E
:1047000090E0109711F0CF3F19F401968770F2CF27
:10471000189F9001199F300D1124F901E95BFD4F9D
:1047200041814713F2CF40814613EFCF42814111BF
:10473000ECCF438154814A1B5B0B483C510528F761
:10474000809145028F70806180934502F901E45B9E
:10475000FD4F80818F708061808380E492E00E94B1
:10476000981DDF91CF911F910C943F078F929F92DC
:10477000AF92BF92CF92DF92EF92FF920F931F936F
:10478000CF93DF93CDB7DEB761970FB6F894DEBF56
:104790000FBECDBF8C0185E0F801DE011D960190B2
:1047A0000D928A95E1F7D801EC901196DC90119763
:1047B0001296CC90129780E4882E82E0982E409139
:1047C0004302509144024115510509F443C19091AF
:1047D000400220914102892F82238F3F09F43AC180
:1047E0001396AD90BC901497F0904202F501E41B33
:1047F000F50BFF2009F4FFC080914502382F307F70
:10480000E83CF10508F0C8C0311185C0FC2C2D1121
:1048100024C09E1122C0C11020C08F70806180937F
:104820004502C4010E94981D80914502D801159649
:104830008C938F2D61960FB6F894DEBF0FBECDBF5F
:10484000DF91CF911F910F91FF90EF90DF90CF906C
:10485000BF90AF909F908F900895A114B10429F05C
:104860008E2D8D218F3F09F016C180E080FF14C08E
:104870004C2D6D2D8E2D0E941F07882369F080E43A
:1048800092E00E94981D86E0E0E4F2E0DF011D92D4
:104890008A95E9F7F12CCDCFAB2829F08E2D8D210B
:1048A0008F3F09F0F5C080E0B82FB170AB2E80FFCC
:1048B00029C04C2D6D2D8E2D0E941F07B82E811101
:1048C00021C0ED86DE868D859E850E94E411292F0C
:1048D00022952F70223050F0243078F49F7051F0E0
:1048E000F8019581907F31F4FB2CA3CF9F7011F0DC
:1048F0008823D1F3805E8830B8F3C8010E94981DE8
:10490000BA2CF2CFCC2009F494CF8091450281607B
:1049100080934502BFCF2D1112C09E1110C0C1104F
:104920000EC015968C93C8010E94981D86E0F80170
:10493000A0E4B2E001900D928A95E1F77ACFED867E
:10494000DE868D859E850E94EE11882309F1CC209C
:10495000F9F080914502803270F020914002309150
:10496000410238872F831986BB86AA868C87CE01A1
:1049700007960E94981D86E0F801A0E4B2E001903D
:104980000D928A95E1F70E946023FF24F39451CFA2
:10499000C8010E94981DF9CF332309F470CF2D115F
:1049A0000FC09E110DC0C1100BC0F8018583C80156
:1049B0000E94981D86E0D4011D928A95E9F739CFAF
:1049C000ED86DE868D859E850E94EE11882301F39B
:1049D000CC20F1F280914502803268F220914002B1
:1049E000309141023A8329831B82BD82AC828E833F
:1049F000CE010196BECFE83CF105E0F6FC2CCC20C0
:104A000039F22D1116C09E1114C08091450280FD0F
:104A10008DCF982F907F09F489CFF8018583903F3F
:104A200009F481CF982F907F905F8F70892B8583B9
:104A30007ACFED86DE868D859E850E94EE118111EE
:104A40009ACF80914502816080934502C8010E94FF
:104A5000981DEFCECC2009F49BCFED86DE868D85A8
:104A60009E850E94EE11F82E882309F491CF86E0EE
:104A7000F801A0E4B2E001900D928A95E1F78091EF
:104A80004002909141020E94E4110E946023D1CE25
:104A900081E08C2509CF81E08C25E8CE1F93CF9350
:104AA000DF93CDB7DEB767970FB6F894DEBF0FBEC2
:104AB000CDBF342F4B8B252F5C8B6D8B7E8B8F8BDB
:104AC0008E899F8961111092A2021A8A198A3D87E4
:104AD0002E876F87998B888B86E0FE013D96DE01DD
:104AE000179601900D928A95E1F7CE0107960E94E4
:104AF000B623882389F016E08091770290914602D0
:104B0000891349C067960FB6F894DEBF0FBECDBFBC
:104B1000DF91CF911F91089586E0FE013796DE0167
:104B2000119601900D928A95E1F78A859B85892BD4
:104B300011F38F81988589238F3FE9F220914602F6
:104B400030E0C90101968770992740917702481794
:104B5000190671F40E94A112109246021092770277
:104B600086E0E0E4F2E0DF011D928A95E9F7C3CF29
:104B700096E0929FD001939FB00D1124A95BBD4F89
:104B8000FE01319601900D929A95E1F780934602CD
:104B90000E943F07B0CF819FC0011124895B9D4FC8
:104BA0000E94B623882309F4ADCF8091770290E06C
:104BB000019687709927809377029ECFCDB7DEB795
:104BC000E2970FB6F894DEBF0FBECDBF84B7877FE4
:104BD00084BF0FB6F894A895809160008861809397
:104BE0006000109260000FBE80E890E00FB6F8946D
:104BF00080936100909361000FBE85B7806885BF88
:104C000085B7806885BF82E396E09093C701809363
:104C1000C6010E947F040E9472058091E2008460B8
:104C20008093E2007894809115038823A1F010917D
:104C3000E9001F709091EC00892F817090FD80E851
:104C4000182B1092E9008091E80083FD0E94AC12BD
:104C50001F701093E90082E084BD93E095BD9AEF48
:104C600097BD80936E001092AD021092AE0210922A
:104C7000AF021092B0028EE090E00E94C93091E045
:104C8000811101C090E090931B0180911B0188234A
:104C900009F468C01092160186E0809317010E9403
:104CA000AC0F81110E94BD2D80911B0180911B01D1
:104CB00095E0811190E09093BC0285E0891B809380
:104CC000BB0287EF0E94A80B81E30E94A80B83E33D
:104CD0000E94A80B82E30E94A80B86E30E94A80B07
:104CE00084E90E94A80B86E60E94A80B87E90E942F
:104CF000A80B86EC0E94A80B84E30E94A80B85E316
:104D00000E94A80BE1EBF2E08BEB92E0A1EFB2E0A6
:104D100011921D928E179F07D9F70E94DA1A8FE31E
:104D20009CE90197F1F700C000000E94DA1A809117
:104D3000F10280FF1BC06FEF82E290E00E94DD3045
:104D40006FEF83E290E00E94DD306FEF84E290E04D
:104D50000E94DD306FEF7FEF90E080E00E94FB303B
:104D60000E94370686E08093160197CF90E080E09E
:104D70000E94D7308B3E9E4F11F00E9473160E9406
:104D8000AC0F811102C00E94C32D82E290E00E940C
:104D9000C930843609F016C683E290E00E94C9301B
:104DA0008F3809F00FC684E290E00E94C930863146
:104DB00009F008C690E080E00E94D7308B3E9E4FFD
:104DC00011F00E94731682E090E00E94C930809337
:104DD000DD020E94C80F9093BE028093BD0283E063
:104DE00090E00E94C930682F70E090E080E00E945F
:104DF0000D098091BF0281113BC090E080E00E94CC
:104E0000D7308B3E9E4F21F00E9473160E94C31A2A
:104E100088E090E00E94D1306093EC027093ED0244
:104E20008093EE029093EF028091CE028360809394
:104E3000CE026E7F71F40E94C31A88E090E00E9457
:104E4000D1306093EC027093ED028093EE02909368
:104E5000EF020E94A2070E949B078091EC0280FF54
:104E600004C060E086950E94371D81E08093BF02F8
:104E70008DE191E09093C1028093C00228E1422E1F
:104E8000512C30E4232E81EF92E04AE0342E380E8C
:104E90008091150300E112E1853009F4A7C10E9459
:104EA000DA1A81110E945706AEEDB2E0E1EFF2E0AE
:104EB00010E000E0C02EF1908D918F1509F4A5C18E
:104EC0008F25D12CEE24E394982F9E2109F498C1CC
:104ED0000E94AC0F882399F0D9A6CAA6FE2081E0D3
:104EE00009F480E08BA70E9463068160782F9DA75C
:104EF0008CA749A55AA56BA58DA50E944E25F80142
:104F0000E252FD4F8081E826E0828091CD02882325
:104F100009F464C08091CC02E091EC02E695E81BB4
:104F2000E093C802823009F087C1F0E0EB5CF94FF2
:104F3000E4910E2F10E091E7E92E9FE0F92E809189
:104F4000C902882361F01092C9020E94131D909338
:104F5000C7028093C6021092CB021092CA020E942E
:104F6000131DE091C602F091C7029C012E1B3F0B5E
:104F70002F3F3F4798F52091C5022223B1F01092B0
:104F8000C5022091C3023091C402821B930B8F3F54
:104F90009F4758F4205D3A483093C4022093C302DF
:104FA0008091CE0288608093CE02C090CA02D090D9
:104FB000CB02E00FF11FF093C702E093C60286EC2C
:104FC00092E0F70109958091CA029091CB02892B5A
:104FD00029F4CD2819F081E08093C50286E0E6ED42
:104FE000F2E0DE01119601900D928A95E1F7E090D2
:104FF000D802F090D9021091DA020091DB021092EF
:10500000D8021092D9021092DA021092DB028E2D91
:105010008F2991F08091D4029091D5020E94480688
:10502000AC019091D302992309F472C180911C01C3
:105030008417150608F47AC1812F802B09F448C023
:105040008091D0029091D1020E9448069C019091DB
:10505000CF02992309F4D8C425363105C8F19F3F02
:1050600019F09F5F9093CF02112359F00E94F70926
:105070009FEF11160CF491E0899F802D11248093ED
:10508000DA02002359F00E94F7099FEF10160CF482
:1050900091E0899F802D11248093DB023091DA0208
:1050A0003323B1F02091DB02222391F045EB34034E
:1050B000C0011124992309F478C19093DA0245EBD9
:1050C000240390011124332309F473C13093DB02CC
:1050D0008091D8029091D902892B9091DA02892B84
:1050E0009091DB02892B11F00E94470886E0FE01B7
:1050F0003196A6EDB2E001900D928A95E1F70E94FB
:105100008A079091DC02891721F00E948A07809318
:10511000DC0280911503843009F0BACE83E08093DD
:10512000E9008091E80082FFB3CE8091E80090E032
:1051300085FF06C00E949E04882309F43EC191E0C9
:105140008091E8008B778093E800992309F4A0CE42
:105150000091FD021091FE0289810115110509F4EB
:1051600048C18E3F09F0D8C18A81833020F0855034
:10517000833008F0D1C1EA81E93008F0CDC1F0E018
:10518000E255FE4C0C94343080911503843009F1C3
:105190001092C2020FB6F894A895409260000FBE1C
:1051A0002092600083B7817F846083BF83B7816072
:1051B00083BF7894889583B78E7F83BF0FB6F894AA
:1051C000A8958091600088618093600010926000D3
:1051D0000FBE80910B03882349F00E94DA1AE1EF99
:1051E000F2E081918111D8C33E12FBCF809115036B
:1051F000853009F4C9CF0E94A1120E948A074FCEC0
:10520000D394EE0C36E0D3125FCE0F5F1F4F0A30FF
:10521000110509F04FCE8FEF8EA78FA718AA0E9415
:1052200063068160782F9AAB89AB4EA55FA568A90C
:105230008AA90E944E2569CE863059F4F0E0EE5CD2
:10524000F94FE4910E2F10E085E8E82E8FE0F82E5C
:1052500076CE893061F4E695F0E0E15DF94FE491B6
:105260000E2F10E0B5EDEB2EBCE0FB2E68CE8F309C
:1052700061F4E695F0E0E45DF94FE4910E2F10E063
:10528000A2E1EA2EADE0FA2E5ACE853159F4F0E0D3
:10529000E75DF94FE4910E2F10E0FBEAEF2EFDE001
:1052A000FF2E4DCE08E210E062E3E62E6EE0F62E11
:1052B000883109F444CE833249F4E7E2F6E00591FF
:1052C0001491E8E1EE2EEFE0FE2E39CE04EF11E06E
:1052D00052ECE52E5EE0F52E843209F430CE00ED7E
:1052E00017E041E3E42E46E0F42E853209F027CEA4
:1052F0008E2F63E00E94F22FE92FF0E0EC5DF94F72
:10530000E4910E2F10E075E9E72E75E1F72E17CE28
:105310002091D202FAE02F9F900111242417350723
:1053200008F08ACE9F5F9093D30202C09F3FD1F7CF
:10533000EE2059F00E94300A9FEF1E140CF491E009
:10534000899F802D11248093D802FF2059F00E945C
:10535000300A9FEF1F140CF491E0899F802D1124D7
:105360008093D9023091D802332309F465CE20917D
:10537000D902222309F460CE45EB3403C001112485
:10538000992359F09093D80245EB240390011124FE
:10539000332339F03093D9024FCE81E08093D80285
:1053A000F3CF81E08093D90247CE81E08093DA0287
:1053B00086CE81E08093DB028BCE00E210E0CE014E
:1053C00001967C018091E80085FD0AC08091E8008B
:1053D0008B778093E8000E949E04882399F3AFCED8
:1053E0008091F100F70181937F010150110951F77C
:1053F000A6CE8B3009F4FAC198F5853009F4B2C015
:10540000D0F4823009F477C030F4813009F46FC0F1
:105410008FEF898381C0833009F495C08430C1F750
:105420004C816B818A810E94D60F98278927982703
:105430009E838D8371C0873009F4A2C008F49DC09B
:10544000883009F4CFC0893019F76091EC0270916F
:10545000ED028091EE029091EF020E94AA195CC0C9
:10546000803109F412C1B8F58D3009F4DFC008F4B9
:10547000DAC08E3009F4DEC08F3051F68091FB0225
:105480009091FC02892B09F447C08C81C82ED12C45
:105490002DE1C216D10408F03FC00A811B811027FC
:1054A00001271027CE0101967C01C80ED91EC80124
:1054B0008A5F9D4FCE14DF0479F10A3FF1E01F07A8
:1054C00020F4F70164810E94DD30FFEFEF1AFF0A3C
:1054D0000F5F1F4FECCF823109F4DCC008F4D8C055
:1054E000833109F400C18E3F09F092CF44CE1A8275
:1054F00089E08B8311C08A81823009F47CC28330B9
:1055000081F0813009F084CF0E9457060E943A3022
:105510006B837C838D839E83CE0101960E94F90468
:10552000B7CC8091FB029091FC02892BA9F3DE019C
:1055300013968BEF92E0E1EFF2E021912D938E171D
:105540009F07D9F7E9CF8A81823009F061CF6B815B
:105550007C818D819E810E943A3085E290E00E949C
:10556000DD30DACF2D813E813227232732274C814F
:105570006B818A810E942212CFCF0E945712CCCF1A
:105580008A818138B9F058F4803831F620E04B81B7
:105590006091EE028091ED020E94BC19BDCF82386D
:1055A000E9F0833809F0B8CF20E04091EF026C8138
:1055B0008B81F2CF60E08B810E94371D8B8181113E
:1055C00003C00E94950FA8CF8091EC028160809368
:1055D000EC0260E086950E94371D9ECF8B81809300
:1055E000F0029ACF8A81813899F030F4803809F03E
:1055F00093CF8091EF027DCF823891F0833809F00C
:105600008BCF8091ED028B838091EE028C8384CFCF
:105610008091EC0280FF02C086956BCF80E069CF5D
:105620008091F00266CF80E18A8376CF81E08A8321
:105630008AEF5FCF8C81C82ED12CFDE1CF16D1042B
:1056400008F06ACF0A811B811027012710279E01CD
:105650002F5F3F4F7901C20ED31EC8018A5F9D4F55
:10566000EC14FD0409F458CF0A3FE1E01E0750F4A2
:105670000E94C930F70184830F5F1F4FFFEFEF1ABD
:10568000FF0AEBCFF7011482F7CF0E94121244CF2A
:1056900084E0CACF8C81C82ED12C2DE1C216D10452
:1056A00008F03ACF0A811B81102701271027CE016D
:1056B00001967C01C80ED91EC8018696CE14DF045F
:1056C00009F42ACF003EF1E01F0750F40E94C930D0
:1056D000F70184830F5F1F4FFFEFEF1AFF0AECCF34
:1056E000F7011482F7CFEC80F12C2DE1E216F104E2
:1056F00008F012CF0A811B81102701271027003ED6
:1057000031E0130708F008CF80EE91E0801B910B89
:105710008E159F0508F400CF480146E2840E911CC7
:105720008091FB029091FC02892BD1F5680181E008
:10573000C822DD2400FF0DC0C80185960E94C93033
:105740009D8189279827892781159C4511F48FEF22
:105750008D83C8018E0D9F1D570180FF17C0F1E09A
:10576000AF1AB10835E0632E712C6C0E7D1E6A0CE9
:105770007B1CC4018E0D9F1D0E94C930F3019081D6
:1057800081159C4519F48FEFF3018083E1E0F0E08F
:10579000EC0FFD1FEC0DFD1D2FEFCA14DB0438F0DC
:1057A0009E012F5F3F4F6901E20EF31E19C09481E5
:1057B000858181159C4511F42483258342E0C40E24
:1057C000D11C3296EACF003EE1E01E0720F4F6013C
:1057D00064810E94DD30FFEFCF1ADF0A0F5F1F4F99
:1057E000C8018696EC14FD0471F796CE8091FB02F9
:1057F0009091FC02892B09F48FCECE0101960E9474
:10580000F9049FEFE1EEF4E09150E040F040E1F761
:1058100000C00000A5CA88E0E8E3F1E0DE0191964F
:1058200001900D928A95E1F783E089831A821B82A9
:105830001C8288E0FE01B196DE01159601900D9262
:105840008A95E1F769CE8CE4898381E08A831B82A3
:105850001C8262CE8C81682F70E0762F66278B8148
:10586000860F972F911D092E000CAA0BBB0B25E06C
:10587000880F991FAA1FBB1F2A95D1F7AC01BD0144
:10588000405E5F4F6F4F7F4F481759076A077B078E
:1058900008F442CE8C3421E09207A105B10508F04E
:1058A0003BCE4D3431E053076105710520F04CE4E7
:1058B00051E060E070E0481B590BBC01675C794F18
:1058C000CE0101960E94AC3027CE4AE150E06FEF46
:1058D00070E0CE0107960E94C2308091FB0289835E
:1058E0000A831B821C8285E08D831E8215CE81E097
:1058F00090E09093FE028093FD0282E390E090930B
:10590000EB028093EA020E9463069093E90280937F
:10591000E80202CE012B59F11091F1020091F6023A
:105920008091E8029091E9020E944806853691052F
:1059300038F1102310FF24C00E9463069093E902FF
:105940008093E8028091EA029091EB020197909394
:10595000EB028093EA02892B51F41092FE0210921E
:10596000FD0281E090E09093FC028093FB02809125
:10597000FB0289838091FD028A838091EA02B9CD7E
:1059800082E390E09093EB028093EA02F0CF1092D2
:10599000FC021092FB02C0CD09BD19BD09B400FE86
:1059A000FDCF8091D8008F7D8093D8008091E0005A
:1059B00082608093E0008091E00081FDFCCF0E9436
:1059C000A11214CC60E085E290E00E94DD300E94DC
:1059D00057120E94121264E682E290E00E94DD30CB
:1059E0006FE883E290E00E94DD3066E184E290E0BF
:1059F0000E94DD30DFC985E290E00E94C9301B8241
:105A00001C821D828E8388CD232B09F02ACB60CB8C
:105A1000CF92DF92EF92FF926B017C010E94AC0F5C
:105A200081110EC00E945706C61AD70AE80AF90A61
:105A3000C092AD02D092AE02E092AF02F092B002FC
:105A4000FF90EF90DF90CF90089578941F921FB64B
:105A50001F9211248F939F93AF93BF938091A902BC
:105A60009091AA02A091AB02B091AC020196A11D47
:105A7000B11D8093A9029093AA02A093AB02B093A8
:105A8000AC02BF91AF919F918F911F901FBE1F904D
:105A900018951F921FB61F9211248F939F93AF9357
:105AA000BF938091C202811113C08091A90290918D
:105AB000AA02A091AB02B091AC024196A11DB11D0A
:105AC0008093A9029093AA02A093AB02B093AC0278
:105AD000BF91AF919F918F911F901FBE1F901895FE
